:020000040000FA
:0608000002EF33F01200CC
:02080600FEFFF3
:06080800F6EF10F01200F3
:02080E00C250D6
:08081000020B01E0010E1200D1
:060818009EEF28F0120023
:02081E000F00C9
:10082000FC660000C003000004000000FB6600003E
:10083000FF02000001000000F16600009E030000BE
:100840000A000000E9660000A8030000080000009C
:10085000E5660000BC03000004000000D96600004B
:10086000880300000C000000C06600005503000073
:100870001900000006080000C90300000200000083
:10088000BD660000C403000003000000B76600005E
:10089000F901000006000000B3660000B803000084
:1008A00004000000AF660000B40300000400000074
:1008B000AB660000B0030000040000009E6600006C
:1008C0007B0300000D00000087660000FF010000B0
:0408D0000100000023
:0C08D400AEEC0AF0340EDE6E5B0EDD6E42
:1008E000938A93889386938499829980938E938C2C
:1008F0009A849A82998699849A8A9A8894809A8608
:100900009A8E9A9C919C0F017F0E0B6F0A6F096F54
:10091000086F076F066F056F046F136F126F116F0B
:10092000106F0F6F0E6F0D6F0C6F000EE66EE66AA4
:10093000E66EE66AE66EE66AE66EE66A62EC12F07B
:10094000F56E080EE15EF5500301010E556FF8ECEF
:1009500029F011EC2AF0FFEC2EF037EC2BF092ECA2
:100960002FF0B4EC2FF0CCEC2FF06DEC1DF0ABECD5
:100970000AF02EDB5FEC0AF044EC33F09FEC09F058
:10098000DECFE6FFDDCFE6FF0C0E006E5B0E6FECF8
:1009900009F0F56E050EE15EF550A7EC11F056EF8B
:1009A00009F003012C0ED8807B55010E7C5503E322
:1009B0007B2B000E7C230A0E7B190AE17C5108E197
:1009C000F20E006E5A0E6FEC09F0E552E552E55258
:1009D00003013C0E7B1904E17C5102E18DEC2BF00C
:1009E0002C0E03017B190FE1010E7C190CE199EC2F
:1009F0002BF0CEEC2BF0EC0E006E5A0E6FEC09F0E3
:100A0000E552E552E552200EE66E0F0EE66E07EC5B
:100A100012F0E552E55203012C0E7B5D010E7C596C
:100A200003E31DD8C5EC2DF013CFE6FF12CFE6FF90
:100A300011CFE6FF10CFE6FF0BEC2FF0B1EC09F081
:100A40009FEF09F07CEC0AF0D1DB42D9B1EC09F060
:100A5000ABEC0AF09FD85FEC0AF09FEF0AF07CEC59
:100A60000AF0ABEC0AF05DD85FEC0AF00F0122A1AE
:100A700005D089EC09F016DBE552E5529FEC0AF04F
:100A80000F0121AB1CD037CF3CF091EC14F078EC87
:100A900009F0710E3F6E3D0E406E7A0EF1DB800E56
:100AA000ACEC09F0ACDB3F6A406A200E416E410EAF
:100AB000426EBCEC15F0B0EC16F03CC000FF0F012C
:100AC00021AB0DD095EC09F0020E0F0B05E0D8908C
:100AD00001320032E806FBE100C000FF16D095ECC1
:100AE00009F0F3CFE6FFF4CFE6FFDE0E026E5A0EFA
:100AF000036E046A02C0E6FFE66E04C0E6FF27EC60
:100B000031F0F56E050EE15EF5500F010093815056
:100B1000040B01E0008300978150080B01E000877F
:100B20001200AEEC0AF0DCEC0AF027CFEFFF39DB65
:100B300026CFEFFF0F012251010B15E02351010BCE
:100B400012E0DCEC0AF0EF50DE6EDD6A2ADB9AEC94
:100B50000AF0DECF00F0DDCF01F0FF0EB2EC0AF0BC
:100B600020DB00C0EFFF22A30ED003017D510DE179
:100B70000F010851000802E2086B01D00869030167
:100B8000010E7D6F02D003017D6BB7EC0AF028CF18
:100B9000EFFF8CD3AEEC0AF003017E517F110FE121
:100BA0007E2B000E7F234AEC0AF0670EE66E010EE4
:100BB000A8DB4AEC0AF0530EE66E010EA2DB06DB60
:100BC000080E2AEC0AF0080E1EDB670EE66E010E18
:100BD0007BDB15DBE2EC0AF04EDBF8DA0C0E2AECDC
:100BE0000AF0040E10DB530EE66E010E6DDBA4EC72
:100BF0000AF0DFEC0AF03FDBDFEC0AF064EC0AF00D
:100C000006E076EC0AF07E0EEE6E430E0AD0DFECC4
:100C10000AF06EEC0AF006E076EC0AF0FE0EEE6EDC
:100C2000420EEE6EE2EC0AF064EC0AF006E079ECBB
:100C30000AF07E0EEE6E430E0AD0E2EC0AF06EEC85
:100C40000AF006E079EC0AF0FE0EEE6E420EEE6E51
:100C5000BDDA0C0E72EC0AF003E076EC0AF089DBE8
:100C6000B5DA080E72EC0AF003E079EC0AF081DBE9
:100C7000DFEC0AF084EC0AF0E552E750EF6EE2ECAC
:100C80000AF084EC0AF0EE52E552E750EF6E9EDA7D
:100C900083DB09E0DCEC0AF09AEC0AF082DA09DB8B
:100CA00080DA00C0EFFFF90EDBCFE6FFFA0EDBCFF4
:100CB000E6FFFB0EDBCFE6FFFC0EDBCFE6FFFD0E13
:100CC000DBCFE6FFFE0EDBCFE6FF3EDAF8DBEED24F
:100CD000F6DA0E0EE1260301846B856B80518219D2
:100CE00002E1815183192DE084C3E9FF85C3EAFF46
:100CF000060EEA02F3CFEAFFE902F3CFE9FFF45070
:100D0000EA26410EE9260F0EEA22EECF00F0EFCFE1
:100D100001F0D9CFE6FFDACFE6FFFD0EDBCFE6FF2D
:100D2000FE0EDBCFE6FF04D001C0FAFF0050F96EE3
:100D3000FBDFE552E552E552E55282C380F383C3FF
:100D400081F384C3E9FF85C3EAFF060EEA02F3CF0D
:100D5000EAFFE902F3CFE9FFF450EA26410EE92663
:100D60000F0EEA22020EE926000EEA22EECF02F072
:100D7000EFCF03F0FB0EDBCFE6FFFC0EDBCFE6FF91
:100D8000FD0EDBCFE6FFFE0EDBCFE6FF04D003C097
:100D9000FAFF0250F96EFBDFE552E552E552E552EB
:100DA000F3CF00F0F350F41023E184C3E9FF85C3CF
:100DB000EAFF060EEA02F3CFEAFFE902F3CFE9FF0A
:100DC000F450EA26410EE9260F0EEA22040EE92627
:100DD000000EEA22EECF00F0EFCF01F004D001C008
:100DE000FAFF0050F96EFBDF0301822B000E832314
:100DF0005DD265DACFD9EE52EFCF07FF07CF05FFFF
:100E0000C9D957DA00C006FF00C004FFC3D9AEDA63
:100E1000EFCF09FF8BD353DA040EE126010E42DB3C
:100E2000040EA8DB95DA020E3DDB92DAB3D9040E8C
:100E3000A1DBC7DA0C0E1FDAADD9C3DA080E1BDA54
:100E4000C5D9AADA25E0A6D9080E94DBEECFDFFFDC
:100E5000010EEECFDBFF020EEECFDBFF030EEECF77
:100E6000DBFF98D90C0EA4D995D9080E83DB00C0FE
:100E7000EEFF52DB8FD90C0E7DDBDFCFEEFF010ED4
:100E8000DBCFEEFF020EDBCFEEFF030EDBCFEEFF7C
:100E900081D90C0EC1DA140ED2D97CD9080EBCDA75
:100EA000100ECDD90301015102E1000E01D0010E57
:100EB000006E016A00BE01686DD9180E5BDB00C0D0
:100EC000EEFF01C0EDFF0CCF3CF091EC14F03AC006
:100ED0001AF03BC01BF03CC01CF03DC01DF03F6A47
:100EE000406A040E416E430E426ED2EC14F03AC0DA
:100EF00016F03BC017F03CC018F03DC019F03F6A37
:100F0000406A040E29DA3AC012F03BC013F03CC02C
:100F100014F03DC015F03F6A406A820E4EDABCEC18
:100F200015F03AC00EF03BC00FF03CC010F03DC0D1
:100F300011F03F6A406A400E416E426ED2EC14F0EE
:100F40003AC00AF03BC00BF03CC00CF03DC00DF0C5
:100F5000D00E3F6E0F0E406E490E416E400E426E37
:100F6000BCEC15F03AC006F03BC007F03CC008F0FE
:100F70003DC009F03F6A406A340EEED93AC002F033
:100F80003BC003F03CC004F03DC005F0C7D9BCEC49
:100F900015F0D7EC16F03BC000F03CC001F0FAD8D9
:100FA0001A0EE8DA3BC0EEFF01C0EDFF70EC2BF04B
:100FB000FFD9F0D81C0EDEDA39C0EEFF01C0EDFF1C
:100FC000E2DA65DA2F0ED6DA8F0EEE6EED6A6ED1AA
:100FD00076D9E0D8040E5BDAEE6AEE6AEE6AEE6A63
:100FE000D9D80C0E54DA080E52DA140E50DA100E5C
:100FF0004EDA2F0EEB6A300EEB6ACEEC2BF0CAD82D
:101000001C0EEB6A1D0EEB6ABEDA8DDA140EEB6A6B
:10101000150EEB6ADBD8120EEB6A130EEB6AD6D80C
:101020000C0E81DA080E7FDA100EEB6A110EEB6AF5
:10103000CDD8EE6AEE6AEE6AEE6AC8D8040EB4DA6B
:10104000BBDA7F0EEF6EADD87F0EEF6E52DA91D91C
:101050004DDA8FD98CDA7F0EEF6E68D20F01009FC8
:10106000009B00950091009D00990097009312004D
:1010700026D9FD0EDBCF02F0FE0EDBCF03F00334EA
:1010800007E202500008000E035402E28AD905D09C
:1010900088D9006C011E000E012200C0F3FF01C0C0
:1010A000F4FF44D20CD9040EE126030186518711C6
:1010B00013E1010E866F876B810EE66EE6687F0E88
:1010C000EFD8000EE66EE66A870EEAD8030EE8D87F
:1010D0007B0EE66E010E15D9030101512AE00F01C6
:1010E0000C51006E016A840E005E000E015A00C0B1
:1010F000DEFF01C0DDFFE66EE66ADECFE6FFDDCF94
:10110000E6FF7B0EE66E010E39DA020EF3CFDBFF4F
:10111000030EF4CFDBFF32D925DA3CD8EE5200C003
:10112000EFFF2CD90026000E012234D800C0EFFFBB
:101130000AD00301866B876B2DD8EE527F0EEF6EBF
:1011400029D87F0EEF6EB2D0BAD822DA000EE66E42
:10115000E66A320EE66EE66A140EE66EE66A8F0EF8
:10116000E66E010EE66E64EC18F0F56E0C0EE15EB4
:10117000F5502CD8100E0AD90DD82F0E07D98F0E86
:10118000E66E010EFBD9F350E66EF1D9E552E75059
:10119000EF6ECCD1FD0EDBCFE9FFFE0EDBCFEAFF19
:1011A0001200F90EDBCFE9FFFA0EDBCFEAFF1200E7
:1011B000E1D9EECF00F0EECF01F0EECF02F0EFCFAD
:1011C00003F01200D7D9EE6AEE6A1200FB0EDBCFF5
:1011D000E9FFFC0EDBCFEAFF120000C03AF001C0CD
:1011E0003BF002C03CF003C03DF01200310EE66E51
:1011F000010EE66E000EE66E010EE66E12003AC0BB
:1012000000F0A4EF0AF0B6D9EECF0EF0EECF0FF05B
:10121000EECF10F0EFCF11F00EC03AF00FC03BF060
:1012200010C03CF011C03DF0D7EC16F03BC00CF004
:101230003CC00DF03BC0E6FF3CC0E6FF12009AD96F
:10124000EECF3AF0EECF3BF0EECF3CF0EFCF3DF0FB
:1012500000C03FF001C040F002C041F003C042F0C6
:10126000D3EC14F03DC0EDFF3CC0EDFF3BC0EDFF03
:101270003AC0EFFF12007ED93AC0EEFF8CEF0AF0C1
:10128000416E410E426EBCEC15F03AC004F03BC01A
:1012900005F03CC006F03DC007F03F6A406A12000E
:1012A000E66EE66A010EE66EE66A1200D9CFE1FF4D
:1012B0003DD1EF50006E016AFF0EB2EF0AF0D9CFB8
:1012C000E6FFE1CFD9FF120059D9F3CF04F0F4CFF4
:1012D00005F0F3CF3BF0F4CF3CF0A4EF14F0016E37
:1012E000026A00C0E6FFE66E02C0E6FF27EF31F0BB
:1012F0003AC008F03BC009F03CC00AF03DC00BF01A
:101300001200E66EF3EC17F0F56E120EE15EF5508A
:101310001200470EE66E010EE66E12003F6A406A4A
:101320007A0E416E440E426E12008F0EE66EC6ECCF
:101330002CF0E552F3CF00F0F4CF01F01200000ED4
:10134000E66E0F0EE66E20EC12F0E552E55212004A
:1013500039C0EEFF8CEF0AF0416E430E426E69EF2A
:1013600015F0E552E552E552E5521200030EBAEFD0
:101370000AF0FE0EEE6E420EEE6E1200020EDBCF93
:1013800000F0030EDBCF01F07F0E1200F3D8EECF9A
:10139000E6FFEFCFE6FF1200120EECD8EE50ED1094
:1013A0001200FD0EDBCF00F0FE0EDBCF01F01200CD
:1013B00039C000F03AC001F01200416E420E426E98
:1013C0001200EECF10F0EECF11F0EECF12F0EFCF13
:1013D00013F010C039F011C03AF012C03BF013C046
:1013E0003CF0B9EC14F03AC00CF03BC00DF03CC03E
:1013F0000EF03DC00FF092DF69EC15F079DFD20EF0
:101400003F6E530E406E7B0E3BDF700ED6DF69ECF5
:1014100015F0F5DECAEF08F0ADD8EECF04F0EECF50
:1014200005F0EECF06F0EFCF07F0620E3F6EA10E93
:10143000406ED60E416E3C0E426E04C03AF005C0BE
:101440003BF006C03CF007C03DF0BCEC15F0D7DE29
:10145000CAEF08F08FD8EECF08F0EECF09F0EECF4C
:101460000AF0EFCF0BF008C03AF009C03BF00AC019
:101470003CF00BC03DF0D7EC16F03BC006F03CC092
:1014800007F03BC0E6FF3CC0E6FFD1EF08F08CD888
:10149000CAEF08F07DD8040E03DF040E01DF210E31
:1014A00050EF09F0E66EE66A9AEC1DF0E552E5525F
:1014B0007FDF3BC002F03CC003F0CAEF08F0F56EDE
:1014C000060EE15EF550120073D87E0E416E430E9B
:1014D000426E83DE0FEC17F0010A120069D8FE0E8F
:1014E0006CDF5DD065D8416A426A59D068D8E2EFB6
:1014F00008F068D8E2EF08F04AEC1BF0B2EC23F0F9
:1015000075DE89DCB1EF09F053DE67DEB0EC16F072
:101510003C50E66ED1EF08F001C0EEFF02C0EEFFD6
:1015200003C0EEFF120040D8E6EF08F0E552E7CF27
:10153000D9FF1200BEDE40D800C0EFFF1200E9DE86
:1015400058DCE552E55212003BC001F03CC002F00D
:101550003DC003F01200DDDEF6EF08F0B0DE020E53
:10156000E1261200D8800056000E0156120019DE46
:10157000B6EF09F0E926000EEA221200E66E70ECE2
:1015800018F05FEF0AF006DE1E0E81DF220E120059
:10159000810EE66EE6687F0EE66EE66A12001DDEDC
:1015A00006EC17F0010A12000DDEEE6AEE6A120078
:1015B000FFDD3F6A406A1200F4DDEE521200F1DDF9
:0A15C000040E1200EEDD080E12000A
:0615CA0021EC10F0FB0E05
:1015D000DBCFF3FFDB06F35000090AE06FEC10F0FD
:1015E000FA0EDAEC10F0F3E1011CF1E1010E01D08A
:1015F000000E50EF10F021EC10F03B0EE12402E35E
:10160000E168E652E16E010EDB6A020EDB6AF90E5A
:10161000DBCFF6FFFA0EDBCFF7FFFB0EDBCFF8FFD9
:101620000800F550DF6EDF5002E176EF0FF0250E77
:10163000DF5C02E069EF0FF0030EDB6A040EDB6A89
:10164000050EDB6A060EDB6A070EDB6A89EC0FF01B
:101650002D0EDF5C0CE02B0EDF5C09E0200EDF5C62
:1016600006E0230EDF5C03E0300EDF5C1AE1DF50A2
:10167000300A14E0130A0FE0030A0AE00B0A05E03F
:10168000060AE4E1030EDB80E1D7030EDB82DED73E
:10169000030EDB84DBD7030EDB86D8D7030EDB8893
:1016A000D5D72A0EDF5C1BE185EC0FF0D3EC0FF0F1
:1016B00010E0030EDB803B683C68130EDBCF40F08C
:1016C000140EDBCF41F083EC16F0040E39C0DBFFC3
:1016D00003D0130EBCEC0FF089EC0FF00BD0090E09
:1016E000DB6A2AEC10F003E09EEC10F0FAD7090E4A
:1016F000BCEC0FF0030EDBB0DB982E0EDF5C1BE1C1
:1017000089EC0FF02A0EDF5C0BE185EC0FF0D3ECD7
:101710000FF003E1130E0EEC10F089EC0FF00BD07C
:10172000090EDB6A2AEC10F003E09EEC10F0FAD709
:10173000090E0EEC10F0680EDF5C07E189EC0FF08B
:10174000680EDF5C1DE1030E18D0740EDF5C17E03D
:101750007A0EDF5C14E0480EDF5C06E0540EDF5CBE
:1017600003E05A0EDF5C02E1020E07D06C0EDF5C74
:1017700003E06A0EDF5C04E1010E61EC10F0C9DBEE
:10178000DF506E0A01E181D31E0A01E192D1200AE5
:1017900001E18FD13F0A01E149D11A0A01E146D1A5
:1017A0000D0A01E143D1200A01E140D13A0A01E1E9
:1017B0003DD1200A01E13AD1260A01E135D10D0AD5
:1017C00001E132D11A0A01E1D9D0200A4AE0300AF7
:1017D0001FE0460A0EE0250A01E085D3D950F90F33
:1017E000E96EFF0EDA20EA6E010EEE5E000EEE5A92
:1017F000EE5A6FEC10F0250EE66E95DB03E1011C4E
:1018000001E16BD36BEC10F001E26DD3DB2A6BD3FB
:10181000080EDB6A040EDB50010806E2040EDB044E
:1018200033EC10F0DB508BDB080EDB5009E0030ECD
:10183000DB50010B05E172DB01E04FD3080EDB6AE0
:1018400064DBEFCFDFFFE3EC10F003E1011C01E10B
:1018500044D36BEC10F001E3DB2A60DB01E143D3FE
:101860003CD3070EDB5002080FE1AFEC10F0030E83
:1018700076EC10F00E0EEECFDBFF0F0EEECFDBFF9F
:10188000100EEECFDBFF20D0F70EDBCF03F0F80E0B
:10189000DBCF04F0020E035E000E045AF70E03C005
:1018A000DBFFF80E04C0DBFF03C0E9FF04C0EAFF62
:1018B00066EC10F0026A0E0E00C0DBFF0F0E01C0D6
:1018C000DBFF100E02C0DBFF0E0EDBCFE6FF0F0EBC
:1018D000DBCFE6FF100EDBCFE6FFB3EC30F0E552D6
:1018E000E552E552130E3AC0DBFF140E3BC0DBFF9E
:1018F000060EDB5005E0130EAAEC10F001E26ADBE5
:10190000CEEC10F002E2130E37DB91EC10F006E0A3
:10191000040EAAEC10F002E2050E2EDB030EDBB083
:1019200005D0FCDA01E0D9D2080EDB6A090EDB6AC9
:101930000E0EDBCFF6FF0F0EDBCFF7FF100EDBCF67
:10194000F8FF0800F550DF6EDF5014E0D4EC10F023
:1019500011E2E3EC10F003E1011C01E1BED2BBDBBC
:1019600001E3DB2A090EDB2AD9500E0FE96E000EC7
:10197000CBDBE7D7D3DA01E1B6D2AFD2C6DA110EAC
:10198000EECFDBFF120EEDCFDBFF110EDBCFE6FF5C
:10199000120EDBCFE6FFA5EC30F0E552E552130E58
:1019A000F3CFDBFF140EF4CFDBFF060EDB5004E0B9
:1019B000130ED0DB01E20EDBCEEC10F002E2130ED0
:1019C000DBDAAFDB05E0040EC5DB02E2050ED4DA9C
:1019D000030EDBB005D0A2DA01E07FD2080EDB6A8D
:1019E000090EDB6A110EDBCFE9FF120EDBCFEAFF37
:1019F000EFCFDFFFDF5014E0D7DB12E2E4DB03E1DF
:101A0000011C01E16AD267DB01E3DB2A090EDB2A54
:101A1000110EDB2ADBCFE9FF120EE8E3DB2AE6D763
:101A20007DDA01E160D259D2030EDB8E070EDB04B2
:101A300010E195DB040E5ADB0A0EEECFDBFF0B0E36
:101A4000EECFDBFF0C0EEECFDBFF0D0EEECFDBFF9C
:101A50006CD0070EDB5003082CE1030EDBAE0DD07B
:101A6000B2DA020E76DAEFCF00F0016A026A036A98
:101A700000AE39D00168026835D0F70EDBCF01F037
:101A8000F80EDBCF02F0020E015E000E025AF70ED6
:101A900001C0DBFFF80E02C0DBFF01C0E9FF02C09E
:101AA000EAFFEFCF00F00A0E00C0DBFF0B0EDB6A8F
:101AB00038D0070EDB50020809E1030EDBAE04D07C
:101AC00059DB02AE10D00ED055DB0DD0030EDBAECD
:101AD00012D079DA020E3DDAF9DA026A036A01AE4F
:101AE00002D002680368E2DA0C0E02C0DBFF0D0EC2
:101AF00003C0DBFF1AD0F70EDBCF02F0F80EDBCF0E
:101B000003F0020E025E000E035AF70E02C0DBFF66
:101B1000F80E03C0DBFF02C0E9FF03C0EAFFD6DA1C
:101B2000C5DA0C0EDB6A0D0EDB6A060EDB5005E132
:101B3000010EF36E050EF3CFDBFF150EDB6A160EFA
:101B4000DB6AD950370F006E000EDA20016E390EB5
:101B500000C0DBFF3A0E01C0DBFF380EDB6A080E67
:101B6000DB6A0A0EAEDADF50780A12E0200A10E0D3
:101B7000280A0CE0200A0AE03F0A06E00D0A02E00B
:101B8000200A08E1020E05D0080E03D0080EDF2659
:101B9000100E97DA030EDBBE02D0DB92DB94DB5033
:101BA000800B26E08ADA030EEB50000AE8AE02D082
:101BB000D89008D0000EEE5C000EEE58000EEE58E5
:101BC000000EEE5815E211DA3E683F684068416841
:101BD000B3EC31F00A0E35C0DBFF0B0E36C0DBFF75
:101BE0000C0E37C0DBFF0D0E38C0DBFF2D0E08D00A
:101BF000030EDBA202D02B0E03D0DBA408D0200EF4
:101C0000F36E170EF3CFDBFF150EDB2A02D0170E93
:101C1000DB6A050EDB5003E1B5D901E189D0760E10
:101C2000006E660E016E000E026E070EDBCF03F033
:101C3000046A056A066A03C03EF004C03FF005C0AE
:101C400040F006C041F0D1D984EC32F00050352488
:101C5000F36E01503620F46E02503720F86EF4CF48
:101C6000F7FFF3CFF6FF0800090EF5CFDBFF580EA4
:101C7000DF5C0FE1610EF36E090E79D90AE3200EE5
:101C8000006E090EDBCFE7FF0050E75E090EE7CFDD
:101C9000DBFF070EDBCF00F0016A026A036A0DDA90
:101CA00000C03EF001C03FF002C040F003C041F070
:101CB000EECF39F0EECF3AF0EECF3BF0EFCF3CF085
:101CC00084EC32F03CC0EDFF3BC0EDFF3AC0EDFFCD
:101CD00039C0EFFF390EDBCFE9FFDB063A0EDBCF71
:101CE000EAFF01E2DB06090EDBCFEFFF150EDB2A70
:101CF00049D995E1030EDBA61DD06F0EDF5C06E12E
:101D0000BFD918E3150EDB2859DA14D0780EDF5C42
:101D100009E0580EDF5C06E0620EDF5C03E0420E75
:101D2000DF5C08E1020EF36E160EF3CFDBFF02D08C
:101D3000150EDB6A030EDB50100B0EE0040EDBCF3A
:101D400000F0050EDB50D880005406E2060EDB5092
:101D500003E1040EDB5032DA93D90AE2050EDBCF41
:101D6000E7FF150EDB50E75E050EE7CFDBFF02D085
:101D7000050EDB6A040EDBCF00F0160E43D9D880C7
:101D8000005414E2160EDBCFE6FF150EDBCFE6FFA4
:101D9000040EDBCFE6FF050EDB50E552E75CE552B3
:101DA000D880E754E552D880E7545DD9030EDB5064
:101DB000010B0BE1080EDB5008E0B0D801E08DD03C
:101DC000080EDB50BCD8080EDB6A170EDB5007E0AC
:101DD00086D9170EEFD903E1011C01E17ED0160E62
:101DE000DB5016E07CD9300EE66E9DD802E1011C76
:101DF00074E075D9DFCFE6FF71EC31F0E552E552C2
:101E0000E552F4CF01F00001F31C02E1011C65E092
:101E1000050EDBCF00F0160EDB50D880005409E22F
:101E2000050EDBCFE7FF160EDB50E75E050EE7CFB2
:101E3000DBFF300EE66E050EC9D94FE1390EDB2A05
:101E4000DBCFE9FF3A0E01E3DB2ADBCFEAFF090E25
:101E5000EFCFDBFFDB500EE042D9090EABD902E138
:101E6000011C3BE0390EDB2ADBCFE9FF3A0EEDE344
:101E7000DB2AEBD753D831E1160EDBCFE6FF080E95
:101E8000C1D8E552E7245BD82ED0070EDB50030AF9
:101E90001CE0010A14E0030A07E079D9DBCFEEFF6A
:101EA000020EDBCFEDFF1FD0F3D8056A03AE02D0E0
:101EB000046805682AD8BAD805C0EEFF14D0E8D85F
:101EC00003BE046822D8B2D80ED061D9DBCFEFFFB1
:101ED0000AD079D905E1011C03E1F368F46810D058
:101EE000FAD801E3DB2A77D910EF0BF0010EDBCF34
:101EF00000F0020EDBCF01F000C0F3FF01C0F4FFE1
:101F0000D9CFE1FFDACFE2FFCBD029D9020E76EFAD
:101F100010F061D90800F550DF6E1200200EE66E59
:101F2000080EE6EF10F071EC31F0E552E552E552A3
:101F3000F3CF00F0F4CF01F00001F31C1200006EAB
:101F4000016AD950010F4DD90050EE260150ED2203
:101F50001200045E000E055AF70E04C0DBFFF80EF7
:101F600005C0DBFF04C0E9FF05C0EAFF1200DBCFBC
:101F7000F4FFF350F45C1200DB50E76E040EE7CF81
:101F8000DBFF12000A0EDBCF00F00B0EDBCF01F0FF
:101F90000C0EDBCF02F00D0EDBCF03F00050011072
:101FA000021003101200130EEECFDBFF140EEDCF64
:101FB000DBFF130EDBCF00F0140EDBCF01F00001CE
:101FC000800E01141200F70EDBCF04F0F80EDBCF09
:101FD00005F01200050EDB50E66ED950130F01D943
:101FE000E552E750EE6EED6A12000A0EDBCF39F0D3
:101FF0000B0EDBCF3AF00C0EDBCF3BF00D0EDBCF40
:102000003CF01200DBCFE6FF150EDBCFE6FF050E3E
:10201000DB50E552E724E552E7241200DB50CED82E
:10202000010EF36E060EF3CFDBFF1200EE50EFCF82
:10203000EAFFE96E02C0EEFF03C0EEFF04C0EEFF50
:102040001200D9CFE6FFDACFE6FFE1CFD9FFE2CF2A
:10205000DAFF1200DFCFE6FFE66AF0EC32F0E5527D
:10206000E552F3501200E76E080EE7CFDBFF1200D7
:10207000EECF00F0EECF01F0EFCF02F0036A1200D6
:10208000050EDBCF00F0150EDB50D8800054120097
:10209000010EDBCF02F0020EDBCF03F0046A120068
:1020A000E552E5CFDAFFE7CFD9FF12000A0E00C0F4
:1020B000DBFF0B0E01C0DBFF1200D9500A0FF1EF5E
:1020C00010F0F36E070EF3CFDBFF1200EECF00F03F
:1020D000EFCF01F01200010EDB2A020E1200FC0EFF
:1020E000DBCFE6FFFD0EDBCFE6FF1200005E000E49
:1020F000015AF70E00C0DBFFF80E01C0DBFF00C085
:10210000E9FF01C0EAFF1200DA20EA6EEF2AEECF03
:10211000F6FF000EEF22EECFF7FFEF22EECFF8FF33
:102120001200040EDBCFE6FF130EDB50E552E75C36
:102130009ADFDB5004DF060EDB501200090EDB5085
:102140000A0DF350DF24D00FE76E090EE7CFDBFF57
:1021500089EF0FF0DB50F36E050EB7EF0FF0F70EBF
:10216000DBCF00F0F80EDBCF01F01200DFCFE6FF8F
:1021700093EF0FF028DF030EECDE38EF10F0E5EC04
:102180000AF0E552E552E552E55200091200BDDEC3
:10219000EE50EFCFEAFFE96E010E1200130EDB5096
:1021A000F36E040EB7EF0FF0040EDB50F36E090E62
:1021B000B7EF0FF0DBCFE6FF93EF0FF0E76E050E02
:1021C000E7CFDBFF12008BDFB6EF10F0DBCFE6FFCF
:1021D00086DFBFEF10F0D950F90FE96EFF0E84EFE4
:0C21E00010F0E96E000EDA20EA6E12002A
:0421EC00D8CFE4FF65
:1021F000E0CFE4FFE46EDACFE4FFE2CFDAFFE9CF2D
:10220000E4FFEACFE4FFE652F2A202D0A5D802D062
:102210009EB6D1D8E552E5CFEAFFE5CFE9FFE5CF9D
:10222000DAFFE550E5CFE0FFE5CFD8FF1000E66A22
:10223000010EE66E050EE66E1FEC32F0E552E55239
:10224000E5521200070EB46E000E886E876E866E21
:10225000856E846E836E826E816E806E916E906EDE
:102260008F6E8E6E8D6E8C6E8B6E8A6E896E2F0E5B
:10227000926E93689C0E946E956A966A9768040EA7
:10228000986E0E0E9A6E9968C16AF19EB0989C8EF7
:10229000A26A9F6AA06A9D6AA36AA56AC8DF9F8630
:1022A000D08E9E969D869382F06AF288F09EF0987A
:1022B000F192F09AF16AF28CF28E1200D9CFE6FF19
:1022C000E1CFD9FFE652BEDF0F01409740990301ED
:1022D000040E796F0F0E7A6FDF6A100EDF5C0AE270
:1022E000DF50EA6A7925E96E7A51EA227F0EEF6EB5
:1022F000DF2AF3D70F011D6B010E1E6FC20E1F6F79
:102300000F0140850F01226B236B0F01006B026BE5
:10231000036B010ED56E320ED76ECF0ED66ED59EE4
:10232000000EE66E0F0EE66E8BD8E552E5520F01F9
:102330004093000EE66E0F0EE66E82D8E552E5522F
:102340000F014093E552E552E7CFD9FF1200828298
:102350008088949292981200F2920301200E756F79
:102360009F860F0140A906D00301E00E726F000E98
:10237000736F05D00301C00E726F000E736F0F01F3
:1023800040A1407940A706D00301800E706F000E77
:10239000716F05D00301A00E706F000E716FC9CF71
:1023A00076F370C3E9FF71C3EAFF702B000E71234F
:1023B000EF50C96E12009E96C9CF76F30301755196
:1023C000000823E272C3E9FF73C3EAFF722B000E19
:1023D000732376C3EFFF70C3E9FF71C3EAFF702B6D
:1023E0007123EFCF76F376C3C9FF750775510CE102
:1023F0000F01020E1E6F0F0140934081320ED76E07
:10240000CF0ED66EF294D58E01D0C96A1200D9CF04
:10241000E6FFE1CFD9FF0F0140A10ED0FD0EDBCFCB
:10242000E6FFFE0EDBCFE6FFA2EC22F0E552E5521E
:102430009D960F0140919D86E552E7CFD9FF12008E
:10244000D9CFE6FFE1CFD9FF0F0140B332D0FD0E67
:10245000DBCFE9FFFE0EDBCFEAFF1E0EE926000E02
:10246000EA22EF50020809E1FD0EDBCFE6FFFE0E87
:10247000DBCFE6FF69D8E552E552FD0EDBCFE9FF81
:10248000FE0EDBCFEAFF150EE926000EEA22EF9ED4
:10249000FD0EDBCFE6FFFE0EDBCFE6FF10EC22F0F9
:1024A000E552E5529D960F01407740839D860F01CE
:1024B0001D2BE552E7CFD9FF12009D960F014091E9
:1024C0009D861200D9CFE6FFE1CFD9FF0001346B22
:1024D000D950FD0FE96EFF0EDA20EA6E010EEE18FC
:1024E00001E1ED5002E1348101D0BA6AD950FB0F0D
:1024F000E96EFF0EDA20EA6E010EEE1801E1ED50F2
:1025000002E1348301D0B76AD950F90FE96EFF0EAA
:10251000DA20EA6E010EEE1801E1ED5002E1348599
:1025200001D0736AD950F70FE96EFF0EDA20EA6E18
:10253000010EEE1801E1ED5002E1348701D0706A1E
:10254000E552E7CFD9FF1200D9CFE6FFE1CFD9FF9F
:10255000FD0EDBCFE9FFFE0EDBCFEAFF1C0EE92606
:10256000000EEA22EF6AFD0EDBCFE9FFFE0EDBCFA5
:10257000EAFF170EE926000EEA22EF6AC6AE0ED079
:10258000C69EFD0EDBCFE9FFFE0EDBCFEAFF170E86
:10259000E926000EEA22010EEF6E22D0F150800BE8
:1025A00010E0F250080B0DE0FD0EDBCFE9FFFE0E50
:1025B000DBCFEAFF170EE926000EEA22020EEF6ECD
:1025C0000FD0F0A60DD0909EFD0EDBCFE9FFFE0EE2
:1025D000DBCFEAFF170EE926000EEA22030EEF6EAC
:1025E000250EC614250819E0FD0EDBCFE9FFFE0E0F
:1025F000DBCFEAFF1C0EE926000EEA22010EEF6E89
:10260000FD0EDBCFE9FFFE0EDBCFEAFF170EE9265A
:10261000000EEA22C6CFEFFF80D1C55019E0FD0EB3
:10262000DBCFE9FFFE0EDBCFEAFF1C0EE926000E32
:10263000EA22020EEF6EFD0EDBCFE9FFFE0EDBCFCE
:10264000EAFF170EE926000EEA22C5CFEFFF65D19B
:10265000D0BE19D0FD0EDBCFE9FFFE0EDBCFEAFFC7
:102660001C0EE926000EEA22030EEF6EFD0EDBCFF4
:10267000E9FFFE0EDBCFEAFF170EE926000EEA2285
:10268000D0CFEFFF4AD19DB619D0FD0EDBCFE9FFC9
:10269000FE0EDBCFEAFF1C0EE926000EEA22040E36
:1026A000EF6EFD0EDBCFE9FFFE0EDBCFEAFF170E6C
:1026B000E926000EEA229DCFEFFF2FD19C5019E0B2
:1026C000FD0EDBCFE9FFFE0EDBCFEAFF1C0EE92695
:1026D000000EEA22050EEF6EFD0EDBCFE9FFFE0EC7
:1026E000DBCFEAFF170EE926000EEA229CCFEFFFB0
:1026F00014D1080E9F5C19E0FD0EDBCFE9FFFE0E42
:10270000DBCFEAFF1C0EE926000EEA22060EEF6E72
:10271000FD0EDBCFE9FFFE0EDBCFEAFF170EE92649
:10272000000EEA229FCFEFFFF8D0A25019E0FD0E75
:10273000DBCFE9FFFE0EDBCFEAFF1C0EE926000E21
:10274000EA22070EEF6EFD0EDBCFE9FFFE0EDBCFB8
:10275000EAFF170EE926000EEA22A2CFEFFFDDD036
:10276000A55019E0FD0EDBCFE9FFFE0EDBCFEAFF3F
:102770001C0EE926000EEA22080EEF6EFD0EDBCFDE
:10278000E9FFFE0EDBCFEAFF170EE926000EEA2274
:10279000A5CFEFFFC2D0100EF214100819E0FD0E05
:1027A000DBCFE9FFFE0EDBCFEAFF1C0EE926000EB1
:1027B000EA22090EEF6EFD0EDBCFE9FFFE0EDBCF46
:1027C000EAFF170EE926000EEA22F2CFEFFFA5D0AE
:1027D000470EF11419E0FD0EDBCFE9FFFE0EDBCF53
:1027E000EAFF1C0EE926000EEA220A0EEF6EFD0E2D
:1027F000DBCFE9FFFE0EDBCFEAFF170EE926000E66
:10280000EA22F1CFEFFF89D0C00EF01419E0FD0EDF
:10281000DBCFE9FFFE0EDBCFEAFF1C0EE926000E40
:10282000EA220B0EEF6EFD0EDBCFE9FFFE0EDBCFD3
:10283000EAFF170EE926000EEA22F0CFEFFF6DD077
:1028400092A819D0FD0EDBCFE9FFFE0EDBCFEAFF29
:102850001C0EE926000EEA220C0EEF6EFD0EDBCFF9
:10286000E9FFFE0EDBCFEAFF170EE926000EEA2293
:1028700092CFEFFF52D093B019D0FD0EDBCFE9FF1E
:10288000FE0EDBCFEAFF1C0EE926000EEA220D0E3B
:10289000EF6EFD0EDBCFE9FFFE0EDBCFEAFF170E7A
:1028A000E926000EEA2293CFEFFF37D03E0E9414B4
:1028B0001C0819E0FD0EDBCFE9FFFE0EDBCFEAFFBF
:1028C0001C0EE926000EEA220E0EEF6EFD0EDBCF87
:1028D000E9FFFE0EDBCFEAFF170EE926000EEA2223
:1028E00094CFEFFF1AD097BE18D0FD0EDBCFE9FFD3
:1028F000FE0EDBCFEAFF1C0EE926000EEA220F0EC9
:10290000EF6EFD0EDBCFE9FFFE0EDBCFEAFF170E09
:10291000E926000EEA2297CFEFFFE552E7CFD9FF75
:022920001200A3
:0E292200449E05D0449E3CAE02D03C6C448ED8
:102930003CC036F0356A486A476A860E376E386A98
:1029400089EF17F0449E08D0449E3CAE05D03B6C06
:102950003C1EE86A3C22448E3CC036F03BC035F059
:10296000486A476A8E0E376E386A89EF17F0449EC0
:102970000CD0449E3CAE09D0396C3A1E3B1E3C1E26
:10298000E86A3A223B223C22448E3CC036F03BC0EF
:1029900035F03AC048F039C047F09E0E376E386ABD
:1029A00089EF17F0427E446AC5EC17F0DDEC17F0B2
:1029B00044B66DEF17F044A20AD044AA03D044BE37
:1029C0006DEF17F044A479EF17F076EF17F044AAF3
:1029D00005D044AC79EF17F076EF17F044A00AD099
:1029E00044A808D044BE04D044A402D082EF17F01B
:1029F00086EF17F0476A386A42503D5C466E10E336
:102A00003AC048F03BC035F03CC036F03DC045F020
:102A10003FC03AF040C03BF041C03CF0443A09D0DE
:102A20003FC048F040C035F041C036F042C045F0EC
:102A3000466C449E44BC448E45C037F044B0B5EF6C
:102A400017F01A0E4660B5EF17F0376A3D6A44A4D6
:102A500008D03A6C3B1E3C1E3D1EE86A3B223C22DD
:102A60003D2244AC08D0486C351E361E371EE86A3D
:102A7000352236223722396A465207E03D343C324D
:102A80003B323A323932462EF9D73A5048263B503B
:102A900035223C5036223D50372239C047F0449E03
:102AA00037AE0BD0476C481E351E361E371EE86AFF
:102AB0004822352236223722448E37A006D0D880CD
:102AC0003632353248324732452A45C037F089EF31
:102AD00017F0446AC5EC17F0DDEC17F044B66DEF63
:102AE00017F044A205D044BA6DEF17F074EF17F059
:102AF00044BA80EF17F044A005D044B86DEF17F04A
:102B000080EF17F044B874EF17F0386A7F0E3D2459
:102B1000376EE86A38224250375EE86A385A1A0E31
:102B2000456E3D6A476A486A356A366A3F503A5E82
:102B300040503B5A41503C5A000E3D5A09E73F5025
:102B40003A2640503B2241503C22000E3D2201D00B
:102B5000478AD8903A363B363C363D36D890473691
:102B6000483635363636452EE1D73C503B103A10C4
:102B7000D8A4478A89EF17F0446AC5EC17F0DDEC5A
:102B800017F044B66DEF17F044A205D044B86DEFCE
:102B900017F074EF17F044AA05D044B06DEF17F0AA
:102BA00074EF17F044B002D044A802D080EF17F0C1
:102BB000386A42503D24376EE86A38227E0E375E0E
:102BC000E86A385A476A486A356A366A41503C02B0
:102BD000F4CF36F0F3CF35F040503C02F3504826A6
:102BE000F4503522000E362241503B02F350482665
:102BF000F4503522000E36223F503C02F350472657
:102C0000F4504822000E3522362240503B02F35049
:102C10004726F4504822000E3522362241503A020F
:102C2000F3504726F4504822000E352236223F50FA
:102C30003B02F4504726000E4822352236224050EF
:102C40003A02F4504726000E48223522362289EFF8
:102C500017F0436A41AE32EF16F0406C411EE86A4D
:102C60004122431E3CAE3AEF16F03B6C3C1EE86A34
:102C70003C22431EC7EC32F03CBE4AEF16F043AE96
:102C8000000C3B6C3C1EE86A3C22376C381EE86A3C
:102C90003822000C43BE41EF16F04488FF0C436A13
:102CA000E86A41AE5CEF16F03E6C3F1E401E411ECE
:102CB0003F2240224122431E3CAE67EF16F0396CA2
:102CC0003A1E3B1E3C1E3A223B223C22431E84EC11
:102CD00032F03CBE7EEF16F043AE000C396C3A1E6B
:102CE0003B1E3C1EE86A3A223B223C22356C361ED3
:102CF000371E381E362237223822000C43BE6EEFB4
:102D000016F04488FF0C3CC048F03BC047F03B50F5
:102D10004002F4CF3AF0F3CF39F03C504102F4CF07
:102D20003CF0F3CF3BF04002F3503A26F4503B2204
:102D3000E86A3C2247504102F3503A26F4503B22C5
:102D4000E86A3C2241AEA9EF16F047503B5E48507E
:102D50003C5A48AE000C40503B5E41503C5A000C7F
:102D6000446AC5EC17F044B6BAEF16F044A20AD094
:102D700044B403D07F0E3C6E19D0800E3C6E16D04A
:102D80003C6A14D044B0FCD7870E3D60F1D77E0E6C
:102D90003D64F6D7860E3D5C04E0D8903C323D2A77
:102DA000F9D744A403D03C6C3CAEEAD71200446A85
:102DB000C5EC17F044B6E1EF16F044A20ED044B4CF
:102DC00005D07F0E3C6EFF0E3B6E1FD0800E3C6E1A
:102DD0003B6A1BD03C6A3B6A18D044B0FBD78F0ECD
:102DE0003D60EDD77E0E3D64F5D78E0E3D5C05E06F
:102DF000D8903C323B323D2AF8D744A406D03B6CF5
:102E00003C1EE86A3C223CAEE5D7120018EC17F0F5
:102E100044B6000C44B0000C44B4000C010C18EC97
:102E200017F044B6000C44B0000C44A4000C010C94
:102E3000446AC5EC17F0DDEC17F044B6120044AE5E
:102E400008D044A004D044A802D04480120044908A
:102E5000120042503D5C0BE141503C5C08E14050A7
:102E60003B5C05E13F503A5C02E144801200D8A08F
:102E700002D0448E10D03D5042C03DF0426E3C50D6
:102E800041C03CF0416E3B5040C03BF0406E3A5078
:102E90003FC03AF03F6E42503D5C10E0FF0F09E04A
:102EA000449044B403D044AE4484120044AE4494ED
:102EB0001200422AD890413240323F323F503A5EAF
:102EC00040503B5A41503C5A3CBEEAD7D8903A3623
:102ED0003B363C363D2EF8D7C8D77F0E3D6EFF0EF1
:102EE0003C6E3B6E3A6E12007F0E44BEFF0E3D6E8E
:102EF00002D07F0E3D6E800E3C6E3B6A3A6AF3D77D
:102F000044AE04D0800E3D6E3C6AF7D73D6A3C6A01
:102F1000F4D73650351048104710F8E038BEF0D7D7
:102F200036BE0CD037503810EBE0D89047364836D4
:102F3000353636363706D8A03806F2D73850D4E1C1
:102F40003728D2E047AE11D07F0E471402E148A0E7
:102F50000CD0482AE86A3522362207E3D880363278
:102F600035324832372A3728BFE03750C9E048C0E9
:102F70003AF035C03BF036343C6E37303D6E3C3273
:102F80003D9E44BE3D8E73EF17F03C363D3602E366
:102F90004484447E06E144803D6A3C6A3B6A3A6A66
:102FA00012003D2803E0D8803C321200D8903C3219
:102FB00002E144821200448612004136423602E3A6
:102FC000448C447E06E14488426A416A406A3F6A12
:102FD0001200422803E0D88041321200D8904132DA
:062FE000EAE1448A120040
:0A2FE60005DBE150F90F4BDB0BE1B6
:102FF000FB0EDB6AFC0EDB6A010EF36EF90EF3CFFB
:10300000DBFFFA0EDB6AD950F10F3CDB0BE1F30E6C
:10301000DB6AF40EDB6A010EF36EF10EF3CFDBFF19
:10302000F20EDB6AD950F50F2DDB0BE1F70EDB6AF0
:10303000F80EDB6A010EF36EF50EF3CFDBFFF60E32
:10304000DB6A00DAFB0EDBCFEEFFFC0E1FDB020EAD
:1030500044DAF90EDBCFEEFFFA0E18DB040E3DDA90
:10306000F70EDBCFEEFFF80E11DB060E36DAF50EAB
:10307000DBCFEEFFF60E0ADB080E2FDAF30EDBCF06
:10308000EEFFF40E03DB0A0E28DAF10EDBCFEEFFC3
:10309000F20EDBCFEDFFD1DAEF0EDBCFEEFFF00E5D
:1030A000DBCFEDFFCEDAED0EDBCFEEFFEE0EDBCFAA
:1030B000EDFF9BDA310EEE6E750EED6EC3D90E0E7E
:1030C000EB6A0F0EEB6A9AD230DA0BDA010EE66E7B
:1030D000E66A39D22ADA010EE66EE66A02DA33D2FD
:1030E00088DA040EE126DE6ADD6A64DAFB0EDB5064
:1030F000025C006EFC0EDB500358016E020E00C035
:10310000DBFF030E01C0DBFF70DA310EEE1806E1C3
:10311000750EED1803E199DA54DA9BDA66DAEECF30
:1031200000F0EFCF01F0013404E200503008750EDA
:1031300001540AE35ADA4FDAD880035004E7D00E7C
:10314000025C8A0E035801E284DA7CD9020E87DA27
:1031500079D9EECF04F0EFCF05F0020EDBCF3BF0D4
:10316000030EDBCF3CF004C040F005C041F083EC1F
:1031700016F039C002F03AC003F039C03BF03AC053
:103180003CF006C040F007C041F098D95BD9060E6C
:103190006CDA2BDAEECF04F0EFCF05F053D9040E42
:1031A0005EDA00010650E7D90750FCD908C040F0AC
:1031B00009C041F083D946D90A0E8FD9EECF0AF063
:1031C000EFCF0BF0020EDBCF06F0030EDBCF07F0E4
:1031D0003CDAEE50065C046EEE500758056E32D9AC
:1031E000080E43DA00010850C6D90950DBD90AC0DD
:1031F00040F00BC041F062D9F3D91FDAECD903508B
:103200000118E8AE02D0013404D00050025C015035
:10321000035805E212DAEECFDEFFEDCFDDFFE0D995
:1032200010DAD9D901500318E8AE02D0033401D026
:10323000B4D905E206DAEECFDEFFEDCFDDFF05DA29
:10324000C0D9020EDBCF00F0030EDBCF01F0CDD9E9
:103250000050EE260150ED22C3D900C0F3FF01C09B
:10326000F4FFB6D1C6D9080EE126D950F90F77D9A7
:10327000040EEECFDBFF050EEECFDBFF060EEECF2A
:10328000DBFF070EEECFDBFFF50EDBCF00F0F60E17
:10329000DBCF01F0F70EDBCF02F0F80EDBCF03F04F
:1032A000F10EDBCF04F0F20EDBCF05F0F30EDBCF37
:1032B00006F0F40EDBCF07F004C03FF005C040F08D
:1032C00006C041F007C042F09DD9D2EC14F03AC0DC
:1032D000DEFF3BC0DEFF3CC0DEFF3DC0DDFFDD5258
:1032E000DD52D950FD0F3BD9010EEE180FE1ED5024
:1032F0000DE1AFD8DFCFACF3010EDBCFADF3020EA3
:10330000DBCFAEF3030EDBCFAFF314D0D950FD0FFC
:1033100026D9020EEE180EE1ED500CE19AD8DFCF5F
:10332000A8F3010EDBCFA9F3020EDBCFAAF3030E45
:10333000DBCFABF3040EDBCF00F0050EDBCF01F0EB
:10334000060EDBCF02F0070EDBCF03F01DD940D114
:10335000D9CFE6FF53D14DD907D92CD90150031845
:10336000E8AE02D0033401D018D910E2FD0EDBCF55
:103370003BF0FE0EDBCF3CF0CDD83AC008F03BC0AE
:1033800009F03CC00AF03DC00BF042D0EDD8FB0E76
:10339000DBCF04F0FC0EDBCF05F0F90EDB50045C54
:1033A000026EFA0EDB500558036E01500318E8AEAA
:1033B00002D0033401D0F1D807E2006A016A800E1E
:1033C000026E3F0E036E3CD0CFD855D90150031882
:1033D000E8AE02D0033401D0E0D82EE2FB0EDBCF02
:1033E0000AF0FC0EDBCF0BF0FD0EDB500A5C086E22
:1033F000FE0EDB500B58096E08C03BF03C6E8AD8BD
:103400003AC00CF03BC00DF03CC00EF03DC00FF0D8
:1034100002D904C03AF005C03BF006C03CF007C03A
:103420003DF069EC15F03AC000F03BC001F03CC043
:1034300002F03DC003F004D0006A016A026A036A28
:10344000A3D8DCD0FD0EDBCFE9FFFE0EDBCFEAFF19
:103450001200F90EDBCF00F0FA0EDBCF01F00BD932
:10346000D9CFE9FFDACFEAFFEECF08F0EECF09F0CF
:10347000EECF0AF0EFCF0BF03F6A406A040E416EC8
:10348000420E426E08C03AF009C03BF00AC03CF060
:103490000BC03DF069EC15F0C7D8BDD8B3D8D3EC5C
:1034A00014F0040E3AC0DBFF050E3BC0DBFF060E36
:1034B0003CC0DBFF070E3DC0DBFF120029EC16F01D
:1034C0003BC000F03CC001F0D9CFE9FFDACFEAFF02
:1034D0003B50EE260150ED221200E926000EEA22B2
:1034E0001200F70EDBCFE6FFF80EDBCFE6FF010E92
:1034F000E66EE66AF90EDBCFE6FFFA0EDBCFE6FFFB
:10350000010EE66EE66AFB0EDBCFE6FFFC0EDBCFBC
:10351000E6FF1200A4EC14F087D8F90EDBCF3BF0E5
:10352000FA0EDBCF3CF0A4EF14F063D8F30EDBCF40
:10353000E6FFF40EDBCFE6FFF50EDBCFE6FFF60E7F
:10354000DBCFE6FF1200FD0EDBCFE6FFFE0EDBCF8A
:10355000E6FF49DDF56E120EE15EF5504FD0E96EE3
:10356000FF0EDA20EA6E1200FD0EDBCF00F0FE0E39
:10357000DBCF01F012000402F3CF02F0F4CF03F02E
:103580000502F3500326120000C039F001C03AF0E2
:1035900002C03BF003C03CF012000250005C03503C
:1035A000015812000402F350032602C03BF003C08E
:1035B0003CF01200F90EDBCF02F0FA0EDBCF03F085
:1035C0001200020EDBCFEEFF030EDBCFEDFF120089
:1035D000D9CFE1FF13D0EECF02F0EFCF03F012000E
:1035E000DECF00F0DDCF01F012002CDF0C0E6DEF0E
:1035F0001AF0D9CFE6FFE1CFD9FF1200E552E7CFAD
:10360000D9FF120000C03AF001C03BF002C03CF00C
:1036100003C03DF012003AC03FF03BC040F03CC058
:1036200041F03DC042F012003AC004F03BC005F04A
:103630003CC006F03DC007F0120004DF100E6DEF35
:103640001AF000DF120E6DEF1AF0FCDE0E0E6DEFB9
:103650001AF0F8DE0C0EEB6A0D0EEB6A12003DDF7D
:10366000EECF06F0EFCF07F0120037DFEECF08F015
:10367000EFCF09F01200FB0EDBCF02F0FC0EDBCF28
:1036800003F012006CDFEE50ED101200DBCFEDFF07
:0436900022EF1AF01B
:0C3694003ADA040EE12603019E510AE11F
:1036A000D1D8DF6EDF0404E10301010E9E6F02D06A
:1036B000DF500108F2D9E76E010EE7CFDBFFDB50E8
:1036C000000817E2030EDB6A010EDB50F36E030EF7
:1036D000DBCFF4FFF350F45C0CE2E1D9E76E020EAD
:1036E000E7CFDBFFDBCFE6FF07D8E552030EDB2A8F
:1036F000EBD7D9CFE1FF0ED208DA0301A551060AB4
:1037000001E17FD0030A60E0060A2EE0010A23E00F
:10371000030A01E096D0FE0EDB50006E016AFF0E38
:10372000001804E1015002E1020E8AD0FE0EDB50C7
:10373000410806E10301020E2B6F0301050E80D044
:10374000FE0EDB504E0801E07CD00301020E2B6F11
:103750000301060E75D0FE0EDB50540870E1030124
:103760002A6B0301030E6CD003012A51006E016A1B
:10377000080E005C000E01580AE22A51EA6A080F9E
:10378000E96E030EEA22FE0EDBCFEFFF2A2B2A5151
:10379000006E016A080E001854E1015052E108C39E
:1037A00000F309C301F30AC302F30BC303F30CC311
:1037B00004F30DC305F30EC306F30FC307F30301B0
:1037C0009F2B000EA0233BD0020E03012B5D04E1D2
:1037D000FE0EDB50430824E0030E2B5D04E1FE0ED9
:1037E000DB504B081DE0040E2B5D09E1FE0EDB50A3
:1037F0000D0805E10301A12B000EA22320D0030137
:103800001ED0020E03012B5D04E1FE0EDB504308C7
:1038100007E0030E2B5D06E1FE0EDB504B0802E1D4
:103820002B2B0FD0040E2B5D09E1FE0EDB500D0893
:1038300005E10301A32B000EA42301D00301010E17
:10384000A56F68D162D9E6520301A60507E1FCD84D
:10385000050EE66E02D9E5520301A66BA7050DE140
:10386000A76B03012D6B010E2C6F2E6B2F6B306B32
:103870000301A16BA26BA36BA46B03012D0528E1CF
:103880000301010EA15D000EA25905E303012D6B9A
:103890002E6B2F6BC3D0010EA35D000EA45903E362
:1038A00003012C05BAD003010A0E2E5D000E2F591C
:1038B0000BE3800E2C25006E016A000E012200062B
:1038C000015A00C030F3AAD02E2B000E2F23A6D011
:1038D0000301A16BA26BA36BA46B03012C51120A11
:1038E00001E19AD0030A01E180D0010A01E177D019
:1038F0001F0A6FE0010A67E0030A5FE0010A57E070
:10390000070A4FE0010A45E0030A3DE0010A35E0FD
:103910000F0A2DE0010A25E0030A1DE0010A15E067
:10392000070A0DE0010A07E0030A01E077D08CD80E
:103930000301020E01D0030E2C6F2D6B6FD0800E91
:10394000E66E290ED3D8040E63D0200EE66E130E59
:10395000CDD8050E5DD0840EE66E2D0EC7D8060EAE
:1039600057D0800EE66E2A0EC1D8070E51D0200E19
:10397000E66E2B0EBBD8080E4BD0840EE66E2D0ED5
:10398000B5D8090E45D0200EE66E120EAFD80A0E3D
:103990003FD0E66AE66A79D8E552E55203010B0E9C
:1039A00037D0800EE66E010EA1D80C0E31D0800EFD
:1039B000E66E020E9BD80D0E2BD0800EE66E030E27
:1039C00095D80E0E25D0010EE66E060E8FD80F0E7E
:1039D0001FD0010EE66E100E89D8100E19D0E66ABF
:1039E0004AD8E5520301110E13D0910EE66E640E13
:1039F000E66E100EE66E0F0EE66E730EE66E550E58
:103A0000E66E16D8F56E060EE15EF5500301120E55
:103A10002C6F010E2D6F02D0010E306F3051000857
:103A200003E20301010EA76F03013051E55272D08A
:103A30006CD8540E61D8430E5FD8060E6FD8FA0EBC
:103A40005FD8F90E5DD866D00D0E7CEF1DF0030136
:103A50009E6B120003019E51120057D8520E4CD893
:103A60004D0E4AD8200E48D8FE0EDB50300F44D8F9
:103A70000D0E42D84FD049D84E0E3ED8460E3CD8F7
:103A8000010E3AD8FE0E3CD845D03FD8430E34D86C
:103A9000520E32D8020E48D83DD033EF2AF05AEFFA
:103AA0002AF033D8FE0EDBCFE6FF92EC2AF0E55287
:103AB00031D02AEF2AF03CEF2AF027D8FE0EDBCFD8
:103AC000E6FF78EC2AF0E55225D01FD8560E14D820
:103AD000570E12D8040E22D81DD0500E0DD84D0E00
:103AE0000BD8310E09D8310E7CEF1DF0E66ECDDF1C
:103AF000E552E55203011200E66ED3DFE5521200F3
:103B0000DBCFE6FFCEDFE5521200D9CFE6FFE1CFF3
:103B1000D9FF1200E552E7CFD9FF120005D8FC0EFD
:103B2000EFDFFB0E80EF1DF0E7DFFE0EE9DFFD0E9D
:043B300080EF1DF015
:0C3B3400D9CFE6FFE1CFD9FF040EE12657
:103B4000FD0EDBCFE6FFFE0EDBCFE6FF8ED8E552A3
:103B5000E55239C0DEFF3AC0DEFF3BC0DEFF3CC0AD
:103B6000DDFFDD52DD52E5D9000E3D18E8AE02D092
:103B70003D3409D0000ED8803A54000E3B54000E5C
:103B80003C54000E3D5449E3D4D9FD0E3A1808E1E7
:103B9000E8683B1805E1E8683C1802E1E8683D1870
:103BA00028E0FE0E3A1808E1E8683B1805E1E868ED
:103BB0003C1802E1E8683D182BE0E8683A1808E193
:103BC000E8683B1805E1E8683C1802E1E8683D1840
:103BD0000CE03A501DE13B501BE13C5019E13D50D7
:103BE00017E15F0E006E5B0E07D0510E006E5B0E8C
:103BF00003D0450E006E5B0E016E026A00C0E6FF48
:103C0000E66E02C0E6FF27EC31F0E552E552E552E0
:103C1000396A3A6A3B6A3C6A27D0D9CFE9FFDACFE2
:103C2000EAFFEECF04F0EECF05F0EECF06F0EFCFD7
:103C300007F0030ED8900436053606360736E80638
:103C4000F9E1006A870E016E930E026E030E036E99
:103C500086D93C6E04C03EF005C03FF006C040F07F
:103C600007C041F04FEC16F081D1D9CFE6FFE1CF8C
:103C7000D9FF140EE1260C0EDB6A0D0EDB6A0E0E68
:103C8000DB6A0F0EDB6A100EDB6A110EDB6A120EA6
:103C9000DB6A130EDB6A70D9010EEE1819E1ED50E4
:103CA00017E1410EDE6E030EDD6ED950020F3DD9D5
:103CB000900EEE6E030EED6ED950040F36D98A0EBB
:103CC000EE6E030EED6E6DD9530EEE6E030E1CD02C
:103CD00053D9020EEE181AE1ED5018E1310EDE6EE6
:103CE000030EDD6ED950020F20D98E0EEE6E030E3C
:103CF000ED6ED950040F19D9880EEE6E030EED6EDD
:103D000050D9510EEE6E030EED6E02D03968ECD034
:103D1000020EDBCFE9FF030EDBCFEAFF15D9EECFB2
:103D200000F0EFCF01F0010ED89000360136E80622
:103D3000FBE1DE500024E96EDD500120EA6E02C096
:103D4000EEFF03C0EDFF080EDB6A090EDB6A080E0A
:103D5000DBCF00F0090EDBCF01F0D890015004E674
:103D6000080E005C000E015858E2C2D8EDD8EECF24
:103D700006F0EFCF07F0010ED89006360736E806BA
:103D8000FBE1DE500624E96EDD500720EA6EEE50BE
:103D9000025C006EEE500358016E0A0E00C0DBFF9D
:103DA0000B0E01C0DBFF0A0EDBCF00F00B0EDBCFEA
:103DB00001F0D880015004E7F10E005CFF0E0158BD
:103DC00026E30A0EDBCF02F00B0EDBCF03F0033449
:103DD00004E202500F08000E035419E389D8D3D827
:103DE00001AE02D002680368D9500C0F9ED8005073
:103DF000EE260150EE220250EE220350EE22D95060
:103E0000100F93D8EE2A000EEE22EE22EE22080EBC
:103E1000DB2A090E9CE3DB2A9AD7C3D8EECFF3FF47
:103E2000EDCFF4FF020EEE26000EEF22F3CFE9FFF6
:103E3000F4CFEAFF6DD8005001100210031002E128
:103E4000FE0E51D00F0E006E016A026A036AD9504D
:103E50000C0F6BD8EE500026EE500122EE500222DD
:103E6000EE50032297D8EECF04F0EFCF05F0066AAC
:103E7000076A03500718E8AE02D0073408D0045090
:103E8000005C05500158065002580750035806E2DE
:103E900081D879D864D803C03CF029D0100EDBCF8C
:103EA00000F0110EDBCF01F0120EDBCF02F0130E8B
:103EB000DBCF03F0005001100210031013E028D8EC
:103EC0004ED803C03CF0100EDBCF3EF0110EDBCF1E
:103ED0003FF0120EDBCF40F0130EDBCF41F04FEC82
:103EE00016F005D0FD0E396E3A683B683C683ED04E
:103EF000080EDBCF04F0090EDBCF05F0D8900436B6
:103F00000536DE500424E96EDD500520EA6E12000D
:103F10000C0EDBCF00F00D0EDBCF01F00E0EDBCF71
:103F200002F00F0EDBCF03F01200E96EDACFEAFFEA
:103F30001200DECF3AF0DECF3BF0DECF3CF0DDCF3B
:103F40003DF0DD52DD521200EECF02F0EFCF03F074
:103F5000060EDBCFE9FF070EDBCFEAFF120000C041
:103F600039F001C03AF002C03BF01200D9CFE1FFB6
:103F7000E552E7CFD9FF1200D950FD0FE96EFF0ED1
:103F8000DA20EA6E1200EECF00F0EFCF01F0026A05
:103F9000036A1200040EDBCFE9FF050EDBCFEAFF58
:0A3FA0001200D950060F95EF1FF034
:063FAA000F01C60E4D6F71
:103FB0003F0E4E6FA80E4F6F410E506F740E516F33
:103FC000420E526F1200D9CFE6FFE1CFD9FF040EA7
:103FD000E1260301B251B31101E1E0D0310EE66EEA
:103FE000E66AFD0EDBCFE6FFFE0EDBCFE6FFA30E9B
:103FF000E66E010EC5D90E0EE66EE66A8AD9E9CFE5
:1040000000F0EACF01F0E9CFE6FFEACFE6FFD40EF9
:10401000E66E010EB5D9AFD9C10E426E71D906EC6C
:1040200017F0010A18E1C1D90FEC17F0010A13E1EA
:10403000C8D90FEC17F0010A07E10101D46BD56B69
:10404000480ED66FC10E06D00101D46BD56B480E59
:10405000D66F410ED76FBFC100F0C0C101F08B0E0B
:10406000406E180E416EBFC13BF0C0C13CF029EC60
:1040700016F037C0DEFF38C0DDFF92D90001800E98
:10408000011408E0D9CFE9FFDACFEAFF8B0EEE2664
:10409000180EED220101D851DE5C006ED951DD58B9
:1040A000016E020E00C0DBFF030E01C0DBFF89D9E9
:1040B00006EC17F0010A1FE173D901010150D9196B
:1040C000E8AE02D0D93504D0D851005CD95101589E
:1040D0001FE3680EBF25006E010EC021016E020EA7
:1040E000DB500001005C0101D86F030EDB500001C2
:1040F0000158010123D054D90101D9510118E8AE6A
:1041000002D0013404D00050D85D0150D95907E2E3
:10411000020EDB50BF5DD86F030EDB500ED0020ED7
:10412000DBCF00F0030EDBCF01F0680E0026010E9E
:1041300001220050BF5DD86F0150C059D96FDAC15C
:10414000E6F1DBC1E7F1DCC1E8F1DDC1E9F1DAC19B
:10415000E2F1DBC1E3F1DCC1E4F1DDC1E5F125D938
:10416000D3EC14F08CD8E8D83AC0E2F13BC0E3F1CC
:104170003CC0E4F13DC0E5F118D9D2EC14F07FD891
:10418000E5D83AC0E6F13BC0E7F13CC0E8F13DC0FC
:10419000E9F10301B06BB16BB26BB36BD9CFE1FF47
:1041A000E552E7CFD9FF1200D9CFE6FFE1CFD9FF23
:1041B0000301B251B31155E1D3D8EECF00F0EFCFE8
:1041C00001F00101E051D85D026ED951E155036E55
:1041D000E8500118E8AE02D0013404D00050025C6F
:1041E0000150035816E2BCD8EECF04F0EFCF05F033
:1041F000D851E025066ED951E121076E0550071808
:10420000E8AE02D0073404D00650045C07500558CD
:1042100028E353D891D83AC000F0CCD87AD8080E09
:104220007FD84BD893D8C6D874D80C0E79D81A0E2C
:104230000301B027000EB123B1510101DF19E8AE2F
:1042400002D0DF3507D0DE510301B05D0101DF513F
:104250000301B15908E35DD80C0E9AD85AD8080E5C
:1042600097D8F36A02D0010EF36EF46AE552E7CFF5
:10427000D9FF1200010E0301B26FB36B12003AC0F6
:1042800004F03BC005F03CC006F03DC007F0D4C1CF
:104290003FF0D5C140F0D6C141F0D7C142F069EC42
:1042A00015F03AC000F086D83AC03FF03BC040F06D
:1042B0003CC041F03DC042F012002C0EE66E010EF3
:1042C000E66EDEC1E6FFDFC1E6FFB0C3E6FFB1C3C5
:1042D000E6FFABEC19F0F56E060EE15EF55039C065
:1042E00004F03AC005F03BC006F03CC007F039C00E
:1042F0003FF03AC040F03BC041F03CC042F01200F9
:10430000D4C13AF0D5C13BF0D6C13CF0D7C13DF0A5
:104310001200FB0EDBCFE9FFFC0EDBCFEAFF120041
:10432000E926000EEA223AC0EEFF01C0EEFF02C00D
:10433000EEFF03C0EEFF1200E2C13AF0E3C13BF032
:10434000E4C13CF0E5C13DF0BCEF15F0E6C13AF048
:10435000E7C13BF0E8C13CF0E9C13DF0BCEF15F02E
:10436000FD0EDBCFE9FFFE0EDBCFEAFF1C0EE926D8
:10437000000EEA2212003F6A406A480E416E1200A7
:10438000E66E7AEC30F0F56E060EE15EF550120046
:10439000E926000EEA22EE6AEE6AEE6AEE6A120082
:1043A000DECF00F0DDCF01F01200E5DF410E426EFE
:1043B00080EF21F03BC001F03CC002F03DC003F0B3
:0E43C00012003F6A406A416A426A80EF21F0B3
:0243CE00000EDF
:1043D000E96EEA6E0400F4EC21F0EA2A080EEA5CC9
:1043E000D8A4EAEF21F01200EF6AE93EF4EF21F0E1
:1043F0001200FF0EE3CF27F027380F0B060FD8B2BD
:10440000070F2A0FAD6E4BEC2CF027500F0B060F49
:10441000D8B2070F2A0FAD6E4BEC2CF0000C120037
:10442000EACF22F0E9CF23F0FF0EE3CFEAFFFE0E42
:10443000E3CFE9FF40A741D0EECFA0F0EECFA1F04F
:10444000EECFA2F0EECFA3F0EECFA4F0EECFA5F02A
:10445000EECFA6F0EECFA7F0EECFA8F0EECFA9F00A
:10446000EECFAAF0EECFABF0EECFACF0EECFADF0EA
:10447000EECFAEF0EECFAFF0EECFB0F0EECFB1F0CA
:10448000EECFB2F0EECFB3F0EECFB4F0EECFB5F0AA
:10449000EECFB6F0EECFB7F0EECFB8F0EECFB9F08A
:1044A000EECFBAF0EECFBBF0EECFBCF0EECFBDF06A
:1044B000EECFBEF0EECFBFF040D0EECF80F0EECF2B
:1044C00081F0EECF82F0EECF83F0EECF84F0EECF2E
:1044D00085F0EECF86F0EECF87F0EECF88F0EECF0E
:1044E00089F0EECF8AF0EECF8BF0EECF8CF0EECFEE
:1044F0008DF0EECF8EF0EECF8FF0EECF90F0EECFCE
:1045000091F0EECF92F0EECF93F0EECF94F0EECFAD
:1045100095F0EECF96F0EECF97F0EECF98F0EECF8D
:1045200099F0EECF9AF0EECF9BF0EECF9CF0EECF6D
:104530009DF0EECF9EF0EECF9FF022C0EAFF23C0A9
:10454000E9FF120040A11200EACF22F0E9CF23F0E8
:10455000FF0EE3CFEAFFFE0EE3CFE9FF40A941D013
:10456000C0C0EEFFC1C0EEFFC2C0EEFFC3C0EEFF91
:10457000C4C0EEFFC5C0EEFFC6C0EEFFC7C0EEFF71
:10458000C8C0EEFFC9C0EEFFCAC0EEFFCBC0EEFF51
:10459000CCC0EEFFCDC0EEFFCEC0EEFFCFC0EEFF31
:1045A000D0C0EEFFD1C0EEFFD2C0EEFFD3C0EEFF11
:1045B000D4C0EEFFD5C0EEFFD6C0EEFFD7C0EEFFF1
:1045C000D8C0EEFFD9C0EEFFDAC0EEFFDBC0EEFFD1
:1045D000DCC0EEFFDDC0EEFFDEC0EEFFDFC0EEFFB1
:1045E00040D0E0C0EEFFE1C0EEFFE2C0EEFFE3C06E
:1045F000EEFFE4C0EEFFE5C0EEFFE6C0EEFFE7C071
:10460000EEFFE8C0EEFFE9C0EEFFEAC0EEFFEBC050
:10461000EEFFECC0EEFFEDC0EEFFEEC0EEFFEFC030
:10462000EEFFF0C0EEFFF1C0EEFFF2C0EEFFF3C010
:10463000EEFFF4C0EEFFF5C0EEFFF6C0EEFFF7C0F0
:10464000EEFFF8C0EEFFF9C0EEFFFAC0EEFFFBC0D0
:10465000EEFFFCC0EEFFFDC0EEFFFEC0EEFFFFC0B0
:10466000EEFF22C0EAFF23C0E9FF1200F2B41200FD
:1046700034500F0AD8B41200FF0EE3CF28F0FE0E1C
:10468000E3CF29F0FD0EE3CF2AF0FC0EE3CF2BF0B1
:10469000282A34A08D8E292A34A28F802A2A34A475
:1046A0008F862B2A34A68F882C6A2D6A2E6A2F6A51
:1046B00089EC23F0282E5FEF23F034A08D9E292E65
:1046C00064EF23F034A28F902A2E69EF23F034A4F4
:1046D0008F9600002B2E6FEF23F034A68F980000EA
:1046E0002C2E74EF23F0309000002D2E79EF23F064
:1046F000309200002E2E7EEF23F0309400002F2EFB
:1047000083EF23F03096ABEC23F0313E5AEF23F0E9
:104710001200D70E316E0000000000000000A1EC76
:1047200023F0312E8BEF23F0D70E316E0000000006
:1047300000000000A1EC23F0312E96EF23F00000E2
:1047400012000000A4EF23F00000000000000000B1
:10475000000000001200030E326E0000322EADEF9A
:0447600023F0120030
:0C476400D9CFE6FFE1CFD9FF0A0EE12615
:104770000101F95103019F1904E10101FA510301FB
:10478000A01901E138D19FC3F9F1A0C3FAF10301E7
:10479000015101E1B6D00101010EFB6F0F010C5177
:1047A000DE6EDD6A03010051006E016A4F0E005E8D
:1047B000000E015A060E00C0DBFF070E01C0DBFF32
:1047C00047D901340DE200500308000E015408E2FD
:1047D00054D91AE1010EF36E040EF3CFDBFF12D0B1
:1047E00037D9D880015004E7FD0E005CFF0E015858
:1047F00007E243D909E1040EDB68050EDB6804D04B
:10480000040EDB6A050EDB6A3B683C68040EDBCFF6
:1048100040F0050EDBCF41F083EC16F03AC001F01A
:10482000D9CFE9FFDACFEAFF3950EE260150ED2269
:104830000AD90001800E011402E0DE6A0AD003D911
:10484000013408E20050F808000E015403E2F80EAB
:10485000DE6EDD6ADFCF0CFF0F01EDD803010151E1
:10486000006E016A770E005E000E015A080E00C04D
:10487000DBFF090E01C0DBFFF2D801340DE200506E
:104880000808000E015408E201D91AE1010EF36E86
:10489000040EF3CFDBFF12D0E2D8D880015004E73A
:1048A000F80E005CFF0E015807E2F0D809E1040E93
:1048B000DB68050EDB6804D0040EDB6A050EDB6ADC
:1048C000040EDBCF00F0050EDBCF01F0E7D800507F
:1048D000EE260150ED22ABD804E6AA0E005C000ED5
:1048E000015802E2AA0E0BD0DFD8013401E380D0D8
:1048F0000050F008000E015401E37AD0F00EB6D853
:1049000077D00101FC2BFC51050875E2FC6BFB051F
:1049100005E1FB6BDE6ADD6A900E41D00F010C51A0
:10492000DE6EDD6A88D80101FD51FE1109E18BD8E8
:10493000D890015004E6F80E005C000E01580EE21B
:10494000FD51FE112EE0DECF02F0DDCF03F0033487
:1049500004E202500008000E035423E3FD51FE114F
:1049600002E0000E01D0010EFD6FFE6B800B01E036
:10497000FE695DD804E6F00E005C000E015802E30B
:10498000AA0E0DD08BD8170EEE26000EED224FD8B2
:1049900004E6F00E005C000E015828E3F00E66D825
:1049A00025D0FD51FE1110E13E0EDE26000EDD2267
:1049B0004AD8D890015004E6F80E005C000E015869
:1049C00015E3F80EDE6E11D0D9CFE9FFDACFEAFF9A
:1049D0003E0EEE5E000EED5A36D8013404E2005071
:1049E0000008000E015402E3DE6ADD6ADFCF0CFF2F
:1049F000020EDBCF0DFFD9CFE1FFE552E7CFD9FFA4
:104A00001200DBCF3CF000C040F001C041F029ECC7
:104A100016F0040E3BC0DBFF050E3CC0DBFFD95097
:104A2000040FE96EDACFEAFFEE50ED1012003CD829
:104A3000D890015012000D51E66E30D8E552E75083
:104A4000EE6EED6A1200DECF00F0DDCF01F0120055
:104A5000060EDBCF00F0070EDBCF01F01200080ED0
:104A6000DBCF00F0090EDBCF01F01200F36E020E77
:104A7000F3CFDBFF030EDB6A1200030E006E016A48
:104A8000060EDBCF3BF0070E01EF25F0080E006E9F
:104A9000016ADBCF3BF0090E01EF25F0D950020F80
:104AA000E96EDACFEAFF1200020EDBCF00F0030E50
:064AB000DBCF01F0120053
:0A4AB6007BD9E652C80E0101EA6F39
:104AC000EB6B010EEE6FEF6F040EEC6FED6BDF6AB8
:104AD000EE51DF5C08E2DF5073D9EE6AEE6AEE6AEF
:104AE000EE6ADF2AF5D7F66BF76BF86B010EC26E34
:104AF000C16A860EC06E9F9C9E9C9D8CEAC1E6FF9B
:104B0000EBC1E6FF0BD8E552E552E55255D14FD93E
:104B1000E65246D89D9CC26AE5524ED148D9FD0E58
:104B2000DBCF3BF0FE0EDBCF3CF03B5002E1190E39
:104B30003C1828E0800E3B1802E10C0E3C181EE0E9
:104B4000400E3B1802E1060E3C1816E0200E3B1802
:104B500002E1030E3C180EE0900E3B1802E1010E3C
:104B60003C1806E0C80E3B1811E13C500FE10ED096
:104B7000520E09D0520E03D0510E05D0510ECA6EFE
:104B8000450E07D0500ECA6E8C0E03D06A0ECA6E48
:104B9000DD0ECB6ECC6A9F929E929D82CA840CD110
:104BA0009D92CA94120003D9020EE126FE0EDBCFBD
:104BB00000F00101EE51D88000540CE39D9CFE0EE4
:104BC000DB04E96EEA6A10D9EECFDEFFEDCFDDFF40
:104BD0009D8C02D0DE6ADD6ADECF00F0DDCF01F011
:104BE00000C0F3FF01C0F4FFD9CFE1FFE5D0DFD86B
:104BF000FD0EDBCF00F0FE0EDBCF01F0026A036A90
:104C0000880E3E6E130E3F6E406A416A00C039F056
:104C100001C03AF002C03BF003C03CF0B3EC31F00D
:104C200035C000F036C001F037C002F038C003F0E4
:104C30003E6A080E3F6E406A416A35C039F036C0A0
:104C40003AF037C03BF038C03CF04FEC16F039C0BA
:104C500000F03AC001F03BC002F03CC003F039C0A4
:104C6000F3FF3AC0F4FFA8D0A2D8E6529D9CFFC241
:104C7000DFFF9D8CDF50E5529FD09D9C0201FF6BB2
:104C80009D8C1200C282120092D8050EE126C450FB
:104C9000DE6EDD6AD9CFE9FFDACFEAFFEE50ED6EC6
:104CA000EF6AC350DE26000EDD22DECF00F0DDCF3E
:104CB00001F0026A036A0101F85182D80050EE2621
:104CC0000150EE220250EE220350EE22F82BEE515C
:104CD000F85D04E3F86BF62B000EF723020EF8C123
:104CE000DBFFDB50040D020EF3CFDBFFDB80DB507C
:104CF000C26EEC51F65DED51F7594AE3030EDB6AE3
:104D0000040EDB6A67D801AE02D0D89003D0005CF5
:104D1000000E015820E23FD80101EF511F0BEECFEA
:104D200000F0EECF01F0EECF02F0EECF03F007E09F
:104D3000D8900332023201320032E806F9E15CD841
:104D400053D800C0EEFF01C0EDFF030EDB2A040EB6
:104D5000D9E3DB2AD7D7030EDB6A040EDB6A3AD825
:104D600001AE02D0D89003D0005C000E01580BE2D7
:104D700012D8EE6AEE6AEE6AEE6A030EDB2A040EC1
:104D8000EEE3DB2AECD70201FF2B0101F66BF76B98
:104D9000D9CFE1FF11D030D8D890E936EA36D89093
:104DA000E936EA36F00EE926010EEA221200D9CFE2
:104DB000E6FFE1CFD9FF1200E552E7CFD9FF12009D
:104DC000040DF3CFE9FFF4CFEAFFF00EE926010E60
:104DD000EA221200030EDBCF00F0040EDBCF01F05D
:104DE0000101EE5100011200D890E936EA36F40EC6
:104DF000E926010EEA221200030EDBCFE9FF040EC2
:064E0000DBCFEAFF120007
:0A4E06000F01220E476F4E0E486F99
:104E10000A0E496F4F0E4A6FF20E4B6F4F0E4C6FDA
:104E20001200D9CFE6FFE1CFD9FF040EE12603013E
:104E3000B651B71164E0310EE66EE66AFD0EDBCFC7
:104E4000E6FFFE0EDBCFE6FF800EE66E020E2CD9EB
:104E5000080EE66EE66A51D9E9CF00F0EACF01F01C
:104E6000E9CFE6FFEACFE6FFB10EE66E020E1CD9EF
:104E70000201800E9D153EE19CC200F09DC201F032
:104E80008B0E406E180E416E9CC23BF09DC23CF0F2
:104E900029EC16F037C0DEFF38C0DDFFDECF00F0B2
:104EA000DDCF01F00001800E011408E0D9CFE9FF49
:104EB000DACFEAFF8B0EEE26180EED220201B55175
:104EC000DE5C006EB651DD58016E020E00C0DBFFE5
:104ED000030E01C0DBFF020EDBCF00F0030EDBCFC1
:104EE00001F012D91C0E26D90050EE5CB56F0150AE
:104EF000EE58B66F0301B46BB56BB66BB76BD9CF19
:104F0000E1FFE552E7CFD9FF1200D9CFE6FFE1CFAD
:104F1000D9FF0301B651B71163E1F40EE66E010E3D
:104F2000E66EB7C2E6FFB8C2E6FFB4C3E6FFB5C39C
:104F3000E6FFABEC19F0F56E060EE15EF55039C0F8
:104F400004F03AC005F03BC006F03CC007F039C0A1
:104F50003FF03AC040F03BC041F03CC042F0B1C22B
:104F60003AF0B2C23BF0B3C23CF0B4C23DF0BCEC8C
:104F700015F070D80C0EDED83AC0EEFFA3D8BDD81D
:104F8000080ED8D800C0EEFF9DD80201800EB615DD
:104F900004E134D8C0D832D803D066D8BCD864D89D
:104FA00059D8080E66D8D2EC14F075D81A0E030141
:104FB000B427000EB523B5510201B819E8AE02D0EE
:104FC000B83507D0B7510301B45D0201B8510301F0
:104FD000B55908E392D80C0E6FD88FD8080E6CD84C
:104FE000F36A02D0010EF36EF46AE552E7CFD9FFFF
:104FF0001200010E0301B66FB76B120085D81C0EAC
:1050000068D8B5C23BF0B6C23CF0A4EC14F03AC08C
:105010000EF03BC00FF03CC010F03DC011F082D844
:105020003AC00AF03BC00BF03CC00CF03DC00DF0A4
:105030003AC03FF03BC040F03CC041F03DC042F0C0
:1050400004C03AF005C03BF006C03CF007C03DF09C
:10505000D2EF14F03AC000F03BC001F03CC002F0C7
:105060003DC003F07DEF28F04FD81A0E32D892EFF2
:1050700028F060D8EECF3AF0EECF3BF0EECF3CF028
:10508000EFCF3DF000C03FF001C040F002C041F062
:1050900003C042F012003DC0EDFF3CC0EDFF3BC03D
:1050A000EDFF3AC0EFFF1200E66E7AEC30F0F56EDD
:1050B000060EE15EF55012003DD8EE6AEE6AEE6A29
:1050C000EE6A120001C0EEFF02C0EEFF03C0EEFF69
:1050D000120030D8EECF08F0EFCF09F008C03BF057
:1050E00009C03CF0A4EC14F03AC004F03BC005F059
:1050F0003CC006F03DC007F01200FB0EDBCFE9FF1D
:10510000FC0EDBCFEAFF1200FD0EDBCFE9FFFE0E47
:10511000DBCFEAFF12009EDF0C0EABDFD3EC14F006
:105120004BEF28F03F6A406A200E416E410E426EFE
:0C51300069EF15F0E926000EEA221200DB
:04513C00D8CFE4FFE5
:10514000E0CFE4FFE46EDACFE4FFE2CFDAFFE9CFAD
:10515000E4FFEACFE4FFF3CFE4FFF4CFE4FF00EE97
:1051600035F0140EE80403E3EECFE4FFFBD700EEC6
:1051700000F01E0EE80403E3EECFE4FFFBD7E65297
:10518000D9CFE6FFE1CFD9FF020EE126F250040BA2
:1051900007E0F250200B04E0F294DAEC2FF0AFD0ED
:1051A0009E50010B07E09D50010B04E09E90DBEC4C
:1051B0002FF0A5D09E50020B07E09D50020B04E09B
:1051C0009E9242EC26F09BD0A150020B07E0A0502B
:1051D000020B04E0A192DCEC2FF091D0A450080B5C
:1051E00007E0A350080B04E0A496DDEC2FF087D075
:1051F000F050020B07E0F050100B04E0F092E6ECE8
:105200002FF07DD0F050040B07E0F050200B04E0AD
:10521000F094EEEC2FF073D0F250010B43E0F2501B
:10522000080B40E08150DF6EF290DF500101FF1962
:10523000E76E010EE7CFDBFFDFCFFFF1DBA80AD07F
:10524000100EDF1402E0010E01D0000EE66EF6EC47
:105250002FF0E552010EDBAA0AD0200EDF1402E087
:10526000010E01D0000EE66E00EC30F0E552010EAA
:10527000DBAC0AD0400EDF1402E0010E01D0000EBC
:10528000E66E01EC30F0E552010EDBAE38D0800E58
:10529000DF1402E0010E01D0000EE66E02EC30F0E9
:1052A000E5522DD09E50400B07E09D50400B04E08E
:1052B0009E9C44EC26F023D09E50200B06E09D508F
:1052C000200B03E0ACEC2AF01AD0A450200B06E02F
:1052D000A350200B03E0CBEC2AF011D09E50100B12
:1052E00006E09D50100B03E0EAEC2AF008D0A45031
:1052F000100B05E0A350100B02E002EC2BF0D9CF0D
:10530000E1FFE552E7CFD9FFE55200EE1DF01E0E9A
:10531000E80403E3E5CFEDFFFBD700EE48F0140E01
:10532000E80403E3E5CFEDFFFBD7E5CFF4FFE5CFDE
:10533000F3FFE5CFEAFFE5CFE9FFE5CFDAFFE55080
:10534000E5CFE0FFE5CFD8FF10000F017F0E0B6F18
:105350000A6F096F086F076F066F056F046F136F91
:10536000126F116F106F0F6F0E6F0D6F0C6F8C92AD
:105370008D928C908D908C968D968C948D948C9A29
:105380008D9A8C988D988C9E91908C9C8D9C0F0101
:1053900021AD24D00F0140A1FAD7200EE66E0F0EEA
:1053A000E66E07EC12F0E552E55222EC05F013CF61
:1053B000E6FF12CFE6FF11CFE6FF10CFE6FF36EC97
:1053C00023F0E552E552E552E552000EE66E0F0E6F
:1053D000E66E20EC12F0E552E552D9D7120034EC1B
:1053E00026F0000904E0D4EC2BF03DEC26F012008E
:1053F000150EAF6EAC849D9A9D98AC98AC9E948E21
:10540000AB9CAB96AB8AAB889F9A9D8A0301C96916
:10541000CA69949CAC9CAC969F989D88AC8AAB8ED4
:105420001200150E6F6E6C84A39AA3986C986C9EF4
:1054300098846B9C6B966B8A6B88A59AA38A0301F0
:10544000C969CA6998926C9C6C96A598A3886C8A65
:105450006B8E120007D9E6529D9A5AC3DFFF9D8AD0
:10546000DF50E552FBD0FED8E652A39A66C3DFFFB9
:10547000A38ADF50E552F2D0F5D8E6520301575126
:1054800002E0000E15D05851EA6A000FE96E020ED4
:10549000EA22EFCFDFFF5A07582B1F0E58179D9AAD
:1054A0005951585D02E1010E576F9D8A566BDF50CE
:1054B000E552D4D0D7D8E6520301635102E0000E82
:1054C00015D06451EA6A400FE96E020EEA22EFCF6E
:1054D000DFFF6607642B1F0E6417A39A6551645D96
:1054E00002E1010E636FA38A626BDF50E552B6D012
:1054F000B9D803015D51FDE16051EA6A200FE96E00
:10550000020EEA22FE0EDBCFEFFF612B602B1F0E97
:1055100060179D9860515F5D02E1010E5D6F9D888F
:105520005E6B9CD09FD803016951FDE16C51EA6A22
:10553000600FE96E020EEA22FE0EDBCFEFFF6D2B4D
:105540006C2B1F0E6C17A3986C516B5D02E1010E62
:10555000696FA3886A6B82D00301565102E09D9A5D
:1055600012005951EA6A000FE96E020EEA22AECF2C
:10557000EFFFABA203D0AB98AB885B2BABB45C2B3B
:105580005A2B592B1F0E59175951585D02E1010E24
:10559000566F576B12000301625102E0A39A12008A
:1055A0006551EA6A400FE96E020EEA226ECFEFFF04
:1055B0006BA203D06B986B88672B6BB4682B662B40
:1055C000652B1F0E65176551645D02E1010E626F68
:1055D000636B120003015E5102E09D9812005F515F
:1055E000EA6A200FE96E020EEA22EF50AD6E610703
:1055F0005F2B1F0E5F1760515F5D02E1010E5E6F52
:105600005D6B120003016A5102E0A39812006B5116
:10561000EA6A600FE96E020EEA22EF506D6E6D07C6
:105620006B2B1F0E6B176C516B5D02E1010E6A6FE5
:10563000696B120017D8030155510FE0550505E1BC
:10564000FE0EDBCFE6FF54DF07D0020E555D05E10D
:10565000FE0EDBCFE6FF66DFE55200D0E552E7CF76
:0E566000D9FF1200D9CFE6FFE1CFD9FF12002B
:02566E00020137
:10567000F06BF16BF26BF36BFA6B1200EEC239F068
:10568000EFC23AF03B6A3C6A3AAE02D03B683C68F3
:10569000F7D8080E3F6E406A416A4FEC16F039C0E9
:1056A00000F03AC001F0E80E0102F3CF01F0030E62
:1056B0000002F3500126E80E0002F3CF00F0F45090
:1056C0000126E80E406E030E416EF3CF3BF001C0A1
:1056D0003CF029EC16F03BC0F3FF3CC0F4FF120095
:1056E000F0C239F0F1C23AF0F2C23BF0F3C23CF042
:1056F000C7D8900E3F6E010E406E416A4FEC16F017
:10570000E80E3E6E030E3F6EAED8E80E3E6E030E00
:105710003F6E406A416A4FEF16F00201FA5108E10C
:10572000F46BF56BF66BF76BF86BF96B010EFA6FB8
:1057300012000201FA051EE1F8C200F0F9C201F000
:10574000026A036AF4C239F0F5C23AF0F6C23BF0DD
:10575000F7C23CF0F8C23EF0F9C23FF002C040F0A0
:1057600003C041F084EC32F039C0ECF23AC0EDF203
:105770000201FA6B1200ECC2F3FFEDC2F4FF12005B
:10578000D9CFE6FFE1CFD9FFFD0EDBCFECF2FE0E65
:10579000DBCFEDF2E552E7CFD9FF12000201F06B4B
:1057A000F16BF26BF36B1200D9CFE6FFE1CFD9FFBB
:1057B000020EE1260201FA0512E1010EE66ED3ECBB
:1057C00025F0E552F3500201F4270001F4500201E4
:1057D000F523000EF623F723F82BF9233ED0010E14
:1057E000E66ED3EC25F0E5520201EC51F35C006E5D
:1057F000ED51F45800C0DEFFDD6EDECF00F0DDCFEE
:1058000001F0D880015004E7F80E005CFF0E01584B
:105810000BE3DECF02F0DDCF03F003341CE20250D5
:105820000808000E035417E2DECFEEF2DDCFEFF2F0
:10583000DECF00F0DDCF01F0026A036A01AE02D0D4
:10584000026803680050F0270150F1230250F22350
:105850000350F32302D0EE6BEF6BD9CFE1FFE5529B
:10586000E7CFD9FF1200406A416AB3EC31F035C08E
:1058700039F036C03AF037C03BF038C03CF0120087
:10588000740E3E6E050E3F6EEEDF050E3E6E3F6AF5
:06589000EADF3E6A12008F
:0A5896009EA8FED71200B4D8FE0E43
:1058A000DBCFE6FFF9EC21F0E552A9D0ACD802013C
:1058B000E150FD0FFB6FFF0EDA20FC6F010EEA6A6C
:1058C000FB25E96EFC51EA22A3D8FBC2E9FFFCC22A
:1058D000EAFF9ED894D097D80201FD6B1A0EFD5DA9
:1058E0000DE2FD0EDBCFE9FFDB2AFE0EDBCFEAFF88
:1058F00001E3DB2A8DD80201FD2BF0D780D0020115
:10590000200EFB6F0F0EFC6F0F0120510301BC6FC7
:10591000BD6BBE51BC1902E1BF51BD1916E00F01AC
:1059200040B50ED0BEC3E6FFF9EC21F0E552BCC392
:10593000E6FFF9EC21F0E5520D0EAD6EACDF0F0184
:105940004095BCC3BEF3BDC3BFF30301BE2B000E25
:10595000BF23BF3507E2BE51FF08000EBF5502E26C
:10596000BE6BBF6B1200150EE66E3C0EE66E52EC7F
:1059700032F0E552E552320EE66E12EC33F0E552AB
:10598000120041D8FE0EDBCFFEF248D03CD8020E0A
:10599000E1260F0EE66EFE0EDB507F0BFE0BFD0BBD
:1059A000E66EF10EE66EEBEC31F0E552E552E552B3
:1059B0000A0EE66E30EC33F0E5524DEC33F007ECB6
:1059C00004F00009FCE1A8EC32F04AEC33F0C450DA
:1059D000026E036E026AC35000010210006E03C023
:1059E00001F0DE6E03C0DDFFDECF00F0DDCF01F0A1
:1059F00000C0F3FF01C0F4FFD9CFE1FF0FD00D0EBF
:105A0000AD6E49DF0BD0D9CFE6FFE1CFD9FF120051
:105A1000EF50E66EF9EC21F0E5521200E552E7CFC7
:045A2000D9FF120098
:0C5A2400436F6E666964656E6365202840
:105A3000506978656C732920203D2025750D0A007A
:105A400020426C6F622053697A652028506978651E
:105A50006C732920203D2025750D0A0054696C7453
:105A6000204572726F722028506978656C73292006
:105A7000203D2025640D0A002050616E2045727281
:105A80006F722028506978656C732920203D20258D
:105A9000640D0A0054696C7420416E676C6520289F
:105AA0006465677265657329203D2025640D0A00D1
:105AB0002050616E20416E676C65202864656772B6
:105AC00065657329203D2025640D0A000D0A0053E9
:105AD0006561726368696E672E2E2E0D0A00617211
:105AE0006D20706F743A2025640D0A00446F6E6556
:105AF0000D000D43616C63756C6174696E672047BE
:105B000079726F20426961732E2E2E002573323018
:105B1000303720526F626F74202D2D20546F6D200E
:105B20002D2D20526561647920746F20726F6C6C2A
:105B300021200A004779726F202B20456E636F6425
:105B40006572730D00436F756E74207A65726F0D08
:105B500000496C6C6567616C20736964650D006D4C
:105B6000732030207774660D005573696E67207658
:105B700069727475616C2077696E646F770D0A00C5
:0A5B8000476F742061636B0D0A008B
:065B8A000301C5510301F7
:105B90009F1904E10301C6510301A0195CE0030150
:105BA000C42B050EC45D57E3C46B0301015108E12A
:105BB000CF0E006E5A0E5ED8E552E552E552120045
:105BC000CC0E006E5A0E56D8E552E552E5520F0142
:105BD0000C51006E016A7C0E005E000E015A410EEF
:105BE00063D87C0E50D8B00E026E5A0E35D80F0115
:105BF0000D51006E016A900E005E000E015A190EE2
:105C000053D8320E40D8940E026E5A0E25D8030196
:105C10000051006E016A4F0E50D8780E026E5A0E77
:105C20001BD803010151006E016A770E46D85C0E45
:105C3000026E5A0E11D803010651E66EE66A400E56
:105C4000006E5A0E42D803010751E66EE66A240E32
:105C5000006E5A0E3AD81200036E046A02C0E6FFC4
:105C6000E66E04C0E6FF27EC31F0F56E050EE15E4E
:105C7000F5501200016E026A00C0E6FFE66E02C037
:105C8000E6FF27EF31F0406E416AF3CF3BF001C0F1
:105C90003CF029EC16F03BC000F03CC001F03BC0EA
:105CA000E6FF3CC0E6FF12000102F3CF01F0000264
:105CB000F3CF00F0F45001261200005E000E015AEE
:105CC00000C0E6FF01C0E6FF1200D4DFF56E050E4E
:065CD000E15EF550120038
:0A5CD60003010751280803E2640EE1
:105CE000075D02E3000E01D0010E006E016A00BEE6
:105CF000016800C0F3FF01C0F4FF1200D9CFE6FF36
:105D0000E1CFD9FF020EE1266DEC1DF00301C25177
:105D1000C31104E1A1C3C2F3A2C3C3F3C25103017F
:105D2000A11905E10301C3510301A21962E0800E2C
:105D3000E66E5B0EE66E27EC31F0E552E552A1C34C
:105D4000C2F3A2C3C3F30301C05103019F1904E1CD
:105D50000301C1510301A0193AE09FC3C0F3A0C3DE
:105D6000C1F3B9DFF3CF00F0F4CF01F0F350F4103A
:105D700040E003010051DE6EDD6AD950FD0FE96E8F
:105D8000FF0EDA20EA6E010EEE180AE1ED5008E18E
:105D9000EF0EE66EDFCFE6FF010EE66EE66E08D090
:105DA000EF0EE66E9F0EE66E010EE66EDFCFE6FFAB
:105DB00065EC1DF0E552E552E552E552690EE66EDE
:105DC0005B0EE66E27EC31F0E552E55212D0910EF3
:105DD000E66E640EE66E100EE66E0F0EE66E730E45
:105DE000E66E550EE66E18EC1DF0F56E060EE15EE1
:0E5DF000F550D9CFE1FFE552E7CFD9FF120001
:025DFE00B18E64
:105E0000B186B19CB19AB198B192A092A090A390A2
:105E1000A392A3941200D9CFE6FFE1CFD9FF080ED9
:105E2000E126B190B36AB26ABA6AB76A736A706AF5
:105E3000FE0E69D8280E56D800C0DEFF01C0DDFF77
:105E4000FD0E61D8280E4ED8020E00C0DBFF030EF7
:105E500001C0DBFFFC0E57D8320E44D8040E00C040
:105E6000DBFF050E01C0DBFFFB0E4DD8320E3AD82A
:105E7000060E00C0DBFF070E01C0DBFFDF50BB6E6C
:105E8000DECF00F0DDCF01F001C000F0016A00506C
:105E9000BC6E020EDB50B86E020EDBCF00F0030EBC
:105EA0003AD8B96E040EDB50746E040EDBCF00F0EE
:105EB000050E31D8756E060EDB50716E060EDBCF07
:105EC00000F0070E28D8726EF29E090EBA6EB76EF9
:105ED000736E706EB180F28ED9CFE1FFE552E7CFDD
:105EE000D9FF12003B6E3C6A02C040F003C041F093
:105EF00083EC16F039C000F03AC001F0980E00268D
:105F00003A0E01221200DB50026E036A7F0E025E1F
:105F1000000E035A1200DBCF01F001C000F0016A4D
:045F2000005012001B
:0C5F24009384F09EF198F092F088938630
:105F3000F192F196F094F08A9388938A938C938EE1
:105F4000F19081CFFFF1F290F2961200D66AD76AF3
:105F5000D590D592D594D586D598D59AD59CF194DF
:105F6000F294F29AD59E1200CE6ACF6ACD98CD9A5D
:105F7000CD96CD92CD8E9F909E909D90CD9012000B
:105F8000B26AB36AB198B19AB192B184B18EA29259
:105F9000A192A092B1901200786AF90E776E76867F
:105FA0007698769A768C76807692A596A496A38635
:105FB000768412001200120012000301882B000EDA
:105FC00089238A2B8B238C2B8D2312008AC390F379
:105FD0008BC391F303018A6B8B6B120088C38EF322
:105FE00089C38FF30301886B896B1200D9CFE6FF59
:105FF0000301922B000E9323E552E7CFD9FF120045
:1060000002D001D000D0D9CFE6FFE552E7CFD9FFCB
:0260100012007C
:0E6012000F012E0E416F600E426F740E436F31
:10602000600E446FBC0E456F600E466F120052D872
:106030001DE0310EE66EE66AFD0EDBCFE6FFFE0EDA
:10604000DBCFE6FFB90EE66E020EE66E7AEC30F0BC
:10605000F56E060EE15EF55036D8EECFEAF2EDCFE2
:10606000EBF20301B86BB96BBA6BBB6BE552E7CFD0
:10607000D9FF12002FD819E126D80C0E33D823D817
:10608000080E30D81A0EB827000EB923B9510201F4
:10609000EB19E8AE02D0EB3507D0EA510301B85D49
:1060A0000201EB510301B95902E3F36A02D0010E78
:1060B000F36EF46AE552E7CFD9FF1200010E030137
:1060C000BA6FBB6B1200FB0EDBCFE9FFFC0EDBCF20
:1060D000EAFF1200D9CFE6FFE1CFD9FF0301BA51A1
:1060E000BB111200E926000EEA22EE6AEE6AEE6AA1
:0460F000EE6A120042
:0C60F400D9CFE6FFDACFE6FFFA0EE3CFCB
:10610000D9FFFB0EE3CFDAFFFC0EE3CFE9FFFD0E74
:10611000E3CFEAFFE9CFF3FFEACFF4FFF80EE35055
:1061200003E1F90EE35008E0F80EE30602E2F90E8F
:10613000E306DECFEEFFF2D7FF0EE3CFDAFFE55244
:10614000FF0EE3CFD9FFE5521200FE0EE3CFE9FFC9
:10615000FF0EE3CFEAFFF36AF46AEE5203E0F34A7C
:10616000F42AFBD71200FF0EE3CFF8FFE552FF0E33
:10617000E3CFF7FFE552FF0EE3CFF6FFE552E66A05
:10618000E66AE66A0900F55209E0FD0EE32A05E138
:10619000FE0EE32A02E1FF0EE32AF4D7FD0EE3CF61
:1061A0003AF0FE0EE3CF3BF0FF0EE3CF3CF01200DF
:1061B0001E0EF66E080EF76E000EF86E0301090053
:1061C000F550996F0900F5509A6F03E1996701D076
:1061D0003DD00900F550946F0900F550956F090006
:1061E000F550966F09000900F550E96E0900F55069
:1061F000EA6E090009000900F550976F0900F55093
:10620000986F09000900F6CF9BF3F7CF9CF3F8CF06
:106210009DF394C3F6FF95C3F7FF96C3F8FF030100
:10622000975302E1985307E00900F550EE6E970787
:10623000F8E29807F9D79BC3F6FF9CC3F7FF9DC30D
:0E624000F8FF03019907000E9A5BBFD712000A
:02624E00D9CFA6
:10625000E6FFDACFE6FFE1CFD9FFE2CFDAFFE65281
