:020000040000FA
:060800000DEF2FF01200C5
:02080600FEFFF3
:06080800DBEF11F012000D
:02080E00C250D6
:08081000020B01E0010E1200D1
:0608180094EF24F0120031
:02081E000B00CD
:10082000145F0000FF020000010000000C5F0000E8
:100830006D03000008000000085F00008103000055
:1008400004000000F85E00004603000010000000F5
:10085000DF5E00001B030000190000000608000016
:100860008503000002000000DB5E00007D03000045
:1008700004000000D35E00006503000008000000D3
:10088000CF5E00007903000004000000B45E0000A9
:10089000000300001B0000009D5E0000FF0100003F
:0408A0000100000053
:0C08A4002DEC0AF0020EE126AA0EDE6E1A
:1008B000550EDD6E938A93889386938499829980EE
:1008C000938E938C9A849A82998699849A8A9A882C
:1008D00094809A869A8E9A9C919C02017F0E526F08
:1008E000516F506F4F6F4E6F4D6F4C6F4B6F5A6F14
:1008F000596F586F576F566F556F546F536F000E87
:10090000E66EE66AE66EE66AE66EE66AE66EE66A57
:1009100047EC13F0F56E080EE15EF550D8EC25F0CB
:10092000F1EC25F0E7EC29F083EC2BF0A5EC2BF0B3
:10093000BDEC2BF03BEC0BF03ADB8AEC0BF04FEC10
:100940002FF092EC0AF0DECFE6FFDDCFE6FF820E5D
:10095000006E550E87EC0BF08CEC12F0D9CFE1FF56
:1009600029EF0AF003012C0ED8800055010E015525
:1009700003E3002B000E01230A0E001907E10151C9
:1009800005E1680E006E550E2FEC0BF003013C0ED6
:10099000001904E1015102E161EC27F02C0E030182
:1009A00000190CE1010E011909E16DEC27F0A2EC30
:1009B00027F0620E006E550E2FEC0BF0670EE66E00
:1009C000020EE66EECEC12F0E552E55203012C0E3D
:1009D000005D010E015901E338D85AC2E6FF59C241
:1009E000E6FF58C2E6FF57C2E6FFF3EC29F087ECBA
:1009F0000AF092EF0AF05B0E006E550E2FEC0BF032
:100A00006DEC0BF08150400B0FE08150800B0CE13E
:100A10008750010B09E14C0E006E550E2FEC0BF0C8
:100A2000FAEC09F03DDB03D0FAEC09F06ED987EC63
:100A30000AF03BEC0BF021D96FEC0AF00301022B1A
:100A4000000E03230423052312006DEC0BF03BEC96
:100A50000BF043D86FEC0AF0020168AB1ED07EC2E7
:100A600036F076EC15F047EC0BF0710E396E3D0E5A
:100A70003A6E7A0E19EC0BF0800E3B6E430EF5ECDD
:100A800009F0396A3A6A200E3B6E410E3C6EA1ECC9
:100A900016F095EC17F036C047F2020147938750E5
:100AA000040B01E0478347918750080B01E0478121
:100AB00047998150400B01E04789479B8150800B4B
:100AC00001E0478B479D8750010B01E0478D479F11
:100AD0008750020B01E0478F12002DEC0AF0020E46
:100AE000E12641EC0BF070C2EFFFD4EC09F06FC2CD
:100AF000EFFF3CEC0AF0AFDB87EC0AF072EC0BF096
:100B0000020169A908D093EC09F0120E8CEC0AF0EE
:100B1000EE6EED6A04D06AA902D076EC0BF08FEC91
:100B20000BF016E041EC0BF0EF50DE6EDD6AD4EC1A
:100B300009F0BCEC0BF0DECF00F0DDCF01F0FF0ED2
:100B4000D8800056000E0156D4EC09F000C0EFFF2B
:100B50006A51080B15E07251026E036AD890035077
:100B600004E6A70E025C000E03580AE37251046EFD
:100B7000056A053407E20450B108000E055402E28C
:100B8000000E01D0010E006E016A00BE016800C0B7
:100B9000E6FF01C0E6FF6A51020B15E07251086ED4
:100BA000096AD890095004E6DB0E085C000E09586B
:100BB0000AE372510A6E0B6A0B3407E20A50E50829
:100BC000000E0B5402E2000E01D0010E066E076A01
:100BD00006BE076806C0E6FF07C0E6FF6A51080BBD
:100BE00015E072510E6E0F6AD8900F5004E6F50EA4
:100BF0000E5C000E0F580AE37251106E116A113428
:100C000007E21050FF08000E115402E2000E01D05E
:100C1000010E0C6E0D6A0CBE0D680CC0E6FF0DC017
:100C2000E6FF35EC0AF055DBF56E080EE15EF55097
:100C3000020169A106D060EC0BF08CEC0AF0EF6EBB
:100C400006D069A304D060EC0BF032EC0AF060EC43
:100C50000BF0B5EC0AF004E135EC0AF02BDB08D020
:100C600060EC0BF09BEC0AF005E135EC0AF013DBCD
:100C7000E552E552D9CFE1FFECD3EFDB54DB0C0EAC
:100C800063EC0BF0810FE66E8FDBE552E750EF6E01
:100C90004ADB080E63EC0BF07F0FE66E41EC0BF0C5
:100CA000E552E750EF6E8FEC0BF009E041EC0BF0F2
:100CB000BCEC0BF079DBEDDB77DB00C0EFFF72EC17
:100CC0000BF060EC0BF0B5EC0AF004E1CEDBF2DAED
:100CD000E552E55260EC0BF09BEC0AF004E1C5DB59
:100CE000DADAE552E55260DBEF50E66EE66A41EC97
:100CF0000BF0EF50E66EE66A2C0E006E550E66DBCA
:100D0000F56E070EE15EF550A4D3A7DB0301071DC6
:100D10004CE1081D4AE18150400B1BE18150800BE2
:100D200018E18750010B15E0020E0B6F0C6B0101EF
:100D3000ED6BE96BEA6BB40EEB6F430EEC6FF06B8F
:100D4000F16BE56BE66BFE0EE76FC20EE86FEE6BC4
:100D5000EF6B0BC3E9FF0CC3EAFF060EEA02F3CF09
:100D6000EAFFE902F3CFE9FFF450EA26340EE92660
:100D7000030EEA22EECF00F0EFCF01F0E50EE66EB3
:100D8000010EE66EFD0EDBCFE6FFFE0EDBCFE6FFCB
:100D900004D001C0FAFF0050F96EFBDFE552E552C6
:100DA000E552E5520301076B086B0751081153E147
:100DB0000BC3E9FF0CC3EAFF060EEA02F3CFEAFF1A
:100DC000E902F3CFE9FFF450EA26340EE926030ED8
:100DD000EA22020EE926000EEA22EECF02F0EFCF61
:100DE00003F0FB0EDBCFE6FFFC0EDBCFE6FFFD0ED4
:100DF000DBCFE6FFFE0EDBCFE6FF04D003C0FAFF39
:100E00000250F96EFBDFE552E552E552E552F3CFB1
:100E100000F0F350F4101FE10BC3E9FF0CC3EAFF2D
:100E2000060EEA02F3CFEAFFE902F3CFE9FFF4503E
:100E3000EA26340EE926030EEA22040EE926000E05
:100E4000EA22EECF00F0EFCF01F004D001C0FAFFAC
:100E50000050F96EFBDFFDD200DB5EDAEE52EFCF21
:100E60004EF24EC24CF258DA14DB00C04DF200C014
:100E70004BF2C1EC0BF0EFCF55F24EDA92EC0BF0E7
:100E8000EFCF51F249DA050EA0EC0BF0EFCF52F2A2
:100E900043DA060EA0EC0BF0EFCF53F23DDA070E6B
:100EA000A0EC0BF0EFCF4FF2D4D2D7DA040EE1264C
:100EB000010EC8DB92EC0BF033C0EEFFFCDA020E41
:100EC000C1DB33C0EEFF95EC0BF092EC0BF07ADB5C
:100ED0000C0EA0EC0BF034C0EEFF95EC0BF072DBC7
:100EE000ECDB34C0EEFFE7DA8FEC0BF024E0C1EC72
:100EF0000BF0EECFDFFF010EEECFDBFF020EEECFE9
:100F0000DBFF030EEECFDBFF07DA0C0E98DAC1EC45
:100F10000BF000C0EEFF95EC0BF00C0EA0EC0BF00C
:100F2000DFCFEEFF010EDBCFEEFF020EDBCFEEFFD9
:100F3000030EDBCFEEFF0101D4517F0802E2010E68
:100F400001D0FF0ED9DB03010D510301545D156E75
:100F5000555103010E5516DB140E55DA0101D5511A
:100F60007F0802E2010E01D0FF0EC6DB03010F5124
:100F70000301525D156E53510301105503DB100E32
:100F800042DA54C30DF355C30EF352C30FF353C3E8
:100F900010F34CEC27F0ECDABFD9220ED1DB33C0D2
:100FA000EEFF01C0EDFFD0DBD9CFE1FF52D255DA21
:100FB000B3D9040E59DBBCDBAFD90C0E55DB080EE0
:100FC00053DB140E51DB100E4FDB360EEB6A370E7F
:100FD000EB6AA2D9380EEB6A390EEB6AA2EC27F065
:100FE0009BD9220EEB6A230EEB6AAEDB9CD9140E62
:100FF000EB6A150EEB6A7ADB15DB95D999DB93D991
:10100000040EE1D990D9160EEB6A170EEB6A8BD954
:10101000180EEB6A190EEB6A53DB81DAEF6EC4D956
:10102000020E8BDB030E89DB040E1CDABDD9050E24
:1010300019DABAD9060E5CDA24DB7F0EEF6EB4D96A
:101040007F0EEF6EB1D90D0E5DDB090E5BDB080E76
:1010500074DB070E07DAFDD10201479F479B4795D6
:101060004791479D4799479747931200F6D9FD0E40
:10107000DBCF02F0FE0EDBCF03F0033407E20250B9
:101080000008000E035402E264DA05D062DA006C54
:10109000011E000E012200C0F3FF01C0F4FFD9D1F0
:1010A000DCD9060E0301171901E1185163E0050EA2
:1010B000171901E1185150E0040E171901E11851F8
:1010C00042E0030E171901E1185127E0020E17192B
:1010D00001E118511CE0010E171901E1185109E056
:1010E000175156E1185154E14FDBEF6E46DA50E3E9
:1010F0002FD08ADAB40E3B6E430E3C6EFBEC17F039
:10110000010A03E1B4DA420E18D0030121D0BCDA9F
:10111000A9D988DA32DA3CE31BD0E80ED88013551F
:10112000030E145515E387A206D0C3DAC20EEE6E85
:10113000FAD80C0E05D09BDAC20EEE6EF4D8080E6B
:101140004ED9420E1FD020DBEF6E6CDA16DA20E3A8
:10115000172B000E18231CD057DAF0D907E187DAD5
:10116000420EEE6EA6DA420EEE6E04D00301172B8D
:10117000000E182349DAE2D907E179DAC20EEE6EE1
:1011800098DAC20EEE6E04D003011707000E185B4A
:1011900003011951171902E11A5118192AE017C34E
:1011A000E6FF18C3E6FF1D0E006E550EB0DA030110
:1011B000136B146BB1D8100E42D9AED8140EC0DA2E
:1011C000EECF04F0EECF05F0EECF06F0EFCF07F054
:1011D00004C039F005C03AF006C03BF007C03CF04F
:1011E00071D9B8EC15F0BCEC17F035C015F336C06A
:1011F00016F317C3E6FF18C3E6FF0B0E006E550E7D
:1012000086DA1A0E03011327000E14231A0E112773
:10121000000E122319C317F31AC318F3F36AF46A02
:1012200018D11BD931DA87D9010A0EE0030A06E08A
:10123000020A10E1B9D8070E4CDA0CD0B5D8070E67
:101240004AD9A5DA6CD905D0AFD8070E51D99FDAA3
:1012500063D9EF6EFED001D9020169AD04D014DA72
:101260005BD9EF6E08D06AAB06D0050E006E550E46
:10127000F6D90ADA2EDA8BDA5ED9020803E087DAC9
:1012800074D908E102016AB503D0FED945D901D06D
:101290007BDAEF6EDED0E1D887B605D03DD8080EF8
:1012A000E1D8F36A05D038D8080E15D9010EF36ECF
:1012B000F46ACFD0D2D887B405D02ED8080E18D96A
:1012C000F36A05D029D8080ECDD8010EF36EF46A62
:1012D000C0D0C3D8E150FB0F13D904E01DD8040ED1
:1012E00007D903D019D8040EBDD8D950F90F08D9A1
:1012F00004E012D8050EFCD803D00ED8050EB2D8E3
:10130000D950F70FFDD804E007D8060EABD803D0AC
:1013100003D8060EEDD89DD0FD0EDBCFE9FFFE0E03
:10132000DBCFEAFF1200FB0EDBCFE9FFFC0EDBCFC9
:10133000EAFF1200140E04DAEECF0CF0EECF0DF03F
:10134000EECF0EF0EFCF0FF00CC039F00DC03AF039
:101350000EC03BF00FC03CF008C034F009C035F0BF
:101360000AC036F00BC037F0B8EC15F0FCD915C345
:1013700035F016C336F087EC15F034C010F035C0E8
:1013800011F036C012F037C013F0E4D904C034F0C5
:1013900005C035F006C036F007C037F0B7EC15F0E1
:1013A0007FD9396A3A6A1200F90EDBCFE9FFFA0EEB
:1013B000DBCFEAFF12006BD9E40E396ECB0E3A6E2A
:1013C000960E19EF0BF0BCD998EF0BF0016E026A84
:1013D00000C0E6FFE66E02C0E6FF13EF2DF0B0D9C5
:1013E000EE6AEE6AFE0EEE6E12003C6E4EEC16F0E9
:1013F00050EF0BF0BA0EE66E010EE66E800EE66E52
:10140000010EE66E12009CD9EECF34F0EECF35F02F
:10141000EECF36F0EFCF37F000C039F001C03AF030
:1014200002C03BF003C03CF0B8EC15F037C0EDFF54
:1014300036C0EDFF35C0EDFF34C0EFFF120080D99C
:10144000EECF00F0EECF01F0EECF02F0EFCF03F0E1
:101450001200E552E7CFD9FF1200D9CFE6FFE1CF66
:10146000D9FF12006DD9EF6A1200F90EDBCFE6FF4B
:10147000FA0EDBCFE6FF1200FB0EDBCFE6FFFC0E21
:10148000DBCFE6FFFD0EDBCFE6FFFE0EDBCFE6FF98
:101490001200EF50006E016AFF0ED8800056000E59
:1014A0000156120034C00CF035C00DF036C00EF0FD
:1014B00037C00FF0120001C0EEFF02C0EEFF03C004
:1014C000EEFF120000C034F001C035F002C036F06B
:1014D00003C037F0120034D97F0EEF6E12001AD914
:1014E000D40EE66E010EE66EB7DCE552E552120050
:1014F00027D9EF681200120E23D9EE50ED1012001A
:10150000E96EFF0EDA20EA6EEE50ED101200E552A1
:10151000E552E552E552120013D9010E120010D91E
:10152000020E1200470EE66E020EE66E05EC13F098
:10153000E552E552120004D9EF501200F00E3B6E56
:10154000420E3C6EFBEC17F0010A12006ADE8AEFD5
:101550000BF0FD0EDBCF00F0FE0EDBCF01F0120032
:10156000F56E050EE15EF5501200EAD8EF041200A8
:1015700033C000F034C001F01200EE0E135D020E15
:1015800014591200166E15C035F0366E87EC15F042
:1015900034C011F035C012F036C013F037C014F06B
:1015A000D9D80CC034F00DC035F00EC036F00FC0E5
:1015B00037F0A1EC16F0FFDE100E3B6E410E15DF8A
:1015C0008CEF09F0EECF10F0EECF11F0EECF12F06D
:1015D000EFCF13F010C033F011C034F012C035F06B
:1015E00013C036F09EEC15F05DDF396A3A6A7A0E68
:1015F0003B6E440E3C6E4EEC16F0DDDE700E3B6E24
:10160000420EF3DE8CEF09F087DE100E99D8EECF94
:1016100008F0EECF09F0EECF0AF0EFCF0BF07CDE52
:101620009AEF09F080DE0C0ECEDE7DDE080EE3EFD1
:1016300009F03B6E410E3C6EA1EC16F094D8396A6D
:101640003A6A1200E66EE66AD6EC1EF0E552E55202
:101650008FDF35C002F036C003F08CEF09F0B6DE44
:10166000E552E552E5521200AEDE8CEF09F05BDE8A
:101670000C0EEFEF09F0D40EE66E010EE66EFAEFF7
:1016800009F092DEEE5212004EDE100E120034C04F
:1016900008F035C009F036C00AF037C00BF0120070
:1016A00034C000F035C001F036C002F037C003F09E
:1016B000120039DE080EEFEF09F0080EA0EF0BF074
:1016C00032DE110E1200BBDEFDDE95EC17F0365057
:1016D0001200C8DE5CD832EF0AF08CDE55EC07F061
:1016E00087EF0AF0C2DEC8DEA6EF0AF01CDE120E9B
:1016F000EB6A130EEB6A1200106E366E78EC15F082
:1017000052EF0AF06CDE420EEE6ED4EF09F05EDEB0
:10171000B0EF0AF0F56E060EE15EF550120003DE42
:101720007BEF0AF0040EA0EF0BF0C5DE8CEF09F0A2
:10173000EE6AEE6AEE6AEE6A1200CDDED4EF09F0D0
:10174000E926000EEA221200E7DD240E8DDF280EC6
:10175000E3EF09F034C039F035C03AF036C03BF061
:1017600037C03CF0120034C004F035C005F036C07C
:1017700006F037C007F012008CDE83DF00C0EFFFF9
:101780001200CADD5DEF0BF07FDF8FEF0AF0C4DDE2
:04179000340E120001
:0C17940006EC11F0FB0EDBCFF3FFDB06D0
:1017A000F35000090AE054EC11F0FA0EBFEC11F00E
:1017B000F3E1011CF1E1010E01D0000E35EF11F053
:1017C00006EC11F03B0EE12402E3E168E652E16E23
:1017D000010EDB6A020EDB6AF90EDBCFF6FFFA0EB2
:1017E000DBCFF7FFFB0EDBCFF8FF0800F550DF6E15
:1017F000DF5002E15BEF10F0250EDF5C02E04EEF00
:1018000010F0030EDB6A040EDB6A050EDB6A060EBF
:10181000DB6A070EDB6A6EEC10F02D0EDF5C0CE06D
:101820002B0EDF5C09E0200EDF5C06E0230EDF5CA0
:1018300003E0300EDF5C1AE1DF50300A14E0130AD7
:101840000FE0030A0AE00B0A05E0060AE4E1030ED2
:10185000DB80E1D7030EDB82DED7030EDB84DBD730
:10186000030EDB86D8D7030EDB88D5D72A0EDF5CC4
:101870001BE16AEC10F0B8EC10F010E0030EDB8016
:1018800035683668130EDBCF3AF0140EDBCF3BF031
:1018900068EC17F0040E33C0DBFF03D0130EA1EC8D
:1018A00010F06EEC10F00BD0090EDB6A0FEC11F0AB
:1018B00003E083EC11F0FAD7090EA1EC10F0030E4F
:1018C000DBB0DB982E0EDF5C1BE16EEC10F02A0E15
:1018D000DF5C0BE16AEC10F0B8EC10F003E1130EE2
:1018E000F3EC10F06EEC10F00BD0090EDB6A0FEC8D
:1018F00011F003E083EC11F0FAD7090EF3EC10F0CD
:10190000680EDF5C07E16EEC10F0680EDF5C1DE135
:10191000030E18D0740EDF5C17E07A0EDF5C14E063
:10192000480EDF5C06E0540EDF5C03E05A0EDF5C1D
:1019300002E1020E07D06C0EDF5C03E06A0EDF5C92
:1019400004E1010E46EC11F0C9DBDF506E0A01E143
:1019500081D31E0A01E192D1200A01E18FD13F0A11
:1019600001E149D11A0A01E146D10D0A01E143D151
:10197000200A01E140D13A0A01E13DD1200A01E10A
:101980003AD1260A01E135D10D0A01E132D11A0A14
:1019900001E1D9D0200A4AE0300A1FE0460A0EE0F1
:1019A000250A01E085D3D950F90FE96EFF0EDA2040
:1019B000EA6E010EEE5E000EEE5AEE5A54EC11F095
:1019C000250EE66E95DB03E1011C01E16BD350ECC3
:1019D00011F001E26DD3DB2A6BD3080EDB6A040E33
:1019E000DB50010806E2040EDB0418EC11F0DB50BA
:1019F0008BDB080EDB5009E0030EDB50010B05E129
:101A000072DB01E04FD3080EDB6A64DBEFCFDFFF50
:101A1000C8EC11F003E1011C01E144D350EC11F0DA
:101A200001E3DB2A60DB01E143D33CD3070EDB504B
:101A300002080FE194EC11F0030E5BEC11F00E0EB6
:101A4000EECFDBFF0F0EEECFDBFF100EEECFDBFF96
:101A500020D0F70EDBCF03F0F80EDBCF04F0020E40
:101A6000035E000E045AF70E03C0DBFFF80E04C03D
:101A7000DBFF03C0E9FF04C0EAFF4BEC11F0026A90
:101A80000E0E00C0DBFF0F0E01C0DBFF100E02C008
:101A9000DBFF0E0EDBCFE6FF0F0EDBCFE6FF100EF7
:101AA000DBCFE6FF9FEC2CF0E552E552E552130E3A
:101AB00034C0DBFF140E35C0DBFF060EDB5005E043
:101AC000130E8FEC11F001E26ADBB3EC11F002E2CD
:101AD000130E37DB76EC11F006E0040E8FEC11F0FC
:101AE00002E2050E2EDB030EDBB005D0FCDA01E0CE
:101AF000D9D2080EDB6A090EDB6A0E0EDBCFF6FFC9
:101B00000F0EDBCFF7FF100EDBCFF8FF0800F5500C
:101B1000DF6EDF5014E0B9EC11F011E2C8EC11F007
:101B200003E1011C01E1BED2BBDB01E3DB2A090EAC
:101B3000DB2AD9500E0FE96E000ECBDBE7D7D3DAE4
:101B400001E1B6D2AFD2C6DA110EEECFDBFF120E34
:101B5000EDCFDBFF110EDBCFE6FF120EDBCFE6FF92
:101B600091EC2CF0E552E552130EF3CFDBFF140E8F
:101B7000F4CFDBFF060EDB5004E0130ED0DB01E2F6
:101B80000EDBB3EC11F002E2130EDBDAAFDB05E0A3
:101B9000040EC5DB02E2050ED4DA030EDBB005D07D
:101BA000A2DA01E07FD2080EDB6A090EDB6A110EB1
:101BB000DBCFE9FF120EDBCFEAFFEFCFDFFFDF5015
:101BC00014E0D7DB12E2E4DB03E1011C01E16AD29D
:101BD00067DB01E3DB2A090EDB2A110EDB2ADBCFF0
:101BE000E9FF120EE8E3DB2AE6D77DDA01E160D2F5
:101BF00059D2030EDB8E070EDB0410E195DB040ED9
:101C00005ADB0A0EEECFDBFF0B0EEECFDBFF0C0E26
:101C1000EECFDBFF0D0EEECFDBFF6CD0070EDB50FF
:101C200003082CE1030EDBAE0DD0B2DA020E76DA39
:101C3000EFCF00F0016A026A036A00AE39D0016892
:101C4000026835D0F70EDBCF01F0F80EDBCF02F0E3
:101C5000020E015E000E025AF70E01C0DBFFF80E05
:101C600002C0DBFF01C0E9FF02C0EAFFEFCF00F0D6
:101C70000A0E00C0DBFF0B0EDB6A38D0070EDB500C
:101C8000020809E1030EDBAE04D059DB02AE10D02E
:101C90000ED055DB0DD0030EDBAE12D079DA020E7A
:101CA0003DDAF9DA026A036A01AE02D0026803681B
:101CB000E2DA0C0E02C0DBFF0D0E03C0DBFF1AD010
:101CC000F70EDBCF02F0F80EDBCF03F0020E025E60
:101CD000000E035AF70E02C0DBFFF80E03C0DBFF55
:101CE00002C0E9FF03C0EAFFD6DAC5DA0C0EDB6AF0
:101CF0000D0EDB6A060EDB5005E1010EF36E050EDC
:101D0000F3CFDBFF150EDB6A160EDB6AD950370FF7
:101D1000006E000EDA20016E390E00C0DBFF3A0EB5
:101D200001C0DBFF380EDB6A080EDB6A0A0EAEDA92
:101D3000DF50780A12E0200A10E0280A0CE0200A9E
:101D40000AE03F0A06E00D0A02E0200A08E1020E5E
:101D500005D0080E03D0080EDF26100E97DA030E0A
:101D6000DBBE02D0DB92DB94DB50800B26E08ADA0C
:101D7000030EEB50000AE8AE02D0D89008D0000E57
:101D8000EE5C000EEE58000EEE58000EEE5815E216
:101D900011DA386839683A683B689FEC2DF00A0E12
:101DA0002FC0DBFF0B0E30C0DBFF0C0E31C0DBFFA2
:101DB0000D0E32C0DBFF2D0E08D0030EDBA202D0C9
:101DC0002B0E03D0DBA408D0200EF36E170EF3CF3A
:101DD000DBFF150EDB2A02D0170EDB6A050EDB5087
:101DE00003E1B5D901E189D08C0E006E5E0E016E63
:101DF000000E026E070EDBCF03F0046A056A066A66
:101E000003C038F004C039F005C03AF006C03BF01A
:101E1000D1D970EC2EF000502F24F36E01503020F9
:101E2000F46E02503120F86EF4CFF7FFF3CFF6FFD7
:101E30000800090EF5CFDBFF580EDF5C0FE1610EE5
:101E4000F36E090E79D90AE3200E006E090EDBCF7E
:101E5000E7FF0050E75E090EE7CFDBFF070EDBCFA1
:101E600000F0016A026A036A0DDA00C038F001C0AE
:101E700039F002C03AF003C03BF0EECF33F0EECFC2
:101E800034F0EECF35F0EFCF36F070EC2EF036C0F8
:101E9000EDFF35C0EDFF34C0EDFF33C0EFFF390E6D
:101EA000DBCFE9FFDB063A0EDBCFEAFF01E2DB0620
:101EB000090EDBCFEFFF150EDB2A49D995E1030EA2
:101EC000DBA61DD06F0EDF5C06E1BFD918E3150E4F
:101ED000DB2859DA14D0780EDF5C09E0580EDF5C9D
:101EE00006E0620EDF5C03E0420EDF5C08E1020EFA
:101EF000F36E160EF3CFDBFF02D0150EDB6A030E76
:101F0000DB50100B0EE0040EDBCF00F0050EDB50B3
:101F1000D880005406E2060EDB5003E1040EDB50CD
:101F200032DA93D90AE2050EDBCFE7FF150EDB505C
:101F3000E75E050EE7CFDBFF02D0050EDB6A040E7D
:101F4000DBCF00F0160E43D9D880005414E2160EF1
:101F5000DBCFE6FF150EDBCFE6FF040EDBCFE6FF9F
:101F6000050EDB50E552E75CE552D880E754E552B8
:101F7000D880E7545DD9030EDB50010B0BE1080E4E
:101F8000DB5008E0B0D801E08DD0080EDB50BCD8A3
:101F9000080EDB6A170EDB5007E086D9170EEFD963
:101FA00003E1011C01E17ED0160EDB5016E07CD966
:101FB000300EE66E9DD802E1011C74E075D9DFCFCA
:101FC000E6FF5DEC2DF0E552E552E552F4CF01F06D
:101FD0000001F31C02E1011C65E0050EDBCF00F0FF
:101FE000160EDB50D880005409E2050EDBCFE7FF68
:101FF000160EDB50E75E050EE7CFDBFF300EE66E18
:10200000050EC9D94FE1390EDB2ADBCFE9FF3A0EC5
:1020100001E3DB2ADBCFEAFF090EEFCFDBFFDB506A
:102020000EE042D9090EABD902E1011C3BE0390EAA
:10203000DB2ADBCFE9FF3A0EEDE3DB2AEBD753D8FF
:1020400031E1160EDBCFE6FF080EC1D8E552E724DA
:102050005BD82ED0070EDB50030A1CE0010A14E007
:10206000030A07E079D9DBCFEEFF020EDBCFEDFFED
:102070001FD0F3D8056A03AE02D0046805682AD8D9
:10208000BAD805C0EEFF14D0E8D803BE046822D841
:10209000B2D80ED061D9DBCFEFFF0AD079D905E1F4
:1020A000011C03E1F368F46810D0FAD801E3DB2ADD
:1020B00077D9F5EF0BF0010EDBCF00F0020EDBCF8E
:1020C00001F000C0F3FF01C0F4FFD9CFE1FFDACF88
:1020D000E2FFCBD029D9020E5BEF11F061D90800E5
:1020E000F550DF6E1200200EE66E080ECBEF11F0F9
:1020F0005DEC2DF0E552E552E552F3CF00F0F4CF60
:1021000001F00001F31C1200006E016AD950010FAA
:102110004DD90050EE260150ED221200045E000E53
:10212000055AF70E04C0DBFFF80E05C0DBFF04C044
:10213000E9FF05C0EAFF1200DBCFF4FFF350F45CC7
:102140001200DB50E76E040EE7CFDBFF12000A0E31
:10215000DBCF00F00B0EDBCF01F00C0EDBCF02F07B
:102160000D0EDBCF03F0005001100210031012001F
:10217000130EEECFDBFF140EEDCFDBFF130EDBCF24
:1021800000F0140EDBCF01F00001800E01141200EC
:10219000F70EDBCF04F0F80EDBCF05F01200050ED2
:1021A000DB50E66ED950130F01D9E552E750EE6EC1
:1021B000ED6A12000A0EDBCF33F00B0EDBCF34F0EA
:1021C0000C0EDBCF35F00D0EDBCF36F01200DBCF7F
:1021D000E6FF150EDBCFE6FF050EDB50E552E724E8
:1021E000E552E7241200DB50CED8010EF36E060E46
:1021F000F3CFDBFF1200EE50EFCFEAFFE96E02C033
:10220000EEFF03C0EEFF04C0EEFF1200D9CFE6FFE1
:10221000DACFE6FFE1CFD9FFE2CFDAFF1200DFCF5E
:10222000E6FFE66AFBEC2EF0E552E552F3501200B1
:10223000E76E080EE7CFDBFF1200EECF00F0EECF27
:1022400001F0EFCF02F0036A1200050EDBCF00F0C1
:10225000150EDB50D88000541200010EDBCF02F0C7
:10226000020EDBCF03F0046A1200E552E5CFDAFF7D
:10227000E7CFD9FF12000A0E00C0DBFF0B0E01C032
:10228000DBFF1200D9500A0FD6EF11F0F36E070EE4
:10229000F3CFDBFF1200EECF00F0EFCF01F0120022
:1022A000010EDB2A020E1200FC0EDBCFE6FFFD0E54
:1022B000DBCFE6FF1200005E000E015AF70E00C0F1
:1022C000DBFFF80E01C0DBFF00C0E9FF01C0EAFF41
:1022D0001200DA20EA6EEF2AEECFF6FF000EEF22B0
:1022E000EECFF7FFEF22EECFF8FF1200040EDBCFA8
:1022F000E6FF130EDB50E552E75C9ADFDB5004DFAC
:10230000060EDB501200090EDB500A0DF350DF24DD
:10231000D00FE76E090EE7CFDBFF6EEF10F0DB505A
:10232000F36E050E9CEF10F0F70EDBCF00F0F80E09
:10233000DBCF01F01200DFCFE6FF78EF10F028DFEF
:10234000030EECDE1DEF11F0CAEC0BF0E552E55286
:10235000E552E55200091200BDDEEE50EFCFEAFF74
:10236000E96E010E1200130EDB50F36E040E9CEFAB
:1023700010F0040EDB50F36E090E9CEF10F0DBCF73
:10238000E6FF78EF10F0E76E050EE7CFDBFF1200F7
:102390008BDF9BEF11F0DBCFE6FF86DFA4EF11F0C0
:1023A000D950F90FE96EFF0E69EF11F0E96E000EDA
:0623B000DA20EA6E1200C3
:0A23B600D8CFE4FFE0CFE4FFE46EAF
:1023C000DACFE4FFE2CFDAFFE9CFE4FFEACFE4FFC0
:1023D000E652F2A202D0A5D802D09EB6D1D8E552DC
:1023E000E5CFEAFFE5CFE9FFE5CFDAFFE550E5CF3E
:1023F000E0FFE5CFD8FF1000E66A010EE66E050E9D
:10240000E66E0BEC2EF0E552E552E5521200070E97
:10241000B46E000E886E876E866E856E846E836ED7
:10242000826E816E806E916E906E8F6E8E6E8D6EEE
:102430008C6E8B6E8A6E896E2F0E926E93689C0ED8
:10244000946E956A966A9768040E986E0E0E9A6E50
:102450009968C16AF19EB0989C8EA26A9F6AA06A30
:102460009D6AA36AA56AC8DF9F86D08E9E969D86C8
:102470009382F06AF288F09EF098F192F09AF16AF5
:10248000F28CF28E1200D9CFE6FFE1CFD9FFE652EF
:10249000BEDF02018797879901014B0EFD6F020E87
:1024A000FE6FDF6A100EDF5C0AE2DF50EA6AFD258C
:1024B000E96EFE51EA227F0EEF6EDF2AF3D70201AA
:1024C000646B010E656FC20E666F020187850201A3
:1024D000696B6A6B0201476B496B4A6B010ED56EE3
:1024E000320ED76ECF0ED66ED59E470EE66E020E1A
:1024F000E66E8BD8E552E55202018793470EE66EF1
:10250000020EE66E82D8E552E55202018793E5524B
:10251000E552E7CFD9FF1200828280889492929888
:102520001200F2920101200EF96F9F86020187A925
:1025300006D00101E00EF66F000EF76F05D0010125
:10254000C00EF66F000EF76F020187A1877987A78B
:1025500006D00101800EF46F000EF56F05D0010169
:10256000A00EF46F000EF56FC9CFFAF1F4C1E9FFC8
:10257000F5C1EAFFF42B000EF523EF50C96E1200EF
:102580009E96C9CFFAF10101F951000823E2F6C184
:10259000E9FFF7C1EAFFF62B000EF723FAC1EFFFC0
:1025A000F4C1E9FFF5C1EAFFF42BF523EFCFFAF10F
:1025B000FAC1C9FFF907F9510CE10201020E656F7A
:1025C000020187938781320ED76ECF0ED66EF294BA
:1025D000D58E01D0C96A1200D9CFE6FFE1CFD9FF6D
:1025E000020187A10ED0FD0EDBCFE6FFFE0EDBCF92
:1025F000E6FFDBEC21F0E552E5529D960201879162
:102600009D86E552E7CFD9FF1200D9CFE6FFE1CF93
:10261000D9FF020187B332D0FD0EDBCFE9FFFE0EFA
:10262000DBCFEAFF1E0EE926000EEA22EF50020879
:1026300009E1FD0EDBCFE6FFFE0EDBCFE6FF69D83A
:10264000E552E552FD0EDBCFE9FFFE0EDBCFEAFFE0
:10265000150EE926000EEA22EF9EFD0EDBCFE6FF07
:10266000FE0EDBCFE6FF49EC21F0E552E5529D96E8
:102670000201877787839D860201642BE552E7CFAD
:10268000D9FF12009D96020187919D861200D9CF35
:10269000E6FFE1CFD9FF00012E6BD950FD0FE96EA7
:1026A000FF0EDA20EA6E010EEE1801E1ED5002E1B4
:1026B0002E8101D0BA6AD950FB0FE96EFF0EDA20E5
:1026C000EA6E010EEE1801E1ED5002E12E8301D019
:1026D000B76AD950F90FE96EFF0EDA20EA6E010EE3
:1026E000EE1801E1ED5002E12E8501D0736AD95058
:1026F000F70FE96EFF0EDA20EA6E010EEE1801E127
:10270000ED5002E12E8701D0706AE552E7CFD9FF84
:102710001200D9CFE6FFE1CFD9FFFD0EDBCFE9FFF5
:10272000FE0EDBCFEAFF1C0EE926000EEA22EF6A5E
:10273000FD0EDBCFE9FFFE0EDBCFEAFF170EE92629
:10274000000EEA22EF6AC6AE0ED0C69EFD0EDBCFAB
:10275000E9FFFE0EDBCFEAFF170EE926000EEA22A4
:10276000010EEF6E22D0F150800B10E0F250080BFA
:102770000DE0FD0EDBCFE9FFFE0EDBCFEAFF170E0B
:10278000E926000EEA22020EEF6E0FD0F0A60DD061
:10279000909EFD0EDBCFE9FFFE0EDBCFEAFF170EAA
:1027A000E926000EEA22030EEF6E250EC614250858
:1027B00019E0FD0EDBCFE9FFFE0EDBCFEAFF1C0EBA
:1027C000E926000EEA22010EEF6EFD0EDBCFE9FFD7
:1027D000FE0EDBCFEAFF170EE926000EEA22C6CF77
:1027E000EFFF80D1C55019E0FD0EDBCFE9FFFE0EF3
:1027F000DBCFEAFF1C0EE926000EEA22020EEF6E86
:10280000FD0EDBCFE9FFFE0EDBCFEAFF170EE92658
:10281000000EEA22C5CFEFFF65D1D0BE19D0FD0E64
:10282000DBCFE9FFFE0EDBCFEAFF1C0EE926000E30
:10283000EA22030EEF6EFD0EDBCFE9FFFE0EDBCFCB
:10284000EAFF170EE926000EEA22D0CFEFFF4AD1A9
:102850009DB619D0FD0EDBCFE9FFFE0EDBCFEAFF00
:102860001C0EE926000EEA22040EEF6EFD0EDBCFF1
:10287000E9FFFE0EDBCFEAFF170EE926000EEA2283
:102880009DCFEFFF2FD19C5019E0FD0EDBCFE9FF6C
:10289000FE0EDBCFEAFF1C0EE926000EEA22050E33
:1028A000EF6EFD0EDBCFE9FFFE0EDBCFEAFF170E6A
:1028B000E926000EEA229CCFEFFF14D1080E9F5CA0
:1028C00019E0FD0EDBCFE9FFFE0EDBCFEAFF1C0EA9
:1028D000E926000EEA22060EEF6EFD0EDBCFE9FFC1
:1028E000FE0EDBCFEAFF170EE926000EEA229FCF8D
:1028F000EFFFF8D0A25019E0FD0EDBCFE9FFFE0E8E
:10290000DBCFEAFF1C0EE926000EEA22070EEF6E6F
:10291000FD0EDBCFE9FFFE0EDBCFEAFF170EE92647
:10292000000EEA22A2CFEFFFDDD0A55019E0FD0E88
:10293000DBCFE9FFFE0EDBCFEAFF1C0EE926000E1F
:10294000EA22080EEF6EFD0EDBCFE9FFFE0EDBCFB5
:10295000EAFF170EE926000EEA22A5CFEFFFC2D04C
:10296000100EF214100819E0FD0EDBCFE9FFFE0E89
:10297000DBCFEAFF1C0EE926000EEA22090EEF6EFD
:10298000FD0EDBCFE9FFFE0EDBCFEAFF170EE926D7
:10299000000EEA22F2CFEFFFA5D0470EF11419E0A6
:1029A000FD0EDBCFE9FFFE0EDBCFEAFF1C0EE926B2
:1029B000000EEA220A0EEF6EFD0EDBCFE9FFFE0EDF
:1029C000DBCFEAFF170EE926000EEA22F1CFEFFF78
:1029D00089D0C00EF01419E0FD0EDBCFE9FFFE0E2A
:1029E000DBCFEAFF1C0EE926000EEA220B0EEF6E8B
:1029F000FD0EDBCFE9FFFE0EDBCFEAFF170EE92667
:102A0000000EEA22F0CFEFFF6DD092A819D0FD0E94
:102A1000DBCFE9FFFE0EDBCFEAFF1C0EE926000E3E
:102A2000EA220C0EEF6EFD0EDBCFE9FFFE0EDBCFD0
:102A3000EAFF170EE926000EEA2292CFEFFF52D0EE
:102A400093B019D0FD0EDBCFE9FFFE0EDBCFEAFF1E
:102A50001C0EE926000EEA220D0EEF6EFD0EDBCFF6
:102A6000E9FFFE0EDBCFEAFF170EE926000EEA2291
:102A700093CFEFFF37D03E0E94141C0819E0FD0EE3
:102A8000DBCFE9FFFE0EDBCFEAFF1C0EE926000ECE
:102A9000EA220E0EEF6EFD0EDBCFE9FFFE0EDBCF5E
:102AA000EAFF170EE926000EEA2294CFEFFF1AD0B4
:102AB00097BE18D0FD0EDBCFE9FFFE0EDBCFEAFF9D
:102AC0001C0EE926000EEA220F0EEF6EFD0EDBCF84
:102AD000E9FFFE0EDBCFEAFF170EE926000EEA2221
:0C2AE00097CFEFFFE552E7CFD9FF1200BF
:042AEC003E9E05D035
:102AF0003E9E36AE02D0366C3E8E36C030F02F6A27
:102B0000426A416A860E316E326A75EF18F03E9E57
:102B100008D03E9E36AE05D0356C361EE86A3622A9
:102B20003E8E36C030F035C02FF0426A416A8E0EBC
:102B3000316E326A75EF18F03E9E0CD03E9E36AE76
:102B400009D0336C341E351E361EE86A3422352215
:102B500036223E8E36C030F035C02FF034C042F001
:102B600033C041F09E0E316E326A75EF18F03C7E34
:102B70003E6AB1EC18F0C9EC18F03EB659EF18F007
:102B80003EA20AD03EAA03D03EBE59EF18F03EA4A2
:102B900065EF18F062EF18F03EAA05D03EAC65EF85
:102BA00018F062EF18F03EA00AD03EA808D03EBE52
:102BB00004D03EA402D06EEF18F072EF18F0416A14
:102BC000326A3C50375C406E10E334C042F035C08E
:102BD0002FF036C030F037C03FF039C034F03AC083
:102BE00035F03BC036F03E3A09D039C042F03AC029
:102BF0002FF03BC030F03CC03FF0406C3E9E3EBCEE
:102C00003E8E3FC031F03EB0A1EF18F01A0E40608A
:102C1000A1EF18F0316A376A3EA408D0346C351E33
:102C2000361E371EE86A3522362237223EAC08D0DF
:102C3000426C2F1E301E311EE86A2F2230223122B4
:102C4000336A405207E03734363235323432333269
:102C5000402EF9D73450422635502F22365030229C
:102C60003750312233C041F03E9E31AE0BD0416C23
:102C7000421E2F1E301E311EE86A42222F223022B1
:102C800031223E8E31A006D0D88030322F324232EF
:102C900041323F2A3FC031F075EF18F03E6AB1EC87
:102CA00018F0C9EC18F03EB659EF18F03EA205D066
:102CB0003EBA59EF18F060EF18F03EBA6CEF18F01A
:102CC0003EA005D03EB859EF18F06CEF18F03EB8B2
:102CD00060EF18F0326A7F0E3724316EE86A3222D4
:102CE0003C50315EE86A325A1A0E3F6E376A416ACA
:102CF000426A2F6A306A3950345E3A50355A3B5036
:102D0000365A000E375A09E7395034263A503522E0
:102D10003B503622000E372201D0418AD8903436FB
:102D2000353636363736D890413642362F3630363D
:102D30003F2EE1D7365035103410D8A4418A75EFB4
:102D400018F03E6AB1EC18F0C9EC18F03EB659EF35
:102D500018F03EA205D03EB859EF18F060EF18F019
:102D60003EAA05D03EB059EF18F060EF18F03EB023
:102D700002D03EA802D06CEF18F0326A3C503724E3
:102D8000316EE86A32227E0E315EE86A325A416A5A
:102D9000426A2F6A306A3B503602F4CF30F0F3CFEC
:102DA0002FF03A503602F3504226F4502F22000EF4
:102DB00030223B503502F3504226F4502F22000EB1
:102DC000302239503602F3504126F4504222000E90
:102DD0002F2230223A503502F3504126F45042223D
:102DE000000E2F2230223B503402F3504126F45083
:102DF0004222000E2F22302239503502F450412653
:102E0000000E42222F2230223A503402F450412642
:102E1000000E42222F22302275EF18F03D6A3BAEA1
:102E200017EF17F03A6C3B1EE86A3B223D1E36AEA8
:102E30001FEF17F0356C361EE86A36223D1ED2ECC5
:102E40002EF036BE2FEF17F03DAE000C356C361E5F
:102E5000E86A3622316C321EE86A3222000C3DBE2E
:102E600026EF17F03E88FF0C3D6AE86A3BAE41EF63
:102E700017F0386C391E3A1E3B1E39223A223B228B
:102E80003D1E36AE4CEF17F0336C341E351E361E29
:102E90003422352236223D1E70EC2EF036BE63EF12
:102EA00017F03DAE000C336C341E351E361EE86A3A
:102EB0003422352236222F6C301E311E321E302233
:102EC00031223222000C3DBE53EF17F03E88FF0C3A
:102ED00036C042F035C041F035503A02F4CF34F0FC
:102EE000F3CF33F036503B02F4CF36F0F3CF35F06A
:102EF0003A02F3503426F4503522E86A3622415023
:102F00003B02F3503426F4503522E86A36223BAEB9
:102F10008EEF17F04150355E4250365A42AE000CEB
:102F20003A50355E3B50365A000C3E6AB1EC18F010
:102F30003EB69FEF17F03EA20AD03EB403D07F0EFC
:102F4000366E19D0800E366E16D0366A14D03EB06A
:102F5000FCD7870E3760F1D77E0E3764F6D7860E22
:102F6000375C04E0D8903632372AF9D73EA403D034
:102F7000366C36AEEAD712003E6AB1EC18F03EB6B7
:102F8000C6EF17F03EA20ED03EB405D07F0E366ECF
:102F9000FF0E356E1FD0800E366E356A1BD0366A36
:102FA000356A18D03EB0FBD78F0E3760EDD77E0E56
:102FB0003764F5D78E0E375C05E0D890363235325F
:102FC000372AF8D73EA406D0356C361EE86A36227A
:102FD00036AEE5D7120004EC18F03EB6000C3EB059
:102FE000010C000C04EC18F03EB6000C3EB0000CD6
:102FF0003EB4000C010C04EC18F03EB6000C3EB0E0
:10300000000C3EA4000C010C3E6AB1EC18F0C9ECB7
:1030100018F03EB612003EAE08D03EA004D03EA846
:1030200002D03E8012003E9012003C50375C0BE113
:103030003B50365C08E13A50355C05E13950345C70
:1030400002E13E801200D8A002D03E8E10D0375050
:103050003CC037F03C6E36503BC036F03B6E3550CE
:103060003AC035F03A6E345039C034F0396E3C50C5
:10307000375C10E0FF0F09E03E903EB403D03EAE57
:103080003E8412003EAE3E9412003C2AD8903B3261
:103090003A3239323950345E3A50355A3B50365A0A
:1030A00036BEEAD7D890343635363636372EF8D78E
:1030B000C8D77F0E376EFF0E366E356E346E120037
:1030C0007F0E3EBEFF0E376E02D07F0E376E800E33
:1030D000366E356A346AF3D73EAE04D0800E376E52
:1030E000366AF7D7376A366AF4D730502F10421055
:1030F0004110F8E032BEF0D730BE0CD03150321063
:10310000EBE0D890413642362F3630363106D8A023
:103110003206F2D73250D4E13128D2E041AE11D09C
:103120007F0E411402E142A00CD0422AE86A2F220D
:10313000302207E3D88030322F324232312A312810
:10314000BFE03150C9E042C034F02FC035F0303418
:10315000366E3130376E3632379E3EBE378E5FEF79
:1031600018F03636373602E33E843E7E06E13E8076
:10317000376A366A356A346A1200372803E0D88025
:1031800036321200D890363202E13E8212003E867C
:1031900012003B363C3602E33E8C3E7E06E13E8822
:1031A0003C6A3B6A3A6A396A12003C2803E0D880DC
:0E31B0003B321200D8903B32EAE13E8A120018
:0231BE0002DB32
:1031C000E150F90F48DB0BE1FB0EDB6AFC0EDB6A1A
:1031D000010EF36EF90EF3CFDBFFFA0EDB6AD95066
:1031E000F10F39DB0BE1F30EDB6AF40EDB6A010E43
:1031F000F36EF10EF3CFDBFFF20EDB6AD950F50F61
:103200002ADB0BE1F70EDB6AF80EDB6A010EF36EC8
:10321000F50EF3CFDBFFF60EDB6AFDD9FB0EDBCF3D
:10322000EEFFFC0E1CDB020E41DAF90EDBCFEEFFE7
:10323000FA0E15DB040E3ADAF70EDBCFEEFFF80ECE
:103240000EDB060E33DAF50EDBCFEEFFF60E07DBF4
:10325000080E2CDAF30EDBCFEEFFF40E00DB0A0EC5
:1032600025DAF10EDBCFEEFFF20EDBCFEDFFCADA8F
:10327000EF0EDBCFEEFFF00EDBCFEDFFC7DAED0E8A
:10328000DBCFEEFFEE0EDBCFEDFF98DA310EEE6E08
:10329000750EED6EC0D90E0EEB6A0F0EEB6ABED244
:1032A0002DDA08DA010EE66EE66A36D227DA010E6A
:1032B000E66EE66AFFD930D285DA040EE126DE6AD0
:1032C000DD6A61DAFB0EDB50025C006EFC0EDB5047
:1032D0000358016E020E00C0DBFF030E01C0DBFFCE
:1032E0006DDA310EEE1806E1750EED1803E192DA93
:1032F00051DA98DA63DAEECF00F0EFCF01F0013463
:1033000004E200503008750E01540AE357DA4CDA33
:10331000D880035004E7D00E025C8A0E035801E205
:1033200081DA79D9020E84DA76D9EECF04F0EFCFC4
:1033300005F0020EDBCF35F0030EDBCF36F004C014
:103340003AF005C03BF068EC17F033C002F034C02F
:1033500003F033C035F034C036F006C03AF007C091
:103360003BF095D958D9060E69DA28DAEECF04F089
:10337000EFCF05F050D9040E5BDA00010650E4D916
:103380000750F9D908C03AF009C03BF080D943D9B9
:103390000A0E8CD9EECF0AF0EFCF0BF0020EDBCF86
:1033A00006F0030EDBCF07F035DAEE50065C046E54
:1033B000EE500758056E2FD9080E40DA000108506C
:1033C000C3D90950D8D90AC03AF00BC03BF05FD935
:1033D000F0D918DAE9D903500118E8AE02D0013467
:1033E00004D00050025C0150035805E20BDAEECF26
:1033F000DEFFEDCFDDFFDDD909DAD6D901500318A4
:10340000E8AE02D0033401D0B1D905E2FFD9EECF46
:10341000DEFFEDCFDDFFFED9BDD9020EDBCF00F020
:10342000030EDBCF01F0CAD90050EE260150ED2289
:10343000C0D900C0F3FF01C0F4FFB3D1C3D9080E57
:10344000E126D950F90F74D9040EEECFDBFF050E3B
:10345000EECFDBFF060EEECFDBFF070EEECFDBFF7E
:10346000F50EDBCF00F0F60EDBCF01F0F70EDBCF71
:1034700002F0F80EDBCF03F0F10EDBCF04F0F20E1A
:10348000DBCF05F0F30EDBCF06F0F40EDBCF07F059
:1034900004C039F005C03AF006C03BF007C03CF06C
:1034A00096D9B7EC15F034C0DEFF35C0DEFF36C06C
:1034B000DEFF37C0DDFFDD52DD52D950FD0F38D9B8
:1034C000010EEE180FE1ED500DE1ACD8DFCF71F336
:1034D000010EDBCF72F3020EDBCF73F3030EDBCFF3
:1034E00074F314D0D950FD0F23D9020EEE180EE15B
:1034F000ED500CE197D8DFCF6DF3010EDBCF6EF30B
:10350000020EDBCF6FF3030EDBCF70F3040EDBCFC5
:1035100000F0050EDBCF01F0060EDBCF02F0070E48
:10352000DBCF03F01AD93DD14DD907D92CD90150A1
:103530000318E8AE02D0033401D018D910E2FD0E12
:10354000DBCF35F0FE0EDBCF36F0CDD834C008F03F
:1035500035C009F036C00AF037C00BF042D0EDD8C4
:10356000FB0EDBCF04F0FC0EDBCF05F0F90EDB50D9
:10357000045C026EFA0EDB500558036E015003180E
:10358000E8AE02D0033401D0F1D807E2006A016A44
:10359000800E026E3F0E036E3CD0CFD855D901503D
:1035A0000318E8AE02D0033401D0E0D82EE2FB0EBF
:1035B000DBCF0AF0FC0EDBCF0BF0FD0EDB500A5C1C
:1035C000086EFE0EDB500B58096E08C035F0366EE3
:1035D0008AD834C00CF035C00DF036C00EF037C0BC
:1035E0000FF0FED804C034F005C035F006C036F048
:1035F00007C037F04EEC16F034C000F035C001F0D3
:1036000036C002F037C003F004D0006A016A026AD3
:10361000036AA3D803D1FD0EDBCFE9FFFE0EDBCF9B
:10362000EAFF1200F90EDBCF00F0FA0EDBCF01F05B
:103630000BD9D9CFE9FFDACFEAFFEECF08F0EECF12
:1036400009F0EECF0AF0EFCF0BF0396A3A6A040EB8
:103650003B6E420E3C6E08C034F009C035F00AC023
:1036600036F00BC037F04EEC16F0C3D8B9D8AFD84F
:10367000B8EC15F0040E34C0DBFF050E35C0DBFFDF
:10368000060E36C0DBFF070E37C0DBFF12000EEC64
:1036900017F035C000F036C001F0D9CFE9FFDACF1E
:1036A000EAFF3550EE260150ED221200E926000E09
:1036B000EA221200F70EDBCFE6FFF80EDBCFE6FFC3
:1036C000010EE66EE66AF90EDBCFE6FFFA0EDBCFFF
:1036D000E6FF010EE66EE66AFB0EDBCFE6FFFC0EB0
:1036E000DBCFE6FF120089EC15F083D8F90EDBCFB3
:1036F00035F0FA0EDBCF36F089EF15F063D8F30E14
:10370000DBCFE6FFF40EDBCFE6FFF50EDBCFE6FF07
:10371000F60EDBCFE6FF1200FD0EDBCFE6FFFE0E5E
:10372000DBCFE6FF4CDDF56E120EE15EF55076D094
:10373000E96EFF0EDA20EA6E1200FD0EDBCF00F01C
:10374000FE0EDBCF01F012000402F3CF02F0F4CF43
:1037500003F00502F3500326120000C033F001C04D
:1037600034F002C035F003C036F012000250005CA5
:103770000350015812000402F350032602C035F032
:1037800003C036F01200F90EDBCF02F0FA0EDBCFE9
:1037900003F01200020EDBCFEEFF030EDBCFEDFFD6
:1037A0001200D9CFE1FF3AD0EECF02F0EFCF03F015
:1037B0001200DECF00F0DDCF01F012002CDF0C0E86
:1037C00056EF1BF0D9CFE6FFE1CFD9FF120000C0C2
:1037D00034F001C035F002C036F003C037F01200FB
:1037E00034C039F035C03AF036C03BF037C03CF059
:1037F000120034C004F035C005F036C006F037C002
:1038000007F0120008DF100E56EF1BF004DF120E57
:1038100056EF1BF000DF0E0E56EF1BF0E552E7CF20
:10382000D9FF1200F8DE0C0EEB6A0D0EEB6A1200E7
:103830003DDFEECF06F0EFCF07F0120037DFEECF1F
:1038400008F0EFCF09F01200FB0EDBCF02F0FC0E08
:10385000DBCF03F012006CDFEE50ED101200DBCF77
:06386000EDFF0BEF1BF071
:0A3866000301820E406F380E416F1F
:103870006E0E426F390E436F760E446F3C0E456FED
:103880001200D9CFE6FFE1CFD9FF040EE1260301F4
:103890006B516C116BE00D0EE66EE66A66DAE9CFED
:1038A00000F0EACF01F0E9CFE6FFEACFE6FF3A0EFB
:1038B000E66E020EE66E66EC2CF0F56E060EE15E2C
:1038C000F5500201800E23153EE122C200F023C212
:1038D00001F08B0E3A6E180E3B6E22C235F023C2F9
:1038E00036F00EEC17F031C0DEFF32C0DDFFDECF68
:1038F00000F0DDCF01F00001800E011408E0D9CF07
:10390000E9FFDACFEAFF8B0EEE26180EED22020158
:103910004351DE5C006E4451DD58016E020E00C062
:10392000DBFF030E01C0DBFF020EDBCF00F0030E56
:10393000DBCF01F021DA220E2FDA0050EE5C436F6C
:103940000150EE58446F18DA340E26DAEF50345D29
:1039500008E0FA0E0301676F686BF40E696F010EE1
:103960006A6F0301656B666B6B6B6C6BF1D1D9CFC2
:10397000E6FFE1CFD9FF080EE126C5D9EECF10F062
:10398000EECF11F0EECF12F0EFCF13F010C239F0FE
:1039900011C23AF012C23BF013C23CF010C034F036
:1039A00011C035F012C036F013C037F0B7EC15F087
:1039B00034C00CF035C00DF036C00EF037C00FF03B
:1039C000A6D9EECF14F0EECF15F0EECF16F0EFCF74
:1039D00017F014C039F015C03AF016C03BF017C00C
:1039E0003CF0B8EC15F034C008F035C009F036C032
:1039F0000AF037C00BF014C239F015C23AF016C203
:103A00003BF017C23CF0B7EC15F085D936EC08F066
:103A1000E552E552F3CF04F0F4CF05F0F3CF35F0E3
:103A2000F4CF36F089EC15F0AED934C039F035C09A
:103A30003AF036C03BF037C03CF078D9B7EC15F01F
:103A400034C0DEFF35C0DEFF36C0DEFF37C0DDFF2D
:103A5000DD52DD5203016B516C1101E006D1F10E14
:103A6000006E550E016E026A00C0E6FFE66E02C0EF
:103A7000E6FF13EC2DF0E552E552E55276D9100E33
:103A80008BD942C2EFFF030168516619E8AE02D03C
:103A9000663504D06551675D6651685917E2675114
:103AA0006925006E68516A21016EE8506619E8AE1A
:103AB00002D0663504D06551005C6651015806E3BA
:103AC000FFD81A0E6527000E6623D1D0020145519A
:103AD000461139E0F40EE66E010EE66E45C2E6FFD1
:103AE00046C2E6FF65C3E6FF66C3E6FF94EC1AF044
:103AF000F56E060EE15EF55033C004F034C005F0FB
:103B000035C006F036C007F033C039F034C03AF0A3
:103B100035C03BF036C03CF03AC234F03BC235F021
:103B20003CC236F03DC237F0A1EC16F02CD91DD9BD
:103B30000C0E32D934C0EEFF11D917D9080E2CD98A
:103B400000C0EEFF0BD90201800E44150CE098D89E
:103B50000C0EBDD8B8EC15F0F2D892D8080EB7D834
:103B6000B7EC15F0ECD8396A3A6A3B6A3C6ADED8A1
:103B7000EBEC17F0010A5FE0F8D80C0EBAD8F5D8D4
:103B8000080EB7D8C4D8EECF02F0EECF03F0EECFD8
:103B900004F0EFCF05F002C034F003C035F004C0EC
:103BA00036F005C037F0BCEC17F035C000F036C079
:103BB00001F035C0E6FF36C0E6FFA5D8EECF08F02D
:103BC000EECF09F0EECF0AF0EFCF0BF008C034F0E3
:103BD00009C035F00AC036F00BC037F09CD8DF0EB4
:103BE0000C6E550E0D6E0E6A0CC0E6FFE66E0EC032
:103BF000E6FF13EC2DF0F56E070EE15EF550D9CF20
:103C0000E9FFDACFEAFFEECF00F0EECF01F0EECF22
:103C100002F0EFCF03F0396A3A6A3B6A3C6A00C0AF
:103C200034F001C035F002C036F003C037F0F2ECDA
:103C300017F0010A19E11A0E03016527000E662329
:103C400002014551461113E0030166510201461974
:103C5000E8AE02D0463507D045510301655D02014B
:103C600046510301665903E32BD8F36A02D0010ED3
:103C7000F36EF46A6DD0010E03016B6F6C6B120072
:103C80007BD81A0E89D8EECF08F0EFCF09F008C024
:103C900035F009C036F089EC15F034C004F035C0B9
:103CA00005F036C006F037C007F0396A3A6A200ED0
:103CB0003B6E410E3C6E4EEC16F065D8B5EF1EF033
:103CC00054D80C0E6DD851D8080ED0EF1EF064D821
:103CD000EECF34F0EECF35F0EECF36F0EFCF37F059
:103CE00000C039F001C03AF002C03BF003C03CF024
:103CF000120052D83AC2EEFF3BC2EEFF3CC2EEFFCA
:103D00003DC2EEFF120038D8100ECCEF1EF034D8B2
:103D1000140ECCEF1EF0BCEC17F035C006F036C028
:103D200007F035C0E6FF36C0E6FF12003EC234F0B1
:103D30003FC235F040C236F041C237F0120037C002
:103D4000EDFF36C0EDFF35C0EDFF34C0EFFF1200D0
:103D5000D9CFE1FFE552E7CFD9FF120001C0EEFF56
:103D600002C0EEFF03C0EEFF1200FB0EDBCFE9FF47
:103D7000FC0EDBCFEAFF1200FD0EDBCFE9FFFE0EEB
:103D8000DBCFEAFF120034C000F035C001F036C0CE
:103D900002F037C003F01200E926000EEA221200FA
:0C3DA000FBDFEE6AEE6AEE6AEE6A1200CB
:043DAC00D9CFE6FF86
:103DB000E1CFD9FF040EE126FD0EDBCFE6FFFE0EBC
:103DC000DBCFE6FF9DD8E552E55233C0DEFF34C0BD
:103DD000DEFF35C0DEFF36C0DDFFDD52DD52F4D937
:103DE000000E3718E8AE02D0373409D0000ED88064
:103DF0003454000E3554000E3654000E375449E347
:103E0000E3D9FD0E341808E1E868351805E1E868E3
:103E1000361802E1E868371828E0FE0E341808E189
:103E2000E868351805E1E868361802E1E8683718EF
:103E30002BE0E868341808E1E868351805E1E8681F
:103E4000361802E1E86837180CE034501DE13550AF
:103E50001BE1365019E1375017E1D50E006E550EB3
:103E600007D0C70E006E550E03D0BB0E006E550E68
:103E7000016E026A00C0E6FFE66E02C0E6FF13ECC8
:103E80002DF0E552E552E552336A346A356A366AF6
:103E900036D0D9CFE9FFDACFEAFFEECF04F0EECF8C
:103EA00005F0EECF06F0EFCF07F0090E386E396A55
:103EB0003A6A3B6A04C033F005C034F006C035F0FE
:103EC00007C036F09FEC2DF02FC004F030C005F095
:103ED00031C006F032C007F0006A870E016E930E03
:103EE000026E030E036E86D9366E2FC038F030C0D6
:103EF00039F031C03AF032C03BF034EC17F081D1E8
:103F0000D9CFE6FFE1CFD9FF140EE1260C0EDB6A14
:103F10000D0EDB6A0E0EDB6A0F0EDB6A100EDB6A1B
:103F2000110EDB6A120EDB6A130EDB6A70D9010E0A
:103F3000EE1819E1ED5017E1D40EDE6E020EDD6EC3
:103F4000D950020F3DD94E0EEE6E030EED6ED950D4
:103F5000040F36D9480EEE6E030EED6E6DD9E60EE7
:103F6000EE6E020E1CD053D9020EEE181AE1ED507F
:103F700018E1C40EDE6E020EDD6ED950020F20D99C
:103F80004C0EEE6E030EED6ED950040F19D9460E8D
:103F9000EE6E030EED6E50D9E40EEE6E020EED6E77
:103FA00002D03368ECD0020EDBCFE9FF030EDBCF8B
:103FB000EAFF15D9EECF00F0EFCF01F0010ED89057
:103FC00000360136E806FBE1DE500024E96EDD50E4
:103FD0000120EA6E02C0EEFF03C0EDFF080EDB6AAF
:103FE000090EDB6A080EDBCF00F0090EDBCF01F013
:103FF000D890015004E6080E005C000E015858E20B
:10400000C2D8EDD8EECF06F0EFCF07F0010ED89072
:1040100006360736E806FBE1DE500624E96EDD5081
:104020000720EA6EEE50025C006EEE500358016EFF
:104030000A0E00C0DBFF0B0E01C0DBFF0A0EDBCF58
:1040400000F00B0EDBCF01F0D880015004E7F10E39
:10405000005CFF0E015826E30A0EDBCF02F00B0EC8
:10406000DBCF03F0033404E202500F08000E0354C8
:1040700019E389D8D3D801AE02D002680368D950B9
:104080000C0F9ED80050EE260150EE220250EE2278
:104090000350EE22D950100F93D8EE2A000EEE22D4
:1040A000EE22EE22080EDB2A090E9CE3DB2A9AD7C9
:1040B000C3D8EECFF3FFEDCFF4FF020EEE26000ED5
:1040C000EF22F3CFE9FFF4CFEAFF6DD800500110E3
:1040D0000210031002E1FE0E51D00F0E006E016AB5
:1040E000026A036AD9500C0F6BD8EE500026EE50CE
:1040F0000122EE500222EE50032297D8EECF04F0B8
:10410000EFCF05F0066A076A03500718E8AE02D041
:10411000073408D00450005C05500158065002587E
:104120000750035806E281D879D864D803C036F026
:1041300029D0100EDBCF00F0110EDBCF01F0120EF4
:10414000DBCF02F0130EDBCF03F0005001100210A2
:10415000031013E028D84ED803C036F0100EDBCF82
:1041600038F0110EDBCF39F0120EDBCF3AF0130E20
:10417000DBCF3BF034EC17F005D0FD0E336E346826
:10418000356836683ED0080EDBCF04F0090EDBCF71
:1041900005F0D89004360536DE500424E96EDD5073
:1041A0000520EA6E12000C0EDBCF00F00D0EDBCF07
:1041B00001F00E0EDBCF02F00F0EDBCF03F012008A
:1041C000E96EDACFEAFF1200DECF34F0DECF35F051
:1041D000DECF36F0DDCF37F0DD52DD521200EECF0C
:1041E00002F0EFCF03F0060EDBCFE9FF070EDBCFC7
:1041F000EAFF120000C033F001C034F002C035F015
:104200001200D9CFE1FFE552E7CFD9FF1200D95014
:10421000FD0FE96EFF0EDA20EA6E1200EECF00F01D
:10422000EFCF01F0026A036A1200040EDBCFE9FF50
:10423000050EDBCFEAFF1200D950060FE0EF20F0A9
:10424000000EE96EEA6E04002DEC21F0EA2A080E59
:10425000EA5CD8A423EF21F01200EF6AE93E2DEFCB
:1042600021F01200FF0EE3CF21F021380F0B060FD3
:10427000D8B2070F2A0FAD6E20EC29F021500F0B9A
:10428000060FD8B2070F2A0FAD6E20EC29F0000CF4
:104290001200EACF1CF0E9CF1DF0FF0EE3CFEAFFDA
:1042A000FE0EE3CFE9FF87A741D0EECFA0F0EECF1F
:1042B000A1F0EECFA2F0EECFA3F0EECFA4F0EECFC0
:1042C000A5F0EECFA6F0EECFA7F0EECFA8F0EECFA0
:1042D000A9F0EECFAAF0EECFABF0EECFACF0EECF80
:1042E000ADF0EECFAEF0EECFAFF0EECFB0F0EECF60
:1042F000B1F0EECFB2F0EECFB3F0EECFB4F0EECF40
:10430000B5F0EECFB6F0EECFB7F0EECFB8F0EECF1F
:10431000B9F0EECFBAF0EECFBBF0EECFBCF0EECFFF
:10432000BDF0EECFBEF0EECFBFF040D0EECF80F0CC
:10433000EECF81F0EECF82F0EECF83F0EECF84F0BF
:10434000EECF85F0EECF86F0EECF87F0EECF88F09F
:10435000EECF89F0EECF8AF0EECF8BF0EECF8CF07F
:10436000EECF8DF0EECF8EF0EECF8FF0EECF90F05F
:10437000EECF91F0EECF92F0EECF93F0EECF94F03F
:10438000EECF95F0EECF96F0EECF97F0EECF98F01F
:10439000EECF99F0EECF9AF0EECF9BF0EECF9CF0FF
:1043A000EECF9DF0EECF9EF0EECF9FF01CC0EAFF67
:1043B0001DC0E9FF120087A11200EACF1CF0E9CF6F
:1043C0001DF0FF0EE3CFEAFFFE0EE3CFE9FF87A962
:1043D00041D0C0C0EEFFC1C0EEFFC2C0EEFFC3C0FF
:1043E000EEFFC4C0EEFFC5C0EEFFC6C0EEFFC7C003
:1043F000EEFFC8C0EEFFC9C0EEFFCAC0EEFFCBC0E3
:10440000EEFFCCC0EEFFCDC0EEFFCEC0EEFFCFC0C2
:10441000EEFFD0C0EEFFD1C0EEFFD2C0EEFFD3C0A2
:10442000EEFFD4C0EEFFD5C0EEFFD6C0EEFFD7C082
:10443000EEFFD8C0EEFFD9C0EEFFDAC0EEFFDBC062
:10444000EEFFDCC0EEFFDDC0EEFFDEC0EEFFDFC042
:10445000EEFF40D0E0C0EEFFE1C0EEFFE2C0EEFFB5
:10446000E3C0EEFFE4C0EEFFE5C0EEFFE6C0EEFF06
:10447000E7C0EEFFE8C0EEFFE9C0EEFFEAC0EEFFE6
:10448000EBC0EEFFECC0EEFFEDC0EEFFEEC0EEFFC6
:10449000EFC0EEFFF0C0EEFFF1C0EEFFF2C0EEFFA6
:1044A000F3C0EEFFF4C0EEFFF5C0EEFFF6C0EEFF86
:1044B000F7C0EEFFF8C0EEFFF9C0EEFFFAC0EEFF66
:1044C000FBC0EEFFFCC0EEFFFDC0EEFFFEC0EEFF46
:1044D000FFC0EEFF1CC0EAFF1DC0E9FF1200F2B4EE
:1044E00012002E500F0AD8B41200FF0EE3CF22F0B4
:1044F000FE0EE3CF23F0FD0EE3CF24F0FC0EE3CF5E
:1045000025F0222A2EA08D8E232A2EA28F80242AE7
:104510002EA48F86252A2EA68F88266A276A286AC7
:10452000296AC2EC22F0222E98EF22F02EA08D9E56
:10453000232E9DEF22F02EA28F90242EA2EF22F0A8
:104540002EA48F960000252EA8EF22F02EA68F987D
:104550000000262EADEF22F02A900000272EB2EFA9
:1045600022F02A920000282EB7EF22F02A940000B1
:10457000292EBCEF22F02A96E4EC22F02B3E93EF9A
:1045800022F01200D70E2B6E000000000000000089
:10459000DAEC22F02B2EC4EF22F0D70E2B6E0000A7
:1045A000000000000000DAEC22F02B2ECFEF22F00A
:1045B000000012000000DDEF22F00000000000000B
:1045C0000000000000001200030E2C6E00002C2ED4
:0645D000E6EF22F01200EC
:0A45D6007CD9E652C80E0201E86F1E
:1045E000E96B020EEC6F010EED6F040EEA6FEB6BE0
:1045F000DF6AEC51DF5C08E2DF5073D9EE6AEE6AE5
:10460000EE6AEE6ADF2AF5D7FA6BFB6BFC6B010EE4
:10461000C26EC16A860EC06E9F9C9E9C9D8CE8C235
:10462000E6FFE9C2E6FF0BD8E552E552E55255D167
:104630004FD9E65246D89D9CC26AE5524ED148D920
:10464000FD0EDBCF35F0FE0EDBCF36F0355002E14C
:10465000190E361828E0800E351802E10C0E3618B7
:104660001EE0400E351802E1060E361816E0200E48
:10467000351802E1030E36180EE0900E351802E1EF
:10468000010E361806E0C80E351811E136500FE15C
:104690000ED0520E09D0520E03D0510E05D0510E3D
:1046A000CA6E450E07D0500ECA6E8C0E03D06A0E2D
:1046B000CA6EDD0ECB6ECC6A9F929E929D82CA849A
:1046C0000CD19D92CA94120003D9020EE126FE0E6F
:1046D000DBCF00F00201EC51D88000540CE39D9C2C
:1046E000FE0EDB04E96EEA6A10D9EECFDEFFEDCFF5
:1046F000DDFF9D8C02D0DE6ADD6ADECF00F0DDCF0B
:1047000001F000C0F3FF01C0F4FFD9CFE1FFE5D015
:10471000DFD8FD0EDBCF00F0FE0EDBCF01F0026A2A
:10472000036A880E386E130E396E3A6A3B6A00C00F
:1047300033F001C034F002C035F003C036F09FEC16
:104740002DF02FC000F030C001F031C002F032C0B7
:1047500003F0386A080E396E3A6A3B6A2FC033F0AC
:1047600030C034F031C035F032C036F034EC17F0E0
:1047700033C000F034C001F035C002F036C003F0A1
:1047800033C0F3FF34C0F4FFA8D0A2D8E6529D9CFA
:10479000FFC2DFFF9D8CDF50E5529FD09D9C020140
:1047A000FF6B9D8C1200C282120092D8050EE1268A
:1047B000C450DE6EDD6AD9CFE9FFDACFEAFFEE50F2
:1047C000ED6EEF6AC350DE26000EDD22DECF00F074
:1047D000DDCF01F0026A036A0201FC5182D8005069
:1047E000EE260150EE220250EE220350EE22FC2B68
:1047F000EC51FC5D04E3FC6BFA2B000EFB23020E74
:10480000FCC2DBFFDB50040D020EF3CFDBFFDB80CD
:10481000DB50C26EEA51FA5DEB51FB594AE3030EDD
:10482000DB6A040EDB6A67D801AE02D0D89003D0F1
:10483000005C000E015820E23FD80201ED511F0B31
:10484000EECF00F0EECF01F0EECF02F0EECF03F0AE
:1048500007E0D8900332023201320032E806F9E173
:104860005CD853D800C0EEFF01C0EDFF030EDB2A79
:10487000040ED9E3DB2AD7D7030EDB6A040EDB6A0A
:104880003AD801AE02D0D89003D0005C000E015897
:104890000BE212D8EE6AEE6AEE6AEE6A030EDB2ACB
:1048A000040EEEE3DB2AECD70201FF2B0201FA6BC8
:1048B000FB6BD9CFE1FF11D030D8D890E936EA367A
:1048C000D890E936EA36EE0EE926020EEA22120008
:1048D000D9CFE6FFE1CFD9FF1200E552E7CFD9FFEC
:1048E0001200040DF3CFE9FFF4CFEAFFEE0EE92644
:1048F000020EEA221200030EDBCF00F0040EDBCF23
:1049000001F00201EC5100011200D890E936EA36BC
:10491000F60EE926020EEA221200030EDBCFE9FFB3
:08492000040EDBCFEAFF1200D8
:08492800D8CFE4FFE0CFE4FF6B
:10493000E46EDACFE4FFE2CFDAFFE9CFE4FFEACFBB
:10494000E4FFF3CFE4FFF4CFE4FF00EE2FF0140E0A
:10495000E80403E3EECFE4FFFBD700EE00F0180E0F
:10496000E80403E3EECFE4FFFBD7E652D9CFE6FF3E
:10497000E1CFD9FF020EE126F250040B07E0F2501E
:10498000200B04E0F294CBEC2BF0AFD09E50010B47
:1049900007E09D50010B04E09E90CCEC2BF0A5D0DD
:1049A0009E50020B07E09D50020B04E09E92D3EC58
:1049B00023F09BD0A150020B07E0A050020B04E0B3
:1049C000A192CDEC2BF091D0A450080B07E0A3509E
:1049D000080B04E0A496CEEC2BF087D0F050020B2D
:1049E00007E0F050100B04E0F092D5EC2BF07DD0F6
:1049F000F050040B07E0F050200B04E0F094E0ECE2
:104A00002BF073D0F250010B43E0F250080B40E062
:104A10008150DF6EF290DF500101FF19E76E010E49
:104A2000E7CFDBFFDFCFFFF1DBA80AD0100EDF14EA
:104A300002E0010E01D0000EE66EEBEC2BF0E55229
:104A4000010EDBAA0AD0200EDF1402E0010E01D015
:104A5000000EE66EECEC2BF0E552010EDBAC0AD05A
:104A6000400EDF1402E0010E01D0000EE66EEDEC08
:104A70002BF0E552010EDBAE38D0800EDF1402E0E1
:104A8000010E01D0000EE66EEEEC2BF0E5522DD0BB
:104A90009E50400B07E09D50400B04E09E9CD5ECDF
:104AA00023F023D09E50200B06E09D50200B03E006
:104AB0008CEC26F01AD0A450200B06E0A350200B5B
:104AC00003E0ABEC26F011D09E50100B06E09D5099
:104AD000100B03E0CAEC26F008D0A450100B05E040
:104AE000A350100B02E0E2EC26F0D9CFE1FFE55233
:104AF000E7CFD9FFE55200EE17F0180EE80403E304
:104B0000E5CFEDFFFBD700EE42F0140EE80403E31F
:104B1000E5CFEDFFFBD7E5CFF4FFE5CFF3FFE5CF22
:104B2000EAFFE5CFE9FFE5CFDAFFE550E5CFE0FFAB
:104B3000E5CFD8FF100002017F0E526F516F506F0A
:104B40004F6F4E6F4D6F4C6F4B6F5A6F596F586F61
:104B5000576F566F556F546F536F8C928D928C9028
:104B60008D908C968D968C948D948C9A8D9A8C9831
:104B70008D988C9E91908C9C8D9C020168AD16D076
:104B8000020187A1FAD7670EE66E020EE66EECEC24
:104B900012F0E552E552FBEC04F0470EE66E020E11
:104BA000E66E05EC13F0E552E552E7D7120012006D
:104BB000150EAF6EAC849D9A9D98AC98AC9E948E69
:104BC000AB9CAB96AB8AAB889F9A9D8A03018569A3
:104BD0008669949CAC9CAC969F989D88AC8AAB8E61
:104BE0001200150E6F6E6C84A39AA3986C986C9E3D
:104BF00098846B9C6B966B8A6B88A59AA38A030139
:104C00008569866998926C9C6C96A598A3886C8A35
:104C10006B8E120007D9E6529D9A20C3DFFF9D8A52
:104C2000DF50E552FBD0FED8E652A39A2CC3DFFF3B
:104C3000A38ADF50E552F2D0F5D8E65203011D51A8
:104C400002E0000E15D01E51EA6A000FE96E010E57
:104C5000EA22EFCFDFFF20071E2B1F0E1E179D9AA3
:104C60001F511E5D02E1010E1D6F9D8A1C6BDF50FE
:104C7000E552D4D0D7D8E6520301295102E0000E04
:104C800015D02A51EA6A400FE96E010EEA22EFCFF1
:104C9000DFFF2C072A2B1F0E2A17A39A2B512A5D00
:104CA00002E1010E296FA38A286BDF50E552B6D0CE
:104CB000B9D803012351FDE12651EA6A200FE96EBC
:104CC000010EEA22FE0EDBCFEFFF272B262B1F0E55
:104CD00026179D982651255D02E1010E236F9D88C0
:104CE000246B9CD09FD803012F51FDE13251EA6A19
:104CF000600FE96E010EEA22FE0EDBCFEFFF332BD1
:104D0000322B1F0E3217A3983251315D02E1010E92
:104D10002F6FA388306B82D003011C5102E09D9A53
:104D200012001F51EA6A000FE96E010EEA22AECFAF
:104D3000EFFFABA203D0AB98AB88212BABB4222BF7
:104D4000202B1F2B1F0E1F171F511E5D02E1010E8E
:104D50001C6F1D6B12000301285102E0A39A120080
:104D60002B51EA6A400FE96E010EEA226ECFEFFF87
:104D70006BA203D06B986B882D2B6BB42E2B2C2B36
:104D80002B2B1F0E2B172B512A5D02E1010E286FD2
:104D9000296B12000301245102E09D981200255155
:104DA000EA6A200FE96E010EEA22EF50AD6E270786
:104DB000252B1F0E25172651255D02E1010E246FBC
:104DC000236B12000301305102E0A398120031510D
:104DD000EA6A600FE96E010EEA22EF506D6E33074A
:104DE000312B1F0E31173251315D02E1010E306F50
:104DF0002F6B120017D803011B510FE01B0505E1B3
:104E0000FE0EDBCFE6FF54DF07D0020E1B5D05E18F
:104E1000FE0EDBCFE6FF66DFE55200D0E552E7CFBE
:0E4E2000D9FF1200D9CFE6FFE1CFD9FF120073
:024E2E0003017E
:104E30005A6B5B6B5C6B5D6B646B120058C333F039
:104E400059C334F0356A366A34AE02D035683668F4
:104E5000F0D8080EE9D833C000F034C001F0E80EF5
:104E60000102F3CF01F0030E0002F3500126E80E19
:104E70000002F3CF00F0F4500126E80E3A6E030E64
:104E80003B6EF3CF35F001C036F00EEC17F035C0B5
:104E9000F3FF36C0F4FF12005AC333F05BC334F0A3
:104EA0005CC335F05DC336F0C4D8C80EBDD8E80E7B
:104EB000386E030E396EABD8E80E386E030E14EF61
:104EC00028F00301645108E15E6B5F6B606B616BFE
:104ED000626B636B010E646F1200030164051EE1D7
:104EE00062C300F063C301F0026A036A5EC333F079
:104EF0005FC334F060C335F061C336F062C338F08D
:104F000063C339F002C03AF003C03BF070EC2EF0FE
:104F100033C056F334C057F30301646B120056C319
:104F2000F3FF57C3F4FF1200D9CFE6FFE1CFD9FF5B
:104F3000FD0EDBCF56F3FE0EDBCF57F3E552E7CF86
:104F4000D9FF120003015A6B5B6B5C6B5D6B120047
:104F5000D9CFE6FFE1CFD9FF020EE12603016405B8
:104F600012E1010EE66E64EC23F0E552F35003010A
:104F70005E270001F45003015F23000E60236123CC
:104F8000622B63233ED0010EE66E64EC23F0E55203
:104F900003015651F35C006E5751F45800C0DEFF18
:104FA000DD6EDECF00F0DDCF01F0D880015004E7E8
:104FB000F80E005CFF0E01580BE3DECF02F0DDCFF0
:104FC00003F003341CE202500808000E035417E2F9
:104FD000DECF58F3DDCF59F3DECF00F0DDCF01F0A7
:104FE000026A036A01AE02D00268036800505A27C1
:104FF00001505B2302505C2303505D2302D0586BA9
:10500000596BD9CFE1FFE552E7CFD9FF12003A6AD9
:105010003B6A9FEC2DF02FC033F030C034F031C02C
:1050200035F032C036F01200396E3A6A3B6A34EF1E
:1050300017F0740E386E050E396EE9DF050E386E06
:08504000396AE5DF386A12004D
:085048000301640E3A6F500EE3
:105050003B6FEC0E3C6F500E3D6FB40E3E6F510E29
:105060003F6F1200D9CFE6FFE1CFD9FF03017B519B
:105070007C1138E03A0EE66EE66AFD0EDBCFE6FF05
:10508000FE0EDBCFE6FF000EE66E0F0EB2D8070E67
:10509000E66EE66ACED8E9CF00F0EACF01F0E9CFBC
:1050A000E6FFEACFE6FF3A0EE66E0F0EA2D8810EBB
:1050B000E66EE6687F0E97D8000EE66EE66A870E0B
:1050C00092D8050E90D8410EE66E0F0EE66EDFEC1C
:1050D00018F0F56E120EE15EF5500301796B7A6BF4
:1050E0007B6B7C6BE552E7CFD9FF1200D9CFE6FF8F
:1050F000E1CFD9FF060EE12603017B517C114AE185
:10510000F40E006E540E016E026A00C0E6FFE66EF9
:1051100002C0E6FF13EC2DF0E552E552E55289D8C6
:10512000100EE926000EEA22EF6A6C0E0F013E5DBA
:1051300003E04C0E3E5D0BE16BD8000E62D834C02C
:1051400000F03DD8080E43D86AD80C0E40D8720E35
:105150000F013E5D03E0520E3E5D08E160D8080E8F
:1051600036D856D84ED82BD80C0E31D8630E0F0136
:105170003E5D12E003017A510F013D19E8AE02D005
:105180003D3507D03C510301795D0F013D510301CD
:105190007A5902E3F36A07D01A0E03017927000E49
:1051A0007A23010EF36EF46AD9CFE1FFE552E7CF1F
:1051B000D9FF1200010E03017B6F7C6B120035C01A
:1051C00001F036C002F037C003F019EF29F0E926EC
:1051D000000EEA2234C0EEFF01C0EEFF02C0EEFF77
:1051E00003C0EEFF1200E66EE66A010EE66EE66AA6
:1051F0001200E66E66EC2CF0F56E060EE15EF550E0
:105200001200052204C035F005C036F089EF15F014
:105210003ACF04F03BCF05F0046C051E12003ACFE4
:1052200035F03BCF36F089EC15F034C000F0DFEFFD
:1052300028F0FB0EDBCFE9FFFC0EDBCFEAFF12000C
:105240009EA8FED71200B4D8FE0EDBCFE6FF32ECEC
:1052500021F0E552A9D0ACD80301E150FD0F756FE4
:10526000FF0EDA20766F010EEA6A7525E96E765137
:10527000EA22A3D875C3E9FF76C3EAFF9ED894D08B
:1052800097D80301776B1A0E775D0DE2FD0EDBCF29
:10529000E9FFDB2AFE0EDBCFEAFF01E3DB2A8DD834
:1052A0000301772BF0D780D00301670E756F020ED4
:1052B000766F020167510301816F826B83518119FF
:1052C00002E18451821916E0020187B50ED083C332
:1052D000E6FF32EC21F0E55281C3E6FF32EC21F02B
:1052E000E5520D0EAD6EACDF0201879581C383F3ED
:1052F00082C384F30301832B000E8423843507E2E9
:105300008351FF08000E845502E2836B846B120008
:10531000150EE66E3C0EE66E3EEC2EF0E552E552C2
:10532000320EE66E1DEC2FF0E552120041D8FE0E53
:10533000DBCF78F348D03CD8020EE1260F0EE66EA4
:10534000FE0EDB507F0BFE0BFD0BE66EF10EE66EE4
:10535000D7EC2DF0E552E552E5520A0EE66E3BEC35
:105360002FF0E55258EC2FF007EC04F00009FCE1B7
:10537000B3EC2EF055EC2FF0C450026E036E026AAF
:10538000C35000010210006E03C001F0DE6E03C0C6
:10539000DDFFDECF00F0DDCF01F000C0F3FF01C084
:1053A000F4FFD9CFE1FF0FD00D0EAD6E49DF0BD06A
:1053B000D9CFE6FFE1CFD9FF1200EF50E66E32EC15
:0E53C00021F0E5521200E552E7CFD9FF1200AE
:0253CE00B18E9E
:1053D000B186B19CB19AB198B192A092A090A390DD
:1053E000A392A3941200D9CFE6FFE1CFD9FF080E14
:1053F000E126B190B36AB26ABA6AB76A736A706A30
:10540000FE0E69D8280E56D800C0DEFF01C0DDFFB1
:10541000FD0E61D8280E4ED8020E00C0DBFF030E31
:1054200001C0DBFFFC0E57D8320E44D8040E00C07A
:10543000DBFF050E01C0DBFFFB0E4DD8320E3AD864
:10544000060E00C0DBFF070E01C0DBFFDF50BB6EA6
:10545000DECF00F0DDCF01F001C000F0016A0050A6
:10546000BC6E020EDB50B86E020EDBCF00F0030EF6
:105470003AD8B96E040EDB50746E040EDBCF00F028
:10548000050E31D8756E060EDB50716E060EDBCF41
:1054900000F0070E28D8726EF29E090EBA6EB76E33
:1054A000736E706EB180F28ED9CFE1FFE552E7CF17
:1054B000D9FF1200356E366A02C03AF003C03BF0E5
:1054C00068EC17F033C000F034C001F0980E0026ED
:1054D0003A0E01221200DB50026E036A7F0E025E5A
:1054E000000E035A1200DBCF01F001C000F0016A88
:0454F0000050120056
:0C54F40052756E6E696E6720545F54554F
:10550000524E0D0A004C6F770D0A0043757272659A
:105510006E7420737465703A2025640D004E6578B2
:105520007420737465703A2025640D00636F6E7487
:10553000726F6C206F7574707574206D6F746F72FC
:10554000204C3D256420523D25640A0063616C6C4B
:10555000696E67206D636B65650D006175746F6EB4
:105560000A00446F6E650D000D43616C63756C61DC
:1055700074696E67204779726F20426961732E2EBD
:105580002E0025733230303720526F626F74202D19
:105590002D20546F6D202D2D20526561647920746B
:1055A0006F20726F6C6C21200A004779726F202B7C
:1055B00020456E636F646572730D00436F756E7482
:1055C000207A65726F0D00496C6C6567616C2073A1
:1055D0006964650D006D732030207774660D00706E
:1055E0006F734C3A20256409706F73523A2025641A
:1055F0000052756E6E696E6720545F535452414974
:065600004748540D0A00AA
:0A560600000205080B0E111316191F
:105610001B1E202325272A2C2E30333537393B3DBE
:105620003F41424446484A4B4D4E505253545657C0
:10563000595A5B5D5E5F6061636465666768696A4D
:105640006B6B6C6D6E6F7070717272737474757554
:1056500076767777787879797A7A7A7B7B7B7C7CB7
:105660007C7C7D7D7D7D7E7E7E7E7E7E7E7F7F7F5F
:105670007F7F7F7F7F7F7F7F7F7F7F7F7F7F7F7F3A
:105680007F7F7F7F7F7F8080808080808080808020
:10569000808080808080808080808080808080800A
:1056A00081818181818182828282828383838384DA
:1056B000848485858586868787888889898A8A8B78
:1056C0008B8C8D8D8E8F90909192939494959697CC
:1056D00098999A9B9C9E9FA0A1A2A4A5A6A8A9ABBD
:1056E000ACADAFB1B2B4B6B7B9BBBDBEC0C2C4C633
:1056F000C8CACCCFD1D3D5D8DADCDFE1E4E6E9EC17
:06570000EEF1F4F7FAFDE2
:0A5706009384F09EF198F092F08871
:105710009386F192F196F094F08A9388938A938C11
:10572000938EF19081CFFFF1F290F2961200D66A3B
:10573000D76AD590D592D594D586D598D59AD59C4B
:10574000F194F294F29AD59E1200CE6ACF6ACD9867
:10575000CD9ACD96CD92CD8E9F909E909D90CD90DE
:105760001200B26AB36AB198B19AB192B184B18EA3
:10577000A292A192A092B1901200786AF90E776E6F
:1057800076867698769A768C76807692A596A4968A
:10579000A386768412001200120012000301462B29
:1057A000000E4723482B4923120048C34EF349C338
:1057B0004FF30301486B496B542B000E5523120025
:1057C00046C34CF347C34DF30301466B476B522B63
:1057D000000E5323120003D002D001D000D0D9CF45
:0A57E000E6FFE552E7CFD9FF120003
:0657EA000301060E346FFE
:1057F000580E356F4C0E366F580E376F940E386F4B
:10580000580E396F120052D81DE03A0EE66EE66A65
:10581000FD0EDBCFE6FFFE0EDBCFE6FF880EE66E69
:10582000020EE66E66EC2CF0F56E060EE15EF550AB
:1058300036D8EECFC2F2EDCFC3F203017D6B7E6BA3
:105840007F6B806BE552E7CFD9FF12002FD819E1AB
:1058500026D80C0E33D823D8080E30D81A0E7D2740
:10586000000E7E237E510201C319E8AE02D0C3357B
:1058700007D0C25103017D5D0201C35103017E596E
:1058800002E3F36A02D0010EF36EF46AE552E7CF49
:10589000D9FF1200010E03017F6F806B1200FB0E17
:1058A000DBCFE9FFFC0EDBCFEAFF1200D9CFE6FF2A
:1058B000E1CFD9FF03017F5180111200E926000ECC
:0C58C000EA22EE6AEE6AEE6AEE6A12005E
:0458CC00D9CFE6FF4B
:1058D000DACFE6FFFA0EE3CFD9FFFB0EE3CFDAFF14
:1058E000FC0EE3CFE9FFFD0EE3CFEAFFE9CFF3FFC4
:1058F000EACFF4FFF80EE35003E1F90EE35008E0BD
:10590000F80EE30602E2F90EE306DECFEEFFF2D771
:10591000FF0EE3CFDAFFE552FF0EE3CFD9FFE552EA
:105920001200FE0EE3CFE9FFFF0EE3CFEAFFF36ABA
:10593000F46AEE5203E0F34AF42AFBD71200FF0E9A
:10594000E3CFF8FFE552FF0EE3CFF7FFE552FF0E7E
:10595000E3CFF6FFE552E66AE66AE66A0900F55229
:1059600009E0FD0EE32A05E1FE0EE32A02E1FF0E47
:10597000E32AF4D7FD0EE3CF34F0FE0EE3CF35F08B
:08598000FF0EE3CF36F0120028
:085988001E0EF66E080EF76E0C
:10599000000EF86E0F010900F5505A6F0900F5501E
:1059A0005B6F03E15A6701D03DD00900F550556F98
:1059B0000900F550566F0900F550576F09000900AE
:1059C000F550E96E0900F550EA6E0900090009007A
:1059D000F550586F0900F550596F09000900F6CFCE
:1059E0005CFFF7CF5DFFF8CF5EFF55CFF6FF56CFD8
:1059F000F7FF57CFF8FF0F01585302E1595307E063
:105A00000900F550EE6E5807F8E25907F9D75CCF58
:105A1000F6FF5DCFF7FF5ECFF8FF0F015A07000ECC
:065A20005B5BBFD7120022
:0A5A2600D9CFE6FFDACFE6FFE1CFAB
:105A3000D9FFE2CFDAFFE652E652E652E652D950FB
:105A4000FB0F006EFF0EDA20016E00C0DEFFDD6E80
:105A5000DECFE6FFDDCFE6FFFB0EDBCFE6FFFC0E81
:105A6000DBCFE6FFFD0EDBCFE6FF85C3E6FF86C397
:105A7000E6FFE0EC0BF0F56E070EE15C02E2E16A96
:105A8000E552E16EF550020EF3CFDBFF030EF4CFCB
:105A9000DBFF020EDBCF00F0030EDBCF01F000C016
:105AA000F3FF01C0F4FFD9CFE1FFDACFE2FFE55207
:0A5AB000E5CFDAFFE7CFD9FF1200BF
:065ABA00D9CFE6FFDACFB0
:105AC000E6FFE1CFD9FFE2CFDAFFFB0EDBCF00F03C
:105AD000FC0EDBCF01F00001800E01141AE1FB0E79
:105AE000DBCFE9FFFC0EDBCFEAFFEECFF3FFEDCF1C
:105AF000F4FFEE2A000EEF22F3CFE9FFF4CFEAFF26
:105B0000FD0EDBCFEFFFEF50016AF36E01C0F4FF33
:105B100010D0FB0EDB50FE0806E1FD0EDBCFE6FFEA
:105B20002DEC2FF005D0FD0EDBCFE6FFFAEC26F0D2
:0E5B3000E552E552E5CFDAFFE7CFD9FF1200CC
:025B3E003350E2
:105B40003802F3CF2FF0F4CF30F03902F350302683
:105B5000000EF420316E33503A02F3503126000E1D
:105B6000F420326E33503B02F35032263450380268
:105B7000F3503026F4503122000E322234503902D4
:105B8000F3503126F450322234503A02F350322688
:105B900035503802F3503126F45032223550390254
:0E5BA000F350322636503802F35032261200EF
:025BAE00D9CF4D
:105BB000E6FFDACFE6FFE1CFD9FFE2CFDAFFC26A34
:105BC000C16AC06AFC0EDB407F0B3C0BC26EFB0E51
:105BD000DB50C16EFC0EDB38F00B300BC112FD0E3A
:105BE000DB50800BC06EFD0EDB380F0B070BC012B5
:105BF000FD0EDB50040DF350380BC012FC0EDBAE73
:105C000003D09E9C9D8CF28CC280E552E5CFDAFFDA
:065C1000E7CFD9FF1200EE
:0A5C1600D9CFE6FFDACFE6FFE1CFB9
:105C2000D9FFE2CFDAFF3F0EC716C66AFD0EDB5082
:105C3000C612FB0EDB50C712FC0EDB50030A09E054
:105C4000010A04E0020A06E1C78C04D0C78CC688AA
:105C500001D0C688FD0EDB50050A03E0010A04E10D
:105C6000978E9486C79E01D09496949A9488C68AFB
:0C5C7000E552E5CFDAFFE7CFD9FF1200C4
:045C7C00D9CFE6FF97
:105C8000DACFE6FFE1CFD9FFE2CFDAFFAC6AAB6A49
:105C9000FD0EDBB0AC88DBA202D0AC8CAB8CDBB4ED
:105CA000AC8EDBA602D0AB8801D0AB8ADBA802D0D9
:105CB000AC8401D0AC94DBAC02D09D8A01D09D9A1B
:105CC000DBAE02D09D8801D09D98FC0EDB50AF6EFC
:105CD000AC8AAB8EE552E5CFDAFFE7CFD9FF1200F1
:105CE000326A316A306A2F6A200EE76ED8903336F6
:105CF0003436353636362F36303631363236385041
:105D00002F5C395030583A5031583B50325809E3E3
:105D100038502F5E3950305A3A50315A3B50325A2F
:085D2000332AE72EE4D712003C
:085D2800D9CFE6FFE1CFD9FF5E
:105D3000E150FC0FE96EFF0EDA20EA6E010EEE185C
:105D40000CE1ED500AE1FE0EDB50F76A060FF66E2D
:105D5000560EF7220800F55002D0FE0EDB50E55239
:065D6000E7CFD9FF12009D
:0A5D6600D9CFE6FFDACFE6FFE1CF68
:105D7000D9FFE2CFDAFFE652E652C350DF6E010EE2
:105D8000C4CFDBFFDECF00F0DDCF01F000C0F3FFBA
:105D900001C0F4FFE552E552E552E5CFDAFFE7CF67
:045DA000D9FF120015
:0C5DA400326A316A100EE76ED890353676
:105DB0003636313632363A50315C3B50325805E394
:105DC0003A50315E3B50325A352AE72EF0D7120056
:105DD00043EC12F052EC04F002018791020187A11A
:105DE00007D0B2EC04F0020168AD02D09BEC25F0C4
:065DF000D7EC25F0F3D70B
:0A5DF600F36AF46AFF0EE124E96E7F
:105E0000FF0EE220EA6EED6607D02F0EEF6404D09D
:0A5E10003A0EEF6001D0F32A1200F1
:065E1A001EEE00F02EEE6A
:105E200000F0F86A3E9CA68EA69C20EC21F0C4EC03
:0A5E30002CF0E8EC2EF0F9D7120078
:065E3A00FF0EE350436E71
:105E4000480E01D04C0EE76EE72EFED7E76AE72E2C
:0A5E5000FED7432EF7D70000120022
:065E5A00FF0EE350ACBA9C
:105E600004D0AF6AAB8EAC8A949CACA2FED7AD6E68
:065E7000F36EF46A12005B
:0A5E7600FF0EE350E84E120000009A
:0C5E800000D000D000D0E82EFAD71200AD
:045E8C00303132334C
:0D5E90003435363738396162636465660069
:015E9D00FF05
:025E9E0033ECE3
:0A5EA0001CF0F5EC2BF024EF28F0C5
:065EAA00C2909D9C120055
:045EB000C282120098
:0C5EB4002C010000000001FFFF000000B6
:0F5EC00000000000000000000000000000FFFFD5
:015ECF0000D2
:035ED000000100CE
:085ED3000000000000000100C6
:045EDB0000000100C2
:015EDF0000C2
:105EE00000010000000000000100000000010000AF
:085EF0000000000001000000A9
:085EF8000000000000000000A2
:085F0000000000000000000099
:045F08000000000095
:045F0C000000000091
:045F1000000000008D
:015F1400008C
:020000040030CA
:0E000000FF36F6FEFFFF8BFFFFBFFF9FFFBF27
:00000001FF
