:020000040000FA
:0608000083EF12F012006C
:02080600FEFFF3
:0608080028EF04F01200CD
:02080E00C250D6
:08081000020B01E0010E1200D1
:0608180039EF10F01200A0
:02081E000400D4
:1008200082250000F5010000040000006925000099
:10083000C10100001900000006080000FE010000D0
:100840000200000066250000F9010000030000001E
:10085000D8CFE4FFE0CFE4FFE46EDACFE4FFE2CFED
:10086000DAFFE9CFE4FFEACFE4FFE652F2A202D0DA
:10087000A5D802D09EB6D1D8E552E5CFEAFFE5CFA4
:10088000E9FFE5CFDAFFE550E5CFE0FFE5CFD8FFA0
:100890001000E66A010EE66E050EE66EECEC11F055
:1008A000E552E552E5521200070EB46E000E886E56
:1008B000876E866E856E846E836E826E816E806EAC
:1008C000916E906E8F6E8E6E8D6E8C6E8B6E8A6E4C
:1008D000896E2F0E926E93689C0E946E956A966A3E
:1008E0009768040E986E0E0E9A6E9968C16AF19E12
:1008F000B0989C8EA26A9F6AA06A9D6AA36AA56A44
:10090000C8DF9F86D08E9E969D869382F06AF2887D
:10091000F09EF098F192F09AF16AF28CF28E120049
:10092000D9CFE6FFE1CFD9FFE652BEDF0101C09784
:10093000C0990101840EE56F010EE66FDF6A100EAB
:10094000DF5C0AE2DF50EA6AE525E96EE651EA2259
:100950007F0EEF6EDF2AF3D701019D6B010E9E6FB4
:10096000C20E9F6F0101C0850101A26BA36B010143
:10097000806B826B836B010ED56E320ED76ECF0EFD
:10098000D66ED59E800EE66E010EE66E8BD8E552D1
:10099000E5520101C093800EE66E010EE66E82D82C
:1009A000E552E5520101C093E552E552E7CFD9FF88
:1009B000120082828088949292981200F292010131
:1009C000200EE16F9F860101C0A906D00101E00E53
:1009D000DE6F000EDF6F05D00101C00EDE6F000E6E
:1009E000DF6F0101C0A1C079C0A706D00101800E50
:1009F000DC6F000EDD6F05D00101A00EDC6F000E74
:100A0000DD6FC9CFE2F1DCC1E9FFDDC1EAFFDC2B1C
:100A1000000EDD23EF50C96E12009E96C9CFE2F1A1
:100A20000101E151000823E2DEC1E9FFDFC1EAFF75
:100A3000DE2B000EDF23E2C1EFFFDCC1E9FFDDC1E9
:100A4000EAFFDC2BDD23EFCFE2F1E2C1C9FFE107D2
:100A5000E1510CE10101020E9E6F0101C093C081C2
:100A6000320ED76ECF0ED66EF294D58E01D0C96AF3
:100A70001200D9CFE6FFE1CFD9FF0101C0A10ED00E
:100A8000FD0EDBCFE6FFFE0EDBCFE6FF78EC0BF0D2
:100A9000E552E5529D960101C0919D86E552E7CF52
:100AA000D9FF1200D9CFE6FFE1CFD9FF0101C0B3D2
:100AB00032D0FD0EDBCFE9FFFE0EDBCFEAFF1E0ECC
:100AC000E926000EEA22EF50020809E1FD0EDBCF15
:100AD000E6FFFE0EDBCFE6FF69D8E552E552FD0EDC
:100AE000DBCFE9FFFE0EDBCFEAFF150EE926000E95
:100AF000EA22EF9EFD0EDBCFE6FFFE0EDBCFE6FF28
:100B0000E6EC0AF0E552E5529D960101C077C083FC
:100B10009D8601019D2BE552E7CFD9FF12009D96DE
:100B20000101C0919D861200D9CFE6FFE1CFD9FF28
:100B30000001166BD950FD0FE96EFF0EDA20EA6E48
:100B4000010EEE1801E1ED5002E1168101D0BA6A02
:100B5000D950FB0FE96EFF0EDA20EA6E010EEE1897
:100B600001E1ED5002E1168301D0B76AD950F90FC7
:100B7000E96EFF0EDA20EA6E010EEE1801E1ED508B
:100B800002E1168501D0736AD950F70FE96EFF0EA6
:100B9000DA20EA6E010EEE1801E1ED5002E116874F
:100BA00001D0706AE552E7CFD9FF1200D9CFE6FF36
:100BB000E1CFD9FFFD0EDBCFE9FFFE0EDBCFEAFF71
:100BC0001C0EE926000EEA22EF6AFD0EDBCFE9FFDC
:100BD000FE0EDBCFEAFF170EE926000EEA22EF6ACF
:100BE000C6AE0ED0C69EFD0EDBCFE9FFFE0EDBCFFC
:100BF000EAFF170EE926000EEA22010EEF6E22D060
:100C0000F150800B10E0F250080B0DE0FD0EDBCF31
:100C1000E9FFFE0EDBCFEAFF170EE926000EEA22FF
:100C2000020EEF6E0FD0F0A60DD0909EFD0EDBCF22
:100C3000E9FFFE0EDBCFEAFF170EE926000EEA22DF
:100C4000030EEF6E250EC614250819E0FD0EDBCF4E
:100C5000E9FFFE0EDBCFEAFF1C0EE926000EEA22BA
:100C6000010EEF6EFD0EDBCFE9FFFE0EDBCFEAFFDC
:100C7000170EE926000EEA22C6CFEFFF80D1C5503D
:100C800019E0FD0EDBCFE9FFFE0EDBCFEAFF1C0E05
:100C9000E926000EEA22020EEF6EFD0EDBCFE9FF21
:100CA000FE0EDBCFEAFF170EE926000EEA22C5CFC3
:100CB000EFFF65D1D0BE19D0FD0EDBCFE9FFFE0EF0
:100CC000DBCFEAFF1C0EE926000EEA22030EEF6ED0
:100CD000FD0EDBCFE9FFFE0EDBCFEAFF170EE926A4
:100CE000000EEA22D0CFEFFF4AD19DB619D0FD0EFB
:100CF000DBCFE9FFFE0EDBCFEAFF1C0EE926000E7C
:100D0000EA22040EEF6EFD0EDBCFE9FFFE0EDBCF15
:100D1000EAFF170EE926000EEA229DCFEFFF2FD142
:100D20009C5019E0FD0EDBCFE9FFFE0EDBCFEAFFA2
:100D30001C0EE926000EEA22050EEF6EFD0EDBCF3B
:100D4000E9FFFE0EDBCFEAFF170EE926000EEA22CE
:100D50009CCFEFFF14D1080E9F5C19E0FD0EDBCF96
:100D6000E9FFFE0EDBCFEAFF1C0EE926000EEA22A9
:100D7000060EEF6EFD0EDBCFE9FFFE0EDBCFEAFFC6
:100D8000170EE926000EEA229FCFEFFFF8D0A250FF
:100D900019E0FD0EDBCFE9FFFE0EDBCFEAFF1C0EF4
:100DA000E926000EEA22070EEF6EFD0EDBCFE9FF0B
:100DB000FE0EDBCFEAFF170EE926000EEA22A2CFD5
:100DC000EFFFDDD0A55019E0FD0EDBCFE9FFFE0EF1
:100DD000DBCFEAFF1C0EE926000EEA22080EEF6EBA
:100DE000FD0EDBCFE9FFFE0EDBCFEAFF170EE92693
:100DF000000EEA22A5CFEFFFC2D0100EF2141008A9
:100E000019E0FD0EDBCFE9FFFE0EDBCFEAFF1C0E83
:100E1000E926000EEA22090EEF6EFD0EDBCFE9FF98
:100E2000FE0EDBCFEAFF170EE926000EEA22F2CF14
:100E3000EFFFA5D0470EF11419E0FD0EDBCFE9FF5F
:100E4000FE0EDBCFEAFF1C0EE926000EEA220A0E98
:100E5000EF6EFD0EDBCFE9FFFE0EDBCFEAFF170ED4
:100E6000E926000EEA22F1CFEFFF89D0C00EF01480
:100E700019E0FD0EDBCFE9FFFE0EDBCFEAFF1C0E13
:100E8000E926000EEA220B0EEF6EFD0EDBCFE9FF26
:100E9000FE0EDBCFEAFF170EE926000EEA22F0CFA6
:100EA000EFFF6DD092A819D0FD0EDBCFE9FFFE0E4B
:100EB000DBCFEAFF1C0EE926000EEA220C0EEF6ED5
:100EC000FD0EDBCFE9FFFE0EDBCFEAFF170EE926B2
:100ED000000EEA2292CFEFFF52D093B019D0FD0E50
:100EE000DBCFE9FFFE0EDBCFEAFF1C0EE926000E8A
:100EF000EA220D0EEF6EFD0EDBCFE9FFFE0EDBCF1B
:100F0000EAFF170EE926000EEA2293CFEFFF37D053
:100F10003E0E94141C0819E0FD0EDBCFE9FFFE0E17
:100F2000DBCFEAFF1C0EE926000EEA220E0EEF6E62
:100F3000FD0EDBCFE9FFFE0EDBCFEAFF170EE92641
:100F4000000EEA2294CFEFFF1AD097BE18D0FD0E04
:100F5000DBCFE9FFFE0EDBCFEAFF1C0EE926000E19
:100F6000EA220F0EEF6EFD0EDBCFE9FFFE0EDBCFA8
:100F7000EAFF170EE926000EEA2297CFEFFFE552AF
:060F8000E7CFD9FF1200CB
:0A0F8600D0DAFE0EDB5007E1B4DA0A
:100F9000EF507F0803E2B0DA7F0EEF6ECAD2C4DAF8
:100FA000FE0EDB5009E1A8DAEFCF2BF07F0E2B5CB1
:100FB00003E2A2DA7F0EEF6EBCD2B6DAC6DAD890C0
:100FC0002C5004E6D00E2B5C070E2C5805E20101D4
:100FD000D00EFC6F070E0CD0B8DA2C340BE22B507D
:100FE000CE08080E2C5406E20101CE0EFC6F080E4E
:100FF000FD6F06D0FD0EDBCFFCF1FE0EDBCFFDF169
:10100000FCC12BF0FDC12CF0D00E2B5E070E2C5A2C
:101010002B508FD2F00EE66EE8EC0FF0E552938A7B
:1010200093889386938499829980938E938C9A84E3
:101030009A82998699849A8A9A8894809A869A8EB6
:101040009A9C919C01017F0E8B6F8A6F896F886FCC
:10105000876F866F856F846F936F926F916F906FBC
:101060008F6F8E6F8D6F8C6F010EE66EE66AE66E87
:10107000E66AE66EE66AE66EE66A94EC05F0F56E00
:10108000080EE15EF550DEEC10F033EC0EF04CECA7
:101090000EF039DAD9EF04F047DA020EE126A00E9D
:1010A000E66E010EE66E39EC05F0E552E552A6C19A
:1010B00084F193C1E6FF92C1E6FF91C1E6FF90C1C2
:1010C000E6FFEAEC10F0E552E552E552E5521BDA94
:1010D000D9CFE1FF2ED2A6C186F1A6C184F1A7C166
:1010E00087F1A7C185F10101A65127DA2BC0AAF12A
:1010F0000101885122DA2BC0A6F101012B502CDA14
:1011000000012D242B6E000E2E202C6E7F0E2B5EE8
:10111000000E2C5A01DA0101916F906F0101A65166
:101120001BDA2F6E306A2F502D5C2B6E30502E58EC
:101130002C6E7F0E2B26000E2C22EED90101936F10
:10114000926F8150040B01E0010E2B6E0101A25140
:10115000010B2B14010BF36EFE0E8D14F3108D6E2C
:101160008150080B01E0010E2B6EA251020B01E031
:10117000010E2B14010BF36EFE0E8C14F3108C6E0B
:101180008150100B01E0010E2B6EA351010B2B14AB
:10119000EAD98D14F3108D6E8150200B01E0010E01
:1011A0002B6EA351020B01E0010E2B14DCD98C1421
:1011B000F3108C6EA251100B02E08D8401D08D943F
:1011C000A251200B02E08C8401D08C94A351100B0F
:1011D00002E08D8601D08D96A351200B02E08C8613
:1011E00001D08C96A251040B02E08D8801D08D981D
:1011F000A251080B02E08C8801D08C98A251400BC0
:1012000002E08D8A01D08D9AA251800B02E08C8A77
:1012100001D08C9AA351400B02E08D8C01D08D9CA3
:10122000A351800B02E08C8C01D08C9C8850800BE9
:1012300002E0919001D091808C9E860EE66E010EA8
:10124000E66E8150400B01E0010E4AD9860EE66E33
:10125000010EE66E8150800B01E0010E47D9870E2A
:10126000E66E010EE66E8750010B3AD9870EE66EE8
:10127000010EE66E8750020B01E0010E37D98C0E8D
:10128000E66E010EE66E8750040B01E0010E28D9D0
:101290008C0EE66E010EE66E8750080B01E0010E23
:1012A00025D98D0EE66E010EE66E8850020B01E028
:1012B000010E16D98D0EE66E010EE66E8850040BF7
:1012C00001E0010E13D98E0EE66E010EE66E885017
:1012D000080B01E0010E04D98E0EE66E010EE66EDB
:1012E0008250010B03D98F0EE66E010EE66E885018
:1012F000100B01E0010EF4D88F0EE66E010EE66EC3
:101300008850200B01E0010EF1D80101A1BBADD046
:10131000000EA65D06E3A651380803E301018091A3
:101320000FD07D0EA65D0EE3A6512B6E2C6A2C34D9
:1013300004E22B508108000E2C5404E3010180814B
:1013400080831BD0A6512B6E2C6AD8902C5004E6BB
:10135000D80E2B5C000E2C580DE3A6512D6E2E6A74
:101360002E3404E22D50FF08000E2E5403E3010139
:10137000808102D0010180918093000E0101A75D60
:1013800006E3A751380803E3010180950FD07D0ED5
:10139000A75D0EE3A7512B6E2C6A2C3404E22B5070
:1013A0008108000E2C5404E30101808580871BD046
:1013B000A7512B6E2C6AD8902C5004E6D80E2B5CCB
:1013C000000E2C580DE3A7512D6E2E6A2E3404E228
:1013D0002D50FF08000E2E5403E30101808502D03A
:1013E000010180958097809B8D50010B01E0808BDF
:1013F00080998C50010B01E08089809F8D50020BF9
:1014000001E0808F809D8C50020B01E0808D815027
:10141000040B01E0010EACD802E0000E01D0010E79
:10142000010BF36EFE0E8115F310816F8150080BD6
:1014300001E0010E9DD802E0000E01D0010E93D80C
:101440008115F310816F8150100B01E0010E90D8CF
:1014500002E0000E01D0010E010BF36EF346F346DD
:10146000FB0E8115F310816F1200B7C11EF088ECDE
:101470000CF01CC033F01DC034F01EC035F01FC08E
:1014800036F0710E216E3D0E226E7A0E236E410EE5
:10149000246EECEC0CF01CC02FF01DC030F01EC010
:1014A00031F01FC032F0216A226A800E236E430E93
:1014B000246E99EC0CF01CC02BF01DC02CF01EC04B
:1014C0002DF01FC02EF0216A226A200E236E410EDD
:1014D000246EECEC0CF086EC0DF01EC080F11200D6
:1014E000E66E51DDE552E552E5521200E66E57DD3B
:1014F000E552E552E5521200FC0EDBCFE9FFFD0E8E
:10150000DBCFEAFF1200800EE66E010EE66E52ECB3
:1015100005F0E552E55212002BC0E6FF2CC0E6FFB5
:101520004CDDE552E5521200D9CFE6FFE1CFD9FFFD
:101530001200E552E7CFD9FF12002B6E2C6AFF0E86
:10154000D8802B56000E2C561200FD0EDBCF2BF050
:10155000FE0EDBCF2CF012002E6AD00F2D6E070E80
:101560002E22AA511200010BF36EF346FD0E12005B
:0A1570002B6E2C6AE8502C101200BC
:06157A00000EE96EEA6EAE
:101580000400CAEC0AF0EA2A080EEA5CD8A4C0EF0C
:101590000AF01200EF6AE93ECAEF0AF01200FF0EED
:1015A000E3CF09F009380F0B060FD8B2070F2A0F47
:1015B000AD6E72EC0FF009500F0B060FD8B2070F8B
:1015C0002A0FAD6E72EC0FF0000C1200EACF04F09F
:1015D000E9CF05F0FF0EE3CFEAFFFE0EE3CFE9FF10
:1015E000C0A741D0EECFA0F0EECFA1F0EECFA2F099
:1015F000EECFA3F0EECFA4F0EECFA5F0EECFA6F0A5
:10160000EECFA7F0EECFA8F0EECFA9F0EECFAAF084
:10161000EECFABF0EECFACF0EECFADF0EECFAEF064
:10162000EECFAFF0EECFB0F0EECFB1F0EECFB2F044
:10163000EECFB3F0EECFB4F0EECFB5F0EECFB6F024
:10164000EECFB7F0EECFB8F0EECFB9F0EECFBAF004
:10165000EECFBBF0EECFBCF0EECFBDF0EECFBEF0E4
:10166000EECFBFF040D0EECF80F0EECF81F0EECFE6
:1016700082F0EECF83F0EECF84F0EECF85F0EECFA8
:1016800086F0EECF87F0EECF88F0EECF89F0EECF88
:101690008AF0EECF8BF0EECF8CF0EECF8DF0EECF68
:1016A0008EF0EECF8FF0EECF90F0EECF91F0EECF48
:1016B00092F0EECF93F0EECF94F0EECF95F0EECF28
:1016C00096F0EECF97F0EECF98F0EECF99F0EECF08
:1016D0009AF0EECF9BF0EECF9CF0EECF9DF0EECFE8
:1016E0009EF0EECF9FF004C0EAFF05C0E9FF1200B4
:1016F000C0A11200EACF04F0E9CF05F0FF0EE3CF5E
:10170000EAFFFE0EE3CFE9FFC0A941D0C0C0EEFF63
:10171000C1C0EEFFC2C0EEFFC3C0EEFFC4C0EEFF0B
:10172000C5C0EEFFC6C0EEFFC7C0EEFFC8C0EEFFEB
:10173000C9C0EEFFCAC0EEFFCBC0EEFFCCC0EEFFCB
:10174000CDC0EEFFCEC0EEFFCFC0EEFFD0C0EEFFAB
:10175000D1C0EEFFD2C0EEFFD3C0EEFFD4C0EEFF8B
:10176000D5C0EEFFD6C0EEFFD7C0EEFFD8C0EEFF6B
:10177000D9C0EEFFDAC0EEFFDBC0EEFFDCC0EEFF4B
:10178000DDC0EEFFDEC0EEFFDFC0EEFF40D0E0C008
:10179000EEFFE1C0EEFFE2C0EEFFE3C0EEFFE4C00B
:1017A000EEFFE5C0EEFFE6C0EEFFE7C0EEFFE8C0EB
:1017B000EEFFE9C0EEFFEAC0EEFFEBC0EEFFECC0CB
:1017C000EEFFEDC0EEFFEEC0EEFFEFC0EEFFF0C0AB
:1017D000EEFFF1C0EEFFF2C0EEFFF3C0EEFFF4C08B
:1017E000EEFFF5C0EEFFF6C0EEFFF7C0EEFFF8C06B
:1017F000EEFFF9C0EEFFFAC0EEFFFBC0EEFFFCC04B
:10180000EEFFFDC0EEFFFEC0EEFFFFC0EEFF04C026
:10181000EAFF05C0E9FF1200F2B4120016500F0AE9
:10182000D8B41200FF0EE3CF0AF0FE0EE3CF0BF0A8
:10183000FD0EE3CF0CF0FC0EE3CF0DF00A2A16A04C
:101840008D8E0B2A16A28F800C2A16A48F860D2A45
:1018500016A68F880E6A0F6A106A116A5FEC0CF088
:101860000A2E35EF0CF016A08D9E0B2E3AEF0CF0E1
:1018700016A28F900C2E3FEF0CF016A48F9600004E
:101880000D2E45EF0CF016A68F9800000E2E4AEF95
:101890000CF0129000000F2E4FEF0CF0129200008F
:1018A000102E54EF0CF012940000112E59EF0CF092
:1018B000129681EC0CF0133E30EF0CF01200D70EB4
:1018C000136E000000000000000077EC0CF0132EF7
:1018D00061EF0CF0D70E136E000000000000000056
:1018E00077EC0CF0132E6CEF0CF0000012000000EF
:1018F0007AEF0CF000000000000000000000000083
:101900001200030E146E0000142E83EF0CF0120070
:10191000269E05D0269E1EAE02D01E6C268E1EC0B0
:1019200018F0176A2A6A296A860E196E1A6AC9EFB0
:101930000DF0266A05EC0EF01DEC0EF026B6ADEFAC
:101940000DF026A205D026BAADEF0DF0B4EF0DF0E4
:1019500026BAC0EF0DF026A005D026B8ADEF0DF0E9
:10196000C0EF0DF026B8B4EF0DF01A6A7F0E1F24F9
:10197000196EE86A1A222450195EE86A1A5A1A0E79
:10198000276E1F6A296A2A6A176A186A21501C5E24
:1019900022501D5A23501E5A000E1F5A09E721508B
:1019A0001C2622501D2223501E22000E1F2201D071
:1019B000298AD8901C361D361E361F36D8902936F7
:1019C0002A3617361836272EE1D71E501D101C1048
:1019D000D8A4298AC9EF0DF0266A05EC0EF01DEC9B
:1019E0000EF026B6ADEF0DF026A205D026B8ADEF6D
:1019F0000DF0B4EF0DF026AA05D026B0ADEF0DF036
:101A0000B4EF0DF026B002D026A802D0C0EF0DF042
:101A10001A6A24501F24196EE86A1A227E0E195E73
:101A2000E86A1A5A296A2A6A176A186A23501E0233
:101A3000F4CF18F0F3CF17F022501E02F3502A26ED
:101A4000F4501722000E182223501D02F3502A26AC
:101A5000F4501722000E182221501E02F35029269E
:101A6000F4502A22000E1722182222501D02F35091
:101A70002926F4502A22000E1722182223501C0275
:101A8000F3502926F4502A22000E17221822215042
:101A90001D02F4502926000E2A2217221822225055
:101AA0001C02F4502926000E2A2217221822C9EF00
:101AB0000DF01EC02AF01DC029F01D502202F4CFE7
:101AC0001CF0F3CF1BF01E502302F4CF1EF0F3CF17
:101AD0001DF02202F3501C26F4501D22E86A1E223B
:101AE00029502302F3501C26F4501D22E86A1E22BE
:101AF00023AE7FEF0DF029501D5E2A501E5A2AAEEC
:101B0000000C22501D5E23501E5A000C266A05EC64
:101B10000EF026B690EF0DF026A20AD026B403D020
:101B20007F0E1E6E19D0800E1E6E16D01E6A14D047
:101B300026B0FCD7870E1F60F1D77E0E1F64F6D744
:101B4000860E1F5C04E0D8901E321F2AF9D726A407
:101B500003D01E6C1EAEEAD712007F0E1F6EFF0E62
:101B60001E6E1D6E1C6E12007F0E26BEFF0E1F6EB7
:101B700002D07F0E1F6E800E1E6E1D6A1C6AF3D788
:101B800026AE04D0800E1F6E1E6AF7D71F6A1E6A2B
:101B9000F4D7185017102A102910F8E01ABEF0D701
:101BA00018BE0CD019501A10EBE0D89029362A36FE
:101BB000173618361906D8A01A06F2D71A50D4E1EB
:101BC0001928D2E029AE11D07F0E291402E12AA0F3
:101BD0000CD02A2AE86A1722182207E3D880183284
:101BE00017322A32192A1928BFE01950C9E02AC031
:101BF0001CF017C01DF018341E6E19301F6E1E32F7
:101C00001F9E26BE1F8EB3EF0DF01E361F3602E359
:101C10002684267E06E126801F6A1E6A1D6A1C6ACB
:101C200012001F2803E0D8801E321200D8901E3206
:101C300002E126821200268612002336243602E3B1
:101C4000268C267E06E12688246A236A226A216A77
:101C50001200242803E0D88023321200D8902332C7
:061C6000EAE1268A1200F1
:0A1C6600150EAF6EAC849D9A9D9898
:101C7000AC98AC9E948EAB9CAB96AB8AAB889F9A8B
:101C80009D8A0101FE69FF69949CAC9CAC969F986B
:101C90009D88AC8AAB8E1200150E6F6E6C84A39A71
:101CA000A3986C986C9E98846B9C6B966B8A6B88DF
:101CB000A59AA38A0101FE69FF6998926C9C6C96B3
:101CC000A598A3886C8A6B8E120007D9E6529D9A5C
:101CD000C6C1DFFF9D8ADF50E552FBD0FED8E65239
:101CE000A39AD2C1DFFFA38ADF50E552F2D0F5D824
:101CF000E6520101C35102E0000E15D0C451EA6A58
:101D0000000FE96E010EEA22EFCFDFFFC607C42BFA
:101D10001F0EC4179D9AC551C45D02E1010EC36F29
:101D20009D8AC26BDF50E552D4D0D7D8E65201016C
:101D3000CF5102E0000E15D0D051EA6A400FE96E93
:101D4000010EEA22EFCFDFFFD207D02B1F0ED017F4
:101D5000A39AD151D05D02E1010ECF6FA38ACE6B61
:101D6000DF50E552B6D0B9D80101C951FDE1CC51DF
:101D7000EA6A200FE96E010EEA22FE0EDBCFEFFFCA
:101D8000CD2BCC2B1F0ECC179D98CC51CB5D02E1F7
:101D9000010EC96F9D88CA6B9CD09FD80101D55197
:101DA000FDE1D851EA6A600FE96E010EEA22FE0EEB
:101DB000DBCFEFFFD92BD82B1F0ED817A398D85104
:101DC000D75D02E1010ED56FA388D66B82D00101E9
:101DD000C25102E09D9A1200C551EA6A000FE96EF5
:101DE000010EEA22AECFEFFFABA203D0AB98AB88D7
:101DF000C72BABB4C82BC62BC52B1F0EC517C5519F
:101E0000C45D02E1010EC26FC36B12000101CE512D
:101E100002E0A39A1200D151EA6A400FE96E010E66
:101E2000EA226ECFEFFF6BA203D06B986B88D32BA7
:101E30006BB4D42BD22BD12B1F0ED117D151D05D27
:101E400002E1010ECE6FCF6B12000101CA5102E018
:101E50009D981200CB51EA6A200FE96E010EEA222A
:101E6000EF50AD6ECD07CB2B1F0ECB17CC51CB5DFA
:101E700002E1010ECA6FC96B12000101D65102E0E6
:101E8000A3981200D751EA6A600FE96E010EEA22A8
:101E9000EF506D6ED907D72B1F0ED717D851D75DCE
:101EA00002E1010ED66FD56B120017D80101C151A6
:101EB0000FE0C10505E1FE0EDBCFE6FF54DF07D0E2
:101EC000020EC15D05E1FE0EDBCFE6FF66DFE552E7
:101ED00000D0E552E7CFD9FF1200D9CFE6FFE1CF1E
:041EE000D9FF120014
:0C1EE4009EA8FED71200B4D8FE0EDBCF83
:101EF000E6FFCFEC0AF0E552A9D0ACD80101E150E1
:101F0000FD0FF16FFF0EDA20F26F010EEA6AF12584
:101F1000E96EF251EA22A3D8F1C1E9FFF2C1EAFF6A
:101F20009ED894D097D80101F36B1A0EF35D0DE2A1
:101F3000FD0EDBCFE9FFDB2AFE0EDBCFEAFF01E37C
:101F4000DB2A8DD80101F32BF0D780D00101A00E40
:101F5000F16F010EF26F0101A0510101F56FF66BF7
:101F6000F751F51902E1F851F61916E00101C0B573
:101F70000ED0F7C1E6FFCFEC0AF0E552F5C1E6FF5F
:101F8000CFEC0AF0E5520D0EAD6EACDF0101C0954D
:101F9000F5C1F7F1F6C1F8F10101F72B000EF823B6
:101FA000F83507E2F751FF08000EF85502E2F76B2B
:101FB000F86B1200150EE66E3C0EE66E1FEC12F08A
:101FC000E552E552320EE66E93EC12F0E552120045
:101FD00041D8FE0EDBCFF4F148D03CD8020EE1260A
:101FE0000F0EE66EFE0EDB507F0BFE0BFD0BE66E5A
:101FF000F10EE66EB8EC11F0E552E552E5520A0E2C
:10200000E66EA3EC12F0E552B1EC12F007EC04F02E
:102010000009FCE151EC12F0AEEC12F0C4502D6E50
:102020002E6E2D6AC35000012D102B6E2EC02CF089
:10203000DE6E2EC0DDFFDECF2BF0DDCF2CF02BC00F
:10204000F3FF2CC0F4FFD9CFE1FF0FD00D0EAD6E22
:1020500049DF0BD0D9CFE6FFE1CFD9FF1200EF5017
:10206000E66ECFEC0AF0E5521200E552E7CFD9FF59
:0220700012005C
:0E207200D8CFE4FFE0CFE4FFE46EDACFE4FF66
:10208000E2CFDAFFE9CFE4FFEACFE4FFF3CFE4FFEA
:10209000F4CFE4FF00EE2BF00C0EE80403E3EECFE8
:1020A000E4FFFBD7E6529E50200B06E09D50200B2C
:1020B00003E0E7EC0EF01AD0A450200B06E0A3508A
:1020C000200B03E006EC0FF011D09E50100B06E041
:1020D0009D50100B03E025EC0FF008D0A450100B1E
:1020E00005E0A350100B02E03DEC0FF0E55200EECE
:1020F00036F00C0EE80403E3E5CFEDFFFBD7E5CFA8
:10210000F4FFE5CFF3FFE5CFEAFFE5CFE9FFE5CF49
:10211000DAFFE550E5CFE0FFE5CFD8FF1000010181
:102120007F0E8B6F8A6F896F886F876F866F856F61
:10213000846F936F926F916F906F8F6F8E6F8D6FB3
:102140008C6F8C928D928C908D908C968D968C94B9
:102150008D948C9A8D9A8C988D988C9E91908C9C55
:102160008D9C0101A1AD22D00101C0A1FAD7A00E22
:10217000E66E010EE66E39EC05F0E552E55293C1CC
:10218000E6FF92C1E6FF91C1E6FF90C1E6FF0CECCD
:102190000CF0E552E552E552E552800EE66E010E76
:1021A000E66E52EC05F0E552E552DBD71200120064
:0C21B000D9CFE6FFE552E7CFD9FF1200BF
:0421BC00B18EB186A9
:1021C000B19CB19AB198B192A092A090A390A39221
:1021D000A3941200D9CFE6FFE1CFD9FF080EE12684
:1021E000B190B36AB26ABA6AB76A736A706AFE0E6D
:1021F00050D82BC0DEFF2CC0DDFFFD0E4AD8020EEA
:102200002BC0DBFF030E2CC0DBFFFC0E42D8040EFC
:102210002BC0DBFF050E2CC0DBFFFB0E3AD8060EF1
:102220002BC0DBFF070E2CC0DBFFDF50BB6EDECF09
:102230002BF0DDCF2CF02CC02BF02C6A2B50BC6E79
:10224000020EDB50B86E020EDBCF2BF0030E3AD835
:10225000B96E040EDB50746E040EDBCF2BF0050E4E
:1022600031D8756E060EDB50716E060EDBCF2BF08B
:10227000070E28D8726EF29E090EBA6EB76E736E94
:10228000706EB180F28ED9CFE1FFE552E7CFD9FF72
:102290001200DB502D6E2E6A7F0E2D5E000E2E5A20
:1022A000320E1D6E1E6A2DC022F02EC023F059EC96
:1022B0000DF01BC02BF01CC02CF0980E2B263A0EF4
:1022C0002C221200DBCF2CF02CC02BF02C6A2B50D0
:0222D0001200FA
:0E22D2001E0EF66E080EF76E000EF86E01017D
:1022E0000900F550EC6F0900F550ED6F03E1EC6764
:1022F00001D03DD00900F550E76F0900F550E86FB7
:102300000900F550E96F09000900F550E96E090070
:10231000F550EA6E090009000900F550EA6F09005E
:10232000F550EB6F09000900F6CFEEF1F7CFEFF1B2
:10233000F8CFF0F1E7C1F6FFE8C1F7FFE9C1F8FF18
:102340000101EA5302E1EB5307E00900F550EE6E9C
:10235000EA07F8E2EB07F9D7EEC1F6FFEFC1F7FFA6
:10236000F0C1F8FF0101EC07000EED5BBFD71200D2
:10237000D9CFE6FFDACFE6FFE1CFD9FFE2CFDAFF30
:10238000C26AC16AC06AFC0EDB407F0B3C0BC26EA6
:10239000FB0EDB50C16EFC0EDB38F00B300BC112B4
:1023A000FD0EDB50800BC06EFD0EDB380F0B070BF4
:1023B000C012FD0EDB50040DF350380BC012FC0EA2
:1023C000DBAE03D09E9C9D8CF28CC280E552E5CFA3
:0823D000DAFFE7CFD9FF12008C
:0823D800D9CFE6FFDACFE6FFE2
:1023E000E1CFD9FFE2CFDAFF3F0EC716C66AFD0E76
:1023F000DB50C612FB0EDB50C712FC0EDB50030A8B
:1024000009E0010A04E0020A06E1C78C04D0C78C87
:10241000C68801D0C688FD0EDB50050A03E0010A1C
:1024200004E1978E9486C79E01D09496949A9488DE
:0E243000C68AE552E5CFDAFFE7CFD9FF1200EA
:02243E00D9CFF4
:10244000E6FFDACFE6FFE1CFD9FFE2CFDAFFAC6AF1
:10245000AB6AFD0EDBB0AC88DBA202D0AC8CAB8CDF
:10246000DBB4AC8EDBA602D0AB8801D0AB8ADBA894
:1024700002D0AC8401D0AC94DBAC02D09D8A01D0F8
:102480009D9ADBAE02D09D8801D09D98FC0EDB505A
:10249000AF6EAC8AAB8EE552E5CFDAFFE7CFD9FF5E
:0224A000120028
:0E24A200D9CFE6FFDACFE6FFE1CFD9FFE2CFD8
:1024B000DAFFE652E652C350DF6E010EC4CFDBFFF7
:1024C000DECF2BF0DDCF2CF02BC0F3FF2CC0F4FFC0
:1024D000E552E552E552E5CFDAFFE7CFD9FF12002A
:1024E00090EC04F00AEC08F00101C0910101C0A1D8
:1024F00007D04CEC08F00101A1AD02D08FEC10F038
:06250000D7EC10F0F3D748
:0A2506001EEE00F02EEE00F0F86A61
:10251000269CA68EA69CBDEC0AF069EC11F070EC2E
:0625200012F0F9D71200D1
:0A252600FF0EE350376E480E01D09F
:102530004C0EE76EE72EFED7E76AE72EFED7372E62
:06254000F7D700001200B5
:0A254600FF0EE350E84E1200000003
:0C25500000D000D000D0E82EFAD7120016
:04255C00C2909D9CF0
:02256000120067
:04256200C28212001F
:0325660000000072
:07256900000001000000006A
:102570000000010000000001000000000000010058
:02258000000059
:042582000000000055
:020000040030CA
:0E000000FF36F6FEFFFF8BFFFFBFFF9FFFBF27
:00000001FF
