:020000040000FA
:060800001AEF35F01200B2
:02080600FEFFF3
:06080800EBEF12F01200FC
:02080E00C250D6
:08081000020B01E0010E1200D1
:0608180027EF29F0120099
:02081E001300C5
:100820007B610000E5040000010000006A6B00002D
:10083000B80400000A0000005E6B0000A204000083
:100840000C0000005A6B0000DA04000004000000F5
:100850004E6B0000960400000C000000356B000099
:100860007D0400001900000006080000E3040000F9
:1008700002000000326B0000DE04000003000000F4
:100880002C6B0000590F000006000000226B0000D6
:10089000AE0400000A0000001E6B0000D604000039
:1008A000040000001A6B0000D204000004000000E5
:1008B000146B0000FA01000006000000106B00003D
:1008C000CE040000040000000C6B0000CA0400000D
:1008D00004000000086B0000C604000004000000D3
:1008E000FE6A0000F60300000A000000E26A000051
:1008F000610400001C000000D76A00005F0F0000C8
:0409000001000000F2
:0C09040038EC0BF0FE0EDB5009E17AEC41
:100910000BF0EF507F0804E27AEC0BF07F0EEF6EE5
:100920003DEF0BF038EC0BF0FE0EDB500BE17AECF8
:100930000BF0EFCF00F07F0E005C04E27AEC0BF0DE
:100940007F0EEF6E3DEF0BF038EC0BF0A0EC0BF0F0
:10095000D890015004E6D00E005C070E015805E265
:100960000101D00EE96F070E0DD0A0EC0BF00134A1
:100970000BE20050CE08080E015406E20101CE0E33
:10098000E96F080EEA6F06D0FD0EDBCFE9F1FE0E2F
:10099000DBCFEAF1E9C100F0EAC101F0D00E005E60
:1009A000070E015A00503DEF0BF038EC0BF0020E31
:1009B000E1268C0EDE6E600EDD6E938A9388938640
:1009C000938499829980938E938C9A849A82998643
:1009D00099849A8A9A8894809A869A8E9A9C919CF5
:1009E00002017F0E0B6F0A6F096F086F076F066FAA
:1009F000056F046F136F126F116F106F0F6F0E6F13
:100A00000D6F0C6F000EE66EE66AE66EE66AE66E45
:100A1000E66AE66EE66A57EC14F0F56E080EE15EE3
:100A2000F5500401010E7D6F81EC2AF09AEC2AF05A
:100A30004DEC24F0C0EC2BF0BEEC30F0E0EC30F0EC
:100A4000ECEC30F0F8EC30F00201840E0D6FAA0EE1
:100A50000E6F74EC0BF048EC09F0F56E060EE15EDB
:100A6000F5503AEC35F097EC0BF09CEC13F0D9CF45
:100A7000E1FF3DEF0BF00401612B000E6223632BBD
:100A800064230A0E631907E1645105E1720E006EDA
:100A9000600E81EC0BF004013C0E631904E164511B
:100AA00002E116EC2CF02C0E040163190CE1010E8E
:100AB000641909E122EC2CF057EC2CF06C0E006E5E
:100AC000600E81EC0BF0200EE66E020EE66EFCEC82
:100AD00013F0E552E55204012C0E635D010E6459DA
:100AE00013E37F0E0201305D02E1000E01D0010E22
:100AF000006E016A00BE0168013405E200508C08F6
:100B0000000E015401E366D813C2E6FF12C2E6FFED
:100B100011C2E6FF10C2E6FF28EC22F0E552E552D2
:100B2000E552E55297EF0BF038EC0BF0020EE126A0
:100B3000010EDE6EDD6A030E010181AF02D0D89096
:100B400003D0805D000E815941E302017F0E076FE3
:100B50000A6F056F046F1A0E04016527000E6623E5
:100B60006C516619E8AE02D0663504D065516B5DF4
:100B700066516C590BE2D9CFE9FFDACFEAFFEE50AC
:100B8000ED1004E00201FE0E0A6F076F04016651CA
:100B90006A19E8AE02D06A3504D06951655D6A51C0
:100BA000665905E20201320E046FCC0E0ED066517A
:100BB0006819E8AE02D0683504D06751655D6851A8
:100BC000665904E20201046BFE0E056FD9CFE1FF06
:100BD0003DEF0BF002012D510101806F816B8AEC1A
:100BE0001CF0A4EC22F04EEC0CF071DAE552E55268
:100BF000E552E5527F0E0201305D04E074EC0BF02B
:100C000010D803D074EC0BF046D8F56E060EE15EFA
:100C1000F550D80EE66E010EE66E3FDAE552E5526B
:100C2000120038EC0BF004016F51701104E0DDECA0
:100C30000BF0EF6A04D0DDEC0BF0EB0EEF6E1A0E4A
:100C40006D27000E6E236E3512E26D517008170E7F
:100C50006E550DE26D6B6E6B6F51701102E0000E00
:100C600001D0010E6F6F706B800B01E070690201A3
:100C700022AB0BD0DDEC0BF0EF6AA7EC0BF0E66ECD
:100C8000F7EC0BF0E552E75003D0F7EC0BF07F0EDA
:100C9000EF6E3DEF0BF080EC0CF0DE6ADD6AD7EC16
:100CA0000CF027C2EFFFA5EC0AF026C2EFFF02010D
:100CB0002251010B23E02351010B20E0D7EC0CF073
:100CC000EF50E66ED950020FE96EDACFEAFFE55237
:100CD000E750EE6EED6AA5EC0AF05CEC0CF0020E4B
:100CE000DBCF00F0030EDBCF01F0FF0ED880005603
:100CF000000E0156A5EC0AF000C0EFFF22AB03D0B6
:100D0000A7EC0BF006D022AF0AD02851FE0BE84228
:100D10007F0FE66EF7EC0BF0E552E75003D0F7ECEF
:100D20000BF07F0EEF6E22A905D02C51FE0BE8428E
:100D30007F0F08D022AD0CD07F0E006E2C51FE0B21
:100D4000E842005CE66EDDEC0BF0E552E75003D0C4
:100D5000DDEC0BF07F0EEF6E23A90ED07F0E006E40
:100D60002951FE0BE842005CE66EEFDB70EC0CF004
:100D70000401716B726B07D01A0E04017127000E0B
:100D8000722361EC0CF0020123BF03D002017F0E3D
:100D900002D00201FE0E0F6FD3DAD9CFE1FF3DEF93
:100DA0000BF084EC0CF0100E76EC0CF0100EC4EC92
:100DB0000CF0E1EC0BF026EC0BF0010E9BEC0CF0D0
:100DC000E1EC0BF04AEC0CF0C7DB0C0E76EC0CF00F
:100DD0000C0EC4EC0CF0E5EC0BF026EC0BF0020E64
:100DE0009BEC0CF0E5EC0BF04AEC0CF0E1EC0BF0BA
:100DF00028EC0CF008E0E1EC0BF0EE6AEE6A7E0EF7
:100E0000EE6E430E07D0E1EC0BF032EC0CF003E099
:100E1000C7EC0CF0EE6EE5EC0BF028EC0CF008E003
:100E2000E5EC0BF0EE6AEE6A7E0EEE6E430E07D036
:100E3000E5EC0BF032EC0CF003E0CAEC0CF0EE6EDB
:100E4000AEDB100E3AEC0CF003E0C7EC0CF0EE6EEB
:100E5000A6DB0C0E3AEC0CF003E0CAEC0CF0EE6EE4
:100E60009EDB1A0E80DB010EEE1806E1ED5004E168
:100E700041EC0CF0DFDB05D041EC0CF06EEC0BF03C
:100E8000EE6E0201FE0E0F6FE1EC0BF002EC0CF0C7
:100E9000E552E750EF6EE5EC0BF002EC0CF0EE5291
:100EA000E552E750EF6E41EC0CF002EC0CF070EC08
:100EB0000CF067EC0CF00AE0D7EC0CF05CEC0CF0FA
:100EC00044DB5CEC0BF041DB00C0EFFF68DB1E0E87
:100ED0004ADBAEEC0BF001E1015011E0010E00180D
:100EE00001E1015008E000500EE101500CE1F7EC87
:100EF0000BF07F0E07D0F7EC0BF0EF6A04D0F7ECA5
:100F00000BF0FE0EEF6E4BDB200E2DDBAEEC0BF08C
:100F100001E1015011E0010E001801E1015008E06B
:100F200000500EE101500CE1DDEC0BF07F0E07D01C
:100F3000DDEC0BF0EF6A04D0DDEC0BF0FE0EEF6E93
:100F40009CD396DB0E0EE126030E010181AF02D089
:100F5000D89003D0805D000E815901E29BD0070E2E
:100F60000401776F786B7351751902E1745176192A
:100F70003AE0755101E1765109E011DB180EEB6A98
:100F8000190EEB6A776B786BDE68DD6877C4E9FF72
:100F900078C4EAFF060EEA02F3CFEAFFE902F3CFD4
:100FA000E9FFF450EA26310EE926040EEA22EECFDC
:100FB00000F0EFCF01F0D9CFE6FFDACFE6FFFD0E6C
:100FC000DBCFE6FFFE0EDBCFE6FF04D001C0FAFF69
:100FD0000050F96EFBDFE552E552E552E55275C46B
:100FE00073F476C474F477C4E9FF78C4EAFF060E9C
:100FF000EA02F3CFEAFFE902F3CFE9FFF450EA2671
:10100000310EE926040EEA22020EE926000EEA223B
:10101000EECF02F0EFCF03F0FB0EDBCFE6FFFC0ECE
:10102000DBCFE6FFFD0EDBCFE6FFFE0EDBCFE6FFFC
:1010300004D003C0FAFF0250F96EFBDFE552E5521F
:10104000E552E552F3CF00F0F350F41023E177C4FA
:10105000E9FF78C4EAFF060EEA02F3CFEAFFE902ED
:10106000F3CFE9FFF450EA26310EE926040EEA2216
:10107000040EE926000EEA22EECF00F0EFCF01F0D9
:1010800004D001C0FAFF0050F96EFBDF0401752B9C
:10109000000E7623D9CFE1FFF0D284EC0CF0EE52B3
:1010A000EFCF05F259DA08DB00C004F255DA020E80
:1010B0005ADA02DB00C00BF24FDA030E54DAEFCF3C
:1010C00007F24ADA040E4FDAEFCF0AF2D6D280ECFA
:1010D0000CF0010E9FDB040E46DADCDB020E9ADB1D
:1010E000D9DB030E97DB080E3EDAD4DB35DA040ECB
:1010F0003ADA99DB100EC9DB2FDA95DB0C0EC5DB73
:101100002BDA080E30DA33DAE40E496ECB0E4A6E73
:10111000160E4B6E420E5DDBB9EC0CF0140EB5DB17
:10112000D6DB26E019DA0C0E1EDAEECFDFFF010E59
:10113000EECFDBFF020EEECFDBFF030EEECFDBFFC9
:101140000BDA100E10DA64DA07DA0C0E0CDA00C0D3
:10115000EEFF75DA01DA100E06DADFCFEEFF010ED0
:10116000DBCFEEFF020EDBCFEEFF030EDBCFEEFF99
:10117000F3D9100E01DB1C0EF6D983DAEDD90C0E73
:10118000FBDA180EF0D97DDA0401015102E1000EFC
:1011900001D0010E006E016A00BE0168DDD9200E8B
:1011A000E2D900C0EEFF01C0EDFFB1DB44C01AF090
:1011B00045C01BF046C01CF047C01DF0EEDB44C02C
:1011C00016F045C017F046C018F047C019F0E8DB2C
:1011D00044C012F045C013F046C014F047C015F0EB
:1011E000B7DB44C00EF045C00FF046C010F047C05A
:1011F00011F0496A4A6A5BDB44C00AF045C00BF053
:1012000046C00CF047C00DF0D00E496E0F0E4A6E6E
:10121000490E4B6E400E4C6EB1EC17F044C006F018
:1012200045C007F046C008F047C009F0496A4A6A5D
:10123000340E4B6E430E4C6E5EEC17F044C002F061
:1012400045C003F046C004F047C005F052DBB1ECE6
:1012500017F0CCEC18F045C000F046C001F07CD986
:10126000220E81D945C0EEFF01C0EDFFF9EC2BF055
:1012700043C000F044C001F06FD9240E74D943C0BC
:10128000EEFF01C0EDFF7BDB60DBD9CFE1FFF5D1E5
:101290003BDB040E8FDACED95FD9080E8BDA100E45
:1012A00089DA0C0E87DA140E85DA1C0E83DA180E32
:1012B0004CDB57EC2CF050D9240EEB6A250EEB6A70
:1012C0005EDB78DA280EEB6A290EEB6A45D92A0E26
:1012D000EB6A2B0E02DB1C0EEB6A1D0EFEDA1A0EF9
:1012E000EB6A1B0EFADA1E0EEB6A1F0EF6DA200E00
:1012F000EB6A210EF2DA180EEB6A190EEEDA100E16
:10130000A4DA0C0EA2DA140EA0DA94D948D9040E8D
:101310009CDA080E1ADB4BDB7F0EEF6E16D97F0EC0
:10132000EF6ECFDA64DA7F0EEF6E47DA7F0EEF6E84
:1013300031DBEE6E2CDBEE6EA4DAD0D9EE6E9DD1F1
:10134000DFDA020121BBA7D0040101513DE1040114
:101350007C3536E27B510508000E7C5531E2010EEA
:10136000791901E17A5106E0010E796F7A6BB1D8F3
:101370000201008304017B6B7C6B02010051400B76
:1013800001E0010EDE6EDD6A0051009D100B01E0F0
:10139000008D00510099080B01E000890051009771
:1013A000020B01E00087DF50010BF36EF346FD0EE8
:1013B0000015F310006F020E0401796F7A6B86D06E
:1013C0007B2B000E7C2382D084D80401796B7A6B4E
:1013D000A2DA410EA4DA01E179D0E8D8A00E4B6E72
:1013E000C10EA0D973E099D8800E4B6EBF0E97DA6C
:1013F00010E1DCD8800E4B6E3F0E94D90AE1020159
:10140000008B008F008100850089008D008300879C
:101410005DD083D84B6A4C6A81D91BE17CDA400EDF
:1014200081D903E10201008307D077D8200E4B6EEB
:10143000410E78D903E10201008707D06ED8700E03
:101440004B6E410E6FD902E1020100890201008D4D
:101450003DD063D84B6A4C6A04EC19F0010A36E1BE
:101460005ADAC00E5CDA03E10201008107D055D8D8
:10147000200E4B6EC10E53DA03E10201008507D046
:101480004CD8700E4B6EC10E4ADA02E10201008B9D
:101490000201008F1BD037C246F086EC16F0CCD983
:1014A000710E496E3D0E4A6E7A0EDED8800E4B6E7E
:1014B000430ED5D8496A4A6A200E4B6E410E4C6ED7
:1014C000B1EC17F0A5EC18F046C000F2D9CFE1FF5F
:1014D000D4D00201009F009B00950091009D0099CF
:1014E000009700931200C4D8FD0EDBCF45F0FE0E2E
:1014F000DBCF46F03AD978EC18F043C002F044C094
:1015000003F043C045F044C046F02FD91EEC18F05C
:1015100045C0F3FF46C0F4FFB0D0F9D944C010F085
:1015200045C011F046C012F047C013F036DA18DAA1
:1015300037DA82D9496A4A6A820E4B6E420E49D91D
:10154000B6D9F0D9496A4A6A1200F90EDBCFE9FF31
:10155000FA0EDBCFEAFF1200FD0EDBCFE9FFFE0E35
:10156000DBCFEAFF1200E926000EEA221200EECFDE
:1015700010F0EECF11F0EECF12F0EFCF13F010C05D
:1015800043F011C044F012C045F013C046F0AEEC79
:1015900016F0E6D9AED95EEC17F01CEF0CF0FB0E9E
:1015A000DBCFE9FFFC0EDBCFEAFF1200B0D944C06D
:1015B00024F045C025F046C026F047C027F0EDD9FD
:1015C00044C020F045C021F046C022F047C023F0BF
:1015D000E7D944C01CF045C01DF046C01EF047C00E
:1015E0001FF0B6D944C018F045C019F046C01AF033
:1015F00047C01BF0496A4A6A5AD944C014F045C032
:1016000015F046C016F047C017F0496A4A6A120042
:10161000EECF00F0EECF01F0EECF02F0EFCF03F00F
:10162000120000C044F001C045F002C046F003C003
:1016300047F01200EE6AEE6AEE6AEE6A120001C02E
:10164000EEFF02C0EEFF03C0EEFF1200EECFE6FF9A
:10165000EECFE6FFEECFE6FFEFCFE6FF12004C6ED7
:101660005EEC17F092EF0CF04B6E410EE9EF0BF0D1
:10167000D9CFE6FFE1CFD9FF1200E552E7CFD9FF7E
:101680001200EECF44F0EECF45F0EECF46F0EFCFB4
:1016900047F000C049F001C04AF002C04BF003C05F
:1016A0004CF0C8EC16F047C0EDFF46C0EDFF45C05A
:1016B000EDFF44C0EFFF1200EF50006E016AFF0E15
:1016C000D8800056000E0156120043C000F044C0FE
:1016D00001F045C002F046C003F01200EE6AEE6A67
:1016E000FE0EEE6E420E1200D80EE66E010EE66E93
:1016F0004EEF0CF0FC0EDBCFE9FFFD0EDBCFEAFF77
:101700001200016E026A00C0E6FFE66E02C0E6FF4C
:10171000FFEC32F0E552E552E5521200FBEC18F016
:10172000010A12004C6E04EC19F0010A1200000EBE
:10173000E66E020EE66E15EC14F0E552E55212006C
:10174000FD0EDBCF00F0FE0EDBCF01F012007F0EAE
:10175000006E2851FE0BE842005C1200EECF00F054
:10176000EFCF01F0020E00181200FD0EDBCF4AF0A1
:10177000FE0EDBCF4BF01200F6DEEECF04F0EECF24
:1017800005F0EECF06F0EFCF07F0620E496EA10E26
:101790004A6ED60E4B6E3C0E4C6E04C044F005C033
:1017A00045F006C046F007C047F0B1EC17F0BAD8D4
:1017B000ACEF0AF0CAD8ACEF0AF0C7DE040EB3EF04
:1017C0000AF0C3DE050EB3EF0AF0BFDE090EB3EF79
:1017D0000AF04C6EB1EC17F044C004F045C005F0BF
:1017E00046C006F047C007F0496A4A6A1200ADDEFB
:1017F000030EB3EF0AF0496A4A6A040E4B6E430EB9
:101800004C6E120005DF0DDFA5EC18F04650E66EB9
:10181000A5EF0AF0E66EE66AE8EC19F0E552E5524B
:1018200054DFACEF0AF0A3DED20E496E530E4A6EBF
:101830007B0E1ADFB9EF0CF044C008F045C009F088
:1018400046C00AF047C00BF012007FD8CFEF0AF075
:10185000AAD87E0E4B6E430E4C6EE3DE04EC19F0FC
:10186000010A1200A0D8FE0E4B6E420E4C6ED9DE5D
:101870008EEF0BF078DE97D84B6A4C6AD2DE8EEF93
:101880000BF063DE0D0EB3EF0AF06DDE44C0EEFF29
:101890001FEF0BF043C0EEFF1FEF0BF0B60EE66E2E
:1018A000010EE66E820EE66E010EE66E1200400E2E
:1018B0004B6E4C6EC7EF16F0FFDE79D800C0EFFF1D
:1018C000120043DE020E4FDE7F0EEF6E120067DE67
:1018D000180E49DEEE50ED101200EB6ACFEF0AF061
:1018E000020E41DEE552E750EF6E12004DD8CFEF09
:1018F0000AF0496A4A6A7A0E4B6E440E4C6E120028
:10190000B7DE040EE1261200B3DEACEF0AF00DC222
:1019100046F086EF16F001DEA00E4B6E12004C6E04
:101920008EEF0BF044C000F045C001F046C002F05D
:1019300047C003F01200E66EE66A90EC27F0F56E01
:101940000E0EE15EF55065EF0BF00DDE1AEF0BF0B9
:10195000496A4A6A820E4B6E420E4C6EB1EF17F026
:1019600044C00CF045C00DF046C00EF047C00FF06B
:101970001200700E4B6E420E72DEACEF0AF0ECDD20
:101980002C0E18DF300E1200EEDD26EF0BF019DF03
:101990006EEF0BF01ADF6EEF0BF02DDFC7EF16F0D6
:1019A0002ADF5EEF17F034DE496A4A6A1200CDDDA5
:0419B000EE521200E1
:0C19B40016EC12F0FB0EDBCFF3FFDB069D
:1019C000F35000090AE064EC12F0FA0ECFEC12F0CA
:1019D000F3E1011CF1E1010E01D0000E45EF12F020
:1019E00016EC12F03B0EE12402E3E168E652E16EF0
:1019F000010EDB6A020EDB6AF90EDBCFF6FFFA0E90
:101A0000DBCFF7FFFB0EDBCFF8FF0800F550DF6EF2
:101A1000DF5002E16BEF11F0250EDF5C02E05EEFBC
:101A200011F0030EDB6A040EDB6A050EDB6A060E9C
:101A3000DB6A070EDB6A7EEC11F02D0EDF5C0CE03A
:101A40002B0EDF5C09E0200EDF5C06E0230EDF5C7E
:101A500003E0300EDF5C1AE1DF50300A14E0130AB5
:101A60000FE0030A0AE00B0A05E0060AE4E1030EB0
:101A7000DB80E1D7030EDB82DED7030EDB84DBD70E
:101A8000030EDB86D8D7030EDB88D5D72A0EDF5CA2
:101A90001BE17AEC11F0C8EC11F010E0030EDB80D2
:101AA00045684668130EDBCF4AF0140EDBCF4BF0CF
:101AB00078EC18F0040E43C0DBFF03D0130EB1EC3A
:101AC00011F07EEC11F00BD0090EDB6A1FEC12F066
:101AD00003E093EC12F0FAD7090EB1EC11F0030E0B
:101AE000DBB0DB982E0EDF5C1BE17EEC11F02A0EE2
:101AF000DF5C0BE17AEC11F0C8EC11F003E1130E9E
:101B000003EC12F07EEC11F00BD0090EDB6A1FEC37
:101B100012F003E093EC12F0FAD7090E03EC12F086
:101B2000680EDF5C07E17EEC11F0680EDF5C1DE102
:101B3000030E18D0740EDF5C17E07A0EDF5C14E041
:101B4000480EDF5C06E0540EDF5C03E05A0EDF5CFB
:101B500002E1020E07D06C0EDF5C03E06A0EDF5C70
:101B600004E1010E56EC12F0C9DBDF506E0A01E110
:101B700081D31E0A01E192D1200A01E18FD13F0AEF
:101B800001E149D11A0A01E146D10D0A01E143D12F
:101B9000200A01E140D13A0A01E13DD1200A01E1E8
:101BA0003AD1260A01E135D10D0A01E132D11A0AF2
:101BB00001E1D9D0200A4AE0300A1FE0460A0EE0CF
:101BC000250A01E085D3D950F90FE96EFF0EDA201E
:101BD000EA6E010EEE5E000EEE5AEE5A64EC12F062
:101BE000250EE66E95DB03E1011C01E16BD360EC91
:101BF00012F001E26DD3DB2A6BD3080EDB6A040E10
:101C0000DB50010806E2040EDB0428EC12F0DB5086
:101C10008BDB080EDB5009E0030EDB50010B05E106
:101C200072DB01E04FD3080EDB6A64DBEFCFDFFF2E
:101C3000D8EC12F003E1011C01E144D360EC12F096
:101C400001E3DB2A60DB01E143D33CD3070EDB5029
:101C500002080FE1A4EC12F0030E6BEC12F00E0E72
:101C6000EECFDBFF0F0EEECFDBFF100EEECFDBFF74
:101C700020D0F70EDBCF03F0F80EDBCF04F0020E1E
:101C8000035E000E045AF70E03C0DBFFF80E04C01B
:101C9000DBFF03C0E9FF04C0EAFF5BEC12F0026A5D
:101CA0000E0E00C0DBFF0F0E01C0DBFF100E02C0E6
:101CB000DBFF0E0EDBCFE6FF0F0EDBCFE6FF100ED5
:101CC000DBCFE6FFDFEC31F0E552E552E552130ED3
:101CD00044C0DBFF140E45C0DBFF060EDB5005E001
:101CE000130E9FEC12F001E26ADBC3EC12F002E289
:101CF000130E37DB86EC12F006E0040E9FEC12F0B8
:101D000002E2050E2EDB030EDBB005D0FCDA01E0AB
:101D1000D9D2080EDB6A090EDB6A0E0EDBCFF6FFA6
:101D20000F0EDBCFF7FF100EDBCFF8FF0800F550EA
:101D3000DF6EDF5014E0C9EC12F011E2D8EC12F0C3
:101D400003E1011C01E1BED2BBDB01E3DB2A090E8A
:101D5000DB2AD9500E0FE96E000ECBDBE7D7D3DAC2
:101D600001E1B6D2AFD2C6DA110EEECFDBFF120E12
:101D7000EDCFDBFF110EDBCFE6FF120EDBCFE6FF70
:101D8000D1EC31F0E552E552130EF3CFDBFF140E28
:101D9000F4CFDBFF060EDB5004E0130ED0DB01E2D4
:101DA0000EDBC3EC12F002E2130EDBDAAFDB05E070
:101DB000040EC5DB02E2050ED4DA030EDBB005D05B
:101DC000A2DA01E07FD2080EDB6A090EDB6A110E8F
:101DD000DBCFE9FF120EDBCFEAFFEFCFDFFFDF50F3
:101DE00014E0D7DB12E2E4DB03E1011C01E16AD27B
:101DF00067DB01E3DB2A090EDB2A110EDB2ADBCFCE
:101E0000E9FF120EE8E3DB2AE6D77DDA01E160D2D2
:101E100059D2030EDB8E070EDB0410E195DB040EB6
:101E20005ADB0A0EEECFDBFF0B0EEECFDBFF0C0E04
:101E3000EECFDBFF0D0EEECFDBFF6CD0070EDB50DD
:101E400003082CE1030EDBAE0DD0B2DA020E76DA17
:101E5000EFCF00F0016A026A036A00AE39D0016870
:101E6000026835D0F70EDBCF01F0F80EDBCF02F0C1
:101E7000020E015E000E025AF70E01C0DBFFF80EE3
:101E800002C0DBFF01C0E9FF02C0EAFFEFCF00F0B4
:101E90000A0E00C0DBFF0B0EDB6A38D0070EDB50EA
:101EA000020809E1030EDBAE04D059DB02AE10D00C
:101EB0000ED055DB0DD0030EDBAE12D079DA020E58
:101EC0003DDAF9DA026A036A01AE02D002680368F9
:101ED000E2DA0C0E02C0DBFF0D0E03C0DBFF1AD0EE
:101EE000F70EDBCF02F0F80EDBCF03F0020E025E3E
:101EF000000E035AF70E02C0DBFFF80E03C0DBFF33
:101F000002C0E9FF03C0EAFFD6DAC5DA0C0EDB6ACD
:101F10000D0EDB6A060EDB5005E1010EF36E050EB9
:101F2000F3CFDBFF150EDB6A160EDB6AD950370FD5
:101F3000006E000EDA20016E390E00C0DBFF3A0E93
:101F400001C0DBFF380EDB6A080EDB6A0A0EAEDA70
:101F5000DF50780A12E0200A10E0280A0CE0200A7C
:101F60000AE03F0A06E00D0A02E0200A08E1020E3C
:101F700005D0080E03D0080EDF26100E97DA030EE8
:101F8000DBBE02D0DB92DB94DB50800B26E08ADAEA
:101F9000030EEB50000AE8AE02D0D89008D0000E35
:101FA000EE5C000EEE58000EEE58000EEE5815E2F4
:101FB00011DA486849684A684B68CBEC33F00A0E7E
:101FC0003FC0DBFF0B0E40C0DBFF0C0E41C0DBFF50
:101FD0000D0E42C0DBFF2D0E08D0030EDBA202D097
:101FE0002B0E03D0DBA408D0200EF36E170EF3CF18
:101FF000DBFF150EDB2A02D0170EDB6A050EDB5065
:1020000003E1B5D901E189D0C60E006E6A0E016EFA
:10201000000E026E070EDBCF03F0046A056A066A43
:1020200003C048F004C049F005C04AF006C04BF0B8
:10203000D1D99CEC34F000503F24F36E0150402085
:10204000F46E02504120F86EF4CFF7FFF3CFF6FFA5
:102050000800090EF5CFDBFF580EDF5C0FE1610EC3
:10206000F36E090E79D90AE3200E006E090EDBCF5C
:10207000E7FF0050E75E090EE7CFDBFF070EDBCF7F
:1020800000F0016A026A036A0DDA00C048F001C07C
:1020900049F002C04AF003C04BF0EECF43F0EECF60
:1020A00044F0EECF45F0EFCF46F09CEC34F046C064
:1020B000EDFF45C0EDFF44C0EDFF43C0EFFF390E1B
:1020C000DBCFE9FFDB063A0EDBCFEAFF01E2DB06FE
:1020D000090EDBCFEFFF150EDB2A49D995E1030E80
:1020E000DBA61DD06F0EDF5C06E1BFD918E3150E2D
:1020F000DB2859DA14D0780EDF5C09E0580EDF5C7B
:1021000006E0620EDF5C03E0420EDF5C08E1020ED7
:10211000F36E160EF3CFDBFF02D0150EDB6A030E53
:10212000DB50100B0EE0040EDBCF00F0050EDB5091
:10213000D880005406E2060EDB5003E1040EDB50AB
:1021400032DA93D90AE2050EDBCFE7FF150EDB503A
:10215000E75E050EE7CFDBFF02D0050EDB6A040E5B
:10216000DBCF00F0160E43D9D880005414E2160ECF
:10217000DBCFE6FF150EDBCFE6FF040EDBCFE6FF7D
:10218000050EDB50E552E75CE552D880E754E55296
:10219000D880E7545DD9030EDB50010B0BE1080E2C
:1021A000DB5008E0B0D801E08DD0080EDB50BCD881
:1021B000080EDB6A170EDB5007E086D9170EEFD941
:1021C00003E1011C01E17ED0160EDB5016E07CD944
:1021D000300EE66E9DD802E1011C74E075D9DFCFA8
:1021E000E6FF49EC33F0E552E552E552F4CF01F059
:1021F0000001F31C02E1011C65E0050EDBCF00F0DD
:10220000160EDB50D880005409E2050EDBCFE7FF45
:10221000160EDB50E75E050EE7CFDBFF300EE66EF5
:10222000050EC9D94FE1390EDB2ADBCFE9FF3A0EA3
:1022300001E3DB2ADBCFEAFF090EEFCFDBFFDB5048
:102240000EE042D9090EABD902E1011C3BE0390E88
:10225000DB2ADBCFE9FF3A0EEDE3DB2AEBD753D8DD
:1022600031E1160EDBCFE6FF080EC1D8E552E724B8
:102270005BD82ED0070EDB50030A1CE0010A14E0E5
:10228000030A07E079D9DBCFEEFF020EDBCFEDFFCB
:102290001FD0F3D8056A03AE02D0046805682AD8B7
:1022A000BAD805C0EEFF14D0E8D803BE046822D81F
:1022B000B2D80ED061D9DBCFEFFF0AD079D905E1D2
:1022C000011C03E1F368F46810D0FAD801E3DB2ABB
:1022D00077D905EF0DF0010EDBCF00F0020EDBCF5A
:1022E00001F000C0F3FF01C0F4FFD9CFE1FFDACF66
:1022F000E2FFCBD029D9020E6BEF12F061D90800B2
:10230000F550DF6E1200200EE66E080EDBEF12F0C5
:1023100049EC33F0E552E552E552F3CF00F0F4CF4B
:1023200001F00001F31C1200006E016AD950010F88
:102330004DD90050EE260150ED221200045E000E31
:10234000055AF70E04C0DBFFF80E05C0DBFF04C022
:10235000E9FF05C0EAFF1200DBCFF4FFF350F45CA5
:102360001200DB50E76E040EE7CFDBFF12000A0E0F
:10237000DBCF00F00B0EDBCF01F00C0EDBCF02F059
:102380000D0EDBCF03F000500110021003101200FD
:10239000130EEECFDBFF140EEDCFDBFF130EDBCF02
:1023A00000F0140EDBCF01F00001800E01141200CA
:1023B000F70EDBCF04F0F80EDBCF05F01200050EB0
:1023C000DB50E66ED950130F01D9E552E750EE6E9F
:1023D000ED6A12000A0EDBCF43F00B0EDBCF44F0A8
:1023E0000C0EDBCF45F00D0EDBCF46F01200DBCF3D
:1023F000E6FF150EDBCFE6FF050EDB50E552E724C6
:10240000E552E7241200DB50CED8010EF36E060E23
:10241000F3CFDBFF1200EE50EFCFEAFFE96E02C010
:10242000EEFF03C0EEFF04C0EEFF1200D9CFE6FFBF
:10243000DACFE6FFE1CFD9FFE2CFDAFF1200DFCF3C
:10244000E6FFE66A08EC35F0E552E552F35012007B
:10245000E76E080EE7CFDBFF1200EECF00F0EECF05
:1024600001F0EFCF02F0036A1200050EDBCF00F09F
:10247000150EDB50D88000541200010EDBCF02F0A5
:10248000020EDBCF03F0046A1200E552E5CFDAFF5B
:10249000E7CFD9FF12000A0E00C0DBFF0B0E01C010
:1024A000DBFF1200D9500A0FE6EF12F0F36E070EB1
:1024B000F3CFDBFF1200EECF00F0EFCF01F0120000
:1024C000010EDB2A020E1200FC0EDBCFE6FFFD0E32
:1024D000DBCFE6FF1200005E000E015AF70E00C0CF
:1024E000DBFFF80E01C0DBFF00C0E9FF01C0EAFF1F
:1024F0001200DA20EA6EEF2AEECFF6FF000EEF228E
:10250000EECFF7FFEF22EECFF8FF1200040EDBCF85
:10251000E6FF130EDB50E552E75C9ADFDB5004DF89
:10252000060EDB501200090EDB500A0DF350DF24BB
:10253000D00FE76E090EE7CFDBFF7EEF11F0DB5027
:10254000F36E050EACEF11F0F70EDBCF00F0F80ED6
:10255000DBCF01F01200DFCFE6FF88EF11F028DFBC
:10256000030EECDE2DEF12F0DAEC0CF0E552E55242
:10257000E552E55200091200BDDEEE50EFCFEAFF52
:10258000E96E010E1200130EDB50F36E040EACEF79
:1025900011F0040EDB50F36E090EACEF11F0DBCF3F
:1025A000E6FF88EF11F0E76E050EE7CFDBFF1200C4
:1025B0008BDFABEF12F0DBCFE6FF86DFB4EF12F07C
:1025C000D950F90FE96EFF0E79EF12F0E96E000EA7
:0625D000DA20EA6E1200A1
:0A25D600D8CFE4FFE0CFE4FFE46E8D
:1025E000DACFE4FFE2CFDAFFE9CFE4FFEACFE4FF9E
:1025F000E652F2A202D0A5D802D09EB6D1D8E552BA
:10260000E5CFEAFFE5CFE9FFE5CFDAFFE550E5CF1B
:10261000E0FFE5CFD8FF1000E66A010EE66E050E7A
:10262000E66E37EC34F0E552E552E5521200070E43
:10263000B46E000E886E876E866E856E846E836EB5
:10264000826E816E806E916E906E8F6E8E6E8D6ECC
:102650008C6E8B6E8A6E896E2F0E926E93689C0EB6
:10266000946E956A966A9768040E986E0E0E9A6E2E
:102670009968C16AF19EB0989C8EA26A9F6AA06A0E
:102680009D6AA36AA56AC8DF9F86D08E9E969D86A6
:102690009382F06AF288F09EF098F192F09AF16AD3
:1026A000F28CF28E1200D9CFE6FFE1CFD9FFE652CD
:1026B000BEDF0201409740990201040EF46F020E42
:1026C000F56FDF6A100EDF5C0AE2DF50EA6AF4257C
:1026D000E96EF551EA227F0EEF6EDF2AF3D7020191
:1026E0001D6B010E1E6FC20E1F6F0201408502019D
:1026F000226B236B0201006B026B036B010ED56E24
:10270000320ED76ECF0ED66ED59E000EE66E020E3E
:10271000E66E8BD8E552E55202014093000EE66E5C
:10272000020EE66E82D8E552E55202014093E55270
:10273000E552E7CFD9FF1200828280889492929866
:102740001200F2920201200EF06F9F86020140A952
:1027500006D00201E00EED6F000EEE6F05D0020113
:10276000C00EED6F000EEE6F020140A1407940A750
:1027700006D00201800EEB6F000EEC6F05D0020157
:10278000A00EEB6F000EEC6FC9CFF1F2EBC2E9FFC8
:10279000ECC2EAFFEB2B000EEC23EF50C96E1200E7
:1027A0009E96C9CFF1F20201F051000823E2EDC27A
:1027B000E9FFEEC2EAFFED2B000EEE23F1C2EFFFC0
:1027C000EBC2E9FFECC2EAFFEB2BEC23EFCFF1F217
:1027D000F1C2C9FFF007F0510CE10201020E1E6FB9
:1027E000020140934081320ED76ECF0ED66EF29426
:1027F000D58E01D0C96A1200D9CFE6FFE1CFD9FF4B
:10280000020140A10ED0FD0EDBCFE6FFFE0EDBCFB6
:10281000E6FF94EC21F0E552E5529D9602014091CD
:102820009D86E552E7CFD9FF1200D9CFE6FFE1CF71
:10283000D9FF020140B332D0FD0EDBCFE9FFFE0E1F
:10284000DBCFEAFF1E0EE926000EEA22EF50020857
:1028500009E1FD0EDBCFE6FFFE0EDBCFE6FF69D818
:10286000E552E552FD0EDBCFE9FFFE0EDBCFEAFFBE
:10287000150EE926000EEA22EF9EFD0EDBCFE6FFE5
:10288000FE0EDBCFE6FF02EC21F0E552E5529D960D
:102890000201407740839D8602011D2BE552E7CF60
:1028A000D9FF12009D96020140919D861200D9CF5A
:1028B000E6FFE1CFD9FF00013E6BD950FD0FE96E75
:1028C000FF0EDA20EA6E010EEE1801E1ED5002E192
:1028D0003E8101D0BA6AD950FB0FE96EFF0EDA20B3
:1028E000EA6E010EEE1801E1ED5002E13E8301D0E7
:1028F000B76AD950F90FE96EFF0EDA20EA6E010EC1
:10290000EE1801E1ED5002E13E8501D0736AD95025
:10291000F70FE96EFF0EDA20EA6E010EEE1801E104
:10292000ED5002E13E8701D0706AE552E7CFD9FF52
:102930001200D9CFE6FFE1CFD9FFFD0EDBCFE9FFD3
:10294000FE0EDBCFEAFF1C0EE926000EEA22EF6A3C
:10295000FD0EDBCFE9FFFE0EDBCFEAFF170EE92607
:10296000000EEA22EF6AC6AE0ED0C69EFD0EDBCF89
:10297000E9FFFE0EDBCFEAFF170EE926000EEA2282
:10298000010EEF6E22D0F150800B10E0F250080BD8
:102990000DE0FD0EDBCFE9FFFE0EDBCFEAFF170EE9
:1029A000E926000EEA22020EEF6E0FD0F0A60DD03F
:1029B000909EFD0EDBCFE9FFFE0EDBCFEAFF170E88
:1029C000E926000EEA22030EEF6E250EC614250836
:1029D00019E0FD0EDBCFE9FFFE0EDBCFEAFF1C0E98
:1029E000E926000EEA22010EEF6EFD0EDBCFE9FFB5
:1029F000FE0EDBCFEAFF170EE926000EEA22C6CF55
:102A0000EFFF80D1C55019E0FD0EDBCFE9FFFE0ED0
:102A1000DBCFEAFF1C0EE926000EEA22020EEF6E63
:102A2000FD0EDBCFE9FFFE0EDBCFEAFF170EE92636
:102A3000000EEA22C5CFEFFF65D1D0BE19D0FD0E42
:102A4000DBCFE9FFFE0EDBCFEAFF1C0EE926000E0E
:102A5000EA22030EEF6EFD0EDBCFE9FFFE0EDBCFA9
:102A6000EAFF170EE926000EEA22D0CFEFFF4AD187
:102A70009DB619D0FD0EDBCFE9FFFE0EDBCFEAFFDE
:102A80001C0EE926000EEA22040EEF6EFD0EDBCFCF
:102A9000E9FFFE0EDBCFEAFF170EE926000EEA2261
:102AA0009DCFEFFF2FD19C5019E0FD0EDBCFE9FF4A
:102AB000FE0EDBCFEAFF1C0EE926000EEA22050E11
:102AC000EF6EFD0EDBCFE9FFFE0EDBCFEAFF170E48
:102AD000E926000EEA229CCFEFFF14D1080E9F5C7E
:102AE00019E0FD0EDBCFE9FFFE0EDBCFEAFF1C0E87
:102AF000E926000EEA22060EEF6EFD0EDBCFE9FF9F
:102B0000FE0EDBCFEAFF170EE926000EEA229FCF6A
:102B1000EFFFF8D0A25019E0FD0EDBCFE9FFFE0E6B
:102B2000DBCFEAFF1C0EE926000EEA22070EEF6E4D
:102B3000FD0EDBCFE9FFFE0EDBCFEAFF170EE92625
:102B4000000EEA22A2CFEFFFDDD0A55019E0FD0E66
:102B5000DBCFE9FFFE0EDBCFEAFF1C0EE926000EFD
:102B6000EA22080EEF6EFD0EDBCFE9FFFE0EDBCF93
:102B7000EAFF170EE926000EEA22A5CFEFFFC2D02A
:102B8000100EF214100819E0FD0EDBCFE9FFFE0E67
:102B9000DBCFEAFF1C0EE926000EEA22090EEF6EDB
:102BA000FD0EDBCFE9FFFE0EDBCFEAFF170EE926B5
:102BB000000EEA22F2CFEFFFA5D0470EF11419E084
:102BC000FD0EDBCFE9FFFE0EDBCFEAFF1C0EE92690
:102BD000000EEA220A0EEF6EFD0EDBCFE9FFFE0EBD
:102BE000DBCFEAFF170EE926000EEA22F1CFEFFF56
:102BF00089D0C00EF01419E0FD0EDBCFE9FFFE0E08
:102C0000DBCFEAFF1C0EE926000EEA220B0EEF6E68
:102C1000FD0EDBCFE9FFFE0EDBCFEAFF170EE92644
:102C2000000EEA22F0CFEFFF6DD092A819D0FD0E72
:102C3000DBCFE9FFFE0EDBCFEAFF1C0EE926000E1C
:102C4000EA220C0EEF6EFD0EDBCFE9FFFE0EDBCFAE
:102C5000EAFF170EE926000EEA2292CFEFFF52D0CC
:102C600093B019D0FD0EDBCFE9FFFE0EDBCFEAFFFC
:102C70001C0EE926000EEA220D0EEF6EFD0EDBCFD4
:102C8000E9FFFE0EDBCFEAFF170EE926000EEA226F
:102C900093CFEFFF37D03E0E94141C0819E0FD0EC1
:102CA000DBCFE9FFFE0EDBCFEAFF1C0EE926000EAC
:102CB000EA220E0EEF6EFD0EDBCFE9FFFE0EDBCF3C
:102CC000EAFF170EE926000EEA2294CFEFFF1AD092
:102CD00097BE18D0FD0EDBCFE9FFFE0EDBCFEAFF7B
:102CE0001C0EE926000EEA220F0EEF6EFD0EDBCF62
:102CF000E9FFFE0EDBCFEAFF170EE926000EEA22FF
:0C2D000097CFEFFFE552E7CFD9FF12009C
:042D0C004E9E05D002
:102D10004E9E46AE02D0466C4E8E46C040F03F6A94
:102D2000526A516A860E416E426A7EEF19F04E9EDB
:102D300008D04E9E46AE05D0456C461EE86A462237
:102D40004E8E46C040F045C03FF0526A516A8E0E2A
:102D5000416E426A7EEF19F04E9E0CD04E9E46AEFA
:102D600009D0436C441E451E461EE86A4422452293
:102D700046224E8E46C040F045C03FF044C052F05F
:102D800043C051F09E0E416E426A7EEF19F04C7EB8
:102D90004E6ABAEC19F0D2EC19F04EB662EF19F0A7
:102DA0004EA20AD04EAA03D04EBE62EF19F04EA436
:102DB0006EEF19F06BEF19F04EAA05D04EAC6EEF26
:102DC00019F06BEF19F04EA00AD04EA808D04EBEF5
:102DD00004D04EA402D077EF19F07BEF19F0516ABE
:102DE000426A4C50475C506E10E344C052F045C0FC
:102DF0003FF046C040F047C04FF049C044F04AC0E1
:102E000045F04BC046F04E3A09D049C052F04AC096
:102E10003FF04BC040F04CC04FF0506C4E9E4EBC4B
:102E20004E8E4FC041F04EB0AAEF19F01A0E50600E
:102E3000AAEF19F0416A476A4EA408D0446C451EB7
:102E4000461E471EE86A4522462247224EAC08D05D
:102E5000526C3F1E401E411EE86A3F224022412222
:102E6000436A505207E047344632453244324332D7
:102E7000502EF9D74450522645503F22465040220A
:102E80004750412243C051F04E9E41AE0BD0516C91
:102E9000521E3F1E401E411EE86A52223F2240221F
:102EA00041224E8E41A006D0D88040323F3252326D
:102EB00051324F2A4FC041F07EEF19F04E6ABAEC02
:102EC00019F0D2EC19F04EB662EF19F04EA205D00F
:102ED0004EBA62EF19F069EF19F04EBA75EF19F0BA
:102EE0004EA005D04EB862EF19F075EF19F04EB84C
:102EF00069EF19F0426A7F0E4724416EE86A422268
:102F00004C50415EE86A425A1A0E4F6E476A516A47
:102F1000526A3F6A406A4950445E4A50455A4B5093
:102F2000465A000E475A09E7495044264A5045225E
:102F30004B504622000E472201D0518AD890443689
:102F4000453646364736D890513652363F364036AB
:102F50004F2EE1D7465045104410D8A4518A7EEF39
:102F600019F04E6ABAEC19F0D2EC19F04EB662EFD5
:102F700019F04EA205D04EB862EF19F069EF19F0C2
:102F80004EAA05D04EB062EF19F069EF19F04EB0BD
:102F900002D04EA802D075EF19F0426A4C50472477
:102FA000416EE86A42227E0E415EE86A425A516AE8
:102FB000526A3F6A406A4B504602F4CF40F0F3CF6A
:102FC0003FF04A504602F3505226F4503F22000E82
:102FD00040224B504502F3505226F4503F22000E3F
:102FE000402249504602F3505126F4505222000E1E
:102FF0003F2240224A504502F3505126F4505222BB
:10300000000E3F2240224B504402F3505126F45010
:103010005222000E3F22402249504502F4505126D0
:10302000000E52223F2240224A504402F4505126C0
:10303000000E52223F2240227EEF19F04D6A4BAE25
:1030400027EF18F04A6C4B1EE86A4B224D1E46AE25
:103050002FEF18F0456C461EE86A46224D1EDFEC45
:1030600034F046BE3FEF18F04DAE000C456C461EE6
:10307000E86A4622416C421EE86A4222000C4DBEBC
:1030800036EF18F04E88FF0C4D6AE86A4BAE51EFF0
:1030900018F0486C491E4A1E4B1E49224A224B22F8
:1030A0004D1E46AE5CEF18F0436C441E451E461E96
:1030B0004422452246224D1E9CEC34F046BE73EF5E
:1030C00018F04DAE000C436C441E451E461EE86AC7
:1030D0004422452246223F6C401E411E421E402291
:1030E00041224222000C4DBE63EF18F04E88FF0CC7
:1030F00046C052F045C051F045504A02F4CF44F06A
:10310000F3CF43F046504B02F4CF46F0F3CF45F0F7
:103110004A02F3504426F4504522E86A46225150B0
:103120004B02F3504426F4504522E86A46224BAE47
:103130009EEF18F05150455E5250465A52AE000C68
:103140004A50455E4B50465A000C4E6ABAEC19F094
:103150004EB6AFEF18F04EA20AD04EB403D07F0E99
:10316000466E19D0800E466E16D0466A14D04EB008
:10317000FCD7870E4760F1D77E0E4764F6D7860EE0
:10318000475C04E0D8904632472AF9D74EA403D0D2
:10319000466C46AEEAD712004E6ABAEC19F04EB64B
:1031A000D6EF18F04EA20ED04EB405D07F0E466E6C
:1031B000FF0E456E1FD0800E466E456A1BD0466AD4
:1031C000456A18D04EB0FBD78F0E4760EDD77E0E04
:1031D0004764F5D78E0E475C05E0D89046324532FD
:1031E000472AF8D74EA406D0456C461EE86A462208
:1031F00046AEE5D712000DEC19F04EB6000C4EB0FD
:10320000000C4EB4000C010C0DEC19F04EB6000C85
:103210004EB0000C4EA4000C010C4E6ABAEC19F032
:10322000D2EC19F04EB612004EAE08D04EA004D02B
:103230004EA802D04E8012004E9012004C50475CB7
:103240000BE14B50465C08E14A50455C05E14950B2
:10325000445C02E14E801200D8A002D04E8E10D005
:1032600047504CC047F04C6E46504BC046F04B6E3A
:1032700045504AC045F04A6E445049C044F0496E3A
:103280004C50475C10E0FF0F09E04E904EB403D065
:103290004EAE4E8412004EAE4E9412004C2AD89080
:1032A0004B324A3249324950445E4A50455A4B509B
:1032B000465A46BEEAD7D890443645364636472E5B
:1032C000F8D7C8D77F0E476EFF0E466E456E446E28
:1032D00012007F0E4EBEFF0E476E02D07F0E476E6D
:1032E000800E466E456A446AF3D74EAE04D0800E17
:1032F000476E466AF7D7476A466AF4D740503F1090
:1033000052105110F8E042BEF0D740BE0CD04150F0
:103310004210EBE0D890513652363F3640364106E7
:10332000D8A04206F2D74250D4E14128D2E051AEB3
:1033300011D07F0E511402E152A00CD0522AE86A3B
:103340003F22402207E3D88040323F325232412AA6
:103350004128BFE04150C9E052C044F03FC045F0B1
:103360004034466E4130476E4632479E4EBE478ED1
:1033700068EF19F04636473602E34E844E7E06E18A
:103380004E80476A466A456A446A1200472803E04D
:10339000D88046321200D890463202E14E821200A6
:1033A0004E8612004B364C3602E34E8C4E7E06E1C2
:1033B0004E884C6A4B6A4A6A496A12004C2803E0FC
:1033C000D8804B321200D8904B32EAE14E8A12007C
:1033D000D9CFE6FFE1CFD9FF080EE1264CDA030E84
:1033E000EE185AE1ED5058E1DE6ADE6ADE6ADD6A07
:1033F000DD52DD5204019A519B113CE09AC400F069
:103400009BC401F0026A036AA0C443F0A1C444F063
:10341000456A466A44AE02D045684668486A870EE7
:10342000496E930E4A6E030E4B6ECBEC33F03FC0E9
:1034300043F040C044F041C045F042C046F00C0E9D
:10344000486E496A4A6A4B6A44EC18F000C048F07A
:1034500001C049F002C04AF003C04BF044EC18F040
:1034600043C0DEFF44C0DEFF45C0DEFF46C0DDFFD7
:10347000DD52DD52000E0401A06FA16B04019A6FB2
:103480009B6BDECF43F0DECF44F0DECF45F0DDCFE7
:1034900046F0DD52DD5296D0FD0EDBCFE6FFFE0E8C
:1034A000DBCFE6FF90D8E552E552040E43C0DBFFC8
:1034B000050E44C0DBFF060E45C0DBFF070E46C00D
:1034C000DBFFE0D9000E4718E8AE02D0473409D040
:1034D000000ED8804454000E4554000E4654000E91
:1034E000475449E3CFD9FD0E441808E1E868451870
:1034F00005E1E868461802E1E868471828E0FE0E92
:10350000441808E1E868451805E1E868461802E152
:10351000E86847182BE0E868441808E1E8684518AF
:1035200005E1E868461802E1E86847180CE04450F5
:103530001DE145501BE1465019E1475017E1710E5E
:10354000006E610E07D0630E006E610E03D0570E41
:10355000006E610E016E026A00C0E6FFE66E02C0F8
:10356000E6FFFFEC32F0E552E552E552436A446A69
:10357000456A466A27D0040EDBCF04F0050EDBCF88
:1035800005F0060EDBCF06F0070EDBCF07F0030ECB
:10359000D8900436053606360736E806F9E1006AA3
:1035A000870E016E930E026E030E036E94D9466E63
:1035B00004C048F005C049F006C04AF007C04BF00F
:1035C00044EC18F08FD1D9CFE6FFE1CFD9FF140E2C
:1035D000E1260C0EDB6A0D0EDB6A0E0EDB6A0F0EA7
:1035E000DB6A100EDB6A110EDB6A120EDB6A130E49
:1035F000DB6A41D9010EEE1819E1ED5017E1E20E38
:10360000DE6E030EDD6ED950020F56D99E0EEE6EA1
:10361000040EED6ED950040F4FD9980EEE6E040EC5
:10362000ED6E74D9F40EEE6E030E1CD024D9020E8A
:10363000EE181AE1ED5018E1D20EDE6E030EDD6ECB
:10364000D950020F39D99C0EEE6E040EED6ED95092
:10365000040F32D9960EEE6E040EED6E57D9F20EAF
:10366000EE6E030EED6E07D006D9030EEE1801E1E3
:10367000ED504368ECD0020EDBCFE9FF030EDBCF49
:10368000EAFF1ED9EECF00F0EFCF01F0010ED89087
:1036900000360136E806FBE1DE500024E96EDD501D
:1036A0000120EA6E02C0EEFF03C0EDFF080EDB6AE8
:1036B000090EDB6A080EDBCF00F0090EDBCF01F04C
:1036C000D890015004E6080E005C000E015858E244
:1036D000C2D8F6D8EECF06F0EFCF07F0010ED890A3
:1036E00006360736E806FBE1DE500624E96EDD50BB
:1036F0000720EA6EEE50025C006EEE500358016E39
:103700000A0E00C0DBFF0B0E01C0DBFF0A0EDBCF91
:1037100000F00B0EDBCF01F0D880015004E7F10E72
:10372000005CFF0E015826E30A0EDBCF02F00B0E01
:10373000DBCF03F0033404E202500F08000E035401
:1037400019E389D8D5D801AE02D002680368D950F0
:103750000C0FB2D80050EE260150EE220250EE229D
:103760000350EE22D950100FA7D8EE2A000EEE22F9
:10377000EE22EE22080EDB2A090E9CE3DB2A9AD702
:10378000C5D8EECFF3FFEDCFF4FF020EEE26000E0C
:10379000EF22F3CFE9FFF4CFEAFF81D80050011008
:1037A0000210031002E1FE0E51D00F0E006E016AEE
:1037B000026A036AD9500C0F7FD8EE500026EE50F3
:1037C0000122EE500222EE50032299D8EECF04F0EF
:1037D000EFCF05F0066A076A03500718E8AE02D07B
:1037E000073408D00450005C0550015806500258B8
:1037F0000750035806E283D87BD86DD803C046F043
:1038000029D0100EDBCF00F0110EDBCF01F0120E2D
:10381000DBCF02F0130EDBCF03F0005001100210DB
:10382000031013E03CD857D803C046F0100EDBCF8E
:1038300048F0110EDBCF49F0120EDBCF4AF0130E29
:10384000DBCF4BF044EC18F005D0FD0E436E44681E
:103850004568466847D0080EDBCF04F0090EDBCF81
:1038600005F0D89004360536DE500424E96EDD50AC
:103870000520EA6E1200D950FD0FE96EFF0EDA2026
:10388000EA6E1200040EDBCF44F0050EDBCF45F0EC
:10389000060EDBCF46F0070EDBCF47F012000C0E12
:1038A000DBCF00F00D0EDBCF01F00E0EDBCF02F010
:1038B0000F0EDBCF03F01200E96EDACFEAFF120041
:1038C000EECF02F0EFCF03F0060EDBCFE9FF070EDD
:1038D000DBCFEAFF120000C043F001C044F002C099
:1038E00045F01200D9CFE1FFE552E7CFD9FF120032
:1038F000EECF00F0EFCF01F0026A036A1200040E6F
:10390000DBCFE9FF050EDBCFEAFF1200D950060F2F
:043910005CEF1CF05C
:0C3914002DDA040EE1260401B8510AE18E
:10392000D1D8DF6EDF0404E10401010EB86F02D0CC
:10393000DF500108F6D9E76E010EE7CFDBFFDB5061
:10394000000817E2030EDB6A010EDB50F36E030E74
:10395000DBCFF4FFF350F45C0CE2E5D9E76E020E26
:10396000E7CFDBFFDBCFE6FF07D8E552030EDB2A0C
:10397000EBD7D9CFE1FF01D2FBD90401BF51060A31
:1039800001E17FD0030A60E0060A2EE0010A23E08D
:10399000030A01E096D0FE0EDB50006E016AFF0EB6
:1039A000001804E1015002E1020E8AD0FE0EDB5045
:1039B000410806E10401020E2B6F0401050E80D0C0
:1039C000FE0EDB504E0801E07CD00401020E2B6F8E
:1039D0000401060E75D0FE0EDB50540870E10401A0
:1039E0002A6B0401030E6CD004012A51006E016A97
:1039F000080E005C000E01580AE22A51EA6A080F1C
:103A0000E96E040EEA22FE0EDBCFEFFF2A2B2A51CD
:103A1000006E016A080E001854E1015052E108C41A
:103A200000F409C401F40AC402F40BC403F40CC486
:103A300004F40DC405F40EC406F40FC407F4040125
:103A4000B92B000EBA233BD0020E04012B5D04E11A
:103A5000FE0EDB50430824E0030E2B5D04E1FE0E56
:103A6000DB504B081DE0040E2B5D09E1FE0EDB5020
:103A70000D0805E10401BB2B000EBC2320D004017E
:103A80001ED0020E04012B5D04E1FE0EDB50430844
:103A900007E0030E2B5D06E1FE0EDB504B0802E152
:103AA0002B2B0FD0040E2B5D09E1FE0EDB500D0811
:103AB00005E10401BD2B000EBE2301D00401010E5F
:103AC000BF6F5BD155D9E6520401C00507E100D9AB
:103AD000050EE66E06D9E5520401C06BC1050DE185
:103AE000C16B04012D6B010E2C6F2E6B2F6B306B95
:103AF0000401BB6BBC6BBD6BBE6B04012D0528E1E3
:103B00000401010EBB5D000EBC5905E304012D6BE1
:103B10002E6B2F6BC3D0010EBD5D000EBE5903E3AB
:103B200004012C05BAD004010A0E2E5D000E2F5997
:103B30000BE3800E2C25006E016A000E01220006A8
:103B4000015A00C030F4AAD02E2B000E2F23A6D08D
:103B50000401BB6BBC6BBD6BBE6B04012C51120A24
:103B600001E19AD0030A01E180D0010A01E177D096
:103B70001F0A6FE0010A67E0030A5FE0010A57E0ED
:103B8000070A4FE0010A45E0030A3DE0010A35E07B
:103B90000F0A2DE0010A25E0030A1DE0010A15E0E5
:103BA000070A0DE0010A07E0030A01E077D090D888
:103BB0000401020E01D0030E2C6F2D6B6FD0800E0E
:103BC000E66E290EC6D8040E63D0200EE66E130EE4
:103BD000C0D8050E5DD0840EE66E2D0EBAD8060E46
:103BE00057D0800EE66E2A0EB4D8070E51D0200EA4
:103BF000E66E2B0EAED8080E4BD0840EE66E2D0E60
:103C0000A8D8090E45D0200EE66E120EA2D80A0ED4
:103C10003FD0E66AE66A7DD8E552E55204010B0E14
:103C200037D0800EE66E010E94D80C0E31D0800E87
:103C3000E66E020E8ED80D0E2BD0800EE66E030EB1
:103C400088D80E0E25D0010EE66E060E82D80F0E15
:103C50001FD0010EE66E100E7CD8100E19D0E66A49
:103C60004ED8E5520401110E13D0910EE66E640E8B
:103C7000E66E100EE66E0F0EE66E730EE66E550ED5
:103C8000E66E16D8F56E060EE15EF5500401120ED2
:103C90002C6F010E2D6F02D0010E306F30510008D5
:103CA00003E20401010EC16F04013051E55265D0F9
:103CB0005FD8540E54D8430E52D8060E62D8FC0E6C
:103CC00052D8FB0E50D8FA0E4ED8F90E4CD855D01B
:103CD0000D0EAFEF1EF00401B86B12000401B851D5
:103CE000120046D8520E3BD84D0E39D8200E37D888
:103CF000FE0EDB50300F33D80D0E31D83ED038D801
:103D00004E0E2DD8460E2BD8010E29D8FE0E2BD8DC
:103D100034D02ED8430E23D8520E21D8020E31D8DB
:103D20002CD0BCEF2AF0E3EF2AF022D8FE0EDBCF36
:103D3000E6FF1BEC2BF0E55220D0B3EF2AF0C5EFE5
:103D40002AF016D8FE0EDBCFE6FF01EC2BF0E55291
:103D500014D0E66EDEDFE552E55204011200E66E95
:103D6000E4DFE5521200DBCFE6FFDFDFE5521200B1
:103D7000D9CFE6FFE1CFD9FF1200E552E7CFD9FF57
:0E3D80001200EDDFFE0EEFDFFD0EB3EF1EF0C2
:023D8E0004012E
:103D9000AA0E3D6F3D0E3E6F8C0E3F6F3F0E406F83
:103DA000580E416F400E426F1200D9CFE6FFE1CFAF
:103DB000D9FF040EE1260401C851C91101E1E0D088
:103DC000340EE66EE66AFD0EDBCFE6FFFE0EDBCFBD
:103DD000E6FF000EE66E0F0EC5D90E0EE66EE66A21
:103DE0008AD9E9CF00F0EACF01F0E9CFE6FFEACFC8
:103DF000E6FF340EE66E0F0EB5D9AFD9C10E4C6E8C
:103E000071D9FBEC18F0010A18E1C1D904EC19F0E2
:103E1000010A13E1C8D904EC19F0010A07E10F0106
:103E2000346B356B480E366FC10E06D00F01346B04
:103E3000356B480E366F410E376F24CF00F025CF1B
:103E400001F08B0E4A6E180E4B6E24CF45F025CF35
:103E500046F01EEC18F041C0DEFF42C0DDFF92D9F3
:103E60000001800E011408E0D9CFE9FFDACFEAFFA4
:103E70008B0EEE26180EED220F013851DE5C006E1F
:103E80003951DD58016E020E00C0DBFF030E01C088
:103E9000DBFF89D9FBEC18F0010A1FE173D90F0190
:103EA00001503919E8AE02D0393504D03851005CE0
:103EB000395101581FE3680E2425006E010E25219B
:103EC000016E020EDB500001005C0F01386F030E23
:103ED000DB50000101580F0123D054D90F01395193
:103EE0000118E8AE02D0013404D00050385D015012
:103EF000395907E2020EDB50245D386F030EDB50A8
:103F00000ED0020EDBCF00F0030EDBCF01F0680E07
:103F10000026010E01220050245D386F0150255902
:103F2000396F3ACF46FF3BCF47FF3CCF48FF3DCFED
:103F300049FF3ACF42FF3BCF43FF3CCF44FF3DCF49
:103F400045FF25D9C8EC16F08CD8E8D844C042FF0C
:103F500045C043FF46C044FF47C045FF18D9C7ECE2
:103F600016F07FD8E5D844C046FF45C047FF46C09D
:103F700048FF47C049FF0401C66BC76BC86BC96BDC
:103F8000D9CFE1FFE552E7CFD9FF1200D9CFE6FF45
:103F9000E1CFD9FF0401C851C91155E1D3D8EECF03
:103FA00000F0EFCF01F00F014051385D026E395142
:103FB0004155036EE8500118E8AE02D0013404D038
:103FC0000050025C0150035816E2BCD8EECF04F05A
:103FD000EFCF05F038514025066E39514121076E6B
:103FE00005500718E8AE02D0073404D00650045C30
:103FF0000750055828E353D891D844C000F0CCD8D6
:104000007AD80C0E7FD84BD893D8C6D874D8100E57
:1040100079D81A0E0401C627000EC723C7510F0115
:104020003F19E8AE02D03F3507D03E510401C65DCE
:104030000F013F510401C75908E35DD8100E9AD80B
:104040005AD80C0E97D8F36A02D0010EF36EF46AB8
:10405000E552E7CFD9FF1200010E0401C86FC96B0A
:10406000120044C004F045C005F046C006F047C049
:1040700007F034CF49F035CF4AF036CF4BF037CF89
:104080004CF05EEC17F044C000F086D844C049F014
:1040900045C04AF046C04BF047C04CF012002C0E11
:1040A000E66E010EE66E3ECFE6FF3FCFE6FFC6C4EA
:1040B000E6FFC7C4E6FF26EC28F0F56E060EE15ECB
:1040C000F55043C004F044C005F045C006F046C0BA
:1040D00007F043C049F044C04AF045C04BF046C029
:1040E0004CF0120034CF44F035CF45F036CF46F0D7
:1040F00037CF47F01200FB0EDBCFE9FFFC0EDBCF22
:10410000EAFF1200E926000EEA2244C0EEFF01C0D9
:10411000EEFF02C0EEFF03C0EEFF120042CF44F0FC
:1041200043CF45F044CF46F045CF47F0B1EF17F00D
:1041300046CF44F047CF45F048CF46F049CF47F04F
:10414000B1EF17F0FD0EDBCFE9FFFE0EDBCFEAFF8C
:10415000240EE926000EEA221200496A4A6A480E35
:104160004B6E1200E66EA6EC31F0F56E060EE15EC7
:10417000F5501200E926000EEA22EE6AEE6AEE6AB7
:10418000EE6A1200DECF00F0DDCF01F01200E5DFB5
:10419000410E4C6E72EF20F045C001F046C002F0B7
:1041A00047C003F01200496A4A6A4B6A4C6A72EFD0
:0241B00020F0FD
:0E41B200000EE96EEA6E0400E6EC20F0EA2A48
:1041C000080EEA5CD8A4DCEF20F01200EF6AE93EAA
:1041D000E6EF20F01200FF0EE3CF31F031380F0B85
:1041E000060FD8B2070F2A0FAD6EC9EC2EF0315072
:1041F0000F0B060FD8B2070F2A0FAD6EC9EC2EF0C9
:10420000000C1200EACF2CF0E9CF2DF0FF0EE3CF27
:10421000EAFFFE0EE3CFE9FF40A741D0EECFA0F0CA
:10422000EECFA1F0EECFA2F0EECFA3F0EECFA4F050
:10423000EECFA5F0EECFA6F0EECFA7F0EECFA8F030
:10424000EECFA9F0EECFAAF0EECFABF0EECFACF010
:10425000EECFADF0EECFAEF0EECFAFF0EECFB0F0F0
:10426000EECFB1F0EECFB2F0EECFB3F0EECFB4F0D0
:10427000EECFB5F0EECFB6F0EECFB7F0EECFB8F0B0
:10428000EECFB9F0EECFBAF0EECFBBF0EECFBCF090
:10429000EECFBDF0EECFBEF0EECFBFF040D0EECF10
:1042A00080F0EECF81F0EECF82F0EECF83F0EECF54
:1042B00084F0EECF85F0EECF86F0EECF87F0EECF34
:1042C00088F0EECF89F0EECF8AF0EECF8BF0EECF14
:1042D0008CF0EECF8DF0EECF8EF0EECF8FF0EECFF4
:1042E00090F0EECF91F0EECF92F0EECF93F0EECFD4
:1042F00094F0EECF95F0EECF96F0EECF97F0EECFB4
:1043000098F0EECF99F0EECF9AF0EECF9BF0EECF93
:104310009CF0EECF9DF0EECF9EF0EECF9FF02CC044
:10432000EAFF2DC0E9FF120040A11200EACF2CF0F5
:10433000E9CF2DF0FF0EE3CFEAFFFE0EE3CFE9FF5A
:1043400040A941D0C0C0EEFFC1C0EEFFC2C0EEFF29
:10435000C3C0EEFFC4C0EEFFC5C0EEFFC6C0EEFF97
:10436000C7C0EEFFC8C0EEFFC9C0EEFFCAC0EEFF77
:10437000CBC0EEFFCCC0EEFFCDC0EEFFCEC0EEFF57
:10438000CFC0EEFFD0C0EEFFD1C0EEFFD2C0EEFF37
:10439000D3C0EEFFD4C0EEFFD5C0EEFFD6C0EEFF17
:1043A000D7C0EEFFD8C0EEFFD9C0EEFFDAC0EEFFF7
:1043B000DBC0EEFFDCC0EEFFDDC0EEFFDEC0EEFFD7
:1043C000DFC0EEFF40D0E0C0EEFFE1C0EEFFE2C094
:1043D000EEFFE3C0EEFFE4C0EEFFE5C0EEFFE6C097
:1043E000EEFFE7C0EEFFE8C0EEFFE9C0EEFFEAC077
:1043F000EEFFEBC0EEFFECC0EEFFEDC0EEFFEEC057
:10440000EEFFEFC0EEFFF0C0EEFFF1C0EEFFF2C036
:10441000EEFFF3C0EEFFF4C0EEFFF5C0EEFFF6C016
:10442000EEFFF7C0EEFFF8C0EEFFF9C0EEFFFAC0F6
:10443000EEFFFBC0EEFFFCC0EEFFFDC0EEFFFEC0D6
:10444000EEFFFFC0EEFF2CC0EAFF2DC0E9FF120017
:10445000F2B412003E500F0AD8B41200FF0EE3CFA0
:1044600032F0FE0EE3CF33F0FD0EE3CF34F0FC0E5E
:10447000E3CF35F0322A3EA08D8E332A3EA28F80C4
:10448000342A3EA48F86352A3EA68F88366A376A3C
:10449000386A396A7BEC22F0322E51EF22F03EA0CE
:1044A0008D9E332E56EF22F03EA28F90342E5BEF7E
:1044B00022F03EA48F960000352E61EF22F03EA63A
:1044C0008F980000362E66EF22F03A900000372ECB
:1044D0006BEF22F03A920000382E70EF22F03A94FF
:1044E0000000392E75EF22F03A969DEC22F03B3E0B
:1044F0004CEF22F01200D70E3B6E000000000000CF
:10450000000093EC22F03B2E7DEF22F0D70E3B6EA5
:10451000000000000000000093EC22F03B2E88EF2A
:1045200022F000001200000096EF22F000000000D0
:1045300000000000000000001200030E3C6E0000AE
:084540003C2E9FEF22F0120057
:08454800D9CFE6FFE1CFD9FF56
:104550000A0EE1260F0159510401B91904E10F01B6
:104560005A510401BA1901E138D1B9C459FFBAC48A
:104570005AFF0401015101E1B6D00F01010E5B6F3A
:1045800002010D51DE6EDD6A04010051006E016A08
:104590004F0E005E000E015A060E00C0DBFF070E34
:1045A00001C0DBFF47D901340DE200500308000EC3
:1045B000015408E254D91AE1010EF36E040EF3CF50
:1045C000DBFF12D037D9D880015004E7FD0E005C24
:1045D000FF0E015807E243D909E1040EDB68050E1E
:1045E000DB6804D0040EDB6A050EDB6A45684668AA
:1045F000040EDBCF4AF0050EDBCF4BF078EC18F061
:1046000044C001F0D9CFE9FFDACFEAFF4350EE26EC
:104610000150ED220AD90001800E011402E0DE6A89
:104620000AD003D9013408E20050F808000E015402
:1046300003E2F80EDE6EDD6ADFCF0DF20201EDD887
:1046400004010151006E016A770E005E000E015AEE
:10465000080E00C0DBFF090E01C0DBFFF2D80134F9
:104660000DE200500808000E015408E201D91AE1D9
:10467000010EF36E040EF3CFDBFF12D0E2D8D88028
:10468000015004E7F80E005CFF0E015807E2F0D875
:1046900009E1040EDB68050EDB6804D0040EDB6A5A
:1046A000050EDB6A040EDBCF00F0050EDBCF01F058
:1046B000E7D80050EE260150ED22ABD804E6AA0E52
:1046C000005C000E015802E2AA0E0BD0DFD80134C4
:1046D00001E380D00050F008000E015401E37AD0CD
:1046E000F00EB6D877D00F015C2B5C51050875E24F
:1046F0005C6B5B0505E15B6BDE6ADD6A900E41D0A9
:1047000002010D51DE6EDD6A88D80F015D515E1128
:1047100009E18BD8D890015004E6F80E005C000E39
:1047200001580EE25D515E112EE0DECF02F0DDCFCA
:1047300003F0033404E202500008000E035423E3A4
:104740005D515E1102E0000E01D0010E5D6F5E6BE7
:10475000800B01E05E695DD804E6F00E005C000E9F
:10476000015802E3AA0E0DD08BD8170EEE26000ECC
:10477000ED224FD804E6F00E005C000E015828E34D
:10478000F00E66D825D05D515E1110E13E0EDE269A
:10479000000EDD224AD8D890015004E6F80E005CE5
:1047A000000E015815E3F80EDE6E11D0D9CFE9FFE7
:1047B000DACFEAFF3E0EEE5E000EED5A36D8013437
:1047C00004E200500008000E015402E3DE6ADD6AD4
:1047D000DFCF0DF2020EDBCF0EF2D9CFE1FFE552B3
:1047E000E7CFD9FF1200DBCF46F000C04AF001C08E
:1047F0004BF01EEC18F0040E45C0DBFF050E46C062
:10480000DBFFD950040FE96EDACFEAFFEE50ED106E
:1048100012003CD8D890015012000E51E66E30D8EC
:10482000E552E750EE6EED6A1200DECF00F0DDCF0C
:1048300001F01200060EDBCF00F0070EDBCF01F017
:104840001200080EDBCF00F0090EDBCF01F01200E2
:10485000F36E020EF3CFDBFF030EDB6A1200030ED2
:10486000006E016A060EDBCF45F0070EF3EF23F072
:10487000080E006E016ADBCF45F0090EF3EF23F05E
:10488000D950020FE96EDACFEAFF1200020EDBCF39
:0A48900000F0030EDBCF01F0120070
:06489A007BD9E652C80EB6
:1048A0000F014A6F4B6B010E4E6F4F6F040E4C6F32
:1048B0004D6BDF6A4E51DF5C08E2DF5073D9EE6A60
:1048C000EE6AEE6AEE6ADF2AF5D7566B576B586BC5
:1048D000010EC26EC16A860EC06E9F9C9E9C9D8C0E
:1048E0004ACFE6FF4BCFE6FF0BD8E552E552E55243
:1048F00055D14FD9E65246D89D9CC26AE5524ED159
:1049000048D9FD0EDBCF45F0FE0EDBCF46F045501B
:1049100002E1190E461828E0800E451802E10C0E3F
:1049200046181EE0400E451802E1060E461816E035
:10493000200E451802E1030E46180EE0900E4518B1
:1049400002E1010E461806E0C80E451811E1465076
:104950000FE10ED0520E09D0520E03D0510E05D0E9
:10496000510ECA6E450E07D0500ECA6E8C0E03D083
:104970006A0ECA6EDD0ECB6ECC6A9F929E929D82AD
:10498000CA840CD19D92CA94120003D9020EE1266A
:10499000FE0EDBCF00F00F014E51D88000540CE327
:1049A0009D9CFE0EDB04E96EEA6A10D9EECFDEFFB5
:1049B000EDCFDDFF9D8C02D0DE6ADD6ADECF00F038
:1049C000DDCF01F000C0F3FF01C0F4FFD9CFE1FF5C
:1049D000E5D0DFD8FD0EDBCF00F0FE0EDBCF01F01F
:1049E000026A036A880E486E130E496E4A6A4B6A61
:1049F00000C043F001C044F002C045F003C046F0DF
:104A0000CBEC33F03FC000F040C001F041C002F0F9
:104A100042C003F0486A080E496E4A6A4B6A3FC0BA
:104A200043F040C044F041C045F042C046F044EC81
:104A300018F043C000F044C001F045C002F046C089
:104A400003F043C0F3FF44C0F4FFA8D0A2D8E6525D
:104A50009D9CE5C4DFFF9D8CDF50E5529FD09D9C5F
:104A60000401E56B9D8C1200C282120092D8050EE3
:104A7000E126C450DE6EDD6AD9CFE9FFDACFEAFF66
:104A8000EE50ED6EEF6AC350DE26000EDD22DECF63
:104A900000F0DDCF01F0026A036A0F01585182D89D
:104AA0000050EE260150EE220250EE220350EE227C
:104AB000582B4E51585D04E3586B562B000E57236C
:104AC000020E58CFDBFFDB50040D020EF3CFDBFFED
:104AD000DB80DB50C26E4C51565D4D5157594AE355
:104AE000030EDB6A040EDB6A67D801AE02D0D890F1
:104AF00003D0005C000E015820E23FD80F014F5157
:104B00001F0BEECF00F0EECF01F0EECF02F0EECFB4
:104B100003F007E0D8900332023201320032E80697
:104B2000F9E15CD853D800C0EEFF01C0EDFF030EE1
:104B3000DB2A040ED9E3DB2AD7D7030EDB6A040E87
:104B4000DB6A3AD801AE02D0D89003D0005C000EE8
:104B500001580BE212D8EE6AEE6AEE6AEE6A030EB4
:104B6000DB2A040EEEE3DB2AECD70401E52B0F0170
:104B7000566B576BD9CFE1FF11D030D8D890E936BA
:104B8000EA36D890E936EA36500EE9260F0EEA22C8
:104B90001200D9CFE6FFE1CFD9FF1200E552E7CFEF
:104BA000D9FF1200040DF3CFE9FFF4CFEAFF500E56
:104BB000E9260F0EEA221200030EDBCF00F0040EEE
:104BC000DBCF01F00F014E5100011200D890E93601
:104BD000EA36540EE9260F0EEA221200030EDBCF4E
:0A4BE000E9FF040EDBCFEAFF12002C
:064BEA000401060E376F06
:104BF0004C0E386FEE0E396F4C0E3A6FD60E3B6F7F
:104C00004D0E3C6F1200D9CFE6FFE1CFD9FF040E65
:104C1000E1260401CC51CD1164E0340EE66EE66A63
:104C2000FD0EDBCFE6FFFE0EDBCFE6FF410EE66EAC
:104C3000020E2CD9080EE66EE66A51D9E9CF00F0D3
:104C4000EACF01F0E9CFE6FFEACFE6FF750EE66EA8
:104C5000020E1CD90201800E66153EE165C200F00D
:104C600066C201F08B0E4A6E180E4B6E65C245F09F
:104C700066C246F01EEC18F041C0DEFF42C0DDFF08
:104C8000DECF00F0DDCF01F00001800E011408E05E
:104C9000D9CFE9FFDACFEAFF8B0EEE26180EED2210
:104CA00002017951DE5C006E7A51DD58016E020E10
:104CB00000C0DBFF030E01C0DBFF020EDBCF00F004
:104CC000030EDBCF01F012D9240E26D90050EE5C82
:104CD000796F0150EE587A6F0401CA6BCB6BCC6BC5
:104CE000CD6BD9CFE1FFE552E7CFD9FF1200D9CF85
:104CF000E6FFE1CFD9FF0401CC51CD1163E1F40E01
:104D0000E66E010EE66E7BC2E6FF7CC2E6FFCAC419
:104D1000E6FFCBC4E6FF26EC28F0F56E060EE15E5A
:104D2000F55043C004F044C005F045C006F046C04D
:104D300007F043C049F044C04AF045C04BF046C0BC
:104D40004CF075C244F076C245F077C246F078C2A6
:104D500047F0B1EC17F070D8100EDED844C0EEFF6B
:104D6000A3D8BDD80C0ED8D800C0EEFF9DD8020144
:104D7000800E7A1504E134D8C0D832D803D066D872
:104D8000BCD864D859D80C0E66D8C7EC16F075D8C4
:104D90001A0E0401CA27000ECB23CB5102017C1945
:104DA000E8AE02D07C3507D07B510401CA5D020118
:104DB0007C510401CB5908E392D8100E6FD88FD8DC
:104DC0000C0E6CD8F36A02D0010EF36EF46AE55251
:104DD000E7CFD9FF1200010E0401CC6FCD6B12009A
:104DE00085D8240E68D879C245F07AC246F099EC8D
:104DF00016F044C00EF045C00FF046C010F047C09A
:104E000011F082D844C00AF045C00BF046C00CF047
:104E100047C00DF044C049F045C04AF046C04BF0D1
:104E200047C04CF004C044F005C045F006C046F051
:104E300007C047F0C7EF16F044C000F045C001F0CE
:104E400046C002F047C003F06FEF27F04FD8220EA4
:104E500032D884EF27F060D8EECF44F0EECF45F0A3
:104E6000EECF46F0EFCF47F000C049F001C04AF066
:104E700002C04BF003C04CF0120047C0EDFF46C02B
:104E8000EDFF45C0EDFF44C0EFFF1200E66EA6EC5B
:104E900031F0F56E060EE15EF55012003DD8EE6A77
:104EA000EE6AEE6AEE6A120001C0EEFF02C0EEFF8B
:104EB00003C0EEFF120030D8EECF08F0EFCF09F0BC
:104EC00008C045F009C046F099EC16F044C004F063
:104ED00045C005F046C006F047C007F01200FB0EC3
:104EE000DBCFE9FFFC0EDBCFEAFF1200FD0EDBCFCC
:104EF000E9FFFE0EDBCFEAFF12009EDF100EABDFF4
:104F0000C8EC16F03DEF27F0496A4A6A200E4B6E56
:104F1000410E4C6E5EEF17F0E926000EEA221200F9
:104F2000D9CFE6FFE1CFD9FF080EE126D950F90F1E
:104F3000E96EFF0EDA20EA6E040EEECFDBFF050EFF
:104F4000EECFDBFF060EEECFDBFF070EEECFDBFF73
:104F5000F50EDBCF00F0F60EDBCF01F0F70EDBCF66
:104F600002F0F80EDBCF03F0F10EDBCF04F0F20E0F
:104F7000DBCF05F0F30EDBCF06F0F40EDBCF07F04E
:104F800004C049F005C04AF006C04BF007C04CF021
:104F90003CD9C7EC16F044C0DEFF45C0DEFF46C07A
:104FA000DEFF47C0DDFFDD52DD520FD9010EEE18E6
:104FB00011E1ED500FE1E8D8040EC7D8DFCFA6F419
:104FC000010EDBCFA7F4020EDBCFA8F4030EDBCF7C
:104FD000A9F429D0FAD8020EEE1811E1ED500FE134
:104FE000D3D8040EB2D8DFCFA2F4010EDBCFA3F4E6
:104FF000020EDBCFA4F4030EDBCFA5F414D0E5D86A
:10500000030EEE1810E1ED500EE1BED8C80E9DD88B
:10501000DFCFAAF4010EDBCFABF4020EDBCFACF492
:10502000030EDBCFADF4040EDBCF00F0050EDBCFBB
:1050300001F0060EDBCF02F0070EDBCF03F0D3D872
:10504000D9CFE1FFD9D0D9CFE6FFD6D0D9CFE6FF6F
:10505000E1CFD9FFC1D8F90EDBCF02F0FA0EDBCFDA
:1050600003F001500318E8AE02D0033401D0C8D8D1
:1050700010E2FD0EDBCF45F0FE0EDBCF46F09AD8F6
:1050800044C008F045C009F046C00AF047C00BF024
:1050900042D0A2D8FB0EDBCF04F0FC0EDBCF05F034
:1050A000F90EDB50045C026EFA0EDB500558036EFD
:1050B00001500318E8AE02D0033401D0A1D807E2B2
:1050C000006A016A800E026E3F0E036E3CD084D8E7
:1050D000B7D801500318E8AE02D0033401D090D8FD
:1050E0002EE2FB0EDBCF0AF0FC0EDBCF0BF0FD0E49
:1050F000DB500A5C086EFE0EDB500B58096E08C0D0
:1051000045F0466E57D844C00CF045C00DF046C07F
:105110000EF047C00FF082D804C044F005C045F03F
:1051200006C046F007C047F05EEC17F044C000F040
:1051300045C001F046C002F047C003F004D0006A49
:10514000016A026A036A4FD857D04B6E420E4C6E0A
:1051500008C044F009C045F00AC046F00BC047F053
:105160005EEC17F064D85AD850D8C8EC16F0040E8C
:1051700044C0DBFF050E45C0DBFF060E46C0DBFF6B
:10518000070E47C0DBFF1200F90EDBCF00F0FA0E6E
:10519000DBCF01F055D8D9CFE9FFDACFEAFFEECF68
:1051A00008F0EECF09F0EECF0AF0EFCF0BF0496A2E
:1051B0004A6A120099EC16F03AD8F90EDBCF45F0A6
:1051C000FA0EDBCF46F099EF16F0D950FD0FE96EDD
:1051D000FF0EDA20EA6E1200FD0EDBCF00F0FE0EAD
:1051E000DBCF01F0120000C043F001C044F002C068
:1051F00045F003C046F01200E552E7CFD9FF120098
:105200000250005C03500158120000C044F001C07D
:1052100045F002C046F003C047F0120044C049F018
:1052200045C04AF046C04BF047C04CF0120044C0A5
:1052300004F045C005F046C006F047C007F0120074
:0E524000FB0EDBCF02F0FC0EDBCF03F0120002
:02524E00D8CFB7
:10525000E4FFE0CFE4FFE46EDACFE4FFE2CFDAFF71
:10526000E9CFE4FFEACFE4FFF3CFE4FFF4CFE4FFBC
:1052700000EE3FF0140EE80403E3EECFE4FFFBD7AB
:1052800000EE00F0280EE80403E3EECFE4FFFBD7C6
:10529000E652D9CFE6FFE1CFD9FF020EE126F25068
:1052A000040B07E0F250200B04E0F29406EC31F01E
:1052B000AFD09E50010B07E09D50010B04E09E9083
:1052C00007EC31F0A5D09E50020B07E09D50020B79
:1052D00004E09E9234EC25F09BD0A150020B07E035
:1052E000A050020B04E0A19208EC31F091D0A45040
:1052F000080B07E0A350080B04E0A49609EC31F07A
:1053000087D0F050020B07E0F050100B04E0F09251
:1053100012EC31F07DD0F050040B07E0F050200B80
:1053200004E0F0941AEC31F073D0F250010B43E03A
:10533000F250080B40E08150DF6EF290DF500F0119
:105340005F19E76E010EE7CFDBFFDFCF5FFFDBA862
:105350000AD0100EDF1402E0010E01D0000EE66E3E
:1053600022EC31F0E552010EDBAA0AD0200EDF1448
:1053700002E0010E01D0000EE66E2CEC31F0E55299
:10538000010EDBAC0AD0400EDF1402E0010E01D0AA
:10539000000EE66E2DEC31F0E552010EDBAE38D09A
:1053A000800EDF1402E0010E01D0000EE66E2EEC3E
:1053B00031F0E5522DD09E50400B07E09D50400B40
:1053C00004E09E9C36EC25F023D09E50200B06E096
:1053D0009D50200B03E035EC2BF01AD0A450200B8D
:1053E00006E0A350200B03E054EC2BF011D09E50AC
:1053F000100B06E09D50100B03E073EC2BF008D06F
:10540000A450100B05E0A350100B02E08BEC2BF026
:10541000D9CFE1FFE552E7CFD9FFE55200EE27F003
:10542000280EE80403E3E5CFEDFFFBD700EE52F0D2
:10543000140EE80403E3E5CFEDFFFBD7E5CFF4FF5F
:10544000E5CFF3FFE5CFEAFFE5CFE9FFE5CFDAFFF0
:10545000E550E5CFE0FFE5CFD8FF100002017F0E59
:105460000B6F0A6F096F086F076F066F056F046F88
:10547000136F126F116F106F0F6F0E6F0D6F0C6F38
:105480008C928D928C908D908C968D968C948D9420
:105490008C9A8D9A8C988D988C9E91908C9C8D9CDA
:1054A000020121AD24D0020140A1FAD7200EE66E00
:1054B000020EE66EFCEC13F0E552E55294EC05F0BA
:1054C00013C2E6FF12C2E6FF11C2E6FF10C2E6FFFA
:1054D00028EC22F0E552E552E552E552000EE66E68
:1054E000020EE66E15EC14F0E552E552D9D7120023
:1054F00026EC25F0000904E05DEC2CF02FEC25F003
:02550000120097
:0E550200150EAF6EAC849D9A9D98AC98AC9E31
:10551000948EAB9CAB96AB8AAB889F9A9D8A040114
:10552000E369E469949CAC9CAC969F989D88AC8A96
:10553000AB8E1200150E6F6E6C84A39AA3986C98B4
:105540006C9E98846B9C6B966B8A6B88A59AA38AD9
:105550000401E369E46998926C9C6C96A598A38811
:105560006C8A6B8E120007D9E6529D9A82C4DFFFC7
:105570009D8ADF50E552FBD0FED8E652A39A8EC436
:10558000DFFFA38ADF50E552F2D0F5D8E6520401DE
:105590007F5102E0000E15D08051EA6A000FE96EDB
:1055A000010EEA22EFCFDFFF8207802B1F0E80174C
:1055B0009D9A8151805D02E1010E7F6F9D8A7E6B15
:1055C000DF50E552D4D0D7D8E65204018B5102E027
:1055D000000E15D08C51EA6A400FE96E010EEA22E6
:1055E000EFCFDFFF8E078C2B1F0E8C17A39A8D51E8
:1055F0008C5D02E1010E8B6FA38A8A6BDF50E5524E
:10560000B6D0B9D804018551FDE18851EA6A200F6E
:10561000E96E010EEA22FE0EDBCFEFFF892B882B0D
:105620001F0E88179D988851875D02E1010E856FD6
:105630009D88866B9CD09FD804019151FDE19451C7
:10564000EA6A600FE96E010EEA22FE0EDBCFEFFF81
:10565000952B942B1F0E9417A3989451935D02E100
:10566000010E916FA388926B82D004017E5102E0FB
:105670009D9A12008151EA6A000FE96E010EEA223A
:10568000AECFEFFFABA203D0AB98AB88832BABB40C
:10569000842B822B812B1F0E81178151805D02E1AB
:1056A000010E7E6F7F6B120004018A5102E0A39A03
:1056B00012008D51EA6A400FE96E010EEA226ECFA8
:1056C000EFFF6BA203D06B986B888F2B6BB4902B82
:1056D0008E2B8D2B1F0E8D178D518C5D02E1010ECF
:1056E0008A6F8B6B12000401865102E09D981200B4
:1056F0008751EA6A200FE96E010EEA22EF50AD6E83
:105700008907872B1F0E87178851875D02E1010EDD
:10571000866F856B12000401925102E0A39812007B
:105720009351EA6A600FE96E010EEA22EF506D6E46
:105730009507932B1F0E93179451935D02E1010E71
:10574000926F916B120017D804017D510FE07D0517
:1057500005E1FE0EDBCFE6FF54DF07D0020E7D5DD4
:1057600005E1FE0EDBCFE6FF66DFE55200D0E55235
:10577000E7CFD9FF1200D9CFE6FFE1CFD9FF120062
:105780000101EF6BF06BF16BF26BF96B1200EDC185
:1057900043F0EEC144F0456A466A44AE02D0456823
:1057A0004668F7D8080E496E4A6A4B6A44EC18F00E
:1057B00043C000F044C001F0E80E0102F3CF01F055
:1057C000030E0002F3500126E80E0002F3CF00F0B2
:1057D000F4500126E80E4A6E030E4B6EF3CF45F0EF
:1057E00001C046F01EEC18F045C0F3FF46C0F4FFC0
:1057F0001200EFC143F0F0C144F0F1C145F0F2C135
:1058000046F0C7D8900E496E010E4A6E4B6A44ECC2
:1058100018F0E80E486E030E496EAED8E80E486EDA
:10582000030E496E4A6A4B6A44EF18F00101F951C0
:1058300008E1F36BF46BF56BF66BF76BF86B010E2D
:10584000F96F12000101F9051EE1F7C100F0F8C17E
:1058500001F0026A036AF3C143F0F4C144F0F5C1F8
:1058600045F0F6C146F0F7C148F0F8C149F002C072
:105870004AF003C04BF09CEC34F043C0EBF144C061
:10588000ECF10101F96B1200EBC1F3FFECC1F4FF85
:105890001200D9CFE6FFE1CFD9FFFD0EDBCFEBF150
:1058A000FE0EDBCFECF1E552E7CFD9FF120001018C
:1058B000EF6BF06BF16BF26B1200D9CFE6FFE1CF2B
:1058C000D9FF020EE1260101F90512E1010EE66E93
:1058D000C5EC24F0E552F3500101F3270001F45028
:1058E0000101F423000EF523F623F72BF8233ED015
:1058F000010EE66EC5EC24F0E5520101EB51F35CBC
:10590000006EEC51F45800C0DEFFDD6EDECF00F01B
:10591000DDCF01F0D880015004E7F80E005CFF0EE7
:1059200001580BE3DECF02F0DDCF03F003341CE2BD
:1059300002500808000E035417E2DECFEDF1DDCF70
:10594000EEF1DECF00F0DDCF01F0026A036A01AEB6
:1059500002D0026803680050EF270150F023025084
:10596000F1230350F22302D0ED6BEE6BD9CFE1FFB0
:10597000E552E7CFD9FF12004A6A4B6ACBEC33F00D
:105980003FC043F040C044F041C045F042C046F043
:105990001200740E486E050E496EEEDF050E486E5D
:0859A000496AEADF486A1200BF
:0859A8000401C40E556F590EF5
:1059B000566F180E576F5A0E586FB60E596F5B0E12
:1059C0005A6F1200D9CFE6FFE1CFD9FF0401B051E1
:1059D000B1111EE0340EE66EE66AFD0EDBCFE6FF87
:1059E000FE0EDBCFE6FF9E0EE66E030EE66EA6EC25
:1059F00031F0F56E060EE15EF5500401AE6BAF6B53
:105A0000B06BB16BB269B369B46BB56BB66BB76BA6
:105A1000E552E7CFD9FF1200D9CFE6FFE1CFD9FF9A
:105A20000E0EE1260401B051B11114E1B251B419C6
:105A300002E1B351B5195FE0020EB41901E1B551AD
:105A400027E0010EB41901E1B55120E0B45101E1A4
:105A5000B55102E0F36AA8D0010EB66FB76BDE6AEB
:105A6000DE6A900EDE6E420EDD6EDD52DD52040EF9
:105A7000DB6A050EDB6AC40EF36E060EF3CFDBFFA6
:105A8000090EF36E070EF3CFDBFF08D0040E01D032
:105A9000050EB66FB76B020EDE6EDD6AB6C4E9FFA7
:105AA000B7C4EAFF060EEA02F3CFEAFFE902F3CF3A
:105AB000E9FFF450EA26310EE926040EEA22EECF81
:105AC00000F0EFCF01F0D9CFE6FFDACFE6FFFD0E11
:105AD000DBCFE6FFFE0EDBCFE6FF04D001C0FAFF0E
:105AE0000050F96EFBDFE552E552E552E552B4C4D1
:105AF000B2F4B5C4B3F4B6C4E9FFB7C4EAFF060E06
:105B0000EA02F3CFEAFFE902F3CFE9FFF450EA2615
:105B1000310EE926040EEA22020EE926000EEA22E0
:105B2000EECF02F0EFCF03F0FB0EDBCFE6FFFC0E73
:105B3000DBCFE6FFFD0EDBCFE6FFFE0EDBCFE6FFA1
:105B400004D003C0FAFF0250F96EFBDFE552E552C4
:105B5000E552E552F3CF00F0F350F41023E1B6C460
:105B6000E9FFB7C4EAFF060EEA02F3CFEAFFE90253
:105B7000F3CFE9FFF450EA26310EE926040EEA22BB
:105B8000040EE926000EEA22EECF00F0EFCF01F07E
:105B900004D001C0FAFF0050F96EFBDF0401B42B02
:105BA000000EB523010EF36EF46AD9CFE1FFE55282
:105BB000E7CFD9FF1200010E0401B06FB16B1200E4
:105BC0000401DC0E5B6F5B0E5C6F300E5D6F5C0E74
:105BD0005E6F880E5F6F5D0E606F1200D9CFE6FFBB
:105BE000E1CFD9FF0301F851F9111EE0340EE66E42
:105BF000E66AFD0EDBCFE6FFFE0EDBCFE6FF360EDC
:105C0000E66E030EE66EA6EC31F0F56E060EE15E72
:105C1000F5500301F66BF76BF86BF96BFA69FB69EA
:105C2000FC6BFD6BFE6BFF6BE552E7CFD9FF1200FB
:105C3000D9CFE6FFE1CFD9FF0E0EE1260301F851DF
:105C4000F91102E0F36A99D0FB0EDBCFE9FFFC0EFD
:105C5000DBCFEAFF180EE926000EEA22010EEE6EF7
:105C6000ED6AFA51FC1902E1FB51FD192DE0FEC36A
:105C7000E9FFFFC3EAFF060EEA02F3CFEAFFE902FB
:105C8000F3CFE9FFF450EA26310EE926040EEA22AA
:105C9000EECF00F0EFCF01F0D9CFE6FFDACFE6FF8D
:105CA000FD0EDBCFE6FFFE0EDBCFE6FF04D001C02A
:105CB000FAFF0050F96EFBDFE552E552E552E5527E
:105CC000FCC3FAF3FDC3FBF3FEC3E9FFFFC3EAFF26
:105CD000060EEA02F3CFEAFFE902F3CFE9FFF45040
:105CE000EA26310EE926040EEA22020EE926000E0B
:105CF000EA22EECF02F0EFCF03F0FB0EDBCFE6FFA0
:105D0000FC0EDBCFE6FFFD0EDBCFE6FFFE0EDBCFAA
:105D1000E6FF04D003C0FAFF0250F96EFBDFE55244
:105D2000E552E552E552F3CF00F0F350F41023E1D1
:105D3000FEC3E9FFFFC3EAFF060EEA02F3CFEAFF64
:105D4000E902F3CFE9FFF450EA26310EE926040E0A
:105D5000EA22040EE926000EEA22EECF00F0EFCF91
:105D600001F004D001C0FAFF0050F96EFBDF03011F
:105D7000FC2B000EFD23010EF36EF46AD9CFE1FF78
:105D8000E552E7CFD9FF1200010E0301F86FF96B5E
:025D90001200FF
:0E5D92009EA8FED71200B4D8FE0EDBCFE6FFAF
:105DA000EBEC20F0E552A9D0ACD80401E150FD0F96
:105DB000C26FFF0EDA20C36F010EEA6AC225E96ED8
:105DC000C351EA22A3D8C2C4E9FFC3C4EAFF9ED8E4
:105DD00094D097D80401C46B1A0EC45D0DE2FD0E79
:105DE000DBCFE9FFDB2AFE0EDBCFEAFF01E3DB2A94
:105DF0008DD80401C42BF0D780D00401200EC26FCF
:105E0000020EC36F020120510401DA6FDB6BDC511B
:105E1000DA1902E1DD51DB1916E0020140B50ED0BE
:105E2000DCC4E6FFEBEC20F0E552DAC4E6FFEBEC75
:105E300020F0E5520D0EAD6EACDF02014095DAC4E4
:105E4000DCF4DBC4DDF40401DC2B000EDD23DD35E6
:105E500007E2DC51FF08000EDD5502E2DC6BDD6B72
:105E60001200150EE66E3C0EE66E6AEC34F0E5525A
:105E7000E552320EE66E2AEC35F0E552120041D8BA
:105E8000FE0EDBCFC5F448D03CD8020EE1260F0E43
:105E9000E66EFE0EDB507F0BFE0BFD0BE66EF10E89
:105EA000E66E03EC34F0E552E552E5520A0EE66E7A
:105EB00058EC35F0E5526FEC35F007EC04F00009D2
:105EC000FCE1C0EC34F06CEC35F0C450026E036EB3
:105ED000026AC35000010210006E03C001F0DE6EC2
:105EE00003C0DDFFDECF00F0DDCF01F000C0F3FF27
:105EF00001C0F4FFD9CFE1FF0FD00D0EAD6E49DF29
:105F00000BD0D9CFE6FFE1CFD9FF1200EF50E66EFC
:105F1000EBEC20F0E5521200E552E7CFD9FF12007A
:105F20000401DF510401B91904E10401E051040145
:105F3000BA195CE00401DE2B050EDE5D57E3DE6B73
:105F40000401015108E1480E006E610E5ED8E55271
:105F5000E552E5521200450E006E610E56D8E5522C
:105F6000E552E55202010D51006E016A7C0E005EA1
:105F7000000E015A410E63D87C0E50D8290E026ED5
:105F8000610E35D802010E51006E016A900E005E5E
:105F9000000E015A190E53D8320E40D80D0E026E63
:105FA000610E25D804010051006E016A4F0E50D8D1
:105FB000F10E026E600E1BD804010151006E016AE1
:105FC000770E46D8D50E026E600E11D80401065128
:105FD000E66EE66AB90E006E600E42D80401075103
:105FE000E66EE66A9D0E006E600E3AD81200036EF1
:105FF000046A02C0E6FFE66E04C0E6FFFFEC32F082
:10600000F56E050EE15EF5501200016E026A00C0E9
:10601000E6FFE66E02C0E6FFFFEF32F04A6E4B6A23
:10602000F3CF45F001C046F01EEC18F045C000F07B
:1060300046C001F045C0E6FF46C0E6FF120001027F
:10604000F3CF01F00002F3CF00F0F450012612006C
:10605000005E000E015A00C0E6FF01C0E6FF12001C
:0C606000D4DFF56E050EE15EF550120075
:04606C00446F6E65AA
:106070000D000D43616C63756C6174696E67204738
:1060800079726F20426961732E2E2E004779726FEC
:10609000202B20456E636F646572730D00436F6E35
:1060A000666964656E63652028506978656C73293C
:1060B00020203D2025750D0A0020426C6F62205380
:1060C000697A652028506978656C732920203D2005
:1060D00025750D0A0054696C74204572726F722028
:1060E00028506978656C732920203D2025640D0AAD
:1060F000002050616E204572726F722028506978BE
:10610000656C732920203D2025640D0A0054696CBC
:106110007420416E676C65202864656772656573DD
:1061200029203D2025640D0A002050616E20416E1B
:10613000676C6520286465677265657329203D205A
:1061400025640D0A000D0A00536561726368696E6B
:10615000672E2E2E0D0A00436F756E74207A6572BD
:106160006F0D00496C6C6567616C20736964650D27
:0B617000006D732030207774660D0076
:01617B000023
:04617C009384F09E7A
:10618000F198F092F0889386F192F196F094F08A6B
:106190009388938A938C938EF19081CF5FFFF290D6
:1061A000F2961200D66AD76AD590D592D594D58644
:1061B000D598D59AD59CF194F294F29AD59E120076
:1061C000CE6ACF6ACD98CD9ACD96CD92CD8E9F9046
:1061D0009E909D90CD901200B26AB36AB198B19A28
:1061E000B192B184B18EA292A192A092B19012000C
:1061F000786AF90E776E76867698769A768C7680BF
:106200007692A596A496A3867684120012001200B8
:1062100012000401962B000E9723982B99239A2B9A
:106220009B23120098C49EF499C49FF40401986BB8
:10623000996B120096C49CF497C49DF40401966B6C
:10624000976B1200D9CFE6FF0401A02B000EA1230B
:10625000E552E7CFD9FF120002D001D000D0D9CF4C
:0A626000E6FFE552E7CFD9FF120078
:06626A000401860E316FF5
