:020000040000FA
:0608000048EF37F0120082
:02080600FEFFF3
:0608080030EF12F01200B7
:02080E00C250D6
:08081000020B01E0010E1200D1
:0608180082EF2CF012003B
:02081E001000C8
:100820009C6F000045040000040000009B6F000066
:10083000FF02000001000000916F0000230400008F
:100840000A000000896F00002D040000080000006D
:10085000856F00004104000004000000796F000073
:100860000D0400000C000000606F0000A9030000F0
:1008700019000000060800004B0400000200000000
:100880005D6F0000FD03000003000000576F0000D3
:10089000F902000006000000536F00003D04000054
:1008A00004000000496F0000190400000A00000065
:1008B000456F00003904000004000000416F000093
:1008C00035040000040000002E6F0000D703000074
:1008D00013000000136F0000FF0100000100000082
:1008E000D9EC0BF0520EDE6E5F0EDD6E938A9388AC
:1008F0009386938499829980938E938C9A849A821A
:10090000998699849A8A9A8894809A869A8E9A9CD3
:10091000919C02017F0E8B6F8A6F896F886F876F42
:10092000866F856F846F936F926F916F906F8F6FEB
:100930008E6F8D6F8C6F000EC9EC0AF0C9EC0AF057
:100940009CEC13F0F56E080EE15EF5500301010E0C
:10095000A96FD4EC2DF0EDEC2DF050EC33F054EC0D
:1009600034F076EC34F08EEC34F0D6EC0BF0C7DBE0
:1009700069EC0BF08AEC37F0A1EC0AF0DECFE6FF71
:10098000DDCFE6FF2A0E006E5F0E92EC0AF0050E38
:10099000E15EF550E1EC12F04BEF0AF003012C0E92
:1009A000D880D755010ED85503E3D72B000ED82396
:1009B0000A0ED71907E1D85105E1100E006E5F0E3F
:1009C000B4EC09F003013C0ED71904E1D85102E15F
:1009D0008CEC30F02C0E0301D7190CE1010ED81964
:1009E00009E198EC30F0CDEC30F00A0E006E5F0EAD
:1009F000B4EC09F0A00EE66E020EE66E41EC13F0C8
:100A0000E552E55203012C0ED75D010ED8595DE386
:100A100077EC30F07CEC0AF049EC30F0AAEC0AF00C
:100A2000EA0E046E5E0E056E066A04C0E6FFE66E10
:100A300006C0E6FF6DEC35F0F56E070EE15EF55091
:100A40006ED808C1E6FF09C1E6FF0AC1E6FF0BC187
:100A5000E6FF0CC1E6FF0DC1E6FF0EC1E6FF0FC1C8
:100A6000E6FFD30E006E5E0E92EC0AF00B0EE15E16
:100A7000F5509F0E88EC0AF07CEC0AF0970E88EC9B
:100A80000AF0AAEC0AF0AF0E88EC0AF0F3CF04F0FB
:100A9000F4CF05F0B0EC0BF0A70E88EC0AF0F3CF22
:100AA00006F0F4CF07F0B0EC0BF0920E086E5E0E7D
:100AB000096E0A6A08C0E6FFE66E0AC0E6FF6DEC42
:100AC00035F0F56E0B0EE15EF55093C2E6FF92C273
:100AD000E6FF91C2E6FF90C2E6FF5CEC33F0B5ECB6
:100AE0000AF0A1EF0AF08B0E006E5E0EB4EC09F076
:100AF000BEEC0BF0CBEC09F0F1D9B5EC0AF0D6EC7A
:100B00000BF06AD969EC0BF034C146F135C147F1FD
:100B10007B0E006E5E0EB4EC09F0C3EF0BF057ECE9
:100B20001FF0CEEC27F0BEEC0BF0D6EC0BF047D864
:100B300069EC0BF0C3EC0BF00201A1AB1FD0B7C204
:100B40003CF0CBEC15F07FEC0AF0710E3F6E3D0EE1
:100B5000406E7A0ED8EC09F0800EB0EC0AF0D4ECBE
:100B600009F03F6A406A200E416E410E426EF6EC7B
:100B700016F0EAEC17F03CC080F215D08F0E88EC2E
:100B80000AF07CEC0AF06D0E026E5E0E036E046AD3
:100B900002C0E6FFE66E04C0E6FF6DEC35F0F56ED0
:100BA000050EE15EF550020180938150040B01E0D7
:100BB000808380978150080B01E080871200D9EC78
:100BC0000BF01CEC0CF0A9C2EFFFBCDBA8C2EFFFDE
:100BD0000201A3A907D0BDDB140EC2DB010EEE6E2D
:100BE000ED6A04D0A2A902D0C9EC0BF081EC0BF0A5
:100BF00012E01CEC0CF0EF50DE6EDD6AA3DBB9EC0A
:100C00000BF0DECF00F0DDCF01F0FF0EDDEC0BF0DE
:100C100099DB00C0EFFFA2AD09D0A3B503D0F9EC7A
:100C20000BF002D0F3EC0BF0EF6E08D0A3AB06D0C4
:100C30004CEC0BF0EF6A48EC0BF0EF6A48EC0BF071
:100C4000EF50020804E048EC0BF0EF0408E1A3B514
:100C500003D0F9EC0BF002D0F3EC0BF0EF6EA3A392
:100C600004D09CEC0BF0EF6803D09CEC0BF0EF6A27
:100C7000A3A704D0A0EC0BF0EF6803D0A0EC0BF01E
:100C8000EF6AA2A104D0A4EC0BF0CF0E09D0A2A36E
:100C900004D0A4EC0BF02F0E03D0A4EC0BF07F0ECD
:100CA000EF6E70EC0AF004E6F50E005C000E0158E1
:100CB00011E38DEC0AF004E20250FF08000E035429
:100CC00009E3660E006E5E0EF0EC0BF0720EEE6E37
:100CD000010E45D070EC0AF004E6DB0E005C000E5D
:100CE00001580FE38DEC0AF004E20250E508000E13
:100CF000035407E35F0E006E5E0EF0EC0BF0200E67
:100D000015D0EEDB04E6C10E005C000E015811E3C5
:100D10008DEC0AF004E20250CB08000E035409E304
:100D2000580E006E5E0EF0EC0BF0CA0EEE6E020E68
:100D300016D0D6DB04E6A70E005C000E015811E3C6
:100D4000ECDB04E20250B108000E03540AE3510E3A
:100D5000006E5E0EF0EC0BF0AD0EEE6E030EED6E5F
:100D600023D0BEDB04E68F0E005C000E01581EE3AC
:100D7000D4DB04E202509908000E035417E3030188
:100D8000D95118E1A8EC0BF0EECF00F0EFCF01F055
:100D9000140E005E000E015A3CEC0BF000C0EEFF9A
:100DA00001C0EDFF010ED96F55DB04D0ACEC0BF0A8
:100DB000A6C2EFFF020194DB04E68F0E005C000E7A
:100DC000015807E3AADB07E202509908000E03541A
:100DD00002E20301D96B5FD3D9EC0BF00301DA51C6
:100DE000DB1108E1DA2B000EDB2349DB770EE66E20
:100DF000010E6EDB44DB630EE66E010E69DBA9DAE1
:100E0000080EFDEC0AF0770EE66E010E47DBCCDA39
:100E100044EC0BF0B5EC0BF09CDA0C0EEEDB630E41
:100E2000E66E010E3BDBCFEC0BF040EC0BF0B5ECCB
:100E30000BF040EC0BF06EEC0BF008E040EC0BF02C
:100E4000EE6AEE6A7E0EEE6E430E07D040EC0BF0BB
:100E50007DEC0BF003E00FEC0CF0EE6E44EC0BF0CD
:100E60006EEC0BF008E044EC0BF0EE6AEE6A7E0EDE
:100E7000EE6E430E07D044EC0BF07DEC0BF003E07C
:100E800012EC0CF0EE6E65DA0C0E78EC0BF003E071
:100E90000FEC0CF0EE6E5DDA080E78EC0BF003E070
:100EA00012EC0CF0EE6EECDB87EC0BF0E552E75049
:100EB000EF6EEADB87EC0BF0EE52E552E750EF6E97
:100EC00081EC0BF009E01CEC0CF0B9EC0BF03ADA19
:100ED000F4DA38DA00C0EFFFBDDADDD2F4DA0E0E54
:100EE000E126D9D2F0DA27DAEE52EFCF87F287C2C5
:100EF00085F221DAE2DA00C086F200C084F2E7EC83
:100F00000BF0EFCF89F217DA040E2ADAEFCF8AF26C
:100F100012DA050E25DAEFCF8BF20DDA020E20DAA7
:100F2000EFCF8DF208DA030E1BDAEFCF8CF203DA83
:100F3000060E16DAEFCF88F2FED9070E11DAEFCFE0
:100F40008EF2EDD3C0DA040EE126010EA9DB040E09
:100F500007DA39C0EEFF77DA020EA2DB39C0EEFF06
:100F600072DAE9D9040EFCD91DDB0C0EF9D9B5EC07
:100F70000BF0E1D917DB080EF3D9F7DBC2DB24E075
:100F8000E7EC0BF0EECFDFFF010EEECFDBFF020E42
:100F9000EECFDBFF030EEECFDBFFCDD90C0EE0D999
:100FA000E8D9E7EC0BF000C0EEFF4DDAC4D90C0E27
:100FB000D7D9DFCFEEFF010EDBCFEEFF020EDBCF86
:100FC000EEFF030EDBCFEEFFB6D90C0E34DB140EB2
:100FD000C7D91EDAB0D9080E2EDB100EC1D918DA27
:100FE0000301375102E1000E01D0010E006E016ACB
:100FF00000BE0168A0D9180EB3D900C0EEFF01C031
:10100000EDFF8EC23CF0CBEC15F03AC01AF03BC0BD
:101010001BF03CC01CF03DC01DF03F6A406A040E4E
:10102000416E430E426E0CEC16F03AC016F03BC017
:1010300017F03CC018F03DC019F03F6A406A040E3A
:101040008FDA3AC012F03BC013F03CC014F03DC040
:1010500015F03F6A406A820EA1DAF6EC16F03AC04B
:101060000EF03BC00FF03CC010F03DC011F03F6AE5
:10107000406A400E416E426E0CEC16F03AC00AF027
:101080003BC00BF03CC00CF03DC00DF0D00E3F6EED
:101090000F0E406E490E416E400E426EF6EC16F099
:1010A0003AC006F03BC007F03CC008F03DC009F074
:1010B0003F6A406A340E54DA3AC002F03BC003F093
:1010C0003CC004F03DC005F030DAF6EC16F011EC4F
:1010D00018F03BC000F03CC001F02DD91A0E40D9E9
:1010E0003BC0EEFF01C0EDFF89DB9FDB8F0E10DA06
:1010F00069DB2EDBF3CFEEFF01C0EDFFCCD1E3D9EE
:101100001AD9040EB6DA64D916D90C0EB2DA080E62
:10111000B0DA140EAEDA100EACDA340EEB6A350E1D
:10112000EB6A09D9300EEB6A310EEB6A04D9320E44
:10113000EB6A330EEB6ACDEC30F0FDD81C0EEB6A97
:101140001D0EEB6A5BDBBCDA160EEB6A170EEB6A60
:1011500020DBFFD80C0EB4DA080EB2DA100EEB6A00
:10116000110EEB6AF6D834D9F4D8040EA9DA180EA9
:10117000EB6A190EEB6AEDD81A0EEB6A1B0EEB6ADE
:10118000E1D8020EEDD87F0EEF6EDCD8030EE8D862
:101190007F0EEF6ED1DAEF6AD3DAEF6A4DDB7F0EA6
:1011A000EF6ED0D87F0EEF6E3DDBEE6E38DBEE6E6D
:1011B000D3DA7F0EEF6E70DAEF6AB1D20201809F50
:1011C000809B80958091809D80998097809312006C
:1011D0007AD9FD0EDBCF02F0FE0EDBCF03F0033435
:1011E00007E202500008000E035402E2CBD905D0FA
:1011F000C9D9006C011E000E012200C0F3FF01C01E
:10120000F4FF8DD260D9040EE1260301E251E3110F
:1012100013E1010EE26FE36B810EE66EE6687F0E6E
:1012200052DA000EE66EE66A870E4DDA030E4BDAEE
:101230008B0EE66E010E4CD9030137512AE00201F4
:101240008E51006E016A840E005E000E015A00C0CD
:10125000DEFF01C0DDFFE66EE66ADECFE6FFDDCF32
:10126000E6FF8B0EE66E010EB6DA020EF3CFDBFF61
:10127000030EF4CFDBFF7ED9A0DA5DD8EE5200C0BA
:10128000EFFF78D90026000E012255D800C0EFFFED
:101290000AD00301E26BE36B4ED8EE527F0EEF6E85
:1012A0004AD87F0EEF6EF7D00ED90301E451E51155
:1012B0000BE0E2D9EECF00F0EFCF01F00050E819DB
:1012C00002E10150E91920E0410E006E5E0E4CD89B
:1012D0009ADA000E5ED9640EE66EE66A000EE66EDD
:1012E000E66A040EE66EE66A070EE66EE66A9F0E92
:1012F000E66E010EEDD8C0D9EECFE8F3EDCFE9F3FD
:10130000010E0301E46FE56BB7D9EECFE6FFEFCF37
:10131000E6FF1EDAEECFE6FFEFCFE6FF9F0EE66EAA
:10132000010E59DA4FDA7F0E0026000E012214DA80
:1013300000C0EFFFF4D1FD0EDBCFE9FFFE0EDBCFE7
:10134000EAFF1200F90EDBCFE9FFFA0EDBCFEAFF6E
:101350001200FB0EDBCFE9FFFC0EDBCFEAFF120031
:10136000E926000EEA221200DED9E552E552E552E6
:101370001200EECF00F0EECF01F0EECF02F0EFCF93
:1013800003F0120000C03AF001C03BF002C03CF094
:1013900003C03DF01200360EE66E010EE66E000E42
:1013A000E66E010EE66E12003AC000F0CFEF0BF0D1
:1013B000416E410E426EF6EC16F03AC004F03BC0AE
:1013C00005F03CC006F03DC007F03F6A406A1200DD
:1013D000EE6AEE6AEE6AEE6A1200EECF0EF0EECF23
:1013E0000FF0EECF10F0EFCF11F00EC03AF00FC0BB
:1013F0003BF010C03CF011C03DF011EC18F03BC0C8
:101400000CF03CC00DF03BC0E6FF3CC0E6FF120014
:10141000EECF3AF0EECF3BF0EECF3CF0EFCF3DF029
:1014200000C03FF001C040F002C041F003C042F0F4
:101430000DEC16F03DC0EDFF3CC0EDFF3BC0EDFFF5
:101440003AC0EFFF120001C0EEFF02C0EEFF03C082
:10145000EEFF1200F90EDBCFE6FFFA0EDBCFE6FF60
:10146000FB0EDBCFE6FFFC0EDBCFE6FFFD0EDBCF96
:10147000E6FFFE0EDBCFE6FF17DF69EF0BF0C3D907
:10148000040E21D9040EE66EE66A000EE66EE66AE8
:10149000210E63EF0BF0D9CFE1FF41D19CD9F3CFFF
:1014A00004F0F4CF05F07F0E0426000E052204C0E0
:1014B0003BF005C03CF0DEEF15F0EF50006E016A26
:1014C000FF0EDDEF0BF0D9CFE6FFE1CFD9FF120021
:1014D000E66E34EC19F0F56E120EE15EF550120076
:1014E000AB51006E016AD89001501200EE6AEE6AAC
:1014F000FE0EEE6E420E120065D9B0EF0BF03AC050
:1015000008F03BC009F03CC00AF03DC00BF01200EF
:10151000E66ECAEC31F0E5521200AB51026E036A7E
:101520000334120000D9F56E12003F6A406A7A0E49
:10153000416E440E426E1200520EE66E010EE66ED1
:101540001200800EE66E020EE66E5AEC13F0E552C3
:10155000E5521200F3CF02F0F4CF03F0B0EF0BF03E
:10156000416E430E426EA3EF16F0E552E552E5528E
:10157000E5521200020EDBCF00F0030EDBCF01F0CC
:101580007F0E1200FD0EDBCF00F0FE0EDBCF01F070
:101590001200E66EE66AE66EE66A1200416E420EE0
:1015A000426E1200EECF10F0EECF11F0EECF12F03F
:1015B000EFCF13F010C039F011C03AF012C03BF079
:1015C00013C03CF0F3EC15F03AC00CF03BC00DF04A
:1015D0003CC00EF03DC00FF0A8DFA3EC16F08FDF8B
:1015E0007C0E3F6ED90E406EA00EE2DE700ED6DF8E
:1015F000A3EC16F0D9DE9BEF09F0B2DEEECF08F0D7
:10160000EECF09F0EECF0AF0EFCF0BF008C03AF0C2
:1016100009C03BF00AC03CF00BC03DF011EC18F0E3
:101620003BC006F03CC007F03BC0E6FF3CC0E6FF15
:10163000CED8EDEF09F094DEEECF04F0EECF05F05A
:10164000EECF06F0EFCF07F0620E3F6EA10E406EB8
:10165000D60E416E3C0E426E04C03AF005C03BF01F
:1016600006C03CF007C03DF0F6EC16F09DDE9BEFA7
:1016700009F0DBD89BEF09F06CDE100EB0EF09F03B
:1016800061DE090EB0EF09F05DDE0D0EB0EF09F07E
:1016900052DE2E0EB0EF09F055DE060EB0EF09F067
:1016A000E66EE66AA7EC21F0E552E55239C000F09B
:1016B0003AC001F03BC002F03CC003F09BEF09F0E0
:1016C000B4D8A9EF09F0E66EE66A010EE66EE66AA6
:1016D0001200F56E060EE15EF5501200A9D87E0EDE
:1016E000416E430E426E4EDE50EC18F0010A1200BD
:1016F00037DE9ED8416A426A8DD09AD8FE0E4EDF00
:1017000089D027DE140E2CDEEE50ED10120031DEF3
:1017100039DEEAEC17F03C50E66EA2EF09F0E55234
:10172000E7CFD9FF1200016E026A00C0E6FFE66E45
:1017300002C0E6FF6DEF35F005DE040EB0EF09F0F4
:1017400001DE050EB0EF09F0FDDD070EB0EF09F088
:10175000F2DD340EB0EF09F0F5DD080EB0EF09F060
:10176000F3CFE6FFF4CFE6FF12003AC0EEFF23EF1F
:101770000AF0A3DE61D800C0EFFF12000CDEA2EC7D
:1017800007F0B5EF0AF0D8DE72EC07F0E552E5524B
:101790001200DFDD140EEB6A150EEB6A12003BC07F
:1017A00001F03CC002F03DC003F01200C5DECBEFFB
:1017B00009F089DE020EE1261200D8800056000EE4
:1017C00001561200F3CF00F0F4CF01F01200B3DDA8
:1017D000080EB0EF09F0E66EB1EC19F069EF0BF00E
:1017E000C3DD3CEF0BF058DF7F0EEF6E51DF020ED2
:1017F000120052DFEF684CDF010E12009CDD1E0E5E
:1018000038DF220E1200810EE66EE6687F0EE66E6D
:10181000E66A1200B7DD47EC18F0010A120030DF6B
:1018200076EF0AF031DF76EF0AF09ADDE8EF09F0A3
:0E183000A0DD3F6A406A120085DDEE52120014
:02183E005BEC61
:1018400011F0FB0EDBCFF3FFDB06F35000090AE0DB
:10185000A9EC11F0FA0E14EC12F0F3E1011CF1E125
:10186000010E01D0000E8AEF11F05BEC11F03B0E7F
:10187000E12402E3E168E652E16E010EDB6A020E4A
:10188000DB6AF90EDBCFF6FFFA0EDBCFF7FFFB0EBC
:10189000DBCFF8FF0800F550DF6EDF5002E1B0EF5C
:1018A00010F0250EDF5C02E0A3EF10F0030EDB6A00
:1018B000040EDB6A050EDB6A060EDB6A070EDB6AC6
:1018C000C3EC10F02D0EDF5C0CE02B0EDF5C09E0AA
:1018D000200EDF5C06E0230EDF5C03E0300EDF5CF1
:1018E0001AE1DF50300A14E0130A0FE0030A0AE09D
:1018F0000B0A05E0060AE4E1030EDB80E1D7030EE4
:10190000DB82DED7030EDB84DBD7030EDB86D8D782
:10191000030EDB88D5D72A0EDF5C1BE1BFEC10F08D
:101920000DEC11F010E0030EDB803B683C68130EF9
:10193000DBCF40F0140EDBCF41F0BDEC17F0040E0E
:1019400039C0DBFF03D0130EF6EC10F0C3EC10F03F
:101950000BD0090EDB6A64EC11F003E0D8EC11F057
:10196000FAD7090EF6EC10F0030EDBB0DB982E0E62
:10197000DF5C1BE1C3EC10F02A0EDF5C0BE1BFEC77
:1019800010F00DEC11F003E1130E48EC11F0C3EC74
:1019900010F00BD0090EDB6A64EC11F003E0D8EC18
:1019A00011F0FAD7090E48EC11F0680EDF5C07E180
:1019B000C3EC10F0680EDF5C1DE1030E18D0740E4E
:1019C000DF5C17E07A0EDF5C14E0480EDF5C06E0B7
:1019D000540EDF5C03E05A0EDF5C02E1020E07D01A
:1019E0006C0EDF5C03E06A0EDF5C04E1010E9BEC31
:1019F00011F0C9DBDF506E0A01E181D31E0A01E15B
:101A000092D1200A01E18FD13F0A01E149D11A0A9E
:101A100001E146D10D0A01E143D1200A01E140D1A3
:101A20003A0A01E13DD1200A01E13AD1260A01E159
:101A300035D10D0A01E132D11A0A01E1D9D0200ACB
:101A40004AE0300A1FE0460A0EE0250A01E085D38D
:101A5000D950F90FE96EFF0EDA20EA6E010EEE5E44
:101A6000000EEE5AEE5AA9EC11F0250EE66E95DB4B
:101A700003E1011C01E16BD3A5EC11F001E26DD390
:101A8000DB2A6BD3080EDB6A040EDB50010806E28A
:101A9000040EDB046DEC11F0DB508BDB080EDB5029
:101AA00009E0030EDB50010B05E172DB01E04FD3CF
:101AB000080EDB6A64DBEFCFDFFF1DEC12F003E101
:101AC000011C01E144D3A5EC11F001E3DB2A60DB4A
:101AD00001E143D33CD3070EDB5002080FE1E9ECF0
:101AE00011F0030EB0EC11F00E0EEECFDBFF0F0E77
:101AF000EECFDBFF100EEECFDBFF20D0F70EDBCFFB
:101B000003F0F80EDBCF04F0020E035E000E045A61
:101B1000F70E03C0DBFFF80E04C0DBFF03C0E9FFD4
:101B200004C0EAFFA0EC11F0026A0E0E00C0DBFF59
:101B30000F0E01C0DBFF100E02C0DBFF0E0EDBCF6D
:101B4000E6FF0F0EDBCFE6FF100EDBCFE6FFF9EC72
:101B500034F0E552E552E552130E3AC0DBFF140EA5
:101B60003BC0DBFF060EDB5005E0130EE4EC11F08A
:101B700001E26ADB08EC12F002E2130E37DBCBEC79
:101B800011F006E0040EE4EC11F002E2050E2EDB8B
:101B9000030EDBB005D0FCDA01E0D9D2080EDB6A17
:101BA000090EDB6A0E0EDBCFF6FF0F0EDBCFF7FF61
:101BB000100EDBCFF8FF0800F550DF6EDF5014E0A9
:101BC0000EEC12F011E21DEC12F003E1011C01E138
:101BD000BED2BBDB01E3DB2A090EDB2AD9500E0F94
:101BE000E96E000ECBDBE7D7D3DA01E1B6D2AFD294
:101BF000C6DA110EEECFDBFF120EEDCFDBFF110EBA
:101C0000DBCFE6FF120EDBCFE6FFEBEC34F0E55264
:101C1000E552130EF3CFDBFF140EF4CFDBFF060EFD
:101C2000DB5004E0130ED0DB01E20EDB08EC12F017
:101C300002E2130EDBDAAFDB05E0040EC5DB02E2E5
:101C4000050ED4DA030EDBB005D0A2DA01E07FD2B4
:101C5000080EDB6A090EDB6A110EDBCFE9FF120EFC
:101C6000DBCFEAFFEFCFDFFFDF5014E0D7DB12E27C
:101C7000E4DB03E1011C01E16AD267DB01E3DB2A5B
:101C8000090EDB2A110EDB2ADBCFE9FF120EE8E397
:101C9000DB2AE6D77DDA01E160D259D2030EDB8E72
:101CA000070EDB0410E195DB040E5ADB0A0EEECFC3
:101CB000DBFF0B0EEECFDBFF0C0EEECFDBFF0D0ECE
:101CC000EECFDBFF6CD0070EDB5003082CE1030ED8
:101CD000DBAE0DD0B2DA020E76DAEFCF00F0016A99
:101CE000026A036A00AE39D00168026835D0F70E87
:101CF000DBCF01F0F80EDBCF02F0020E015E000E2A
:101D0000025AF70E01C0DBFFF80E02C0DBFF01C074
:101D1000E9FF02C0EAFFEFCF00F00A0E00C0DBFFD0
:101D20000B0EDB6A38D0070EDB50020809E1030E08
:101D3000DBAE04D059DB02AE10D00ED055DB0DD097
:101D4000030EDBAE12D079DA020E3DDAF9DA026A5E
:101D5000036A01AE02D002680368E2DA0C0E02C028
:101D6000DBFF0D0E03C0DBFF1AD0F70EDBCF02F056
:101D7000F80EDBCF03F0020E025E000E035AF70EE0
:101D800002C0DBFFF80E03C0DBFF02C0E9FF03C0A7
:101D9000EAFFD6DAC5DA0C0EDB6A0D0EDB6A060E38
:101DA000DB5005E1010EF36E050EF3CFDBFF150EE0
:101DB000DB6A160EDB6AD950370F006E000EDA2090
:101DC000016E390E00C0DBFF3A0E01C0DBFF380E9A
:101DD000DB6A080EDB6A0A0EAEDADF50780A12E020
:101DE000200A10E0280A0CE0200A0AE03F0A06E078
:101DF0000D0A02E0200A08E1020E05D0080E03D009
:101E0000080EDF26100E97DA030EDBBE02D0DB923F
:101E1000DB94DB50800B26E08ADA030EEB50000ADD
:101E2000E8AE02D0D89008D0000EEE5C000EEE585E
:101E3000000EEE58000EEE5815E211DA3E683F68CB
:101E400040684168F9EC35F00A0E35C0DBFF0B0E37
:101E500036C0DBFF0C0E37C0DBFF0D0E38C0DBFFDA
:101E60002D0E08D0030EDBA202D02B0E03D0DBA474
:101E700008D0200EF36E170EF3CFDBFF150EDB2A12
:101E800002D0170EDB6A050EDB5003E1B5D901E184
:101E900089D0020E006E6F0E016E000E026E070EEC
:101EA000DBCF03F0046A056A066A03C03EF004C093
:101EB0003FF005C040F006C041F0D1D9CAEC36F081
:101EC00000503524F36E01503620F46E0250372056
:101ED000F86EF4CFF7FFF3CFF6FF0800090EF5CF49
:101EE000DBFF580EDF5C0FE1610EF36E090E79D94E
:101EF0000AE3200E006E090EDBCFE7FF0050E75E1D
:101F0000090EE7CFDBFF070EDBCF00F0016A026AA4
:101F1000036A0DDA00C03EF001C03FF002C040F09D
:101F200003C041F0EECF39F0EECF3AF0EECF3BF008
:101F3000EFCF3CF0CAEC36F03CC0EDFF3BC0EDFF0C
:101F40003AC0EDFF39C0EFFF390EDBCFE9FFDB060A
:101F50003A0EDBCFEAFF01E2DB06090EDBCFEFFF33
:101F6000150EDB2A49D995E1030EDBA61DD06F0EB5
:101F7000DF5C06E1BFD918E3150EDB2859DA14D06F
:101F8000780EDF5C09E0580EDF5C06E0620EDF5C75
:101F900003E0420EDF5C08E1020EF36E160EF3CF93
:101FA000DBFF02D0150EDB6A030EDB50100B0EE0D8
:101FB000040EDBCF00F0050EDB50D880005406E2A3
:101FC000060EDB5003E1040EDB5032DA93D90AE24D
:101FD000050EDBCFE7FF150EDB50E75E050EE7CF02
:101FE000DBFF02D0050EDB6A040EDBCF00F0160E1D
:101FF00043D9D880005414E2160EDBCFE6FF150E4D
:10200000DBCFE6FF040EDBCFE6FF050EDB50E5522B
:10201000E75CE552D880E754E552D880E7545DD9B3
:10202000030EDB50010B0BE1080EDB5008E0B0D8CB
:1020300001E08DD0080EDB50BCD8080EDB6A170E0D
:10204000DB5007E086D9170EEFD903E1011C01E14F
:102050007ED0160EDB5016E07CD9300EE66E9DD891
:1020600002E1011C74E075D9DFCFE6FFB7EC35F073
:10207000E552E552E552F4CF01F00001F31C02E114
:10208000011C65E0050EDBCF00F0160EDB50D8809A
:10209000005409E2050EDBCFE7FF160EDB50E75ECA
:1020A000050EE7CFDBFF300EE66E050EC9D94FE116
:1020B000390EDB2ADBCFE9FF3A0E01E3DB2ADBCF67
:1020C000EAFF090EEFCFDBFFDB500EE042D9090E2D
:1020D000ABD902E1011C3BE0390EDB2ADBCFE9FF83
:1020E0003A0EEDE3DB2AEBD753D831E1160EDBCF06
:1020F000E6FF080EC1D8E552E7245BD82ED0070EC4
:10210000DB50030A1CE0010A14E0030A07E079D956
:10211000DBCFEEFF020EDBCFEDFF1FD0F3D8056A59
:1021200003AE02D0046805682AD8BAD805C0EEFF0D
:1021300014D0E8D803BE046822D8B2D80ED061D932
:10214000DBCFEFFF0AD079D905E1011C03E1F36889
:10215000F46810D0FAD801E3DB2A77D94AEF0CF003
:10216000010EDBCF00F0020EDBCF01F000C0F3FF69
:1021700001C0F4FFD9CFE1FFDACFE2FFCBD029D9FC
:10218000020EB0EF11F061D90800F550DF6E1200B9
:10219000200EE66E080E20EF12F0B7EC35F0E55297
:1021A000E552E552F3CF00F0F4CF01F00001F31C4B
:1021B0001200006E016AD950010F4DD90050EE2671
:1021C0000150ED221200045E000E055AF70E04C005
:1021D000DBFFF80E05C0DBFF04C0E9FF05C0EAFF26
:1021E0001200DBCFF4FFF350F45C1200DB50E76E1B
:1021F000040EE7CFDBFF12000A0EDBCF00F00B0E60
:10220000DBCF01F00C0EDBCF02F00D0EDBCF03F0C5
:1022100000500110021003101200130EEECFDBFF6E
:10222000140EEDCFDBFF130EDBCF00F0140EDBCF6F
:1022300001F00001800E01141200F70EDBCF04F054
:10224000F80EDBCF05F01200050EDB50E66ED9501C
:10225000130F01D9E552E750EE6EED6A12000A0E37
:10226000DBCF39F00B0EDBCF3AF00C0EDBCF3BF0BF
:102270000D0EDBCF3CF01200DBCFE6FF150EDBCFFF
:10228000E6FF050EDB50E552E724E552E724120095
:10229000DB50CED8010EF36E060EF3CFDBFF12003B
:1022A000EE50EFCFEAFFE96E02C0EEFF03C0EEFF93
:1022B00004C0EEFF1200D9CFE6FFDACFE6FFE1CF90
:1022C000D9FFE2CFDAFF1200DFCFE6FFE66A36EC95
:1022D00037F0E552E552F3501200E76E080EE7CFF3
:1022E000DBFF1200EECF00F0EECF01F0EFCF02F0F7
:1022F000036A1200050EDBCF00F0150EDB50D8800C
:1023000000541200010EDBCF02F0020EDBCF03F00F
:10231000046A1200E552E5CFDAFFE7CFD9FF1200D9
:102320000A0E00C0DBFF0B0E01C0DBFF1200D9500C
:102330000A0F2BEF12F0F36E070EF3CFDBFF120044
:10234000EECF00F0EFCF01F01200010EDB2A020EFB
:102350001200FC0EDBCFE6FFFD0EDBCFE6FF120026
:10236000005E000E015AF70E00C0DBFFF80E01C040
:10237000DBFF00C0E9FF01C0EAFF1200DA20EA6ECD
:10238000EF2AEECFF6FF000EEF22EECFF7FFEF229F
:10239000EECFF8FF1200040EDBCFE6FF130EDB508A
:1023A000E552E75C9ADFDB5004DF060EDB501200DB
:1023B000090EDB500A0DF350DF24D00FE76E090E33
:1023C000E7CFDBFFC3EF10F0DB50F36E050EF1EF4C
:1023D00010F0F70EDBCF00F0F80EDBCF01F01200AB
:1023E000DFCFE6FFCDEF10F028DF030EECDE72EF5B
:1023F00011F01FEC0CF0E552E552E552E5520009F0
:102400001200BDDEEE50EFCFEAFFE96E010E1200C2
:10241000130EDB50F36E040EF1EF10F0040EDB50E0
:10242000F36E090EF1EF10F0DBCFE6FFCDEF10F009
:10243000E76E050EE7CFDBFF12008BDFF0EF11F048
:10244000DBCFE6FF86DFF9EF11F0D950F90FE96E27
:10245000FF0EBEEF11F0E96E000EDA20EA6E1200F8
:10246000D8CFE4FFE0CFE4FFE46EDACFE4FFE2CFC1
:10247000DAFFE9CFE4FFEACFE4FFE652F2A202D0AE
:10248000A5D802D09EB6D1D8E552E5CFEAFFE5CF78
:10249000E9FFE5CFDAFFE550E5CFE0FFE5CFD8FF74
:1024A0001000E66A010EE66E050EE66E65EC36F08B
:1024B000E552E552E5521200070EB46E000E886E2A
:1024C000876E866E856E846E836E826E816E806E80
:1024D000916E906E8F6E8E6E8D6E8C6E8B6E8A6E20
:1024E000896E2F0E926E93689C0E946E956A966A12
:1024F0009768040E986E0E0E9A6E9968C16AF19EE6
:10250000B0989C8EA26A9F6AA06A9D6AA36AA56A17
:10251000C8DF9F86D08E9E969D869382F06AF28851
:10252000F09EF098F192F09AF16AF28CF28E12001D
:10253000D9CFE6FFE1CFD9FFE652BEDF0201C09757
:10254000C0990401840E0B6F020E0C6FDF6A100E2F
:10255000DF5C0AE2DF50EA6A0B25E96E0C51EA22E1
:102560007F0EEF6EDF2AF3D702019D6B010E9E6F87
:10257000C20E9F6F0201C0850201A26BA36B020114
:10258000806B826B836B010ED56E320ED76ECF0ED1
:10259000D66ED59E800EE66E020EE66E8BD8E552A4
:1025A000E5520201C093800EE66E020EE66E82D8FE
:1025B000E552E5520201C093E552E552E7CFD9FF5B
:1025C000120082828088949292981200F292040102
:1025D000200E076F9F860201C0A906D00401E00EFD
:1025E000046F000E056F05D00401C00E046F000ECD
:1025F000056F0201C0A1C079C0A706D00401800EFA
:10260000026F000E036F05D00401A00E026F000ED2
:10261000036FC9CF08F402C4E9FF03C4EAFF022B29
:10262000000E0323EF50C96E12009E96C9CF08F426
:1026300004010751000823E204C4E9FF05C4EAFFCE
:10264000042B000E052308C4EFFF02C4E9FF03C4F6
:10265000EAFF022B0323EFCF08F408C4C9FF0707E2
:1026600007510CE10201020E9E6F0201C093C0816E
:10267000320ED76ECF0ED66EF294D58E01D0C96AC7
:102680001200D9CFE6FFE1CFD9FF0201C0A10ED0E1
:10269000FD0EDBCFE6FFFE0EDBCFE6FFBEEC26F045
:1026A000E552E5529D960201C0919D86E552E7CF25
:1026B000D9FF1200D9CFE6FFE1CFD9FF0201C0B3A5
:1026C00032D0FD0EDBCFE9FFFE0EDBCFEAFF1E0EA0
:1026D000E926000EEA22EF50020809E1FD0EDBCFE9
:1026E000E6FFFE0EDBCFE6FF69D8E552E552FD0EB0
:1026F000DBCFE9FFFE0EDBCFEAFF150EE926000E69
:10270000EA22EF9EFD0EDBCFE6FFFE0EDBCFE6FFFB
:102710002CEC26F0E552E5529D960201C077C0836D
:102720009D8602019D2BE552E7CFD9FF12009D96B1
:102730000201C0919D861200D9CFE6FFE1CFD9FFFB
:102740000001346BD950FD0FE96EFF0EDA20EA6EFE
:10275000010EEE1801E1ED5002E1348101D0BA6AB8
:10276000D950FB0FE96EFF0EDA20EA6E010EEE186B
:1027700001E1ED5002E1348301D0B76AD950F90F7D
:10278000E96EFF0EDA20EA6E010EEE1801E1ED505F
:1027900002E1348501D0736AD950F70FE96EFF0E5C
:1027A000DA20EA6E010EEE1801E1ED5002E1348705
:1027B00001D0706AE552E7CFD9FF1200D9CFE6FF0A
:1027C000E1CFD9FFFD0EDBCFE9FFFE0EDBCFEAFF45
:1027D0001C0EE926000EEA22EF6AFD0EDBCFE9FFB0
:1027E000FE0EDBCFEAFF170EE926000EEA22EF6AA3
:1027F000C6AE0ED0C69EFD0EDBCFE9FFFE0EDBCFD0
:10280000EAFF170EE926000EEA22010EEF6E22D033
:10281000F150800B10E0F250080B0DE0FD0EDBCF05
:10282000E9FFFE0EDBCFEAFF170EE926000EEA22D3
:10283000020EEF6E0FD0F0A60DD0909EFD0EDBCFF6
:10284000E9FFFE0EDBCFEAFF170EE926000EEA22B3
:10285000030EEF6E250EC614250819E0FD0EDBCF22
:10286000E9FFFE0EDBCFEAFF1C0EE926000EEA228E
:10287000010EEF6EFD0EDBCFE9FFFE0EDBCFEAFFB0
:10288000170EE926000EEA22C6CFEFFF80D1C55011
:1028900019E0FD0EDBCFE9FFFE0EDBCFEAFF1C0ED9
:1028A000E926000EEA22020EEF6EFD0EDBCFE9FFF5
:1028B000FE0EDBCFEAFF170EE926000EEA22C5CF97
:1028C000EFFF65D1D0BE19D0FD0EDBCFE9FFFE0EC4
:1028D000DBCFEAFF1C0EE926000EEA22030EEF6EA4
:1028E000FD0EDBCFE9FFFE0EDBCFEAFF170EE92678
:1028F000000EEA22D0CFEFFF4AD19DB619D0FD0ECF
:10290000DBCFE9FFFE0EDBCFEAFF1C0EE926000E4F
:10291000EA22040EEF6EFD0EDBCFE9FFFE0EDBCFE9
:10292000EAFF170EE926000EEA229DCFEFFF2FD116
:102930009C5019E0FD0EDBCFE9FFFE0EDBCFEAFF76
:102940001C0EE926000EEA22050EEF6EFD0EDBCF0F
:10295000E9FFFE0EDBCFEAFF170EE926000EEA22A2
:102960009CCFEFFF14D1080E9F5C19E0FD0EDBCF6A
:10297000E9FFFE0EDBCFEAFF1C0EE926000EEA227D
:10298000060EEF6EFD0EDBCFE9FFFE0EDBCFEAFF9A
:10299000170EE926000EEA229FCFEFFFF8D0A250D3
:1029A00019E0FD0EDBCFE9FFFE0EDBCFEAFF1C0EC8
:1029B000E926000EEA22070EEF6EFD0EDBCFE9FFDF
:1029C000FE0EDBCFEAFF170EE926000EEA22A2CFA9
:1029D000EFFFDDD0A55019E0FD0EDBCFE9FFFE0EC5
:1029E000DBCFEAFF1C0EE926000EEA22080EEF6E8E
:1029F000FD0EDBCFE9FFFE0EDBCFEAFF170EE92667
:102A0000000EEA22A5CFEFFFC2D0100EF21410087C
:102A100019E0FD0EDBCFE9FFFE0EDBCFEAFF1C0E57
:102A2000E926000EEA22090EEF6EFD0EDBCFE9FF6C
:102A3000FE0EDBCFEAFF170EE926000EEA22F2CFE8
:102A4000EFFFA5D0470EF11419E0FD0EDBCFE9FF33
:102A5000FE0EDBCFEAFF1C0EE926000EEA220A0E6C
:102A6000EF6EFD0EDBCFE9FFFE0EDBCFEAFF170EA8
:102A7000E926000EEA22F1CFEFFF89D0C00EF01454
:102A800019E0FD0EDBCFE9FFFE0EDBCFEAFF1C0EE7
:102A9000E926000EEA220B0EEF6EFD0EDBCFE9FFFA
:102AA000FE0EDBCFEAFF170EE926000EEA22F0CF7A
:102AB000EFFF6DD092A819D0FD0EDBCFE9FFFE0E1F
:102AC000DBCFEAFF1C0EE926000EEA220C0EEF6EA9
:102AD000FD0EDBCFE9FFFE0EDBCFEAFF170EE92686
:102AE000000EEA2292CFEFFF52D093B019D0FD0E24
:102AF000DBCFE9FFFE0EDBCFEAFF1C0EE926000E5E
:102B0000EA220D0EEF6EFD0EDBCFE9FFFE0EDBCFEE
:102B1000EAFF170EE926000EEA2293CFEFFF37D027
:102B20003E0E94141C0819E0FD0EDBCFE9FFFE0EEB
:102B3000DBCFEAFF1C0EE926000EEA220E0EEF6E36
:102B4000FD0EDBCFE9FFFE0EDBCFEAFF170EE92615
:102B5000000EEA2294CFEFFF1AD097BE18D0FD0ED8
:102B6000DBCFE9FFFE0EDBCFEAFF1C0EE926000EED
:102B7000EA220F0EEF6EFD0EDBCFE9FFFE0EDBCF7C
:102B8000EAFF170EE926000EEA2297CFEFFFE55283
:062B9000E7CFD9FF12009F
:0A2B9600449E05D0449E3CAE02D0E0
:102BA0003C6C448E3CC036F0356A486A476A860EF3
:102BB000376E386ACAEF18F0449E08D0449E3CAE87
:102BC00005D03B6C3C1EE86A3C22448E3CC036F08B
:102BD0003BC035F0486A476A8E0E376E386ACAEFD6
:102BE00018F0449E0CD0449E3CAE09D0396C3A1E7D
:102BF0003B1E3C1EE86A3A223B223C22448E3CC0EB
:102C000036F03BC035F03AC048F039C047F09E0E70
:102C1000376E386ACAEF18F0427E446A06EC19F043
:102C20001EEC19F044B6AEEF18F044A20AD044AA44
:102C300003D044BEAEEF18F044A4BAEF18F0B7EFDB
:102C400018F044AA05D044ACBAEF18F0B7EF18F06A
:102C500044A00AD044A808D044BE04D044A402D062
:102C6000C3EF18F0C7EF18F0476A386A42503D5C6E
:102C7000466E10E33AC048F03BC035F03CC036F039
:102C80003DC045F03FC03AF040C03BF041C03CF091
:102C9000443A09D03FC048F040C035F041C036F05A
:102CA00042C045F0466C449E44BC448E45C037F05B
:102CB00044B0F6EF18F01A0E4660F6EF18F0376AD7
:102CC0003D6A44A408D03A6C3B1E3C1E3D1EE86A97
:102CD0003B223C223D2244AC08D0486C351E361EB7
:102CE000371EE86A352236223722396A465207E013
:102CF0003D343C323B323A323932462EF9D73A50E3
:102D000048263B5035223C5036223D50372239C0B0
:102D100047F0449E37AE0BD0476C481E351E361E1A
:102D2000371EE86A4822352236223722448E37A0E1
:102D300006D0D8803632353248324732452A45C02F
:102D400037F0CAEF18F0446A06EC19F01EEC19F0DF
:102D500044B6AEEF18F044A205D044BAAEEF18F076
:102D6000B5EF18F044BAC1EF18F044A005D044B84C
:102D7000AEEF18F0C1EF18F044B8B5EF18F0386AAC
:102D80007F0E3D24376EE86A38224250375EE86A8B
:102D9000385A1A0E456E3D6A476A486A356A366A7D
:102DA0003F503A5E40503B5A41503C5A000E3D5A0B
:102DB00009E73F503A2640503B2241503C22000E4A
:102DC0003D2201D0478AD8903A363B363C363D36D4
:102DD000D8904736483635363636452EE1D73C5002
:102DE0003B103A10D8A4478ACAEF18F0446A06ECA0
:102DF00019F01EEC19F044B6AEEF18F044A205D05D
:102E000044B8AEEF18F0B5EF18F044AA05D044B0BE
:102E1000AEEF18F0B5EF18F044B002D044A802D0DD
:102E2000C1EF18F0386A42503D24376EE86A382204
:102E30007E0E375EE86A385A476A486A356A366AEB
:102E400041503C02F4CF36F0F3CF35F040503C0215
:102E5000F3504826F4503522000E362241503B02F2
:102E6000F3504826F4503522000E36223F503C02E3
:102E7000F3504726F4504822000E352236224050A7
:102E80003B02F3504726F4504822000E35223622EA
:102E900041503A02F3504726F4504822000E3522A2
:102EA00036223F503B02F4504726000E482235227E
:102EB000362240503A02F4504726000E482235226E
:102EC0003622CAEF18F0436A41AE6CEF17F0406C3F
:102ED000411EE86A4122431E3CAE74EF17F03B6C82
:102EE0003C1EE86A3C22431E0DEC37F03CBE84EFEA
:102EF00017F043AE000C3B6C3C1EE86A3C22376C7A
:102F0000381EE86A3822000C43BE7BEF17F0448875
:102F1000FF0C436AE86A41AE96EF17F03E6C3F1E25
:102F2000401E411E3F2240224122431E3CAEA1EFE3
:102F300017F0396C3A1E3B1E3C1E3A223B223C22C3
:102F4000431ECAEC36F03CBEB8EF17F043AE000C9F
:102F5000396C3A1E3B1E3C1EE86A3A223B223C2258
:102F6000356C361E371E381E362237223822000CAA
:102F700043BEA8EF17F04488FF0C3CC048F03BC0AC
:102F800047F03B504002F4CF3AF0F3CF39F03C50D9
:102F90004102F4CF3CF0F3CF3BF04002F3503A262D
:102FA000F4503B22E86A3C2247504102F3503A2653
:102FB000F4503B22E86A3C2241AEE3EF17F0475061
:102FC0003B5E48503C5A48AE000C40503B5E41507E
:102FD0003C5A000C446A06EC19F044B6F4EF17F0C2
:102FE00044A20AD044B403D07F0E3C6E19D0800EA8
:102FF0003C6E16D03C6A14D044B0FCD7870E3D60BE
:10300000F1D77E0E3D64F6D7860E3D5C04E0D89085
:103010003C323D2AF9D744A403D03C6C3CAEEAD7FD
:103020001200446A06EC19F044B61BEF18F044A2F3
:103030000ED044B405D07F0E3C6EFF0E3B6E1FD009
:10304000800E3C6E3B6A1BD03C6A3B6A18D044B091
:10305000FBD78F0E3D60EDD77E0E3D64F5D78E0E0B
:103060003D5C05E0D8903C323B323D2AF8D744A481
:1030700006D03B6C3C1EE86A3C223CAEE5D7120011
:1030800059EC18F044B6000C44B0010C000C59EC9B
:1030900018F044B6000C44B0000C44B4000C010C11
:1030A00059EC18F044B6000C44B0000C44A4000CD9
:1030B000010C446A06EC19F01EEC19F044B612003B
:1030C00044AE08D044A004D044A802D044801200EA
:1030D0004490120042503D5C0BE141503C5C08E1E1
:1030E00040503B5C05E13F503A5C02E144801200F5
:1030F000D8A002D0448E10D03D5042C03DF0426E68
:103100003C5041C03CF0416E3B5040C03BF0406EF3
:103110003A503FC03AF03F6E42503D5C10E0FF0F26
:1031200009E0449044B403D044AE4484120044AE59
:1031300044941200422AD890413240323F323F50EC
:103140003A5E40503B5A41503C5A3CBEEAD7D89078
:103150003A363B363C363D2EF8D7C8D77F0E3D6E0B
:10316000FF0E3C6E3B6E3A6E12007F0E44BEFF0EA9
:103170003D6E02D07F0E3D6E800E3C6E3B6A3A6A19
:10318000F3D744AE04D0800E3D6E3C6AF7D73D6A5B
:103190003C6AF4D73650351048104710F8E038BE76
:1031A000F0D736BE0CD037503810EBE0D890473609
:1031B0004836353636363706D8A03806F2D7385076
:1031C000D4E13728D2E047AE11D07F0E471402E198
:1031D00048A00CD0482AE86A3522362207E3D88076
:1031E000363235324832372A3728BFE03750C9E007
:1031F00048C03AF035C03BF036343C6E37303D6E57
:103200003C323D9E44BE3D8EB4EF18F03C363D3618
:1032100002E34484447E06E144803D6A3C6A3B6AA2
:103220003A6A12003D2803E0D8803C321200D89060
:103230003C3202E14482120044861200413642369A
:1032400002E3448C447E06E14488426A416A406A53
:103250003F6A1200422803E0D88041321200D89021
:083260004132EAE1448A120048
:0832680005DBE150F90F4BDB1F
:103270000BE1FB0EDB6AFC0EDB6A010EF36EF90E4E
:10328000F3CFDBFFFA0EDB6AD950F10F3CDB0BE129
:10329000F30EDB6AF40EDB6A010EF36EF10EF3CF70
:1032A000DBFFF20EDB6AD950F50F2DDB0BE1F70ED9
:1032B000DB6AF80EDB6A010EF36EF50EF3CFDBFF6F
:1032C000F60EDB6A00DAFB0EDBCFEEFFFC0E1FDB37
:1032D000020E44DAF90EDBCFEEFFFA0E18DB040E15
:1032E0003DDAF70EDBCFEEFFF80E11DB060E36DA15
:1032F000F50EDBCFEEFFF60E0ADB080E2FDAF30E2B
:10330000DBCFEEFFF40E03DB0A0E28DAF10EDBCF83
:10331000EEFFF20EDBCFEDFFD1DAEF0EDBCFEEFFEB
:10332000F00EDBCFEDFFCEDAED0EDBCFEEFFEE0ED3
:10333000DBCFEDFF9BDA310EEE6E750EED6EC3D96D
:103340000E0EEB6A0F0EEB6A9AD230DA0BDA010E30
:10335000E66EE66A39D22ADA010EE66EE66A02DA2B
:1033600033D288DA040EE126DE6ADD6A64DAFB0E07
:10337000DB50025C006EFC0EDB500358016E020E47
:1033800000C0DBFF030E01C0DBFF70DA310EEE1868
:1033900006E1750EED1803E199DA54DA9BDA66DA84
:1033A000EECF00F0EFCF01F0013404E2005030081E
:1033B000750E01540AE35ADA4FDAD880035004E755
:1033C000D00E025C8A0E035801E284DA7CD9020E28
:1033D00087DA79D9EECF04F0EFCF05F0020EDBCF1C
:1033E0003BF0030EDBCF3CF004C040F005C041F0E1
:1033F000BDEC17F039C002F03AC003F039C03BF021
:103400003AC03CF006C040F007C041F098D95BD903
:10341000060E6CDA2BDAEECF04F0EFCF05F053D9BD
:10342000040E5EDA00010650E7D90750FCD908C047
:1034300040F009C041F083D946D90A0E8FD9EECFAA
:103440000AF0EFCF0BF0020EDBCF06F0030EDBCF5E
:1034500007F03CDAEE50065C046EEE500758056E3D
:1034600032D9080E43DA00010850C6D90950DBD919
:103470000AC040F00BC041F062D9F3D91FDAECD991
:1034800003500118E8AE02D0013404D00050025CB1
:103490000150035805E212DAEECFDEFFEDCFDDFF7B
:1034A000E0D910DAD9D901500318E8AE02D00334BC
:1034B00001D0B4D905E206DAEECFDEFFEDCFDDFFB5
:1034C00005DAC0D9020EDBCF00F0030EDBCF01F02E
:1034D000CDD90050EE260150ED22C3D900C0F3FF34
:1034E00001C0F4FFB6D1C6D9080EE126D950F90FB4
:1034F00077D9040EEECFDBFF050EEECFDBFF060E15
:10350000EECFDBFF070EEECFDBFFF50EDBCF00F0DB
:10351000F60EDBCF01F0F70EDBCF02F0F80EDBCFBB
:1035200003F0F10EDBCF04F0F20EDBCF05F0F30E6B
:10353000DBCF06F0F40EDBCF07F004C03FF005C090
:1035400040F006C041F007C042F09DD90CEC16F0E7
:103550003AC0DEFF3BC0DEFF3CC0DEFF3DC0DDFF0A
:10356000DD52DD52D950FD0F3BD9010EEE180FE1AF
:10357000ED500DE1AFD8DFCF31F4010EDBCF32F4E7
:10358000020EDBCF33F4030EDBCF34F414D0D9506A
:10359000FD0F26D9020EEE180EE1ED500CE19AD87F
:1035A000DFCF2DF4010EDBCF2EF4020EDBCF2FF494
:1035B000030EDBCF30F4040EDBCF00F0050EDBCFC3
:1035C00001F0060EDBCF02F0070EDBCF03F01DD9B2
:1035D00040D1D9CFE6FF53D14DD907D92CD90150CD
:1035E0000318E8AE02D0033401D018D910E2FD0E62
:1035F000DBCF3BF0FE0EDBCF3CF0CDD83AC008F07D
:103600003BC009F03CC00AF03DC00BF042D0EDD801
:10361000FB0EDBCF04F0FC0EDBCF05F0F90EDB5028
:10362000045C026EFA0EDB500558036E015003185D
:10363000E8AE02D0033401D0F1D807E2006A016A93
:10364000800E026E3F0E036E3CD0CFD855D901508C
:103650000318E8AE02D0033401D0E0D82EE2FB0E0E
:10366000DBCF0AF0FC0EDBCF0BF0FD0EDB500A5C6B
:10367000086EFE0EDB500B58096E08C03BF03C6E26
:103680008AD83AC00CF03BC00DF03CC00EF03DC0F3
:103690000FF002D904C03AF005C03BF006C03CF080
:1036A00007C03DF0A3EC16F03AC000F03BC001F0BB
:1036B0003CC002F03DC003F004D0006A016A026A17
:1036C000036AA3D8DCD0FD0EDBCFE9FFFE0EDBCF13
:1036D000EAFF1200F90EDBCF00F0FA0EDBCF01F0AB
:1036E0000BD9D9CFE9FFDACFEAFFEECF08F0EECF62
:1036F00009F0EECF0AF0EFCF0BF03F6A406A040EFC
:10370000416E420E426E08C03AF009C03BF00AC05A
:103710003CF00BC03DF0A3EC16F0C7D8BDD8B3D831
:103720000DEC16F0040E3AC0DBFF050E3BC0DBFFCC
:10373000060E3CC0DBFF070E3DC0DBFF120063EC52
:1037400017F03BC000F03CC001F0D9CFE9FFDACF61
:10375000EAFF3B50EE260150ED221200E926000E52
:10376000EA221200F70EDBCFE6FFF80EDBCFE6FF12
:10377000010EE66EE66AF90EDBCFE6FFFA0EDBCF4E
:10378000E6FF010EE66EE66AFB0EDBCFE6FFFC0EFF
:10379000DBCFE6FF1200DEEC15F087D8F90EDBCFA9
:1037A0003BF0FA0EDBCF3CF0DEEF15F063D8F30E02
:1037B000DBCFE6FFF40EDBCFE6FFF50EDBCFE6FF57
:1037C000F60EDBCFE6FF1200FD0EDBCFE6FFFE0EAE
:1037D000DBCFE6FF49DDF56E120EE15EF5504FD00E
:1037E000E96EFF0EDA20EA6E1200FD0EDBCF00F06C
:1037F000FE0EDBCF01F012000402F3CF02F0F4CF93
:1038000003F00502F3500326120000C039F001C096
:103810003AF002C03BF003C03CF012000250005CE2
:103820000350015812000402F350032602C03BF07B
:1038300003C03CF01200F90EDBCF02F0FA0EDBCF32
:1038400003F01200020EDBCFEEFF030EDBCFEDFF25
:103850001200D9CFE1FF13D0EECF02F0EFCF03F08B
:103860001200DECF00F0DDCF01F012002CDF0C0ED5
:10387000AEEF1BF0D9CFE6FFE1CFD9FF1200E55242
:10388000E7CFD9FF120000C03AF001C03BF002C000
:103890003CF003C03DF012003AC03FF03BC040F0A6
:1038A0003CC041F03DC042F012003AC004F03BC0C1
:1038B00005F03CC006F03DC007F0120004DF100E1A
:1038C000AEEF1BF000DF120EAEEF1BF0FCDE0E0EB3
:1038D000AEEF1BF0F8DE0C0EEB6A0D0EEB6A120079
:1038E0003DDFEECF06F0EFCF07F0120037DFEECF6F
:1038F00008F0EFCF09F01200FB0EDBCF02F0FC0E58
:10390000DBCF03F012006CDFEE50ED101200DBCFC6
:06391000EDFF63EF1BF068
:0A3916000301320E916F390E926F1B
:103920006C0E936F3A0E946F0C0E956F3D0E966F62
:103930001200D9CFE6FFE1CFD9FF040EE126040142
:103940003B513C1101E191D0360EE66EE66AFD0E68
:10395000DBCFE6FFFE0EDBCFE6FF000EE66E0F0EBE
:10396000E66EC0EC34F04FDA0C0EE66EE66AF8D97B
:10397000E9CF00F0EACF01F0E9CFE6FFEACFE6FFBA
:10398000360EE66E0F0EE66EC0EC34F03CDA000E3A
:10399000E66EE66AE80EE66E030EE66E3FDA3EDAA3
:1039A0003F6A406A416A3F0E426EF7D911EC18F047
:1039B0003BC000F03CC001F03BC0E6FF3CC0E6FF6E
:1039C000E80EE66E030EE66E420EE66E0F0EE66E33
:1039D00034EC19F0F56E120EE15EF5500F01800E19
:1039E0001D153EE11CCF00F01DCF01F08B0E406E87
:1039F000180E416E1CCF3BF01DCF3CF063EC17F06E
:103A000037C0DEFF38C0DDFFDECF00F0DDCF01F0D4
:103A10000001800E011408E0D9CFE9FFDACFEAFFF8
:103A20008B0EEE26180EED220F013E51DE5C006E6D
:103A30003F51DD58016E020E00C0DBFF030E01C0D6
:103A4000DBFF020EDBCF00F0030EDBCF01F01DDA4F
:103A50001C0E22DA0050EE5C3E6F0150EE583F6FB4
:103A60000401396B3A6B3B6B3C6BDFD1D9CFE6FF7E
:103A7000E1CFD9FF080EE1269AD9EECF10F0EECFB4
:103A800011F0EECF12F0EFCF13F010CF3FF011CFC7
:103A900040F012CF41F013CF42F010C03AF011C005
:103AA0003BF012C03CF013C03DF00CEC16F03AC0F5
:103AB0000CF03BC00DF03CC00EF03DC00FF07BD9C8
:103AC000EECF14F0EECF15F0EECF16F0EFCF17F0EB
:103AD00014C03FF015C040F016C041F017C042F0CE
:103AE0000DEC16F03AC008F03BC009F03CC00AF0FB
:103AF0003DC00BF014CF3FF015CF40F016CF41F092
:103B000017CF42F00CEC16F0B7D93F6A406A416A11
:103B1000400E426EA3EC16F095D951D959D90CEC50
:103B200016F03AC0DEFF3BC0DEFF3CC0DEFF3DC00A
:103B3000DDFFDD52DD5204013B513C1101E0E0D0DC
:103B40000F01405141112DE0F40EE66E010EE66EBC
:103B500040CFE6FF41CFE6FF39C4E6FF3AC4E6FFB7
:103B6000ECEC1AF050D939C004F03AC005F03BC073
:103B700006F03CC007F039C03FF03AC040F03BC00F
:103B800041F03CC042F009D95DD9EAD80C0E84D985
:103B90003AC0EEFF50D9E4D8080E7ED900C0EEFF3F
:103BA0004AD90F01800E3F152DE13E513F1121E111
:103BB000FED817D900D9EECF08F0EECF09F0EECF3E
:103BC0000AF0EFCF0BF06CD908C03AF009C03BF017
:103BD0000AC03CF00BC03DF0A3EC16F04DD9EFD875
:103BE00009D90CEC16F037D90DEC16F0CDD8BFD8AA
:103BF00011D0260EE66E5E0EE66E6DEC35F0E552E7
:103C0000E5520ED09AD8ACD80C0E85D80DEC16F033
:103C1000BBD893D8A5D8080E7ED80CEC16F0B4D833
:103C20003F6A406A416A426AD3D840EC18F0010A00
:103C30004AE0000EE66EE66ADECF3AF0DECF3BF0F9
:103C4000DECF3CF0DDCF3DF0DD52DD5211EC18F05F
:103C50003BC006F03CC007F03BC0E6FF3CC0E6FFBF
:103C6000420EE66E0F0EE66EB1EC19F0CCD8F3CF33
:103C700004F0F4CF05F0F3CF3BF0F4CF3CF0DEECF2
:103C800015F0E0D83F6A406A7A0E416E440E426EEB
:103C9000A3EC16F0E0D8F6EC16F076D868D860D829
:103CA000080E39D8F6EC16F06FD8D9CFE9FFDACF85
:103CB000EAFF97D83F6A406A416A426A9BD847EC5C
:103CC00018F0010A17E11A0E04013927000E3A23F1
:103CD00039513A1117E03A510F014119E8AE02D0BB
:103CE000413507D040510401395D0F0141510401B4
:103CF0003A5908E335D80C0E8BD832D8080E88D83C
:103D0000F36A02D0010EF36EF46A8FD0010E040143
:103D10003B6F3C6B1200C0D8EECF3AF0EECF3BF0D9
:103D2000EECF3CF0EFCF3DF000C03FF001C040F0DF
:103D300002C041F003C042F01200A7D81A0EACD85E
:103D4000EECF08F0EFCF09F008C03BF009C03CF01F
:103D5000DEEC15F091D8A4D8A3EC16F022EF1FF0FA
:103D6000FB0EDBCFE9FFFC0EDBCFEAFF1200040EF7
:103D7000DBCF00F0050EDBCF01F0060EDBCF02F04B
:103D8000070EDBCF03F012003DC0EDFF3CC0EDFF9E
:103D90003BC0EDFF3AC0EFFF120036CF3AF037CF0D
:103DA0003BF038CF3CF039CF3DF0F6EF16F06DD850
:103DB000100E4CEF1FF069D8140E4CEF1FF03AC0F4
:103DC0003FF03BC040F03CC041F03DC042F012002B
:103DD0003ACF3AF03BCF3BF03CCF3CF03DCF3DF00B
:103DE0001200EECF00F0EECF01F0EECF02F0EFCFF9
:103DF00003F0120000C03AF001C03BF002C03CF0FA
:103E000003C03DF01200F56E060EE15EF5501200A3
:103E100043D8EE6AEE6AEE6AEE6A1200010EE66EB2
:103E2000E66A000EE66EE66A1200D9CFE1FFE552BF
:103E3000E7CFD9FF120001C0EEFF02C0EEFF03C0C2
:103E4000EEFF12003AC000F03BC001F03CC002F0AF
:103E50003DC003F01200040E3AC0DBFF050E3BC06C
:103E6000DBFF060E3CC0DBFF070E3DC0DBFF7FDF44
:103E700077DF0C0E8BEF1EF03AC004F03BC005F06C
:103E80003CC006F03DC007F01200FD0EDBCFE9FF9D
:103E9000FE0EDBCFEAFF1200E926000EEA22120036
:0E3EA0003F6A406A200E416E410E426E1200D3
:023EAE003ADAFE
:103EB000040EE126040123510AE1D1D8DF6EDF04AC
:103EC00004E10401010E236F02D0DF500108F2D992
:103ED000E76E010EE7CFDBFFDB50000817E2030EB1
:103EE000DB6A010EDB50F36E030EDBCFF4FFF35001
:103EF000F45C0CE2E1D9E76E020EE7CFDBFFDBCF2B
:103F0000E6FF07D8E552030EDB2AEBD7D9CFE1FF56
:103F10000ED208DA04012A51060A01E17FD0030A11
:103F200060E0060A2EE0010A23E0030A01E096D0D1
:103F3000FE0EDB50006E016AFF0E001804E1015016
:103F400002E1020E8AD0FE0EDB50410806E10301B9
:103F5000020E616F0401050E80D0FE0EDB504E088C
:103F600001E07CD00301020E616F0401060E75D0E2
:103F7000FE0EDB50540870E10301606B0401030E78
:103F80006CD003016051006E016A080E005C000EE7
:103F900001580AE26051EA6A3E0FE96E030EEA2216
:103FA000FE0EDBCFEFFF602B6051006E016A080E42
:103FB000001854E1015052E13EC336F33FC337F3DA
:103FC00040C338F341C339F342C33AF343C33BF32D
:103FD00044C33CF345C33DF30401242B000E2523C9
:103FE0003BD0020E0301615D04E1FE0EDB5043088D
:103FF00024E0030E615D04E1FE0EDB504B081DE082
:10400000040E615D09E1FE0EDB500D0805E10401BF
:10401000262B000E272320D004011ED0020E030100
:10402000615D04E1FE0EDB50430807E0030E615DB5
:1040300006E1FE0EDB504B0802E1612B0FD0040EAF
:10404000615D09E1FE0EDB500D0805E10401282B3E
:10405000000E292301D00401010E2A6F68D162D914
:10406000E65204012B0507E1FCD8050EE66E02D9E5
:10407000E55204012B6B2C050DE12C6B0301636BE6
:10408000010E626F646B656B666B0401266B276BB8
:10409000286B296B0301630528E10401010E265DED
:1040A000000E275905E30301636B646B656BC3D096
:1040B000010E285D000E295903E303016205BAD001
:1040C00003010A0E645D000E65590BE3800E622544
:1040D000006E016A000E01220006015A00C066F35C
:1040E000AAD0642B000E6523A6D00401266B276B93
:1040F000286B296B03016251120A01E19AD0030A6D
:1041000001E180D0010A01E177D01F0A6FE0010AC6
:1041100067E0030A5FE0010A57E0070A4FE0010A7F
:1041200045E0030A3DE0010A35E00F0A2DE0010AEF
:1041300025E0030A1DE0010A15E0070A0DE0010A67
:1041400007E0030A01E077D08CD80301020E01D00A
:10415000030E626F636B6FD0800EE66E290ED3D8AC
:10416000040E63D0200EE66E130ECDD8050E5DD082
:10417000840EE66E2D0EC7D8060E57D0800EE66E62
:104180002A0EC1D8070E51D0200EE66E2B0EBBD8DA
:10419000080E4BD0840EE66E2D0EB5D8090E45D014
:1041A000200EE66E120EAFD80A0E3FD0E66AE66A1F
:1041B00079D8E552E55203010B0E37D0800EE66E3A
:1041C000010EA1D80C0E31D0800EE66E020E9BD8E7
:1041D0000D0E2BD0800EE66E030E95D80E0E25D058
:1041E000010EE66E060E8FD80F0E1FD0010EE66E82
:1041F000100E89D8100E19D0E66A4AD8E55203018C
:10420000110E13D0910EE66E640EE66E100EE66E81
:104210000F0EE66E730EE66E550EE66E16D8F56E50
:10422000060EE15EF5500301120E626F010E636F20
:1042300002D0010E666F6651000803E20401010E10
:104240002C6F03016651E55272D06CD8540E61D8C0
:10425000430E5FD8060E6FD8FA0E5FD8F90E5DD800
:1042600066D00D0E89EF21F00401236B12000401CA
:104270002351120057D8520E4CD84D0E4AD8200E5A
:1042800048D8FE0EDB50300F44D80D0E42D84FD028
:1042900049D84E0E3ED8460E3CD8010E3AD8FE0EF6
:1042A0003CD845D03FD8430E34D8520E32D8020EF7
:1042B00048D83DD00FEF2EF036EF2EF033D8FE0E5B
:1042C000DBCFE6FF6EEC2EF0E55231D006EF2EF09C
:1042D00018EF2EF027D8FE0EDBCFE6FF54EC2EF0C1
:1042E000E55225D01FD8560E14D8570E12D8040EFA
:1042F00022D81DD0500E0DD84D0E0BD8310E09D836
:10430000310E89EF21F0E66ECDDFE552E552030173
:104310001200E66ED3DFE5521200DBCFE6FFCEDF00
:10432000E5521200D9CFE6FFE1CFD9FF1200E552E6
:10433000E7CFD9FF120005D8FC0EEFDFFB0E8DEFA3
:0E43400021F0E7DFFE0EE9DFFD0E8DEF21F02C
:02434E00D9CFC5
:10435000E6FFE1CFD9FF040EE126FD0EDBCFE6FF3D
:10436000FE0EDBCFE6FF9DD8E552E55239C0DEFFF9
:104370003AC0DEFF3BC0DEFF3CC0DDFFDD52DD5258
:10438000F4D9000E3D18E8AE02D03D3409D0000E3D
:10439000D8803A54000E3B54000E3C54000E3D545D
:1043A00049E3E3D9FD0E3A1808E1E8683B1805E156
:1043B000E8683C1802E1E8683D1828E0FE0E3A186B
:1043C00008E1E8683B1805E1E8683C1802E1E868A4
:1043D0003D182BE0E8683A1808E1E8683B1805E169
:1043E000E8683C1802E1E8683D180CE03A501DE12D
:1043F0003B501BE13C5019E13D5017E17D0E006E32
:104400005F0E07D06F0E006E5F0E03D0630E006E5E
:104410005F0E016E026A00C0E6FFE66E02C0E6FFB4
:104420006DEC35F0E552E552E552396A3A6A3B6A7D
:104430003C6A36D0D9CFE9FFDACFEAFFEECF04F0FD
:10444000EECF05F0EECF06F0EFCF07F0090E3E6E8F
:104450003F6A406A416A04C039F005C03AF006C0BC
:104460003BF007C03CF0F9EC35F035C004F036C045
:1044700005F037C006F038C007F0006A870E016EFD
:10448000930E026E030E036E86D93C6E35C03EF06D
:1044900036C03FF037C040F038C041F089EC17F02B
:1044A00081D1D9CFE6FFE1CFD9FF140EE1260C0E62
:1044B000DB6A0D0EDB6A0E0EDB6A0F0EDB6A100E76
:1044C000DB6A110EDB6A120EDB6A130EDB6A70D92F
:1044D000010EEE1819E1ED5017E1770EDE6E030EB6
:1044E000DD6ED950020F3DD9150EEE6E040EED6E45
:1044F000D950040F36D90F0EEE6E040EED6E6DD945
:10450000890EEE6E030E1CD053D9020EEE181AE17E
:10451000ED5018E1670EDE6E030EDD6ED950020F0E
:1045200020D9130EEE6E040EED6ED950040F19D97A
:104530000D0EEE6E040EED6E50D9870EEE6E030E6C
:10454000ED6E02D03968ECD0020EDBCFE9FF030E2E
:10455000DBCFEAFF15D9EECF00F0EFCF01F0010E6F
:10456000D89000360136E806FBE1DE500024E96E03
:10457000DD500120EA6E02C0EEFF03C0EDFF080E21
:10458000DB6A090EDB6A080EDBCF00F0090EDBCF19
:1045900001F0D890015004E6080E005C000E0158AE
:1045A00058E2C2D8EDD8EECF06F0EFCF07F0010EFB
:1045B000D89006360736E806FBE1DE500624E96EA1
:1045C000DD500720EA6EEE50025C006EEE5003589C
:1045D000016E0A0E00C0DBFF0B0E01C0DBFF0A0EEE
:1045E000DBCF00F00B0EDBCF01F0D880015004E7E9
:1045F000F10E005CFF0E015826E30A0EDBCF02F03D
:104600000B0EDBCF03F0033404E202500F08000E60
:10461000035419E389D8D3D801AE02D002680368E5
:10462000D9500C0F9ED80050EE260150EE220250B9
:10463000EE220350EE22D950100F93D8EE2A000E2E
:10464000EE22EE22EE22080EDB2A090E9CE3DB2A84
:104650009AD7C3D8EECFF3FFEDCFF4FF020EEE26CC
:10466000000EEF22F3CFE9FFF4CFEAFF6DD8005040
:1046700001100210031002E1FE0E51D00F0E006E69
:10468000016A026A036AD9500C0F6BD8EE500026FB
:10469000EE500122EE500222EE50032297D8EECFC8
:1046A00004F0EFCF05F0066A076A03500718E8AE7A
:1046B00002D0073408D00450005C05500158065061
:1046C00002580750035806E281D879D864D803C04D
:1046D0003CF029D0100EDBCF00F0110EDBCF01F043
:1046E000120EDBCF02F0130EDBCF03F000500110EF
:1046F0000210031013E028D84ED803C03CF0100E6F
:10470000DBCF3EF0110EDBCF3FF0120EDBCF40F0DF
:10471000130EDBCF41F089EC17F005D0FD0E396E9A
:104720003A683B683C683ED0080EDBCF04F0090EC7
:10473000DBCF05F0D89004360536DE500424E96E50
:10474000DD500520EA6E12000C0EDBCF00F00D0EDE
:10475000DBCF01F00E0EDBCF02F00F0EDBCF03F04C
:104760001200E96EDACFEAFF1200DECF3AF0DECFB8
:104770003BF0DECF3CF0DDCF3DF0DD52DD521200EC
:10478000EECF02F0EFCF03F0060EDBCFE9FF070E0E
:10479000DBCFEAFF120000C039F001C03AF002C0DE
:1047A0003BF01200D9CFE1FFE552E7CFD9FF12006D
:1047B000D950FD0FE96EFF0EDA20EA6E1200EECF3F
:1047C00000F0EFCF01F0026A036A1200040EDBCFA3
:1047D000E9FF050EDBCFEAFF1200D950060FB1EF5B
:0247E00023F0C4
:0E47E2000301FE0E976F470E986FE00E996F61
:1047F000490E9A6FAC0E9B6F4A0E9C6F1200D9CF78
:10480000E6FFE1CFD9FF040EE1260401375138114C
:1048100001E1E0D0360EE66EE66AFD0EDBCFE6FF84
:10482000FE0EDBCFE6FFB30EE66E010EC5D90E0E0F
:10483000E66EE66A8AD9E9CF00F0EACF01F0E9CF67
:10484000E6FFEACFE6FFE90EE66E010EB5D9AFD975
:10485000C10E426E71D947EC18F0010A18E1C1D9B6
:1048600050EC18F0010A13E1C8D950EC18F0010A15
:1048700007E10101E96BEA6B360EEB6FC10E06D062
:104880000101E96BEA6B360EEB6F410EEC6FCFC1A5
:1048900000F0D0C101F08B0E406E180E416ECFC1FA
:1048A0003BF0D0C13CF063EC17F037C0DEFF38C0FE
:1048B000DDFF92D90001800E011408E0D9CFE9FF95
:1048C000DACFEAFF8B0EEE26180EED220101ED5134
:1048D000DE5C006EEE51DD58016E020E00C0DBFFA3
:1048E000030E01C0DBFF89D947EC18F0010A1FE174
:1048F00073D901010150EE19E8AE02D0EE3504D0B3
:10490000ED51005CEE5101581FE3680ECF25006E9B
:10491000010ED021016E020EDB500001005C01018E
:10492000ED6F030EDB5000010158010123D054D973
:104930000101EE510118E8AE02D0013404D000505C
:10494000ED5D0150EE5907E2020EDB50CF5DED6FD9
:10495000030EDB500ED0020EDBCF00F0030EDBCFD8
:1049600001F0680E0026010E01220050CF5DED6FB0
:104970000150D059EE6FEFC1FBF1F0C1FCF1F1C174
:10498000FDF1F2C1FEF1EFC1F7F1F0C1F8F1F1C1B3
:10499000F9F1F2C1FAF125D90DEC16F08CD8E8D86E
:1049A0003AC0F7F13BC0F8F13CC0F9F13DC0FAF173
:1049B00018D90CEC16F07FD8E5D83AC0FBF13BC013
:1049C000FCF13CC0FDF13DC0FEF10401356B366BDE
:1049D000376B386BD9CFE1FFE552E7CFD9FF120033
:1049E000D9CFE6FFE1CFD9FF04013751381155E1A6
:1049F000D3D8EECF00F0EFCF01F00101F551ED5D1E
:104A0000026EEE51F655036EE8500118E8AE02D082
:104A1000013404D00050025C0150035816E2BCD8A7
:104A2000EECF04F0EFCF05F0ED51F525066EEE5117
:104A3000F621076E05500718E8AE02D0073404D0FF
:104A40000650045C0750055828E353D891D83AC063
:104A500000F0CCD87AD8080E7FD84BD893D8C6D8D7
:104A600074D80C0E79D81A0E04013527000E36239F
:104A700036510101F419E8AE02D0F43507D0F351F4
:104A80000401355D0101F4510401365908E35DD894
:104A90000C0E9AD85AD8080E97D8F36A02D0010E95
:104AA000F36EF46AE552E7CFD9FF1200010E04015C
:104AB000376F386B12003AC004F03BC005F03CC0C1
:104AC00006F03DC007F0E9C13FF0EAC140F0EBC19C
:104AD00041F0ECC142F0A3EC16F03AC000F086D8E9
:104AE0003AC03FF03BC040F03CC041F03DC042F016
:104AF00012002C0EE66E010EE66EF3C1E6FFF4C165
:104B0000E6FF35C4E6FF36C4E6FFECEC1AF0F56EBE
:104B1000060EE15EF55039C004F03AC005F03BC026
:104B200006F03CC007F039C03FF03AC040F03BC04F
:104B300041F03CC042F01200E9C13AF0EAC13BF05A
:104B4000EBC13CF0ECC13DF01200FB0EDBCFE9FF06
:104B5000FC0EDBCFEAFF1200E926000EEA223AC083
:104B6000EEFF01C0EEFF02C0EEFF03C0EEFF120039
:104B7000F7C13AF0F8C13BF0F9C13CF0FAC13DF0A1
:104B8000F6EF16F0FBC13AF0FCC13BF0FDC13CF082
:104B9000FEC13DF0F6EF16F0FD0EDBCFE9FFFE0E95
:104BA000DBCFEAFF1C0EE926000EEA2212003F6A64
:104BB000406A360E416E1200E66EC0EC34F0F56EBF
:104BC000060EE15EF5501200E926000EEA22EE6ABA
:104BD000EE6AEE6AEE6A1200DECF00F0DDCF01F081
:104BE0001200E5DF410E426E9CEF25F03BC001F064
:104BF0003CC002F03DC003F012003F6A406A416AC7
:064C0000426A9CEF25F062
:0A4C0600000EE96EEA6E040010ECE7
:104C100026F0EA2A080EEA5CD8A406EF26F0120075
:104C2000EF6AE93E10EF26F01200FF0EE3CF27F007
:104C300027380F0B060FD8B2070F2A0FAD6E4FECB7
:104C400031F027500F0B060FD8B2070F2A0FAD6EA9
:104C50004FEC31F0000C1200EACF22F0E9CF23F044
:104C6000FF0EE3CFEAFFFE0EE3CFE9FFC0A741D07E
:104C7000EECFA0F0EECFA1F0EECFA2F0EECFA3F0FA
:104C8000EECFA4F0EECFA5F0EECFA6F0EECFA7F0DA
:104C9000EECFA8F0EECFA9F0EECFAAF0EECFABF0BA
:104CA000EECFACF0EECFADF0EECFAEF0EECFAFF09A
:104CB000EECFB0F0EECFB1F0EECFB2F0EECFB3F07A
:104CC000EECFB4F0EECFB5F0EECFB6F0EECFB7F05A
:104CD000EECFB8F0EECFB9F0EECFBAF0EECFBBF03A
:104CE000EECFBCF0EECFBDF0EECFBEF0EECFBFF01A
:104CF00040D0EECF80F0EECF81F0EECF82F0EECF5D
:104D000083F0EECF84F0EECF85F0EECF86F0EECFDD
:104D100087F0EECF88F0EECF89F0EECF8AF0EECFBD
:104D20008BF0EECF8CF0EECF8DF0EECF8EF0EECF9D
:104D30008FF0EECF90F0EECF91F0EECF92F0EECF7D
:104D400093F0EECF94F0EECF95F0EECF96F0EECF5D
:104D500097F0EECF98F0EECF99F0EECF9AF0EECF3D
:104D60009BF0EECF9CF0EECF9DF0EECF9EF0EECF1D
:104D70009FF022C0EAFF23C0E9FF1200C0A1120089
:104D8000EACF22F0E9CF23F0FF0EE3CFEAFFFE0ED9
:104D9000E3CFE9FFC0A941D0C0C0EEFFC1C0EEFF24
:104DA000C2C0EEFFC3C0EEFFC4C0EEFFC5C0EEFF41
:104DB000C6C0EEFFC7C0EEFFC8C0EEFFC9C0EEFF21
:104DC000CAC0EEFFCBC0EEFFCCC0EEFFCDC0EEFF01
:104DD000CEC0EEFFCFC0EEFFD0C0EEFFD1C0EEFFE1
:104DE000D2C0EEFFD3C0EEFFD4C0EEFFD5C0EEFFC1
:104DF000D6C0EEFFD7C0EEFFD8C0EEFFD9C0EEFFA1
:104E0000DAC0EEFFDBC0EEFFDCC0EEFFDDC0EEFF80
:104E1000DEC0EEFFDFC0EEFF40D0E0C0EEFFE1C03D
:104E2000EEFFE2C0EEFFE3C0EEFFE4C0EEFFE5C040
:104E3000EEFFE6C0EEFFE7C0EEFFE8C0EEFFE9C020
:104E4000EEFFEAC0EEFFEBC0EEFFECC0EEFFEDC000
:104E5000EEFFEEC0EEFFEFC0EEFFF0C0EEFFF1C0E0
:104E6000EEFFF2C0EEFFF3C0EEFFF4C0EEFFF5C0C0
:104E7000EEFFF6C0EEFFF7C0EEFFF8C0EEFFF9C0A0
:104E8000EEFFFAC0EEFFFBC0EEFFFCC0EEFFFDC080
:104E9000EEFFFEC0EEFFFFC0EEFF22C0EAFF23C020
:104EA000E9FF1200F2B4120034500F0AD8B4120015
:104EB000FF0EE3CF28F0FE0EE3CF29F0FD0EE3CF87
:104EC0002AF0FC0EE3CF2BF0282A34A08D8E292A5D
:104ED00034A28F802A2A34A48F862B2A34A68F8866
:104EE0002C6A2D6A2E6A2F6AA5EC27F0282E7BEFFC
:104EF00027F034A08D9E292E80EF27F034A28F90CA
:104F00002A2E85EF27F034A48F9600002B2E8BEFEE
:104F100027F034A68F9800002C2E90EF27F03090C9
:104F200000002D2E95EF27F0309200002E2E9AEFE4
:104F300027F0309400002F2E9FEF27F03096C7EC1B
:104F400027F0313E76EF27F01200D70E316E0000C9
:104F5000000000000000BDEC27F0312EA7EF27F085
:104F6000D70E316E0000000000000000BDEC27F0FD
:104F7000312EB2EF27F0000012000000C0EF27F042
:104F80000000000000000000000000001200030EFE
:0C4F9000326E0000322EC9EF27F0120034
:044F9C00D9CFE6FF84
:104FA000E1CFD9FF0A0EE1260201F95104012419CB
:104FB00004E10201FA510401251901E145D124C49B
:104FC000F9F225C4FAF20301375101E1BCD0020124
:104FD000010EFB6F02018E51DE6EDD6A0301365158
:104FE000006E016A4F0E005E000E015A060E00C0F0
:104FF000DBFF070E01C0DBFF54D901340DE2005086
:105000000308000E015408E25AD91AE1010EF36EAA
:10501000040EF3CFDBFF12D044D9D880015004E74F
:10502000FD0E005CFF0E015807E249D909E1040EAC
:10503000DB68050EDB6804D0040EDB6A050EDB6A54
:105040003B683C68040EDBCF40F0050EDBCF41F03F
:10505000BDEC17F03AC001F0D9CFE9FFDACFEAFF93
:105060003950EE260150ED2217D90001800E0114AF
:1050700002E0DE6A0AD010D9013408E20050F808D4
:10508000000E015403E2F80EDE6EDD6ADFCF8EF211
:105090000201FAD803013751006E016A770E005EF3
:1050A000000E015A080E00C0DBFF090E01C0DBFF35
:1050B000FFD801340DE200500808000E015408E248
:1050C00007D91AE1010EF36E040EF3CFDBFF12D005
:1050D000EFD8D880015004E7F80E005CFF0E0158AD
:1050E00007E2F6D809E1040EDB68050EDB6804D0A0
:1050F000040EDB6A050EDB6A040EDBCF00F0050E42
:10510000DBCF01F0EDD80050EE260150ED22B8D8EB
:1051100004E6B90E005C000E015806E2B90EF36E0B
:10512000020EF3CFDBFF0CD0E1D8013401E389D0CC
:105130000050FF08000E015401E383D0020EDB682B
:10514000030EDB6A7ED00201FC2BFC51050801E353
:105150007BD0FC6BFB0505E1FB6BDE6ADD6A900E24
:1051600033D002018E51DE6EDD6A8ED80201FD5110
:10517000FE1109E191D8D890015004E6F80E005CC8
:10518000000E01580EE2FD51FE1134E0DECF02F0B8
:10519000DDCF03F0033404E202500008000E035494
:1051A00029E3FD51FE1102E0000E01D0010EFD6F5A
:1051B000FE6B800B01E0FE6963D804E6FF0E005C25
:1051C000000E015806E3B90EF36E020EF3CFDBFFBB
:1051D0000ED086D8170EEE26000EED2251D804E62A
:1051E000FF0E005C000E01582AE3020EDB68030E7E
:1051F000DB6A25D0FD51FE1110E13E0EDE26000EC9
:10520000DD224AD8D890015004E6F80E005C000E6A
:10521000015815E3F80EDE6E11D0D9CFE9FFDACFD1
:10522000EAFF3E0EEE5E000EED5A36D8013404E27F
:1052300000500008000E015402E3DE6ADD6ADFCF91
:105240008EF2020EDBCF8FF2D9CFE1FFE552E7CF2E
:10525000D9FF1200DBCF3CF000C040F001C041F0AC
:1052600063EC17F0040E3BC0DBFF050E3CC0DBFF18
:10527000D950040FE96EDACFEAFFEE50ED101200BC
:1052800035D8D890015012008F51E66E29D8E552DA
:10529000E750EE6EED6A1200DECF00F0DDCF01F0D8
:1052A0001200060EDBCF00F0070EDBCF01F012007C
:1052B000080EDBCF00F0090EDBCF01F01200030E69
:1052C000006E016A060EDBCF3BF0070E2AEF29F0D5
:1052D000080E006E016ADBCF3BF0090E2AEF29F0C1
:1052E000D950020FE96EDACFEAFF1200020EDBCFCF
:0A52F00000F0030EDBCF01F0120006
:0652FA007CD9E652C80E4B
:105300000301C26FC36B020EC66F010EC76F040E9E
:10531000C46FC56BDF6AC651DF5C08E2DF5073D92A
:10532000EE6AEE6AEE6AEE6ADF2AF5D7D46BD56BC9
:10533000D66B010EC26EC16A860EC06E9F9C9E9C8B
:105340009D8CC2C3E6FFC3C3E6FF0BD8E552E5520E
:10535000E55255D14FD9E65246D89D9CC26AE552D6
:105360004ED148D9FD0EDBCF3BF0FE0EDBCF3CF03B
:105370003B5002E1190E3C1828E0800E3B1802E178
:105380000C0E3C181EE0400E3B1802E1060E3C18C5
:1053900016E0200E3B1802E1030E3C180EE0900EC2
:1053A0003B1802E1010E3C1806E0C80E3B1811E163
:1053B0003C500FE10ED0520E09D0520E03D0510EC8
:1053C00005D0510ECA6E450E07D0500ECA6E8C0E17
:1053D00003D06A0ECA6EDD0ECB6ECC6A9F929E928F
:1053E0009D82CA840CD19D92CA94120003D9020EE8
:1053F000E126FE0EDBCF00F00301C651D880005439
:105400000CE39D9CFE0EDB04E96EEA6A10D9EECF38
:10541000DEFFEDCFDDFF9D8C02D0DE6ADD6ADECFE0
:1054200000F0DDCF01F000C0F3FF01C0F4FFD9CFE1
:10543000E1FFE5D0DFD8FD0EDBCF00F0FE0EDBCFC5
:1054400001F0026A036A880E3E6E130E3F6E406AD8
:10545000416A00C039F001C03AF002C03BF003C01D
:105460003CF0F9EC35F035C000F036C001F037C043
:1054700002F038C003F03E6A080E3F6E406A416A8F
:1054800035C039F036C03AF037C03BF038C03CF098
:1054900089EC17F039C000F03AC001F03BC002F0CF
:1054A0003CC003F039C0F3FF3AC0F4FFA8D0A2D843
:1054B000E6529D9CFFC2DFFF9D8CDF50E5529FD0DE
:1054C0009D9C0201FF6B9D8C1200C282120092D83B
:1054D000050EE126C450DE6EDD6AD9CFE9FFDACFD2
:1054E000EAFFEE50ED6EEF6AC350DE26000EDD22BD
:1054F000DECF00F0DDCF01F0026A036A0301D6516E
:1055000082D80050EE260150EE220250EE220350C7
:10551000EE22D62BC651D65D04E3D66BD42B000EFB
:10552000D523020ED6C3DBFFDB50040D020EF3CFF2
:10553000DBFFDB80DB50C26EC451D45DC551D55951
:105540004AE3030EDB6A040EDB6A67D801AE02D0C1
:10555000D89003D0005C000E015820E23FD8030130
:10556000C7511F0BEECF00F0EECF01F0EECF02F0EF
:10557000EECF03F007E0D89003320232013200325E
:10558000E806F9E15CD853D800C0EEFF01C0EDFF9A
:10559000030EDB2A040ED9E3DB2AD7D7030EDB6A1E
:1055A000040EDB6A3AD801AE02D0D89003D0005C7A
:1055B000000E01580BE212D8EE6AEE6AEE6AEE6A4D
:1055C000030EDB2A040EEEE3DB2AECD70201FF2BED
:1055D0000301D46BD56BD9CFE1FF11D030D8D8906F
:1055E000E936EA36D890E936EA36C80EE926030EDF
:1055F000EA221200D9CFE6FFE1CFD9FF1200E5522F
:10560000E7CFD9FF1200040DF3CFE9FFF4CFEAFF93
:10561000C80EE926030EEA221200030EDBCF00F0CB
:10562000040EDBCF01F00301C65100011200D89037
:10563000E936EA36D00EE926030EEA221200030EFE
:0C564000DBCFE9FF040EDBCFEAFF120015
:04564C000301680EE0
:10565000A36F560EA46FBC0EA56F560EA66FFA0E62
:10566000A76F580EA86F1200D9CFE6FFE1CFD9FF80
:1056700004011B511C111EE0360EE66EE66AFD0E9B
:10568000DBCFE6FFFE0EDBCFE6FF000EE66E030E7D
:10569000E66EC0EC34F0F56E060EE15EF5500401E6
:1056A000196B1A6B1B6B1C6B1D691E691F6B206BC2
:1056B000216B226BE552E7CFD9FF1200D9CFE6FF6D
:1056C000E1CFD9FF0E0EE12604011B511C110AE1A6
:1056D0001D511F1902E11E51201954E01F5101E113
:1056E000205102E0F36A02D1010E216F226BDE6AC3
:1056F000DE6AB40EDE6E420EDD6EDD52DD52080E45
:10570000DB6A090EDB6A0A0EDB6A0B0EDB6A040E2B
:10571000DB6A050EDB6A480EF36E060EF3CFDBFF85
:10572000420EF36E070EF3CFDBFF21C4E9FF22C464
:10573000EAFF060EEA02F3CFEAFFE902F3CFE9FF40
:10574000F450EA268B0EE926030EEA22EECF00F093
:10575000EFCF01F0D9CFE6FFDACFE6FFFD0EDBCFCA
:10576000E6FFFE0EDBCFE6FF04D001C0FAFF0050DB
:10577000F96EFBDFE552E552E552E5521FC41DF418
:1057800020C41EF421C4E9FF22C4EAFF060EEA0287
:10579000F3CFEAFFE902F3CFE9FFF450EA268B0EDC
:1057A000E926030EEA22040EE926000EEA22EECFD5
:1057B000E6FFEFCFE6FF21C4E9FF22C4EAFF060EB1
:1057C000EA02F3CFEAFFE902F3CFE9FFF450EA2659
:1057D0008B0EE926030EEA22020EE926000EEA22CB
:1057E000EECFE6FFEFCFE6FF21C4E9FF22C4EAFFD8
:1057F000060EEA02F3CFEAFFE902F3CFE9FFF45025
:10580000EA268B0EE926030EEA22EECFE6FFEFCF63
:10581000E6FF21C4E6FF22C4E6FF620E006E600EC2
:10582000016E026A00C0E6FFE66E02C0E6FF6DECA4
:1058300035F0F56E0B0EE15EF55021C4E9FF22C490
:10584000EAFF060EEA02F3CFEAFFE902F3CFE9FF2F
:10585000F450EA268B0EE926030EEA22020EE92610
:10586000000EEA22EECF02F0EFCF03F0FB0EDBCF0B
:10587000E6FFFC0EDBCFE6FFFD0EDBCFE6FFFE0E04
:10588000DBCFE6FF04D003C0FAFF0250F96EFBDF66
:10589000E552E552E552E552F3CF00F0F350F41033
:1058A00023E121C4E9FF22C4EAFF060EEA02F3CF96
:1058B000EAFFE902F3CFE9FFF450EA268B0EE9266E
:1058C000030EEA22040EE926000EEA22EECF00F0D3
:1058D000EFCF01F004D001C0FAFF0050F96EFBDFFA
:1058E00004011F2B000E2023010EF36EF46AD9CFA2
:1058F000E1FFE552E7CFD9FF1200010E04011B6F53
:045900001C6B12000A
:0C590400D8CFE4FFE0CFE4FFE46EDACF80
:10591000E4FFE2CFDAFFE9CFE4FFEACFE4FFF3CF21
:10592000E4FFF4CFE4FF00EE35F0140EE80403E3E7
:10593000EECFE4FFFBD700EE00F01E0EE80403E319
:10594000EECFE4FFFBD7E652D9CFE6FFE1CFD9FF98
:10595000020EE126F250040B07E0F250200B04E0A7
:10596000F2949CEC34F0AFD09E50010B07E09D50B8
:10597000010B04E09E909DEC34F0A5D09E50020BEC
:1059800007E09D50020B04E09E9265EC2AF09BD04C
:10599000A150020B07E0A050020B04E0A1929EEC84
:1059A00034F091D0A450080B07E0A350080B04E09A
:1059B000A4969FEC34F087D0F050020B07E0F05033
:1059C000100B04E0F092A6EC34F07DD0F050040B04
:1059D00007E0F050200B04E0F094AEEC34F073D00C
:1059E000F250010B43E0F250080B40E08150DF6EB3
:1059F000F290DF500101FF19E76E010EE7CFDBFFE8
:105A0000DFCFFFF1DBA80AD0100EDF1402E0010E99
:105A100001D0000EE66EB6EC34F0E552010EDBAAC2
:105A20000AD0200EDF1402E0010E01D0000EE66E57
:105A3000B7EC34F0E552010EDBAC0AD0400EDF14B7
:105A400002E0010E01D0000EE66EB8EC34F0E55233
:105A5000010EDBAE38D0800EDF1402E0010E01D063
:105A6000000EE66EB9EC34F0E5522DD09E50400B9E
:105A700007E09D50400B04E09E9C67EC2AF023D089
:105A80009E50200B06E09D50200B03E088EC2EF08A
:105A90001AD0A450200B06E0A350200B03E0A7EC83
:105AA0002EF011D09E50100B06E09D50100B03E01D
:105AB000C6EC2EF008D0A450100B05E0A350100B3C
:105AC00002E0DEEC2EF0D9CFE1FFE552E7CFD9FFBF
:105AD000E55200EE1DF01E0EE80403E3E5CFEDFFF6
:105AE000FBD700EE48F0140EE80403E3E5CFEDFF2A
:105AF000FBD7E5CFF4FFE5CFF3FFE5CFEAFFE5CF36
:105B0000E9FFE5CFDAFFE550E5CFE0FFE5CFD8FFCD
:105B1000100002017F0E8B6F8A6F896F886F876F0D
:105B2000866F856F846F936F926F916F906F8F6F99
:105B30008E6F8D6F8C6F8C928D928C908D908C96D9
:105B40008D968C948D948C9A8D9A8C988D988C9E31
:105B500091908C9C8D9C0201A1AD24D00201C0A12A
:105B6000FAD7A00EE66E020EE66E41EC13F0E55297
:105B7000E55273EC05F093C2E6FF92C2E6FF91C2D4
:105B8000E6FF90C2E6FF5CEC33F0E552E552E552E9
:105B9000E552800EE66E020EE66E5AEC13F0E55208
:085BA000E552D9D712001200F2
:085BA800150EAF6EAC849D9A4E
:105BB0009D98AC98AC9E948EAB9CAB96AB8AAB8810
:105BC0009F9A9D8A04014B694C69949CAC9CAC964D
:105BD0009F989D88AC8AAB8E1200150E6F6E6C84F8
:105BE000A39AA3986C986C9E98846B9C6B966B8A16
:105BF0006B88A59AA38A04014B694C6998926C9CA6
:105C00006C96A598A3886C8A6B8E120007D9E65211
:105C10009D9AAEC3DFFF9D8ADF50E552FBD0FED8D0
:105C2000E652A39ABAC3DFFFA38ADF50E552F2D04F
:105C3000F5D8E6520301AB5102E0000E15D0AC518D
:105C4000EA6A000FE96E020EEA22EFCFDFFFAE072D
:105C5000AC2B1F0EAC179D9AAD51AC5D02E1010E4D
:105C6000AB6F9D8AAA6BDF50E552D4D0D7D8E652ED
:105C70000301B75102E0000E15D0B851EA6A400F97
:105C8000E96E020EEA22EFCFDFFFBA07B82B1F0E34
:105C9000B817A39AB951B85D02E1010EB76FA38A94
:105CA000B66BDF50E552B6D0B9D80301B151FDE172
:105CB000B451EA6A200FE96E020EEA22FE0EDBCF33
:105CC000EFFFB52BB42B1F0EB4179D98B451B35DE5
:105CD00002E1010EB16F9D88B26B9CD09FD8030189
:105CE000BD51FDE1C051EA6A600FE96E020EEA2281
:105CF000FE0EDBCFEFFFC12BC02B1F0EC017A398EA
:105D0000C051BF5D02E1010EBD6FA388BE6B82D0A2
:105D10000301AA5102E09D9A1200AD51EA6A000FF8
:105D2000E96E020EEA22AECFEFFFABA203D0AB9832
:105D3000AB88AF2BABB4B02BAE2BAD2B1F0EAD177A
:105D4000AD51AC5D02E1010EAA6FAB6B1200030115
:105D5000B65102E0A39A1200B951EA6A400FE96E07
:105D6000020EEA226ECFEFFF6BA203D06B986B8816
:105D7000BB2B6BB4BC2BBA2BB92B1F0EB917B95167
:105D8000B85D02E1010EB66FB76B12000301B251AC
:105D900002E09D981200B351EA6A200FE96E020EEC
:105DA000EA22EF50AD6EB507B32B1F0EB317B451F7
:105DB000B35D02E1010EB26FB16B12000301BE517F
:105DC00002E0A3981200BF51EA6A600FE96E020E6A
:105DD000EA22EF506D6EC107BF2B1F0EBF17C051D7
:105DE000BF5D02E1010EBE6FBD6B120017D803014B
:105DF000A9510FE0A90505E1FE0EDBCFE6FF54DF58
:105E000007D0020EA95D05E1FE0EDBCFE6FF66DFDF
:105E1000E55200D0E552E7CFD9FF1200D9CFE6FF17
:065E2000E1CFD9FF1200E2
:0A5E26006E6F206779726F2C2077F1
:105E3000652772652066757575636B6564210D0A4B
:105E4000005374617274696E672061726D2E0D0A61
:105E500000706F73340D0A00706F73330D0A007099
:105E60006F73320D0A00706F73310D0A0061726D2D
:105E700020706F743A2025640D0A0063616C6C69B0
:105E80006E67206F75747075740A006175746F6E3B
:105E90000A0063757272656E742072313A2025644F
:105EA000092063757272656E742072323A2025641F
:105EB000092063757272656E74206C313A20256416
:105EC000092063757272656E74206C323A20256405
:105ED0000D0A0076656C20723A20256409207665EB
:105EE0006C206C3A2025640D0A004779726F2052AD
:105EF0006174653A2025642C204779726F20416EC9
:105F0000676C653A2025640D0A00446F6E650D00CC
:105F10000D43616C63756C6174696E6720477972BB
:105F20006F20426961732E2E2E0025733230303778
:105F300020526F626F74202D2D20546F6D202D2DF7
:105F400020526561647920746F20726F6C6C21201F
:105F50000A004779726F202B20456E636F6465726B
:105F6000730D00436F756E74207A65726F0D004972
:105F70006C6C6567616C20736964650D006D7320DE
:105F800030207774660D00436F6E666964656E63DA
:105F9000652028506978656C732920203D2025757F
:105FA0000D0A0020426C6F622053697A65202850E8
:105FB0006978656C732920203D2025750D0A0054F1
:105FC000696C74204572726F722028506978656C14
:105FD000732920203D2025640D0A002050616E2089
:105FE0004572726F722028506978656C7329202081
:105FF0003D2025640D0A0054696C7420416E676C65
:106000006520286465677265657329203D202564D5
:106010000D0A002050616E20416E676C6520286477
:1060200065677265657329203D2025640D0A000DA2
:106030000A00536561726368696E672E2E2E0D0A21
:10604000005573696E67207669727475616C20778C
:10605000696E646F770D0A00476F742061636B0D82
:106060000A007472616A232025642073746172745B
:106070002025782072756E2025782073746F70202B
:0460800025780D0072
:0C6084000301EE6BEF6BF06BF16BF86B3F
:106090001200ECC339F0EDC33AF03B6A3C6A3AAE09
:1060A00002D03B683C68F0D8080EE9D839C000F04F
:1060B0003AC001F0E80E0102F3CF01F0030E000236
:1060C000F3500126E80E0002F3CF00F0F450012651
:1060D000E80E406E030E416EF3CF3BF001C03CF082
:1060E00063EC17F03BC0F3FF3CC0F4FF1200EEC3BB
:1060F00039F0EFC33AF0F0C33BF0F1C33CF0C4D841
:10610000C80EBDD8E80E3E6E030E3F6EABD8E80E4B
:106110003E6E030E3FEF31F00301F85108E1F26BE0
:10612000F36BF46BF56BF66BF76B010EF86F120007
:106130000301F8051EE1F6C300F0F7C301F0026A9F
:10614000036AF2C339F0F3C33AF0F4C33BF0F5C38A
:106150003CF0F6C33EF0F7C33FF002C040F003C08E
:1061600041F0CAEC36F039C0EAF33AC0EBF3030170
:10617000F86B1200EAC3F3FFEBC3F4FF1200D9CFB0
:10618000E6FFE1CFD9FFFD0EDBCFEAF3FE0EDBCF5A
:10619000EBF3E552E7CFD9FF12000301EE6BEF6B93
:1061A000F06BF16B1200D9CFE6FFE1CFD9FF020E01
:1061B000E1260301F80512E1010EE66EF6EC29F086
:1061C000E552F3500301F2270001F4500301F323D9
:1061D000000EF423F523F62BF7233ED0010EE66ED6
:1061E000F6EC29F0E5520301EA51F35C006EEB5145
:1061F000F45800C0DEFFDD6EDECF00F0DDCF01F031
:10620000D880015004E7F80E005CFF0E01580BE344
:10621000DECF02F0DDCF03F003341CE202500808A9
:10622000000E035417E2DECFECF3DDCFEDF3DECF4B
:1062300000F0DDCF01F0026A036A01AE02D002680D
:1062400003680050EE270150EF230250F023035063
:10625000F12302D0EC6BED6BD9CFE1FFE552E7CF34
:10626000D9FF1200406A416AF9EC35F035C039F0C7
:1062700036C03AF037C03BF038C03CF012003F6EF9
