:020000040000FA
:0608000025EF3BF01200A1
:02080600FEFFF3
:0608080032EF15F01200B2
:02080E00C250D6
:08081000020B01E0010E1200D1
:06081800E3EF2FF01200D7
:02081E001000C8
:10082000857700006A040000010000007B7700006B
:10083000400400000A00000073770000F803000085
:10084000080000006F770000620400000400000050
:100850005F770000000400001000000046770000F1
:10086000B70300001900000006080000680400003B
:100870000200000043770000FD02000003000000BA
:100880003D770000500400000600000033770000B0
:10089000360400000A0000002F7700005E0400000C
:1008A00004000000257700002C0400000A0000006E
:1008B0001F7700004A040000060000001B770000BC
:1008C0005A0400000400000008770000E50300005F
:1008D00013000000FD7600005F0F00000100000023
:1008E000C4EC09F0020EE1266B0EDE6E670EDD6EC3
:1008F000938A93889386938499829980938E938C1C
:100900009A849A82998699849A8A9A8894809A86F7
:100910009A8E9A9C919C02017F0E8B6F8A6F896FD1
:10092000886F876F866F856F846F936F926F916FFB
:10093000906F8F6F8E6F8D6F8C6F000EE66EE66A14
:10094000E66EE66AE66EE66AE66EE66A9EEC16F02B
:10095000F56E080EE15EF5500301010EB76F27EC4E
:1009600031F040EC31F0C7EC35F068EC37F08AEC50
:1009700037F0A2EC37F065EC0BF07CDB29EC0AF0E9
:100980006CEC3BF04AEC0AF0DECFE6FFDDCFE6FF91
:10099000430E006E670E1BEC0BF0F56E050EE15E6C
:1009A000F550E3EC15F0D9CFE1FFC0EF09F00301FA
:1009B0002C0ED880E555010EE65503E3E52B000E1D
:1009C000E6230A0EE51907E1E65105E1290E006E5E
:1009D000670EA6EC09F003013C0EE51904E1E651AF
:1009E00002E1B0EC32F02C0E0301E5190CE1010E2E
:1009F000E61909E1BCEC32F0F1EC32F0230E006EA6
:100A0000670EA6EC09F0A00EE66E020EE66E43EC51
:100A100016F0E552E55203012C0EE55D010EE65994
:100A200001E32DD893C2E6FF92C2E6FF91C2E6FF32
:100A300090C2E6FFD3EC35F045EC0AF04AEF0AF03D
:100A40001C0E006E670EA6EC09F00AEC0BF0B7EC7A
:100A500009F05CD945EC0AF065EC0BF01FD929ECE4
:100A60000AF00C0E006E670EA6EC09F046EC0BF0D7
:100A70000301E72B000EE823E923EA2312000AEC26
:100A80000BF065EC0BF045D829EC0AF046EC0BF0C6
:100A90000201A1AB1ED0B7C236F092EC11F024ECEB
:100AA0000BF0710E396E3D0E3A6E7A0EDCEC0AF0E8
:100AB000800E3B6E430EABEC09F0396A3A6A200EA9
:100AC0003B6E410E3C6EBDEC12F0B1EC13F036C043
:100AD00080F2020180938750040B01E080838091B3
:100AE0008750080B01E0808180998150400B01E024
:100AF0008089809B8150800B01E0808B809D875096
:100B0000010B01E0808D809F8750020B01E0808FF8
:100B10001200C4EC09F0020EE12643EC0BF0A9C26E
:100B2000EFFF93EC09F0A8C2EFFFF0EC09F094DBC3
:100B300045EC0AF02DEC0BF00201A2A908D0ECDB89
:100B4000120EA2EC09F0010EEE6EED6A04D0A3A91C
:100B500002D04BEC0BF000EC0BF012E043EC0BF08E
:100B6000EF50DE6EDD6ADFDBFDEC09F043EC0BF0ED
:100B700061EC0AF0FF0E68EC0BF0D5DB00C0EFFF74
:100B8000A351080B15E0AB51026E036AD8900350D5
:100B900004E6A70E025C000E03580AE3AB51046E94
:100BA000056A053407E20450B108000E055402E25C
:100BB000000E01D0010E006E016A00BE016800C087
:100BC000E6FF01C0E6FFA351020B15E0AB51086E32
:100BD000096AD890095004E6DB0E085C000E09583B
:100BE0000AE3AB510A6E0B6A0B3407E20A50E508C0
:100BF000000E0B5402E2000E01D0010E066E076AD1
:100C000006BE076806C0E6FF07C0E6FFA351080B53
:100C100015E0AB510E6E0F6AD8900F5004E6F50E3A
:100C20000E5C000E0F580AE3AB51106E116A1134BE
:100C300007E21050FF08000E115402E2000E01D02E
:100C4000010E0C6E0D6A0CBE0D680CC0E6FF0DC0E7
:100C5000E6FFBFDB3DDBF56E080EE15EF5500201FD
:100C6000A2A105D0D4EC0AF0010EEF6E05D0A2A32C
:100C700003D0D4EC0AF0EF6AD4EC0AF0EF0403E1FD
:100C8000A8DB1ADB06D0D4EC0AF0EF5004E1A1DBBC
:100C900006DBE552E552D9CFE1FF72D375DB3CDBD1
:100CA0000C0E50DBC2DB810FE66E3DDBE552E750F8
:100CB000EF6E32DB080E46DBB8DB7F0FE66E43ECEF
:100CC0000BF0E552E750EF6E00EC0BF00CE043EC5C
:100CD0000BF093DB43EC0BF000C0EFFF24DB8DDB6C
:100CE00022DB00C0EFFF2DEC0BF0D4EC0AF0EF0498
:100CF00004E16FDBE1DAE552E552D4EC0AF0EF50A3
:100D000004E167DBCCDAE552E5523AD33DDB03017F
:100D1000EC1D47E1ED1D45E18150400B0AE081509B
:100D2000800B07E18750010B04E1020EF06FF16BBD
:100D300038D08150400B1CE18150800B19E1875065
:100D4000010B16E0030EF06FF16B01016D6B696B27
:100D50006A6BB40E6B6F430E6C6F706B716B656B6F
:100D6000666BFE0E676FC20E686F6E6B6F6B19D08D
:100D70008150400B16E18150800B13E08750010B2E
:100D800010E1FD0E006E660EE1DA040E0301F06F55
:100D9000F16B8750020B02E0720E01D06C0E010164
:100DA000656F0301EC1D2EE1ED1D2CE1F0C3E9FFA1
:100DB000F1C3EAFF060EEA02F3CFEAFFE902F3CF3E
:100DC000E9FFF450EA26990EE926030EEA22EECF57
:100DD00000F0EFCF01F0650EE66E010EE66EFD0E3F
:100DE000DBCFE6FFFE0EDBCFE6FF04D001C0FAFF4B
:100DF0000050F96EFBDFE552E552E552E552030182
:100E0000EC6BED6BEC51ED1153E1F0C3E9FFF1C375
:100E1000EAFF060EEA02F3CFEAFFE902F3CFE9FFA9
:100E2000F450EA26990EE926030EEA22020EE9267C
:100E3000000EEA22EECF02F0EFCF03F0FB0EDBCF85
:100E4000E6FFFC0EDBCFE6FFFD0EDBCFE6FFFE0E7E
:100E5000DBCFE6FF04D003C0FAFF0250F96EFBDFE0
:100E6000E552E552E552E552F3CF00F0F350F410AD
:100E70001FE1F0C3E9FFF1C3EAFF060EEA02F3CF78
:100E8000EAFFE902F3CFE9FFF450EA26990EE926DA
:100E9000030EEA22040EE926000EEA22EECF00F04D
:100EA000EFCF01F004D001C0FAFF0050F96EFBDF74
:100EB00067D26ADA2ADAEE52EFCF87F287C285F27A
:100EC00024DA9BDA00C086F200C084F26DEC0BF0ED
:100ED000EFCF8EF271EC0BF0EFCF8AF2CCDBEFCFDD
:100EE0008BF2CDDBEFCF8CF210DA070E2BDAEFCFDF
:100EF00088F246D249DA040EE126010E6DDB040EBB
:100F000021DA33C0EEFF9EDA020E66DB33C0EEFF5D
:100F100099DAE7DBE9DA0C0EC4DBF7D9E5DA080E7B
:100F2000C0DB6EDB22E0D9DBEECFDFFF010EEECFC0
:100F3000DBFF020EEECFDBFF030EEECFDBFFE5D9CA
:100F40000C0E00DA8FDBC9DB00C0EEFF7BDADDD9E7
:100F50000C0EF8D9DFCFEEFF010EDBCFEEFF020E55
:100F6000DBCFEEFF030EDBCFEEFF010154517F0814
:100F700002E2010E01D0FF0E99DB0301F2510401E0
:100F80000E5D156E0F510301F355D0DA140EDAD948
:100F900005DA010155517F0802E2010E01D0FF0E72
:100FA00085DB0301F45104010C5D156E0D51030145
:100FB000F555BCDA100EC6D9F1D90EC4F2F30FC440
:100FC000F3F30CC4F4F30DC4F5F39BEC32F087DAC1
:100FD0009CD9220EB7D933C0EEFF40DA02019151FD
:100FE0000A6E0B6A900E0A5E000E0B5A190E0B0267
:100FF000F3CF0BF00A02F3CF0AF0F4500B26320EB7
:101000003A6E3B6AF3CF35F00BC036F02AEC13F0A2
:1010100035C00AF036C00BF0A5EC11F0A7DA1C0EB3
:1010200091D935C0EEFF1ADA7C0E0201905D410DB8
:10103000F3CF0AF07C0E0B6E3B6EF3CF36F053EC21
:101040003BF092EC11F092DA1A0E7CD935C0EEFF2B
:1010500001C0EDFF02019051E66E57D91E0E2CDB48
:101060009151E66E52D9200E27DB43DB47DBD9CF07
:10107000E1FF86D189D949D9040E93DA8AD945D9B5
:101080000C0E8FDA080E8DDA140E8BDA100E89DA58
:10109000360EEB6A370EEB6A38D9380EEB6A390E2A
:1010A000EB6AF1EC32F031D9220EEB6A230EEB6AD7
:1010B00020DB9FDA140EEB6A150EEB6AECDA2CD902
:1010C0000C0E97DA080E95DA64D926D9040E91DA57
:1010D000160EEB6A170EEB6A1FD9180EEB6A190E83
:1010E000EB6A62DA020EEF6E1ED9020E2BD9FDDA20
:1010F000030E28D9FADA040E25D9EF6A14D9050EA1
:1011000021D9EF6A10D9060E1DD9EF68BCDAEDDAE5
:10111000ECDA0D0E87DA090E85DA080E13D97F0E88
:10112000EF6E74DAEF6A2CD10201809F809B80956C
:101130008091809D809980978093120025D9FD0E23
:10114000DBCF02F0FE0EDBCF03F0033407E20250E8
:101150000008000E035402E2BBD905D0B9D9006CD7
:10116000011E000E012200C0F3FF01C0F4FF08D1F0
:101170000BD9040EE1260301F651F71119E1010E16
:10118000F66FF76B810EE66EE6687F0E8CD9000E67
:10119000E66EE66A870E87D9030E85D9720EE66E73
:1011A000010EE66ECDEC18F0F56E120EE15EF55014
:1011B0000101CE512AE07C0E0201905DDE6EDD6AF7
:1011C000000EE66EE66ADECFE6FFDDCFE6FF720ECA
:1011D000E66E010EE66E4AEC19F03BD9020EF3CF33
:1011E000DBFF030EF4CFDBFF64D972DA8ED8EE5248
:1011F00000C0EFFF5ED90026000E012286D861D91B
:1012000000C0F3FF01C0F4FF0AD00301F66BF76BD7
:101210007CD8EE527F0EEF6E78D87F0EEF6ED9CF6E
:10122000E1FFAED0B1D8E8D9EF50010A0FE0030AD0
:1012300007E0020A10E1EAD9EF6ABAD9EF6A0BD0E7
:10124000E5D97F0EEF6EB4D9020E04D0DFD9EF6876
:10125000AFD9010EEF6E94D097D80201A2AD04D0A1
:10126000CBD9010EEF6E0AD0A3AB08D0F70E006EFB
:10127000660E6CD8C1D9EF6A9BD9EF6A99D9EF5045
:10128000020803E095D9EF0409E10201A3B503D0F8
:10129000B3D9010E02D0B0D9020EEF6E71D074D85E
:1012A00087B603D00FDAF36A05D017DA7F0EEF6E38
:1012B000010EF36EF46A64D067D887B404D00DDAF7
:1012C000EF68F36A03D0FED9010EF36EF46A58D0CA
:1012D0005BD8E150FB0FCDD803E003DAEF6802D012
:1012E00000DAEF6AD950F90FC4D803E0C4D9EF6827
:1012F00002D0C1D9EF6AD950F70FBBD803E0BFD9EC
:10130000EF6A02D0BCD9EF683BD0FD0EDBCFE9FF1E
:10131000FE0EDBCFEAFF1200FB0EDBCFE9FFFC0E77
:10132000DBCFEAFF1200F90EDBCFE9FFFA0EDBCFCD
:10133000EAFF120089D9E40E396ECB0E3A6E960E92
:10134000DCEF0AF0E926000EEA22120074D9E55219
:10135000E552E55212003C6E6AEC12F034C000F027
:1013600035C001F036C002F037C003F012003A0E6B
:10137000E66E010EE66E000EE66E010EE66E1200DF
:10138000E552E7CFD9FF1200D9CFE6FFE1CFD9FF71
:101390001200EE6AEE6AEE6AEE6A1200EECF34F0E8
:1013A000EECF35F0EECF36F0EFCF37F000C039F0AA
:1013B00001C03AF002C03BF003C03CF0D4EC11F0A5
:1013C00037C0EDFF36C0EDFF35C0EDFF34C0EFFF95
:1013D0001200F90EDBCFE6FFFA0EDBCFE6FF1200BC
:1013E000FB0EDBCFE6FFFC0EDBCFE6FFFD0EDBCF17
:1013F000E6FFFE0EDBCFE6FF1200EF50006E016A43
:10140000FF0E68EF0BF034C00CF035C00DF036C0A5
:101410000EF037C00FF0120034C039F035C03AF08A
:1014200036C03BF037C03CF012001CD900C034F08D
:1014300001C035F002C036F003C037F0B1EC13F054
:101440003650120001C0EEFF02C0EEFF03C0EEFFF7
:101450001200F56E060EE15EF550120001C0EDFFC0
:10146000350E026EFA0E036E8E0E046E3C0E056E85
:101470001200E96EFF0EDA20EA6EEE50ED10120057
:10148000540EE66E010EE66E1200E552E552E5528C
:10149000E5521200800EE66E020EE66E5CEC16F06F
:1014A000E552E5521200E66EE66A010EE66EE66A65
:1014B0001200020EDBCF00F0030EDBCF01F07F0E37
:1014C000120000C0EFFFDECF00F0DDCF01F0120010
:1014D000FD0EDBCF00F0FE0EDBCF01F0120033C0BB
:1014E00000F034C001F01200EECF10F0EECF11F09A
:1014F000EECF12F0EFCF13F010C033F011C034F084
:1015000012C035F013C036F0BAEC11F07CDF396A46
:101510003A6A7A0E3B6E440E3C6E6AEC12F00ADFB9
:10152000700E3B6E420E17DF85EF09F0166E15C088
:1015300035F0366EA3EC11F034C011F035C012F066
:1015400036C013F037C014F067DF0CC034F00DC0A4
:1015500035F00EC036F00FC037F0BDEC12F0EADE09
:10156000100E3B6E410EF7DE85EF09F034C006F039
:1015700035C007F036C008F037C009F04DDF02C0B3
:1015800034F003C035F004C036F005C037F0BDECD0
:1015900012F0D8EC13F035C000F036C001F085EF42
:1015A00009F0ACD885EF09F0B7DE110EA2EF09F013
:1015B000ACDE340EA2EF09F03B6E410E3C6EBDEC8A
:1015C00012F034C004F035C005F036C006F037C064
:1015D00007F0396A3A6A1200E66EE66A70EC23F0A8
:1015E000E552E5527CDF35C002F036C003F085EFEE
:1015F00009F084D88CEF09F08FDE100EA2EF09F00D
:101600008BDE120E9FDEEE50ED1012008CDE070E08
:10161000A2EF09F020EC21F0BAEC25F0A8DE6ADC9C
:1016200045EF0AF08FDEEE6AEE6AFE0EEE6E420EB7
:10163000EE6E93EF09F0016E026A00C0E6FFE66EFF
:1016400002C0E6FFF8EF38F034C008F035C009F00A
:1016500036C00AF037C00BF01200BBDEC1DEE2DD9F
:1016600029EF0AF0EECF00F0EECF01F0EECF02F05E
:10167000EFCF03F0120049DE050EA2EF09F045DEC0
:10168000060EA2EF09F04FDEEE521200F9DE11DC79
:10169000E552E552120040DE120EEB6A130EEB6AC1
:1016A000120050DE34C0EEFF22EF0AF0106E366EEC
:1016B00094EC11F003EF0AF045DEE552E750EE6ED0
:1016C000ED6A12000AD8EF6A1200DADEB7EF09F00D
:1016D000D8800056000E0156120017DE080EA2EF49
:1016E00009F013DE040EA2EF09F07F0EEF6E93EF08
:1016F00009F00BDE240E55DF280E120023DEC9EFA1
:0217000009F0EE
:0E170200BDEC10F0FB0EDBCFF3FFDB06F35067
:1017100000090AE00BEC11F0FA0E76EC11F0F3E19F
:10172000011CF1E1010E01D0000EECEF10F0BDEC58
:1017300010F03B0EE12402E3E168E652E16E010E97
:10174000DB6A020EDB6AF90EDBCFF6FFFA0EDBCFA7
:10175000F7FFFB0EDBCFF8FF0800F550DF6EDF5020
:1017600002E112EF10F0250EDF5C02E005EF10F051
:10177000030EDB6A040EDB6A050EDB6A060EDB6A0B
:10178000070EDB6A25EC10F02D0EDF5C0CE02B0E53
:10179000DF5C09E0200EDF5C06E0230EDF5C03E087
:1017A000300EDF5C1AE1DF50300A14E0130A0FE05C
:1017B000030A0AE00B0A05E0060AE4E1030EDB80F7
:1017C000E1D7030EDB82DED7030EDB84DBD7030E0B
:1017D000DB86D8D7030EDB88D5D72A0EDF5C1BE16A
:1017E00021EC10F06FEC10F010E0030EDB80356898
:1017F0003668130EDBCF3AF0140EDBCF3BF084ECEF
:1018000013F0040E33C0DBFF03D0130E58EC10F0BE
:1018100025EC10F00BD0090EDB6AC6EC10F003E0EB
:101820003AEC11F0FAD7090E58EC10F0030EDBB0C9
:10183000DB982E0EDF5C1BE125EC10F02A0EDF5C3E
:101840000BE121EC10F06FEC10F003E1130EAAECA9
:1018500010F025EC10F00BD0090EDB6AC6EC10F08E
:1018600003E03AEC11F0FAD7090EAAEC10F0680E7A
:10187000DF5C07E125EC10F0680EDF5C1DE1030E74
:1018800018D0740EDF5C17E07A0EDF5C14E0480EAF
:10189000DF5C06E0540EDF5C03E05A0EDF5C02E121
:1018A000020E07D06C0EDF5C03E06A0EDF5C04E121
:1018B000010EFDEC10F0C9DBDF506E0A01E181D3AF
:1018C0001E0A01E192D1200A01E18FD13F0A01E114
:1018D00049D11A0A01E146D10D0A01E143D1200A9A
:1018E00001E140D13A0A01E13DD1200A01E13AD1BA
:1018F000260A01E135D10D0A01E132D11A0A01E1CE
:10190000D9D0200A4AE0300A1FE0460A0EE0250A34
:1019100001E085D3D950F90FE96EFF0EDA20EA6EA7
:10192000010EEE5E000EEE5AEE5A0BEC11F0250E93
:10193000E66E95DB03E1011C01E16BD307EC11F0CE
:1019400001E26DD3DB2A6BD3080EDB6A040EDB5099
:10195000010806E2040EDB04CFEC10F0DB508BDB59
:10196000080EDB5009E0030EDB50010B05E172DBD2
:1019700001E04FD3080EDB6A64DBEFCFDFFF7FECC3
:1019800011F003E1011C01E144D307EC11F001E384
:10199000DB2A60DB01E143D33CD3070EDB500208B6
:1019A0000FE14BEC11F0030E12EC11F00E0EEECF26
:1019B000DBFF0F0EEECFDBFF100EEECFDBFF20D0F4
:1019C000F70EDBCF03F0F80EDBCF04F0020E035E60
:1019D000000E045AF70E03C0DBFFF80E04C0DBFF55
:1019E00003C0E9FF04C0EAFF02EC11F0026A0E0E28
:1019F00000C0DBFF0F0E01C0DBFF100E02C0DBFFDB
:101A00000E0EDBCFE6FF0F0EDBCFE6FF100EDBCFB7
:101A1000E6FF84EC38F0E552E552E552130E34C08F
:101A2000DBFF140E35C0DBFF060EDB5005E0130EA6
:101A300046EC11F001E26ADB6AEC11F002E2130EEF
:101A400037DB2DEC11F006E0040E46EC11F002E25B
:101A5000050E2EDB030EDBB005D0FCDA01E0D9D297
:101A6000080EDB6A090EDB6A0E0EDBCFF6FF0F0EE7
:101A7000DBCFF7FF100EDBCFF8FF0800F550DF6E6D
:101A8000DF5014E070EC11F011E27FEC11F003E193
:101A9000011C01E1BED2BBDB01E3DB2A090EDB2A1C
:101AA000D9500E0FE96E000ECBDBE7D7D3DA01E198
:101AB000B6D2AFD2C6DA110EEECFDBFF120EEDCFEB
:101AC000DBFF110EDBCFE6FF120EDBCFE6FF76EC7D
:101AD00038F0E552E552130EF3CFDBFF140EF4CFCE
:101AE000DBFF060EDB5004E0130ED0DB01E20EDB61
:101AF0006AEC11F002E2130EDBDAAFDB05E0040E54
:101B0000C5DB02E2050ED4DA030EDBB005D0A2DAA3
:101B100001E07FD2080EDB6A090EDB6A110EDBCF13
:101B2000E9FF120EDBCFEAFFEFCFDFFFDF5014E05B
:101B3000D7DB12E2E4DB03E1011C01E16AD267DBDF
:101B400001E3DB2A090EDB2A110EDB2ADBCFE9FFDA
:101B5000120EE8E3DB2AE6D77DDA01E160D259D242
:101B6000030EDB8E070EDB0410E195DB040E5ADB5F
:101B70000A0EEECFDBFF0B0EEECFDBFF0C0EEECF2F
:101B8000DBFF0D0EEECFDBFF6CD0070EDB50030842
:101B90002CE1030EDBAE0DD0B2DA020E76DAEFCF17
:101BA00000F0016A026A036A00AE39D00168026877
:101BB00035D0F70EDBCF01F0F80EDBCF02F0020ECE
:101BC000015E000E025AF70E01C0DBFFF80E02C0E4
:101BD000DBFF01C0E9FF02C0EAFFEFCF00F00A0E11
:101BE00000C0DBFF0B0EDB6A38D0070EDB500208AB
:101BF00009E1030EDBAE04D059DB02AE10D00ED0EB
:101C000055DB0DD0030EDBAE12D079DA020E3DDAD1
:101C1000F9DA026A036A01AE02D002680368E2DA06
:101C20000C0E02C0DBFF0D0E03C0DBFF1AD0F70E57
:101C3000DBCF02F0F80EDBCF03F0020E025E000EE7
:101C4000035AF70E02C0DBFFF80E03C0DBFF02C031
:101C5000E9FF03C0EAFFD6DAC5DA0C0EDB6A0D0E27
:101C6000DB6A060EDB5005E1010EF36E050EF3CFC5
:101C7000DBFF150EDB6A160EDB6AD950370F006EDC
:101C8000000EDA20016E390E00C0DBFF3A0E01C0F3
:101C9000DBFF380EDB6A080EDB6A0A0EAEDADF50B5
:101CA000780A12E0200A10E0280A0CE0200A0AE074
:101CB0003F0A06E00D0A02E0200A08E1020E05D004
:101CC000080E03D0080EDF26100E97DA030EDBBED7
:101CD00002D0DB92DB94DB50800B26E08ADA030E25
:101CE000EB50000AE8AE02D0D89008D0000EEE5CAF
:101CF000000EEE58000EEE58000EEE5815E211DA06
:101D0000386839683A683B6884EC39F00A0E2FC0AD
:101D1000DBFF0B0E30C0DBFF0C0E31C0DBFF0D0E06
:101D200032C0DBFF2D0E08D0030EDBA202D02B0E3B
:101D300003D0DBA408D0200EF36E170EF3CFDBFF29
:101D4000150EDB2A02D0170EDB6A050EDB5003E10D
:101D5000B5D901E189D0EC0E006E760E016E000E51
:101D6000026E070EDBCF03F0046A056A066A03C041
:101D700038F004C039F005C03AF006C03BF0D1D9C4
:101D800088EC3AF000502F24F36E01503020F46EAE
:101D900002503120F86EF4CFF7FFF3CFF6FF0800C2
:101DA000090EF5CFDBFF580EDF5C0FE1610EF36E1D
:101DB000090E79D90AE3200E006E090EDBCFE7FF8A
:101DC0000050E75E090EE7CFDBFF070EDBCF00F028
:101DD000016A026A036A0DDA00C038F001C039F006
:101DE00002C03AF003C03BF0EECF33F0EECF34F058
:101DF000EECF35F0EFCF36F088EC3AF036C0EDFF9D
:101E000035C0EDFF34C0EDFF33C0EFFF390EDBCF3F
:101E1000E9FFDB063A0EDBCFEAFF01E2DB06090E43
:101E2000DBCFEFFF150EDB2A49D995E1030EDBA6C8
:101E30001DD06F0EDF5C06E1BFD918E3150EDB285D
:101E400059DA14D0780EDF5C09E0580EDF5C06E04A
:101E5000620EDF5C03E0420EDF5C08E1020EF36E0F
:101E6000160EF3CFDBFF02D0150EDB6A030EDB503C
:101E7000100B0EE0040EDBCF00F0050EDB50D88017
:101E8000005406E2060EDB5003E1040EDB5032DAAA
:101E900093D90AE2050EDBCFE7FF150EDB50E75EB4
:101EA000050EE7CFDBFF02D0050EDB6A040EDBCFA9
:101EB00000F0160E43D9D880005414E2160EDBCF82
:101EC000E6FF150EDBCFE6FF040EDBCFE6FF050EC7
:101ED000DB50E552E75CE552D880E754E552D88004
:101EE000E7545DD9030EDB50010B0BE1080EDB500C
:101EF00008E0B0D801E08DD0080EDB50BCD8080E49
:101F0000DB6A170EDB5007E086D9170EEFD903E125
:101F1000011C01E17ED0160EDB5016E07CD9300E9C
:101F2000E66E9DD802E1011C74E075D9DFCFE6FFB3
:101F300042EC39F0E552E552E552F4CF01F00001F0
:101F4000F31C02E1011C65E0050EDBCF00F0160E6C
:101F5000DB50D880005409E2050EDBCFE7FF160EF8
:101F6000DB50E75E050EE7CFDBFF300EE66E050EB9
:101F7000C9D94FE1390EDB2ADBCFE9FF3A0E01E385
:101F8000DB2ADBCFEAFF090EEFCFDBFFDB500EE0F1
:101F900042D9090EABD902E1011C3BE0390EDB2A24
:101FA000DBCFE9FF3A0EEDE3DB2AEBD753D831E183
:101FB000160EDBCFE6FF080EC1D8E552E7245BD84A
:101FC0002ED0070EDB50030A1CE0010A14E0030ABE
:101FD00007E079D9DBCFEEFF020EDBCFEDFF1FD09C
:101FE000F3D8056A03AE02D0046805682AD8BAD8C7
:101FF00005C0EEFF14D0E8D803BE046822D8B2D8DA
:102000000ED061D9DBCFEFFF0AD079D905E1011CF1
:1020100003E1F368F46810D0FAD801E3DB2A77D93A
:10202000ACEF0BF0010EDBCF00F0020EDBCF01F0C6
:1020300000C0F3FF01C0F4FFD9CFE1FFDACFE2FF28
:10204000CBD029D9020E12EF11F061D90800F5505A
:10205000DF6E1200200EE66E080E82EF11F042ECE9
:1020600039F0E552E552E552F3CF00F0F4CF01F03C
:102070000001F31C1200006E016AD950010F4DD906
:102080000050EE260150ED221200045E000E055AAB
:10209000F70E04C0DBFFF80E05C0DBFF04C0E9FF4C
:1020A00005C0EAFF1200DBCFF4FFF350F45C12002E
:1020B000DB50E76E040EE7CFDBFF12000A0EDBCF2A
:1020C00000F00B0EDBCF01F00C0EDBCF02F00D0E9B
:1020D000DBCF03F000500110021003101200130EAA
:1020E000EECFDBFF140EEDCFDBFF130EDBCF00F0E6
:1020F000140EDBCF01F00001800E01141200F70E68
:10210000DBCF04F0F80EDBCF05F01200050EDB503C
:10211000E66ED950130F01D9E552E750EE6EED6A25
:1021200012000A0EDBCF33F00B0EDBCF34F00C0EB7
:10213000DBCF35F00D0EDBCF36F01200DBCFE6FF44
:10214000150EDBCFE6FF050EDB50E552E724E55226
:10215000E7241200DB50CED8010EF36E060EF3CF4B
:10216000DBFF1200EE50EFCFEAFFE96E02C0EEFF98
:1021700003C0EEFF04C0EEFF1200D9CFE6FFDACFB6
:10218000E6FFE1CFD9FFE2CFDAFF1200DFCFE6FFB3
:10219000E66A13EC3BF0E552E552F3501200E76EAD
:1021A000080EE7CFDBFF1200EECF00F0EECF01F01C
:1021B000EFCF02F0036A1200050EDBCF00F0150E20
:1021C000DB50D88000541200010EDBCF02F0020E6B
:1021D000DBCF03F0046A1200E552E5CFDAFFE7CF68
:1021E000D9FF12000A0E00C0DBFF0B0E01C0DBFF9F
:1021F0001200D9500A0F8DEF11F0F36E070EF3CFD6
:10220000DBFF1200EECF00F0EFCF01F01200010E65
:10221000DB2A020E1200FC0EDBCFE6FFFD0EDBCF49
:10222000E6FF1200005E000E015AF70E00C0DBFF51
:10223000F80E01C0DBFF00C0E9FF01C0EAFF120099
:10224000DA20EA6EEF2AEECFF6FF000EEF22EECF95
:10225000F7FFEF22EECFF8FF1200040EDBCFE6FF10
:10226000130EDB50E552E75C9ADFDB5004DF060E0D
:10227000DB501200090EDB500A0DF350DF24D00FA3
:10228000E76E090EE7CFDBFF25EF10F0DB50F36EB2
:10229000050E53EF10F0F70EDBCF00F0F80EDBCF9A
:1022A00001F01200DFCFE6FF2FEF10F028DF030E62
:1022B000ECDED4EF10F081EC0BF0E552E552E55284
:1022C000E55200091200BDDEEE50EFCFEAFFE96EE5
:1022D000010E1200130EDB50F36E040E53EF10F0DC
:1022E000040EDB50F36E090E53EF10F0DBCFE6FF68
:1022F0002FEF10F0E76E050EE7CFDBFF12008BDF4C
:1023000052EF11F0DBCFE6FF86DF5BEF11F0D95023
:10231000F90FE96EFF0E20EF11F0E96E000EDA20E2
:04232000EA6E12004F
:0C2324003E9E05D03E9E36AE02D0366CC8
:102330003E8E36C030F02F6A426A416A860E316E98
:10234000326A88EF14F03E9E08D03E9E36AE05D02D
:10235000356C361EE86A36223E8E36C030F035C007
:102360002FF0426A416A8E0E316E326A88EF14F0A5
:102370003E9E0CD03E9E36AE09D0336C341E351EC8
:10238000361EE86A3422352236223E8E36C030F0C0
:1023900035C02FF034C042F033C041F09E0E316E94
:1023A000326A88EF14F03C7E3E6AC4EC14F0DCEC38
:1023B00014F03EB66CEF14F03EA20AD03EAA03D051
:1023C0003EBE6CEF14F03EA478EF14F075EF14F0FD
:1023D0003EAA05D03EAC78EF14F075EF14F03EA0A5
:1023E0000AD03EA808D03EBE04D03EA402D081EF61
:1023F00014F085EF14F0416A326A3C50375C406E4D
:1024000010E334C042F035C02FF036C030F037C092
:102410003FF039C034F03AC035F03BC036F03E3AB8
:1024200009D039C042F03AC02FF03BC030F03CC078
:102430003FF0406C3E9E3EBC3E8E3FC031F03EB011
:10244000B4EF14F01A0E4060B4EF14F0316A376A3A
:102450003EA408D0346C351E361E371EE86A35227D
:10246000362237223EAC08D0426C2F1E301E311E61
:10247000E86A2F2230223122336A405207E0373493
:102480003632353234323332402EF9D73450422688
:1024900035502F22365030223750312233C041F090
:1024A0003E9E31AE0BD0416C421E2F1E301E311E9F
:1024B000E86A42222F22302231223E8E31A006D0FD
:1024C000D88030322F32423241323F2A3FC031F081
:1024D00088EF14F03E6AC4EC14F0DCEC14F03EB665
:1024E0006CEF14F03EA205D03EBA6CEF14F073EF1F
:1024F00014F03EBA7FEF14F03EA005D03EB86CEF6A
:1025000014F07FEF14F03EB873EF14F0326A7F0ED0
:102510003724316EE86A32223C50315EE86A325A22
:102520001A0E3F6E376A416A426A2F6A306A395022
:10253000345E3A50355A3B50365A000E375A09E746
:10254000395034263A5035223B503622000E37227D
:1025500001D0418AD8903436353636363736D89061
:10256000413642362F3630363F2EE1D736503510C1
:102570003410D8A4418A88EF14F03E6AC4EC14F0F9
:10258000DCEC14F03EB66CEF14F03EA205D03EB881
:102590006CEF14F073EF14F03EAA05D03EB06CEF70
:1025A00014F073EF14F03EB002D03EA802D07FEFDB
:1025B00014F0326A3C503724316EE86A32227E0EC3
:1025C000315EE86A325A416A426A2F6A306A3B5089
:1025D0003602F4CF30F0F3CF2FF03A503602F350FA
:1025E0004226F4502F22000E30223B503502F35089
:1025F0004226F4502F22000E302239503602F3507A
:102600004126F4504222000E2F2230223A50350249
:10261000F3504126F4504222000E2F2230223B502C
:102620003402F3504126F4504222000E2F22302271
:1026300039503502F4504126000E42222F2230221A
:102640003A503402F4504126000E42222F2230220A
:1026500088EF14F03D6A3BAE33EF13F03A6C3B1E4B
:10266000E86A3B223D1E36AE3BEF13F0356C361E5A
:10267000E86A36223D1EEAEC3AF036BE4BEF13F024
:102680003DAE000C356C361EE86A3622316C321EC7
:10269000E86A3222000C3DBE42EF13F03E88FF0C88
:1026A0003D6AE86A3BAE5DEF13F0386C391E3A1EA6
:1026B0003B1E39223A223B223D1E36AE68EF13F014
:1026C000336C341E351E361E3422352236223D1E12
:1026D00088EC3AF036BE7FEF13F03DAE000C336C61
:1026E000341E351E361EE86A3422352236222F6CFF
:1026F000301E311E321E302231223222000C3DBEED
:102700006FEF13F03E88FF0C36C042F035C041F049
:1027100035503A02F4CF34F0F3CF33F036503B0269
:10272000F4CF36F0F3CF35F03A02F3503426F450BC
:102730003522E86A362241503B02F3503426F450E9
:102740003522E86A36223BAEAAEF13F04150355EDF
:102750004250365A42AE000C3A50355E3B50365A23
:10276000000C3E6AC4EC14F03EB6BBEF13F03EA280
:102770000AD03EB403D07F0E366E19D0800E366E6E
:1027800016D0366A14D03EB0FCD7870E3760F1D72A
:102790007E0E3764F6D7860E375C04E0D89036326A
:1027A000372AF9D73EA403D0366C36AEEAD71200EA
:1027B0003E6AC4EC14F03EB6E2EF13F03EA20ED037
:1027C0003EB405D07F0E366EFF0E356E1FD0800EE4
:1027D000366E356A1BD0366A356A18D03EB0FBD7E4
:1027E0008F0E3760EDD77E0E3764F5D78E0E375CCF
:1027F00005E0D89036323532372AF8D73EA406D0D5
:10280000356C361EE86A362236AEE5D7120017EC74
:1028100014F03EB6000C3EB0010C000C17EC14F0A6
:102820003EB6000C3EB0000C3EB4000C010C3E6AFB
:10283000C4EC14F0DCEC14F03EB612003EAE08D04E
:102840003EA004D03EA802D03E8012003E9012006E
:102850003C50375C0BE13B50365C08E13A50355C4C
:1028600005E13950345C02E13E801200D8A002D06C
:102870003E8E10D037503CC037F03C6E36503BC0D7
:1028800036F03B6E35503AC035F03A6E345039C0B0
:1028900034F0396E3C50375C10E0FF0F09E03E9099
:1028A0003EB403D03EAE3E8412003EAE3E941200D3
:1028B0003C2AD8903B323A3239323950345E3A5061
:1028C000355A3B50365A36BEEAD7D890343635366C
:1028D0003636372EF8D7C8D77F0E376EFF0E366ED6
:1028E000356E346E12007F0E3EBEFF0E376E02D084
:1028F0007F0E376E800E366E356A346AF3D73EAE81
:1029000004D0800E376E366AF7D7376A366AF4D746
:1029100030502F1042104110F8E032BEF0D730BED8
:102920000CD031503210EBE0D890413642362F3681
:1029300030363106D8A03206F2D73250D4E13128F1
:10294000D2E041AE11D07F0E411402E142A00CD082
:10295000422AE86A2F22302207E3D88030322F3211
:102960004232312A3128BFE03150C9E042C034F050
:102970002FC035F03034366E3130376E3632379EF8
:102980003EBE378E72EF14F03636373602E33E84A1
:102990003E7E06E13E80376A366A356A346A120046
:1029A000372803E0D88036321200D890363202E160
:1029B0003E8212003E8612003B363C3602E33E8CDD
:1029C0003E7E06E13E883C6A3B6A3A6A396A1200FA
:1029D0003C2803E0D8803B321200D8903B32EAE139
:1029E0003E8A12003E6AC4EC14F03EB6FCEF14F0CE
:1029F0003EA20FD03EB407D07F0E366EFF0E356E6E
:102A0000346E336E25D0800E366E01D0366A000EDD
:102A1000F6D73EB0FBD7336A9F0E3760EBD77E0EFA
:102A20003764F4D79E0E375C07E0D89036323532E3
:102A300034323332372AF6D73EA40AD0336C341EF0
:102A4000351E361EE86A34223522362236AEDED7EF
:102A5000120017EC14F03EB6000C3EB0000C3EA481
:042A6000000C010C59
:0C2A6400D8CFE4FFE0CFE4FFE46EDACF4F
:102A7000E4FFE2CFDAFFE9CFE4FFEACFE4FFE6527A
:102A8000F2A202D0A5D802D09EB6D1D8E552E5CFA9
:102A9000EAFFE5CFE9FFE5CFDAFFE550E5CFE0FF5C
:102AA000E5CFD8FF1000E66A010EE66E050EE66E71
:102AB000F0EC39F0E552E552E5521200070EB46E23
:102AC000000E886E876E866E856E846E836E826E53
:102AD000816E806E916E906E8F6E8E6E8D6E8C6E2E
:102AE0008B6E8A6E896E2F0E926E93689C0E946E1A
:102AF000956A966A9768040E986E0E0E9A6E99689B
:102B0000C16AF19EB0989C8EA26A9F6AA06A9D6A73
:102B1000A36AA56AC8DF9F86D08E9E969D86938203
:102B2000F06AF288F09EF098F192F09AF16AF28CD5
:102B3000F28E1200D9CFE6FFE1CFD9FFE652BEDF19
:102B40000201C097C0990401840E2A6F020E2B6FF8
:102B5000DF6A100EDF5C0AE2DF50EA6A2A25E96EBE
:102B60002B51EA227F0EEF6EDF2AF3D702019D6B15
:102B7000010E9E6FC20E9F6F0201C0850201A26B03
:102B8000A36B0201806B826B836B010ED56E320EDC
:102B9000D76ECF0ED66ED59E800EE66E020EE66E16
:102BA0008BD8E552E5520201C093800EE66E020E0C
:102BB000E66E82D8E552E5520201C093E552E55235
:102BC000E7CFD9FF120082828088949292981200F7
:102BD000F2920401200E266F9F860201C0A906D042
:102BE0000401E00E236F000E246F05D00401C00E17
:102BF000236F000E246F0201C0A1C079C0A706D0C8
:102C00000401800E216F000E226F05D00401A00E7A
:102C1000216F000E226FC9CF27F421C4E9FF22C41F
:102C2000EAFF212B000E2223EF50C96E12009E9660
:102C3000C9CF27F404012651000823E223C4E9FF89
:102C400024C4EAFF232B000E242327C4EFFF21C452
:102C5000E9FF22C4EAFF212B2223EFCF27F427C468
:102C6000C9FF260726510CE10201020E9E6F0201E8
:102C7000C093C081320ED76ECF0ED66EF294D58E31
:102C800001D0C96A1200D9CFE6FFE1CFD9FF020116
:102C9000C0A10ED0FD0EDBCFE6FFFE0EDBCFE6FFC0
:102CA0008CEC28F0E552E5529D960201C0919D867C
:102CB000E552E7CFD9FF1200D9CFE6FFE1CFD9FF28
:102CC0000201C0B332D0FD0EDBCFE9FFFE0EDBCF39
:102CD000EAFF1E0EE926000EEA22EF50020809E183
:102CE000FD0EDBCFE6FFFE0EDBCFE6FF69D8E55237
:102CF000E552FD0EDBCFE9FFFE0EDBCFEAFF150E3E
:102D0000E926000EEA22EF9EFD0EDBCFE6FFFE0E67
:102D1000DBCFE6FFFAEC27F0E552E5529D96020183
:102D2000C077C0839D8602019D2BE552E7CFD9FF76
:102D300012009D960201C0919D861200D9CFE6FF38
:102D4000E1CFD9FF00012E6BD950FD0FE96EFF0EC8
:102D5000DA20EA6E010EEE1801E1ED5002E12E815B
:102D600001D0BA6AD950FB0FE96EFF0EDA20EA6E85
:102D7000010EEE1801E1ED5002E12E8301D0B76A99
:102D8000D950F90FE96EFF0EDA20EA6E010EEE1847
:102D900001E1ED5002E12E8501D0736AD950F70FA1
:102DA000E96EFF0EDA20EA6E010EEE1801E1ED5039
:102DB00002E12E8701D0706AE552E7CFD9FF1200F9
:102DC000D9CFE6FFE1CFD9FFFD0EDBCFE9FFFE0E45
:102DD000DBCFEAFF1C0EE926000EEA22EF6AFD0EA9
:102DE000DBCFE9FFFE0EDBCFEAFF170EE926000E70
:102DF000EA22EF6AC6AE0ED0C69EFD0EDBCFE9FF1B
:102E0000FE0EDBCFEAFF170EE926000EEA22010EC6
:102E1000EF6E22D0F150800B10E0F250080B0DE065
:102E2000FD0EDBCFE9FFFE0EDBCFEAFF170EE92632
:102E3000000EEA22020EEF6E0FD0F0A60DD0909E8B
:102E4000FD0EDBCFE9FFFE0EDBCFEAFF170EE92612
:102E5000000EEA22030EEF6E250EC614250819E0B7
:102E6000FD0EDBCFE9FFFE0EDBCFEAFF1C0EE926ED
:102E7000000EEA22010EEF6EFD0EDBCFE9FFFE0E23
:102E8000DBCFEAFF170EE926000EEA22C6CFEFFFDE
:102E900080D1C55019E0FD0EDBCFE9FFFE0EDBCF80
:102EA000EAFF1C0EE926000EEA22020EEF6EFD0E6E
:102EB000DBCFE9FFFE0EDBCFEAFF170EE926000E9F
:102EC000EA22C5CFEFFF65D1D0BE19D0FD0EDBCF12
:102ED000E9FFFE0EDBCFEAFF1C0EE926000EEA2218
:102EE000030EEF6EFD0EDBCFE9FFFE0EDBCFEAFF38
:102EF000170EE926000EEA22D0CFEFFF4AD19DB689
:102F000019D0FD0EDBCFE9FFFE0EDBCFEAFF1C0E72
:102F1000E926000EEA22040EEF6EFD0EDBCFE9FF7C
:102F2000FE0EDBCFEAFF170EE926000EEA229DCF48
:102F3000EFFF2FD19C5019E0FD0EDBCFE9FFFE0E15
:102F4000DBCFEAFF1C0EE926000EEA22050EEF6E2B
:102F5000FD0EDBCFE9FFFE0EDBCFEAFF170EE92601
:102F6000000EEA229CCFEFFF14D1080E9F5C19E0FF
:102F7000FD0EDBCFE9FFFE0EDBCFEAFF1C0EE926DC
:102F8000000EEA22060EEF6EFD0EDBCFE9FFFE0E0D
:102F9000DBCFEAFF170EE926000EEA229FCFEFFFF4
:102FA000F8D0A25019E0FD0EDBCFE9FFFE0EDBCF1B
:102FB000EAFF1C0EE926000EEA22070EEF6EFD0E58
:102FC000DBCFE9FFFE0EDBCFEAFF170EE926000E8E
:102FD000EA22A2CFEFFFDDD0A55019E0FD0EDBCF36
:102FE000E9FFFE0EDBCFEAFF1C0EE926000EEA2207
:102FF000080EEF6EFD0EDBCFE9FFFE0EDBCFEAFF22
:10300000170EE926000EEA22A5CFEFFFC2D0100E60
:10301000F214100819E0FD0EDBCFE9FFFE0EDBCF46
:10302000EAFF1C0EE926000EEA22090EEF6EFD0EE5
:10303000DBCFE9FFFE0EDBCFEAFF170EE926000E1D
:10304000EA22F2CFEFFFA5D0470EF11419E0FD0EF2
:10305000DBCFE9FFFE0EDBCFEAFF1C0EE926000EF8
:10306000EA220A0EEF6EFD0EDBCFE9FFFE0EDBCF8C
:10307000EAFF170EE926000EEA22F1CFEFFF89D012
:10308000C00EF01419E0FD0EDBCFE9FFFE0EDBCF22
:10309000EAFF1C0EE926000EEA220B0EEF6EFD0E73
:1030A000DBCFE9FFFE0EDBCFEAFF170EE926000EAD
:1030B000EA22F0CFEFFF6DD092A819D0FD0EDBCF42
:1030C000E9FFFE0EDBCFEAFF1C0EE926000EEA2226
:1030D0000C0EEF6EFD0EDBCFE9FFFE0EDBCFEAFF3D
:1030E000170EE926000EEA2292CFEFFF52D093B0DE
:1030F00019D0FD0EDBCFE9FFFE0EDBCFEAFF1C0E81
:10310000E926000EEA220D0EEF6EFD0EDBCFE9FF81
:10311000FE0EDBCFEAFF170EE926000EEA2293CF60
:10312000EFFF37D03E0E94141C0819E0FD0EDBCFE4
:10313000E9FFFE0EDBCFEAFF1C0EE926000EEA22B5
:103140000E0EEF6EFD0EDBCFE9FFFE0EDBCFEAFFCA
:10315000170EE926000EEA2294CFEFFF1AD097BE91
:1031600018D0FD0EDBCFE9FFFE0EDBCFEAFF1C0E11
:10317000E926000EEA220F0EEF6EFD0EDBCFE9FF0F
:10318000FE0EDBCFEAFF170EE926000EEA2297CFEC
:0A319000EFFFE552E7CFD9FF120070
:06319A0002DBE150F90F19
:1031A00048DB0BE1FB0EDB6AFC0EDB6A010EF36E03
:1031B000F90EF3CFDBFFFA0EDB6AD950F10F39DBE2
:1031C0000BE1F30EDB6AF40EDB6A010EF36EF10E17
:1031D000F3CFDBFFF20EDB6AD950F50F2ADB0BE1F0
:1031E000F70EDB6AF80EDB6A010EF36EF50EF3CF15
:1031F000DBFFF60EDB6AFDD9FB0EDBCFEEFFFC0E2C
:103200001CDB020E41DAF90EDBCFEEFFFA0E15DB06
:10321000040E3ADAF70EDBCFEEFFF80E0EDB060EE9
:1032200033DAF50EDBCFEEFFF60E07DB080E2CDAF5
:10323000F30EDBCFEEFFF40E00DB0A0E25DAF10E03
:10324000DBCFEEFFF20EDBCFEDFFCADAEF0EDBCF06
:10325000EEFFF00EDBCFEDFFC7DAED0EDBCFEEFFBA
:10326000EE0EDBCFEDFF98DA310EEE6E750EED6EE1
:10327000C0D90E0EEB6A0F0EEB6ABED22DDA08DA59
:10328000010EE66EE66A36D227DA010EE66EE66ACF
:10329000FFD930D285DA040EE126DE6ADD6A61DA12
:1032A000FB0EDB50025C006EFC0EDB500358016E1F
:1032B000020E00C0DBFF030E01C0DBFF6DDA310E32
:1032C000EE1806E1750EED1803E192DA51DA98DA9C
:1032D00063DAEECF00F0EFCF01F0013404E20050EA
:1032E0003008750E01540AE357DA4CDAD8800350DF
:1032F00004E7D00E025C8A0E035801E281DA79D924
:10330000020E84DA76D9EECF04F0EFCF05F0020E8C
:10331000DBCF35F0030EDBCF36F004C03AF005C04A
:103320003BF084EC13F033C002F034C003F033C040
:1033300035F034C036F006C03AF007C03BF095D9FE
:1033400058D9060E69DA28DAEECF04F0EFCF05F08F
:1033500050D9040E5BDA00010650E4D90750F9D9C0
:1033600008C03AF009C03BF080D943D90A0E8CD985
:10337000EECF0AF0EFCF0BF0020EDBCF06F0030E1C
:10338000DBCF07F035DAEE50065C046EEE500758DE
:10339000056E2FD9080E40DA00010850C3D9095034
:1033A000D8D90AC03AF00BC03BF05FD9F0D918DA8F
:1033B000E9D903500118E8AE02D0013404D000501E
:1033C000025C0150035805E20BDAEECFDEFFEDCFD1
:1033D000DDFFDDD909DAD6D901500318E8AE02D0F5
:1033E000033401D0B1D905E2FFD9EECFDEFFEDCF36
:1033F000DDFFFED9BDD9020EDBCF00F0030EDBCF1F
:1034000001F0CAD90050EE260150ED22C0D900C00B
:10341000F3FF01C0F4FFB3D1C3D9080EE126D950A0
:10342000F90F74D9040EEECFDBFF050EEECFDBFFF4
:10343000060EEECFDBFF070EEECFDBFFF50EDBCF88
:1034400000F0F60EDBCF01F0F70EDBCF02F0F80E46
:10345000DBCF03F0F10EDBCF04F0F20EDBCF05F093
:10346000F30EDBCF06F0F40EDBCF07F004C039F02B
:1034700005C03AF006C03BF007C03CF096D9D3EC4B
:1034800011F034C0DEFF35C0DEFF36C0DEFF37C0CE
:10349000DDFFDD52DD52D950FD0F38D9010EEE1897
:1034A0000FE1ED500DE1ACD8DFCFFCF3010EDBCF27
:1034B000FDF3020EDBCFFEF3030EDBCFFFF314D0E0
:1034C000D950FD0F23D9020EEE180EE1ED500CE19C
:1034D00097D8DFCFF8F3010EDBCFF9F3020EDBCF85
:1034E000FAF3030EDBCFFBF3040EDBCF00F0050E87
:1034F000DBCF01F0060EDBCF02F0070EDBCF03F0CF
:103500001AD93DD14DD907D92CD901500318E8AEAD
:1035100002D0033401D018D910E2FD0EDBCF35F014
:10352000FE0EDBCF36F0CDD834C008F035C009F040
:1035300036C00AF037C00BF042D0EDD8FB0EDBCF1F
:1035400004F0FC0EDBCF05F0F90EDB50045C026EDC
:10355000FA0EDB500558036E01500318E8AE02D096
:10356000033401D0F1D807E2006A016A800E026ECE
:103570003F0E036E3CD0CFD855D901500318E8AEAA
:1035800002D0033401D0E0D82EE2FB0EDBCF0AF0EC
:10359000FC0EDBCF0BF0FD0EDB500A5C086EFE0E5E
:1035A000DB500B58096E08C035F0366E8AD834C02F
:1035B0000CF035C00DF036C00EF037C00FF0FED85D
:1035C00004C034F005C035F006C036F007C037F04F
:1035D0006AEC12F034C000F035C001F036C002F0E1
:1035E00037C003F004D0006A016A026A036AA3D8F4
:1035F00003D1FD0EDBCFE9FFFE0EDBCFEAFF1200A9
:10360000F90EDBCF00F0FA0EDBCF01F00BD9D9CFEA
:10361000E9FFDACFEAFFEECF08F0EECF09F0EECF08
:103620000AF0EFCF0BF0396A3A6A040E3B6E420E95
:103630003C6E08C034F009C035F00AC036F00BC04B
:1036400037F06AEC12F0C3D8B9D8AFD8D4EC11F087
:10365000040E34C0DBFF050E35C0DBFF060E36C09E
:10366000DBFF070E37C0DBFF12002AEC13F035C07A
:1036700000F036C001F0D9CFE9FFDACFEAFF3550CC
:10368000EE260150ED221200E926000EEA22120079
:10369000F70EDBCFE6FFF80EDBCFE6FF010EE66E9E
:1036A000E66AF90EDBCFE6FFFA0EDBCFE6FF010E8E
:1036B000E66EE66AFB0EDBCFE6FFFC0EDBCFE6FF35
:1036C0001200A5EC11F083D8F90EDBCF35F0FA0E1D
:1036D000DBCF36F0A5EF11F063D8F30EDBCFE6FFBA
:1036E000F40EDBCFE6FFF50EDBCFE6FFF60EDBCF09
:1036F000E6FF1200FD0EDBCFE6FFFE0EDBCFE6FF9E
:103700004CDDF56E120EE15EF55076D0E96EFF0EDF
:10371000DA20EA6E1200FD0EDBCF00F0FE0EDBCFEA
:1037200001F012000402F3CF02F0F4CF03F005021F
:10373000F3500326120000C033F001C034F002C081
:1037400035F003C036F012000250005C03500158FF
:1037500012000402F350032602C035F003C036F015
:103760001200F90EDBCF02F0FA0EDBCF03F01200ED
:10377000020EDBCFEEFF030EDBCFEDFF1200D9CF41
:10378000E1FF3AD0EECF02F0EFCF03F01200DECF30
:1037900000F0DDCF01F012002CDF0C0E44EF1BF027
:1037A000D9CFE6FFE1CFD9FF120000C034F001C04D
:1037B00035F002C036F003C037F0120034C039F0E3
:1037C00035C03AF036C03BF037C03CF0120034C090
:1037D00004F035C005F036C006F037C007F012001F
:1037E00008DF100E44EF1BF004DF120E44EF1BF055
:1037F00000DF0E0E44EF1BF0E552E7CFD9FF1200B9
:10380000F8DE0C0EEB6A0D0EEB6A12003DDFEECF18
:1038100006F0EFCF07F0120037DFEECF08F0EFCF62
:1038200009F01200FB0EDBCF02F0FC0EDBCF03F041
:1038300012006CDFEE50ED101200DBCFEDFFF9EF60
:023840001AF07C
:0E38420003015E0EAB6F380EAC6F440EAD6F1F
:10385000390EAE6F2A0EAF6F3C0EB06F1200D9CF8B
:10386000E6FFE1CFD9FF040EE12604014E514F11CE
:1038700068E00D0EE66EE66A52DAE9CF00F0EACFB4
:1038800001F0E9CFE6FFEACFE6FFC00EE66E010EDB
:10389000E66E4BEC38F0F56E060EE15EF550010178
:1038A000800EA9153EE1A8C100F0A9C101F08B0E60
:1038B0003A6E180E3B6EA8C135F0A9C136F02AEC5D
:1038C00013F031C0DEFF32C0DDFFDECF00F0DDCF10
:1038D00001F00001800E011408E0D9CFE9FFDACF32
:1038E000EAFF8B0EEE26180EED220101C951DE5CB7
:1038F000006ECA51DD58016E020E00C0DBFF030EE0
:1039000001C0DBFF020EDBCF00F0030EDBCF01F0C6
:103910000DDA220E1BDA0050EE5CC96F0150EE5832
:10392000CA6F04DA340E12DAEF50BA5D05E0040112
:10393000F40E4C6F010E4D6F04014A6B4B6B4E6BD6
:103940004F6BE0D1D9CFE6FFE1CFD9FF080EE126DA
:10395000B4D9EECF10F0EECF11F0EECF12F0EFCFE2
:1039600013F096C139F097C13AF098C13BF099C174
:103970003CF010C034F011C035F012C036F013C066
:1039800037F0D3EC11F034C00CF035C00DF036C078
:103990000EF037C00FF095D9EECF14F0EECF15F042
:1039A000EECF16F0EFCF17F014C039F015C03AF093
:1039B00016C03BF017C03CF0D4EC11F034C008F056
:1039C00035C009F036C00AF037C00BF09AC139F0A3
:1039D0009BC13AF09CC13BF09DC13CF0D3EC11F08F
:1039E00074D99EEC08F0E552E552F3CF04F0F4CF21
:1039F00005F0F3CF35F0F4CF36F0A5EC11F09DD9FA
:103A000034C039F035C03AF036C03BF037C03CF036
:103A100067D9D3EC11F034C0DEFF35C0DEFF36C00D
:103A2000DEFF37C0DDFFDD52DD5204014E514F1184
:103A300001E0F5D09F0E006E680E016E026A00C0B4
:103A4000E6FFE66E02C0E6FFF8EC38F0E552E5521C
:103A5000E55265D9100E7AD9C8C1EFFF04014D5166
:103A60004B19E8AE02D04B3504D04A514C5D4B5156
:103A70004D5906E3FFD81A0E4A27000E4B23D1D02A
:103A80000101CB51CC1139E0F40EE66E010EE66E69
:103A9000CBC1E6FFCCC1E6FF4AC4E6FF4BC4E6FF5C
:103AA00082EC1AF0F56E060EE15EF55033C004F0BC
:103AB00034C005F035C006F036C007F033C039F029
:103AC00034C03AF035C03BF036C03CF0C0C134F0F1
:103AD000C1C135F0C2C136F0C3C137F0BDEC12F040
:103AE0002CD91DD90C0E32D934C0EEFF11D917D9FB
:103AF000080E2CD900C0EEFF0BD90101800ECA15AB
:103B00000CE098D80C0EBDD8D4EC11F0F2D892D8B5
:103B1000080EB7D8D3EC11F0ECD8396A3A6A3B6A90
:103B20003C6ADED807EC14F0010A5FE0F8D80C0E0E
:103B3000BAD8F5D8080EB7D8C4D8EECF02F0EECF79
:103B400003F0EECF04F0EFCF05F002C034F003C075
:103B500035F004C036F005C037F0D8EC13F035C0AE
:103B600000F036C001F035C0E6FF36C0E6FFA5D84C
:103B7000EECF08F0EECF09F0EECF0AF0EFCF0BF06A
:103B800008C034F009C035F00AC036F00BC037F079
:103B90009CD88D0E0C6E680E0D6E0E6A0CC0E6FF82
:103BA000E66E0EC0E6FFF8EC38F0F56E070EE15E4B
:103BB000F550D9CFE9FFDACFEAFFEECF00F0EECF34
:103BC00001F0EECF02F0EFCF03F0396A3A6A3B6AB8
:103BD0003C6A00C034F001C035F002C036F003C0CA
:103BE00037F00EEC14F0010A19E11A0E04014A270D
:103BF000000E4B230101CB51CC1113E004014B51BA
:103C00000101CC19E8AE02D0CC3507D0CB5104016C
:103C10004A5D0101CC5104014B5903E32BD8F36AEF
:103C200002D0010EF36EF46A6DD0010E04014E6FE6
:103C30004F6B12007BD81A0E89D8EECF08F0EFCF69
:103C400009F008C035F009C036F0A5EC11F034C019
:103C500004F035C005F036C006F037C007F0396A09
:103C60003A6A200E3B6E410E3C6E6AEC12F065D84B
:103C70008FEF1EF054D80C0E6DD851D8080EAAEF55
:103C80001EF064D8EECF34F0EECF35F0EECF36F044
:103C9000EFCF37F000C039F001C03AF002C03BF07E
:103CA00003C03CF0120052D8C0C1EEFFC1C1EEFF0C
:103CB000C2C1EEFFC3C1EEFF120038D8100EA6EF4E
:103CC0001EF034D8140EA6EF1EF0D8EC13F035C059
:103CD00006F036C007F035C0E6FF36C0E6FF12003A
:103CE000C4C134F0C5C135F0C6C136F0C7C137F024
:103CF000120037C0EDFF36C0EDFF35C0EDFF34C018
:103D0000EFFF1200D9CFE1FFE552E7CFD9FF120054
:103D100001C0EEFF02C0EEFF03C0EEFF1200FB0E7B
:103D2000DBCFE9FFFC0EDBCFEAFF1200FD0EDBCF9D
:103D3000E9FFFE0EDBCFEAFF120034C000F035C011
:103D400001F036C002F037C003F01200E926000E81
:103D5000EA221200FBDFEE6AEE6AEE6AEE6A1200F9
:103D6000D9CFE6FFDACFE6FFE1CFD9FFE2CFDAFF26
:103D7000220EE12402E3E168E652E16ED9501B0F06
:103D8000E66E000EDA20E66ED950FA0FE96EFF0EED
:103D90001CDA5AEC36F0F56E060EE15C02E2E16ADE
:103DA000E552E16EF550E76E160EE7CFDBFFDB5014
:103DB000840B10E0210E0101FE6FFF6B170EDB6814
:103DC000180EDB68190EDB687F0EF36E1A0EF3CF48
:103DD000DBFFA6D1EDD9830E396EF90E3A6E220EB5
:103DE0003B6E3F0E3C6EFCD9BDEC12F0C5D9FA0E0D
:103DF000DBCF0CF0FB0EDBCF0DF0FC0EDBCF0EF0BB
:103E0000FD0EDBCF0FF0396A3A6A3B6A3C6AF1D9A2
:103E100029EC15F0010A05E1086A096A0A6ABF0E71
:103E200004D0086A096A0A6A3F0E0B6E08C039F0AE
:103E300009C03AF00AC03BF03C6E00C034F0F0D943
:103E4000D4EC11F0F2EC14F033C0DEFF34C0DDFF2F
:103E5000000EDFCF35F0010EDBCF36F0A5EC11F010
:103E6000020E34C0DBFF030E35C0DBFF040E36C08C
:103E7000DBFF050E37C0DBFF9BD9020EDBCF0CF05A
:103E8000030EDBCF0DF0040EDBCF0EF0050EDBCF03
:103E90000FF0396A3A6AC90E3B6E3F0E3C6EA9D9E3
:103EA000BDEC12F034C008F035C009F036C00AF09D
:103EB00037C00BF0BCD994D9D3EC11F05DD9020E08
:103EC000DBCF14F0030EDBCF15F0040EDBCF16F0C2
:103ED000050EDBCF17F0220E396EAA0E3A6EFD0EDC
:103EE0003B6E390E3C6E14C034F015C035F016C070
:103EF00036F017C037F0BDEC12F034C010F035C00A
:103F000011F036C012F037C013F03FD9D3EC11F0E6
:103F1000060E34C0DBFF070E35C0DBFF080E36C0CF
:103F2000DBFF090E37C0DBFFD950060FE96E000E2C
:103F30004CD923EC3AF0E552E552E552E55233C054
:103F400000F034C001F035C002F036C003F063D990
:103F5000390E3C6E33C034F063D929EC15F0010AF8
:103F600021E1D950060FE96E000EDA20EA6E0E0E3E
:103F7000EECFDBFF0F0EEECFDBFF100EEECFDBFF41
:103F8000110EEECFDBFF120EDB6A130EDB6A800E22
:103F9000F36E140EF3CFDBFF3F0EF36E150EF3CF6F
:103FA000DBFF6DD0060EDBCF34F0070EDBCF35F034
:103FB000080EDBCF36F0090EDBCF37F0EBD80A0E58
:103FC00034C0DBFF0B0E35C0DBFF0C0E36C0DBFF51
:103FD0000D0E37C0DBFFB80E346E330E356EC40ED7
:103FE000366EBD0E376EBAD8D5D8C6D8060EDBCF22
:103FF00004F0070EDBCF05F0080EDBCF06F0090E4C
:10400000DBCF07F004C039F005C03AF006C03BF042
:1040100007C03CF0D4EC11F00E0E34C0DBFF0F0EE5
:1040200035C0DBFF100E36C0DBFF110E37C0DBFFE3
:10403000750E346E330E356E1F0E366E3C0E376EB7
:104040008DD8E0D8AF0E396EB70E3A6EDB0E3B6EF0
:10405000BE0E3C6ED4EC11F081D88ED8DCD83F0E69
:104060003C6ED4EC11F0120E34C0DBFF130E35C0E1
:10407000DBFF140E36C0DBFF150E37C0DBFFDF5051
:10408000010B19E10E0EDBCF34F00F0EDBCF35F054
:10409000100EDBCF36F0110EDBCF37F0120EDBCF78
:1040A00039F0130EDBCF3AF0140EDBCF3BF0150ED8
:1040B000DBCF3CF027D0120EDBCF00F0130EDBCFAE
:1040C00001F0140EDBCF02F0150EDBCF03F00E0E65
:1040D000DBCF08F00F0EDBCF09F0100EDBCF0AF0BC
:1040E000110EDBCF0BF097D8BF0E3C6E08C034F03A
:1040F00009C035F00AC036F00BC037F0BDEC12F045
:1041000081D843D86AEC12F0170E34C0DBFF180ECA
:1041100035C0DBFF190E36C0DBFF1A0E37C0DBFFE0
:10412000170EDBCF00F0180EDBCF01F0190EDBCF3E
:1041300002F01A0EDBCF03F000C033F001C034F000
:1041400002C035F003C036F0D9CFE1FFDACFE2FF8D
:10415000E552E5CFDAFFE7CFD9FF12000A0EDBCF39
:1041600039F00B0EDBCF3AF00C0EDBCF3BF00D0E2F
:10417000DBCF3CF0BDEF12F034C000F035C001F0F1
:1041800036C002F037C003F0120051D800C034F03E
:1041900010EF21F0060EDBCF39F0070EDBCF3AF03F
:1041A000080EDBCF3BF0090EDBCF3CF0BDEF12F089
:1041B000FA0EDBCF04F0FB0EDBCF05F0FC0EDBCFFD
:1041C00006F0FD0EDBCF07F01200DA20EA6EEECF2C
:1041D000E6FFEECFE6FFEECFE6FFEFCFE6FF120001
:1041E00004C034F005C035F006C036F007C037F023
:1041F00012000CC034F00DC035F00EC036F00FC008
:1042000037F0120034C004F035C005F036C006F0B7
:1042100037C007F01200396A3A6A800E3B6E12000E
:1042200001C035F002C036F003C037F0120034C0D0
:1042300039F035C03AF036C03BF037C03CF01200E0
:104240003ADA040EE126040140510AE1D1D8DF6ECA
:10425000DF0404E10401010E406F02D0DF500108C9
:10426000F2D9E76E010EE7CFDBFFDB50000817E263
:10427000030EDB6A010EDB50F36E030EDBCFF4FF9F
:10428000F350F45C0CE2E1D9E76E020EE7CFDBFFFE
:10429000DBCFE6FF07D8E552030EDB2AEBD7D9CFF9
:1042A000E1FF0ED208DA04014751060A01E17FD08E
:1042B000030A60E0060A2EE0010A23E0030A01E097
:1042C00096D0FE0EDB50006E016AFF0E001804E16E
:1042D000015002E1020E8AD0FE0EDB50410806E1D9
:1042E0000101020EF86F0401050E80D0FE0EDB50B6
:1042F0004E0801E07CD00101020EF86F0401060EA9
:1043000075D0FE0EDB50540870E10101F76B04011B
:10431000030E6CD00101F751006E016A080E005CBB
:10432000000E01580AE2F751EA6AD50FE96E010E54
:10433000EA22FE0EDBCFEFFFF72BF751006E016A8A
:10434000080E001854E1015052E1D5C1CDF1D6C19B
:10435000CEF1D7C1CFF1D8C1D0F1D9C1D1F1DAC1F5
:10436000D2F1DBC1D3F1DCC1D4F10401412B000E49
:1043700042233BD0020E0101F85D04E1FE0EDB504A
:10438000430824E0030EF85D04E1FE0EDB504B0809
:104390001DE0040EF85D09E1FE0EDB500D0805E19D
:1043A0000401432B000E442320D004011ED0020E32
:1043B0000101F85D04E1FE0EDB50430807E0030E47
:1043C000F85D06E1FE0EDB504B0802E1F82B0FD042
:1043D000040EF85D09E1FE0EDB500D0805E1040155
:1043E000452B000E462301D00401010E476F68D112
:1043F00062D9E6520401480507E1FCD8050EE66ED5
:1044000002D9E5520401486B49050DE1496B0101F0
:10441000FA6B010EF96FFB6BFC6BFD6B0401436BD8
:10442000446B456B466B0101FA0528E10401010E5E
:10443000435D000E445905E30101FA6BFB6BFC6B15
:10444000C3D0010E455D000E465903E30101F90595
:10445000BAD001010A0EFB5D000EFC590BE3800E81
:10446000F925006E016A000E01220006015A00C003
:10447000FDF1AAD0FB2B000EFC23A6D00401436B58
:10448000446B456B466B0101F951120A01E19AD068
:10449000030A01E180D0010A01E177D01F0A6FE031
:1044A000010A67E0030A5FE0010A57E0070A4FE0EC
:1044B000010A45E0030A3DE0010A35E00F0A2DE05C
:1044C000010A25E0030A1DE0010A15E0070A0DE0D4
:1044D000010A07E0030A01E077D08CD80101020E3F
:1044E00001D0030EF96FFA6B6FD0800EE66E290EC5
:1044F000D3D8040E63D0200EE66E130ECDD8050E71
:104500005DD0840EE66E2D0EC7D8060E57D0800EF5
:10451000E66E2A0EC1D8070E51D0200EE66E2B0E85
:10452000BBD8080E4BD0840EE66E2D0EB5D8090E02
:1045300045D0200EE66E120EAFD80A0E3FD0E66AC6
:10454000E66A79D8E552E55201010B0E37D0800EAC
:10455000E66E010EA1D80C0E31D0800EE66E020E72
:104560009BD80D0E2BD0800EE66E030E95D80E0E46
:1045700025D0010EE66E060E8FD80F0E1FD0010E4D
:10458000E66E100E89D8100E19D0E66A4AD8E552A8
:104590000101110E13D0910EE66E640EE66E100E40
:1045A000E66E0F0EE66E730EE66E550EE66E16D8CC
:1045B000F56E060EE15EF5500101120EF96F010E67
:1045C000FA6F02D0010EFD6FFD51000803E20401F5
:1045D000010E496F0101FD51E55272D06CD8540EA5
:1045E00061D8430E5FD8060E6FD8FA0E5FD8F90E69
:1045F0005DD866D00D0E52EF23F00401406B12001F
:1046000004014051120057D8520E4CD84D0E4AD8D2
:10461000200E48D8FE0EDB50300F44D80D0E42D885
:104620004FD049D84E0E3ED8460E3CD8010E3AD84F
:10463000FE0E3CD845D03FD8430E34D8520E32D867
:10464000020E48D83DD062EF31F089EF31F033D817
:10465000FE0EDBCFE6FFC1EC31F0E55231D059EF71
:1046600031F06BEF31F027D8FE0EDBCFE6FFA7EC81
:1046700031F0E55225D01FD8560E14D8570E12D857
:10468000040E22D81DD0500E0DD84D0E0BD8310E71
:1046900009D8310E52EF23F0E66ECDDFE552E55238
:1046A00001011200E66ED3DFE5521200DBCFE6FF18
:1046B000CEDFE5521200D9CFE6FFE1CFD9FF1200DD
:1046C000E552E7CFD9FF120005D8FC0EEFDFFB0E55
:1046D00056EF23F0E7DFFE0EE9DFFD0E56EF23F085
:1046E000D9CFE6FFE1CFD9FF040EE126FD0EDBCFE7
:1046F000E6FFFE0EDBCFE6FF9DD8E552E55233C064
:10470000DEFF34C0DEFF35C0DEFF36C0DDFFDD5228
:10471000DD52F4D9000E3718E8AE02D0373409D094
:10472000000ED8803454000E3554000E3654000E5E
:10473000375449E3E3D9FD0E341808E1E868351829
:1047400005E1E868361802E1E868371828E0FE0E4F
:10475000341808E1E868351805E1E868361802E120
:10476000E86837182BE0E868341808E1E86835187D
:1047700005E1E868361802E1E86837180CE03450C3
:104780001DE135501BE1365019E1375017E1960E07
:10479000006E670E07D0880E006E670E03D07C0E89
:1047A000006E670E016E026A00C0E6FFE66E02C090
:1047B000E6FFF8EC38F0E552E552E552336A346A28
:1047C000356A366A36D0D9CFE9FFDACFEAFFEECFC5
:1047D00004F0EECF05F0EECF06F0EFCF07F0090EB4
:1047E000386E396A3A6A3B6A04C033F005C034F067
:1047F00006C035F007C036F084EC39F02FC004F065
:1048000030C005F031C006F032C007F0006A870EF4
:10481000016E930E026E030E036E86D9366E2FC0A4
:1048200038F030C039F031C03AF032C03BF050ECD3
:1048300013F081D1D9CFE6FFE1CFD9FF140EE126E5
:104840000C0EDB6A0D0EDB6A0E0EDB6A0F0EDB6AE6
:10485000100EDB6A110EDB6A120EDB6A130EDB6AC6
:1048600070D9010EEE1819E1ED5017E1850EDE6EDC
:10487000030EDD6ED950020F3DD9080EEE6E040E08
:10488000ED6ED950040F36D9020EEE6E040EED6EA9
:104890006DD9970EEE6E030E1CD053D9020EEE1892
:1048A0001AE1ED5018E1750EDE6E030EDD6ED95083
:1048B000020F20D9060EEE6E040EED6ED950040FD5
:1048C00019D9000EEE6E040EED6E50D9950EEE6EF7
:1048D000030EED6E02D03368ECD0020EDBCFE9FFA1
:1048E000030EDBCFEAFF15D9EECF00F0EFCF01F0DA
:1048F000010ED89000360136E806FBE1DE500024B8
:10490000E96EDD500120EA6E02C0EEFF03C0EDFF4C
:10491000080EDB6A090EDB6A080EDBCF00F0090E19
:10492000DBCF01F0D890015004E6080E005C000EC9
:10493000015858E2C2D8EDD8EECF06F0EFCF07F01D
:10494000010ED89006360736E806FBE1DE50062455
:10495000E96EDD500720EA6EEE50025C006EEE500C
:104960000358016E0A0E00C0DBFF0B0E01C0DBFF17
:104970000A0EDBCF00F00B0EDBCF01F0D880015028
:1049800004E7F10E005CFF0E015826E30A0EDBCFB0
:1049900002F00B0EDBCF03F0033404E202500F08E9
:1049A000000E035419E389D8D3D801AE02D00268AF
:1049B0000368D9500C0F9ED80050EE260150EE220D
:1049C0000250EE220350EE22D950100F93D8EE2A57
:1049D000000EEE22EE22EE22080EDB2A090E9CE3E8
:1049E000DB2A9AD7C3D8EECFF3FFEDCFF4FF020E48
:1049F000EE26000EEF22F3CFE9FFF4CFEAFF6DD8E9
:104A0000005001100210031002E1FE0E51D00F0EF3
:104A1000006E016A026A036AD9500C0F6BD8EE501F
:104A20000026EE500122EE500222EE50032297D8CB
:104A3000EECF04F0EFCF05F0066A076A03500718BF
:104A4000E8AE02D0073408D00450005C055001588D
:104A5000065002580750035806E281D879D864D826
:104A600003C036F029D0100EDBCF00F0110EDBCFE3
:104A700001F0120EDBCF02F0130EDBCF03F000507B
:104A800001100210031013E028D84ED803C036F0EE
:104A9000100EDBCF38F0110EDBCF39F0120EDBCF6A
:104AA0003AF0130EDBCF3BF050EC13F005D0FD0EC7
:104AB000336E3468356836683ED0080EDBCF04F0BC
:104AC000090EDBCF05F0D89004360536DE500424FD
:104AD000E96EDD500520EA6E12000C0EDBCF00F00F
:104AE0000D0EDBCF01F00E0EDBCF02F00F0EDBCF91
:104AF00003F01200E96EDACFEAFF1200DECF34F0E5
:104B0000DECF35F0DECF36F0DDCF37F0DD52DD52CF
:104B10001200EECF02F0EFCF03F0060EDBCFE9FF7D
:104B2000070EDBCFEAFF120000C033F001C034F003
:104B300002C035F01200D9CFE1FFE552E7CFD9FF2F
:104B40001200D950FD0FE96EFF0EDA20EA6E120056
:104B5000EECF00F0EFCF01F0026A036A1200040EFC
:104B6000DBCFE9FF050EDBCFEAFF1200D950060FBD
:044B70007AEF25F0C3
:0C4B7400D9CFE6FFE1CFD9FF0A0EE12601
:104B8000040150510401411904E10401515104018F
:104B9000421901E138D141C450F442C451F4010139
:104BA000CE5101E1B6D00401010E526F02019051C5
:104BB000DE6EDD6A0101CD51006E016A4F0E005EAE
:104BC000000E015A060E00C0DBFF070E01C0DBFF1E
:104BD000B5D901340DE200500608000E015408E278
:104BE000C2D91AE1010EF36E040EF3CFDBFF12D02F
:104BF000A5D9D880015004E7FA0E005CFF0E0158D9
:104C000007E2B1D909E1040EDB68050EDB6804D0C8
:104C1000040EDB6A050EDB6A35683668040EDBCFEE
:104C20003AF0050EDBCF3BF084EC13F034C001F01A
:104C3000D9CFE9FFDACFEAFF3350EE260150ED225B
:104C400078D90001800E011402E0DE6A0AD071D921
:104C5000013408E20050F808000E015403E2F80E97
:104C6000DE6EDD6ADFCF90F202015BD90101CE5129
:104C7000006E016A770E005E000E015A080E00C039
:104C8000DBFF090E01C0DBFF60D901340DE20050EB
:104C90000608000E015408E26FD91AE1010EF36E06
:104CA000040EF3CFDBFF12D050D9D880015004E7B7
:104CB000FA0E005CFF0E015807E25ED909E1040E0E
:104CC000DB68050EDB6804D0040EDB6A050EDB6AC8
:104CD000040EDBCF00F0050EDBCF01F055D90050FC
:104CE000EE260150ED2219D904E65E0E005C000E9E
:104CF000015802E25E0E0BD04DD9013401E380D0A1
:104D00000050C208000E015401E37AD0C20E24D92B
:104D100077D00401532B5351060875E2536B5205AB
:104D200005E1526BDE6ADD6A900E41D002019051BE
:104D3000DE6EDD6AF6D804015451551109E1F9D847
:104D4000D890015004E6F80E005C000E01580EE207
:104D5000545155112EE0DECF02F0DDCF03F00334C5
:104D600004E202500008000E035423E3545155118D
:104D700002E0000E01D0010E546F556B800B01E074
:104D80005569CBD804E6C20E005C000E015802E360
:104D90005E0E0DD0F9D8320EEE26000EED22BDD8F3
:104DA00004E6C20E005C000E015828E3C20ED4D8FF
:104DB00025D05451551110E13E0EDE26000EDD22A5
:104DC000B8D8D890015004E6F80E005C000E0158E7
:104DD00015E3F80EDE6E11D0D9CFE9FFDACFEAFF86
:104DE0003E0EEE5E000EED5AA4D8013404E20050EF
:104DF0000008000E015402E3DE6ADD6ADFCF90F2A4
:104E0000020EDBCF91F2D9CFE1FFE552E7CFD9FF18
:104E10001200350E086EFA0E096E8E0E0A6E3C0EEA
:104E20000B6E02019151106E116A900E105E000E11
:104E3000115A190E1102F3CF11F01002F3CF10F036
:104E4000F4501126320E3A6E3B6AF3CF35F011C0A2
:104E500036F02AEC13F035C010F036C011F0A5EC96
:104E600011F034C00CF035C00DF036C00EF037C074
:104E70000FF034C039F035C03AF036C03BF037C0DF
:104E80003CF008C034F009C035F00AC036F00BC061
:104E900037F0BDEC12F034C004F035C005F036C078
:104EA00006F037C007F034C0E6FF35C0E6FF36C075
:104EB000E6FF37C0E6FFB0EC1EF0E552E552E552E2
:104EC000E552F3CF02F0F4CF03F0600E356E366A90
:104ED000F3CF3AF0F4CF3BF02AEC13F035C000F0FA
:104EE00036C001F035C0F3FF36C0F4FF1200DBCF4F
:104EF00036F000C03AF001C03BF02AEC13F0040E8B
:104F000035C0DBFF050E36C0DBFFD950040FE96E5C
:104F1000DACFEAFFEE50ED1012003CD8D8900150E5
:104F200012009151E66E30D8E552E750EE6EED6A10
:104F30001200DECF00F0DDCF01F01200060EDBCF55
:104F400000F0070EDBCF01F01200080EDBCF00F0FF
:104F5000090EDBCF01F01200F36E020EF3CFDBFF80
:104F6000030EDB6A1200030E006E016A060EDBCF31
:104F700035F0070E77EF27F0080E006E016ADBCFE1
:104F800035F0090E77EF27F0D950020FE96EDACF2E
:104F9000EAFF1200020EDBCF00F0030EDBCF01F0C0
:024FA0001200FD
:0E4FA200000EE96EEA6E0400DEEC27F0EA2A4B
:104FB000080EEA5CD8A4D4EF27F01200EF6AE93EAD
:104FC000DEEF27F01200FF0EE3CF21F021380F0BA8
:104FD000060FD8B2070F2A0FAD6E5AEC34F02150ED
:104FE0000F0B060FD8B2070F2A0FAD6E5AEC34F034
:104FF000000C1200EACF1CF0E9CF1DF0FF0EE3CF4A
:10500000EAFFFE0EE3CFE9FFC0A741D0EECFA0F04C
:10501000EECFA1F0EECFA2F0EECFA3F0EECFA4F052
:10502000EECFA5F0EECFA6F0EECFA7F0EECFA8F032
:10503000EECFA9F0EECFAAF0EECFABF0EECFACF012
:10504000EECFADF0EECFAEF0EECFAFF0EECFB0F0F2
:10505000EECFB1F0EECFB2F0EECFB3F0EECFB4F0D2
:10506000EECFB5F0EECFB6F0EECFB7F0EECFB8F0B2
:10507000EECFB9F0EECFBAF0EECFBBF0EECFBCF092
:10508000EECFBDF0EECFBEF0EECFBFF040D0EECF12
:1050900080F0EECF81F0EECF82F0EECF83F0EECF56
:1050A00084F0EECF85F0EECF86F0EECF87F0EECF36
:1050B00088F0EECF89F0EECF8AF0EECF8BF0EECF16
:1050C0008CF0EECF8DF0EECF8EF0EECF8FF0EECFF6
:1050D00090F0EECF91F0EECF92F0EECF93F0EECFD6
:1050E00094F0EECF95F0EECF96F0EECF97F0EECFB6
:1050F00098F0EECF99F0EECF9AF0EECF9BF0EECF96
:105100009CF0EECF9DF0EECF9EF0EECF9FF01CC056
:10511000EAFF1DC0E9FF1200C0A11200EACF1CF097
:10512000E9CF1DF0FF0EE3CFEAFFFE0EE3CFE9FF6C
:10513000C0A941D0C0C0EEFFC1C0EEFFC2C0EEFFAB
:10514000C3C0EEFFC4C0EEFFC5C0EEFFC6C0EEFF99
:10515000C7C0EEFFC8C0EEFFC9C0EEFFCAC0EEFF79
:10516000CBC0EEFFCCC0EEFFCDC0EEFFCEC0EEFF59
:10517000CFC0EEFFD0C0EEFFD1C0EEFFD2C0EEFF39
:10518000D3C0EEFFD4C0EEFFD5C0EEFFD6C0EEFF19
:10519000D7C0EEFFD8C0EEFFD9C0EEFFDAC0EEFFF9
:1051A000DBC0EEFFDCC0EEFFDDC0EEFFDEC0EEFFD9
:1051B000DFC0EEFF40D0E0C0EEFFE1C0EEFFE2C096
:1051C000EEFFE3C0EEFFE4C0EEFFE5C0EEFFE6C099
:1051D000EEFFE7C0EEFFE8C0EEFFE9C0EEFFEAC079
:1051E000EEFFEBC0EEFFECC0EEFFEDC0EEFFEEC059
:1051F000EEFFEFC0EEFFF0C0EEFFF1C0EEFFF2C039
:10520000EEFFF3C0EEFFF4C0EEFFF5C0EEFFF6C018
:10521000EEFFF7C0EEFFF8C0EEFFF9C0EEFFFAC0F8
:10522000EEFFFBC0EEFFFCC0EEFFFDC0EEFFFEC0D8
:10523000EEFFFFC0EEFF1CC0EAFF1DC0E9FF120039
:10524000F2B412002E500F0AD8B41200FF0EE3CFB2
:1052500022F0FE0EE3CF23F0FD0EE3CF24F0FC0E90
:10526000E3CF25F0222A2EA08D8E232A2EA28F8016
:10527000242A2EA48F86252A2EA68F88266A276A9E
:10528000286A296A73EC29F0222E49EF29F02EA012
:105290008D9E232E4EEF29F02EA28F90242E53EFB9
:1052A00029F02EA48F960000252E59EF29F02EA666
:1052B0008F980000262E5EEF29F02A900000272EFE
:1052C00063EF29F02A920000282E68EF29F02A9433
:1052D0000000292E6DEF29F02A9695EC29F02B3E3F
:1052E00044EF29F01200D70E2B6E000000000000E2
:1052F00000008BEC29F02B2E75EF29F0D70E2B6ECA
:1053000000000000000000008BEC29F02B2E80EF45
:1053100029F00000120000008EEF29F000000000CC
:1053200000000000000000001200030E2C6E0000C0
:085330002C2E97EF29F012006A
:085338000301540EA56F530E92
:10534000A66FA80EA76F530EA86F780EA96F560E02
:10535000AA6F1200D9CFE6FFE1CFD9FF04012E5189
:105360002F111EE03A0EE66EE66AFD0EDBCFE6FF79
:10537000FE0EDBCFE6FF3B0EE66E030EE66E4BEC59
:1053800038F0F56E060EE15EF55004012C6B2D6BC6
:105390002E6B2F6B30693169326B336B346B356B2D
:1053A000E552E7CFD9FF1200D9CFE6FFE1CFD9FF11
:1053B0000D0EE12604012E512F1174E130513219E6
:1053C00002E13151331901E19CD0030E321901E1A0
:1053D000335150E0020E321901E1335144E0010E25
:1053E000321901E1335114E032515CE133515AE199
:1053F000010E346F356B45D9010EEF6E050EDB6E75
:10540000060EDB6A630EF36E040EF3CFDBFF4CD0A7
:10541000030E346F356BDE6ADE6AFE0EDE6E420E00
:105420003BD90B0EDB6A0C0EDB6A020EF36E080E24
:10543000F3CFDBFF09EC27F0F3CF00F0F4CF01F05E
:10544000F3CF35F0F4CF36F0A5EC11F0040E34C0F4
:10545000DBFF050E35C0DBFF060E36C0DBFF070E97
:1054600037C0DBFF21D0346B356BDE6ADD6A09D9CA
:10547000EF6A1AD0030E346F356BDE6ADE6AFC0EFB
:10548000DE6EC20E09D9E80EF36E0B0EF3CFDBFF12
:10549000030EF36E0C0EF3CFDBFF020EF36E080E5D
:1054A000F3CFDBFFF36AE1D034C4E9FF35C4EAFF90
:1054B000060EEA02F3CFEAFFE902F3CFE9FFF45068
:1054C000EA26990EE926030EEA22EECF00F0EFCF8E
:1054D00001F0D9CFE6FFDACFE6FFFD0EDBCFE6FF26
:1054E000FE0EDBCFE6FF04D001C0FAFF0050F96EDC
:1054F000FBDFE552E552E552E55232C430F433C4E5
:1055000031F434C4E9FF35C4EAFF060EEA02F3CFF2
:10551000EAFFE902F3CFE9FFF450EA26990EE92603
:10552000030EEA22040EE926000EEA22EECFE6FF81
:10553000EFCFE6FF34C4E9FF35C4EAFF060EEA0206
:10554000F3CFEAFFE902F3CFE9FFF450EA26990E20
:10555000E926030EEA22020EE926000EEA22EECF29
:10556000E6FFEFCFE6FF34C4E9FF35C4EAFF060EDD
:10557000EA02F3CFEAFFE902F3CFE9FFF450EA26AB
:10558000990EE926030EEA22EECFE6FFEFCFE6FF03
:1055900034C4E6FF35C4E6FFA00E006E670E016E50
:1055A000026A00C0E6FFE66E02C0E6FFF8EC38F0E3
:1055B000F56E0B0EE15EF55034C4E9FF35C4EAFF29
:1055C000060EEA02F3CFEAFFE902F3CFE9FFF45057
:1055D000EA26990EE926030EEA22020EE926000EBB
:1055E000EA22EECF02F0EFCF03F0FB0EDBCFE6FFB7
:1055F000FC0EDBCFE6FFFD0EDBCFE6FFFE0EDBCFC2
:10560000E6FF04D003C0FAFF0250F96EFBDFE5525B
:10561000E552E552E552F3CF00F0F350F41023E1E8
:1056200034C4E9FF35C4EAFF060EEA02F3CFEAFF0D
:10563000E902F3CFE9FFF450EA26990EE926030EBA
:10564000EA22040EE926000EEA22EECF00F0EFCFA8
:1056500001F004D001C0FAFF0050F96EFBDF040135
:10566000322B000E3323010EF36EF46AD9CFE1FF23
:10567000E552E7CFD9FF1200010E04012E6F2F6B08
:105680001200FB0EDBCFE9FFFC0EDBCFEAFF110EB1
:10569000E926000EEA221200DD6EDD52DD52090E0F
:0856A000DB6A0A0EDB6A12004E
:0856A8007CD9E652C80E030193
:1056B000D06FD16B020ED46F010ED56F040ED26F76
:1056C000D36BDF6AD451DF5C08E2DF5073D9EE6A36
:1056D000EE6AEE6AEE6ADF2AF5D7E26BE36BE46B03
:1056E000010EC26EC16A860EC06E9F9C9E9C9D8CF0
:1056F000D0C3E6FFD1C3E6FF0BD8E552E552E55231
:1057000055D14FD9E65246D89D9CC26AE5524ED13A
:1057100048D9FD0EDBCF35F0FE0EDBCF36F035502D
:1057200002E1190E361828E0800E351802E10C0E41
:1057300036181EE0400E351802E1060E361816E047
:10574000200E351802E1030E36180EE0900E3518C3
:1057500002E1010E361806E0C80E351811E1365088
:105760000FE10ED0520E09D0520E03D0510E05D0CB
:10577000510ECA6E450E07D0500ECA6E8C0E03D065
:105780006A0ECA6EDD0ECB6ECC6A9F929E929D828F
:10579000CA840CD19D92CA94120003D9020EE1264C
:1057A000FE0EDBCF00F00301D451D88000540CE38F
:1057B0009D9CFE0EDB04E96EEA6A10D9EECFDEFF97
:1057C000EDCFDDFF9D8C02D0DE6ADD6ADECF00F01A
:1057D000DDCF01F000C0F3FF01C0F4FFD9CFE1FF3E
:1057E000E5D0DFD8FD0EDBCF00F0FE0EDBCF01F001
:1057F000026A036A880E386E130E396E3A6A3B6A83
:1058000000C033F001C034F002C035F003C036F000
:1058100084EC39F02FC000F030C001F031C002F04C
:1058200032C003F0386A080E396E3A6A3B6A2FC0FC
:1058300033F030C034F031C035F032C036F050ECC7
:1058400013F033C000F034C001F035C002F036C0B0
:1058500003F033C0F3FF34C0F4FFA8D0A2D8E6525F
:105860009D9C6AC4DFFF9D8CDF50E5529FD09D9CBC
:1058700004016A6B9D8C1200C282120092D8050E40
:10588000E126C450DE6EDD6AD9CFE9FFDACFEAFF48
:10589000EE50ED6EEF6AC350DE26000EDD22DECF45
:1058A00000F0DDCF01F0026A036A0301E45182D8FF
:1058B0000050EE260150EE220250EE220350EE225E
:1058C000E42BD451E45D04E3E46BE22B000EE3230C
:1058D000020EE4C3DBFFDB50040D020EF3CFDBFF4F
:1058E000DB80DB50C26ED251E25DD351E3594AE313
:1058F000030EDB6A040EDB6A67D801AE02D0D890D3
:1059000003D0005C000E015820E23FD80301D551BE
:105910001F0BEECF00F0EECF01F0EECF02F0EECF96
:1059200003F007E0D8900332023201320032E80679
:10593000F9E15CD853D800C0EEFF01C0EDFF030EC3
:10594000DB2A040ED9E3DB2AD7D7030EDB6A040E69
:10595000DB6A3AD801AE02D0D89003D0005C000ECA
:1059600001580BE212D8EE6AEE6AEE6AEE6A030E96
:10597000DB2A040EEEE3DB2AECD704016A2B0301D9
:10598000E26BE36BD9CFE1FF11D030D8D890E93684
:10599000EA36D890E936EA36D60EE926030EEA2230
:1059A0001200D9CFE6FFE1CFD9FF1200E552E7CFD1
:1059B000D9FF1200040DF3CFE9FFF4CFEAFFD60EB2
:1059C000E926030EEA221200030EDBCF00F0040EDC
:1059D000DBCF01F00301D45100011200D890E93669
:1059E000EA36DE0EE926030EEA221200030EDBCFB2
:0A59F000E9FF040EDBCFEAFF12000E
:0659FA000301160E9F6F71
:105A00005A0EA06F9E0EA16F5A0EA26F800EA36F4A
:105A10005C0EA46F1200D9CFE6FFE1CFD9FF0401DD
:105A20005C515D1138E03A0EE66EE66AFD0EDBCFA2
:105A3000E6FFFE0EDBCFE6FF000EE66E0F0E35D959
:105A4000070EE66EE66A40D9E9CF00F0EACF01F032
:105A5000E9CFE6FFEACFE6FF3A0EE66E0F0E25D954
:105A6000810EE66EE6687F0E1AD9000EE66EE66AD3
:105A7000870E15D9050E13D9410EE66E0F0EE66E90
:105A8000CDEC18F0F56E120EE15EF55004015A6B84
:105A90005B6B5C6B5D6BE552E7CFD9FF1200D9CF32
:105AA000E6FFE1CFD9FF060EE12604015C515D114E
:105AB00001E0D6D0E60E006E660E016E026A00C0EE
:105AC000E6FFE66E02C0E6FFF8EC38F0E552E5527C
:105AD000E552FAD8100EE926000EEA22EF6A6C0EA3
:105AE0000F013E5D03E04C0E3E5D0BE1E6D8FFD8B2
:105AF0003ACF35F03BCF36F0A5EC11F034C000F0D2
:105B0000CBD8720E0F013E5D03E0520E3E5D0EE1FA
:105B10003ACF35F03BCF36F0B8D8CFD8052204C005
:105B200035F005C036F0A5EC11F0B6D8630E0F01C4
:105B30003E5D01E082D00101CD51006E016A4F0E41
:105B4000005E000E015A040E00C0DBFF050E01C00E
:105B5000DBFFCE514BE0040EDBCF00F0050EDBCFB8
:105B600001F0013404E200500608000E01543EE347
:105B7000FD0EDBCFE9FFFE0EDBCFEAFF1E0EE926AE
:105B8000000EEA22EECF00F0EFCF01F07C0E005EB7
:105B9000000E015A00C0DEFF01C0DDFFE66EE66ABE
:105BA000DECFE6FFDDCFE6FF410EE66E0F0EE66EBE
:105BB0004AEC19F0F56E060EE15EF550020EF3CFD9
:105BC000DBFF030EF4CFDBFF020EDBCF04F0030E8E
:105BD000DBCF05F0046C051E8AD8020EDBCF35F052
:105BE000030EDBCF36F0A5EC11F056D8DECF00F077
:105BF000DDCF01F00F0140510118E8AE02D00134B1
:105C000004D000503F5D015040592AE2DECF02F03F
:105C1000DDCF03F03FCF04F040CF05F0046C051E4C
:105C2000000E052203500518E8AE02D0053404D05A
:105C30000450025C0550035813E2630E3E5D12E00F
:105C400004015B510F013D19E8AE02D03D3507D08C
:105C50003C5104015A5D0F013D5104015B5902E3BF
:105C6000F36A07D01A0E04015A27000E5B23010EB7
:105C7000F36EF46AD9CFE1FFE552E7CFD9FF120006
:105C8000010E04015C6F5D6B1200A5EC11F034C0D5
:105C900000F035D8080E1FD032D80C0E1CD0E66E9E
:105CA000E66A010EE66EE66A1200E66E4BEC38F02C
:105CB000F56E060EE15EF55012003ACF04F03BCFD0
:105CC00005F0046C051E1200FB0EDBCFE9FFFC0E95
:105CD000DBCFEAFF1200E926000EEA2234C0EEFF15
:105CE00001C0EEFF02C0EEFF03C0EEFF1200000E87
:105CF000052204C035F005C036F045EF2EF035C062
:0E5D000001F036C002F037C003F064EF2EF061
:025D0E0003018F
:105D10002A0EB16F5D0EB26F8E0EB36F5D0EB46F53
:105D2000A20EB56F5F0EB66F1200D9CFE6FFE1CFBE
:105D3000D9FF04013851391126E03A0EE66EE66AC1
:105D4000FD0EDBCFE6FFFE0EDBCFE6FF000EE66EBC
:105D5000030EE66E4BEC38F0F56E060EE15EF55084
:105D60000401366B376B386B396B3A693B693C6BB6
:105D70003D6B3E6B3F6BFB0EDBCFE9FFFC0EDBCFD9
:105D8000EAFFEFCF3AF3E552E7CFD9FF1200D9CFC0
:105D9000E6FFE1CFD9FF0D0EE1260401385139119C
:105DA00071E1830E006E680E01D904013A513C196D
:105DB00002E13B513D1901E194D0020E3C1901E191
:105DC0003D5141E0010E3C1901E13D5128E03C51BB
:105DD00055E13D5153E1030E3E6F3F6B010EF36EF3
:105DE000080EF3CFDBFFDE6ADE6AF00EDE6E420ED7
:105DF000DD6EDD52DD52040EDB6A050EDB6A060E37
:105E0000DB6AC20EF36E070EF3CFDBFF0B0EDB6A0D
:105E10000C0EDB6A090EDB6A0A0EDB6A35D0010E56
:105E20003E6F3F6B7F0EDE6EDD6AF40EF36E020E88
:105E3000F3CFDBFF010EF36E030EF3CFDBFF040E97
:105E40003AC3DBFF21D0030E3E6F3F6BDE6ADE6A92
:105E5000FE0EDE6E420EDD6EDD52DD52080EDB6A96
:105E6000090EDB6A0A0EDB6A880EF36E0B0EF3CFA7
:105E7000DBFF130EF36E0C0EF3CFDBFF7C0E006E18
:105E8000680E94D8F36A86D03EC4E9FF3FC4EAFFA7
:105E9000060EEA02F3CFEAFFE902F3CFE9FFF4507E
:105EA000EA26990EE926030EEA22EECF00F0EFCFA4
:105EB00001F0D9CFE6FFDACFE6FFFD0EDBCFE6FF3C
:105EC000FE0EDBCFE6FF04D001C0FAFF0050F96EF2
:105ED000FBDFE552E552E552E5523CC43AF43DC4DD
:105EE0003BF43EC4E9FF3FC4EAFF060EEA02F3CFEB
:105EF000EAFFE902F3CFE9FFF450EA26990EE9261A
:105F0000030EEA22020EE926000EEA22EECF02F08C
:105F1000EFCF03F0FB0EDBCFE6FFFC0EDBCFE6FF9F
:105F2000FD0EDBCFE6FFFE0EDBCFE6FF04D003C0A5
:105F3000FAFF0250F96EFBDFE552E552E552E552F9
:105F4000F3CF00F0F350F41023E13EC4E9FF3FC467
:105F5000EAFF060EEA02F3CFEAFFE902F3CFE9FF18
:105F6000F450EA26990EE926030EEA22040EE926E9
:105F7000000EEA22EECF00F0EFCF01F004D001C016
:105F8000FAFF0050F96EFBDF04013C2B000E3D23AD
:105F9000010EF36EF46AD9CFE1FFE552E7CFD9FFE6
:105FA0001200010E0401386F396B1200016E026A93
:105FB00000C0E6FFE66E02C0E6FFF8EC38F0E552FE
:065FC000E552E55212005B
:0A5FC600D8CFE4FFE0CFE4FFE46E63
:105FD000DACFE4FFE2CFDAFFE9CFE4FFEACFE4FF74
:105FE000F3CFE4FFF4CFE4FF00EE2FF0140EE8044B
:105FF00003E3EECFE4FFFBD700EE00F0180EE80459
:1060000003E3EECFE4FFFBD7E652D9CFE6FFE1CFC3
:10601000D9FF020EE126F250040B07E0F250200BEC
:1060200004E0F294B0EC37F0AFD09E50010B07E0E3
:106030009D50010B04E09E90B1EC37F0A5D09E502E
:10604000020B07E09D50020B04E09E923CEC2CF00A
:106050009BD0A150020B07E0A050020B04E0A192DC
:10606000B2EC37F091D0A450080B07E0A350080B16
:1060700004E0A496B3EC37F087D0F050020B07E0B1
:10608000F050100B04E0F092BAEC37F07DD0F050F5
:10609000040B07E0F050200B04E0F094C5EC37F05F
:1060A00073D0F250010B43E0F250080B40E08150F6
:1060B000DF6EF290DF500F015F19E76E010EE7CF40
:1060C000DBFFDFCF5FFFDBA80AD0100EDF1402E09A
:1060D000010E01D0000EE66ED0EC37F0E552010E55
:1060E000DBAA0AD0200EDF1402E0010E01D0000E60
:1060F000E66ED1EC37F0E552010EDBAC0AD0400E73
:10610000DF1402E0010E01D0000EE66ED2EC37F093
:10611000E552010EDBAE38D0800EDF1402E0010E36
:1061200001D0000EE66ED3EC37F0E5522DD09E5034
:10613000400B07E09D50400B04E09E9C3EEC2CF091
:1061400023D09E50200B06E09D50200B03E0DBEC9B
:1061500031F01AD0A450200B06E0A350200B03E02E
:10616000FAEC31F011D09E50100B06E09D50100B50
:1061700003E019EC32F008D0A450100B05E0A35056
:10618000100B02E031EC32F0D9CFE1FFE552E7CF5E
:10619000D9FFE55200EE17F0180EE80403E3E5CF4F
:1061A000EDFFFBD700EE42F0140EE80403E3E5CF69
:1061B000EDFFFBD7E5CFF4FFE5CFF3FFE5CFEAFF37
:1061C000E5CFE9FFE5CFDAFFE550E5CFE0FFE5CF2A
:1061D000D8FF100002017F0E8B6F8A6F896F886F66
:1061E000876F866F856F846F936F926F916F906FDB
:1061F0008F6F8E6F8D6F8C6F8C928D928C908D9037
:106200008C968D968C948D948C9A8D9A8C988D9872
:106210008C9E91908C9C8D9C0201A1AD16D00201A8
:10622000C0A1FAD7A00EE66E020EE66E43EC16F0A1
:10623000E552E55220EC05F0800EE66E020EE66EA9
:0E6240005CEC16F0E552E552E7D712001200B2
:02624E00150E2B
:10625000AF6EAC849D9A9D98AC98AC9E948EAB9C8E
:10626000AB96AB8AAB889F9A9D8A0401686969697D
:10627000949CAC9CAC969F989D88AC8AAB8E120087
:10628000150E6F6E6C84A39AA3986C986C9E98847C
