:020000040000FA
:060800005BEF35F0120071
:02080600FEFFF3
:06080800BCEF12F012002B
:02080E00C250D6
:08081000020B01E0010E1200D1
:0608180009EF29F01200B7
:02081E001300C5
:10082000FB610000FF02000001000000E66B000019
:10083000CB0400000A000000DA6B0000A1040000F5
:100840000C000000D66B0000F30400000400000060
:10085000CA6B0000950400000C000000B16B0000A2
:10086000D80300001900000006080000FC04000086
:1008700002000000AE6B0000F7040000030000005F
:10088000A86B0000D5040000060000009E6B00006D
:10089000C10400000A0000009A6B0000EF04000091
:1008A00004000000966B0000EB0400000400000050
:1008B000906B0000590F0000060000008C6B0000D8
:1008C000E704000004000000886B0000E30400005F
:1008D00004000000846B0000DF040000040000003E
:1008E0007A6B0000B70400000A000000646B00008F
:1008F000E902000016000000596B0000FF01000033
:0409000001000000F2
:0C09040018EC0BF0FE0EDB5009E127ECB4
:100910000BF0EF507F0804E227EC0BF07F0EEF6E38
:100920001DEF0BF018EC0BF0FE0EDB500BE127EC8B
:100930000BF0EFCF00F07F0E005C04E227EC0BF031
:100940007F0EEF6E1DEF0BF018EC0BF05EEC0BF072
:10095000D890015004E6D00E005C070E015805E265
:100960000101D00EEE6F070E0DD05EEC0BF00134DE
:100970000BE20050CE08080E015406E20101CE0E33
:10098000EE6F080EEF6F06D0FD0EDBCFEEF1FE0E20
:10099000DBCFEFF1EEC100F0EFC101F0D00E005E51
:1009A000070E015A00501DEF0BF018EC0BF0020E71
:1009B000E126BC0EDE6E610EDD6E938A938893860F
:1009C000938499829980938E938C9A849A82998643
:1009D00099849A8A9A8894809A869A8E9A9C919CF5
:1009E00002017F0E0B6F0A6F096F086F076F066FAA
:1009F000056F046F136F126F116F106F0F6F0E6F13
:100A00000D6F0C6F000EE66EE66AE66EE66AE66E45
:100A1000E66AE66EE66A28EC14F0F56E080EE15E12
:100A2000F5500301010ED86FA5EC2BF0BEEC2BF0B6
:100A30002FEC24F0E4EC2CF0FEEC30F020EC31F064
:100A40002CEC31F038EC31F00201840E0D6FAA0E5F
:100A50000E6F14EC0CF0EEDBF56E060EE15EF55059
:100A60007BEC35F050EC0BF06DEC13F0D9CFE1FFDF
:100A70001DEF0BF0200EE66E020EE66ECDEC13F0CD
:100A8000E552E5520201E92B000EEA23EB2BEC23A1
:100A90000A0EEB1907E1EC5105E1A20E006E610EA2
:100AA0003AEC0BF002013C0EEB1904E1EC5102E1CF
:100AB0003AEC2DF02C0E0201EB190CE1010EEC19B1
:100AC00009E146EC2DF07BEC2DF09C0E006E610EE2
:100AD0003AEC0BF07F0E0201305D02E010D801D03D
:100AE0001AD813C2E6FF12C2E6FF11C2E6FF10C217
:100AF000E6FF0AEC22F059EC0BF050EF0BF001ECA2
:100B00000CF0D9EC0AF0B0D959EC0BF014EC0CF065
:100B1000D9D82EEF0BF002012D510101806F816BAE
:100B200001EC0CF014EC0CF03CD82EEF0BF018ECB0
:100B30000BF00201F151F21104E0AAEC0BF0EF6AA4
:100B400004D0AAEC0BF0EB0EEF6E1A0EEF27000E9E
:100B5000F023F03512E2EF517008170EF0550DE258
:100B6000EF6BF06BF151F21102E0000E01D0010EBB
:100B7000F16FF26B800B01E0F269020122AB0BD046
:100B8000AAEC0BF0EF6A65EC0BF0E66EB6EC0BF03E
:100B9000E552E75003D0B6EC0BF07F0EEF6E1DEF81
:100BA0000BF04BEC0CF0DE6ADD6AA8EC0CF027C20F
:100BB000EFFF5AEC0AF026C2EFFF02012251010BAF
:100BC00023E02351010B20E0A8EC0CF0EF50E66E7F
:100BD000D950020FE96EDACFEAFFE552E750EE6E28
:100BE000ED6A5AEC0AF027EC0CF0020EDBCF00F0B5
:100BF000030EDBCF01F0FF0ED8800056000E015629
:100C00005AEC0AF000C0EFFF22AB03D065EC0BF00A
:100C100006D022AF0AD02851FE0BE8427F0FE66EC5
:100C2000B6EC0BF0E552E75003D0B6EC0BF07F0EBC
:100C3000EF6E22A905D02C51FE0BE8427F0F08D0A1
:100C400022AD0CD07F0E006E2C51FE0BE842005CF2
:100C5000E66EAAEC0BF0E552E75003D0AAEC0BF0DD
:100C60007F0EEF6E23A90FD07F0E006E2951FE0B71
:100C7000E842005CE66E5AEC0AF03BEC0CF0020134
:100C8000F36BF46B07D01A0E0201F327000EF42366
:100C90002CEC0CF0020123BB04D023EC0CF0FE0E74
:100CA00003D023EC0CF07F0EEF6EF90EDBCFE6FFE6
:100CB000FA0EDBCFE6FF16DBE552E552D9CFE1FFB6
:100CC0001DEF0BF04FEC0CF0100E41EC0CF0100E81
:100CD00098EC0CF0AEEC0BF0E2EC0AF0010E74ECC8
:100CE0000CF0AEEC0BF01FEC0CF0EBDB0C0E41EC5F
:100CF0000CF00C0E98EC0CF0B2EC0BF0E2EC0AF0FD
:100D0000020E74EC0CF0B2EC0BF01FEC0CF0AEEC3D
:100D10000BF0DDEC0BF008E0AEEC0BF0EE6AEE6AE7
:100D20007E0EEE6E430E07D0AEEC0BF0E7EC0BF050
:100D300003E09BEC0CF0EE6EB2EC0BF0DDEC0BF094
:100D400008E0B2EC0BF0EE6AEE6A7E0EEE6E430E39
:100D500007D0B2EC0BF0E7EC0BF003E09EEC0CF0EC
:100D6000EE6ED0DB100EEFEC0BF003E09BEC0CF022
:100D7000EE6EC8DB0C0EEFEC0BF003E09EEC0CF01B
:100D8000EE6EC0DB1A0EA4DB010EEE1807E1ED508B
:100D900005E1FDEC0BF0CDEC0AF005D0FDEC0BF01D
:100DA00021EC0BF0EE6E23EC0CF07F0EEF6EAEEC50
:100DB0000BF0C1EC0BF0E552E750EF6EB2EC0BF02C
:100DC000C1EC0BF0EE52E552E750EF6EFDEC0BF08C
:100DD000C1EC0BF03BEC0CF032EC0CF00AE0A8ECB0
:100DE0000CF027EC0CF066DB06EC0BF063DB00C0CC
:100DF000EFFF88DB1E0E6CDB6CEC0BF001E10150A9
:100E000011E0010E001801E1015008E000500EE170
:100E100001500CE1B6EC0BF07F0E07D0B6EC0BF0F6
:100E2000EF6A04D0B6EC0BF0FE0EEF6E6BDB200E1B
:100E30004FDB6CEC0BF001E1015011E0010E0018EA
:100E400001E1015008E000500EE101500CE1AAEC74
:100E50000BF07F0E07D0AAEC0BF04D0E03D0AAECDE
:100E60000BF0FE0EEF6EE9D3E3DB0E0EE126030E70
:100E7000010181AF02D0D89003D0805D000E81596E
:100E800001E29BD0070E0201F96FFA6BF551F719D9
:100E900002E1F651F8193AE0F75101E1F85109E0A1
:100EA00031DB180EEB6A190EEB6AF96BFA6BDE6830
:100EB000DD68F9C2E9FFFAC2EAFF060EEA02F3CFE3
:100EC000EAFFE902F3CFE9FFF450EA26650EE926CE
:100ED000040EEA22EECF00F0EFCF01F0D9CFE6FF0B
:100EE000DACFE6FFFD0EDBCFE6FFFE0EDBCFE6FF3F
:100EF00004D001C0FAFF0050F96EFBDFE552E55265
:100F0000E552E552F7C2F5F2F8C2F6F2F9C2E9FF8E
:100F1000FAC2EAFF060EEA02F3CFEAFFE902F3CFD4
:100F2000E9FFF450EA26650EE926040EEA22020ED5
:100F3000E926000EEA22EECF02F0EFCF03F0FB0E1F
:100F4000DBCFE6FFFC0EDBCFE6FFFD0EDBCFE6FFDF
:100F5000FE0EDBCFE6FF04D003C0FAFF0250F96EAD
:100F6000FBDFE552E552E552E552F3CF00F0F350D6
:100F7000F41023E1F9C2E9FFFAC2EAFF060EEA0221
:100F8000F3CFEAFFE902F3CFE9FFF450EA26650E5A
:100F9000E926040EEA22040EE926000EEA22EECF2C
:100FA00000F0EFCF01F004D001C0FAFF0050F96E5D
:100FB000FBDF0201F72B000EF823D9CFE1FF3DD371
:100FC0004FEC0CF0EE52EFCF05F27BDA1FDB00C0E6
:100FD00004F277DA020E7CDA19DB00C00BF271DA68
:100FE000030E76DAEFCF07F270EC0CF0EFCF0AF2D7
:100FF00068DA020E6DDAEF50026E036A7F0ED88057
:101000000256000E035602C0E6FF03C0E6FF24DAD4
:10101000E552E552F3CF00F0F4CF01F0F43424E2CE
:1010200000501E08000E01541FE270EC0CF0EF504F
:10103000066E076A7F0ED8800656000E075606C059
:10104000E6FF07C0E6FF08DAE552E552F3CF04F009
:10105000F4CF05F0F43408E204501E08000E0554E5
:1010600003E202014D0E0A6F2CDA050E31DAEFCFE2
:101070000FF2E3D24BEC0CF0010E8BDB040E28DAFE
:10108000DEDB020E86DBDBDB030E83DB080E20DA01
:10109000D6DB70EC0CF066EC0CF0100ECBDB11DA4A
:1010A00066EC0CF00C0EC6DB0CDA080E11DA14DA62
:1010B000E40E496ECB0E4A6E160E4B6E420E1ADBD4
:1010C000140EB8DBCFDB26E0FCD90C0E01DAEECF34
:1010D000DFFF010EEECFDBFF020EEECFDBFF030ED4
:1010E000EECFDBFFEED9100EF3D945DAEAD90C0EBC
:1010F000EFD900C0EEFF56DAE4D9100EE9D9DFCF00
:10110000EEFF010EDBCFEEFF020EDBCFEEFF030E94
:10111000DBCFEEFFD6D9100EFCDA1C0ED9D95BDA84
:10112000D0D90C0EF6DA180ED3D955DA04013551A0
:1011300002E1000E01D0010E006E016A00BE0168DE
:10114000C0D9200EC5D900C0EEFF01C0EDFFAADB5B
:1011500044C01AF045C01BF046C01CF047C01DF04B
:10116000F0DB44C016F045C017F046C018F047C089
:1011700019F000DB2FEC17F044C012F045C013F05B
:1011800046C014F047C015F00DDB44C00EF045C05A
:101190000FF046C010F047C011F028DB44C00AF041
:1011A00045C00BF046C00CF047C00DF0D00E496EA4
:1011B0000F0E4A6E490E4B6E400E4C6E82EC17F0CD
:1011C00044C006F045C007F046C008F047C009F02B
:1011D000496A4A6A340E4B6E430E4C6E2FEC17F080
:1011E00044C002F045C003F046C004F047C005F01B
:1011F0004BDB82EC17F09DEC18F045C000F046C0C8
:1012000001F05FD9220E64D945C0EEFF01C0EDFFA9
:101210001DEC2DF043C000F044C001F052D9240E63
:1012200057D943C0EEFF01C0EDFF7DDB67DBD9CFAF
:10123000E1FF03D234DB040E8ADAAFD942D9080EBB
:1012400086DA100E84DA0C0E82DA140E80DA1C0EA6
:101250007EDA180E53DB7BEC2DF033D9240EEB6ACB
:10126000250EEB6A60DB73DA280EEB6A290EEB6A57
:1012700028D92A0EEB6A2B0EFBDA1C0EEB6A1D0E28
:10128000F7DA1A0EEB6A1B0EF3DA1E0EEB6A1F0E6C
:10129000EFDA200EEB6A210EEBDA180EEB6A190E6C
:1012A000E7DA100E87DA0C0E85DA140E83DA75D9B8
:1012B00029D9040E7FDA080E21DB4ADB7F0EEF6EA0
:1012C000F9D87F0EEF6EC8DA51DA7F0EEF6E42DA90
:1012D0007F0EEF6E33DBEE6E2EDBEE6E8EDAB1D963
:1012E000EE6EABD1D8DA020121BBA6D00401355194
:1012F0003DE10201FE3536E2FD510508000EFE55C6
:1013000031E2010EFB1901E1FC5106E0010EFB6F19
:10131000FC6B98D8020100830201FD6BFE6B020199
:101320000051400B01E0010EDE6EDD6A0051009DB0
:10133000100B01E0008D00510099080B01E00089BD
:1013400000510097020B01E00087DF50010BF36EA4
:10135000F346FD0E0015F310006F020E0201FB6F45
:10136000FC6B6DD0FD2B000EFE2369D06BD8020103
:10137000FB6BFC6B9BDA410E9DDA61E0CAD8A00ED4
:101380004B6EC10E88D95BE081D8800E4B6EBF0ECC
:1013900091DA10E1BED8800E4B6E3F0E7CD90AE187
:1013A0000201008B008F008100850089008D008381
:1013B000008745D06BD84B6A4C6A69D91BE176DA55
:1013C000400E69D903E10201008307D05FD8200EE7
:1013D0004B6E410E60D903E10201008707D056D859
:1013E000700E4B6E410E57D902E1020100890201D5
:1013F000008D25D04BD84B6A4C6AD5EC18F0010A09
:101400001EE154DAC00E56DA03E10201008107D072
:101410003DD8200E4B6EC10E4DDA03E1020100856E
:1014200007D034D8700E4B6EC10E44DA02E10201CF
:10143000008B0201008F03D053DAEFCF00F2D9CF37
:10144000E1FFFBD00201009F009B00950091009DF1
:101450000099009700931200EBD8FD0EDBCF45F00A
:10146000FE0EDBCF46F03FD949EC18F043C002F046
:1014700044C003F043C045F044C046F034D9EFEC1B
:1014800017F045C0F3FF46C0F4FFD7D00BDA44C0D5
:1014900010F045C011F046C012F047C013F051DA09
:1014A00030DA68D9B6D97ED935DAA0D906DA496AF0
:1014B0004A6A1200F90EDBCFE9FFFA0EDBCFEAFF32
:1014C0001200FD0EDBCFE9FFFE0EDBCFEAFF1200BC
:1014D000E926000EEA221200EECF10F0EECF11F056
:1014E000EECF12F0EFCF13F010C043F011C044F074
:1014F00012C045F013C046F07FEC16F002DAC4D9F2
:1015000009EF0CF0FB0EDBCFE9FFFC0EDBCFEAFFAF
:101510001200C8D944C024F045C025F046C026F0CA
:1015200047C027F00EDA44C020F045C021F046C085
:1015300022F047C023F01ED92FEC17F044C01CF056
:1015400045C01DF046C01EF047C01FF02BD944C057
:1015500018F045C019F046C01AF047C01BF046D934
:1015600044C014F045C015F046C016F047C017F04F
:10157000496A4A6A1200EECF00F0EECF01F0EECFDA
:1015800002F0EFCF03F0120000C044F001C045F0BC
:1015900002C046F003C047F01200EE6AEE6AEE6A3F
:1015A000EE6A120001C0EEFF02C0EEFF03C0EEFFC4
:1015B0001200B80EE66E010EE66E820EE66E010EA9
:1015C000E66E1200EECFE6FFEECFE6FFEECFE6FFCF
:1015D000EFCFE6FF1200EECF44F0EECF45F0EECFB6
:1015E00046F0EFCF47F000C049F001C04AF002C01A
:1015F0004BF003C04CF099EC16F047C0EDFF46C02D
:10160000EDFF45C0EDFF44C0EFFF1200EF50006E4C
:10161000016AFF0ED8800056000E0156120043C02A
:1016200000F044C001F045C002F046C003F01200D3
:10163000D9CFE6FFE1CFD9FF1200E552E7CFD9FFBE
:101640001200EE6AEE6AFE0EEE6E420E1200FC0E04
:10165000DBCFE9FFFD0EDBCFEAFF1200F56E060ED1
:10166000E15EF550DC0EE66E010EE66EA9DCE55299
:10167000E5521200016E026A00C0E6FFE66E02C08B
:10168000E6FF40EC33F0E552E552E5521200CCECB7
:1016900018F0010A12004C6ED5EC18F0010A120085
:1016A000000EE66E020EE66EE6EC13F0E552E55231
:1016B0001200E552E552E552E5521200FD0EDBCF75
:1016C00000F0FE0EDBCF01F012007F0E006E2851FD
:1016D000FE0BE842005C1200EECF00F0EFCF01F00D
:1016E000020E00181200FD0EDBCF4AF0FE0EDBCF1B
:1016F0004BF012004C6E82EC17F00CD9496A4A6A22
:10170000700E4B6E420E4C6E2FEC17F0D6D861EF78
:101710000AF0DEDEEECF04F0EECF05F0EECF06F0FD
:10172000EFCF07F0620E496EA10E4A6ED60E4B6ED9
:101730003C0E4C6E04C044F005C045F006C046F0B7
:1017400007C047F082EC17F0B8D861EF0AF0D6D89E
:1017500061EF0AF0AFDE040E68EF0AF0ABDE060EB2
:1017600068EF0AF0A7DE0A0E68EF0AF0A3DE030EA8
:1017700068EF0AF0496A4A6A040E4B6E430E4C6EDB
:101780001200F9DE01DF76EC18F04650E66E5AEFF3
:101790000AF0E66EE66AB9EC19F0E552E5523FDF71
:1017A00061EF0AF0496A4A6A820E4B6E420E4C6E35
:1017B00082EF17F0A3D882EF0AF0C6D87E0E4B6EE8
:1017C000430E4C6EE1DED5EC18F0010A1200BCD8D5
:1017D000FE0E4B6E420E4C6ED7DE47EF0BF078DEFE
:1017E000B3D84B6A4C6AD0DE47EF0BF0496A4A6ABD
:1017F000400E4B6E4C6E98EF16F05CDE0E0E68EFEE
:101800000AF06CEC1CF086EC22F0D3DE33DC59EFEE
:101810000BF02FEC17F044C008F045C009F046C0AB
:101820000AF047C00BF01200DC0EE66E010EE66E09
:10183000D9EF0AF04DDE44C0EEFFD2EF0AF043C00C
:10184000EEFFD2EF0AF036DE050E68EF0AF0DEDEBC
:101850007FD800C0EFFF12002DDE020E39DE7F0EB2
:10186000EF6E12004FDE180E33DEEE50ED10120058
:10187000EB6A82EF0AF0020E2BDEE552E750EF6EC4
:10188000120056D882EF0AF0496A4A6A7A0E4B6E05
:10189000440E4C6E1200CCDE040EE1261200C8DEAF
:1018A00061EF0AF00DC246F057EF16F0EFDDA00E23
:1018B0004B6E12004C6E47EF0BF044C000F045C079
:1018C00001F046C002F047C003F0120005DED20E60
:1018D000496E530E4A6E7B0E4B6E410E7AEF0BF043
:1018E000F0DD040E68EF0AF0E66EE66A72EC27F0AF
:1018F000F56E0E0EE15EF5500FEF0BF0E9DDCDEF6A
:101900000AF044C00CF045C00DF046C00EF047C0D0
:101910000FF0120044C004F045C005F046C006F0C8
:1019200047C007F01200CDDD2E0E11DF320E12007F
:10193000CFDDE2EF0AF012DF21EF0BF013DF21EF32
:101940000BF018DF98EF16F016DE496A4A6A1200AB
:06195000B1DDEE521200B1
:0A195600E7EC11F0FB0EDBCFF3FF0E
:10196000DB06F35000090AE035EC12F0FA0EA0ECA9
:1019700012F0F3E1011CF1E1010E01D0000E16EFAF
:1019800012F0E7EC11F03B0EE12402E3E168E652CD
:10199000E16E010EDB6A020EDB6AF90EDBCFF6FFA9
:1019A000FA0EDBCFF7FFFB0EDBCFF8FF0800F55098
:1019B000DF6EDF5002E13CEF11F0250EDF5C02E04C
:1019C0002FEF11F0030EDB6A040EDB6A050EDB6AF3
:1019D000060EDB6A070EDB6A4FEC11F02D0EDF5CA2
:1019E0000CE02B0EDF5C09E0200EDF5C06E0230E2E
:1019F000DF5C03E0300EDF5C1AE1DF50300A14E0F8
:101A0000130A0FE0030A0AE00B0A05E0060AE4E104
:101A1000030EDB80E1D7030EDB82DED7030EDB840F
:101A2000DBD7030EDB86D8D7030EDB88D5D72A0E8B
:101A3000DF5C1BE14BEC11F099EC11F010E0030EB0
:101A4000DB8045684668130EDBCF4AF0140EDBCF0F
:101A50004BF049EC18F0040E43C0DBFF03D0130E2B
:101A600082EC11F04FEC11F00BD0090EDB6AF0ECB8
:101A700011F003E064EC12F0FAD7090E82EC11F0D9
:101A8000030EDBB0DB982E0EDF5C1BE14FEC11F098
:101A90002A0EDF5C0BE14BEC11F099EC11F003E145
:101AA000130ED4EC11F04FEC11F00BD0090EDB6AE1
:101AB000F0EC11F003E064EC12F0FAD7090ED4EC6C
:101AC00011F0680EDF5C07E14FEC11F0680EDF5C8F
:101AD0001DE1030E18D0740EDF5C17E07A0EDF5C98
:101AE00014E0480EDF5C06E0540EDF5C03E05A0EA3
:101AF000DF5C02E1020E07D06C0EDF5C03E06A0ED1
:101B0000DF5C04E1010E27EC12F0C9DBDF506E0A46
:101B100001E181D31E0A01E192D1200A01E18FD1B6
:101B20003F0A01E149D11A0A01E146D10D0A01E15A
:101B300043D1200A01E140D13A0A01E13DD1200A16
:101B400001E13AD1260A01E135D10D0A01E132D194
:101B50001A0A01E1D9D0200A4AE0300A1FE0460AF9
:101B60000EE0250A01E085D3D950F90FE96EFF0E8A
:101B7000DA20EA6E010EEE5E000EEE5AEE5A35ECF9
:101B800012F0250EE66E95DB03E1011C01E16BD33B
:101B900031EC12F001E26DD3DB2A6BD3080EDB6A65
:101BA000040EDB50010806E2040EDB04F9EC11F030
:101BB000DB508BDB080EDB5009E0030EDB50010B22
:101BC00005E172DB01E04FD3080EDB6A64DBEFCF87
:101BD000DFFFA9EC12F003E1011C01E144D331EC79
:101BE00012F001E3DB2A60DB01E143D33CD3070EB3
:101BF000DB5002080FE175EC12F0030E3CEC12F022
:101C00000E0EEECFDBFF0F0EEECFDBFF100EEECF92
:101C1000DBFF20D0F70EDBCF03F0F80EDBCF04F0B4
:101C2000020E035E000E045AF70E03C0DBFFF80E2F
:101C300004C0DBFF03C0E9FF04C0EAFF2CEC12F094
:101C4000026A0E0E00C0DBFF0F0E01C0DBFF100E9C
:101C500002C0DBFF0E0EDBCFE6FF0F0EDBCFE6FF91
:101C6000100EDBCFE6FF20EC32F0E552E552E552F4
:101C7000130E44C0DBFF140E45C0DBFF060EDB5025
:101C800005E0130E70EC12F001E26ADB94EC12F046
:101C900002E2130E37DB57EC12F006E0040E70EC94
:101CA00012F002E2050E2EDB030EDBB005D0FCDAEB
:101CB00001E0D9D2080EDB6A090EDB6A0E0EDBCF1B
:101CC000F6FF0F0EDBCFF7FF100EDBCFF8FF08009B
:101CD000F550DF6EDF5014E09AEC12F011E2A9EC3F
:101CE00012F003E1011C01E1BED2BBDB01E3DB2A00
:101CF000090EDB2AD9500E0FE96E000ECBDBE7D7B9
:101D0000D3DA01E1B6D2AFD2C6DA110EEECFDBFFE5
:101D1000120EEDCFDBFF110EDBCFE6FF120EDBCF95
:101D2000E6FF12EC32F0E552E552130EF3CFDBFF83
:101D3000140EF4CFDBFF060EDB5004E0130ED0DBF5
:101D400001E20EDB94EC12F002E2130EDBDAAFDB01
:101D500005E0040EC5DB02E2050ED4DA030EDBB0AB
:101D600005D0A2DA01E07FD2080EDB6A090EDB6A39
:101D7000110EDBCFE9FF120EDBCFEAFFEFCFDFFF63
:101D8000DF5014E0D7DB12E2E4DB03E1011C01E1E8
:101D90006AD267DB01E3DB2A090EDB2A110EDB2A9C
:101DA000DBCFE9FF120EE8E3DB2AE6D77DDA01E1BB
:101DB00060D259D2030EDB8E070EDB0410E195DBF7
:101DC000040E5ADB0A0EEECFDBFF0B0EEECFDBFF6D
:101DD0000C0EEECFDBFF0D0EEECFDBFF6CD0070E4F
:101DE000DB5003082CE1030EDBAE0DD0B2DA020E9D
:101DF00076DAEFCF00F0016A026A036A00AE39D0EA
:101E00000168026835D0F70EDBCF01F0F80EDBCFAA
:101E100002F0020E015E000E025AF70E01C0DBFF57
:101E2000F80E02C0DBFF01C0E9FF02C0EAFFEFCFFE
:101E300000F00A0E00C0DBFF0B0EDB6A38D0070E85
:101E4000DB50020809E1030EDBAE04D059DB02AE21
:101E500010D00ED055DB0DD0030EDBAE12D079DAE8
:101E6000020E3DDAF9DA026A036A01AE02D00268B4
:101E70000368E2DA0C0E02C0DBFF0D0E03C0DBFFCD
:101E80001AD0F70EDBCF02F0F80EDBCF03F0020E14
:101E9000025E000E035AF70E02C0DBFFF80E03C00D
:101EA000DBFF02C0E9FF03C0EAFFD6DAC5DA0C0E99
:101EB000DB6A0D0EDB6A060EDB5005E1010EF36EE8
:101EC000050EF3CFDBFF150EDB6A160EDB6AD95069
:101ED000370F006E000EDA20016E390E00C0DBFFF6
:101EE0003A0E01C0DBFF380EDB6A080EDB6A0A0E11
:101EF000AEDADF50780A12E0200A10E0280A0CE07F
:101F0000200A0AE03F0A06E00D0A02E0200A08E182
:101F1000020E05D0080E03D0080EDF26100E97DA49
:101F2000030EDBBE02D0DB92DB94DB50800B26E09D
:101F30008ADA030EEB50000AE8AE02D0D89008D03F
:101F4000000EEE5C000EEE58000EEE58000EEE583D
:101F500015E211DA486849684A684B680CEC34F0BD
:101F60000A0E3FC0DBFF0B0E40C0DBFF0C0E41C072
:101F7000DBFF0D0E42C0DBFF2D0E08D0030EDBA2EF
:101F800002D02B0E03D0DBA408D0200EF36E170E68
:101F9000F3CFDBFF150EDB2A02D0170EDB6A050E2E
:101FA000DB5003E1B5D901E189D0480E006E6B0E1C
:101FB000016E000E026E070EDBCF03F0046A056AA5
:101FC000066A03C048F004C049F005C04AF006C0E4
:101FD0004BF0D1D9DDEC34F000503F24F36E0150CA
:101FE0004020F46E02504120F86EF4CFF7FFF3CF9B
:101FF000F6FF0800090EF5CFDBFF580EDF5C0FE19E
:10200000610EF36E090E79D90AE3200E006E090EF7
:10201000DBCFE7FF0050E75E090EE7CFDBFF070EDF
:10202000DBCF00F0016A026A036A0DDA00C048F0F3
:1020300001C049F002C04AF003C04BF0EECF43F0BC
:10204000EECF44F0EECF45F0EFCF46F0DDEC34F0CC
:1020500046C0EDFF45C0EDFF44C0EDFF43C0EFFFBC
:10206000390EDBCFE9FFDB063A0EDBCFEAFF01E2F8
:10207000DB06090EDBCFEFFF150EDB2A49D995E110
:10208000030EDBA61DD06F0EDF5C06E1BFD918E39F
:10209000150EDB2859DA14D0780EDF5C09E0580EF3
:1020A000DF5C06E0620EDF5C03E0420EDF5C08E10D
:1020B000020EF36E160EF3CFDBFF02D0150EDB6AB5
:1020C000030EDB50100B0EE0040EDBCF00F0050E0C
:1020D000DB50D880005406E2060EDB5003E1040E0C
:1020E000DB5032DA93D90AE2050EDBCFE7FF150E9B
:1020F000DB50E75E050EE7CFDBFF02D0050EDB6AA3
:10210000040EDBCF00F0160E43D9D880005414E241
:10211000160EDBCFE6FF150EDBCFE6FF040EDBCF9E
:10212000E6FF050EDB50E552E75CE552D880E75448
:10213000E552D880E7545DD9030EDB50010B0BE16B
:10214000080EDB5008E0B0D801E08DD0080EDB505F
:10215000BCD8080EDB6A170EDB5007E086D9170ED5
:10216000EFD903E1011C01E17ED0160EDB5016E031
:102170007CD9300EE66E9DD802E1011C74E075D961
:10218000DFCFE6FF8AEC33F0E552E552E552F4CFBB
:1021900001F00001F31C02E1011C65E0050EDBCF3C
:1021A00000F0160EDB50D880005409E2050EDBCF9C
:1021B000E7FF160EDB50E75E050EE7CFDBFF300EC4
:1021C000E66E050EC9D94FE1390EDB2ADBCFE9FFF8
:1021D0003A0E01E3DB2ADBCFEAFF090EEFCFDBFF8C
:1021E000DB500EE042D9090EABD902E1011C3BE005
:1021F000390EDB2ADBCFE9FF3A0EEDE3DB2AEBD722
:1022000053D831E1160EDBCFE6FF080EC1D8E552F8
:10221000E7245BD82ED0070EDB50030A1CE0010A2E
:1022200014E0030A07E079D9DBCFEEFF020EDBCF23
:10223000EDFF1FD0F3D8056A03AE02D0046805682D
:102240002AD8BAD805C0EEFF14D0E8D803BE046877
:1022500022D8B2D80ED061D9DBCFEFFF0AD079D91E
:1022600005E1011C03E1F368F46810D0FAD801E33A
:10227000DB2A77D9D6EF0CF0010EDBCF00F0020E8F
:10228000DBCF01F000C0F3FF01C0F4FFD9CFE1FFC5
:10229000DACFE2FFCBD029D9020E3CEF12F061D9A0
:1022A0000800F550DF6E1200200EE66E080EACEF4F
:1022B00012F08AEC33F0E552E552E552F3CF00F02C
:1022C000F4CF01F00001F31C1200006E016AD95036
:1022D000010F4DD90050EE260150ED221200045E90
:1022E000000E055AF70E04C0DBFFF80E05C0DBFF39
:1022F00004C0E9FF05C0EAFF1200DBCFF4FFF35092
:10230000F45C1200DB50E76E040EE7CFDBFF120037
:102310000A0EDBCF00F00B0EDBCF01F00C0EDBCF93
:1023200002F00D0EDBCF03F000500110021003107D
:102330001200130EEECFDBFF140EEDCFDBFF130EFA
:10234000DBCF00F0140EDBCF01F00001800E011492
:102350001200F70EDBCF04F0F80EDBCF05F0120011
:10236000050EDB50E66ED950130F01D9E552E75048
:10237000EE6EED6A12000A0EDBCF43F00B0EDBCFE0
:1023800044F00C0EDBCF45F00D0EDBCF46F0120013
:10239000DBCFE6FF150EDBCFE6FF050EDB50E55287
:1023A000E724E552E7241200DB50CED8010EF36E8D
:1023B000060EF3CFDBFF1200EE50EFCFEAFFE96E1F
:1023C00002C0EEFF03C0EEFF04C0EEFF1200D9CF43
:1023D000E6FFDACFE6FFE1CFD9FFE2CFDAFF120066
:1023E000DFCFE6FFE66A49EC35F0E552E552F350FF
:1023F0001200E76E080EE7CFDBFF1200EECF00F011
:10240000EECF01F0EFCF02F0036A1200050EDBCF32
:1024100000F0150EDB50D88000541200010EDBCF07
:1024200002F0020EDBCF03F0046A1200E552E5CFA2
:10243000DAFFE7CFD9FF12000A0E00C0DBFF0B0E58
:1024400001C0DBFF1200D9500A0FB7EF12F0F36E94
:10245000070EF3CFDBFF1200EECF00F0EFCF01F05D
:102460001200010EDB2A020E1200FC0EDBCFE6FF8B
:10247000FD0EDBCFE6FF1200005E000E015AF70EE4
:1024800000C0DBFFF80E01C0DBFF00C0E9FF01C0A8
:10249000EAFF1200DA20EA6EEF2AEECFF6FF000E16
:1024A000EF22EECFF7FFEF22EECFF8FF1200040E7F
:1024B000DBCFE6FF130EDB50E552E75C9ADFDB5023
:1024C00004DF060EDB501200090EDB500A0DF3503C
:1024D000DF24D00FE76E090EE7CFDBFF4FEF11F0DF
:1024E000DB50F36E050E7DEF11F0F70EDBCF00F041
:1024F000F80EDBCF01F01200DFCFE6FF59EF11F04D
:1025000028DF030EECDEFEEF11F0ABEC0CF0E55231
:10251000E552E552E55200091200BDDEEE50EFCF64
:10252000EAFFE96E010E1200130EDB50F36E040E8B
:102530007DEF11F0040EDB50F36E090E7DEF11F00C
:10254000DBCFE6FF59EF11F0E76E050EE7CFDBFFBB
:1025500012008BDF7CEF12F0DBCFE6FF86DF85EF2A
:1025600012F0D950F90FE96EFF0E4AEF12F0E96E42
:08257000000EDA20EA6E1200F1
:08257800D8CFE4FFE0CFE4FF3F
:10258000E46EDACFE4FFE2CFDAFFE9CFE4FFEACF8F
:10259000E4FFE652F2A202D0A5D802D09EB6D1D86E
:1025A000E552E5CFEAFFE5CFE9FFE5CFDAFFE550F9
:1025B000E5CFE0FFE5CFD8FF1000E66A010EE66E3A
:1025C000050EE66E78EC34F0E552E552E552120065
:1025D000070EB46E000E886E876E866E856E846EF2
:1025E000836E826E816E806E916E906E8F6E8E6E37
:1025F0008D6E8C6E8B6E8A6E896E2F0E926E9368C6
:102600009C0E946E956A966A9768040E986E0E0EEC
:102610009A6E9968C16AF19EB0989C8EA26A9F6A70
:10262000A06A9D6AA36AA56AC8DF9F86D08E9E961F
:102630009D869382F06AF288F09EF098F192F09A6B
:10264000F16AF28CF28E1200D9CFE6FFE1CFD9FF0A
:10265000E652BEDF0201409740990F01040E576F0A
:10266000020E586FDF6A100EDF5C0AE2DF50EA6A82
:102670005725E96E5851EA227F0EEF6EDF2AF3D715
:1026800002011D6B010E1E6FC20E1F6F02014085FD
:102690000201226B236B0201006B026B036B010EC4
:1026A000D56E320ED76ECF0ED66ED59E000EE66E6C
:1026B000020EE66E8BD8E552E55202014093000E01
:1026C000E66E020EE66E82D8E552E55202014093B4
:1026D000E552E552E7CFD9FF1200828280889492BA
:1026E00092981200F2920F01200E536F9F86020102
:1026F00040A906D00F01E00E506F000E516F05D0BB
:102700000F01C00E506F000E516F020140A14079C1
:1027100040A706D00F01800E4E6F000E4F6F05D000
:102720000F01A00E4E6F000E4F6FC9CF54FF4ECF5A
:10273000E9FF4FCFEAFF4E2B000E4F23EF50C96E3B
:1027400012009E96C9CF54FF0F015351000823E297
:1027500050CFE9FF51CFEAFF502B000E512354CF49
:10276000EFFF4ECFE9FF4FCFEAFF4E2B4F23EFCFC6
:1027700054FF54CFC9FF530753510CE10201020E1D
:102780001E6F020140934081320ED76ECF0ED66E7F
:10279000F294D58E01D0C96A1200D9CFE6FFE1CFFD
:1027A000D9FF020140A10ED0FD0EDBCFE6FFFE0EE9
:1027B000DBCFE6FF76EC21F0E552E5529D96020173
:1027C00040919D86E552E7CFD9FF1200D9CFE6FFB1
:1027D000E1CFD9FF020140B332D0FD0EDBCFE9FFDC
:1027E000FE0EDBCFEAFF1E0EE926000EEA22EF50B6
:1027F000020809E1FD0EDBCFE6FFFE0EDBCFE6FFB0
:1028000069D8E552E552FD0EDBCFE9FFFE0EDBCFC6
:10281000EAFF150EE926000EEA22EF9EFD0EDBCF41
:10282000E6FFFE0EDBCFE6FFE4EC20F0E552E552DA
:102830009D960201407740839D8602011D2BE55243
:10284000E7CFD9FF12009D96020140919D861200AC
:10285000D9CFE6FFE1CFD9FF00013E6BD950FD0F84
:10286000E96EFF0EDA20EA6E010EEE1801E1ED507E
:1028700002E13E8101D0BA6AD950FB0FE96EFF0E2A
:10288000DA20EA6E010EEE1801E1ED5002E13E831E
:1028900001D0B76AD950F90FE96EFF0EDA20EA6E5F
:1028A000010EEE1801E1ED5002E13E8501D0736AA0
:1028B000D950F70FE96EFF0EDA20EA6E010EEE181E
:1028C00001E1ED5002E13E8701D0706AE552E7CFA9
:1028D000D9FF1200D9CFE6FFE1CFD9FFFD0EDBCF44
:1028E000E9FFFE0EDBCFEAFF1C0EE926000EEA220E
:1028F000EF6AFD0EDBCFE9FFFE0EDBCFEAFF170E1E
:10290000E926000EEA22EF6AC6AE0ED0C69EFD0E84
:10291000DBCFE9FFFE0EDBCFEAFF170EE926000E44
:10292000EA22010EEF6E22D0F150800B10E0F2503F
:10293000080B0DE0FD0EDBCFE9FFFE0EDBCFEAFF5B
:10294000170EE926000EEA22020EEF6E0FD0F0A657
:102950000DD0909EFD0EDBCFE9FFFE0EDBCFEAFF30
:10296000170EE926000EEA22030EEF6E250EC6149E
:10297000250819E0FD0EDBCFE9FFFE0EDBCFEAFFF5
:102980001C0EE926000EEA22010EEF6EFD0EDBCFD3
:10299000E9FFFE0EDBCFEAFF170EE926000EEA2262
:1029A000C6CFEFFF80D1C55019E0FD0EDBCFE9FFA8
:1029B000FE0EDBCFEAFF1C0EE926000EEA22020E15
:1029C000EF6EFD0EDBCFE9FFFE0EDBCFEAFF170E49
:1029D000E926000EEA22C5CFEFFF65D1D0BE19D09F
:1029E000FD0EDBCFE9FFFE0EDBCFEAFF1C0EE92672
:1029F000000EEA22030EEF6EFD0EDBCFE9FFFE0EA6
:102A0000DBCFEAFF170EE926000EEA22D0CFEFFF58
:102A10004AD19DB619D0FD0EDBCFE9FFFE0EDBCF0C
:102A2000EAFF1C0EE926000EEA22040EEF6EFD0EF0
:102A3000DBCFE9FFFE0EDBCFEAFF170EE926000E23
:102A4000EA229DCFEFFF2FD19C5019E0FD0EDBCF86
:102A5000E9FFFE0EDBCFEAFF1C0EE926000EEA229C
:102A6000050EEF6EFD0EDBCFE9FFFE0EDBCFEAFFBA
:102A7000170EE926000EEA229CCFEFFF14D1080EB4
:102A80009F5C19E0FD0EDBCFE9FFFE0EDBCFEAFF16
:102A90001C0EE926000EEA22060EEF6EFD0EDBCFBD
:102AA000E9FFFE0EDBCFEAFF170EE926000EEA2251
:102AB0009FCFEFFFF8D0A25019E0FD0EDBCFE9FF6A
:102AC000FE0EDBCFEAFF1C0EE926000EEA22070EFF
:102AD000EF6EFD0EDBCFE9FFFE0EDBCFEAFF170E38
:102AE000E926000EEA22A2CFEFFFDDD0A55019E0C3
:102AF000FD0EDBCFE9FFFE0EDBCFEAFF1C0EE92661
:102B0000000EEA22080EEF6EFD0EDBCFE9FFFE0E8F
:102B1000DBCFEAFF170EE926000EEA22A5CFEFFF72
:102B2000C2D0100EF214100819E0FD0EDBCFE9FF41
:102B3000FE0EDBCFEAFF1C0EE926000EEA22090E8C
:102B4000EF6EFD0EDBCFE9FFFE0EDBCFEAFF170EC7
:102B5000E926000EEA22F2CFEFFFA5D0470EF114CE
:102B600019E0FD0EDBCFE9FFFE0EDBCFEAFF1C0E06
:102B7000E926000EEA220A0EEF6EFD0EDBCFE9FF1A
:102B8000FE0EDBCFEAFF170EE926000EEA22F1CF98
:102B9000EFFF89D0C00EF01419E0FD0EDBCFE9FF86
:102BA000FE0EDBCFEAFF1C0EE926000EEA220B0E1A
:102BB000EF6EFD0EDBCFE9FFFE0EDBCFEAFF170E57
:102BC000E926000EEA22F0CFEFFF6DD092A819D0CF
:102BD000FD0EDBCFE9FFFE0EDBCFEAFF1C0EE92680
:102BE000000EEA220C0EEF6EFD0EDBCFE9FFFE0EAB
:102BF000DBCFEAFF170EE926000EEA2292CFEFFFA5
:102C000052D093B019D0FD0EDBCFE9FFFE0EDBCF23
:102C1000EAFF1C0EE926000EEA220D0EEF6EFD0EF5
:102C2000DBCFE9FFFE0EDBCFEAFF170EE926000E31
:102C3000EA2293CFEFFF37D03E0E94141C0819E020
:102C4000FD0EDBCFE9FFFE0EDBCFEAFF1C0EE9260F
:102C5000000EEA220E0EEF6EFD0EDBCFE9FFFE0E38
:102C6000DBCFEAFF170EE926000EEA2294CFEFFF32
:102C70001AD097BE18D0FD0EDBCFE9FFFE0EDBCFDA
:102C8000EAFF1C0EE926000EEA220F0EEF6EFD0E83
:102C9000DBCFE9FFFE0EDBCFEAFF170EE926000EC1
:0E2CA000EA2297CFEFFFE552E7CFD9FF1200EF
:022CAE004E9E38
:102CB00005D04E9E46AE02D0466C4E8E46C040F0C9
:102CC0003F6A526A516A860E416E426A4FEF19F0AE
:102CD0004E9E08D04E9E46AE05D0456C461EE86A14
:102CE00046224E8E46C040F045C03FF0526A516ABF
:102CF0008E0E416E426A4FEF19F04E9E0CD04E9EE2
:102D000046AE09D0436C441E451E461EE86A442266
:102D1000452246224E8E46C040F045C03FF044C09A
:102D200052F043C051F09E0E416E426A4FEF19F0CF
:102D30004C7E4E6A8BEC19F0A3EC19F04EB633EFD3
:102D400019F04EA20AD04EAA03D04EBE33EF19F0AE
:102D50004EA43FEF19F03CEF19F04EAA05D04EAC4F
:102D60003FEF19F03CEF19F04EA00AD04EA808D062
:102D70004EBE04D04EA402D048EF19F04CEF19F02B
:102D8000516A426A4C50475C506E10E344C052F0A6
:102D900045C03FF046C040F047C04FF049C044F046
:102DA0004AC045F04BC046F04E3A09D049C052F0F7
:102DB0004AC03FF04BC040F04CC04FF0506C4E9EAC
:102DC0004EBC4E8E4FC041F04EB07BEF19F01A0E44
:102DD00050607BEF19F0416A476A4EA408D0446CFA
:102DE000451E461E471EE86A4522462247224EAC33
:102DF00008D0526C3F1E401E411EE86A3F2240220E
:102E00004122436A505207E0473446324532443249
:102E10004332502EF9D74450522645503F22465057
:102E200040224750412243C051F04E9E41AE0BD04C
:102E3000516C521E3F1E401E411EE86A52223F2224
:102E4000402241224E8E41A006D0D88040323F32EF
:102E5000523251324F2A4FC041F04FEF19F04E6AB3
:102E60008BEC19F0A3EC19F04EB633EF19F04EA22B
:102E700005D04EBA33EF19F03AEF19F04EBA46EFDB
:102E800019F04EA005D04EB833EF19F046EF19F007
:102E90004EB83AEF19F0426A7F0E4724416EE86A55
:102EA00042224C50415EE86A425A1A0E4F6E476AFF
:102EB000516A526A3F6A406A4950445E4A50455AD4
:102EC0004B50465A000E475A09E7495044264A508B
:102ED00045224B504622000E472201D0518AD890FD
:102EE0004436453646364736D890513652363F3608
:102EF00040364F2EE1D7465045104410D8A4518A91
:102F00004FEF19F04E6A8BEC19F0A3EC19F04EB6A6
:102F100033EF19F04EA205D04EB833EF19F03AEF67
:102F200019F04EAA05D04EB033EF19F03AEF19F070
:102F30004EB002D04EA802D046EF19F0426A4C5073
:102F40004724416EE86A42227E0E415EE86A425A98
:102F5000516A526A3F6A406A4B504602F4CF40F0D1
:102F6000F3CF3FF04A504602F3505226F4503F222E
:102F7000000E40224B504502F3505226F4503F229F
:102F8000000E402249504602F3505126F45052227E
:102F9000000E3F2240224A504502F3505126F45081
:102FA0005222000E3F2240224B504402F350512641
:102FB000F4505222000E3F22402249504502F45064
:102FC0005126000E52223F2240224A504402F45021
:102FD0005126000E52223F2240224FEF19F04D6A37
:102FE0004BAEF8EF17F04A6C4B1EE86A4B224D1EB1
:102FF00046AE00EF18F0456C461EE86A46224D1EAC
:1030000020EC35F046BE10EF18F04DAE000C456CCC
:10301000461EE86A4622416C421EE86A4222000CC3
:103020004DBE07EF18F04E88FF0C4D6AE86A4BAEB4
:1030300022EF18F0486C491E4A1E4B1E49224A22B4
:103040004B224D1E46AE2DEF18F0436C441E451E1C
:10305000461E4422452246224D1EDDEC34F046BE7B
:1030600044EF18F04DAE000C436C441E451E461E46
:10307000E86A4422452246223F6C401E411E421E01
:10308000402241224222000C4DBE34EF18F04E88FF
:10309000FF0C46C052F045C051F045504A02F4CFF3
:1030A00044F0F3CF43F046504B02F4CF46F0F3CF59
:1030B00045F04A02F3504426F4504522E86A46227D
:1030C00051504B02F3504426F4504522E86A462200
:1030D0004BAE6FEF18F05150455E5250465A52AE0B
:1030E000000C4A50455E4B50465A000C4E6A8BEC21
:1030F00019F04EB680EF18F04EA20AD04EB403D0AD
:103100007F0E466E19D0800E466E16D0466A14D0D9
:103110004EB0FCD7870E4760F1D77E0E4764F6D7D6
:10312000860E475C04E0D8904632472AF9D74EA471
:1031300003D0466C46AEEAD712004E6A8BEC19F00B
:103140004EB6A7EF18F04EA20ED04EB405D07F0EAB
:10315000466EFF0E456E1FD0800E466E456A1BD030
:10316000466A456A18D04EB0FBD78F0E4760EDD740
:103170007E0E4764F5D78E0E475C05E0D890463248
:103180004532472AF8D74EA406D0456C461EE86A59
:10319000462246AEE5D71200DEEC18F04EB6000C23
:1031A0004EB0000C4EB4000C010CDEEC18F04EB624
:1031B000000C4EB0000C4EA4000C010C4E6A8BECBF
:1031C00019F0A3EC19F04EB612004EAE08D04EA086
:1031D00004D04EA802D04E8012004E9012004C50E7
:1031E000475C0BE14B50465C08E14A50455C05E109
:1031F0004950445C02E14E801200D8A002D04E8EAD
:1032000010D047504CC047F04C6E46504BC046F073
:103210004B6E45504AC045F04A6E445049C044F098
:10322000496E4C50475C10E0FF0F09E04E904EB4E1
:1032300003D04EAE4E8412004EAE4E9412004C2A75
:10324000D8904B324A3249324950445E4A50455A2E
:103250004B50465A46BEEAD7D89044364536463695
:10326000472EF8D7C8D77F0E476EFF0E466E456EC5
:10327000446E12007F0E4EBEFF0E476E02D07F0ED0
:10328000476E800E466E456A446AF3D74EAE04D050
:10329000800E476E466AF7D7476A466AF4D74050B1
:1032A0003F1052105110F8E042BEF0D740BE0CD093
:1032B00041504210EBE0D890513652363F364036FE
:1032C0004106D8A04206F2D74250D4E14128D2E0CC
:1032D00051AE11D07F0E511402E152A00CD0522AEF
:1032E000E86A3F22402207E3D88040323F32523220
:1032F000412A4128BFE04150C9E052C044F03FC0DC
:1033000045F04034466E4130476E4632479E4EBED1
:10331000478E39EF19F04636473602E34E844E7E2B
:1033200006E14E80476A466A456A446A12004728A9
:1033300003E0D88046321200D890463202E14E8235
:1033400012004E8612004B364C3602E34E8C4E7EF7
:1033500006E14E884C6A4B6A4A6A496A12004C2858
:1033600003E0D8804B321200D8904B32EAE14E8A0B
:02337000120049
:0E337200D9CFE6FFE1CFD9FF060EE126FD0E12
:10338000DBCFE6FFFE0EDBCFE6FFBAD8E552E55213
:1033900043C0DEFF44C0DEFF45C0DEFF46C0DDFFA8
:1033A000DD52DD5260DA030EEE1804E1ED5002E169
:1033B000020E01D0080E006E016A00BE0168040E04
:1033C00000C0DBFF050E01C0DBFF67DA000E471807
:1033D000E8AE02D0473409D0000ED8804454000E25
:1033E0004554000E4654000E47544DE356DAFD0E88
:1033F000441808E1E868451805E1E868461802E164
:10340000E86847182CE0FE0E441808E1E868451803
:1034100005E1E868461802E1E86847181CE0E8683A
:10342000441808E1E868451805E1E868461802E133
:10343000E86847180CE0445021E145501FE1465030
:103440001DE147501BE1F10E006E610E0BD0E30E43
:10345000006E610E07D0D90E006E610E03D0CD0E46
:10346000006E610E016E026A00C0E6FFE66E02C0E9
:10347000E6FF40EC33F0E552E552E552436A446A18
:10348000456A466A3CD0040EDBCF08F0050EDBCF60
:1034900009F00A6A0B6A09AE02D00A680B6808C014
:1034A00043F009C044F00AC045F00BC046F0DFCF3E
:1034B00048F0010EDBCF49F0020EDBCF4AF0030EDD
:1034C000DBCF4BF00CEC34F03FC004F040C005F013
:1034D00041C006F042C007F0006A870E016E930EED
:1034E000026E030E036EE4D9466E3FC048F040C042
:1034F00049F041C04AF042C04BF015EC18F0DFD162
:10350000D9CFE6FFE1CFD9FF180EE126100EDB6A16
:10351000110EDB6A120EDB6A130EDB6A140EDB6A15
:10352000150EDB6A160EDB6A170EDB6A9CD9010EDC
:10353000EE1817E1ED5015E18D0EDE6E020EDD6E18
:10354000020E9DC4DBFF030E9EC4DBFF040E97C476
:10355000DBFF050E98C4DBFF9AD9AF0EEE6E020EAC
:1035600035D081D9020EEE1817E1ED5015E17D0E30
:10357000DE6E020EDD6E020E9BC4DBFF030E9CC4EA
:10358000DBFF040E95C4DBFF050E96C4DBFF7FD97D
:10359000AD0EEE6E020E1AD066D9030EEE1826E1BD
:1035A000ED5024E19D0EDE6E020EDD6E020E9FC414
:1035B000DBFF030EA0C4DBFF040E99C4DBFF050E86
:1035C0009AC4DBFF64D9B10EEE6E020EED6E080EEA
:1035D000F36E0C0EF3CFDBFF0D0EDB6A0F0EF36EF6
:1035E0000E0EF3CFDBFF0F0EDB6A02D0436827D14C
:1035F0006CD9EECF00F0EFCF01F0010ED89000367D
:103600000136E806FBE1DE500024E96EDD500120C2
:10361000EA6E020EDBCFEEFF030EDBCFEDFF080EEE
:10362000DB6A090EDB6A080EDBCF00F0090EDBCF88
:1036300001F00C0EDBCF02F00D0EDBCF03F00150DA
:103640000318E8AE02D0033404D00250005C0350EB
:10365000015801E37DD0F7D8EECF02F0EFCF03F0B1
:1036600034D9EECF06F0EFCF07F0010ED890063632
:103670000736E806FBE1DE500624E96EDD50072040
:10368000EA6EEE50025C006EEE500358016E0A0EB8
:1036900000C0DBFF0B0E01C0DBFF0A0EDBCF00F02A
:1036A0000B0EDBCF01F00E0EDBCF02F00F0EDBCFE7
:1036B00003F0026C031E000E032201500318E8AE53
:1036C00002D0033404D00250005C0350015839E3A7
:1036D0000A0EDBCF04F00B0EDBCF05F00E0EDBCFB6
:1036E00006F00F0EDBCF07F007500518E8AE02D04A
:1036F000053404D00450065C0550075822E3A3D8D3
:10370000EECF00F0EFCF01F0026A036A01AE02D003
:1037100002680368D950100FE96EDACFEAFF005053
:10372000EE260150EE220250EE220350EE22D95036
:10373000140FE96EDACFEAFFEE2A000EEE22EE2237
:10374000EE22080EDB2A090E01E26DD7DB2A6BD7C9
:103750009ED8EECFF3FFEDCFF4FF020EEE26000E63
:10376000EF22F3CFE9FFF4CFEAFF84D80050011035
:103770000210031002E1FE0E61D0140EDBCF00F048
:10378000150EDBCF01F0160EDBCF02F0170EDBCFEC
:1037900003F000500110021003104FE00E0EDBCFBB
:1037A00000F00F0EDBCF01F0026A036A01AE02D017
:1037B00002680368D950100FE96EDACFEAFFEE50C5
:1037C0000026EE500122EE500222EE500322040E9B
:1037D000DBCF04F0050EDBCF05F0066A076A035065
:1037E0000718E8AE02D0073408D00450005C05503A
:1037F000015806500258075003580CE2040EDBCF64
:1038000000F0050EDBCF01F0026A036A51D803C055
:1038100046F018D02FD84CD803C046F0140EDBCF9A
:1038200048F0150EDBCF49F0160EDBCF4AF0170E2D
:10383000DBCF4BF015EC18F005D0FD0E436E44685D
:10384000456846683CD0080EDBCF04F0090EDBCF9C
:1038500005F0D89004360536DE500424E96EDD50BC
:103860000520EA6E1200D950FD0FE96EFF0EDA2036
:10387000EA6E1200100EDBCF00F0110EDBCF01F06C
:10388000120EDBCF02F0130EDBCF03F01200D95083
:10389000060FE96EDACFEAFF1200DECF44F0DECF8A
:1038A00045F0DECF46F0DDCF47F0DD52DD521200AD
:1038B00000C043F001C044F002C045F01200D9CF6F
:1038C000E1FFE552E7CFD9FF1200060EDBCFE9FF9B
:0838D000070EDBCFEAFF120036
:0838D8002DDA040EE1260401C3
:1038E000CB510AE1D1D8DF6EDF0404E10401010EFF
:1038F000CB6F02D0DF500108F6D9E76E010EE7CF9B
:10390000DBFFDB50000817E2030EDB6A010EDB5021
:10391000F36E030EDBCFF4FFF350F45C0CE2E5D959
:10392000E76E020EE7CFDBFFDBCFE6FF07D8E552FD
:10393000030EDB2AEBD7D9CFE1FF01D2FBD904017B
:10394000D251060A01E17FD0030A60E0060A2EE0A8
:10395000010A23E0030A01E096D0FE0EDB50006E60
:10396000016AFF0E001804E1015002E1020E8AD044
:10397000FE0EDB50410806E10401020E5F6F0401F8
:10398000050E80D0FE0EDB504E0801E07CD0040115
:10399000020E5F6F0401060E75D0FE0EDB50540858
:1039A00070E104015E6B0401030E6CD004015E51F2
:1039B000006E016A080E005C000E01580AE25E51BA
:1039C000EA6A3C0FE96E040EEA22FE0EDBCFEFFF3F
:1039D0005E2B5E51006E016A080E001854E1015022
:1039E00052E13CC434F43DC435F43EC436F43FC423
:1039F00037F440C438F441C439F442C43AF443C4FF
:103A00003BF40401CC2B000ECD233BD0020E04016D
:103A10005F5D04E1FE0EDB50430824E0030E5F5DB2
:103A200004E1FE0EDB504B081DE0040E5F5D09E172
:103A3000FE0EDB500D0805E10401CE2B000ECF2356
:103A400020D004011ED0020E04015F5D04E1FE0ED1
:103A5000DB50430807E0030E5F5D06E1FE0EDB501E
:103A60004B0802E15F2B0FD0040E5F5D09E1FE0EF3
:103A7000DB500D0805E10401D02B000ED12301D04D
:103A80000401010ED26F5BD155D9E6520401D30572
:103A900007E100D9050EE66E06D9E5520401D36BA5
:103AA000D4050DE1D46B0401616B010E606F626B94
:103AB000636B646B0401CE6BCF6BD06BD16B040175
:103AC000610528E10401010ECE5D000ECF5905E32A
:103AD0000401616B626B636BC3D0010ED05D000E9D
:103AE000D15903E304016005BAD004010A0E625DF6
:103AF000000E63590BE3800E6025006E016A000E14
:103B000001220006015A00C064F4AAD0622B000E04
:103B10006323A6D00401CE6BCF6BD06BD16B0401B5
:103B20006051120A01E19AD0030A01E180D0010A32
:103B300001E177D01F0A6FE0010A67E0030A5FE046
:103B4000010A57E0070A4FE0010A45E0030A3DE099
:103B5000010A35E00F0A2DE0010A25E0030A1DE005
:103B6000010A15E0070A0DE0010A07E0030A01E077
:103B700077D090D80401020E01D0030E606F616B04
:103B80006FD0800EE66E290EC6D8040E63D0200ECC
:103B9000E66E130EC0D8050E5DD0840EE66E2D0EB7
:103BA000BAD8060E57D0800EE66E2A0EB4D8070E8D
:103BB00051D0200EE66E2B0EAED8080E4BD0840EE0
:103BC000E66E2D0EA8D8090E45D0200EE66E120E18
:103BD000A2D80A0E3FD0E66AE66A7DD8E552E552E1
:103BE00004010B0E37D0800EE66E010E94D80C0E39
:103BF00031D0800EE66E020E8ED80D0E2BD0800EC8
:103C0000E66E030E88D80E0E25D0010EE66E060E67
:103C100082D80F0E1FD0010EE66E100E7CD8100E4B
:103C200019D0E66A4ED8E5520401110E13D0910E58
:103C3000E66E640EE66E100EE66E0F0EE66E730E06
:103C4000E66E550EE66E16D8F56E060EE15EF55080
:103C50000401120E606F010E616F02D0010E646FDD
:103C60006451000803E20401010ED46F04016451A1
:103C7000E55265D05FD8540E54D8430E52D8060E84
:103C800062D8FC0E52D8FB0E50D8FA0E4ED8F90E60
:103C90004CD855D00D0E91EF1EF00401CB6B1200E5
:103CA0000401CB51120046D8520E3BD84D0E39D8E4
:103CB000200E37D8FE0EDB50300F33D80D0E31D822
:103CC0003ED038D84E0E2DD8460E2BD8010E29D80E
:103CD000FE0E2BD834D02ED8430E23D8520E21D826
:103CE000020E31D82CD0E0EF2BF007EF2CF022D8C9
:103CF000FE0EDBCFE6FF3FEC2CF0E55220D0D7EFF5
:103D00002BF0E9EF2BF016D8FE0EDBCFE6FF25EC0B
:103D10002CF0E55214D0E66EDEDFE552E5520401E8
:103D20001200E66EE4DFE5521200DBCFE6FFDFDFD4
:103D3000E5521200D9CFE6FFE1CFD9FF1200E552DC
:103D4000E7CFD9FF1200EDDFFE0EEFDFFD0E95EF9E
:023D50001EF063
:0E3D520004016E0E716F3D0E726F500E736F96
:103D60003F0E746F1C0E756F400E766F1200D9CF28
:103D7000E6FFE1CFD9FF040EE1260401E151E21193
:103D800001E1E0D0360EE66EE66AFD0EDBCFE6FF1F
:103D9000FE0EDBCFE6FF000EE66E0F0EC5D90E0E4F
:103DA000E66EE66A8AD9E9CF00F0EACF01F0E9CF02
:103DB000E6FFEACFE6FF360EE66E0F0EB5D9AFD9B5
:103DC000C10E4C6E71D9CCEC18F0010A18E1C1D9C2
:103DD000D5EC18F0010A13E1C8D9D5EC18F0010AA6
:103DE00007E10F01366B376B480E386FC10E06D0F6
:103DF0000F01366B376B480E386F410E396F24CF89
:103E000000F025CF01F08B0E4A6E180E4B6E24CFBA
:103E100045F025CF46F0EFEC17F041C0DEFF42C081
:103E2000DDFF92D90001800E011408E0D9CFE9FF2F
:103E3000DACFEAFF8B0EEE26180EED220F013A5173
:103E4000DE5C006E3B51DD58016E020E00C0DBFFF0
:103E5000030E01C0DBFF89D9CCEC18F0010A1FE189
:103E600073D90F0101503B19E8AE02D03B3504D0A5
:103E70003A51005C3B5101581FE3680E2425006E47
:103E8000010E2521016E020EDB500001005C0F01C6
:103E90003A6F030EDB50000101580F0123D054D9B3
:103EA0000F013B510118E8AE02D0013404D000509C
:103EB0003A5D01503B5907E2020EDB50245D3A6F38
:103EC000030EDB500ED0020EDBCF00F0030EDBCF73
:103ED00001F0680E0026010E01220050245D3A6FA9
:103EE000015025593B6F3CCF48FF3DCF49FF3ECFA6
:103EF0004AFF3FCF4BFF3CCF44FF3DCF45FF3ECF76
:103F000046FF3FCF47FF25D999EC16F08CD8E8D86B
:103F100044C044FF45C045FF46C046FF47C047FF79
:103F200018D998EC16F07FD8E5D844C048FF45C0B2
:103F300049FF46C04AFF47C04BFF0401DF6BE06BFF
:103F4000E16BE26BD9CFE1FFE552E7CFD9FF120079
:103F5000D9CFE6FFE1CFD9FF0401E151E21155E1EC
:103F6000D3D8EECF00F0EFCF01F00F0142513A5D10
:103F7000026E3B514355036EE8500118E8AE02D083
:103F8000013404D00050025C0150035816E2BCD842
:103F9000EECF04F0EFCF05F03A514225066E3B51CB
:103FA0004321076E05500718E8AE02D0073404D04D
:103FB0000650045C0750055828E353D891D844C0F4
:103FC00000F0CCD87AD80C0E7FD84BD893D8C6D86E
:103FD00074D8100E79D81A0E0401DF27000EE023E2
:103FE000E0510F014119E8AE02D0413507D04051F0
:103FF0000401DF5D0F0141510401E05908E35DD880
:10400000100E9AD85AD80C0E97D8F36A02D0010E27
:10401000F36EF46AE552E7CFD9FF1200010E0401F6
:10402000E16FE26B120044C004F045C005F046C0E9
:1040300006F047C007F036CF49F037CF4AF038CF07
:104040004BF039CF4CF02FEC17F044C000F086D87D
:1040500044C049F045C04AF046C04BF047C04CF060
:1040600012002C0EE66E010EE66E40CFE6FF41CF49
:10407000E6FFDFC4E6FFE0C4E6FF08EC28F0F56EDB
:10408000060EE15EF55043C004F044C005F045C0A3
:1040900006F046C007F043C049F044C04AF045C0AE
:1040A0004BF046C04CF0120036CF44F037CF45F00D
:1040B00038CF46F039CF47F01200FB0EDBCFE9FFD7
:1040C000FC0EDBCFEAFF1200E926000EEA2244C014
:1040D000EEFF01C0EEFF02C0EEFF03C0EEFF1200D4
:1040E00044CF44F045CF45F046CF46F047CF47F0A8
:1040F00082EF17F048CF44F049CF45F04ACF46F061
:104100004BCF47F082EF17F0FD0EDBCFE9FFFE0E3D
:10411000DBCFEAFF240EE926000EEA221200496AEC
:104120004A6A480E4B6E1200E66EE7EC31F0F56E0F
:10413000060EE15EF5501200E926000EEA22EE6A54
:10414000EE6AEE6AEE6A1200DECF00F0DDCF01F01B
:104150001200E5DF410E4C6E54EF20F045C001F037
:1041600046C002F047C003F01200496A4A6A4B6A2F
:064170004C6A54EF20F040
:0A417600000EE96EEA6E0400C8ECCA
:1041800020F0EA2A080EEA5CD8A4BEEF20F0120064
:10419000EF6AE93EC8EF20F01200FF0EE3CF31F0E6
:1041A00031380F0B060FD8B2070F2A0FAD6E04EC93
:1041B0002FF031500F0B060FD8B2070F2A0FAD6E3C
:1041C00004EC2FF0000C1200EACF2CF0E9CF2DF018
:1041D000FF0EE3CFEAFFFE0EE3CFE9FF40A741D099
:1041E000EECFA0F0EECFA1F0EECFA2F0EECFA3F095
:1041F000EECFA4F0EECFA5F0EECFA6F0EECFA7F075
:10420000EECFA8F0EECFA9F0EECFAAF0EECFABF054
:10421000EECFACF0EECFADF0EECFAEF0EECFAFF034
:10422000EECFB0F0EECFB1F0EECFB2F0EECFB3F014
:10423000EECFB4F0EECFB5F0EECFB6F0EECFB7F0F4
:10424000EECFB8F0EECFB9F0EECFBAF0EECFBBF0D4
:10425000EECFBCF0EECFBDF0EECFBEF0EECFBFF0B4
:1042600040D0EECF80F0EECF81F0EECF82F0EECFF7
:1042700083F0EECF84F0EECF85F0EECF86F0EECF78
:1042800087F0EECF88F0EECF89F0EECF8AF0EECF58
:104290008BF0EECF8CF0EECF8DF0EECF8EF0EECF38
:1042A0008FF0EECF90F0EECF91F0EECF92F0EECF18
:1042B00093F0EECF94F0EECF95F0EECF96F0EECFF8
:1042C00097F0EECF98F0EECF99F0EECF9AF0EECFD8
:1042D0009BF0EECF9CF0EECF9DF0EECF9EF0EECFB8
:1042E0009FF02CC0EAFF2DC0E9FF120040A1120090
:1042F000EACF2CF0E9CF2DF0FF0EE3CFEAFFFE0E60
:10430000E3CFE9FF40A941D0C0C0EEFFC1C0EEFF3E
:10431000C2C0EEFFC3C0EEFFC4C0EEFFC5C0EEFFDB
:10432000C6C0EEFFC7C0EEFFC8C0EEFFC9C0EEFFBB
:10433000CAC0EEFFCBC0EEFFCCC0EEFFCDC0EEFF9B
:10434000CEC0EEFFCFC0EEFFD0C0EEFFD1C0EEFF7B
:10435000D2C0EEFFD3C0EEFFD4C0EEFFD5C0EEFF5B
:10436000D6C0EEFFD7C0EEFFD8C0EEFFD9C0EEFF3B
:10437000DAC0EEFFDBC0EEFFDCC0EEFFDDC0EEFF1B
:10438000DEC0EEFFDFC0EEFF40D0E0C0EEFFE1C0D8
:10439000EEFFE2C0EEFFE3C0EEFFE4C0EEFFE5C0DB
:1043A000EEFFE6C0EEFFE7C0EEFFE8C0EEFFE9C0BB
:1043B000EEFFEAC0EEFFEBC0EEFFECC0EEFFEDC09B
:1043C000EEFFEEC0EEFFEFC0EEFFF0C0EEFFF1C07B
:1043D000EEFFF2C0EEFFF3C0EEFFF4C0EEFFF5C05B
:1043E000EEFFF6C0EEFFF7C0EEFFF8C0EEFFF9C03B
:1043F000EEFFFAC0EEFFFBC0EEFFFCC0EEFFFDC01B
:10440000EEFFFEC0EEFFFFC0EEFF2CC0EAFF2DC0A6
:10441000E9FF1200F2B412003E500F0AD8B41200A5
:10442000FF0EE3CF32F0FE0EE3CF33F0FD0EE3CF0D
:1044300034F0FC0EE3CF35F0322A3EA08D8E332AC5
:104440003EA28F80342A3EA48F86352A3EA68F88CE
:10445000366A376A386A396A5DEC22F0322E33EFF9
:1044600022F03EA08D9E332E38EF22F03EA28F9098
:10447000342E3DEF22F03EA48F960000352E43EF00
:1044800022F03EA68F980000362E48EF22F03A9098
:104490000000372E4DEF22F03A920000382E52EFF6
:1044A00022F03A940000392E57EF22F03A967FEC32
:1044B00022F03B3E2EEF22F01200D70E3B6E0000A2
:1044C00000000000000075EC22F03B2E5FEF22F0B0
:1044D000D70E3B6E000000000000000075EC22F0DB
:1044E0003B2E6AEF22F000001200000078EF22F06D
:1044F0000000000000000000000000001200030E99
:0C4500003C6E00003C2E81EF22F0120007
:04450C00D9CFE6FF1E
:10451000E1CFD9FF0A0EE1260401D5510401CC19DF
:1045200004E10401D6510401CD1901E138D1CCC414
:10453000D5F4CDC4D6F40401355101E1B6D004015F
:10454000010ED76F02010D51DE6EDD6A0401345198
:10455000006E016A4F0E005E000E015A060E00C08A
:10456000DBFF070E01C0DBFF47D901340DE200502D
:104570000308000E015408E254D91AE1010EF36E4B
:10458000040EF3CFDBFF12D037D9D880015004E7F7
:10459000FD0E005CFF0E015807E243D909E1040E4D
:1045A000DB68050EDB6804D0040EDB6A050EDB6AEF
:1045B00045684668040EDBCF4AF0050EDBCF4BF0B2
:1045C00049EC18F044C001F0D9CFE9FFDACFEAFF97
:1045D0004350EE260150ED220AD90001800E01144D
:1045E00002E0DE6A0AD003D9013408E20050F8087C
:1045F000000E015403E2F80EDE6EDD6ADFCF0DF22D
:104600000201EDD804013551006E016A770E005E9B
:10461000000E015A080E00C0DBFF090E01C0DBFFCF
:10462000F2D801340DE200500808000E015408E2EF
:1046300001D91AE1010EF36E040EF3CFDBFF12D0A5
:10464000E2D8D880015004E7F80E005CFF0E015854
:1046500007E2F0D809E1040EDB68050EDB6804D040
:10466000040EDB6A050EDB6A040EDBCF00F0050EDC
:10467000DBCF01F0E7D80050EE260150ED22ABD899
:1046800004E6AA0E005C000E015802E2AA0E0BD04E
:10469000DFD8013401E380D00050F008000E01544F
:1046A00001E37AD0F00EB6D877D00401D82BD851D8
:1046B000050875E2D86BD70505E1D76BDE6ADD6AC0
:1046C000900E41D002010D51DE6EDD6A88D80401E2
:1046D000D951DA1109E18BD8D890015004E6F80ECF
:1046E000005C000E01580EE2D951DA112EE0DECF47
:1046F00002F0DDCF03F0033404E202500008000EA4
:10470000035423E3D951DA1102E0000E01D0010E67
:10471000D96FDA6B800B01E0DA695DD804E6F00E40
:10472000005C000E015802E3AA0E0DD08BD8170EC4
:10473000EE26000EED224FD804E6F00E005C000ECF
:10474000015828E3F00E66D825D0D951DA1110E1CE
:104750003E0EDE26000EDD224AD8D890015004E637
:10476000F80E005C000E015815E3F80EDE6E11D055
:10477000D9CFE9FFDACFEAFF3E0EEE5E000EED5A2A
:1047800036D8013404E200500008000E015402E360
:10479000DE6ADD6ADFCF0DF2020EDBCF0EF2D9CF7B
:1047A000E1FFE552E7CFD9FF1200DBCF46F000C0B2
:1047B0004AF001C04BF0EFEC17F0040E45C0DBFFF0
:1047C000050E46C0DBFFD950040FE96EDACFEAFFD1
:1047D000EE50ED1012003CD8D890015012000E514E
:1047E000E66E30D8E552E750EE6EED6A1200DECF8D
:1047F00000F0DDCF01F01200060EDBCF00F0070E57
:10480000DBCF01F01200080EDBCF00F0090EDBCF8A
:1048100001F01200F36E020EF3CFDBFF030EDB6A32
:104820001200030E006E016A060EDBCF45F0070E84
:10483000D5EF23F0080E006E016ADBCF45F0090EBC
:10484000D5EF23F0D950020FE96EDACFEAFF12005C
:0E485000020EDBCF00F0030EDBCF01F01200F2
:02485E007BD904
:10486000E652C80E0101F06FF16B010EF46FF56FA7
:10487000040EF26FF36BDF6AF451DF5C08E2DF5085
:1048800073D9EE6AEE6AEE6AEE6ADF2AF5D7FC6B40
:10489000FD6BFE6B010EC26EC16A860EC06E9F9CE0
:1048A0009E9C9D8CF0C1E6FFF1C1E6FF0BD8E5525E
:1048B000E552E55255D14FD9E65246D89D9CC26A81
:1048C000E5524ED148D9FD0EDBCF45F0FE0EDBCFD1
:1048D00046F0455002E1190E461828E0800E4518B2
:1048E00002E10C0E46181EE0400E451802E1060ECD
:1048F000461816E0200E451802E1030E46180EE099
:10490000900E451802E1010E461806E0C80E451843
:1049100011E146500FE10ED0520E09D0520E03D0D5
:10492000510E05D0510ECA6E450E07D0500ECA6EFC
:104930008C0E03D06A0ECA6EDD0ECB6ECC6A9F92CF
:104940009E929D82CA840CD19D92CA94120003D972
:10495000020EE126FE0EDBCF00F00101F451D880FB
:1049600000540CE39D9CFE0EDB04E96EEA6A10D94C
:10497000EECFDEFFEDCFDDFF9D8C02D0DE6ADD6A7B
:10498000DECF00F0DDCF01F000C0F3FF01C0F4FF87
:10499000D9CFE1FFE5D0DFD8FD0EDBCF00F0FE0E72
:1049A000DBCF01F0026A036A880E486E130E496E6F
:1049B0004A6A4B6A00C043F001C044F002C045F0AF
:1049C00003C046F00CEC34F03FC000F040C001F0F2
:1049D00041C002F042C003F0486A080E496E4A6ABC
:1049E0004B6A3FC043F040C044F041C045F042C074
:1049F00046F015EC18F043C000F044C001F045C08B
:104A000002F046C003F043C0F3FF44C0F4FFA8D057
:104A1000A2D8E6529D9CFFC2DFFF9D8CDF50E5527D
:104A20009FD09D9C0201FF6B9D8C1200C2821200E0
:104A300092D8050EE126C450DE6EDD6AD9CFE9FFBB
:104A4000DACFEAFFEE50ED6EEF6AC350DE26000EBD
:104A5000DD22DECF00F0DDCF01F0026A036A010142
:104A6000FE5182D80050EE260150EE220250EE2276
:104A70000350EE22FE2BF451FE5D04E3FE6BFC2B93
:104A8000000EFD23020EFEC1DBFFDB50040D020E03
:104A9000F3CFDBFFDB80DB50C26EF251FC5DF351E4
:104AA000FD594AE3030EDB6A040EDB6A67D801AEE8
:104AB00002D0D89003D0005C000E015820E23FD80D
:104AC0000101F5511F0BEECF00F0EECF01F0EECF5C
:104AD00002F0EECF03F007E0D89003320232013249
:104AE0000032E806F9E15CD853D800C0EEFF01C0FF
:104AF000EDFF030EDB2A040ED9E3DB2AD7D7030E22
:104B0000DB6A040EDB6A3AD801AE02D0D89003D03B
:104B1000005C000E01580BE212D8EE6AEE6AEE6AF3
:104B2000EE6A030EDB2A040EEEE3DB2AECD7020169
:104B3000FF2B0101FC6BFD6BD9CFE1FF11D030D809
:104B4000D890E936EA36D890E936EA36F60EE92604
:104B5000010EEA221200D9CFE6FFE1CFD9FF120001
:104B6000E552E7CFD9FF1200040DF3CFE9FFF4CFF0
:104B7000EAFFF60EE926010EEA221200030EDBCF51
:104B800000F0040EDBCF01F00101F451000112002E
:104B9000D890E936EA36FA0EE926010EEA2212002A
:0E4BA000030EDBCFE9FF040EDBCFEAFF1200AD
:024BAE00040100
:104BB000CA0E6B6F4B0E6C6FB20E6D6F4C0E6E6F3C
:104BC0009A0E6F6F4D0E706F1200D9CFE6FFE1CFD6
:104BD000D9FF040EE1260401E551E61164E0340E2C
:104BE000E66EE66AFD0EDBCFE6FFFE0EDBCFE6FFEC
:104BF000410EE66E020E2CD9080EE66EE66A51D919
:104C0000E9CF00F0EACF01F0E9CFE6FFEACFE6FF17
:104C1000750EE66E020E1CD90201800E66153EE18D
:104C200065C200F066C201F08B0E4A6E180E4B6E24
:104C300065C245F066C246F0EFEC17F041C0DEFFFA
:104C400042C0DDFFDECF00F0DDCF01F00001800EBD
:104C5000011408E0D9CFE9FFDACFEAFF8B0EEE2688
:104C6000180EED2202017951DE5C006E7A51DD589A
:104C7000016E020E00C0DBFF030E01C0DBFF020E5F
:104C8000DBCF00F0030EDBCF01F012D9240E26D9C2
:104C90000050EE5C796F0150EE587A6F0401E36BBF
:104CA000E46BE56BE66BD9CFE1FFE552E7CFD9FFC7
:104CB0001200D9CFE6FFE1CFD9FF0401E551E6119B
:104CC00063E1F40EE66E010EE66E7BC2E6FF7CC287
:104CD000E6FFE3C4E6FFE4C4E6FF08EC28F0F56E67
:104CE000060EE15EF55043C004F044C005F045C037
:104CF00006F046C007F043C049F044C04AF045C042
:104D00004BF046C04CF075C244F076C245F077C215
:104D100046F078C247F082EC17F070D8100EDED85B
:104D200044C0EEFFA3D8BDD80C0ED8D800C0EEFF0B
:104D30009DD80201800E7A1504E134D8C0D832D84B
:104D400003D066D8BCD864D859D80C0E66D898EC75
:104D500016F075D81A0E0401E327000EE423E4517F
:104D600002017C19E8AE02D07C3507D07B510401EA
:104D7000E35D02017C510401E45908E392D8100E6E
:104D80006FD88FD80C0E6CD8F36A02D0010EF36E78
:104D9000F46AE552E7CFD9FF1200010E0401E56F76
:104DA000E66B120085D8240E68D879C245F07AC225
:104DB00046F06AEC16F044C00EF045C00FF046C055
:104DC00010F047C011F082D844C00AF045C00BF083
:104DD00046C00CF047C00DF044C049F045C04AF051
:104DE00046C04BF047C04CF004C044F005C045F04D
:104DF00006C046F007C047F098EF16F044C000F038
:104E000045C001F046C002F047C003F051EF27F063
:104E10004FD8220E32D866EF27F060D8EECF44F09C
:104E2000EECF45F0EECF46F0EFCF47F000C049F0AF
:104E300001C04AF002C04BF003C04CF0120047C062
:104E4000EDFF46C0EDFF45C0EDFF44C0EFFF12008F
:104E5000E66EE7EC31F0F56E060EE15EF5501200FD
:104E60003DD8EE6AEE6AEE6AEE6A120001C0EEFF0D
:104E700002C0EEFF03C0EEFF120030D8EECF08F004
:104E8000EFCF09F008C045F009C046F06AEC16F013
:104E900044C004F045C005F046C006F047C007F026
:104EA0001200FB0EDBCFE9FFFC0EDBCFEAFF1200A6
:104EB000FD0EDBCFE9FFFE0EDBCFEAFF12009EDF27
:104EC000100EABDF99EC16F01FEF27F0496A4A6A23
:104ED000200E4B6E410E4C6E2FEF17F0E926000EA0
:044EE000EA221200B0
:0C4EE400D9CFE6FFE1CFD9FF080EE12690
:104EF000D950F90FE96EFF0EDA20EA6E040EEECFFC
:104F0000DBFF050EEECFDBFF060EEECFDBFF070E5D
:104F1000EECFDBFFF50EDBCF00F0F60EDBCF01F0BE
:104F2000F70EDBCF02F0F80EDBCF03F0F10EDBCF94
:104F300004F0F20EDBCF05F0F30EDBCF06F0F40E3B
:104F4000DBCF07F004C049F005C04AF006C04BF0C3
:104F500007C04CF03CD998EC16F044C0DEFF45C0C9
:104F6000DEFF46C0DEFF47C0DDFFDD52DD520FD958
:104F7000010EEE1811E1ED500FE1E8D8040EC7D88C
:104F8000DFCFA5F4010EDBCFA6F4020EDBCFA7F432
:104F9000030EDBCFA8F429D0FAD8020EEE1811E1E7
:104FA000ED500FE1D3D8040EB2D8DFCFA1F4010E3B
:104FB000DBCFA2F4020EDBCFA3F4030EDBCFA4F40D
:104FC00014D0E5D8030EEE1810E1ED500EE1BED876
:104FD000C80E9DD8DFCFA9F4010EDBCFAAF4020ED4
:104FE000DBCFABF4030EDBCFACF4040EDBCF00F071
:104FF000050EDBCF01F0060EDBCF02F0070EDBCF94
:1050000003F0D3D8D9CFE1FFD9D0D9CFE6FFD6D09E
:10501000D9CFE6FFE1CFD9FFC1D8F90EDBCF02F03F
:10502000FA0EDBCF03F001500318E8AE02D00334D0
:1050300001D0C8D810E2FD0EDBCF45F0FE0EDBCF6D
:1050400046F09AD844C008F045C009F046C00AF0BE
:1050500047C00BF042D0A2D8FB0EDBCF04F0FC0E11
:10506000DBCF05F0F90EDB50045C026EFA0EDB506C
:105070000558036E01500318E8AE02D0033401D086
:10508000A1D807E2006A016A800E026E3F0E036E2D
:105090003CD084D8B7D801500318E8AE02D003340E
:1050A00001D090D82EE2FB0EDBCF0AF0FC0EDBCF56
:1050B0000BF0FD0EDB500A5C086EFE0EDB500B5849
:1050C000096E08C045F0466E57D844C00CF045C084
:1050D0000DF046C00EF047C00FF082D804C044F077
:1050E00005C045F006C046F007C047F02FEC17F0AA
:1050F00044C000F045C001F046C002F047C003F0D4
:1051000004D0006A016A026A036A4FD857D04B6E16
:10511000420E4C6E08C044F009C045F00AC046F08B
:105120000BC047F02FEC17F064D85AD850D899EC40
:1051300016F0040E44C0DBFF050E45C0DBFF060E73
:1051400046C0DBFF070E47C0DBFF1200F90EDBCFC6
:1051500000F0FA0EDBCF01F055D8D9CFE9FFDACF56
:10516000EAFFEECF08F0EECF09F0EECF0AF0EFCF76
:105170000BF0496A4A6A12006AEC16F03AD8F90E46
:10518000DBCF45F0FA0EDBCF46F06AEF16F0D950D0
:10519000FD0FE96EFF0EDA20EA6E1200FD0EDBCF86
:1051A00000F0FE0EDBCF01F0120000C043F001C0A2
:1051B00044F002C045F003C046F01200E552E7CFCC
:1051C000D9FF12000250005C03500158120000C0C9
:1051D00044F001C045F002C046F003C047F01200A1
:1051E00044C049F045C04AF046C04BF047C04CF0BF
:1051F000120044C004F045C005F046C006F047C0A8
:1052000007F01200FB0EDBCF02F0FC0EDBCF03F049
:0252100012008A
:0E521200D8CFE4FFE0CFE4FFE46EDACFE4FF94
:10522000E2CFDAFFE9CFE4FFEACFE4FFF3CFE4FF18
:10523000F4CFE4FF00EE3FF0140EE80403E3EECFFA
:10524000E4FFFBD700EE00F0280EE80403E3EECF06
:10525000E4FFFBD7E652D9CFE6FFE1CFD9FF020E3C
:10526000E126F250040B07E0F250200B04E0F29428
:1052700046EC31F0AFD09E50010B07E09D50010B82
:1052800004E09E9047EC31F0A5D09E50020B07E061
:105290009D50020B04E09E9216EC25F09BD0A1508D
:1052A000020B07E0A050020B04E0A19248EC31F0A1
:1052B00091D0A450080B07E0A350080B04E0A4967B
:1052C00049EC31F087D0F050020B07E0F050100BA2
:1052D00004E0F09250EC31F07DD0F050040B07E088
:1052E000F050200B04E0F09458EC31F073D0F25001
:1052F000010B43E0F250080B40E08150DF6EF2906A
:10530000DF500101FF19E76E010EE7CFDBFFDFCFB2
:10531000FFF1DBA80AD0100EDF1402E0010E01D06D
:10532000000EE66E60EC31F0E552010EDBAA0AD009
:10533000200EDF1402E0010E01D0000EE66E6DECCF
:1053400031F0E552010EDBAC0AD0400EDF1402E072
:10535000010E01D0000EE66E6EEC31F0E552010E4A
:10536000DBAE38D0800EDF1402E0010E01D0000E5B
:10537000E66E6FEC31F0E5522DD09E50400B07E009
:105380009D50400B04E09E9C18EC25F023D09E50CD
:10539000200B06E09D50200B03E059EC2CF01AD0B6
:1053A000A450200B06E0A350200B03E078EC2CF077
:1053B00011D09E50100B06E09D50100B03E097ECAF
:1053C0002CF008D0A450100B05E0A350100B02E005
:1053D000AFEC2CF0D9CFE1FFE552E7CFD9FFE55292
:1053E00000EE27F0280EE80403E3E5CFEDFFFBD73E
:1053F00000EE52F0140EE80403E3E5CFEDFFFBD717
:10540000E5CFF4FFE5CFF3FFE5CFEAFFE5CFE9FF16
:10541000E5CFDAFFE550E5CFE0FFE5CFD8FF10009C
:1054200002017F0E0B6F0A6F096F086F076F066F1F
:10543000056F046F136F126F116F106F0F6F0E6F88
:105440000D6F0C6F8C928D928C908D908C968D96AA
:105450008C948D948C9A8D9A8C988D988C9E91902A
:105460008C9C8D9C020121AD24D0020140A1FAD771
:10547000200EE66E020EE66ECDEC13F0E552E5521C
:105480007FEC05F013C2E6FF12C2E6FF11C2E6FF91
:1054900010C2E6FF0AEC22F0E552E552E552E55271
:1054A000000EE66E020EE66EE6EC13F0E552E552F3
:1054B000D9D7120008EC25F0000904E081EC2DF0AA
:0654C00011EC25F01200C2
:0A54C6000401E20E8F6F540E906F88
:1054D000360E916F550E926F2A0E936F570E946F82
:1054E0001200D9CFE6FFE1CFD9FF0401B951BA11BB
:1054F0001EE0360EE66EE66AFD0EDBCFE6FFFE0E20
:10550000DBCFE6FFB30EE66E020EE66EE7EC31F09F
:10551000F56E060EE15EF5500401B76BB86BB96B22
:10552000BA6BBB69BC69BD6BBE6BBF6BC06BE55230
:10553000E7CFD9FF1200D9CFE6FFE1CFD9FF0E0E9A
:10554000E1260401B951BA115AE1FB0EDBCFE9FFA4
:10555000FC0EDBCFEAFF180EE926000EEA22010E50
:10556000EE6EED6ABB51BD1902E1BC51BE1901E1FD
:105570007CD0020EBD1901E1BE5125E0010EBD191E
:1055800001E1BE5106E0BD513AE1BE5138E1030EE2
:105590003AD0010EBF6FC06BDE6ADE6A900EDE6E1F
:1055A000420EDD6EDD52DD52040EDB68050EDB6857
:1055B000F00EF36E060EF3CFDBFF0A0EF36E070E4E
:1055C000F3CFDBFF25D00401355119E0B3D8EECF7E
:1055D00000F0EFCF01F0D880015004E7560E005CD8
:1055E000FF0E01580CE3A6D8EECF02F0EFCF03F088
:1055F000033407E20250AA08000E035402E2F36AE1
:105600008DD0040E0401BF6FC06B010EDE6EDD6A2B
:10561000BFC4E9FFC0C4EAFF060EEA02F3CFEAFF07
:10562000E902F3CFE9FFF450EA26650EE926040EFD
:10563000EA22EECF00F0EFCF01F0D9CFE6FFDACFCC
:10564000E6FFFD0EDBCFE6FFFE0EDBCFE6FF04D06C
:1056500001C0FAFF0050F96EFBDFE552E552E5525A
:10566000E552BDC4BBF4BEC4BCF4BFC4E9FFC0C4B2
:10567000EAFF060EEA02F3CFEAFFE902F3CFE9FF01
:10568000F450EA26650EE926040EEA22020EE92607
:10569000000EEA22EECF02F0EFCF03F0FB0EDBCFDD
:1056A000E6FFFC0EDBCFE6FFFD0EDBCFE6FFFE0ED6
:1056B000DBCFE6FF04D003C0FAFF0250F96EFBDF38
:1056C000E552E552E552E552F3CF00F0F350F41005
:1056D00023E1BFC4E9FFC0C4EAFF060EEA02F3CF2C
:1056E000EAFFE902F3CFE9FFF450EA26650EE92666
:1056F000040EEA22040EE926000EEA22EECF00F0A4
:10570000EFCF01F004D001C0FAFF0050F96EFBDFCB
:105710000401BD2B000EBE23010EF36EF46AD9CF37
:10572000E1FFE552E7CFD9FF1200010E0401B96F86
:10573000BA6B1200FD0EDBCFE9FFFE0EDBCFEAFFF6
:0A574000220EE926000EEA221200F4
:06574A00150EAF6EAC84E9
:105750009D9A9D98AC98AC9E948EAB9CAB96AB8A70
:10576000AB889F9A9D8A0401FC69FD69949CAC9C5E
:10577000AC969F989D88AC8AAB8E1200150E6F6E0A
:105780006C84A39AA3986C986C9E98846B9C6B967F
:105790006B8A6B88A59AA38A0401FC69FD699892BB
:1057A0006C9C6C96A598A3886C8A6B8E120007D9A6
:1057B000E6529D9ADDC3DFFF9D8ADF50E552FBD0A4
:1057C000FED8E652A39AE9C3DFFFA38ADF50E55271
:1057D000F2D0F5D8E6520301DA5102E0000E15D0FE
:1057E000DB51EA6A000FE96E010EEA22EFCFDFFF1C
:1057F000DD07DB2B1F0EDB179D9ADC51DB5D02E121
:10580000010EDA6F9D8AD96BDF50E552D4D0D7D81C
:10581000E6520301E65102E0000E15D0E751EA6AB4
:10582000400FE96E010EEA22EFCFDFFFE907E72B19
:105830001F0EE717A39AE851E75D02E1010EE66F3C
:10584000A38AE56BDF50E552B6D0B9D80301E05129
:10585000FDE1E351EA6A200FE96E010EEA22FE0E35
:10586000DBCFEFFFE42BE32B1F0EE3179D98E351F3
:10587000E25D02E1010EE06F9D88E16B9CD09FD854
:105880000301EC51FDE1EF51EA6A600FE96E010E90
:10589000EA22FE0EDBCFEFFFF02BEF2B1F0EEF17F0
:1058A000A398EF51EE5D02E1010EEC6FA388ED6B62
:1058B00082D00301D95102E09D9A1200DC51EA6ABC
:1058C000000FE96E010EEA22AECFEFFFABA203D0CC
:1058D000AB98AB88DE2BABB4DF2BDD2BDC2B1F0EA4
:1058E000DC17DC51DB5D02E1010ED96FDA6B1200CF
:1058F0000301E55102E0A39A1200E851EA6A400F61
:10590000E96E010EEA226ECFEFFF6BA203D06B9817
:105910006B88EA2B6BB4EB2BE92BE82B1F0EE817F7
:10592000E851E75D02E1010EE56FE66B120003014D
:10593000E15102E09D981200E251EA6A200FE96EFF
:10594000010EEA22EF50AD6EE407E22B1F0EE217C4
:10595000E351E25D02E1010EE16FE06B1200030131
:10596000ED5102E0A3981200EE51EA6A600FE96E71
:10597000010EEA22EF506D6EF007EE2B1F0EEE17B0
:10598000EF51EE5D02E1010EED6FEC6B120017D8E6
:105990000301D8510FE0D80505E1FE0EDBCFE6FF8D
:1059A00054DF07D0020ED85D05E1FE0EDBCFE6FF27
:1059B00066DFE55200D0E552E7CFD9FF1200D9CF1C
:0859C000E6FFE1CFD9FF120060
:0859C8000301F56BF66BF76BB0
:1059D000F86BFF6B1200F3C343F0F4C344F0456A65
:1059E000466A44AE02D045684668F7D8080E496E4C
:1059F0004A6A4B6A15EC18F043C000F044C001F04D
:105A0000E80E0102F3CF01F0030E0002F35001266D
:105A1000E80E0002F3CF00F0F4500126E80E4A6EC3
:105A2000030E4B6EF3CF45F001C046F0EFEC17F0DC
:105A300045C0F3FF46C0F4FF1200F5C343F0F6C3C0
:105A400044F0F7C345F0F8C346F0C7D8900E496E4E
:105A5000010E4A6E4B6A15EC18F0E80E486E030E04
:105A6000496EAED8E80E486E030E496E4A6A4B6A1C
:105A700015EF18F00301FF5108E1F96BFA6BFB6BAE
:105A8000FC6BFD6BFE6B010EFF6F12000301FF0547
:105A90001EE1FDC300F0FEC301F0026A036AF9C310
:105AA00043F0FAC344F0FBC345F0FCC346F0FDC32A
:105AB00048F0FEC349F002C04AF003C04BF0DDECF1
:105AC00034F043C0F1F344C0F2F30301FF6B120062
:105AD000F1C3F3FFF2C3F4FF1200D9CFE6FFE1CF29
:105AE000D9FFFD0EDBCFF1F3FE0EDBCFF2F3E55273
:105AF000E7CFD9FF12000301F56BF66BF76BF86B7C
:105B00001200D9CFE6FFE1CFD9FF020EE126030153
:105B1000FF0512E1010EE66EA7EC24F0E552F3500A
:105B20000301F9270001F4500301FA23000EFB23BF
:105B3000FC23FD2BFE233ED0010EE66EA7EC24F0E5
:105B4000E5520301F151F35C006EF251F45800C0CC
:105B5000DEFFDD6EDECF00F0DDCF01F0D88001503A
:105B600004E7F80E005CFF0E01580BE3DECF02F0F5
:105B7000DDCF03F003341CE202500808000E03548A
:105B800017E2DECFF3F3DDCFF4F3DECF00F0DDCFAD
:105B900001F0026A036A01AE02D002680368005095
:105BA000F5270150F6230250F7230350F82302D0C3
:105BB000F36BF46BD9CFE1FFE552E7CFD9FF1200C9
:105BC0004A6A4B6A0CEC34F03FC043F040C044F0EA
:105BD00041C045F042C046F01200740E486E050EFA
:105BE000496EEEDF050E486E496AEADF486A120028
:105BF00004010C0E896F5C0E8A6F600E8B6F5C0E59
:105C00008C6FFE0E8D6F5D0E8E6F1200D9CFE6FF8A
:105C1000E1CFD9FF0401C351C4111EE0360EE66E78
:105C2000E66AFD0EDBCFE6FFFE0EDBCFE6FFA20E3F
:105C3000E66E030EE66EE7EC31F0F56E060EE15E01
:105C4000F5500401C16BC26BC36BC46BC569C669F7
:105C5000C76BC86BC96BCA6BE552E7CFD9FF12009F
:105C6000D9CFE6FFE1CFD9FF0E0EE1260401C351E3
:105C7000C41114E1C551C71902E1C651C8195FE04A
:105C8000020EC71901E1C85127E0010EC71901E151
:105C9000C85120E0C75101E1C85102E0F36AA8D021
:105CA000010EC96FCA6BDE6ADE6A900EDE6E420EAE
:105CB000DD6EDD52DD52040EDB6A050EDB6AC40EBA
:105CC000F36E060EF3CFDBFF090EF36E070EF3CF74
:105CD000DBFF08D0040E01D0050EC96FCA6B020E9F
:105CE000DE6EDD6AC9C4E9FFCAC4EAFF060EEA0235
:105CF000F3CFEAFFE902F3CFE9FFF450EA26650E9D
:105D0000E926040EEA22EECF00F0EFCF01F0D9CF62
:105D1000E6FFDACFE6FFFD0EDBCFE6FFFE0EDBCFC0
:105D2000E6FF04D001C0FAFF0050F96EFBDFE55238
:105D3000E552E552E552C7C4C5F4C8C4C6F4C9C4A7
:105D4000E9FFCAC4EAFF060EEA02F3CFEAFFE9025E
:105D5000F3CFE9FFF450EA26650EE926040EEA22A5
:105D6000020EE926000EEA22EECF02F0EFCF03F09A
:105D7000FB0EDBCFE6FFFC0EDBCFE6FFFD0EDBCF3D
:105D8000E6FFFE0EDBCFE6FF04D003C0FAFF0250B1
:105D9000F96EFBDFE552E552E552E552F3CF00F034
:105DA000F350F41023E1C9C4E9FFCAC4EAFF060EA8
:105DB000EA02F3CFEAFFE902F3CFE9FFF450EA2663
:105DC000650EE926040EEA22040EE926000EEA22F8
:105DD000EECF00F0EFCF01F004D001C0FAFF005089
:105DE000F96EFBDF0401C72B000EC823010EF36E12
:105DF000F46AD9CFE1FFE552E7CFD9FF1200010ED7
:085E00000401C36FC46B120022
:085E08009EA8FED71200B4D8D9
:105E1000FE0EDBCFE6FFCDEC20F0E552A9D0ACD8EA
:105E20000401E150FD0FDB6FFF0EDA20DC6F010E85
:105E3000EA6ADB25E96EDC51EA22A3D8DBC4E9FF7C
:105E4000DCC4EAFF9ED894D097D80401DD6B1A0E0B
:105E5000DD5D0DE2FD0EDBCFE9FFDB2AFE0EDBCFC1
:105E6000EAFF01E3DB2A8DD80401DD2BF0D780D0D7
:105E70000401200EDB6F020EDC6F020120510401D1
:105E8000F36FF46BF551F31902E1F651F41916E0D2
:105E9000020140B50ED0F5C4E6FFCDEC20F0E5528E
:105EA000F3C4E6FFCDEC20F0E5520D0EAD6EACDF95
:105EB00002014095F3C4F5F4F4C4F6F40401F52BA3
:105EC000000EF623F63507E2F551FF08000EF655F1
:105ED00002E2F56BF66B1200150EE66E3C0EE66EF6
:105EE000ABEC34F0E552E552320EE66E6BEC35F079
:105EF000E552120041D8FE0EDBCFDEF448D03CD88C
:105F0000020EE1260F0EE66EFE0EDB507F0BFE0B3F
:105F1000FD0BE66EF10EE66E44EC34F0E552E55210
:105F2000E5520A0EE66E99EC35F0E552B0EC35F02C
:105F300007EC04F00009FCE101EC35F0ADEC35F0C4
:105F4000C450026E036E026AC35000010210006E5C
:105F500003C001F0DE6E03C0DDFFDECF00F0DDCF59
:105F600001F000C0F3FF01C0F4FFD9CFE1FF0FD073
:105F70000D0EAD6E49DF0BD0D9CFE6FFE1CFD9FFD3
:105F80001200EF50E66ECDEC20F0E5521200E55223
:065F9000E7CFD9FF12006B
:0A5F96000401F8510401CC1904E1E4
:105FA0000401F9510401CD195CE00401F72B050E41
:105FB000F75D57E3F76B0401355108E18D0E006E74
:105FC000610E5ED8E552E552E55212008A0E006E6F
:105FD000610E56D8E552E552E55202010D51006EB0
:105FE000016A7C0E005E000E015A410E63D87C0EE1
:105FF00050D86E0E026E610E35D802010E51006E41
:10600000016A900E005E000E015A190E53D8320E2E
:1060100040D8520E026E610E25D804013451006E34
:10602000016A4F0E50D8360E026E610E1BD8040165
:106030003551006E016A770E46D81A0E026E610E57
:1060400011D804013A51E66EE66AFE0E006E600E4B
:1060500042D804013B51E66EE66AE20E006E600E25
:106060003AD81200036E046A02C0E6FFE66E04C06E
:10607000E6FF40EC33F0F56E050EE15EF5501200E0
:10608000016E026A00C0E6FFE66E02C0E6FF40EF66
:1060900033F04A6E4B6AF3CF45F001C046F0EFECA7
:1060A00017F045C000F046C001F045C0E6FF46C00D
:1060B000E6FF12000102F3CF01F00002F3CF00F07F
:1060C000F45001261200005E000E015A00C0E6FFE7
:1060D00001C0E6FF1200D4DFF56E050EE15EF5505B
:0260E0001200AC
:0E60E200436F6E666964656E636520285069C1
:1060F00078656C732920203D2025750D0A0020420B
:106100006C6F622053697A652028506978656C73DA
:106110002920203D2025750D0A0054696C74204506
:1061200072726F722028506978656C732920203D47
:106130002025640D0A002050616E204572726F7236
:106140002028506978656C732920203D2025640D36
:106150000A0054696C7420416E676C652028646580
:10616000677265657329203D2025640D0A00205063
:10617000616E20416E676C65202864656772656595
:106180007329203D2025640D0A000D0A0053656126
:10619000726368696E672E2E2E0D0A00446F6E655D
:1061A0000D000D43616C63756C6174696E67204707
:1061B00079726F20426961732E2E2E004779726FBB
:1061C000202B20456E636F646572730D00436F75FD
:1061D0006E74207A65726F0D0053756D207A65724A
:1061E0006F0D00496C6C6567616C20736964650DA7
:0B61F000006D732030207774660D00F6
:0161FB0000A3
:0461FC009384F09EFA
:10620000F198F092F0889386F192F196F094F08AEA
:106210009388938A938C938EF19081CFFFF1F290C3
:10622000F2961200D66AD76AD590D592D594D586C3
:10623000D598D59AD59CF194F294F29AD59E1200F5
:10624000CE6ACF6ACD98CD9ACD96CD92CD8E9F90C5
:106250009E909D90CD901200B26AB36AB198B19AA7
:10626000B192B184B18EA292A192A092B19012008B
