:020000040000FA
:0608000035EF3AF0120092
:02080600FEFFF3
:0608080034EF15F01200B0
:02080E00C250D6
:08081000020B01E0010E1200D1
:0608180035EF2EF0120086
:02081E000F00C9
:10082000847500002903000004000000D767000061
:1008300036030000010000007C7500000803000082
:100840000800000072750000F20200000A000000BB
:100850006A750000000300000800000065750000D4
:100860001C03000005000000617500002503000066
:100870000400000051750000BC02000010000000E0
:10088000387500008E020000190000000608000004
:100890003403000002000000357500002D03000045
:1008A000030000002F750000160300000600000082
:1008B0002B750000210300000400000018750000E3
:1008C000E00700001300000009750000F3070000B6
:0408D0000100000023
:0C08D400BEEC09F0020EE126600EDE6EA4
:1008E000660EDD6E938A93889386938499829980AD
:1008F000938E938C9A849A82998699849A8A9A88FC
:1009000094809A869A8E9A9C919C02017F0E0B6F1E
:100910000A6F096F086F076F066F056F046F136F1B
:10092000126F116F106F0F6F0E6F0D6F0C6F000E47
:10093000E66EE66AE66EE66AE66EE66AE66EE66A27
:1009400096EC16F0F56E080EE15EF5500201010E10
:100950008E6F79EC2FF092EC2FF0EAEC35F00BEC87
:1009600037F02DEC37F045EC37F048EC0BF05FDB5F
:10097000E4EC09F088EC3AF00DEC0AF0DECFE6FF8B
:10098000DDCFE6FF380E006E660EEFEC09F0F56E77
:10099000050EE15EF550DBEC15F0D9CFE1FFBAEFC3
:1009A00009F007012C0ED880E055010EE15503E354
:1009B000E02B000EE1230A0EE0190AE1E15108E103
:1009C0001E0E006E660EEFEC09F0E552E552E552A0
:1009D00007013C0EE01904E1E15102E137EC32F08D
:1009E0002C0E0701E0190FE1010EE1190CE143ECB7
:1009F00032F078EC32F0180E006E660EEFEC09F073
:100A0000E552E552E552200EE66E020EE66E3BEC34
:100A100016F0E552E55207012C0EE05D010EE1599A
:100A200001E324D813C2E6FF12C2E6FF11C2E6FFBB
:100A300010C2E6FFF6EC35F008EC0AF00DEF0AF014
:100A40001BEC0BF081EC09F059D908EC0AF001011C
:100A50004C694D6948EC0BF0C2D8FEEC0AF0070176
:100A6000E22B000EE323E423E523120029EC24F01B
:100A7000D4EC21F01BEC0BF048EC0BF02FD8FEEC83
:100A80000AF0020121AB1ED037C239F094EC11F00C
:100A900004EC0BF0710E3C6E3D0E3D6E7A0EA5EC33
:100AA0000AF0800E3E6E430E75EC09F03C6A3D6A1A
:100AB000200E3E6E410E3F6EBFEC12F0B3EC13F011
:100AC00039C000F2020100938150040B01E0008361
:100AD00000978150080B01E000871200BEEC09F07E
:100AE000020EE126020122AF06D00701E66B0201E9
:100AF000008B00991BD03451006E016AD8900150D0
:100B000004E68A0E005C000E015810E33451026EB8
:100B1000036A033404E202509408000E035406E30F
:100B20000701010EE66F02010089009B80EC0BF0CB
:100B300027C2EFFFABDB26C2EFFFD6EC0AF069DB82
:100B400008EC0AF01FEC0BF0020123A907D0A5DB8B
:100B5000140EAADB010EEE6EED6A04D022A902D0BB
:100B600023EC0BF0E3EC0AF010E080EC0BF0EF501C
:100B7000DE6EDD6A29EC0BF0EE5224EC0AF0FF0E7B
:100B80004BEC0BF083DB00C0EFFF2351080B01E0BF
:100B9000010EE66EE66A2351020B01E0010EE66EDD
:100BA000E66A2DEC0BF053DBE4EC09F089DB0FEC8B
:100BB00029F0E4EC09F0020122A104D00DEC0BF0C5
:100BC000CF0E09D022A304D00DEC0BF02F0E03D0D2
:100BD0000DEC0BF07F0EEF6ED9CFE1FFCBD350ECD5
:100BE0000BF00C0E34EC0BF00C0E70EC0BF099ECDF
:100BF0000AF090DB010E53EC0BF099EC0AF011ECCB
:100C00000BF03DDB080E34EC0BF0080E70EC0BF033
:100C10009DEC0AF07FDB020E53EC0BF09DEC0AF02A
:100C200011EC0BF099EC0AF0C1EC0AF008E099EC39
:100C30000AF0EE6AEE6A7E0EEE6E430E07D099EC75
:100C40000AF0CBEC0AF003E073EC0BF0EE6E9DECD7
:100C50000AF0C1EC0AF008E09DEC0AF0EE6AEE6AD8
:100C60007E0EEE6E430E07D09DEC0AF0CBEC0AF040
:100C700003E076EC0BF0EE6E10DB0C0ED1EC0AF01C
:100C800003E073EC0BF0EE6E08DB080ED1EC0AF01B
:100C900003E076EC0BF0EE6E99EC0AF0EDEC0AF066
:100CA000E552E750EF6E9DEC0AF0EDEC0AF0EE52E3
:100CB000E552E750EF6EE3EC0AF00BE080EC0BF04E
:100CC00062DB80EC0BF000C0EFFF29EC0BF000C002
:100CD000EFFFE3DA100EE8DAEECF00F0EFCF01F02D
:100CE0000001800E011405E1EBDA0BEC2AF06CDB5D
:100CF00002D015EC0BF01FEC0BF03CD33FDB0D0EDC
:100D0000E1260701EB6BEC6BE751E91902E1E851D1
:100D1000EA1958E0E95101E0ACD0EA5101E0A9D06C
:100D2000EB6BEC6B040EDB6A050EDB6A060EDB6A0E
:100D3000070EDB6A200EF36E0B0EF3CFDBFF4E0EB9
:100D4000F36E0C0EF3CFDBFF090EDB6A0A0EDB6AD3
:100D5000DE6ADE6AF00EDE6E410EDD6EDD52DD52C1
:100D6000010EF36E080EF3CFDBFFEBC7E9FFECC714
:100D7000EAFF060EEA02F3CFEAFFE902F3CFE9FF4A
:100D8000F450EA26100EE926030EEA22EECF00F018
:100D9000EFCF01F0D9CFE6FFDACFE6FFFD0EDBCFD4
:100DA000E6FFFE0EDBCFE6FF04D001C0FAFF0050E5
:100DB000F96EFBDFE552E552E552E552E9C7E7F788
:100DC000EAC7E8F7EBC7E9FFECC7EAFF060EEA025D
:100DD000F3CFEAFFE902F3CFE9FFF450EA26100E61
:100DE000E926030EEA22020EE926000EEA22EECFE1
:100DF00002F0EFCF03F0FB0EDBCFE6FFFC0EDBCF04
:100E0000E6FFFD0EDBCFE6FFFE0EDBCFE6FF04D0F4
:100E100003C0FAFF0250F96EFBDFE552E552E552DE
:100E2000E552F3CF00F0F350F41023E1EBC7E9FFF4
:100E3000ECC7EAFF060EEA02F3CFEAFFE902F3CFBE
:100E4000E9FFF450EA26100EE926030EEA22040E0A
:100E5000E926000EEA22EECF00F0EFCF01F004D039
:100E600001C0FAFF0050F96EFBDF0701E92B000E0D
:100E7000EA23D9CFE1FF7ED250EC0BF0EE52EFCF58
:100E800005F2FDD980DA00C004F2F9D9080E6DDB55
:100E9000040E6BDB050E69DB060E67DB070E04DA5A
:100EA000EFCF02F267D26ADA040EE126010E9DDB73
:100EB000040EFAD9B6DB020E98DBB3DB5DEC0BF067
:100EC000D8DA0C0ED4DBDBD9D4DA080ED0DB7BDB2E
:100ED00026E0D5D9080EE8D9EECFDFFF010EEECF20
:100EE000DBFF020EEECFDBFF030EEECFDBFFC7D939
:100EF0000C0EDAD9E8D9C3D9080ED6D900C0EEFF56
:100F000032DABDD90C0ED0D9DFCFEEFF010EDBCF28
:100F1000EEFF020EDBCFEEFF030EDBCFEEFF010193
:100F200058517F0802E2010E01D0FF0EA5DB070138
:100F3000ED510201CA5D156ECB510701EE55BBDACA
:100F4000140EB2D9F5D9010159517F0802E2010E00
:100F500001D0FF0E91DB0701EF510201C85D156E54
:100F6000C9510701F055A7DA100E9ED9E1D9CAC2BE
:100F7000EDF7CBC2EEF7C8C2EFF7C9C2F0F722EC2B
:100F800032F036C000F037C001F079D9220E8CD98A
:100F900036C0EEFF2DDA020111510A6E0B6A900E77
:100FA0000A5E000E0B5A190E0B02F3CF0BF00A0269
:100FB000F3CF0AF0F4500B26320E3D6E3E6AF3CFAB
:100FC00038F00BC039F02CEC13F038C00AF039C0FF
:100FD0000BF0A7EC11F08FDA1C0E66D938C0EEFFCB
:100FE00007DA7C0E0201105D410DF3CF0AF07C0E92
:100FF0000B6E3E6EF3CF39F063EC3AF094EC11F0E7
:101000007ADA1A0E51D938C0EEFF01C0EDFF0201A5
:101010001051E66E34D91E0E35DB1151E66E2FD914
:10102000200E30DB4EDB65DBD9CFE1FFA3D138DB0F
:10103000040E7CDA78D923D90C0E78DA080E76DA29
:10104000140E74DA100E72DA3A0EEB6A3B0EEB6A8B
:1010500016D9360EEB6A370EEB6A11D9380EEB6AE9
:10106000390EEB6A78EC32F00AD9220EEB6A230EC5
:10107000EB6A27DB7FDA160EEB6A170EEB6AE3DA10
:101080000CD90C0E77DA080E75DA100EEB6A110E19
:10109000EB6A03D948D901D9040E6CDA180EEB6A51
:1010A000190EEB6AFAD81A0EEB6A1B0EEB6AEED831
:1010B000020E0CDB030E0ADB040EF6D8EF6AE6D84C
:1010C000050EF2D8EF6A1CDB7F0EEF6EDFD87F0EC5
:1010D000EF6E0CDBEE6E07DBEE6EA7DA7ADAEF6A04
:1010E00049D10201009F009B00950091009D00994D
:1010F00000970093120042D9FD0EDBCF02F0FE0EE6
:10110000DBCF03F0033407E202500008000E035463
:1011100002E2A1D905D09FD9006C011E000E012268
:1011200000C0F3FF01C0F4FF25D128D9040EE12649
:101130000701F151F21119E1010EF16FF26B810E0D
:10114000E66EE6687F0E72D9000EE66EE66A870EDE
:101150006DD9030E6BD9690EE66E010EE66EC5EC15
:1011600018F0F56E120EE15EF550020142512AE0D0
:101170007C0E0201105DDE6EDD6A000EE66EE66A30
:10118000DECFE6FFDDCFE6FF690EE66E010EE66E0E
:1011900042EC19F019D9020EF3CFDBFF030EF4CFA6
:1011A000DBFF4AD978DA6BD8EE5200C0EFFF44D9A2
:1011B0000026000E012263D847D900C0F3FF01C00A
:1011C000F4FF0AD00701F16BF26B59D8EE527F0E93
:1011D000EF6E55D87F0EEF6ED9CFE1FFCBD0CED8D2
:1011E000CCD9EF50010A0FE0030A07E0020A10E130
:1011F000F0D9EF6AA6D9EF6A0BD0EBD97F0EEF6E6C
:10120000A0D9020E04D0E5D9EF689BD9010EEF6E8C
:10121000B1D0B4D8020122AD04D0AFD9010EEF6E27
:1012200006D023AB04D0A9D9EF6A8BD9EF6A89D94C
:10123000EF50020803E085D9EF0408E123B503D09D
:101240009CD9010E02D099D9020EEF6E93D096D898
:10125000E150FB0F07D903E030DAEF6802D02DDA56
:10126000EF6AD950F90FFED805E009D8050E1CD851
:10127000EF6804D004D8050E17D8EF6A7BD0FD0EB6
:10128000DBCFE9FFFE0EDBCFEAFF1200F90EDBCF6A
:10129000E9FFFA0EDBCFEAFF1200FB0EDBCFE9FF1E
:1012A000FC0EDBCFEAFF1200E926000EEA22120054
:1012B000ABD97C0E3C6ED90E3D6EA00EA5EF0AF0A8
:1012C000CCD9D6EF0AF0EECF00F0EECF01F0EECFA2
:1012D00002F0EFCF03F0120000C037F001C038F089
:1012E00002C039F003C03AF012003F6E6CEC12F00D
:1012F00037C000F038C001F039C002F03AC003F046
:1013000012003C0EE66E010EE66E000EE66E010E59
:10131000E66E1200EECFE6FFEECFE6FFEECFE6FF81
:10132000EFCFE6FF1200EE6AEE6AEE6AEE6A120096
:10133000EECF37F0EECF38F0EECF39F0EFCF3AF016
:1013400000C03CF001C03DF002C03EF003C03FF0E1
:10135000D6EC11F03AC0EDFF39C0EDFF38C0EDFF1B
:1013600037C0EFFF120001C0EEFF02C0EEFF03C066
:10137000EEFF1200E552E7CFD9FF1200D9CFE6FF0A
:10138000E1CFD9FF1200EF50006E016AFF0E4BEF64
:101390000BF036C000F037C001F038C002F039C0A1
:1013A00003F0120037C00CF038C00DF039C00EF059
:1013B0003AC00FF0120037C03CF038C03DF039C0E1
:1013C0003EF03AC03FF01200F56E060EE15EF550B9
:1013D0001200EE6AEE6AFE0EEE6E420E1200016E12
:1013E000026A00C0E6FFE66E02C0E6FF2AEF38F0B0
:1013F00001C0EDFF350E026EFA0E036E8E0E046E06
:101400003C0E056E1200580EE66E010EE66E1200DE
:10141000E552E552E552E5521200000EE66E020E6C
:10142000E66E54EC16F0E552E5521200E66EE66AFE
:10143000010EE66EE66A1200020EDBCF00F0030E2C
:10144000DBCF01F07F0E120000C0EFFFDECF00F017
:10145000DDCF01F01200FD0EDBCF00F0FE0EDBCF82
:1014600001F01200E96EFF0EDA20EA6EEE50ED1088
:101470001200EECF10F0EECF11F0EECF12F0EFCF62
:1014800013F010C036F011C037F012C038F013C09E
:1014900039F0BCEC11F086DF3C6A3D6A7A0E3E6E94
:1014A000440E3F6E6CEC12F003DF700E3E6E420E87
:1014B0001CDF3FEF09F0166E15C038F0396EA5EC51
:1014C00011F037C011F038C012F039C013F03AC033
:1014D00014F071DF0CC037F00DC038F00EC039F0D9
:1014E0000FC03AF0BFEC12F0E3DE100E3E6E410E7C
:1014F000FCDE3FEF09F037C006F038C007F039C016
:1015000008F03AC009F057DF02C037F003C038F0E6
:1015100004C039F005C03AF0BFEC12F0DAEC13F079
:1015200038C000F039C001F03FEF09F0E2D83FEFDA
:1015300009F0ACDE090E54EF09F0A8DE0D0E54EFF1
:1015400009F09DDE340E54EF09F03E6E410E3F6E01
:10155000BFEC12F037C004F038C005F039C006F017
:101560003AC007F03C6A3D6A12009EDEEFCF02F2FD
:101570003FEF09F0BED84DEF09F08FDE120E54EFA9
:1015800009F0BAD87E0E3E6E430E3F6EA5DE19EC12
:1015900014F0010A1200B0D8FE0E3E6E420E3F6EED
:1015A0009AD082DEA9D83E6A3F6A95D0FB0EDBCF87
:1015B000E6FFFC0EDBCFE6FFFD0EDBCFE6FFFE0E07
:1015C000DBCFE6FF120069DE140E6EDEEE50ED108A
:1015D00012005CDE060E54EF09F075DE7DDEB3EC22
:1015E00013F03950E66E46EF09F0E66EE66A79ECE4
:1015F00026F0E552E552CDDE3FEF09F0E5DE03DFF0
:101600003BDCE552E552120037C008F038C009F063
:1016100039C00AF03AC00BF0120038DE070E54EF62
:1016200009F036C0EEFFB3EF09F030DE080E3CDE05
:101630007F0EEF6E120065DE36DC08EF0AF040DE4A
:10164000CEDDE4EF09F029DE140EEB6A150EEB6A2D
:1016500012001CDE98DE46EF09F0F90EDBCFE6FF44
:10166000FA0EDBCFE6FF12003BD84DEF09F01CDE8F
:1016700037C0EEFFB3EF09F0106E396E96EC11F043
:10168000D2EF09F011DEE552E750EE6EED6A12007E
:10169000BADE81EF09F0D8800056000E0156120024
:1016A0006DDE3FEF09F0E66EE66A04EC1AF0F56EC7
:1016B0000E0EE15EF550C9EF09F0E1DD040E54EFC6
:1016C00009F0DDDD240E32DF280E1200EDDD7F0E85
:1016D000EF6E46EF09F000DE10EC14F0010A120084
:1016E000E3DD8AEF09F025DFE9EF09F026DFE9EF16
:1016F00009F0DADD93EF09F0E6DD3C6A3D6A12009D
:06170000C5DDEE521200EF
:0A170600BFEC10F0FB0EDBCFF3FF89
:10171000DB06F35000090AE00DEC11F0FA0E78EC4C
:1017200011F0F3E1011CF1E1010E01D0000EEEEF2A
:1017300010F0BFEC10F03B0EE12402E3E168E6524A
:10174000E16E010EDB6A020EDB6AF90EDBCFF6FFFB
:10175000FA0EDBCFF7FFFB0EDBCFF8FF0800F550EA
:10176000DF6EDF5002E114EF10F0250EDF5C02E0C7
:1017700007EF10F0030EDB6A040EDB6A050EDB6A6E
:10178000060EDB6A070EDB6A27EC10F02D0EDF5C1D
:101790000CE02B0EDF5C09E0200EDF5C06E0230E80
:1017A000DF5C03E0300EDF5C1AE1DF50300A14E04A
:1017B000130A0FE0030A0AE00B0A05E0060AE4E157
:1017C000030EDB80E1D7030EDB82DED7030EDB8462
:1017D000DBD7030EDB86D8D7030EDB88D5D72A0EDE
:1017E000DF5C1BE123EC10F071EC10F010E0030E55
:1017F000DB8038683968130EDBCF3DF0140EDBCF89
:101800003EF086EC13F0040E36C0DBFF03D0130E5F
:101810005AEC10F027EC10F00BD0090EDB6AC8EC84
:1018200010F003E03CEC11F0FAD7090E5AEC10F07E
:10183000030EDBB0DB982E0EDF5C1BE127EC10F013
:101840002A0EDF5C0BE123EC10F071EC10F003E1E9
:10185000130EACEC10F027EC10F00BD0090EDB6A85
:10186000C8EC10F003E03CEC11F0FAD7090EACEC38
:1018700010F0680EDF5C07E127EC10F0680EDF5C0B
:101880001DE1030E18D0740EDF5C17E07A0EDF5CEA
:1018900014E0480EDF5C06E0540EDF5C03E05A0EF5
:1018A000DF5C02E1020E07D06C0EDF5C03E06A0E23
:1018B000DF5C04E1010EFFEC10F0C9DBDF506E0AC3
:1018C00001E181D31E0A01E192D1200A01E18FD109
:1018D0003F0A01E149D11A0A01E146D10D0A01E1AD
:1018E00043D1200A01E140D13A0A01E13DD1200A69
:1018F00001E13AD1260A01E135D10D0A01E132D1E7
:101900001A0A01E1D9D0200A4AE0300A1FE0460A4B
:101910000EE0250A01E085D3D950F90FE96EFF0EDC
:10192000DA20EA6E010EEE5E000EEE5AEE5A0DEC73
:1019300011F0250EE66E95DB03E1011C01E16BD38E
:1019400009EC11F001E26DD3DB2A6BD3080EDB6AE0
:10195000040EDB50010806E2040EDB04D1EC10F0AB
:10196000DB508BDB080EDB5009E0030EDB50010B74
:1019700005E172DB01E04FD3080EDB6A64DBEFCFD9
:10198000DFFF81EC11F003E1011C01E144D309EC1C
:1019900011F001E3DB2A60DB01E143D33CD3070E06
:1019A000DB5002080FE14DEC11F0030E14EC11F0C6
:1019B0000E0EEECFDBFF0F0EEECFDBFF100EEECFE5
:1019C000DBFF20D0F70EDBCF03F0F80EDBCF04F007
:1019D000020E035E000E045AF70E03C0DBFFF80E82
:1019E00004C0DBFF03C0E9FF04C0EAFF04EC11F010
:1019F000026A0E0E00C0DBFF0F0E01C0DBFF100EEF
:101A000002C0DBFF0E0EDBCFE6FF0F0EDBCFE6FFE3
:101A1000100EDBCFE6FFB6EC37F0E552E552E552AB
:101A2000130E37C0DBFF140E38C0DBFF060EDB5091
:101A300005E0130E48EC11F001E26ADB6CEC11F0EA
:101A400002E2130E37DB2FEC11F006E0040E48EC37
:101A500011F002E2050E2EDB030EDBB005D0FCDA3E
:101A600001E0D9D2080EDB6A090EDB6A0E0EDBCF6D
:101A7000F6FF0F0EDBCFF7FF100EDBCFF8FF0800ED
:101A8000F550DF6EDF5014E072EC11F011E281ECE2
:101A900011F003E1011C01E1BED2BBDB01E3DB2A53
:101AA000090EDB2AD9500E0FE96E000ECBDBE7D70B
:101AB000D3DA01E1B6D2AFD2C6DA110EEECFDBFF38
:101AC000120EEDCFDBFF110EDBCFE6FF120EDBCFE8
:101AD000E6FFA8EC37F0E552E552130EF3CFDBFF3B
:101AE000140EF4CFDBFF060EDB5004E0130ED0DB48
:101AF00001E20EDB6CEC11F002E2130EDBDAAFDB7D
:101B000005E0040EC5DB02E2050ED4DA030EDBB0FD
:101B100005D0A2DA01E07FD2080EDB6A090EDB6A8B
:101B2000110EDBCFE9FF120EDBCFEAFFEFCFDFFFB5
:101B3000DF5014E0D7DB12E2E4DB03E1011C01E13A
:101B40006AD267DB01E3DB2A090EDB2A110EDB2AEE
:101B5000DBCFE9FF120EE8E3DB2AE6D77DDA01E10D
:101B600060D259D2030EDB8E070EDB0410E195DB49
:101B7000040E5ADB0A0EEECFDBFF0B0EEECFDBFFBF
:101B80000C0EEECFDBFF0D0EEECFDBFF6CD0070EA1
:101B9000DB5003082CE1030EDBAE0DD0B2DA020EEF
:101BA00076DAEFCF00F0016A026A036A00AE39D03C
:101BB0000168026835D0F70EDBCF01F0F80EDBCFFD
:101BC00002F0020E015E000E025AF70E01C0DBFFAA
:101BD000F80E02C0DBFF01C0E9FF02C0EAFFEFCF51
:101BE00000F00A0E00C0DBFF0B0EDB6A38D0070ED8
:101BF000DB50020809E1030EDBAE04D059DB02AE74
:101C000010D00ED055DB0DD0030EDBAE12D079DA3A
:101C1000020E3DDAF9DA026A036A01AE02D0026806
:101C20000368E2DA0C0E02C0DBFF0D0E03C0DBFF1F
:101C30001AD0F70EDBCF02F0F80EDBCF03F0020E66
:101C4000025E000E035AF70E02C0DBFFF80E03C05F
:101C5000DBFF02C0E9FF03C0EAFFD6DAC5DA0C0EEB
:101C6000DB6A0D0EDB6A060EDB5005E1010EF36E3A
:101C7000050EF3CFDBFF150EDB6A160EDB6AD950BB
:101C8000370F006E000EDA20016E390E00C0DBFF48
:101C90003A0E01C0DBFF380EDB6A080EDB6A0A0E63
:101CA000AEDADF50780A12E0200A10E0280A0CE0D1
:101CB000200A0AE03F0A06E00D0A02E0200A08E1D5
:101CC000020E05D0080E03D0080EDF26100E97DA9C
:101CD000030EDBBE02D0DB92DB94DB50800B26E0F0
:101CE0008ADA030EEB50000AE8AE02D0D89008D092
:101CF000000EEE5C000EEE58000EEE58000EEE5890
:101D000015E211DA3B683C683D683E68B6EC38F095
:101D10000A0E32C0DBFF0B0E33C0DBFF0C0E34C0EB
:101D2000DBFF0D0E35C0DBFF2D0E08D0030EDBA24E
:101D300002D02B0E03D0DBA408D0200EF36E170EBA
:101D4000F3CFDBFF150EDB2A02D0170EDB6A050E80
:101D5000DB5003E1B5D901E189D0F80E006E740EB5
:101D6000016E000E026E070EDBCF03F0046A056AF7
:101D7000066A03C03BF004C03CF005C03DF006C05D
:101D80003EF0D1D9B7EC39F000503224F36E015057
:101D90003320F46E02503420F86EF4CFF7FFF3CF07
:101DA000F6FF0800090EF5CFDBFF580EDF5C0FE1F0
:101DB000610EF36E090E79D90AE3200E006E090E4A
:101DC000DBCFE7FF0050E75E090EE7CFDBFF070E32
:101DD000DBCF00F0016A026A036A0DDA00C03BF053
:101DE00001C03CF002C03DF003C03EF0EECF36F043
:101DF000EECF37F0EECF38F0EFCF39F0B7EC39F067
:101E000039C0EDFF38C0EDFF37C0EDFF36C0EFFF42
:101E1000390EDBCFE9FFDB063A0EDBCFEAFF01E24A
:101E2000DB06090EDBCFEFFF150EDB2A49D995E162
:101E3000030EDBA61DD06F0EDF5C06E1BFD918E3F1
:101E4000150EDB2859DA14D0780EDF5C09E0580E45
:101E5000DF5C06E0620EDF5C03E0420EDF5C08E15F
:101E6000020EF36E160EF3CFDBFF02D0150EDB6A07
:101E7000030EDB50100B0EE0040EDBCF00F0050E5E
:101E8000DB50D880005406E2060EDB5003E1040E5E
:101E9000DB5032DA93D90AE2050EDBCFE7FF150EED
:101EA000DB50E75E050EE7CFDBFF02D0050EDB6AF5
:101EB000040EDBCF00F0160E43D9D880005414E294
:101EC000160EDBCFE6FF150EDBCFE6FF040EDBCFF1
:101ED000E6FF050EDB50E552E75CE552D880E7549B
:101EE000E552D880E7545DD9030EDB50010B0BE1BE
:101EF000080EDB5008E0B0D801E08DD0080EDB50B2
:101F0000BCD8080EDB6A170EDB5007E086D9170E27
:101F1000EFD903E1011C01E17ED0160EDB5016E083
:101F20007CD9300EE66E9DD802E1011C74E075D9B3
:101F3000DFCFE6FF74EC38F0E552E552E552F4CF1E
:101F400001F00001F31C02E1011C65E0050EDBCF8E
:101F500000F0160EDB50D880005409E2050EDBCFEE
:101F6000E7FF160EDB50E75E050EE7CFDBFF300E16
:101F7000E66E050EC9D94FE1390EDB2ADBCFE9FF4A
:101F80003A0E01E3DB2ADBCFEAFF090EEFCFDBFFDE
:101F9000DB500EE042D9090EABD902E1011C3BE057
:101FA000390EDB2ADBCFE9FF3A0EEDE3DB2AEBD774
:101FB00053D831E1160EDBCFE6FF080EC1D8E5524B
:101FC000E7245BD82ED0070EDB50030A1CE0010A81
:101FD00014E0030A07E079D9DBCFEEFF020EDBCF76
:101FE000EDFF1FD0F3D8056A03AE02D00468056880
:101FF0002AD8BAD805C0EEFF14D0E8D803BE0468CA
:1020000022D8B2D80ED061D9DBCFEFFF0AD079D970
:1020100005E1011C03E1F368F46810D0FAD801E38C
:10202000DB2A77D9AEEF0BF0010EDBCF00F0020E0A
:10203000DBCF01F000C0F3FF01C0F4FFD9CFE1FF17
:10204000DACFE2FFCBD029D9020E14EF11F061D91B
:102050000800F550DF6E1200200EE66E080E84EFC9
:1020600011F074EC38F0E552E552E552F3CF00F090
:10207000F4CF01F00001F31C1200006E016AD95088
:10208000010F4DD90050EE260150ED221200045EE2
:10209000000E055AF70E04C0DBFFF80E05C0DBFF8B
:1020A00004C0E9FF05C0EAFF1200DBCFF4FFF350E4
:1020B000F45C1200DB50E76E040EE7CFDBFF12008A
:1020C0000A0EDBCF00F00B0EDBCF01F00C0EDBCFE6
:1020D00002F00D0EDBCF03F00050011002100310D0
:1020E0001200130EEECFDBFF140EEDCFDBFF130E4D
:1020F000DBCF00F0140EDBCF01F00001800E0114E5
:102100001200F70EDBCF04F0F80EDBCF05F0120063
:10211000050EDB50E66ED950130F01D9E552E7509A
:10212000EE6EED6A12000A0EDBCF36F00B0EDBCF3F
:1021300037F00C0EDBCF38F00D0EDBCF39F012008C
:10214000DBCFE6FF150EDBCFE6FF050EDB50E552D9
:10215000E724E552E7241200DB50CED8010EF36EDF
:10216000060EF3CFDBFF1200EE50EFCFEAFFE96E71
:1021700002C0EEFF03C0EEFF04C0EEFF1200D9CF95
:10218000E6FFDACFE6FFE1CFD9FFE2CFDAFF1200B8
:10219000DFCFE6FFE66A23EC3AF0E552E552F35072
:1021A0001200E76E080EE7CFDBFF1200EECF00F063
:1021B000EECF01F0EFCF02F0036A1200050EDBCF85
:1021C00000F0150EDB50D88000541200010EDBCF5A
:1021D00002F0020EDBCF03F0046A1200E552E5CFF5
:1021E000DAFFE7CFD9FF12000A0E00C0DBFF0B0EAB
:1021F00001C0DBFF1200D9500A0F8FEF11F0F36E10
:10220000070EF3CFDBFF1200EECF00F0EFCF01F0AF
:102210001200010EDB2A020E1200FC0EDBCFE6FFDD
:10222000FD0EDBCFE6FF1200005E000E015AF70E36
:1022300000C0DBFFF80E01C0DBFF00C0E9FF01C0FA
:10224000EAFF1200DA20EA6EEF2AEECFF6FF000E68
:10225000EF22EECFF7FFEF22EECFF8FF1200040ED1
:10226000DBCFE6FF130EDB50E552E75C9ADFDB5075
:1022700004DF060EDB501200090EDB500A0DF3508E
:10228000DF24D00FE76E090EE7CFDBFF27EF10F05A
:10229000DB50F36E050E55EF10F0F70EDBCF00F0BC
:1022A000F80EDBCF01F01200DFCFE6FF31EF10F0C8
:1022B00028DF030EECDED6EF10F083EC0BF0E552D6
:1022C000E552E552E55200091200BDDEEE50EFCFB7
:1022D000EAFFE96E010E1200130EDB50F36E040EDE
:1022E00055EF10F0040EDB50F36E090E55EF10F0B1
:1022F000DBCFE6FF31EF10F0E76E050EE7CFDBFF37
:1023000012008BDF54EF11F0DBCFE6FF86DF5DEFCD
:1023100011F0D950F90FE96EFF0E22EF11F0E96EBE
:08232000000EDA20EA6E120043
:08232800419E05D0419E39AE33
:1023300002D0396C418E39C033F0326A456A446A42
:10234000860E346E356A93EF14F0419E08D0419E9C
:1023500039AE05D0386C391EE86A3922418E39C051
:1023600033F038C032F0456A446A8E0E346E356AF6
:1023700093EF14F0419E0CD0419E39AE09D0366CDB
:10238000371E381E391EE86A372238223922418E1C
:1023900039C033F038C032F037C045F036C044F0B1
:1023A0009E0E346E356A93EF14F03F7E416ACFEC97
:1023B00014F0E7EC14F041B677EF14F041A20AD024
:1023C00041AA03D041BE77EF14F041A483EF14F08B
:1023D00080EF14F041AA05D041AC83EF14F080EFF8
:1023E00014F041A00AD041A808D041BE04D041A4B5
:1023F00002D08CEF14F090EF14F0446A356A3F502D
:102400003A5C436E10E337C045F038C032F039C053
:1024100033F03AC042F03CC037F03DC038F03EC027
:1024200039F0413A09D03CC045F03DC032F03EC0E1
:1024300033F03FC042F0436C419E41BC418E42C0EC
:1024400034F041B0BFEF14F01A0E4360BFEF14F048
:10245000346A3A6A41A408D0376C381E391E3A1ED5
:10246000E86A382239223A2241AC08D0456C321E43
:10247000331E341EE86A322233223422366A435233
:1024800007E03A343932383237323632432EF9D710
:102490003750452638503222395033223A503422B0
:1024A00036C044F0419E34AE0BD0446C451E321E03
:1024B000331E341EE86A4522322233223422418EF2
:1024C00034A006D0D8803332323245324432422AE8
:1024D00042C034F093EF14F0416ACFEC14F0E7EC13
:1024E00014F041B677EF14F041A205D041BA77EF6E
:1024F00014F07EEF14F041BA8AEF14F041A005D039
:1025000041B877EF14F08AEF14F041B87EEF14F081
:10251000356A7F0E3A24346EE86A35223F50345EC5
:10252000E86A355A1A0E426E3A6A446A456A326A55
:10253000336A3C50375E3D50385A3E50395A000E8F
:102540003A5A09E73C5037263D5038223E5039224E
:10255000000E3A2201D0448AD890373638363936C0
:102560003A36D8904436453632363336422EE1D7A5
:10257000395038103710D8A4448A93EF14F0416AC8
:10258000CFEC14F0E7EC14F041B677EF14F041A271
:1025900005D041B877EF14F07EEF14F041AA05D0D2
:1025A00041B077EF14F07EEF14F041B002D041A8B3
:1025B00002D08AEF14F0356A3F503A24346EE86A4C
:1025C00035227E0E345EE86A355A446A456A326ABC
:1025D000336A3E503902F4CF33F0F3CF32F03D503E
:1025E0003902F3504526F4503222000E33223E5079
:1025F0003802F3504526F4503222000E33223C506C
:102600003902F3504426F4504522000E3222332280
:102610003D503802F3504426F4504522000E322239
:1026200033223E503702F3504426F4504522000E28
:10263000322233223C503802F4504426000E452208
:10264000322233223D503702F4504426000E4522F8
:102650003222332293EF14F0406A3EAE35EF13F08E
:102660003D6C3E1EE86A3E22401E39AE3DEF13F03F
:10267000386C391EE86A3922401EFAEC39F039BE4E
:102680004DEF13F040AE000C386C391EE86A392269
:10269000346C351EE86A3522000C40BE44EF13F05E
:1026A0004188FF0C406AE86A3EAE5FEF13F03B6C76
:1026B0003C1E3D1E3E1E3C223D223E22401E39AEA7
:1026C0006AEF13F0366C371E381E391E3722382257
:1026D0003922401EB7EC39F039BE81EF13F040AE1D
:1026E000000C366C371E381E391EE86A3722382235
:1026F0003922326C331E341E351E332234223522E9
:10270000000C40BE71EF13F04188FF0C39C045F05A
:1027100038C044F038503D02F4CF37F0F3CF36F0F4
:1027200039503E02F4CF39F0F3CF38F03D02F35088
:102730003726F4503822E86A392244503E02F350DA
:102740003726F4503822E86A39223EAEACEF13F057
:102750004450385E4550395A45AE000C3D50385E05
:102760003E50395A000C416ACFEC14F041B6BDEF2F
:1027700013F041A20AD041B403D07F0E396E19D0B4
:10278000800E396E16D0396A14D041B0FCD7870E4E
:102790003A60F1D77E0E3A64F6D7860E3A5C04E0D2
:1027A000D89039323A2AF9D741A403D0396C39AEDE
:1027B000EAD71200416ACFEC14F041B6E4EF13F00F
:1027C00041A20ED041B405D07F0E396EFF0E386E97
:1027D0001FD0800E396E386A1BD0396A386A18D01B
:1027E00041B0FBD78F0E3A60EDD77E0E3A64F5D735
:1027F0008E0E3A5C05E0D890393238323A2AF8D752
:1028000041A406D0386C391EE86A392239AEE5D7C2
:10281000120022EC14F041B6000C41B0010C000C87
:1028200022EC14F041B6000C41B0000C41B4000C95
:10283000010C22EC14F041B6000C41B0000C41A494
:10284000000C010C416ACFEC14F0E7EC14F041B637
:10285000120041AE08D041A004D041A802D041806E
:102860001200419012003F503A5C0BE13E50395C3F
:1028700008E13D50385C05E13C50375C02E14180A5
:102880001200D8A002D0418E10D03A503FC03AF08A
:102890003F6E39503EC039F03E6E38503DC038F082
:1028A0003D6E37503CC037F03C6E3F503A5C10E014
:1028B000FF0F09E0419041B403D041AE41841200C2
:1028C00041AE419412003F2AD8903E323D323C3214
:1028D0003C50375E3D50385A3E50395A39BEEAD7DF
:1028E000D8903736383639363A2EF8D7C8D77F0ED3
:1028F0003A6EFF0E396E386E376E12007F0E41BE93
:10290000FF0E3A6E02D07F0E3A6E800E396E386A34
:10291000376AF3D741AE04D0800E3A6E396AF7D7E2
:102920003A6A396AF4D73350321045104410F8E04F
:1029300035BEF0D733BE0CD034503510EBE0D89014
:1029400044364536323633363406D8A03506F2D70B
:102950003550D4E13428D2E044AE11D07F0E441477
:1029600002E145A00CD0452AE86A3222332207E36F
:10297000D880333232324532342A3428BFE03450E2
:10298000C9E045C037F032C038F03334396E3430E6
:102990003A6E39323A9E41BE3A8E7DEF14F03936A6
:1029A0003A3602E34184417E06E141803A6A396A5F
:1029B000386A376A12003A2803E0D88039321200A8
:1029C000D890393202E141821200418612003E362F
:1029D0003F3602E3418C417E06E141883F6A3E6A10
:1029E0003D6A3C6A12003F2803E0D8803E32120064
:1029F000D8903E32EAE1418A1200416ACFEC14F0ED
:102A000041B607EF15F041A20FD041B407D07F0EB9
:102A1000396EFF0E386E376E366E25D0800E396EE9
:102A200001D0396A000EF6D741B0FBD7366A9F0E47
:102A30003A60EBD77E0E3A64F4D79E0E3A5C07E01C
:102A4000D89039323832373236323A2AF6D741A462
:102A50000AD0366C371E381E391EE86A37223822F3
:082A6000392239AEDED7120065
:082A6800DACFE4FFE2CFDAFF50
:102A7000E9CFE4FFEACFE4FFE652F2A202D0A0D809
:102A800002D09EB6CCD8E552E5CFEAFFE5CFE9FF0C
:102A9000E5CFDAFF1100E66A010EE66E050EE66E7E
:102AA000EEEC38F0E552E552E5521200070EB46E36
:102AB000000E886E876E866E856E846E836E826E63
:102AC000816E806E916E906E8F6E8E6E8D6E8C6E3E
:102AD0008B6E8A6E896E2F0E926E93689C0E946E2A
:102AE000956A966A9768040E986E0E0E9A6E9968AB
:102AF000C16AF19EB0989C8EA26A9F6AA06A9D6A84
:102B0000A36AA56AC8DF9F86D08E9E969D86938213
:102B1000F06AF288F09EF098F192F09AF16AF28CE5
:102B2000F28E1200D9CFE6FFE1CFD9FFE652BEDF29
:102B30000201409740990201040EE66F020EE76F12
:102B4000DF6A100EDF5C0AE2DF50EA6AE625E96E12
:102B5000E751EA227F0EEF6EDF2AF3D702011D6BE9
:102B6000010E1E6FC20E1F6F020140850201226B13
:102B7000236B0201006B026B036B010ED56E320EEC
:102B8000D76ECF0ED66ED59E000EE66E020EE66EA6
:102B90008BD8E552E55202014093000EE66E020E1C
:102BA000E66E82D8E552E55202014093E552E552C5
:102BB000E7CFD9FF12008282808894929298120007
:102BC000F2920201200EE26F9F86020140A906D018
:102BD0000201E00EDF6F000EE06F05D00201C00EB3
:102BE000DF6F000EE06F020140A1407940A706D0E0
:102BF0000201800EDD6F000EDE6F05D00201A00E17
:102C0000DD6F000EDE6FC9CFE3F2DDC2E9FFDEC289
:102C1000EAFFDD2B000EDE23EF50C96E12009E96F8
:102C2000C9CFE3F20201E251000823E2DFC2E9FF6B
:102C3000E0C2EAFFDF2B000EE023E3C2EFFFDDC2BC
:102C4000E9FFDEC2EAFFDD2BDE23EFCFE3F2E3C2D2
:102C5000C9FFE207E2510CE10201020E1E6F020100
:102C600040934081320ED76ECF0ED66EF294D58E41
:102C700001D0C96A1200D9CFE6FFE1CFD9FF020126
:102C800040A10ED0FD0EDBCFE6FFFE0EDBCFE6FF50
:102C90007CEC2BF0E552E5529D96020140919D8619
:102CA000E552E7CFD9FF1200D9CFE6FFE1CFD9FF38
:102CB000020140B332D0FD0EDBCFE9FFFE0EDBCFC9
:102CC000EAFF1E0EE926000EEA22EF50020809E193
:102CD000FD0EDBCFE6FFFE0EDBCFE6FF69D8E55247
:102CE000E552FD0EDBCFE9FFFE0EDBCFEAFF150E4E
:102CF000E926000EEA22EF9EFD0EDBCFE6FFFE0E78
:102D0000DBCFE6FFEAEC2AF0E552E5529D960201A0
:102D1000407740839D8602011D2BE552E7CFD9FF06
:102D200012009D96020140919D861200D9CFE6FFC8
:102D3000E1CFD9FF0001316BD950FD0FE96EFF0ED5
:102D4000DA20EA6E010EEE1801E1ED5002E1318168
:102D500001D0BA6AD950FB0FE96EFF0EDA20EA6E95
:102D6000010EEE1801E1ED5002E1318301D0B76AA6
:102D7000D950F90FE96EFF0EDA20EA6E010EEE1857
:102D800001E1ED5002E1318501D0736AD950F70FAE
:102D9000E96EFF0EDA20EA6E010EEE1801E1ED5049
:102DA00002E1318701D0706AE552E7CFD9FF120006
:102DB000D9CFE6FFE1CFD9FFFD0EDBCFE9FFFE0E55
:102DC000DBCFEAFF1C0EE926000EEA22EF6AFD0EB9
:102DD000DBCFE9FFFE0EDBCFEAFF170EE926000E80
:102DE000EA22EF6AC6AE0ED0C69EFD0EDBCFE9FF2B
:102DF000FE0EDBCFEAFF170EE926000EEA22010ED7
:102E0000EF6E22D0F150800B10E0F250080B0DE075
:102E1000FD0EDBCFE9FFFE0EDBCFEAFF170EE92642
:102E2000000EEA22020EEF6E0FD0F0A60DD0909E9B
:102E3000FD0EDBCFE9FFFE0EDBCFEAFF170EE92622
:102E4000000EEA22030EEF6E250EC614250819E0C7
:102E5000FD0EDBCFE9FFFE0EDBCFEAFF1C0EE926FD
:102E6000000EEA22010EEF6EFD0EDBCFE9FFFE0E33
:102E7000DBCFEAFF170EE926000EEA22C6CFEFFFEE
:102E800080D1C55019E0FD0EDBCFE9FFFE0EDBCF90
:102E9000EAFF1C0EE926000EEA22020EEF6EFD0E7E
:102EA000DBCFE9FFFE0EDBCFEAFF170EE926000EAF
:102EB000EA22C5CFEFFF65D1D0BE19D0FD0EDBCF22
:102EC000E9FFFE0EDBCFEAFF1C0EE926000EEA2228
:102ED000030EEF6EFD0EDBCFE9FFFE0EDBCFEAFF48
:102EE000170EE926000EEA22D0CFEFFF4AD19DB699
:102EF00019D0FD0EDBCFE9FFFE0EDBCFEAFF1C0E83
:102F0000E926000EEA22040EEF6EFD0EDBCFE9FF8C
:102F1000FE0EDBCFEAFF170EE926000EEA229DCF58
:102F2000EFFF2FD19C5019E0FD0EDBCFE9FFFE0E25
:102F3000DBCFEAFF1C0EE926000EEA22050EEF6E3B
:102F4000FD0EDBCFE9FFFE0EDBCFEAFF170EE92611
:102F5000000EEA229CCFEFFF14D1080E9F5C19E00F
:102F6000FD0EDBCFE9FFFE0EDBCFEAFF1C0EE926EC
:102F7000000EEA22060EEF6EFD0EDBCFE9FFFE0E1D
:102F8000DBCFEAFF170EE926000EEA229FCFEFFF04
:102F9000F8D0A25019E0FD0EDBCFE9FFFE0EDBCF2B
:102FA000EAFF1C0EE926000EEA22070EEF6EFD0E68
:102FB000DBCFE9FFFE0EDBCFEAFF170EE926000E9E
:102FC000EA22A2CFEFFFDDD0A55019E0FD0EDBCF46
:102FD000E9FFFE0EDBCFEAFF1C0EE926000EEA2217
:102FE000080EEF6EFD0EDBCFE9FFFE0EDBCFEAFF32
:102FF000170EE926000EEA22A5CFEFFFC2D0100E71
:10300000F214100819E0FD0EDBCFE9FFFE0EDBCF56
:10301000EAFF1C0EE926000EEA22090EEF6EFD0EF5
:10302000DBCFE9FFFE0EDBCFEAFF170EE926000E2D
:10303000EA22F2CFEFFFA5D0470EF11419E0FD0E02
:10304000DBCFE9FFFE0EDBCFEAFF1C0EE926000E08
:10305000EA220A0EEF6EFD0EDBCFE9FFFE0EDBCF9C
:10306000EAFF170EE926000EEA22F1CFEFFF89D022
:10307000C00EF01419E0FD0EDBCFE9FFFE0EDBCF32
:10308000EAFF1C0EE926000EEA220B0EEF6EFD0E83
:10309000DBCFE9FFFE0EDBCFEAFF170EE926000EBD
:1030A000EA22F0CFEFFF6DD092A819D0FD0EDBCF52
:1030B000E9FFFE0EDBCFEAFF1C0EE926000EEA2236
:1030C0000C0EEF6EFD0EDBCFE9FFFE0EDBCFEAFF4D
:1030D000170EE926000EEA2292CFEFFF52D093B0EE
:1030E00019D0FD0EDBCFE9FFFE0EDBCFEAFF1C0E91
:1030F000E926000EEA220D0EEF6EFD0EDBCFE9FF92
:10310000FE0EDBCFEAFF170EE926000EEA2293CF70
:10311000EFFF37D03E0E94141C0819E0FD0EDBCFF4
:10312000E9FFFE0EDBCFEAFF1C0EE926000EEA22C5
:103130000E0EEF6EFD0EDBCFE9FFFE0EDBCFEAFFDA
:10314000170EE926000EEA2294CFEFFF1AD097BEA1
:1031500018D0FD0EDBCFE9FFFE0EDBCFEAFF1C0E21
:10316000E926000EEA220F0EEF6EFD0EDBCFE9FF1F
:10317000FE0EDBCFEAFF170EE926000EEA2297CFFC
:0A318000EFFFE552E7CFD9FF120080
:06318A0002DBE150F90F29
:1031900048DB0BE1FB0EDB6AFC0EDB6A010EF36E13
:1031A000F90EF3CFDBFFFA0EDB6AD950F10F39DBF2
:1031B0000BE1F30EDB6AF40EDB6A010EF36EF10E27
:1031C000F3CFDBFFF20EDB6AD950F50F2ADB0BE100
:1031D000F70EDB6AF80EDB6A010EF36EF50EF3CF25
:1031E000DBFFF60EDB6AFDD9FB0EDBCFEEFFFC0E3C
:1031F0001CDB020E41DAF90EDBCFEEFFFA0E15DB17
:10320000040E3ADAF70EDBCFEEFFF80E0EDB060EF9
:1032100033DAF50EDBCFEEFFF60E07DB080E2CDA05
:10322000F30EDBCFEEFFF40E00DB0A0E25DAF10E13
:10323000DBCFEEFFF20EDBCFEDFFCADAEF0EDBCF16
:10324000EEFFF00EDBCFEDFFC7DAED0EDBCFEEFFCA
:10325000EE0EDBCFEDFF98DA310EEE6E750EED6EF1
:10326000C0D90E0EEB6A0F0EEB6ABED22DDA08DA69
:10327000010EE66EE66A36D227DA010EE66EE66ADF
:10328000FFD930D285DA040EE126DE6ADD6A61DA22
:10329000FB0EDB50025C006EFC0EDB500358016E2F
:1032A000020E00C0DBFF030E01C0DBFF6DDA310E42
:1032B000EE1806E1750EED1803E192DA51DA98DAAC
:1032C00063DAEECF00F0EFCF01F0013404E20050FA
:1032D0003008750E01540AE357DA4CDAD8800350EF
:1032E00004E7D00E025C8A0E035801E281DA79D934
:1032F000020E84DA76D9EECF04F0EFCF05F0020E9D
:10330000DBCF38F0030EDBCF39F004C03DF005C051
:103310003EF086EC13F036C002F037C003F036C042
:1033200038F037C039F006C03DF007C03EF095D9FF
:1033300058D9060E69DA28DAEECF04F0EFCF05F09F
:1033400050D9040E5BDA00010650E4D90750F9D9D0
:1033500008C03DF009C03EF080D943D90A0E8CD98F
:10336000EECF0AF0EFCF0BF0020EDBCF06F0030E2C
:10337000DBCF07F035DAEE50065C046EEE500758EE
:10338000056E2FD9080E40DA00010850C3D9095044
:10339000D8D90AC03DF00BC03EF05FD9F0D918DA99
:1033A000E9D903500118E8AE02D0013404D000502E
:1033B000025C0150035805E20BDAEECFDEFFEDCFE1
:1033C000DDFFDDD909DAD6D901500318E8AE02D005
:1033D000033401D0B1D905E2FFD9EECFDEFFEDCF46
:1033E000DDFFFED9BDD9020EDBCF00F0030EDBCF2F
:1033F00001F0CAD90050EE260150ED22C0D900C01C
:10340000F3FF01C0F4FFB3D1C3D9080EE126D950B0
:10341000F90F74D9040EEECFDBFF050EEECFDBFF04
:10342000060EEECFDBFF070EEECFDBFFF50EDBCF98
:1034300000F0F60EDBCF01F0F70EDBCF02F0F80E56
:10344000DBCF03F0F10EDBCF04F0F20EDBCF05F0A3
:10345000F30EDBCF06F0F40EDBCF07F004C03CF038
:1034600005C03DF006C03EF007C03FF096D9D5EC50
:1034700011F037C0DEFF38C0DEFF39C0DEFF3AC0D2
:10348000DDFFDD52DD52D950FD0F38D9010EEE18A7
:103490000FE1ED500DE1ACD8DFCF04F3010EDBCF2F
:1034A00005F3020EDBCF06F3030EDBCF07F314D0D8
:1034B000D950FD0F23D9020EEE180EE1ED500CE1AC
:1034C00097D8DFCF00F3010EDBCF01F3020EDBCF85
:1034D00002F3030EDBCF03F3040EDBCF00F0050E87
:1034E000DBCF01F0060EDBCF02F0070EDBCF03F0DF
:1034F0001AD93DD14DD907D92CD901500318E8AEBE
:1035000002D0033401D018D910E2FD0EDBCF38F021
:10351000FE0EDBCF39F0CDD837C008F038C009F047
:1035200039C00AF03AC00BF042D0EDD8FB0EDBCF29
:1035300004F0FC0EDBCF05F0F90EDB50045C026EEC
:10354000FA0EDB500558036E01500318E8AE02D0A6
:10355000033401D0F1D807E2006A016A800E026EDE
:103560003F0E036E3CD0CFD855D901500318E8AEBA
:1035700002D0033401D0E0D82EE2FB0EDBCF0AF0FC
:10358000FC0EDBCF0BF0FD0EDB500A5C086EFE0E6E
:10359000DB500B58096E08C038F0396E8AD837C036
:1035A0000CF038C00DF039C00EF03AC00FF0FED864
:1035B00004C037F005C038F006C039F007C03AF053
:1035C0006CEC12F037C000F038C001F039C002F0E6
:1035D0003AC003F004D0006A016A026A036AA3D801
:1035E00003D1FD0EDBCFE9FFFE0EDBCFEAFF1200B9
:1035F000F90EDBCF00F0FA0EDBCF01F00BD9D9CFFB
:10360000E9FFDACFEAFFEECF08F0EECF09F0EECF18
:103610000AF0EFCF0BF03C6A3D6A040E3E6E420E9C
:103620003F6E08C037F009C038F00AC039F00BC04F
:103630003AF06CEC12F0C3D8B9D8AFD8D6EC11F090
:10364000040E37C0DBFF050E38C0DBFF060E39C0A5
:10365000DBFF070E3AC0DBFF12002CEC13F038C082
:1036600000F039C001F0D9CFE9FFDACFEAFF3850D6
:10367000EE260150ED221200E926000EEA22120089
:10368000F70EDBCFE6FFF80EDBCFE6FF010EE66EAE
:10369000E66AF90EDBCFE6FFFA0EDBCFE6FF010E9E
:1036A000E66EE66AFB0EDBCFE6FFFC0EDBCFE6FF45
:1036B0001200A7EC11F083D8F90EDBCF38F0FA0E28
:1036C000DBCF39F0A7EF11F063D8F30EDBCFE6FFC5
:1036D000F40EDBCFE6FFF50EDBCFE6FFF60EDBCF19
:1036E000E6FF1200FD0EDBCFE6FFFE0EDBCFE6FFAE
:1036F0004CDDF56E120EE15EF55076D0E96EFF0EF0
:10370000DA20EA6E1200FD0EDBCF00F0FE0EDBCFFA
:1037100001F012000402F3CF02F0F4CF03F005022F
:10372000F3500326120000C036F001C037F002C08B
:1037300038F003C039F012000250005C0350015809
:1037400012000402F350032602C038F003C039F01F
:103750001200F90EDBCF02F0FA0EDBCF03F01200FD
:10376000020EDBCFEEFF030EDBCFEDFF1200D9CF51
:10377000E1FF3AD0EECF02F0EFCF03F01200DECF40
:1037800000F0DDCF01F012002CDF0C0E3CEF1BF03F
:10379000D9CFE6FFE1CFD9FF120000C037F001C05A
:1037A00038F002C039F003C03AF0120037C03CF0E4
:1037B00038C03DF039C03EF03AC03FF0120037C08B
:1037C00004F038C005F039C006F03AC007F0120026
:1037D00008DF100E3CEF1BF004DF120E3CEF1BF075
:1037E00000DF0E0E3CEF1BF0E552E7CFD9FF1200D1
:1037F000F8DE0C0EEB6A0D0EEB6A12003DDFEECF29
:1038000006F0EFCF07F0120037DFEECF08F0EFCF72
:1038100009F01200FB0EDBCF02F0FC0EDBCF03F051
:1038200012006CDFEE50ED101200DBCFEDFFF1EF78
:023830001AF08C
:0E38320003014E0E106F380E116F760E126FDE
:10384000390E136FC60E146F3C0E156F1200D9CFD0
:10385000E6FFE1CFD9FF040EE12603012351241135
:1038600001E188D03C0EE66EE66AFD0EDBCFE6FF96
:10387000FE0EDBCFE6FF7D0EE66E010EE66E7DEC02
:1038800037F0C5DA0D0EE66EE66AE3DAE9CF00F04E
:10389000EACF01F0E9CFE6FFEACFE6FFB90EE66E28
:1038A000010EE66E7DEC37F0B2DA000EE66EE66AE7
:1038B000E80EE66E030EE66EB5DAB4DA3C6A3D6AEF
:1038C0003E6A3F0E3F6E6CDACBDAE80EE66E030E10
:1038D000E66EC60EE66E010EE66EC5EC18F0F56EED
:1038E000120EE15EF5500101800EA0153EE19FC170
:1038F00000F0A0C101F08B0E3D6E180E3E6E9FC110
:1039000038F0A0C139F02CEC13F034C0DEFF35C024
:10391000DDFFDECF00F0DDCF01F00001800E0114ED
:1039200008E0D9CFE9FFDACFEAFF8B0EEE26180EBA
:10393000ED220101C251DE5C006EC351DD58016E03
:10394000020E00C0DBFF030E01C0DBFF020EDBCF67
:1039500000F0030EDBCF01F0DBD9220EACDA005011
:10396000EE5CC26F0150EE58C36F0301216B226BF6
:10397000236B246B5ED2D9CFE6FFE1CFD9FF080ECF
:10398000E12696DAEECF10F0EECF11F0EECF12F086
:10399000EFCF13F08DC13CF08EC13DF08FC13EF0F2
:1039A00090C13FF010C037F011C038F012C039F0AC
:1039B00013C03AF0D5EC11F037C00CF038C00DF060
:1039C00039C00EF03AC00FF0A3D9D2D914C03CF0E0
:1039D00015C03DF016C03EF017C03FF0D6EC11F018
:1039E00037C008F038C009F039C00AF03AC00BF00F
:1039F00091C13CF092C13DF093C13EF094C13FF0C3
:103A0000D5EC11F0D7D93C6A3D6A3E6A400E3F6E54
:103A10006CEC12F0A4D9D7D9DFD9D5EC11F037C0AE
:103A2000DEFF38C0DEFF39C0DEFF3AC0DDFFDD5209
:103A3000DD5203012351241101E03FD10101C451A2
:103A4000C5112DE0F40EE66E010EE66EC4C1E6FF70
:103A5000C5C1E6FF21C3E6FF22C3E6FF7AEC1AF0F8
:103A6000D6D936C004F037C005F038C006F039C0EA
:103A700007F036C03CF037C03DF038C03EF039C0EA
:103A80003FF08ED96CD9E5D90C0E15DA37C0EEFFB0
:103A9000D6D9DFD9080E0FDA00C0EEFFD0D9010168
:103AA000800EC31501E0A3D0C251C31101E090D034
:103AB000FFD99BD92DD9140EDBD93C6A3D6A200E63
:103AC0003E6E410E3F6EE6D96CEC12F073D97BD995
:103AD00095D9D5EC11F057D91BD9080E20D918D992
:103AE0000C0E30D9E5D9EECF0EF0EECF0FF0EECFC1
:103AF00010F0EFCF11F00EC037F00FC038F010C04B
:103B000039F011C03AF0DAEC13F038C00CF039C0DB
:103B10000DF0D5D9FDD82CD914C037F015C038F028
:103B200016C039F017C03AF0DAEC13F038C012F0D2
:103B300039C013F0C4D9B90E186E670E196E1A6A1F
:103B400018C0E6FFE66E1AC0E6FF2AEC38F0F56E04
:103B50000B0EE15EF5507DD90C0EE1D87AD9080E36
:103B6000F1D89B0E0C6E670E0D6E0E6A0CC0E6FF50
:103B7000E66E0EC0E6FF2AEC38F0F56E070EE15E49
:103B8000F550040EDBCF37F0050EDBCF38F0060E14
:103B9000DBCF39F0070EDBCF3AF062D98B0E026E25
:103BA000670E036E046A02C0E6FFE66E04C0E6FF1D
:103BB0002AEC38F0F56E050EE15EF5509BD80C0E40
:103BC00087D8D6EC11F06FD9D5EC11F0BFD80FD053
:103BD000700E006E670E016E026A00C0E6FFE66EB0
:103BE00002C0E6FF2AEC38F0E552E552E5523C6AA5
:103BF0003D6A3E6A3F6AF0D809EC14F0010A40E0E1
:103C0000000EE66EE66ADECF37F0DECF38F0DECFAC
:103C100039F0DDCF3AF0DD52DD5234D9C60EE66E12
:103C2000010EE66E42EC19F0F2D8F3CF04F0F4CFB7
:103C300005F0F3CF38F0F4CF39F0A7EC11F08FD8BE
:103C40003C6A3D6A7A0E3E6E440E3F6E6CEC12F09A
:103C50009AD850D80C0E3CD8BFEC12F024D9BFEC47
:103C600012F074D8D9CFE9FFDACFEAFFBED83C6AA8
:103C70003D6A3E6A3F6AC2D810EC14F0010A17E1AF
:103C80001A0E03012127000E22232151221117E0D1
:103C900022510101C519E8AE02D0C53507D0C45183
:103CA0000301215D0101C5510301225908E3D1D867
:103CB0000C0EB2D8CED8080EAFD8F36A02D0010EDF
:103CC000F36EF46AB6D0010E0301236F246B120069
:103CD000F2D8EECF37F0EECF38F0EECF39F0EFCFAD
:103CE0003AF000C03CF001C03DF002C03EF003C01D
:103CF0003FF01200040EDBCF00F0050EDBCF01F029
:103D0000060EDBCF02F0070EDBCF03F029EF1FF02A
:103D1000FD0EDBCFE9FFFE0EDBCFEAFF1200CBD8B2
:103D2000EECF02F0EECF03F0EECF04F0EFCF05F0D0
:103D300002C037F003C038F004C039F005C03AF0D3
:103D400030EF1FF095D8A6D842EF1FF03AC0EDFF34
:103D500039C0EDFF38C0EDFF37C0EFFF120037C0AC
:103D600000F038C001F039C002F03AC003F0120090
:103D7000140EA1D8EECF14F0EECF15F0EECF16F062
:103D8000EFCF17F01200040E37C0DBFF050E38C06E
:103D9000DBFF060E39C0DBFF070E3AC0DBFF120067
:103DA000B9C137F0BAC138F0BBC139F0BCC13AF083
:103DB000BFEF12F037C004F038C005F039C006F08C
:103DC0003AC007F0120037C03CF038C03DF039C0AF
:103DD0003EF03AC03FF01200BDC137F0BEC138F02E
:103DE000BFC139F0C0C13AF01200EECF00F0EECF03
:103DF00001F0EECF02F0EFCF03F0120000C037F079
:103E000001C038F002C039F003C03AF01200F56E7C
:103E1000060EE15EF55012004ED8EE6AEE6AEE6ACA
:103E2000EE6A1200010EE66EE66A000EE66EE66AC3
:103E30001200D9CFE1FFE552E7CFD9FF120001C050
:103E4000EEFF02C0EEFF03C0EEFF1200100E5BEFAC
:103E50001FF0FB0EDBCFE9FFFC0EDBCFEAFF120009
:103E6000DAEC13F038C000F039C001F05FEF1FF05A
:103E700022D8EECF08F0EECF09F0EECF0AF0EFCF68
:103E80000BF01200DAEC13F038C006F039C007F07E
:103E90005FEF1FF008C037F009C038F00AC039F0F2
:103EA0000BC03AF0120052DF25DF080E68EF1EF05B
:103EB0002FDF26EF1FF0E926000EEA22120038C09D
:083EC000E6FF39C0E6FF120025
:083EC800D9CFE6FFDACFE6FFD7
:103ED000E1CFD9FFE2CFDAFF220EE12402E3E1686D
:103EE000E652E16ED9501B0FE66E000EDA20E66E48
:103EF000D950FA0FE96EFF0E1CDA7DEC36F0F56E44
:103F0000060EE15C02E2E16AE552E16EF550E76E11
:103F1000160EE7CFDBFFDB50840B10E0210E030110
:103F2000306F316B170EDB68180EDB68190EDB681B
:103F30007F0EF36E1A0EF3CFDBFFA6D1EDD9830E01
:103F40003C6EF90E3D6E220E3E6E3F0E3F6EFCD96A
:103F5000BFEC12F0C5D9FA0EDBCF0CF0FB0EDBCFB5
:103F60000DF0FC0EDBCF0EF0FD0EDBCF0FF03C6A48
:103F70003D6A3E6A3F6AF1D919EC14F0010A05E185
:103F8000086A096A0A6ABF0E04D0086A096A0A6ADE
:103F90003F0E0B6E08C03CF009C03DF00AC03EF079
:103FA0003F6E00C037F0F0D9D6EC11F0FDEC14F004
:103FB00036C0DEFF37C0DDFF000EDFCF38F0010E68
:103FC000DBCF39F0A7EC11F0020E37C0DBFF030E98
:103FD00038C0DBFF040E39C0DBFF050E3AC0DBFF43
:103FE0009BD9020EDBCF0CF0030EDBCF0DF0040EDD
:103FF000DBCF0EF0050EDBCF0FF03C6A3D6AC90E39
:104000003E6E3F0E3F6EA9D9BFEC12F037C008F0EC
:1040100038C009F039C00AF03AC00BF0BCD994D9C5
:10402000D5EC11F05DD9020EDBCF14F0030EDBCF1F
:1040300015F0040EDBCF16F0050EDBCF17F0220EC5
:104040003C6EAA0E3D6EFD0E3E6E390E3F6E14C0E4
:1040500037F015C038F016C039F017C03AF0BFEC91
:1040600012F037C010F038C011F039C012F03AC069
:1040700013F03FD9D5EC11F0060E37C0DBFF070E69
:1040800038C0DBFF080E39C0DBFF090E3AC0DBFF8A
:10409000D950060FE96E000E4CD921EC39F0E552EB
:1040A000E552E552E55236C000F037C001F038C0A5
:1040B00002F039C003F063D9390E3F6E36C037F0D5
:1040C00063D919EC14F0010A21E1D950060FE96E09
:1040D000000EDA20EA6E0E0EEECFDBFF0F0EEECFF3
:1040E000DBFF100EEECFDBFF110EEECFDBFF120E6B
:1040F000DB6A130EDB6A800EF36E140EF3CFDBFF68
:104100003F0EF36E150EF3CFDBFF6DD0060EDBCF47
:1041100037F0070EDBCF38F0080EDBCF39F0090E91
:10412000DBCF3AF0EBD80A0E37C0DBFF0B0E38C0FE
:10413000DBFF0C0E39C0DBFF0D0E3AC0DBFFB80E03
:10414000376E330E386EC40E396EBD0E3A6EBAD865
:10415000D5D8C6D8060EDBCF04F0070EDBCF05F0AE
:10416000080EDBCF06F0090EDBCF07F004C03CF0F1
:1041700005C03DF006C03EF007C03FF0D6EC11F0A0
:104180000E0E37C0DBFF0F0E38C0DBFF100E39C03C
:10419000DBFF110E3AC0DBFF750E376E330E386E43
:1041A0001F0E396E3C0E3A6E8DD8E0D8AF0E3C6EC5
:1041B000B70E3D6EDB0E3E6EBE0E3F6ED6EC11F0BE
:1041C00081D88ED8DCD83F0E3F6ED6EC11F0120E9F
:1041D00037C0DBFF130E38C0DBFF140E39C0DBFF26
:1041E000150E3AC0DBFFDF50010B19E10E0EDBCFDD
:1041F00037F00F0EDBCF38F0100EDBCF39F0110E99
:10420000DBCF3AF0120EDBCF3CF0130EDBCF3DF0EC
:10421000140EDBCF3EF0150EDBCF3FF027D0120E91
:10422000DBCF00F0130EDBCF01F0140EDBCF02F07A
:10423000150EDBCF03F00E0EDBCF08F00F0EDBCF39
:1042400009F0100EDBCF0AF0110EDBCF0BF097D880
:10425000BF0E3F6E08C037F009C038F00AC039F011
:104260000BC03AF0BFEC12F081D843D86CEC12F0DE
:10427000170E37C0DBFF180E38C0DBFF190E39C030
:10428000DBFF1A0E3AC0DBFF170EDBCF00F0180E73
:10429000DBCF01F0190EDBCF02F01A0EDBCF03F0FB
:1042A00000C036F001C037F002C038F003C039F06A
:1042B000D9CFE1FFDACFE2FFE552E5CFDAFFE7CF72
:1042C000D9FF12000A0EDBCF3CF00B0EDBCF3DF026
:1042D0000C0EDBCF3EF00D0EDBCF3FF0BFEF12F048
:1042E00037C000F038C001F039C002F03AC003F026
:1042F000120051D800C037F0C4EF21F0060EDBCF1A
:104300003CF0070EDBCF3DF0080EDBCF3EF0090E90
:10431000DBCF3FF0BFEF12F0FA0EDBCF04F0FB0E65
:10432000DBCF05F0FC0EDBCF06F0FD0EDBCF07F098
:104330001200DA20EA6EEECFE6FFEECFE6FFEECF18
:10434000E6FFEFCFE6FF120004C037F005C038F0FB
:1043500006C039F007C03AF012000CC037F00DC0AB
:1043600038F00EC039F00FC03AF0120037C004F038
:1043700038C005F039C006F03AC007F012003C6AB8
:104380003D6A800E3E6E120001C038F002C039F066
:1043900003C03AF0120037C03CF038C03DF039C0DD
:0843A0003EF03AC03FF01200AC
:0843A8000BDA0A0EE126030105
:1043B00017510CE1010E176F01017C0EFE6F900E7C
:1043C000FF6FF9D9FFC1E6FF39D9E5520301185152
:1043D0000201F31904E1030119510201F41901E189
:1043E00011D1F3C218F3F4C219F30301166B140EC2
:1043F0000201485D01E2B7D00301010E1A6F166F8A
:104400000101FE51DE6EDD6A02014151006E016A5A
:104410004F0E005E000E015A060E00C0DBFF070EB5
:1044200001C0DBFFE3D9013409E200500608000EA9
:10443000015404E2F0D919E1D1D917D0D7D9D880E5
:10444000015004E7FA0E005CFF0E015807E2E3D9C1
:104450000CE1040EDB68050EDB6807D0040EDB6A96
:10446000050EDB6A020E0301162738683968040E50
:10447000DBCF3DF0050EDBCF3EF086EC13F037C00E
:1044800001F0D9CFE9FFDACFEAFF3650EE2601502E
:10449000ED229BD90001800E011402E0DE6A0AD0F1
:1044A00094D9013408E20050F808000E015403E2E8
:1044B000F80EDE6EDD6ADFCFFEF17DD9010173D922
:1044C00002014251006E016A770E005E000E015A31
:1044D000080E00C0DBFF090E01C0DBFF8ED90134DE
:1044E00009E200500608000E015404E29DD919E1CA
:1044F00075D917D082D9D880015004E7FA0E005C34
:10450000FF0E015807E290D90CE1040EDB68050E9E
:10451000DB6807D0040EDB6A050EDB6A040E0301BC
:104520001627040EDBCF00F0050EDBCF01F084D997
:104530000050EE260150ED2232D904E65E0E005CFA
:10454000000E015802E25E0E09D07CD9013407E268
:104550000050C208000E015402E2C20E55D9020EEC
:10456000DBCFFFF14BD003011B2B1B5106084AE2A6
:104570001B6B1A0505E11A6BDE6ADD6A900E26D008
:104580000101FE51DE6EDD6A0ED91FD9D8900150AF
:1045900004E6F80E005C000E01581AE3DE6ADD6ADC
:1045A000FED804E6C20E005C000E015802E35E0E67
:1045B0000DD042D9320EEE26000EED22F0D804E6E0
:1045C000C20E005C000E015813E3C20E1DD910D0BC
:1045D0003E0EDE26000EDD22F8D8D890015004E60B
:1045E000F80E005C000E015803E3F80EDE6EDD6A83
:1045F000DFCFFEF1020EDBCFFFF1DDD8FFC1E6FF1A
:104600001DD8E552D9CFE1FFE5D0DAD8E652030153
:10461000165102E1DF6A0AD0070E165D02E2010EB2
:1046200004D0070E165D02E1020EDF6EDF50E55288
:10463000D1D0C6D8FE0EDBCF10F2CCD0C1D8FE0E42
:10464000DBCF11F2C7D0026A036AC00E046E420EBD
:10465000056E02C0E6FF03C0E6FF04C0E6FFE66E9B
:10466000350E0E6EFA0E0F6E8E0E106E3C0E116E23
:1046700002011151166E176A900E165E000E175A3F
:10468000190E1702F3CF17F01602F3CF16F0F450FD
:104690001726320E3D6E3E6AF3CF38F017C039F060
:1046A0002CEC13F038C016F039C017F0A7EC11F05D
:1046B00037C012F038C013F039C014F03AC015F00A
:1046C00037C03CF038C03DF039C03EF03AC03FF052
:1046D0000EC037F00FC038F010C039F011C03AF0FA
:1046E000BFEC12F037C00AF038C00BF039C00CF044
:1046F0003AC00DF037C0E6FF38C0E6FF39C0E6FF2C
:104700003AC0E6FF64EC1FF0E552E552E552E5528F
:10471000E552E7CF05F0E552E7CF04F0E552E7CFE9
:1047200003F0E552E7CF02F036C006F037C007F0DD
:1047300038C008F039C009F036C03CF037C03DF051
:1047400038C03EF039C03FF002C037F003C038F047
:1047500004C039F005C03AF06CEC12F0DAEC13F05A
:1047600038C000F039C001F038C0F3FF39C0F4FFA1
:104770001200DBCF39F000C03DF001C03EF02CEC60
:1047800013F0040E38C0DBFF050E39C0DBFFD95033
:10479000040FE96EDACFEAFFEE50ED10120052D8A6
:1047A000D89001501200FF51E66E46D8E552E7500E
:1047B000EE6EED6A1200FEC1E6FF3BDFE55212002D
:1047C000D9CFE6FFE1CFD9FF1200DECF00F0DDCF79
:1047D00001F01200E552E7CFD9FF1200010EF36E8F
:1047E000040EF3CFDBFF050EDB6A1200060EDBCFF3
:1047F00000F0070EDBCF01F01200080EDBCF00F057
:10480000090EDBCF01F01200F36E020EF3CFDBFFD7
:10481000030EDB6A1200030E006E016A060EDBCF88
:1048200038F0070EB9EF23F0080E006E016ADBCFF7
:1048300038F0090EB9EF23F0D950020FE96EDACF44
:10484000EAFF1200020EDBCF00F0030EDBCF01F017
:02485000120054
:0E4852003ADA040EE1260201F2510AE1D1D851
:10486000DF6EDF0404E10201010EF26F02D0DF50BF
:104870000108F2D9E76E010EE7CFDBFFDB5000083D
:1048800017E2030EDB6A010EDB50F36E030EDBCF83
:10489000F4FFF350F45C0CE2E1D9E76E020EE7CFCF
:1048A000DBFFDBCFE6FF07D8E552030EDB2AEBD7B1
:1048B000D9CFE1FF0ED208DA0201F951060A01E16F
:1048C0007FD0030A60E0060A2EE0010A23E0030A13
:1048D00001E096D0FE0EDB50006E016AFF0E00185C
:1048E00004E1015002E1020E8AD0FE0EDB504108C5
:1048F00006E10201020E6C6F0201050E80D0FE0E71
:10490000DB504E0801E07CD00201020E6C6F020108
:10491000060E75D0FE0EDB50540870E102016B6B81
:104920000201030E6CD002016B51006E016A080E89
:10493000005C000E01580AE26B51EA6A490FE96E09
:10494000020EEA22FE0EDBCFEFFF6B2B6B51006EE7
:10495000016A080E001854E1015052E149C241F2C7
:104960004AC242F24BC243F24CC244F24DC245F23B
:104970004EC246F24FC247F250C248F20201F32B38
:10498000000EF4233BD0020E02016C5D04E1FE0E2A
:10499000DB50430824E0030E6C5D04E1FE0EDB50A7
:1049A0004B081DE0040E6C5D09E1FE0EDB500D08A6
:1049B00005E10201F52B000EF62320D002011ED0E6
:1049C000020E02016C5D04E1FE0EDB50430807E0BD
:1049D000030E6C5D06E1FE0EDB504B0802E16C2B12
:1049E0000FD0040E6C5D09E1FE0EDB500D0805E1F1
:1049F0000201F72B000EF82301D00201010EF96F1E
:104A000068D162D9E6520201FA0507E1FCD8050E29
:104A1000E66E02D9E5520201FA6BFB050DE1FB6B74
:104A200002016E6B010E6D6F6F6B706B716B02012B
:104A3000F56BF66BF76BF86B02016E0528E102016E
:104A4000010EF55D000EF65905E302016E6B6F6B0A
:104A5000706BC3D0010EF75D000EF85903E302013D
:104A60006D05BAD002010A0E6F5D000E70590BE39E
:104A7000800E6D25006E016A000E01220006015AAB
:104A800000C071F2AAD06F2B000E7023A6D00201D5
:104A9000F56BF66BF76BF86B02016D51120A01E1D1
:104AA0009AD0030A01E180D0010A01E177D01F0A00
:104AB0006FE0010A67E0030A5FE0010A57E0070AB6
:104AC0004FE0010A45E0030A3DE0010A35E00F0A24
:104AD0002DE0010A25E0030A1DE0010A15E0070A9E
:104AE0000DE0010A07E0030A01E077D08CD802014B
:104AF000020E01D0030E6D6F6E6B6FD0800EE66EEE
:104B0000290ED3D8040E63D0200EE66E130ECDD836
:104B1000050E5DD0840EE66E2D0EC7D8060E57D05A
:104B2000800EE66E2A0EC1D8070E51D0200EE66E1A
:104B30002B0EBBD8080E4BD0840EE66E2D0EB5D8CA
:104B4000090E45D0200EE66E120EAFD80A0E3FD0E9
:104B5000E66AE66A79D8E552E55202010B0E37D0D3
:104B6000800EE66E010EA1D80C0E31D0800EE66EDE
:104B7000020E9BD80D0E2BD0800EE66E030E95D83C
:104B80000E0E25D0010EE66E060E8FD80F0E1FD02A
:104B9000010EE66E100E89D8100E19D0E66A4AD8BA
:104BA000E5520201110E13D0910EE66E640EE66E10
:104BB000100EE66E0F0EE66E730EE66E550EE66E86
:104BC00016D8F56E060EE15EF5500201120E6D6FFD
:104BD000010E6E6F02D0010E716F7151000803E279
:104BE0000201010EFB6F02017151E55272D06CD8C7
:104BF000540E61D8430E5FD8060E6FD8FA0E5FD8F8
:104C0000F90E5DD866D00D0E5BEF26F00201F26B57
:104C100012000201F251120057D8520E4CD84D0E1C
:104C20004AD8200E48D8FE0EDB50300F44D80D0E67
:104C300042D84FD049D84E0E3ED8460E3CD8010E31
:104C40003AD8FE0E3CD845D03FD8430E34D8520E49
:104C500032D8020E48D83DD0B4EF2FF0DBEF2FF062
:104C600033D8FE0EDBCFE6FF13EC30F0E55231D047
:104C7000ABEF2FF0BDEF2FF027D8FE0EDBCFE6FF16
:104C8000F9EC2FF0E55225D01FD8560E14D8570E48
:104C900012D8040E22D81DD0500E0DD84D0E0BD8B0
:104CA000310E09D8310E5BEF26F0E66ECDDFE5520E
:104CB000E55202011200E66ED3DFE5521200DBCFAF
:104CC000E6FFCEDFE5521200D9CFE6FFE1CFD9FFF4
:104CD0001200E552E7CFD9FF120005D8FC0EEFDF36
:104CE000FB0E5FEF26F0E7DFFE0EE9DFFD0E5FEF64
:024CF00026F0AC
:0E4CF200D9CFE6FFE1CFD9FF040EE126FD0E7B
:104D0000DBCFE6FFFE0EDBCFE6FF9DD8E552E55296
:104D100036C0DEFF37C0DEFF38C0DEFF39C0DDFF42
:104D2000DD52DD52F4D9000E3A18E8AE02D03A3422
:104D300009D0000ED8803754000E3854000E395474
:104D4000000E3A5449E3E3D9FD0E371808E1E8684C
:104D5000381805E1E868391802E1E8683A1828E0EF
:104D6000FE0E371808E1E868381805E1E8683918D8
:104D700002E1E8683A182BE0E868371808E1E868CB
:104D8000381805E1E868391802E1E8683A180CE0DB
:104D900037501DE138501BE1395019E13A5017E105
:104DA0008B0E006E660E07D07D0E006E660E03D071
:104DB000710E006E660E016E026A00C0E6FFE66EBE
:104DC00002C0E6FF2AEC38F0E552E552E552366AB9
:104DD000376A386A396A36D0D9CFE9FFDACFEAFFC5
:104DE000EECF04F0EECF05F0EECF06F0EFCF07F0F8
:104DF000090E3B6E3C6A3D6A3E6A04C036F005C04F
:104E000037F006C038F007C039F0B6EC38F032C0E1
:104E100004F033C005F034C006F035C007F0006A76
:104E2000870E016E930E026E030E036E86D9396EE5
:104E300032C03BF033C03CF034C03DF035C03EF0F2
:104E400052EC13F081D1D9CFE6FFE1CFD9FF140E98
:104E5000E1260C0EDB6A0D0EDB6A0E0EDB6A0F0E0E
:104E6000DB6A100EDB6A110EDB6A120EDB6A130EB0
:104E7000DB6A70D9010EEE1819E1ED5017E1EA0E68
:104E8000DE6E010EDD6ED950020F3DD9C40EEE6EFE
:104E9000020EED6ED950040F36D9BE0EEE6E020E24
:104EA000ED6E6DD9FC0EEE6E010E1CD053D9020EC4
:104EB000EE181AE1ED5018E1DA0EDE6E010EDD6E2D
:104EC000D950020F20D9C20EEE6E020EED6ED950EF
:104ED000040F19D9BC0EEE6E020EED6E50D9FA0E0B
:104EE000EE6E010EED6E02D03668ECD0020EDBCF16
:104EF000E9FF030EDBCFEAFF15D9EECF00F0EFCFCD
:104F000001F0010ED89000360136E806FBE1DE50D4
:104F10000024E96EDD500120EA6E02C0EEFF03C0FE
:104F2000EDFF080EDB6A090EDB6A080EDBCF00F02E
:104F3000090EDBCF01F0D890015004E6080E005CAA
:104F4000000E015858E2C2D8EDD8EECF06F0EFCFF0
:104F500007F0010ED89006360736E806FBE1DE5072
:104F60000624E96EDD500720EA6EEE50025C006E0A
:104F7000EE500358016E0A0E00C0DBFF0B0E01C09D
:104F8000DBFF0A0EDBCF00F00B0EDBCF01F0D88089
:104F9000015004E7F10E005CFF0E015826E30A0EF3
:104FA000DBCF02F00B0EDBCF03F0033404E2025040
:104FB0000F08000E035419E389D8D3D801AE02D0EC
:104FC00002680368D9500C0F9ED80050EE2601509D
:104FD000EE220250EE220350EE22D950100F93D849
:104FE000EE2A000EEE22EE22EE22080EDB2A090E39
:104FF0009CE3DB2A9AD7C3D8EECFF3FFEDCFF4FFC3
:10500000020EEE26000EEF22F3CFE9FFF4CFEAFF07
:105010006DD8005001100210031002E1FE0E51D0B5
:105020000F0E006E016A026A036AD9500C0F6BD82A
:10503000EE500026EE500122EE500222EE500322E6
:1050400097D8EECF04F0EFCF05F0066A076A035059
:105050000718E8AE02D0073408D00450005C0550B1
:105060000158065002580750035806E281D879D8F3
:1050700064D803C039F029D0100EDBCF00F0110E38
:10508000DBCF01F0120EDBCF02F0130EDBCF03F00B
:10509000005001100210031013E028D84ED803C0AE
:1050A00039F0100EDBCF3BF0110EDBCF3CF0120ECF
:1050B000DBCF3DF0130EDBCF3EF052EC13F005D00A
:1050C000FD0E366E3768386839683ED0080EDBCF83
:1050D00004F0090EDBCF05F0D89004360536DE501B
:1050E0000424E96EDD500520EA6E12000C0EDBCFC1
:1050F00000F00D0EDBCF01F00E0EDBCF02F00F0E35
:10510000DBCF03F01200E96EDACFEAFF1200DECF48
:1051100037F0DECF38F0DECF39F0DDCF3AF0DD52B8
:10512000DD521200EECF02F0EFCF03F0060EDBCF20
:10513000E9FF070EDBCFEAFF120000C036F001C026
:1051400037F002C038F01200D9CFE1FFE552E7CFC7
:10515000D9FF1200D950FD0FE96EFF0EDA20EA6E7A
:105160001200EECF00F0EFCF01F0026A036A1200E6
:10517000040EDBCFE9FF050EDBCFEAFF1200D950AA
:06518000060F83EF28F08A
:0A518600BAD9FB0EDBCFEEFFFC0EE2
:10519000DBCFEDFFB7D947EC31F0E552E552E552F0
:1051A000E552C8D1ABD9CAD900C0F3FF01C0F4FFA2
:1051B000C1D1D3D9020EE126DE6ADD6ADECF00F06E
:1051C000DDCF01F0D890015004E6040E005C000E23
:1051D000015822E2DECF02F0DDCF03F0D890023694
:1051E0000336D8900236033602C0E6FF03C0E6FF5E
:1051F00079EC31F0E552E552F4CF01F0DECFE9FF72
:10520000DDCFEAFFAFD9F3CFEEFF01C0EDFFDF2A1C
:10521000010ED4E3DB2AD2D7D9CFE1FF8BD19DD9C0
:1052200002012751006E016AD890015001E68BD926
:105230006FE32751026E036A033401E289D968E300
:105240000201008F45D9EE68ED6802014CD901E6F4
:105250007AD906E34ED901E27BD902E32FD950D0A7
:1052600042D904E6DB0E005C000E01580AE341D986
:1052700004E20250E508000E035403E31FD9010EB7
:105280003FD031D904E6C10E005C000E01580AE39C
:1052900030D904E20250CB08000E035403E30ED9C8
:1052A000020E2ED020D904E6A70E005C000E015895
:1052B00007E31FD923E20250B108000E03541EE297
:1052C00012D904E68F0E005C000E015807E311D9D5
:1052D00015E202509908000E035410E204D904E6C6
:1052E000760E005C000E015801E27ED002D901E288
:1052F0007BD002508008FF0E035476E3DFD8030E04
:10530000E66EE66A40DFE552E552E552E5526CD0C2
:105310000201009F0201E7D801E615D906E3E9D8AA
:1053200001E216D902E3000E4FD0DDD804E6DB0E11
:10533000005C000E015809E3DCD804E20250E508E5
:10534000000E035402E3010E3FD0CDD804E6C10E97
:10535000005C000E015809E3CCD804E20250CB08EF
:10536000000E035402E3020E2FD0BDD804E6A70EB0
:10537000005C000E015809E3BCD804E20250B108F9
:10538000000E035402E3030E1FD0ADD804E68F0EC7
:10539000005C000E015809E3ACD804E20250990801
:1053A000000E035402E3040E0FD09DD804E6760EDF
:1053B000005C000E015815E39CD813E302508008EE
:1053C000FF0E03540EE3050EE66EE66AEBDEE552D1
:1053D000E552F4CF01F07CD8F3CFEEFF01C0EDFF32
:1053E00003D076D8EE68ED6873D8A8D80001800E97
:1053F000011404E094D826C2EFFF0CD0F90EDBCFE5
:10540000E6FFFA0EDBCFE6FF7DD805D8F56E060E77
:10541000E15EF5508FD0A1D803010A510B1108E0CD
:1054200057D88CD800500E1902E101500F192AE00C
:10543000810EE66EE6687F0EE66EE66A000EE66EA8
:10544000E66AE66EE66A640EE66EE66A000EE66EF0
:10545000E66A040EE66EE66A070EE66EE66A7A0E05
:10546000E66E020EE66EC5EC18F0F56E120EE15E09
:10547000F5502ED8EECF0EF3EDCF0FF3010E030152
:105480000A6F0B6B25D8EECFE6FFEFCFE6FF16D8FD
:105490007A0EE66E020EE66E42EC19F0F56E060E1E
:1054A000E15EF550F3CF00F0F4CF01F07F0E00265F
:1054B000000E012234D800C0EFFF3CD05BD83A0E7A
:1054C000E926000EEA22EECFE6FFEFCFE6FF12005C
:1054D000FB0EDBCFE9FFFC0EDBCFEAFF100EE92667
:1054E000000EEA2212002B51006E016AD890015082
:1054F00012002B51026E036A033412002ED83AD8E0
:10550000B2EF2AF0FB0EDBCFE6FFFC0EDBCFE6FFAF
:10551000FD0EDBCFE6FFFE0EDBCFE6FF1200F90E3D
:10552000DBCFE9FFFA0EDBCFEAFF080EE926000E1B
:10553000EA221200E552E7CFD9FF1200EECF00F0C9
:10554000EFCF01F01200F50E005C000E01581200C2
:105550000250FF08000E03541200D9CFE6FFE1CF3E
:10556000D9FF1200D890E936EA36720EE926020E0B
:10557000EA221200FD0EDBCFE9FFFE0EDBCFEAFFD1
:02558000120017
:0E558200000EE96EEA6E0400CEEC2AF0EA2A72
:10559000080EEA5CD8A4C4EF2AF01200EF6AE93ED4
:1055A000CEEF2AF01200FF0EE3CF24F024380F0BC9
:1055B000060FD8B2070F2A0FAD6EECEC33F0245073
:1055C0000F0B060FD8B2070F2A0FAD6EECEC33F0BD
:1055D000000C1200EACF1FF0E9CF20F0FF0EE3CF5E
:1055E000EAFFFE0EE3CFE9FF40A741D0EECFA0F0E7
:1055F000EECFA1F0EECFA2F0EECFA3F0EECFA4F06D
:10560000EECFA5F0EECFA6F0EECFA7F0EECFA8F04C
:10561000EECFA9F0EECFAAF0EECFABF0EECFACF02C
:10562000EECFADF0EECFAEF0EECFAFF0EECFB0F00C
:10563000EECFB1F0EECFB2F0EECFB3F0EECFB4F0EC
:10564000EECFB5F0EECFB6F0EECFB7F0EECFB8F0CC
:10565000EECFB9F0EECFBAF0EECFBBF0EECFBCF0AC
:10566000EECFBDF0EECFBEF0EECFBFF040D0EECF2C
:1056700080F0EECF81F0EECF82F0EECF83F0EECF70
:1056800084F0EECF85F0EECF86F0EECF87F0EECF50
:1056900088F0EECF89F0EECF8AF0EECF8BF0EECF30
:1056A0008CF0EECF8DF0EECF8EF0EECF8FF0EECF10
:1056B00090F0EECF91F0EECF92F0EECF93F0EECFF0
:1056C00094F0EECF95F0EECF96F0EECF97F0EECFD0
:1056D00098F0EECF99F0EECF9AF0EECF9BF0EECFB0
:1056E0009CF0EECF9DF0EECF9EF0EECF9FF01FC06E
:1056F000EAFF20C0E9FF120040A11200EACF1FF02C
:10570000E9CF20F0FF0EE3CFEAFFFE0EE3CFE9FF83
:1057100040A941D0C0C0EEFFC1C0EEFFC2C0EEFF45
:10572000C3C0EEFFC4C0EEFFC5C0EEFFC6C0EEFFB3
:10573000C7C0EEFFC8C0EEFFC9C0EEFFCAC0EEFF93
:10574000CBC0EEFFCCC0EEFFCDC0EEFFCEC0EEFF73
:10575000CFC0EEFFD0C0EEFFD1C0EEFFD2C0EEFF53
:10576000D3C0EEFFD4C0EEFFD5C0EEFFD6C0EEFF33
:10577000D7C0EEFFD8C0EEFFD9C0EEFFDAC0EEFF13
:10578000DBC0EEFFDCC0EEFFDDC0EEFFDEC0EEFFF3
:10579000DFC0EEFF40D0E0C0EEFFE1C0EEFFE2C0B0
:1057A000EEFFE3C0EEFFE4C0EEFFE5C0EEFFE6C0B3
:1057B000EEFFE7C0EEFFE8C0EEFFE9C0EEFFEAC093
:1057C000EEFFEBC0EEFFECC0EEFFEDC0EEFFEEC073
:1057D000EEFFEFC0EEFFF0C0EEFFF1C0EEFFF2C053
:1057E000EEFFF3C0EEFFF4C0EEFFF5C0EEFFF6C033
:1057F000EEFFF7C0EEFFF8C0EEFFF9C0EEFFFAC013
:10580000EEFFFBC0EEFFFCC0EEFFFDC0EEFFFEC0F2
:10581000EEFFFFC0EEFF1FC0EAFF20C0E9FF12004D
:10582000F2B4120031500F0AD8B41200FF0EE3CFC9
:1058300025F0FE0EE3CF26F0FD0EE3CF27F0FC0EA1
:10584000E3CF28F0252A31A08D8E262A31A28F8021
:10585000272A31A48F86282A31A68F88296A2A6AA6
:105860002B6A2C6A63EC2CF0252E39EF2CF031A03A
:105870008D9E262E3EEF2CF031A28F90272E43EFE7
:105880002CF031A48F960000282E49EF2CF031A681
:105890008F980000292E4EEF2CF02D9000002A2E1C
:1058A00053EF2CF02D9200002B2E58EF2CF02D945E
:1058B00000002C2E5DEF2CF02D9685EC2CF02E3E6A
:1058C00034EF2CF01200D70E2E6E00000000000006
:1058D00000007BEC2CF02E2E65EF2CF0D70E2E6EF8
:1058E00000000000000000007BEC2CF02E2E70EF7A
:1058F0002CF00000120000007EEF2CF000000000F1
:1059000000000000000000001200030E2F6E0000D7
:085910002F2E87EF2CF012008E
:085918007CD9E652C80E020121
:10592000A76FA86B020EAB6F010EAC6F040EA96FD0
:10593000AA6BDF6AAB51DF5C08E2DF5073D9EE6A15
:10594000EE6AEE6AEE6ADF2AF5D7B96BBA6BBB6B0B
:10595000010EC26EC16A860EC06E9F9C9E9C9D8C7D
:10596000A7C2E6FFA8C2E6FF0BD8E552E552E55212
:1059700055D14FD9E65246D89D9CC26AE5524ED1C8
:1059800048D9FD0EDBCF38F0FE0EDBCF39F03850B2
:1059900002E1190E391828E0800E381802E10C0EC9
:1059A00039181EE0400E381802E1060E391816E0CC
:1059B000200E381802E1030E39180EE0900E381848
:1059C00002E1010E391806E0C80E381811E139500D
:1059D0000FE10ED0520E09D0520E03D0510E05D059
:1059E000510ECA6E450E07D0500ECA6E8C0E03D0F3
:1059F0006A0ECA6EDD0ECB6ECC6A9F929E929D821D
:105A0000CA840CD19D92CA94120003D9020EE126D9
:105A1000FE0EDBCF00F00201AB51D88000540CE346
:105A20009D9CFE0EDB04E96EEA6A10D9EECFDEFF24
:105A3000EDCFDDFF9D8C02D0DE6ADD6ADECF00F0A7
:105A4000DDCF01F000C0F3FF01C0F4FFD9CFE1FFCB
:105A5000E5D0DFD8FD0EDBCF00F0FE0EDBCF01F08E
:105A6000026A036A880E3B6E130E3C6E3D6A3E6A04
:105A700000C036F001C037F002C038F003C039F082
:105A8000B6EC38F032C000F033C001F034C002F0A0
:105A900035C003F03B6A080E3C6E3D6A3E6A32C078
:105AA00036F033C037F034C038F035C039F052EC3E
:105AB00013F036C000F037C001F038C002F039C032
:105AC00003F036C0F3FF37C0F4FFA8D0A2D8E652E7
:105AD0009D9C36C3DFFF9D8CDF50E5529FD09D9C7F
:105AE0000301366B9D8C1200C282120092D8050E03
:105AF000E126C450DE6EDD6AD9CFE9FFDACFEAFFD6
:105B0000EE50ED6EEF6AC350DE26000EDD22DECFD2
:105B100000F0DDCF01F0026A036A0201BB5182D8B6
:105B20000050EE260150EE220250EE220350EE22EB
:105B3000BB2BAB51BB5D04E3BB6BB92B000EBA238F
:105B4000020EBBC2DBFFDB50040D020EF3CFDBFF06
:105B5000DB80DB50C26EA951B95DAA51BA594AE344
:105B6000030EDB6A040EDB6A67D801AE02D0D89060
:105B700003D0005C000E015820E23FD80201AC5176
:105B80001F0BEECF00F0EECF01F0EECF02F0EECF24
:105B900003F007E0D8900332023201320032E80607
:105BA000F9E15CD853D800C0EEFF01C0EDFF030E51
:105BB000DB2A040ED9E3DB2AD7D7030EDB6A040EF7
:105BC000DB6A3AD801AE02D0D89003D0005C000E58
:105BD00001580BE212D8EE6AEE6AEE6AEE6A030E24
:105BE000DB2A040EEEE3DB2AECD70301362B02019D
:105BF000B96BBA6BD9CFE1FF11D030D8D890E93664
:105C0000EA36D890E936EA36AD0EE926020EEA22E7
:105C10001200D9CFE6FFE1CFD9FF1200E552E7CF5E
:105C2000D9FF1200040DF3CFE9FFF4CFEAFFAD0E68
:105C3000E926020EEA221200030EDBCF00F0040E6A
:105C4000DBCF01F00201AB5100011200D890E93620
:105C5000EA36B50EE926020EEA221200030EDBCF69
:0A5C6000E9FF040EDBCFEAFF12009B
:065C6A00D8CFE4FFE0CFFB
:105C7000E4FFE46EDACFE4FFE2CFDAFFE9CFE4FF3E
:105C8000EACFE4FFF3CFE4FFF4CFE4FF00EE32F01D
:105C9000140EE80403E3EECFE4FFFBD700EE00F0C0
:105CA0001B0EE80403E3EECFE4FFFBD7E652D9CFA7
:105CB000E6FFE1CFD9FF020EE126F250040B07E028
:105CC000F250200B04E0F29453EC37F0AFD09E502A
:105CD000010B07E09D50010B04E09E9054EC37F05F
:105CE000A5D09E50020B07E09D50020B04E09E924F
:105CF00074EC2DF09BD0A150020B07E0A050020BDA
:105D000004E0A19255EC37F091D0A450080B07E0C5
:105D1000A350080B04E0A49656EC37F087D0F0505F
:105D2000020B07E0F050100B04E0F0925DEC37F04E
:105D30007DD0F050040B07E0F050200B04E0F0940D
:105D400068EC37F073D0F250010B43E0F250080BCF
:105D500040E08150DF6EF290DF500701F319E76EEB
:105D6000010EE7CFDBFFDFCFF3F7DBA80AD0100E81
:105D7000DF1402E0010E01D0000EE66E73EC37F086
:105D8000E552010EDBAA0AD0200EDF1402E0010E5C
:105D900001D0000EE66E74EC37F0E552010EDBAC7C
:105DA0000AD0400EDF1402E0010E01D0000EE66EB4
:105DB00075EC37F0E552010EDBAE38D0800EDF1403
:105DC00002E0010E01D0000EE66E76EC37F0E552EF
:105DD0002DD09E50400B07E09D50400B04E09E9C50
:105DE00076EC2DF023D09E50200B06E09D50200B2A
:105DF00003E02DEC30F01AD0A450200B06E0A350A5
:105E0000200B03E04CEC30F011D09E50100B06E05C
:105E10009D50100B03E06BEC30F008D0A450100B39
:105E200005E0A350100B02E083EC30F0D9CFE1FF86
:105E3000E552E7CFD9FFE55200EE1AF01B0EE80459
:105E400003E3E5CFEDFFFBD700EE45F0140EE804C9
:105E500003E3E5CFEDFFFBD7E5CFF4FFE5CFF3FF9D
:105E6000E5CFEAFFE5CFE9FFE5CFDAFFE550E5CF83
:105E7000E0FFE5CFD8FF100002017F0E0B6F0A6F25
:105E8000096F086F076F066F056F046F136F126F4E
:105E9000116F106F0F6F0E6F0D6F0C6F8C928D92D4
:105EA0008C908D908C968D968C948D948C9A8D9AE6
:105EB0008C988D988C9E91908C9C8D9C020121AD2C
:105EC00016D0020140A1FAD7200EE66E020EE66E51
:105ED0003BEC16F0E552E55220EC05F0000EE66EC4
:105EE000020EE66E54EC16F0E552E552E7D71200CA
:025EF00012009E
:0E5EF200150EAF6EAC849D9A9D98AC98AC9E38
:105F0000948EAB9CAB96AB8AAB889F9A9D8A03011B
:105F100034693569949CAC9CAC969F989D88AC8AFA
:105F2000AB8E1200150E6F6E6C84A39AA3986C98BA
:105F30006C9E98846B9C6B966B8A6B88A59AA38ADF
:105F400003013469356998926C9C6C96A598A38876
:105F50006C8A6B8E120007D9E6529D9A93C2DFFFBE
:105F60009D8ADF50E552FBD0FED8E652A39A9FC22D
:105F7000DFFFA38ADF50E552F2D0F5D8E6520201E6
:105F8000905102E0000E15D09151EA6A000FE96EBF
:105F9000070EEA22EFCFDFFF9307912B1F0E911719
:105FA0009D9A9251915D02E1010E906F9D8A8F6BD7
:105FB000DF50E552D4D0D7D8E65202019C5102E01E
:105FC000000E15D09D51EA6A400FE96E070EEA22D5
:105FD000EFCFDFFF9F079D2B1F0E9D17A39A9E51AA
:105FE0009D5D02E1010E9C6FA38A9B6BDF50E55221
:105FF000B6D0B9D802019651FDE19951EA6A200F55
:10600000E96E070EEA22FE0EDBCFEFFF9A2B992BEB
:106010001F0E99179D989951985D02E1010E966F98
:106020009D88976B9CD09FD80201A251FDE1A5519C
:10603000EA6A600FE96E070EEA22FE0EDBCFEFFF81
:10604000A62BA52B1F0EA517A398A551A45D02E1B1
:10605000010EA26FA388A36B82D002018F5102E0D0
:106060009D9A12009251EA6A000FE96E070EEA2229
:10607000AECFEFFFABA203D0AB98AB88942BABB401
:10608000952B932B922B1F0E92179251915D02E14B
:10609000010E8F6F906B120002019B5102E0A39AD8
:1060A00012009E51EA6A400FE96E070EEA226ECF97
:1060B000EFFF6BA203D06B986B88A02B6BB4A12B66
:1060C0009F2B9E2B1F0E9E179E519D5D02E1010E80
:1060D0009B6F9C6B12000201975102E09D98120089
:1060E0009851EA6A200FE96E070EEA22EF50AD6E72
:1060F0009A07982B1F0E98179951985D02E1010E8F
:10610000976F966B12000201A35102E0A398120050
:10611000A451EA6A600FE96E070EEA22EF506D6E35
:10612000A607A42B1F0EA417A551A45D02E1010E22
:10613000A36FA26B120017D802018E510FE08E05DB
:1061400005E1FE0EDBCFE6FF54DF07D0020E8E5DC9
:1061500005E1FE0EDBCFE6FF66DFE55200D0E5523B
:10616000E7CFD9FF1200D9CFE6FFE1CFD9FF120068
:1061700021D9A69EFD0EDB50A96EFE0EDBCF01F0ED
:1061800001C000F00150AA6EA680A85022D112D9F9
:10619000E65203011D511EE12051EA6A800FE96EAB
:1061A000070EEA22FC0EDBCFEFFF2051E8D8FD0EF0
:1061B000DBCFEEFFFE0EDBCFEDFF1C2B202B1F0EE7
:1061C000201720511F5D02E1010E1D6F1E6B010E95
:1061D000DF6E01D0DF6ADF50E552FBD0EBD8030E53
:1061E000E12603011E514DE1F250800B01E0010E4A
:1061F000E76E010EE7CFDBFFF250400B01E0010E2E
:10620000E76E020EE7CFDBFFA69EA698A1981F516E
:10621000B6D8EF50A96E1F51B2D8EECF00F0EFCF35
:1062200001F001C000F0016A0050AA6E1F51EA6A35
:10623000800FE96E070EEA22EF50A86EA684F29E48
:10624000F29C550EA76EAA0EA76EA682010EB7D8B5
:10625000F3467F0EF214F310F26E020EB0D8BF0EAA
:10626000F214F310F26E1C071F2B1F0E1F17205184
:106270001F5D02E1010E1E6F1D6BA1A8FED7A19844
