:020000040000FA
:060800003FEF1FF01200A3
:02080600FEFFF3
:060808004BEF0AF01200A4
:02080E00C250D6
:08081000020B01E0010E1200D1
:060818004BEF1BF0120083
:02081E000700D1
:10082000363F0000230200000A000000323F0000B3
:100830003B02000004000000193F0000000200001D
:100840001900000006080000460200000200000037
:10085000153F000037020000040000000F3F0000B9
:100860002D020000060000000C3F00003F020000C7
:040870000300000081
:0C08740076EC09F0FB0EDBCFF3FFDB0697
:10088000F35000090AE0C4EC09F0FA0E2FEC0AF06C
:10089000F3E12C1CF1E1010E01D0000EA5EF09F0EF
:1008A00076EC09F03B0EE12402E3E168E652E16EEA
:1008B000010EDB6A020EDB6AF90EDBCFF6FFFA0EE1
:1008C000DBCFF7FFFB0EDBCFF8FF0800F550DF6E44
:1008D000DF5002E1CBEF08F0250EDF5C02E0BEEF57
:1008E00008F0030EDB6A040EDB6A050EDB6A060EF7
:1008F000DB6A070EDB6ADEEC08F02D0EDF5C0CE035
:100900002B0EDF5C09E0200EDF5C06E0230EDF5CCF
:1009100003E0300EDF5C1AE1DF50300A14E0130A06
:100920000FE0030A0AE00B0A05E0060AE4E1030E01
:10093000DB80E1D7030EDB82DED7030EDB84DBD75F
:10094000030EDB86D8D7030EDB88D5D72A0EDF5CF3
:100950001BE1DAEC08F028EC09F010E0030EDB8074
:100960001D681E68130EDBCF22F0140EDBCF23F0C0
:100970002FEC14F0040E1BC0DBFF03D0130E11ECA0
:1009800009F0DEEC08F00BD0090EDB6A7FEC09F011
:1009900003E0F3EC09F0FAD7090E11EC09F0030EAD
:1009A000DBB0DB982E0EDF5C1BE1DEEC08F02A0EDC
:1009B000DF5C0BE1DAEC08F028EC09F003E1130E40
:1009C00063EC09F0DEEC08F00BD0090EDB6A7FEC7B
:1009D00009F003E0F3EC09F0FAD7090E63EC09F033
:1009E000680EDF5C07E1DEEC08F0680EDF5C1DE1FD
:1009F000030E18D0740EDF5C17E07A0EDF5C14E093
:100A0000480EDF5C06E0540EDF5C03E05A0EDF5C4C
:100A100002E1020E07D06C0EDF5C03E06A0EDF5CC1
:100A200004E1010EB6EC09F0C9DBDF506E0A01E10A
:100A300081D31E0A01E192D1200A01E18FD13F0A40
:100A400001E149D11A0A01E146D10D0A01E143D180
:100A5000200A01E140D13A0A01E13DD1200A01E139
:100A60003AD1260A01E135D10D0A01E132D11A0A43
:100A700001E1D9D0200A4AE0300A1FE0460A0EE020
:100A8000250A01E085D3D950F90FE96EFF0EDA206F
:100A9000EA6E010EEE5E000EEE5AEE5AC4EC09F05C
:100AA000250EE66E95DB03E12C1C01E16BD3C0EC57
:100AB00009F001E26DD3DB2A6BD3080EDB6A040E6A
:100AC000DB50010806E2040EDB0488EC09F0DB5081
:100AD0008BDB080EDB5009E0030EDB50010B05E158
:100AE00072DB01E04FD3080EDB6A64DBEFCFDFFF80
:100AF00038EC0AF003E12C1C01E144D3C0EC09F00E
:100B000001E3DB2A60DB01E143D33CD3070EDB507A
:100B100002080FE104EC0AF0030ECBEC09F00E0E14
:100B2000EECFDBFF0F0EEECFDBFF100EEECFDBFFC5
:100B300020D0F70EDBCF2EF0F80EDBCF2FF0020E19
:100B40002E5E000E2F5AF70E2EC0DBFFF80E2FC0C0
:100B5000DBFF2EC0E9FF2FC0EAFFBBEC09F02D6AD6
:100B60000E0E2BC0DBFF0F0E2CC0DBFF100E2DC0B6
:100B7000DBFF0E0EDBCFE6FF0F0EDBCFE6FF100E26
:100B8000DBCFE6FF37EC1EF0E552E552E552130EDF
:100B90001CC0DBFF140E1DC0DBFF060EDB5005E0A2
:100BA000130EFFEC09F001E26ADB23EC0AF002E22B
:100BB000130E37DBE6EC09F006E0040EFFEC09F05B
:100BC00002E2050E2EDB030EDBB005D0FCDA01E0FD
:100BD000D9D2080EDB6A090EDB6A0E0EDBCFF6FFF8
:100BE0000F0EDBCFF7FF100EDBCFF8FF0800F5503C
:100BF000DF6EDF5014E029EC0AF011E238EC0AF065
:100C000003E12C1C01E1BED2BBDB01E3DB2A090EB0
:100C1000DB2AD9500E0FE96E000ECBDBE7D7D3DA13
:100C200001E1B6D2AFD2C6DA110EEECFDBFF120E63
:100C3000EDCFDBFF110EDBCFE6FF120EDBCFE6FFC1
:100C400029EC1EF0E552E552130EF3CFDBFF140E34
:100C5000F4CFDBFF060EDB5004E0130ED0DB01E225
:100C60000EDB23EC0AF002E2130EDBDAAFDB05E069
:100C7000040EC5DB02E2050ED4DA030EDBB005D0AC
:100C8000A2DA01E07FD2080EDB6A090EDB6A110EE0
:100C9000DBCFE9FF120EDBCFEAFFEFCFDFFFDF5044
:100CA00014E0D7DB12E2E4DB03E12C1C01E16AD2A1
:100CB00067DB01E3DB2A090EDB2A110EDB2ADBCF1F
:100CC000E9FF120EE8E3DB2AE6D77DDA01E160D224
:100CD00059D2030EDB8E070EDB0410E195DB040E08
:100CE0005ADB0A0EEECFDBFF0B0EEECFDBFF0C0E56
:100CF000EECFDBFF0D0EEECFDBFF6CD0070EDB502F
:100D000003082CE1030EDBAE0DD0B2DA020E76DA68
:100D1000EFCF2BF02C6A2D6A2E6A2BAE39D02C68BF
:100D20002D6835D0F70EDBCF2CF0F80EDBCF2DF091
:100D3000020E2C5E000E2D5AF70E2CC0DBFFF80EB3
:100D40002DC0DBFF2CC0E9FF2DC0EAFFEFCF2BF059
:100D50000A0E2BC0DBFF0B0EDB6A38D0070EDB5010
:100D6000020809E1030EDBAE04D059DB2DAE10D032
:100D70000ED055DB0DD0030EDBAE12D079DA020EA9
:100D80003DDAF9DA2D6A2E6A2CAE02D02D682E6873
:100D9000E2DA0C0E2DC0DBFF0D0E2EC0DBFF1AD0E9
:100DA000F70EDBCF2DF0F80EDBCF2EF0020E2D5E0E
:100DB000000E2E5AF70E2DC0DBFFF80E2EC0DBFF03
:100DC0002DC0E9FF2EC0EAFFD6DAC5DA0C0EDB6AC9
:100DD0000D0EDB6A060EDB5005E1010EF36E050E0B
:100DE000F3CFDBFF150EDB6A160EDB6AD950370F27
:100DF0002B6E000EDA202C6E390E2BC0DBFF3A0E64
:100E00002CC0DBFF380EDB6A080EDB6A0A0EAEDA96
:100E1000DF50780A12E0200A10E0280A0CE0200ACD
:100E20000AE03F0A06E00D0A02E0200A08E1020E8D
:100E300005D0080E03D0080EDF26100E97DA030E39
:100E4000DBBE02D0DB92DB94DB50800B26E08ADA3B
:100E5000030EEB50000AE8AE02D0D89008D0000E86
:100E6000EE5C000EEE58000EEE58000EEE5815E245
:100E700011DA2068216822682368BDEC1DF00A0E93
:100E800017C0DBFF0B0E18C0DBFF0C0E19C0DBFF19
:100E90000D0E1AC0DBFF2D0E08D0030EDBA202D010
:100EA0002B0E03D0DBA408D0200EF36E170EF3CF69
:100EB000DBFF150EDB2A02D0170EDB6A050EDB50B6
:100EC00003E1B5D901E189D0F00E2B6E3E0E2C6EF8
:100ED000000E2D6E070EDBCF2EF02F6A306A316ABE
:100EE0002EC020F02FC021F030C022F031C023F0FE
:100EF000D1D9C1EC1EF02B501724F36E2C501820C2
:100F0000F46E2D501920F86EF4CFF7FFF3CFF6FFF3
:100F10000800090EF5CFDBFF580EDF5C0FE1610E14
:100F2000F36E090E79D90AE3200E2B6E090EDBCF82
:100F3000E7FF2B50E75E090EE7CFDBFF070EDBCFA5
:100F40002BF02C6A2D6A2E6A0DDA2BC020F02CC0F3
:100F500021F02DC022F02EC023F0EECF1BF0EECFFB
:100F60001CF0EECF1DF0EFCF1EF0C1EC1EF01EC046
:100F7000EDFF1DC0EDFF1CC0EDFF1BC0EFFF390EE4
:100F8000DBCFE9FFDB063A0EDBCFEAFF01E2DB064F
:100F9000090EDBCFEFFF150EDB2A49D995E1030ED1
:100FA000DBA61DD06F0EDF5C06E1BFD918E3150E7E
:100FB000DB2859DA14D0780EDF5C09E0580EDF5CCC
:100FC00006E0620EDF5C03E0420EDF5C08E1020E29
:100FD000F36E160EF3CFDBFF02D0150EDB6A030EA5
:100FE000DB50100B0EE0040EDBCF2BF0050EDB50B8
:100FF000D8802B5406E2060EDB5003E1040EDB50D2
:1010000032DA93D90AE2050EDBCFE7FF150EDB508B
:10101000E75E050EE7CFDBFF02D0050EDB6A040EAC
:10102000DBCF2BF0160E43D9D8802B5414E2160ECA
:10103000DBCFE6FF150EDBCFE6FF040EDBCFE6FFCE
:10104000050EDB50E552E75CE552D880E754E552E7
:10105000D880E7545DD9030EDB50010B0BE1080E7D
:10106000DB5008E0B0D801E08DD0080EDB50BCD8D2
:10107000080EDB6A170EDB5007E086D9170EEFD992
:1010800003E12C1C01E17ED0160EDB5016E07CD96A
:10109000300EE66E9DD802E12C1C74E075D9DFCFCE
:1010A000E6FF7BEC1DF0E552E552E552F4CF2CF063
:1010B0000001F31C02E12C1C65E0050EDBCF2BF0D8
:1010C000160EDB50D8802B5409E2050EDBCFE7FF6C
:1010D000160EDB50E75E050EE7CFDBFF300EE66E47
:1010E000050EC9D94FE1390EDB2ADBCFE9FF3A0EF5
:1010F00001E3DB2ADBCFEAFF090EEFCFDBFFDB509A
:101100000EE042D9090EABD902E12C1C3BE0390EAE
:10111000DB2ADBCFE9FF3A0EEDE3DB2AEBD753D82E
:1011200031E1160EDBCFE6FF080EC1D8E552E72409
:101130005BD82ED0070EDB50030A1CE0010A14E036
:10114000030A07E079D9DBCFEEFF020EDBCFEDFF1C
:101150001FD0F3D8306A2EAE02D02F6830682AD85C
:10116000BAD830C0EEFF14D0E8D82EBE2F6822D8EF
:10117000B2D80ED061D9DBCFEFFF0AD079D905E123
:101180002C1C03E1F368F46810D0FAD801E3DB2AE1
:1011900077D965EF04F0010EDBCF2BF0020EDBCF29
:1011A0002CF02BC0F3FF2CC0F4FFD9CFE1FFDACF36
:1011B000E2FFCBD029D9020ECBEF09F061D90800AC
:1011C000F550DF6E1200200EE66E080E3BEF0AF0BF
:1011D0007BEC1DF0E552E552E552F3CF2BF0F4CF56
:1011E0002CF00001F31C12002B6E2C6AD950010F59
:1011F0004DD92B50EE262C50ED2212002F5E000E02
:10120000305AF70E2FC0DBFFF80E30C0DBFF2FC0C7
:10121000E9FF30C0EAFF1200DBCFF4FFF350F45CCB
:101220001200DB50E76E040EE7CFDBFF12000A0E60
:10123000DBCF2BF00B0EDBCF2CF00C0EDBCF2DF029
:101240000D0EDBCF2EF02B502C102D102E10120077
:10125000130EEECFDBFF140EEDCFDBFF130EDBCF53
:101260002BF0140EDBCF2CF00001800E2C1412009A
:10127000F70EDBCF2FF0F80EDBCF30F01200050EAB
:10128000DB50E66ED950130F01D9E552E750EE6EF0
:10129000ED6A12000A0EDBCF1BF00B0EDBCF1CF049
:1012A0000C0EDBCF1DF00D0EDBCF1EF01200DBCFDE
:1012B000E6FF150EDBCFE6FF050EDB50E552E72417
:1012C000E552E7241200DB50CED8010EF36E060E75
:1012D000F3CFDBFF1200EE50EFCFEAFFE96E2DC037
:1012E000EEFF2EC0EEFF2FC0EEFF1200D9CFE6FFBB
:1012F000DACFE6FFE1CFD9FFE2CFDAFF1200DFCF8E
:10130000E6FFE66A2DEC1FF0E552E552F3501200BD
:10131000E76E080EE7CFDBFF1200EECF2BF0EECF2B
:101320002CF0EFCF2DF02E6A1200050EDBCF2BF044
:10133000150EDB50D8802B541200010EDBCF2DF0A0
:10134000020EDBCF2EF02F6A1200E552E5CFDAFF56
:10135000E7CFD9FF12000A0E2BC0DBFF0B0E2CC00B
:10136000DBFF1200D9500A0F46EF0AF0F36E070EAA
:10137000F3CFDBFF1200EECF2BF0EFCF2CF01200FB
:10138000010EDB2A020E1200FC0EDBCFE6FFFD0E83
:10139000DBCFE6FF12002B5E000E2C5AF70E2BC09F
:1013A000DBFFF80E2CC0DBFF2BC0E9FF2CC0EAFFEF
:1013B0001200DA20EA6EEF2AEECFF6FF000EEF22DF
:1013C000EECFF7FFEF22EECFF8FF1200040EDBCFD7
:1013D000E6FF130EDB50E552E75C9ADFDB5004DFDB
:1013E000060EDB501200090EDB500A0DF350DF240D
:1013F000D00FE76E090EE7CFDBFFDEEF08F0DB5022
:10140000F36E050E0CEF09F0F70EDBCF2BF0F80EA4
:10141000DBCF2CF01200DFCFE6FFE8EF08F028DF8B
:10142000030EECDE8DEF09F03AEC04F0E552E552E4
:10143000E552E55200091200BDDEEE50EFCFEAFFA3
:10144000E96E010E1200130EDB50F36E040E0CEF6A
:1014500009F0040EDB50F36E090E0CEF09F0DBCF40
:10146000E6FFE8EF08F0E76E050EE7CFDBFF1200BE
:101470008BDF0BEF0AF0DBCFE6FF86DF14EF0AF01D
:10148000D950F90FE96EFF0ED9EF09F0E96E000EA1
:06149000DA20EA6E1200F2
:0A149600D8CFE4FFE0CFE4FFE46EDE
:1014A000DACFE4FFE2CFDAFFE9CFE4FFEACFE4FFEF
:1014B000E652F2A202D0A5D802D09EB6D1D8E5520B
:1014C000E5CFEAFFE5CFE9FFE5CFDAFFE550E5CF6D
:1014D000E0FFE5CFD8FF1000E66A010EE66E050ECC
:1014E000E66E5CEC1EF0E552E552E5521200070E86
:1014F000B46E000E886E876E866E856E846E836E07
:10150000826E816E806E916E906E8F6E8E6E8D6E1D
:101510008C6E8B6E8A6E896E2F0E926E93689C0E07
:10152000946E956A966A9768040E986E0E0E9A6E7F
:101530009968C16AF19EB0989C8EA26A9F6AA06A5F
:101540009D6AA36AA56AC8DF9F86D08E9E969D86F7
:101550009382F06AF288F09EF098F192F09AF16A24
:10156000F28CF28E1200D9CFE6FFE1CFD9FFE6521E
:10157000BEDF0101C097C0990101840EFD6F010E0D
:10158000FE6FDF6A100EDF5C0AE2DF50EA6AFD25BB
:10159000E96EFE51EA227F0EEF6EDF2AF3D70101DA
:1015A0009D6B010E9E6FC20E9F6F0101C0850101F0
:1015B000A26BA36B0101806B826B836B010ED56EF6
:1015C000320ED76ECF0ED66ED59E800EE66E010E11
:1015D000E66E8BD8E552E5520101C093800EE66EAF
:1015E000010EE66E82D8E552E5520101C093E55244
:1015F000E552E7CFD9FF12008282808894929298B8
:101600001200F2920101200EF96F9F860101C0A91C
:1016100006D00101E00EF66F000EF76F05D0010154
:10162000C00EF66F000EF76F0101C0A1C079C0A710
:1016300006D00101800EF46F000EF56F05D0010198
:10164000A00EF46F000EF56FC9CFFAF1F4C1E9FFF7
:10165000F5C1EAFFF42B000EF523EF50C96E12001E
:101660009E96C9CFFAF10101F951000823E2F6C1B3
:10167000E9FFF7C1EAFFF62B000EF723FAC1EFFFEF
:10168000F4C1E9FFF5C1EAFFF42BF523EFCFFAF13E
:10169000FAC1C9FFF907F9510CE10101020E9E6F71
:1016A0000101C093C081320ED76ECF0ED66EF29478
:1016B000D58E01D0C96A1200D9CFE6FFE1CFD9FF9C
:1016C0000101C0A10ED0FD0EDBCFE6FFFE0EDBCF89
:1016D000E6FFC4EC15F0E552E5529D960101C0917C
:1016E0009D86E552E7CFD9FF1200D9CFE6FFE1CFC3
:1016F000D9FF0101C0B332D0FD0EDBCFE9FFFE0EF2
:10170000DBCFEAFF1E0EE926000EEA22EF500208A8
:1017100009E1FD0EDBCFE6FFFE0EDBCFE6FF69D869
:10172000E552E552FD0EDBCFE9FFFE0EDBCFEAFF0F
:10173000150EE926000EEA22EF9EFD0EDBCFE6FF36
:10174000FE0EDBCFE6FF32EC15F0E552E5529D963A
:101750000101C077C0839D8601019D2BE552E7CF33
:10176000D9FF12009D960101C0919D861200D9CF2C
:10177000E6FFE1CFD9FF0001166BD950FD0FE96EEE
:10178000FF0EDA20EA6E010EEE1801E1ED5002E1E3
:10179000168101D0BA6AD950FB0FE96EFF0EDA202C
:1017A000EA6E010EEE1801E1ED5002E1168301D060
:1017B000B76AD950F90FE96EFF0EDA20EA6E010E12
:1017C000EE1801E1ED5002E1168501D0736AD9509F
:1017D000F70FE96EFF0EDA20EA6E010EEE1801E156
:1017E000ED5002E1168701D0706AE552E7CFD9FFCC
:1017F0001200D9CFE6FFE1CFD9FFFD0EDBCFE9FF25
:10180000FE0EDBCFEAFF1C0EE926000EEA22EF6A8D
:10181000FD0EDBCFE9FFFE0EDBCFEAFF170EE92658
:10182000000EEA22EF6AC6AE0ED0C69EFD0EDBCFDA
:10183000E9FFFE0EDBCFEAFF170EE926000EEA22D3
:10184000010EEF6E22D0F150800B10E0F250080B29
:101850000DE0FD0EDBCFE9FFFE0EDBCFEAFF170E3A
:10186000E926000EEA22020EEF6E0FD0F0A60DD090
:10187000909EFD0EDBCFE9FFFE0EDBCFEAFF170ED9
:10188000E926000EEA22030EEF6E250EC614250887
:1018900019E0FD0EDBCFE9FFFE0EDBCFEAFF1C0EE9
:1018A000E926000EEA22010EEF6EFD0EDBCFE9FF06
:1018B000FE0EDBCFEAFF170EE926000EEA22C6CFA6
:1018C000EFFF80D1C55019E0FD0EDBCFE9FFFE0E22
:1018D000DBCFEAFF1C0EE926000EEA22020EEF6EB5
:1018E000FD0EDBCFE9FFFE0EDBCFEAFF170EE92688
:1018F000000EEA22C5CFEFFF65D1D0BE19D0FD0E94
:10190000DBCFE9FFFE0EDBCFEAFF1C0EE926000E5F
:10191000EA22030EEF6EFD0EDBCFE9FFFE0EDBCFFA
:10192000EAFF170EE926000EEA22D0CFEFFF4AD1D8
:101930009DB619D0FD0EDBCFE9FFFE0EDBCFEAFF2F
:101940001C0EE926000EEA22040EEF6EFD0EDBCF20
:10195000E9FFFE0EDBCFEAFF170EE926000EEA22B2
:101960009DCFEFFF2FD19C5019E0FD0EDBCFE9FF9B
:10197000FE0EDBCFEAFF1C0EE926000EEA22050E62
:10198000EF6EFD0EDBCFE9FFFE0EDBCFEAFF170E99
:10199000E926000EEA229CCFEFFF14D1080E9F5CCF
:1019A00019E0FD0EDBCFE9FFFE0EDBCFEAFF1C0ED8
:1019B000E926000EEA22060EEF6EFD0EDBCFE9FFF0
:1019C000FE0EDBCFEAFF170EE926000EEA229FCFBC
:1019D000EFFFF8D0A25019E0FD0EDBCFE9FFFE0EBD
:1019E000DBCFEAFF1C0EE926000EEA22070EEF6E9F
:1019F000FD0EDBCFE9FFFE0EDBCFEAFF170EE92677
:101A0000000EEA22A2CFEFFFDDD0A55019E0FD0EB7
:101A1000DBCFE9FFFE0EDBCFEAFF1C0EE926000E4E
:101A2000EA22080EEF6EFD0EDBCFE9FFFE0EDBCFE4
:101A3000EAFF170EE926000EEA22A5CFEFFFC2D07B
:101A4000100EF214100819E0FD0EDBCFE9FFFE0EB8
:101A5000DBCFEAFF1C0EE926000EEA22090EEF6E2C
:101A6000FD0EDBCFE9FFFE0EDBCFEAFF170EE92606
:101A7000000EEA22F2CFEFFFA5D0470EF11419E0D5
:101A8000FD0EDBCFE9FFFE0EDBCFEAFF1C0EE926E1
:101A9000000EEA220A0EEF6EFD0EDBCFE9FFFE0E0E
:101AA000DBCFEAFF170EE926000EEA22F1CFEFFFA7
:101AB00089D0C00EF01419E0FD0EDBCFE9FFFE0E59
:101AC000DBCFEAFF1C0EE926000EEA220B0EEF6EBA
:101AD000FD0EDBCFE9FFFE0EDBCFEAFF170EE92696
:101AE000000EEA22F0CFEFFF6DD092A819D0FD0EC4
:101AF000DBCFE9FFFE0EDBCFEAFF1C0EE926000E6E
:101B0000EA220C0EEF6EFD0EDBCFE9FFFE0EDBCFFF
:101B1000EAFF170EE926000EEA2292CFEFFF52D01D
:101B200093B019D0FD0EDBCFE9FFFE0EDBCFEAFF4D
:101B30001C0EE926000EEA220D0EEF6EFD0EDBCF25
:101B4000E9FFFE0EDBCFEAFF170EE926000EEA22C0
:101B500093CFEFFF37D03E0E94141C0819E0FD0E12
:101B6000DBCFE9FFFE0EDBCFEAFF1C0EE926000EFD
:101B7000EA220E0EEF6EFD0EDBCFE9FFFE0EDBCF8D
:101B8000EAFF170EE926000EEA2294CFEFFF1AD0E3
:101B900097BE18D0FD0EDBCFE9FFFE0EDBCFEAFFCC
:101BA0001C0EE926000EEA220F0EEF6EFD0EDBCFB3
:101BB000E9FFFE0EDBCFEAFF170EE926000EEA2250
:0C1BC00097CFEFFFE552E7CFD9FF1200EE
:041BCC00E1DAFE0E4E
:101BD000DB5007E1C5DAEF507F0803E2C1DA7F0E80
:101BE000EF6EDBD2D5DAFE0EDB5009E1B9DAEFCFCA
:101BF0002BF07F0E2B5C03E2B3DA7F0EEF6ECDD2BB
:101C0000C7DAD7DAD8902C5004E6D00E2B5C070E3A
:101C10002C5805E20201D00E426F070E0CD0C9DA33
:101C20002C340BE22B50CE08080E2C5406E2020195
:101C3000CE0E426F080E436F06D0FD0EDBCF42F290
:101C4000FE0EDBCF43F242C22BF043C22CF0D00E8B
:101C50002B5E070E2C5A2B50A0D2F00EE66E48ECED
:101C60001AF0E552938A9388938693849982998097
:101C7000938E938C9A849A82998699849A8A9A8868
:101C800094809A869A8E9A9C919C01017F0E8B6F0C
:101C90008A6F896F886F876F866F856F846F936F88
:101CA000926F916F906F8F6F8E6F8D6F8C6F010E33
:101CB000E66EE66AE66EE66AE66EE66AE66EE66A94
:101CC000B7EC0BF0F56E080EE15EF550F0EC1BF092
:101CD00093EC18F0ACEC18F00201010E006F47DA3B
:101CE000FCEF0AF055DA020EE126A00EE66E010EB8
:101CF000E66E5CEC0BF0E552E55299EC1AF0F1EC73
:101D000010F0D4EC16F005EC18F0020803E1010124
:101D1000818502D00101819512D893C1E6FF92C15D
:101D2000E6FF91C1E6FF90C1E6FFFCEC1BF0E55237
:101D3000E552E552E5521BDAD9CFE1FF2ED2A6C11A
:101D400086F1A6C184F1A7C187F1A7C185F1010180
:101D5000A65127DA2BC0AAF10101885122DA2BC043
:101D6000A6F101012B502CDA00012D242B6E000E60
:101D70002E202C6E7F0E2B5E000E2C5A01DA0101F4
:101D8000916F906F0101A6511BDA2F6E306A2F50B0
:101D90002D5C2B6E30502E582C6E7F0E2B26000E95
:101DA0002C22EED90101936F926F8150040B01E058
:101DB000010E2B6E0101A251010B2B14010BF36ECE
:101DC000FE0E8D14F3108D6E8150080B01E0010E94
:101DD0002B6EA251020B01E0010E2B14010BF36ECE
:101DE000FE0E8C14F3108C6E8150100B01E0010E6E
:101DF0002B6EA351010B2B14EAD98D14F3108D6EA9
:101E00008150200B01E0010E2B6EA351020B01E06B
:101E1000010E2B14DCD98C14F3108C6EA251100B14
:101E200002E08D8401D08D94A251200B02E08C84BD
:101E300001D08C94A351100B02E08D8601D08D96B9
:101E4000A351200B02E08C8601D08C96A251040B8A
:101E500002E08D8801D08D98A251080B02E08C8899
:101E600001D08C98A251400B02E08D8A01D08D9A4E
:101E7000A251800B02E08C8A01D08C9AA351400BB6
:101E800002E08D8C01D08D9CA351800B02E08C8CE4
:101E900001D08C9C8850800B02E0919001D0918001
:101EA0008C9E860EE66E010EE66E8150400B01E0C0
:101EB000010E4AD9860EE66E010EE66E8150800B49
:101EC00001E0010E47D9870EE66E010EE66E8750DF
:101ED000010B3AD9870EE66E010EE66E8750020BB3
:101EE00001E0010E37D98C0EE66E010EE66E8750CA
:101EF000040B01E0010E28D98C0EE66E010EE66E91
:101F00008750080B01E0010E25D98D0EE66E010EFB
:101F1000E66E8850020B01E0010E16D98D0EE66EBA
:101F2000010EE66E8850040B01E0010E13D98E0EEF
:101F3000E66E010EE66E8850080B01E0010E04D932
:101F40008E0EE66E010EE66E8250010B03D98F0EE7
:101F5000E66E010EE66E8850100B01E0010EF4D81B
:101F60008F0EE66E010EE66E8850200B01E0010E2A
:101F7000F1D80101A1BBADD0000EA65D06E3A651CC
:101F8000380803E3010180910FD07D0EA65D0EE3BA
:101F9000A6512B6E2C6A2C3404E22B508108000EC3
:101FA0002C5404E30101808180831BD0A6512B6E49
:101FB0002C6AD8902C5004E6D80E2B5C000E2C58BE
:101FC0000DE3A6512D6E2E6A2E3404E22D50FF082B
:101FD000000E2E5403E30101808102D001018091A3
:101FE0008093000E0101A75D06E3A751380803E3C3
:101FF000010180950FD07D0EA75D0EE3A7512B6EDA
:102000002C6A2C3404E22B508108000E2C5404E37B
:102010000101808580871BD0A7512B6E2C6AD89038
:102020002C5004E6D80E2B5C000E2C580DE3A75163
:102030002D6E2E6A2E3404E22D50FF08000E2E5411
:1020400003E30101808502D0010180958097809B88
:102050008D50010B01E0808B80998C50010B01E0C9
:102060008089809F8D50020B01E0808F809D8C5075
:10207000020B01E0808D8150040B01E0010EACD811
:1020800002E0000E01D0010E010BF36EFE0E811571
:10209000F310816F8150080B01E0010E9DD802E022
:1020A000000E01D0010E93D88115F310816F81507D
:1020B000100B01E0010E90D802E0000E01D0010EDD
:1020C000010BF36EF346F346FB0E8115F310816F9F
:1020D0001200B7C11EF038EC13F01CC033F01DC065
:1020E00034F01EC035F01FC036F0710E216E3D0E6B
:1020F000226E7A0E236E410E246E9CEC13F01CC0EF
:102100002FF01DC030F01EC031F01FC032F0216A28
:10211000226A800E236E430E246E49EC13F01CC01D
:102120002BF01DC02CF01EC02DF01FC02EF0216A18
:10213000226A200E236E410E246E9CEC13F05CECA0
:1021400014F01EC080F11200E66E40DDE552E5524B
:10215000E5521200E66E46DDE552E552E552120008
:10216000FC0EDBCFE9FFFD0EDBCFEAFF1200800E95
:10217000E66E010EE66E75EC0BF0E552E5521200CC
:102180002BC0E6FF2CC0E6FF3BDDE552E552120016
:10219000D9CFE6FFE1CFD9FF1200E552E7CFD9FF53
:1021A00012002B6E2C6AFF0ED8802B56000E2C5678
:1021B0001200FD0EDBCF2BF0FE0EDBCF2CF0120059
:1021C0002E6AD00F2D6E070E2E22AA511200010B7F
:1021D000F36EF346FD0E12002B6E2C6AE8502C10A5
:0221E0001200EB
:0E21E20031DA040EE126020123510AE1D1D8C0
:1021F000DF6EDF0404E10201010E236F02D0DF5025
:102200000108FAD9E76E010EE7CFDBFFDB500008CB
:1022100017E2030EDB6A010EDB50F36E030EDBCF19
:10222000F4FFF350F45C0CE2E9D9E76E020EE7CF5D
:10223000DBFFDBCFE6FF07D8E552030EDB2AEBD747
:10224000D9CFE1FF05D2FFD902012A51060A01E1E7
:102250007FD0030A60E0060A2EE0010A23E0030AA9
:1022600001E096D0FE0EDB502B6E2C6AFF0E2B1871
:1022700004E12C5002E1020E8AD0FE0EDB50410830
:1022800006E10101020EEC6F0201050E80D0FE0E88
:10229000DB504E0801E07CD00101020EEC6F020120
:1022A000060E75D0FE0EDB50540870E10101EB6B99
:1022B0000201030E6CD00101EB512B6E2C6A080E4B
:1022C0002B5C000E2C580AE2EB51EA6AC90FE96E4A
:1022D000010EEA22FE0EDBCFEFFFEB2BEB512B6E54
:1022E0002C6A080E2B1854E12C5052E1C9C1C1F1DF
:1022F000CAC1C2F1CBC1C3F1CCC1C4F1CDC1C5F1DA
:10230000CEC1C6F1CFC1C7F1D0C1C8F10201242BA3
:10231000000E25233BD0020E0101EC5D04E1FE0E10
:10232000DB50430824E0030EEC5D04E1FE0EDB50BD
:102330004B081DE0040EEC5D09E1FE0EDB500D08BC
:1023400005E10201262B000E272320D002011ED01A
:10235000020E0101EC5D04E1FE0EDB50430807E0D4
:10236000030EEC5D06E1FE0EDB504B0802E1EC2BA8
:102370000FD0040EEC5D09E1FE0EDB500D0805E107
:102380000201282B000E292301D00201010E2A6F21
:102390005FD159D9E65202012B0507E1FCD8050EA1
:1023A000E66E02D9E55202012B6B2C050DE12C6B78
:1023B0000101EE6B010EED6FEF6BF06BF16B020143
:1023C000266B276B286B296B0101EE0528E10201C2
:1023D000010E265D000E275905E30101EE6BEF6B40
:1023E000F06BC3D0010E285D000E295903E30101F3
:1023F000ED05BAD001010A0EEF5D000EF0590BE3B6
:10240000800EED252B6E2C6A000E2C222B062C5AEA
:102410002BC0F1F1AAD0EF2B000EF023A6D00201C1
:10242000266B276B286B296B0101ED51120A01E124
:102430009AD0030A01E180D0010A01E177D01F0A96
:102440006FE0010A67E0030A5FE0010A57E0070A4C
:102450004FE0010A45E0030A3DE0010A35E00F0ABA
:102460002DE0010A25E0030A1DE0010A15E0070A34
:102470000DE0010A07E0030A01E077D08CD80101E2
:10248000020E01D0030EED6FEE6B6FD0800EE66E84
:10249000290ECAD8040E63D0200EE66E130EC4D8DF
:1024A000050E5DD0840EE66E2D0EBED8060E57D0FA
:1024B000800EE66E2A0EB8D8070E51D0200EE66EBA
:1024C0002B0EB2D8080E4BD0840EE66E2D0EACD873
:1024D000090E45D0200EE66E120EA6D80A0E3FD089
:1024E000E66AE66A81D8E552E55201010B0E37D063
:1024F000800EE66E010E98D80C0E31D0800EE66E7E
:10250000020E92D80D0E2BD0800EE66E030E8CD8E4
:102510000E0E25D0010EE66E060E86D80F0E1FD0C9
:10252000010EE66E100E80D8100E19D0E66A4AD859
:10253000E5520101110E13D0910EE66E640EE66EA7
:10254000110EE66E0F0EE66E730EE66E550EE66E1B
:1025500016D8F56E060EE15EF5500101120EED6F14
:10256000010EEE6F02D0010EF16FF151000803E28F
:102570000201010E2C6F0101F151E55269D063D8BF
:10258000540E5DD8430E5BD8060E66D8FA0E52D8AC
:10259000F90E50D85DD00D0E1FEF13F00201236B22
:1025A00012000201235112004ED8520E48D84D0E8F
:1025B00046D8200E44D8FE0EDB50300F40D80D0E0A
:1025C0003ED846D040D84E0E3AD8460E38D8010EE6
:1025D00036D8FE0E2FD83CD036D8560E30D8570EEF
:1025E0002ED8040E39D834D02ED8430E28D8520E07
:1025F00026D8020E37D82CD0CEEF18F0F5EF18F011
:1026000022D8FE0EDBCFE6FF2DEC19F0E55220D0EC
:10261000C5EF18F0D7EF18F016D8FE0EDBCFE6FFA7
:1026200013EC19F0E55214D0E66EDEDFE552E55208
:1026300001011200DBCFE6FFE3DFE5521200E66E98
:10264000DFDFE5521200D9CFE6FFE1CFD9FF12005C
:10265000E552E7CFD9FF120005D8FC0EEBDFFB0EE9
:102660001AEF13F0ECDFFE0EE5DFFD0E1AEF13F0AC
:10267000269E05D0269E1EAE02D01E6C268E1EC043
:1026800018F0176A2A6A296A860E196E1A6A9FEF6D
:1026900014F0266ADBEC14F0F3EC14F026B683EFAA
:1026A00014F026A205D026BA83EF14F08AEF14F0B6
:1026B00026BA96EF14F026A005D026B883EF14F0C2
:1026C00096EF14F026B88AEF14F01A6A7F0E1F24D2
:1026D000196EE86A1A222450195EE86A1A5A1A0E0C
:1026E000276E1F6A296A2A6A176A186A21501C5EB7
:1026F00022501D5A23501E5A000E1F5A09E721501E
:102700001C2622501D2223501E22000E1F2201D003
:10271000298AD8901C361D361E361F36D890293689
:102720002A3617361836272EE1D71E501D101C10DA
:10273000D8A4298A9FEF14F0266ADBEC14F0F3EC9E
:1027400014F026B683EF14F026A205D026B883EF46
:1027500014F08AEF14F026AA05D026B083EF14F007
:102760008AEF14F026B002D026A802D096EF14F01B
:102770001A6A24501F24196EE86A1A227E0E195E06
:10278000E86A1A5A296A2A6A176A186A23501E02C6
:10279000F4CF18F0F3CF17F022501E02F3502A2680
:1027A000F4501722000E182223501D02F3502A263F
:1027B000F4501722000E182221501E02F350292631
:1027C000F4502A22000E1722182222501D02F35024
:1027D0002926F4502A22000E1722182223501C0208
:1027E000F3502926F4502A22000E172218222150D5
:1027F0001D02F4502926000E2A22172218222250E8
:102800001C02F4502926000E2A22172218229FEFBC
:1028100014F0256A23AE12EF14F0226C231EE86A2E
:102820002322251E1EAE1AEF14F01D6C1E1EE86A30
:102830001E22251E04EC1FF01EBE2AEF14F025AE4A
:10284000000C1D6C1E1EE86A1E22196C1A1EE86A16
:102850001A22000C25BE21EF14F02688FF0C1EC0A2
:102860002AF01DC029F01D502202F4CF1CF0F3CF36
:102870001BF01E502302F4CF1EF0F3CF1DF02202F6
:10288000F3501C26F4501D22E86A1E222950230210
:10289000F3501C26F4501D22E86A1E2223AE55EF89
:1028A00014F029501D5E2A501E5A2AAE000C2250E8
:1028B0001D5E23501E5A000C266ADBEC14F026B66F
:1028C00066EF14F026A20AD026B403D07F0E1E6E47
:1028D00019D0800E1E6E16D01E6A14D026B0FCD7FA
:1028E000870E1F60F1D77E0E1F64F6D7860E1F5C21
:1028F00004E0D8901E321F2AF9D726A403D01E6CFC
:102900001EAEEAD712007F0E1F6EFF0E1E6E1D6EEA
:102910001C6E12007F0E26BEFF0E1F6E02D07F0EB1
:102920001F6E800E1E6E1D6A1C6AF3D726AE04D081
:10293000800E1F6E1E6AF7D71F6A1E6AF4D71850E2
:1029400017102A102910F8E01ABEF0D718BE0CD0C4
:1029500019501A10EBE0D89029362A361736183657
:102960001906D8A01A06F2D71A50D4E11928D2E0D5
:1029700029AE11D07F0E291402E12AA00CD02A2AF8
:10298000E86A1722182207E3D880183217322A3251
:10299000192A1928BFE01950C9E02AC01CF017C035
:1029A0001DF018341E6E19301F6E1E321F9E26BE7B
:1029B0001F8E89EF14F01E361F3602E32684267E12
:1029C00006E126801F6A1E6A1D6A1C6A12001F2803
:1029D00003E0D8801E321200D8901E3202E1268217
:1029E0001200268612002336243602E3268C267E29
:1029F00006E12688246A236A226A216A12002428B2
:102A000003E0D88023321200D8902332EAE1268AEC
:022A10001200B2
:0E2A1200000EE96EEA6E040016EC15F0EA2ADA
:102A2000080EEA5CD8A40CEF15F01200EF6AE93E3C
:102A300016EF15F01200FF0EE3CF09F009380F0B67
:102A4000060FD8B2070F2A0FAD6ED2EC19F009505D
:102A50000F0B060FD8B2070F2A0FAD6ED2EC19F08C
:102A6000000C1200EACF04F0E9CF05F0FF0EE3CF2F
:102A7000EAFFFE0EE3CFE9FFC0A741D0EECFA0F002
:102A8000EECFA1F0EECFA2F0EECFA3F0EECFA4F008
:102A9000EECFA5F0EECFA6F0EECFA7F0EECFA8F0E8
:102AA000EECFA9F0EECFAAF0EECFABF0EECFACF0C8
:102AB000EECFADF0EECFAEF0EECFAFF0EECFB0F0A8
:102AC000EECFB1F0EECFB2F0EECFB3F0EECFB4F088
:102AD000EECFB5F0EECFB6F0EECFB7F0EECFB8F068
:102AE000EECFB9F0EECFBAF0EECFBBF0EECFBCF048
:102AF000EECFBDF0EECFBEF0EECFBFF040D0EECFC8
:102B000080F0EECF81F0EECF82F0EECF83F0EECF0B
:102B100084F0EECF85F0EECF86F0EECF87F0EECFEB
:102B200088F0EECF89F0EECF8AF0EECF8BF0EECFCB
:102B30008CF0EECF8DF0EECF8EF0EECF8FF0EECFAB
:102B400090F0EECF91F0EECF92F0EECF93F0EECF8B
:102B500094F0EECF95F0EECF96F0EECF97F0EECF6B
:102B600098F0EECF99F0EECF9AF0EECF9BF0EECF4B
:102B70009CF0EECF9DF0EECF9EF0EECF9FF004C024
:102B8000EAFF05C0E9FF1200C0A11200EACF04F07D
:102B9000E9CF05F0FF0EE3CFEAFFFE0EE3CFE9FF3A
:102BA000C0A941D0C0C0EEFFC1C0EEFFC2C0EEFF61
:102BB000C3C0EEFFC4C0EEFFC5C0EEFFC6C0EEFF4F
:102BC000C7C0EEFFC8C0EEFFC9C0EEFFCAC0EEFF2F
:102BD000CBC0EEFFCCC0EEFFCDC0EEFFCEC0EEFF0F
:102BE000CFC0EEFFD0C0EEFFD1C0EEFFD2C0EEFFEF
:102BF000D3C0EEFFD4C0EEFFD5C0EEFFD6C0EEFFCF
:102C0000D7C0EEFFD8C0EEFFD9C0EEFFDAC0EEFFAE
:102C1000DBC0EEFFDCC0EEFFDDC0EEFFDEC0EEFF8E
:102C2000DFC0EEFF40D0E0C0EEFFE1C0EEFFE2C04B
:102C3000EEFFE3C0EEFFE4C0EEFFE5C0EEFFE6C04E
:102C4000EEFFE7C0EEFFE8C0EEFFE9C0EEFFEAC02E
:102C5000EEFFEBC0EEFFECC0EEFFEDC0EEFFEEC00E
:102C6000EEFFEFC0EEFFF0C0EEFFF1C0EEFFF2C0EE
:102C7000EEFFF3C0EEFFF4C0EEFFF5C0EEFFF6C0CE
:102C8000EEFFF7C0EEFFF8C0EEFFF9C0EEFFFAC0AE
:102C9000EEFFFBC0EEFFFCC0EEFFFDC0EEFFFEC08E
:102CA000EEFFFFC0EEFF04C0EAFF05C0E9FF12001F
:102CB000F2B4120016500F0AD8B41200FF0EE3CF80
:102CC0000AF0FE0EE3CF0BF0FD0EE3CF0CF0FC0E8E
:102CD000E3CF0DF00A2A16A08D8E0B2A16A28F8044
:102CE0000C2A16A48F860D2A16A68F880E6A0F6AE4
:102CF000106A116AABEC16F00A2E81EF16F016A0DE
:102D00008D9E0B2E86EF16F016A28F900C2E8BEF59
:102D100016F016A48F9600000D2E91EF16F016A651
:102D20008F9800000E2E96EF16F0129000000F2ED6
:102D30009BEF16F012920000102EA0EF16F01294E6
:102D40000000112EA5EF16F01296CDEC16F0133EF2
:102D50007CEF16F01200D70E136E0000000000008A
:102D60000000C3EC16F0132EADEF16F0D70E136E65
:102D70000000000000000000C3EC16F0132EB8EFB6
:102D800016F0000012000000C6EF16F00000000070
:102D900000000000000000001200030E146E00008E
:082DA000142ECFEF16F0120013
:082DA80075D90A0EE1260201B3
:102DB0002E510CE1010E2E6F02017C0E446F900E1D
:102DC000456F63D945C2E6FF39D9E55202012F515B
:102DD0000201241904E1020130510201251901E127
:102DE00011D124C22FF225C230F202012D6B140E34
:102DF0000101C85D01E2B7D00201010E316F2D6FF4
:102E000002014451DE6EDD6A0101C1512B6E2C6A54
:102E10004F0E2B5E000E2C5A060E2BC0DBFF070E4A
:102E20002CC0DBFF4DD92C3409E22B500608000ED4
:102E30002C5404E25AD919E13BD917D041D9D88092
:102E40002C5004E7FA0E2B5CFF0E2C5807E24DD9EC
:102E50000CE1040EDB68050EDB6807D0040EDB6AAC
:102E6000050EDB6A020E02012D271D681E68040E86
:102E7000DBCF22F0050EDBCF23F02FEC14F01CC0CB
:102E80002CF0D9CFE9FFDACFEAFF1B50EE262C5009
:102E9000ED2205D90001800E2C1402E0DE6A0AD072
:102EA000FED82C3408E22B50F808000E2C5403E214
:102EB000F80EDE6EDD6ADFCF44F2E7D80201DDD81E
:102EC0000101C2512B6E2C6A770E2B5E000E2C5A1C
:102ED000080E2BC0DBFF090E2CC0DBFFF8D82C340A
:102EE00009E22B500608000E2C5404E207D919E120
:102EF000DFD817D0ECD8D8802C5004E7FA0E2B5C22
:102F0000FF0E2C5807E2FAD80CE1040EDB68050E20
:102F1000DB6807D0040EDB6A050EDB6A040E0201D3
:102F20002D27040EDBCF2BF0050EDBCF2CF0EED8D7
:102F30002B50EE262C50ED229CD804E65E0E2B5C26
:102F4000000E2C5802E25E0E09D0E6D82C3407E2BF
:102F50002B50C208000E2C5402E2C20EBFD8020E43
:102F6000DBCF45F24BD00201322B325106084AE248
:102F7000326B310505E1316BDE6ADD6A900E26D0D9
:102F800002014451DE6EDD6A78D889D8D8902C5081
:102F900004E6F80E2B5C000E2C581AE3DE6ADD6A9C
:102FA00068D804E6C20E2B5C000E2C5802E35E0EBD
:102FB0000DD0ACD8320EEE26000EED225AD804E623
:102FC000C20E2B5C000E2C5813E3C20E87D810D013
:102FD0003E0EDE26000EDD2262D8D8902C5004E68C
:102FE000F80E2B5C000E2C5803E3F80EDE6EDD6A43
:102FF000DFCF44F2020EDBCF45F247D845C2E6FFF1
:103000001DD8E552D9CFE1FF4FD044D8E652020196
:103010002D5102E1DF6A0AD0070E2D5D02E2010E9A
:1030200004D0070E2D5D02E1020EDF6EDF50E55287
:103030003BD030D8FE0EDBCF90F136D02BD8FE0E31
:10304000DBCF91F131D0DBCF1EF02BC022F02CC0B2
:1030500023F009EC14F0040E1DC0DBFF050E1EC0AA
:10306000DBFFD950040FE96EDACFEAFFEE50ED1026
:10307000120052D8D8902C5012004551E66E46D816
:10308000E552E750EE6EED6A120044C2E6FFD1DF72
:10309000E5521200D9CFE6FFE1CFD9FF1200DECF13
:1030A0002BF0DDCF2CF01200E552E7CFD9FF120054
:1030B000010EF36E040EF3CFDBFF050EDB6A120088
:1030C000060EDBCF2BF0070EDBCF2CF01200080E24
:1030D000DBCF2BF0090EDBCF2CF01200F36E020ECB
:1030E000F3CFDBFF030EDB6A1200030E2B6E2C6A9C
:1030F000060EDBCF1DF0070E23EF18F0080E2B6E27
:103100002C6ADBCF1DF0090E23EF18F0D950020F07
:10311000E96EDACFEAFF1200020EDBCF2BF0030ECE
:06312000DBCF2CF01200D1
:0A312600150EAF6EAC849D9A9D98C3
:10313000AC98AC9E948EAB9CAB96AB8AAB889F9AB6
:103140009D8A020146694769949CAC9CAC969F9805
:103150009D88AC8AAB8E1200150E6F6E6C84A39A9C
:10316000A3986C986C9E98846B9C6B966B8A6B880A
:10317000A59AA38A02014669476998926C9C6C964D
:10318000A598A3886C8A6B8E120007D9E6529D9A87
:1031900005C2DFFF9D8ADF50E552FBD0FED8E65224
:1031A000A39A11C2DFFFA38ADF50E552F2D0F5D80F
:1031B000E6520201025102E0000E15D00351EA6A04
:1031C000000FE96E010EEA22EFCFDFFF0507032BA8
:1031D0001F0E03179D9A0451035D02E1010E026F59
:1031E0009D8A016BDF50E552D4D0D7D8E652020158
:1031F0000E5102E0000E15D00F51EA6A400FE96E41
:10320000010EEA22EFCFDFFF11070F2B1F0E0F1762
:10321000A39A10510F5D02E1010E0E6FA38A0D6B90
:10322000DF50E552B6D0B9D802010851FDE10B518B
:10323000EA6A200FE96E010EEA22FE0EDBCFEFFFF5
:103240000C2B0B2B1F0E0B179D980B510A5D02E1E7
:10325000010E086F9D88096B9CD09FD80201145104
:10326000FDE11751EA6A600FE96E010EEA22FE0ED7
:10327000DBCFEFFF182B172B1F0E1717A398175133
:10328000165D02E1010E146FA388156B82D0020156
:10329000015102E09D9A12000451EA6A000FE96EA2
:1032A000010EEA22AECFEFFFABA203D0AB98AB8802
:1032B000062BABB4072B052B042B1F0E0417045150
:1032C000035D02E1010E016F026B120002010D515C
:1032D00002E0A39A12001051EA6A400FE96E010E53
:1032E000EA226ECFEFFF6BA203D06B986B88122B94
:1032F0006BB4132B112B102B1F0E101710510F5DD9
:1033000002E1010E0D6F0E6B12000201095102E085
:103310009D9812000A51EA6A200FE96E010EEA2216
:10332000EF50AD6E0C070A2B1F0E0A170B510A5DEA
:1033300002E1010E096F086B12000201155102E053
:10334000A39812001651EA6A600FE96E010EEA2294
:10335000EF506D6E1807162B1F0E16171751165DBE
:1033600002E1010E156F146B120017D80201005113
:103370000FE0000505E1FE0EDBCFE6FF54DF07D0CE
:10338000020E005D05E1FE0EDBCFE6FF66DFE552D3
:1033900000D0E552E7CFD9FF1200D9CFE6FFE1CF49
:0433A000D9FF12003F
:0C33A4009EA8FED71200B4D8FE0EDBCFAE
:1033B000E6FF1BEC15F0E552A9D0ACD80201E150B4
:1033C000FD0F336FFF0EDA20346F010EEA6A3325EA
:1033D000E96E3451EA22A3D833C2E9FF34C2EAFFCE
:1033E0009ED894D097D80201356B1A0E355D0DE248
:1033F000FD0EDBCFE9FFDB2AFE0EDBCFEAFF01E3A8
:10340000DB2A8DD80201352BF0D780D00201A00E27
:10341000336F010E346F0101A05102013B6F3C6B11
:103420003D513B1902E13E513C1916E00101C0B586
:103430000ED03DC2E6FF1BEC15F0E5523BC2E6FFA5
:103440001BEC15F0E5520D0EAD6EACDF0101C09521
:103450003BC23DF23CC23EF202013D2B000E3E2338
:103460003E3507E23D51FF08000E3E5502E23D6B3E
:103470003E6B1200150EE66E3C0EE66E8FEC1EF0F3
:10348000E552E552320EE66E4FEC1FF0E5521200A7
:1034900041D8FE0EDBCF36F248D03CD8020EE126F2
:1034A0000F0EE66EFE0EDB507F0BFE0BFD0BE66E85
:1034B000F10EE66EF5EC1DF0E552E552E5520A0E0E
:1034C000E66E6DEC1FF0E55284EC1FF007EC04F0A3
:1034D0000009FCE1E5EC1EF081EC1FF0C4502D6EFC
:1034E0002E6E2D6AC35000012D102B6E2EC02CF0B5
:1034F000DE6E2EC0DDFFDECF2BF0DDCF2CF02BC03B
:10350000F3FF2CC0F4FFD9CFE1FF0FD00D0EAD6E4D
:1035100049DF0BD0D9CFE6FFE1CFD9FF1200EF5042
:10352000E66E1BEC15F0E5521200E552E7CFD9FF2D
:02353000120087
:0E353200020139510201241904E102013A514B
:103540000201251959E00201372B386B140E375D43
:103550005DE3376B05EC18F0000905E1B50E2B6E45
:10356000390E40EF1BF0B20E2B6E390E89D80101D7
:1035700090512B6E2C6A7C0E2B5E000E2C5A410E45
:103580006ED87C0E5BD8960E2D6E390E40D8010198
:1035900091512B6E2C6A900E2B5E000E2C5A190E38
:1035A0005ED8320E4BD87A0E2D6E390E30D801010E
:1035B000C1512B6E2C6A4F0E5BD85E0E2D6E390EEC
:1035C00026D80101C2512B6E2C6A770E51D8420EBB
:1035D0002D6E390E1CD80101C751E66EE66A260E23
:1035E0002B6E390E52D80101C851E66EE66A0A0EFA
:1035F0002B6E390E45EF1BF00201382B1A0E385D89
:1036000005E3386BF60E2B6E380E3AD812002E6E8C
:103610002F6A2DC0E6FFE66E2FC0E6FF31EC1DF0ED
:10362000F56E050EE15EF55012002C6E2D6A2BC072
:10363000E6FFE66E2DC0E6FF31EF1DF0226E236A35
:10364000F3CF1DF02CC01EF009EC14F01DC02BF0C0
:103650001EC02CF01DC0E6FF1EC0E6FF12002C02AB
:10366000F3CF2CF02B02F3CF2BF0F4502C261200CA
:103670002B5E000E2C5A2BC0E6FF2CC0E6FF12007A
:10368000D4DFE552E552E5521200CFDFF56E050EAC
:06369000E15EF55012009E
:0A369600D8CFE4FFE0CFE4FFE46EBC
:1036A000DACFE4FFE2CFDAFFE9CFE4FFEACFE4FFCD
:1036B000F3CFE4FFF4CFE4FF00EE2BF00C0EE804B0
:1036C00003E3EECFE4FFFBD7E6529E50200B06E06B
:1036D0009D50200B03E047EC19F01AD0A450200BAA
:1036E00006E0A350200B03E066EC19F011D09E50C9
:1036F000100B06E09D50100B03E085EC19F008D08C
:10370000A450100B05E0A350100B02E09DEC19F043
:10371000E55200EE36F00C0EE80403E3E5CFEDFFD2
:10372000FBD7E5CFF4FFE5CFF3FFE5CFEAFFE5CF29
:10373000E9FFE5CFDAFFE550E5CFE0FFE5CFD8FFC1
:10374000100001017F0E8B6F8A6F896F886F876F02
:10375000866F856F846F936F926F916F906F8F6F8D
:103760008E6F8D6F8C6F8C928D928C908D908C96CD
:103770008D968C948D948C9A8D9A8C988D988C9E25
:1037800091908C9C8D9C0101A1AD22D00101C0A122
:10379000FAD7A00EE66E010EE66E5CEC0BF0E55279
:1037A000E55293C1E6FF92C1E6FF91C1E6FF90C1E9
:1037B000E6FF58EC16F0E552E552E552E552800E70
:1037C000E66E010EE66E75EC0BF0E552E552DBD7C6
:1037D00012001200D9CFE6FFE552E7CFD9FF120061
:1037E000B18EB186B19CB19AB198B192A092A090DD
:1037F000A390A392A3941200D9CFE6FFE1CFD9FF03
:10380000080EE126B190B36AB26ABA6AB76A736AFF
:10381000706AFE0E50D82BC0DEFF2CC0DDFFFD0EFF
:103820004AD8020E2BC0DBFF030E2CC0DBFFFC0EC0
:1038300042D8040E2BC0DBFF050E2CC0DBFFFB0EB5
:103840003AD8060E2BC0DBFF070E2CC0DBFFDF5083
:10385000BB6EDECF2BF0DDCF2CF02CC02BF02C6A12
:103860002B50BC6E020EDB50B86E020EDBCF2BF07D
:10387000030E3AD8B96E040EDB50746E040EDBCF23
:103880002BF0050E31D8756E060EDB50716E060EEC
:10389000DBCF2BF0070E28D8726EF29E090EBA6E9F
:1038A000B76E736E706EB180F28ED9CFE1FFE552C4
:1038B000E7CFD9FF1200DB502D6E2E6A7F0E2D5EF2
:1038C000000E2E5A320E1D6E1E6A2DC022F02EC022
:1038D00023F02FEC14F01BC02BF01CC02CF0980E22
:1038E0002B263A0E2C221200DBCF2CF02CC02BF012
:0638F0002C6A2B501200AF
:0A38F6004E6F2063616D6572612062
:10390000646174612E2E2E0D0A00436F6E66696429
:10391000656E63652028506978656C732920203DA9
:103920002025750D0A0020426C6F622053697A656C
:103930002028506978656C732920203D2025750D5D
:103940000A0054696C74204572726F7220285069A5
:1039500078656C732920203D2025640D0A002050D5
:10396000616E204572726F722028506978656C73A1
:103970002920203D2025640D0A0054696C742041E3
:103980006E676C6520286465677265657329203DE4
:103990002025640D0A002050616E20416E676C6521
:1039A00020286465677265657329203D2025640DB4
:1039B0000A000D0A00536561726368696E672E2EF6
:0439C0002E0D0A00BE
:0C39C4001E0EF66E080EF76E000EF86E78
:1039D00002010900F5501E6F0900F5501F6F03E149
:1039E0001E6701D03DD00900F550196F0900F55050
:1039F0001A6F0900F5501B6F09000900F550E96EB8
:103A00000900F550EA6E090009000900F5501C6F25
:103A10000900F5501D6F09000900F6CF20F2F7CF1D
:103A200021F2F8CF22F219C2F6FF1AC2F7FF1BC229
:103A3000F8FF02011C5302E11D5307E00900F55095
:103A4000EE6E1C07F8E21D07F9D720C2F6FF21C26F
:103A5000F7FF22C2F8FF02011E07000E1F5BBFD74F
:023A6000120052
:0E3A6200D9CFE6FFDACFE6FFE1CFD9FFE2CF02
:103A7000DAFFE652E652E652E652D950FB0F2B6EC1
:103A8000FF0EDA202C6E2BC0DEFFDD6EDECFE6FFF0
:103A9000DDCFE6FFFB0EDBCFE6FFFC0EDBCFE6FF64
:103AA000FD0EDBCFE6FF46C2E6FF47C2E6FF50EC65
:103AB00004F0F56E070EE15C02E2E16AE552E16EA8
:103AC000F550020EF3CFDBFF030EF4CFDBFF020E47
:103AD000DBCF2BF0030EDBCF2CF02BC0F3FF2CC081
:103AE000F4FFD9CFE1FFDACFE2FFE552E5CFDAFF0D
:063AF000E7CFD9FF120030
:0A3AF600D9CFE6FFDACFE6FFE1CFFB
:103B0000D9FFE2CFDAFFFB0EDBCF2BF0FC0EDBCFD1
:103B10002CF00001800E2C141AE1FB0EDBCFE9FF24
:103B2000FC0EDBCFEAFFEECFF3FFEDCFF4FFEE2A82
:103B3000000EEF22F3CFE9FFF4CFEAFFFD0EDBCF5B
:103B4000EFFFEF502C6AF36E2CC0F4FF10D0FB0E89
:103B5000DB50FE0806E1FD0EDBCFE6FF5FEC1FF059
:103B600005D0FD0EDBCFE6FFB5EC19F0E552E552CE
:0A3B7000E5CFDAFFE7CFD9FF12001E
:063B7A001B502002F3CFF6
:103B800017F0F4CF18F02102F3501826000EF4209D
:103B9000196E1B502202F3501926000EF4201A6EE3
:103BA0001B502302F3501A261C502002F3501826F3
:103BB000F4501922000E1A221C502102F35019262B
:103BC000F4501A221C502202F3501A261D502002D3
:103BD000F3501926F4501A221D502102F3501A26D0
:0A3BE0001E502002F3501A261200B6
:063BEA00D9CFE6FFDACF9F
:103BF000E6FFE1CFD9FFE2CFDAFFC26AC16AC06A4D
:103C0000FC0EDB407F0B3C0BC26EFB0EDB50C16E2B
:103C1000FC0EDB38F00B300BC112FD0EDB50800BBD
:103C2000C06EFD0EDB380F0B070BC012FD0EDB5014
:103C3000040DF350380BC012FC0EDBAE03D09E9C7B
:103C40009D8CF28CC280E552E5CFDAFFE7CFD9FF39
:023C5000120060
:0E3C5200FE0EE3CFE9FFFF0EE3CFEAFFF36AB9
:103C6000F46AEE5203E0F34AF42AFBD71200FF0E87
:103C7000E3CFF8FFE552FF0EE3CFF7FFE552FF0E6B
:103C8000E3CFF6FFE552E66AE66AE66A0900F55216
:103C900009E0FD0EE32A05E1FE0EE32A02E1FF0E34
:103CA000E32AF4D7FD0EE3CF1CF0FE0EE3CF1DF0A8
:083CB000FF0EE3CF1EF012002D
:083CB800D9CFE6FFDACFE6FFE9
:103CC000E1CFD9FFE2CFDAFF3F0EC716C66AFD0E7D
:103CD000DB50C612FB0EDB50C712FC0EDB50030A92
:103CE00009E0010A04E0020A06E1C78C04D0C78C8F
:103CF000C68801D0C688FD0EDB50050A03E0010A24
:103D000004E1978E9486C79E01D09496949A9488E5
:0E3D1000C68AE552E5CFDAFFE7CFD9FF1200F1
:023D1E00D9CFFB
:103D2000E6FFDACFE6FFE1CFD9FFE2CFDAFFAC6AF8
:103D3000AB6AFD0EDBB0AC88DBA202D0AC8CAB8CE6
:103D4000DBB4AC8EDBA602D0AB8801D0AB8ADBA89B
:103D500002D0AC8401D0AC94DBAC02D09D8A01D0FF
:103D60009D9ADBAE02D09D8801D09D98FC0EDB5061
:103D7000AF6EAC8AAB8EE552E5CFDAFFE7CFD9FF65
:023D800012002F
:0E3D82001A6A196A186A176A200EE76ED8903E
:103D90001B361C361D361E361736183619361A369F
:103DA0002050175C215018582250195823501A5887
:103DB00009E32050175E2150185A2250195A2350F7
:0A3DC0001A5A1B2AE72EE4D712005E
:063DCA00D9CFE6FFDACFBD
:103DD000E6FFE1CFD9FFE2CFDAFFE652E652C35069
:103DE000DF6E010EC4CFDBFFDECF2BF0DDCF2CF07A
:103DF0002BC0F3FF2CC0F4FFE552E552E552E5CFAE
:083E0000DAFFE7CFD9FF120041
:083E08001A6A196A100EE76E38
:103E1000D8901D361E3619361A362250195C23509A
:103E20001A5805E32250195E23501A5A1D2AE72E0C
:043E3000F0D71200B5
:0C3E3400B3EC0AF02DEC0EF00101C0917F
:103E40000101C0A107D072EC0EF00101A1AD02D0BA
:0A3E5000A1EC1BF0E9EC1BF0F3D726
:063E5A00F36AF46AFF0E9A
:103E6000E124E96EFF0EE220EA6EED6607D02F0E28
:0E3E7000EF6404D03A0EEF6001D0F32A120086
:023E7E001EEE36
:103E800000F02EEE00F0F86A269CA68EA69C09ECA7
:0E3E900015F0E2EC1CF01AEC1FF0F9D712004E
:023E9E00FF0E15
:103EA000E350376E480E01D04C0EE76EE72EFED77A
:0E3EB000E76AE72EFED7372EF7D70000120084
:023EBE00FF0EF5
:103EC000E350ACBA04D0AF6AAB8EAC8A949CACA27F
:0A3ED000FED7AD6EF36EF46A120027
:063EDA00FF0EE350E84E6C
:103EE0001200000000D000D000D0E82EFAD7120057
:103EF0003031323334353637383961626364656660
:013F000000C0
:063F0200C2909D9C12001C
:043F0800C28212005F
:033F0C00000000B2
:013F0F0000B1
:053F10000000000100AB
:043F150000000000A8
:073F190000000100000000A0
:103F2000000001000000000100000000000001008E
:023F300000008F
:043F3200000000008B
:0A3F3600000000000000000101017E
:020000040030CA
:0E000000FF36F6FEFFFF8BFFFFBFFF9FFFBF27
:00000001FF
