:020000040000FA
:0608000064EF28F0120075
:02080600FEFFF3
:0608080063EF0AF012008C
:02080E00C250D6
:08081000020B01E0010E1200D1
:06081800B6EF1DF0120016
:02081E000B00CD
:100820004B510000FF02000001000000A051000039
:100830006C030000040000009B5100005F030000F7
:1008400005000000965100005A030000050000005A
:100850009251000068030000040000008251000073
:1008600014030000100000007B510000480300004A
:100870000700000062510000E001000019000000C4
:100880000608000070030000020000005B51000039
:10089000F901000007000000565100005503000058
:0408A000050000004F
:0C08A4008EEC09F0FB0EDBCFF3FFDB064F
:1008B000F35000090AE0DCEC09F0FA0E47EC0AF00C
:1008C000F3E12C1CF1E1010E01D0000EBDEF09F0A7
:1008D0008EEC09F03B0EE12402E3E168E652E16EA2
:1008E000010EDB6A020EDB6AF90EDBCFF6FFFA0EB1
:1008F000DBCFF7FFFB0EDBCFF8FF0800F550DF6E14
:10090000DF5002E1E3EF08F0250EDF5C02E0D6EFF6
:1009100008F0030EDB6A040EDB6A050EDB6A060EC6
:10092000DB6A070EDB6AF6EC08F02D0EDF5C0CE0EC
:100930002B0EDF5C09E0200EDF5C06E0230EDF5C9F
:1009400003E0300EDF5C1AE1DF50300A14E0130AD6
:100950000FE0030A0AE00B0A05E0060AE4E1030ED1
:10096000DB80E1D7030EDB82DED7030EDB84DBD72F
:10097000030EDB86D8D7030EDB88D5D72A0EDF5CC3
:100980001BE1F2EC08F040EC09F010E0030EDB8014
:100990001D681E68130EDBCF22F0140EDBCF23F090
:1009A00024EC16F0040E1BC0DBFF03D0130E29EC61
:1009B00009F0F6EC08F00BD0090EDB6A97EC09F0B1
:1009C00003E00BEC0AF0FAD7090E29EC09F0030E4C
:1009D000DBB0DB982E0EDF5C1BE1F6EC08F02A0E94
:1009E000DF5C0BE1F2EC08F040EC09F003E1130EE0
:1009F0007BEC09F0F6EC08F00BD0090EDB6A97EC03
:100A000009F003E00BEC0AF0FAD7090E7BEC09F0D1
:100A1000680EDF5C07E1F6EC08F0680EDF5C1DE1B4
:100A2000030E18D0740EDF5C17E07A0EDF5C14E062
:100A3000480EDF5C06E0540EDF5C03E05A0EDF5C1C
:100A400002E1020E07D06C0EDF5C03E06A0EDF5C91
:100A500004E1010ECEEC09F0C9DBDF506E0A01E1C2
:100A600081D31E0A01E192D1200A01E18FD13F0A10
:100A700001E149D11A0A01E146D10D0A01E143D150
:100A8000200A01E140D13A0A01E13DD1200A01E109
:100A90003AD1260A01E135D10D0A01E132D11A0A13
:100AA00001E1D9D0200A4AE0300A1FE0460A0EE0F0
:100AB000250A01E085D3D950F90FE96EFF0EDA203F
:100AC000EA6E010EEE5E000EEE5AEE5ADCEC09F014
:100AD000250EE66E95DB03E12C1C01E16BD3D8EC0F
:100AE00009F001E26DD3DB2A6BD3080EDB6A040E3A
:100AF000DB50010806E2040EDB04A0EC09F0DB5039
:100B00008BDB080EDB5009E0030EDB50010B05E127
:100B100072DB01E04FD3080EDB6A64DBEFCFDFFF4F
:100B200050EC0AF003E12C1C01E144D3D8EC09F0AD
:100B300001E3DB2A60DB01E143D33CD3070EDB504A
:100B400002080FE11CEC0AF0030EE3EC09F00E0EB4
:100B5000EECFDBFF0F0EEECFDBFF100EEECFDBFF95
:100B600020D0F70EDBCF2EF0F80EDBCF2FF0020EE9
:100B70002E5E000E2F5AF70E2EC0DBFFF80E2FC090
:100B8000DBFF2EC0E9FF2FC0EAFFD3EC09F02D6A8E
:100B90000E0E2BC0DBFF0F0E2CC0DBFF100E2DC086
:100BA000DBFF0E0EDBCFE6FF0F0EDBCFE6FF100EF6
:100BB000DBCFE6FF5CEC27F0E552E552E552130E81
:100BC0001CC0DBFF140E1DC0DBFF060EDB5005E072
:100BD000130E17EC0AF001E26ADB3BEC0AF002E2CA
:100BE000130E37DBFEEC09F006E0040E17EC0AF0FA
:100BF00002E2050E2EDB030EDBB005D0FCDA01E0CD
:100C0000D9D2080EDB6A090EDB6A0E0EDBCFF6FFC7
:100C10000F0EDBCFF7FF100EDBCFF8FF0800F5500B
:100C2000DF6EDF5014E041EC0AF011E250EC0AF004
:100C300003E12C1C01E1BED2BBDB01E3DB2A090E80
:100C4000DB2AD9500E0FE96E000ECBDBE7D7D3DAE3
:100C500001E1B6D2AFD2C6DA110EEECFDBFF120E33
:100C6000EDCFDBFF110EDBCFE6FF120EDBCFE6FF91
:100C70004EEC27F0E552E552130EF3CFDBFF140ED6
:100C8000F4CFDBFF060EDB5004E0130ED0DB01E2F5
:100C90000EDB3BEC0AF002E2130EDBDAAFDB05E021
:100CA000040EC5DB02E2050ED4DA030EDBB005D07C
:100CB000A2DA01E07FD2080EDB6A090EDB6A110EB0
:100CC000DBCFE9FF120EDBCFEAFFEFCFDFFFDF5014
:100CD00014E0D7DB12E2E4DB03E12C1C01E16AD271
:100CE00067DB01E3DB2A090EDB2A110EDB2ADBCFEF
:100CF000E9FF120EE8E3DB2AE6D77DDA01E160D2F4
:100D000059D2030EDB8E070EDB0410E195DB040ED7
:100D10005ADB0A0EEECFDBFF0B0EEECFDBFF0C0E25
:100D2000EECFDBFF0D0EEECFDBFF6CD0070EDB50FE
:100D300003082CE1030EDBAE0DD0B2DA020E76DA38
:100D4000EFCF2BF02C6A2D6A2E6A2BAE39D02C688F
:100D50002D6835D0F70EDBCF2CF0F80EDBCF2DF061
:100D6000020E2C5E000E2D5AF70E2CC0DBFFF80E83
:100D70002DC0DBFF2CC0E9FF2DC0EAFFEFCF2BF029
:100D80000A0E2BC0DBFF0B0EDB6A38D0070EDB50E0
:100D9000020809E1030EDBAE04D059DB2DAE10D002
:100DA0000ED055DB0DD0030EDBAE12D079DA020E79
:100DB0003DDAF9DA2D6A2E6A2CAE02D02D682E6843
:100DC000E2DA0C0E2DC0DBFF0D0E2EC0DBFF1AD0B9
:100DD000F70EDBCF2DF0F80EDBCF2EF0020E2D5EDE
:100DE000000E2E5AF70E2DC0DBFFF80E2EC0DBFFD3
:100DF0002DC0E9FF2EC0EAFFD6DAC5DA0C0EDB6A99
:100E00000D0EDB6A060EDB5005E1010EF36E050EDA
:100E1000F3CFDBFF150EDB6A160EDB6AD950370FF6
:100E20002B6E000EDA202C6E390E2BC0DBFF3A0E33
:100E30002CC0DBFF380EDB6A080EDB6A0A0EAEDA66
:100E4000DF50780A12E0200A10E0280A0CE0200A9D
:100E50000AE03F0A06E00D0A02E0200A08E1020E5D
:100E600005D0080E03D0080EDF26100E97DA030E09
:100E7000DBBE02D0DB92DB94DB50800B26E08ADA0B
:100E8000030EEB50000AE8AE02D0D89008D0000E56
:100E9000EE5C000EEE58000EEE58000EEE5815E215
:100EA00011DA2068216822682368E2EC26F00A0E35
:100EB00017C0DBFF0B0E18C0DBFF0C0E19C0DBFFE9
:100EC0000D0E1AC0DBFF2D0E08D0030EDBA202D0E0
:100ED0002B0E03D0DBA408D0200EF36E170EF3CF39
:100EE000DBFF150EDB2A02D0170EDB6A050EDB5086
:100EF00003E1B5D901E189D03A0E2B6E510E2C6E6B
:100F0000000E2D6E070EDBCF2EF02F6A306A316A8D
:100F10002EC020F02FC021F030C022F031C023F0CD
:100F2000D1D9E6EC27F02B501724F36E2C50182063
:100F3000F46E2D501920F86EF4CFF7FFF3CFF6FFC3
:100F40000800090EF5CFDBFF580EDF5C0FE1610EE4
:100F5000F36E090E79D90AE3200E2B6E090EDBCF52
:100F6000E7FF2B50E75E090EE7CFDBFF070EDBCF75
:100F70002BF02C6A2D6A2E6A0DDA2BC020F02CC0C3
:100F800021F02DC022F02EC023F0EECF1BF0EECFCB
:100F90001CF0EECF1DF0EFCF1EF0E6EC27F01EC0E8
:100FA000EDFF1DC0EDFF1CC0EDFF1BC0EFFF390EB4
:100FB000DBCFE9FFDB063A0EDBCFEAFF01E2DB061F
:100FC000090EDBCFEFFF150EDB2A49D995E1030EA1
:100FD000DBA61DD06F0EDF5C06E1BFD918E3150E4E
:100FE000DB2859DA14D0780EDF5C09E0580EDF5C9C
:100FF00006E0620EDF5C03E0420EDF5C08E1020EF9
:10100000F36E160EF3CFDBFF02D0150EDB6A030E74
:10101000DB50100B0EE0040EDBCF2BF0050EDB5087
:10102000D8802B5406E2060EDB5003E1040EDB50A1
:1010300032DA93D90AE2050EDBCFE7FF150EDB505B
:10104000E75E050EE7CFDBFF02D0050EDB6A040E7C
:10105000DBCF2BF0160E43D9D8802B5414E2160E9A
:10106000DBCFE6FF150EDBCFE6FF040EDBCFE6FF9E
:10107000050EDB50E552E75CE552D880E754E552B7
:10108000D880E7545DD9030EDB50010B0BE1080E4D
:10109000DB5008E0B0D801E08DD0080EDB50BCD8A2
:1010A000080EDB6A170EDB5007E086D9170EEFD962
:1010B00003E12C1C01E17ED0160EDB5016E07CD93A
:1010C000300EE66E9DD802E12C1C74E075D9DFCF9E
:1010D000E6FFA0EC26F0E552E552E552F4CF2CF005
:1010E0000001F31C02E12C1C65E0050EDBCF2BF0A8
:1010F000160EDB50D8802B5409E2050EDBCFE7FF3C
:10110000160EDB50E75E050EE7CFDBFF300EE66E16
:10111000050EC9D94FE1390EDB2ADBCFE9FF3A0EC4
:1011200001E3DB2ADBCFEAFF090EEFCFDBFFDB5069
:101130000EE042D9090EABD902E12C1C3BE0390E7E
:10114000DB2ADBCFE9FF3A0EEDE3DB2AEBD753D8FE
:1011500031E1160EDBCFE6FF080EC1D8E552E724D9
:101160005BD82ED0070EDB50030A1CE0010A14E006
:10117000030A07E079D9DBCFEEFF020EDBCFEDFFEC
:101180001FD0F3D8306A2EAE02D02F6830682AD82C
:10119000BAD830C0EEFF14D0E8D82EBE2F6822D8BF
:1011A000B2D80ED061D9DBCFEFFF0AD079D905E1F3
:1011B0002C1C03E1F368F46810D0FAD801E3DB2AB1
:1011C00077D97DEF04F0010EDBCF2BF0020EDBCFE1
:1011D0002CF02BC0F3FF2CC0F4FFD9CFE1FFDACF06
:1011E000E2FFCBD029D9020EE3EF09F061D9080064
:1011F000F550DF6E1200200EE66E080E53EF0AF077
:10120000A0EC26F0E552E552E552F3CF2BF0F4CFF7
:101210002CF00001F31C12002B6E2C6AD950010F28
:101220004DD92B50EE262C50ED2212002F5E000ED1
:10123000305AF70E2FC0DBFFF80E30C0DBFF2FC097
:10124000E9FF30C0EAFF1200DBCFF4FFF350F45C9B
:101250001200DB50E76E040EE7CFDBFF12000A0E30
:10126000DBCF2BF00B0EDBCF2CF00C0EDBCF2DF0F9
:101270000D0EDBCF2EF02B502C102D102E10120047
:10128000130EEECFDBFF140EEDCFDBFF130EDBCF23
:101290002BF0140EDBCF2CF00001800E2C1412006A
:1012A000F70EDBCF2FF0F80EDBCF30F01200050E7B
:1012B000DB50E66ED950130F01D9E552E750EE6EC0
:1012C000ED6A12000A0EDBCF1BF00B0EDBCF1CF019
:1012D0000C0EDBCF1DF00D0EDBCF1EF01200DBCFAE
:1012E000E6FF150EDBCFE6FF050EDB50E552E724E7
:1012F000E552E7241200DB50CED8010EF36E060E45
:10130000F3CFDBFF1200EE50EFCFEAFFE96E2DC006
:10131000EEFF2EC0EEFF2FC0EEFF1200D9CFE6FF8A
:10132000DACFE6FFE1CFD9FFE2CFDAFF1200DFCF5D
:10133000E6FFE66A52EC28F0E552E552F35012005F
:10134000E76E080EE7CFDBFF1200EECF2BF0EECFFB
:101350002CF0EFCF2DF02E6A1200050EDBCF2BF014
:10136000150EDB50D8802B541200010EDBCF2DF070
:10137000020EDBCF2EF02F6A1200E552E5CFDAFF26
:10138000E7CFD9FF12000A0E2BC0DBFF0B0E2CC0DB
:10139000DBFF1200D9500A0F5EEF0AF0F36E070E62
:1013A000F3CFDBFF1200EECF2BF0EFCF2CF01200CB
:1013B000010EDB2A020E1200FC0EDBCFE6FFFD0E53
:1013C000DBCFE6FF12002B5E000E2C5AF70E2BC06F
:1013D000DBFFF80E2CC0DBFF2BC0E9FF2CC0EAFFBF
:1013E0001200DA20EA6EEF2AEECFF6FF000EEF22AF
:1013F000EECFF7FFEF22EECFF8FF1200040EDBCFA7
:10140000E6FF130EDB50E552E75C9ADFDB5004DFAA
:10141000060EDB501200090EDB500A0DF350DF24DC
:10142000D00FE76E090EE7CFDBFFF6EF08F0DB50D9
:10143000F36E050E24EF09F0F70EDBCF2BF0F80E5C
:10144000DBCF2CF01200DFCFE6FF00EF09F028DF42
:10145000030EECDEA5EF09F052EC04F0E552E55284
:10146000E552E55200091200BDDEEE50EFCFEAFF73
:10147000E96E010E1200130EDB50F36E040E24EF22
:1014800009F0040EDB50F36E090E24EF09F0DBCFF8
:10149000E6FF00EF09F0E76E050EE7CFDBFF120075
:1014A0008BDF23EF0AF0DBCFE6FF86DF2CEF0AF0BD
:1014B000D950F90FE96EFF0EF1EF09F0E96E000E59
:0614C000DA20EA6E1200C2
:0A14C600DACFE4FFE2CFDAFFE9CF4E
:1014D000E4FFEACFE4FFE652F2A202D0A0D802D0A5
:1014E0009EB6CCD8E552E5CFEAFFE5CFE9FFE5CFE0
:1014F000DAFF1100E66A010EE66E050EE66E81EC7B
:1015000027F0E552E552E5521200070EB46E000EC8
:10151000886E876E866E856E846E836E826E816E37
:10152000806E916E906E8F6E8E6E8D6E8C6E8B6EE9
:101530008A6E896E2F0E926EFD0E936E9C0E946EC7
:10154000956A966A9768040E986E0E0E9A6E996860
:10155000C16AF19EB0989C8EA26A9F6AA06A9D6A39
:10156000A36AA56AC7DF9F86D08E9E969D86F06A85
:10157000F288F09EF098F192F09AF16AF28CF28E75
:101580001200D9CFE6FFE1CFD9FFE652BEDF02015C
:10159000409740990301040E3E6F020E3F6FDF6AD1
:1015A000100EDF5C0AE2DF50EA6A3E25E96E3F5129
:1015B000EA227F0EEF6EDF2AF3D702011D6B010EC8
:1015C0001E6FC20E1F6F020140850201226B236B4A
:1015D0000201006B026B036B010ED56E320ED76EEB
:1015E000CF0ED66ED59E000EE66E020EE66E8BD83E
:1015F000E552E55202014093000EE66E020EE66EE1
:1016000082D8E552E55202014093E552E552E7CF18
:10161000D9FF120082828088949292981200F292EE
:101620000301200E3A6F9F86020140A906D00301F4
:10163000E00E376F000E386F05D00301C00E376F14
:10164000000E386F020140A1407940A706D0030187
:10165000800E356F000E366F05D00301A00E356F7A
:10166000000E366FC9CF3BF335C3E9FF36C3EAFF3F
:10167000352B000E3623EF50C96E12009E96C9CF4F
:101680003BF303013A51000823E237C3E9FF38C3B3
:10169000EAFF372B000E38233BC3EFFF35C3E9FFCA
:1016A00036C3EAFF352B3623EFCF3BF33BC3C9FFED
:1016B0003A073A510CE10201020E1E6F02014093FB
:1016C0004081320ED76ECF0ED66EF294D58E01D0F9
:1016D000C96A1200D9CFE6FFE1CFD9FF020140A1CC
:1016E0000ED0FD0EDBCFE6FFFE0EDBCFE6FFB9EC42
:1016F00017F0E552E5529D96020140919D86E55214
:10170000E7CFD9FF1200D9CFE6FFE1CFD9FF020121
:1017100040B332D0FD0EDBCFE9FFFE0EDBCFEAFF98
:101720001E0EE926000EEA22EF50020809E1FD0E26
:10173000DBCFE6FFFE0EDBCFE6FF69D8E552E552D0
:10174000FD0EDBCFE9FFFE0EDBCFEAFF150EE9262B
:10175000000EEA22EF9EFD0EDBCFE6FFFE0EDBCF92
:10176000E6FF27EC17F0E552E5529D96020140771F
:1017700040839D8602011D2BE552E7CFD9FF120061
:101780009D96020140919D861200D9CFE6FFE1CFE0
:10179000D9FF0001166BD950FD0FE96EFF0EDA205C
:1017A000EA6E010EEE1801E1ED5002E1168101D062
:1017B000BA6AD950FB0FE96EFF0EDA20EA6E010E0D
:1017C000EE1801E1ED5002E1168301D0B76AD9505D
:1017D000F90FE96EFF0EDA20EA6E010EEE1801E154
:1017E000ED5002E1168501D0736AD950F70FE96E0A
:1017F000FF0EDA20EA6E010EEE1801E1ED5002E173
:10180000168701D0706AE552E7CFD9FF1200D9CF11
:10181000E6FFE1CFD9FFFD0EDBCFE9FFFE0EDBCF08
:10182000EAFF1C0EE926000EEA22EF6AFD0EDBCF6E
:10183000E9FFFE0EDBCFEAFF170EE926000EEA22D3
:10184000EF6AC6AE0ED0C69EFD0EDBCFE9FFFE0EE0
:10185000DBCFEAFF170EE926000EEA22010EEF6E3B
:1018600022D0F150800B10E0F250080B0DE0FD0E7D
:10187000DBCFE9FFFE0EDBCFEAFF170EE926000EF5
:10188000EA22020EEF6E0FD0F0A60DD0909EFD0E54
:10189000DBCFE9FFFE0EDBCFEAFF170EE926000ED5
:1018A000EA22030EEF6E250EC614250819E0FD0E80
:1018B000DBCFE9FFFE0EDBCFEAFF1C0EE926000EB0
:1018C000EA22010EEF6EFD0EDBCFE9FFFE0EDBCF4D
:1018D000EAFF170EE926000EEA22C6CFEFFF80D1FD
:1018E000C55019E0FD0EDBCFE9FFFE0EDBCFEAFFAE
:1018F0001C0EE926000EEA22020EEF6EFD0EDBCF73
:10190000E9FFFE0EDBCFEAFF170EE926000EEA2202
:10191000C5CFEFFF65D1D0BE19D0FD0EDBCFE9FFFB
:10192000FE0EDBCFEAFF1C0EE926000EEA22030EB4
:10193000EF6EFD0EDBCFE9FFFE0EDBCFEAFF170EE9
:10194000E926000EEA22D0CFEFFF4AD19DB619D08A
:10195000FD0EDBCFE9FFFE0EDBCFEAFF1C0EE92612
:10196000000EEA22040EEF6EFD0EDBCFE9FFFE0E45
:10197000DBCFEAFF170EE926000EEA229DCFEFFF2C
:101980002FD19C5019E0FD0EDBCFE9FFFE0EDBCF1F
:10199000EAFF1C0EE926000EEA22050EEF6EFD0E90
:1019A000DBCFE9FFFE0EDBCFEAFF170EE926000EC4
:1019B000EA229CCFEFFF14D1080E9F5C19E0FD0EC8
:1019C000DBCFE9FFFE0EDBCFEAFF1C0EE926000E9F
:1019D000EA22060EEF6EFD0EDBCFE9FFFE0EDBCF37
:1019E000EAFF170EE926000EEA229FCFEFFFF8D09C
:1019F000A25019E0FD0EDBCFE9FFFE0EDBCFEAFFC0
:101A00001C0EE926000EEA22070EEF6EFD0EDBCF5C
:101A1000E9FFFE0EDBCFEAFF170EE926000EEA22F1
:101A2000A2CFEFFFDDD0A55019E0FD0EDBCFE9FF1F
:101A3000FE0EDBCFEAFF1C0EE926000EEA22080E9E
:101A4000EF6EFD0EDBCFE9FFFE0EDBCFEAFF170ED8
:101A5000E926000EEA22A5CFEFFFC2D0100EF21445
:101A6000100819E0FD0EDBCFE9FFFE0EDBCFEAFF29
:101A70001C0EE926000EEA22090EEF6EFD0EDBCFEA
:101A8000E9FFFE0EDBCFEAFF170EE926000EEA2281
:101A9000F2CFEFFFA5D0470EF11419E0FD0EDBCF1A
:101AA000E9FFFE0EDBCFEAFF1C0EE926000EEA225C
:101AB0000A0EEF6EFD0EDBCFE9FFFE0EDBCFEAFF75
:101AC000170EE926000EEA22F1CFEFFF89D0C00EF3
:101AD000F01419E0FD0EDBCFE9FFFE0EDBCFEAFFCD
:101AE0001C0EE926000EEA220B0EEF6EFD0EDBCF78
:101AF000E9FFFE0EDBCFEAFF170EE926000EEA2211
:101B0000F0CFEFFF6DD092A819D0FD0EDBCFE9FF2B
:101B1000FE0EDBCFEAFF1C0EE926000EEA220C0EB9
:101B2000EF6EFD0EDBCFE9FFFE0EDBCFEAFF170EF7
:101B3000E926000EEA2292CFEFFF52D093B019D0DF
:101B4000FD0EDBCFE9FFFE0EDBCFEAFF1C0EE92620
:101B5000000EEA220D0EEF6EFD0EDBCFE9FFFE0E4A
:101B6000DBCFEAFF170EE926000EEA2293CFEFFF44
:101B700037D03E0E94141C0819E0FD0EDBCFE9FFB0
:101B8000FE0EDBCFEAFF1C0EE926000EEA220E0E47
:101B9000EF6EFD0EDBCFE9FFFE0EDBCFEAFF170E87
:101BA000E926000EEA2294CFEFFF1AD097BE18D094
:101BB000FD0EDBCFE9FFFE0EDBCFEAFF1C0EE926B0
:101BC000000EEA220F0EEF6EFD0EDBCFE9FFFE0ED8
:101BD000DBCFEAFF170EE926000EEA2297CFEFFFD0
:081BE000E552E7CFD9FF120026
:081BE8006EDA82DAD8902C506D
:101BF00004E6D00E2B5C070E2C5805E20301D00E34
:101C0000536F070E0CD074DA2C340BE22B50CE0835
:101C1000080E2C5406E20301CE0E536F080E546FCB
:101C200006D0FD0EDBCF53F3FE0EDBCF54F353C3D0
:101C30002BF054C32CF0D00E2B5E070E2C5A2B50D9
:101C400047D2F00EE66E25EC23F0E552938693849E
:101C5000938899829980938E938C9A869A849A829B
:101C60009A9E9A9C02017F0E0F6F0E6F066F046F93
:101C7000076F056F000EE66EE66AE66EE66AE66ED0
:101C8000E66AE66EE66AC5EC0BF0F56E080EE15EFC
:101C9000F55024EC1CF017EC13F071EC20F032EC52
:101CA0001FF095EC25F00101010EE06FA2EC21F090
:101CB0007BEC1AF076EC23F0FDD90AEF0BF003DA97
:101CC000080EE126200EE66E020EE66E6AEC0BF0C0
:101CD000E552E552DCEC12F00201416F0101F92BF3
:101CE000000EFA23FB2BFC233C0EFB1904E1FC51F4
:101CF00002E1ECEC21F00101500EF6D902E3020101
:101D000000830101780EF0D902E30201008701018E
:101D1000A00EEAD902E3020100890101C80EE4D94C
:101D200002E30201008D0101C80EFB1906E1FC511E
:101D300004E1F8EC21F02DEC22F001011E0EF95D1A
:101D4000000EFA5939E3C80ECFD936E31AEC22F067
:101D5000060EF3CFDBFF070EF4CFDBFFA9EC21F07B
:101D6000F3CFDEFFF4CFDDFFD7EC21F0020E1BC076
:101D7000DBFF030E1CC0DBFF040E1DC0DBFF050EE6
:101D80001EC0DBFF060EDBCFE6FF070EDBCFE6FF54
:101D9000C70E2B6E480EC1D9DECFE6FFDDCFE6FFC2
:101DA000B70E2B6E480EB9D9AAD9A50E2B6E480EC8
:101DB000B4D90101F96BFA6B22C3E6FF23C3E6FF36
:101DC00020C3E6FF21C3E6FF930E2B6E480E58D9C1
:101DD000070EE15EF5501DEC25F01DEC25F001012C
:101DE000C80E82D901E32DD802012151200B0BE04E
:101DF0000101FD5108E10301800E4F6F4F0E506F3E
:101E0000120E516F526B02012151200B01E0010EA5
:101E10000101FD6F4FD9D9CFE1FF5AD154D95CD917
:101E20002D26080E2E2237D90201076F056F54D9CF
:101E3000D8802D56080E2E562ED90201066F046F3B
:101E400047D141D9040EE12602012C515FD92BC0A4
:101E5000DEFF2CC0DDFF295159D9020E2BC0DBFF5C
:101E6000030E2CC0DBFF020EDBCF2BF0030EDBCF0B
:101E70002CF02C3404E32B50F608FF0E2C5429E2EE
:101E8000020EDBCF2DF0030EDBCF2EF0D8902E50BC
:101E900004E60A0E2D5C000E2E581BE2DECF2BF05E
:101EA000DDCF2CF0D8902B362C36D8902B362C3614
:101EB000050E226E236A2BC01DF02CC01EF0CAEC4A
:101EC00015F01DC02BF01EC02CF01DC0DEFF1EC083
:101ED000DDFF94EC20F002012251010B14E02351AC
:101EE000010B11E027C207F227C205F226512B6E23
:101EF0002C6AFF0ED8802B56000E2C562BC006F2F3
:101F00002BC004F20AD0DECFE6FFDDCFE6FFF7D824
:101F100085DFE552E552E552E5528150100B02E0B3
:101F20008D9601D08D868C9602012351020B02E022
:101F30008D8A01D08D9A4AEC21F08850080B01E07F
:101F4000010EE66EE66A8850040B01E0010EE66EB3
:101F5000E66A8850020B01E0010EE66EE66A710E39
:101F60002B6E480E8DD8090EE15EF550050EE66E1B
:101F7000F4EC1AF0E552F3CF2BF0F4CF2CF0F3CFC2
:101F8000E6FFF4CFE6FF660E2D6E480E2E6E2F6A2A
:101F90002DC0E6FFE66E2FC0E6FF56EC26F0F56E8C
:101FA000050EE15EF55037C21EF0F9EC14F01CC0CE
:101FB00033F01DC034F01EC035F01FC036F0710E76
:101FC000216E3D0E226E7A0E236E410E246E5DEC64
:101FD00015F01CC02FF01DC030F01EC031F01FC026
:101FE00032F0216A226A800E236E430E246E0AECC0
:101FF00015F01CC02BF01DC02CF01EC02DF01FC012
:102000002EF0216A226A200E236E410E246E5DECB2
:1020100015F051EC16F01EC000F2830E0201055DB2
:1020200003E3040E075F08D007517B0803E3040EA7
:10203000072702D07F0E076F07C205F2830E045DEB
:1020400003E3040E065F08D006517B0803E3040E89
:10205000062702D07F0E066F06C204F2020123A9F2
:1020600002D07DEC23F0020122A902D0C2EC23F0C1
:10207000020123A102D076EC23F0D9CFE1FF28D0D2
:102080002C6E2D6A2BC0E6FFE66E2DC0E6FF56ECE7
:1020900026F0F56E1200FB0EDB502D5C2B6EFC0E55
:1020A000DB502E582C6E2BC0E6FFE66E9DDDE55210
:1020B000E5521200000EE66E020EE66E83EC0BF0A7
:1020C000E552E5521200D9CFE6FFE1CFD9FF120069
:1020D000E552E7CFD9FF1200FD0EDBCF2DF0FE0E4B
:1020E000DBCF2EF04F0E1200FB5D000EFC591200EC
:1020F000FD0EDBCF2BF0FE0EDBCF2CF01200020E1C
:10210000DBCFE6FF030EDBCFE6FF12002B6E2C6A5F
:102110007F0E2B5E000E2C5A1200B2DF050EE15E20
:04212000F550120064
:0C212400D9CFE6FFE1CFD9FF040EE12681
:10213000FD0EDBCFE6FFFE0EDBCFE6FF9DD8E552BE
:10214000E5521BC0DEFF1CC0DEFF1DC0DEFF1EC04F
:10215000DDFFDD52DD52F4D9000E1F18E8AE02D0CB
:102160001F3409D0000ED8801C54000E1D54000EE0
:102170001E54000E1F5449E3E3D9FD0E1C1808E15C
:10218000E8681D1805E1E8681E1802E1E8681F18F4
:1021900028E0FE0E1C1808E1E8681D1805E1E86853
:1021A0001E1802E1E8681F182BE0E8681C1808E117
:1021B000E8681D1805E1E8681E1802E1E8681F18C4
:1021C0000CE01C501DE11D501BE11E5019E11F5079
:1021D00017E19F0E2B6E490E07D0910E2B6E490E04
:1021E00003D0850E2B6E490E2C6E2D6A2BC0E6FF98
:1021F000E66E2DC0E6FF56EC26F0E552E552E552BC
:102200001B6A1C6A1D6A1E6A36D0D9CFE9FFDACF75
:10221000EAFFEECF2FF0EECF30F0EECF31F0EFCF80
:1022200032F0060E206E216A226A236A2FC01BF04C
:1022300030C01CF031C01DF032C01EF0E2EC26F0C0
:1022400017C02FF018C030F019C031F01AC032F0AA
:102250002B6A870E2C6E930E2D6E030E2E6E86D972
:102260001E6E17C020F018C021F019C022F01AC04D
:1022700023F0F0EC15F081D1D9CFE6FFE1CFD9FF03
:10228000140EE1260C0EDB6A0D0EDB6A0E0EDB6A05
:102290000F0EDB6A100EDB6A110EDB6A120EDB6AB0
:1022A000130EDB6A70D9010EEE1819E1ED5017E13B
:1022B000E10EDE6E020EDD6ED950020F3DD91C0E0E
:1022C000EE6E030EED6ED950040F36D9160EEE6E7B
:1022D000030EED6E6DD9F30EEE6E020E1CD053D9C7
:1022E000020EEE181AE1ED5018E1D10EDE6E020E6C
:1022F000DD6ED950020F20D91A0EEE6E030EED6E70
:10230000D950040F19D9140EEE6E030EED6E50D98C
:10231000F10EEE6E020EED6E02D01B68ECD0020ED6
:10232000DBCFE9FF030EDBCFEAFF15D9EECF2BF0B1
:10233000EFCF2CF0010ED8902B362C36E806FBE1BF
:10234000DE502B24E96EDD502C20EA6E2DC0EEFF0E
:102350002EC0EDFF080EDB6A090EDB6A080EDBCF2C
:102360002BF0090EDBCF2CF0D8902C5004E6080E91
:102370002B5C000E2C5858E2C2D8EDD8EECF31F0CD
:10238000EFCF32F0010ED89031363236E806FBE15D
:10239000DE503124E96EDD503220EA6EEE502D5CC5
:1023A0002B6EEE502E582C6E0A0E2BC0DBFF0B0E40
:1023B0002CC0DBFF0A0EDBCF2BF00B0EDBCF2CF09B
:1023C000D8802C5004E7F10E2B5CFF0E2C5826E32E
:1023D0000A0EDBCF2DF00B0EDBCF2EF02E3404E2F5
:1023E0002D500F08000E2E5419E389D8D3D82CAEE7
:1023F00002D02D682E68D9500C0F9ED82B50EE2697
:102400002C50EE222D50EE222E50EE22D950100FDD
:1024100093D8EE2A000EEE22EE22EE22080EDB2AE0
:10242000090E9CE3DB2A9AD7C3D8EECFF3FFEDCF9A
:10243000F4FF020EEE26000EEF22F3CFE9FFF4CFF9
:10244000EAFF6DD82B502C102D102E1002E1FE0E3D
:1024500051D00F0E2B6E2C6A2D6A2E6AD9500C0F9C
:102460006BD8EE502B26EE502C22EE502D22EE5043
:102470002E2297D8EECF2FF0EFCF30F0316A326AAC
:102480002E503218E8AE02D0323408D02F502B5CD8
:1024900030502C5831502D5832502E5806E281D8E9
:1024A00079D864D82EC01EF029D0100EDBCF2BF0C7
:1024B000110EDBCF2CF0120EDBCF2DF0130EDBCF85
:1024C0002EF02B502C102D102E1013E028D84ED8A3
:1024D0002EC01EF0100EDBCF20F0110EDBCF21F04E
:1024E000120EDBCF22F0130EDBCF23F0F0EC15F051
:1024F00005D0FD0E1B6E1C681D681E683ED0080EC0
:10250000DBCF2FF0090EDBCF30F0D8902F363036EE
:10251000DE502F24E96EDD503020EA6E12000C0EE2
:10252000DBCF2BF00D0EDBCF2CF00E0EDBCF2DF022
:102530000F0EDBCF2EF01200E96EDACFEAFF1200A9
:10254000DECF1CF0DECF1DF0DECF1EF0DDCF1FF0A2
:10255000DD52DD521200EECF2DF0EFCF2EF0060E41
:10256000DBCFE9FF070EDBCFEAFF12002BC01BF029
:102570002CC01CF02DC01DF01200D9CFE1FFE55298
:10258000E7CFD9FF1200D950FD0FE96EFF0EDA2018
:10259000EA6E1200EECF2BF0EFCF2CF02D6A2E6AF0
:1025A0001200040EDBCFE9FF050EDBCFEAFF1200BD
:0825B000D950060F9CEF12F058
:0825B8008150400B19E1815034
:1025C000800B16E18750010B13E18750020B10E1DD
:1025D000060E030149AF02D0D89003D0485D000E2B
:1025E000495904E2482B000E49231FD04A6B1DD0E5
:1025F0000301486B496B8750020B01E0010E040D8B
:10260000F3CF2DF08750010B030DF3CF2CF0815049
:10261000800B01E0010EE8242B6E8150400B01E09D
:10262000010E2B242C242D244A6F4A511200CE0E69
:10263000E66EE668320EABD9B8D9080EA8D9420EBC
:10264000E66E020EAAD9EF0EE66EE668110EE66E91
:10265000E66A050EE66EE66AA8D91E0E98D96A0EDD
:10266000E66E020E9AD9CE0EE66EE668320EE66E81
:10267000E66A050EE66EE66A020E89D9000EE66E7F
:10268000E66A0F0E84D9560EE66E020ECDEF14F0F8
:10269000D9CFE6FFE1CFD9FF030EE126D7EC21F039
:1026A0001BC0DEFF1CC0DDFF020EDB6A03014C2BEA
:1026B000000E4D23FF0E4B5D12E1DECF7EF2DDCF2B
:1026C0007FF24B6B8850020B0AE08850040B07E046
:1026D000060E4B6F110E02017E5F030E7F5B02013F
:1026E00041511DE0040A14E0070A0CE0010A05E06C
:1026F000030A22E10301030E10D003014C6B4D6B62
:10270000040E0BD0030E03014B5D16E0010E05D045
:10271000030E03014B5D10E0020E4B6F0DD0020E55
:102720000301E76E4B19E8AE02D04B3503D0E750FA
:10273000D8804B5501E34B6B03014B51050A01E176
:1027400075D0010A5EE0070A34E0010A26E0030AB8
:1027500019E0010A12E0060A6DE110D96A0EE66E70
:10276000020EF7D84C0E03014DAF02D0D89003D023
:102770004C5D000E4D595EE342D000D9420EE66E2C
:10278000020E15D0F40E02017E252B6E010E7F2164
:102790002C6E2BC0E6FFE66E09D07EC22BF07FC206
:1027A0002CF0F40E2B5E010E2C5A18D908D9D1D872
:1027B00041D0DECF2BF0DDCF2CF0580E2B26020EB1
:1027C0002C220CD9FCD8C5D8DECF2BF0DDCF2CF0D5
:1027D000D30E02017E252D6E050E7F212E6E2C500C
:1027E0002E18E8AE02D02E3404D02D502B5C2E5083
:1027F0002C5820E3220E7E27060E7F2303014B6B0D
:1028000019D00A0E4DAF02D0D89003D04C5D000E07
:102810004D5908E20201890E066F046F750E076FAD
:10282000056F01D0D4D80301010E03D0D0D8030125
:10283000020E4E6F03014E51030A30E0010A1FE001
:10284000030A0CE0010A2DE18D888C98CCD804E6AF
:102850005E0E2B5C030E2C5824E220D002010E6980
:1028600083D8F4341EE22B508608030E2C5419E250
:1028700002017F0E0E6F0301050E4B6F12D0B3D80D
:1028800004E65E0E2B5C030E2C580BE202017F0E59
:102890000E6F0301030E4E6F4B6B03D002017F0ED0
:1028A0000E6F4BC32BF02C6A2BBE2C6897D84EC3EF
:1028B0002DF02E6A2DBE2E682DC0E6FF2EC0E6FF3D
:1028C000020EDBCF2FF0306A2FBE30682FC0E6FF3C
:1028D00030C0E6FF41C231F0326A31BE326831C0E9
:1028E000E6FF32C0E6FF4AD8D70E336E480E346E8C
:1028F000356A33C0E6FFE66E35C0E6FF56EC26F0DB
:10290000F56E0F0EE15EF550030E0301E76E4B19F5
:10291000E8AE02D04B3503D0E750D8804B5513E3D7
:10292000020EDBCFE6FFA70EE552D880E754020186
:10293000076F056F020EDBCFE6FF570EE552D8801A
:10294000E754066F046FD9CFE1FFE552E7CFD9FF17
:102950001200E66E40EC19F0F56E060EE15EF550E1
:10296000020EF3CFDBFF1200050EE66EF4EC1AF058
:10297000E552F3CF2BF0F4CF2CF012007EC2E6FF2D
:102980007FC2E6FFDECFE6FFDDCFE6FF1200E66E98
:10299000E66A010EE66EE66A1200E66EC9EC18F011
:1029A000F56E120EE15EF5501200020EE66EE66A5A
:1029B000FA0EE66EE66A000EE66EE66A1200DECFFA
:1029C000E6FFDDCFE6FF560EE66E020E12000201B4
:1029D0007F0E076F056F066F046F12002BC0E6FFB6
:1029E0002CC0E6FF120002010E6BBEDFD890F4503F
:0229F0001200D3
:0E29F200269E05D0269E1EAE02D01E6C268E9E
:102A00001EC018F0176A2A6A296A860E196E1A6A99
:102A100094EF16F0266AD0EC16F0E8EC16F026B625
:102A200078EF16F026A205D026BA78EF16F07FEFE1
:102A300016F026BA8BEF16F026A005D026B878EF50
:102A400016F08BEF16F026B87FEF16F01A6A7F0E9D
:102A50001F24196EE86A1A222450195EE86A1A5A6D
:102A60001A0E276E1F6A296A2A6A176A186A215085
:102A70001C5E22501D5A23501E5A000E1F5A09E791
:102A800021501C2622501D2223501E22000E1F22E0
:102A900001D0298AD8901C361D361E361F36D89094
:102AA00029362A3617361836272EE1D71E501D1024
:102AB0001C10D8A4298A94EF16F0266AD0EC16F0E0
:102AC000E8EC16F026B678EF16F026A205D026B868
:102AD00078EF16F07FEF16F026AA05D026B078EF33
:102AE00016F07FEF16F026B002D026A802D08BEFAA
:102AF00016F01A6A24501F24196EE86A1A227E0EF4
:102B0000195EE86A1A5A296A2A6A176A186A2350EB
:102B10001E02F4CF18F0F3CF17F022501E02F3502C
:102B20002A26F4501722000E182223501D02F350BB
:102B30002A26F4501722000E182221501E02F350AC
:102B40002926F4502A22000E1722182222501D0294
:102B5000F3502926F4502A22000E1722182223505F
:102B60001C02F3502926F4502A22000E17221822A4
:102B700021501D02F4502926000E2A221722182265
:102B800022501C02F4502926000E2A221722182255
:102B900094EF16F0256A23AED3EF15F0226C231EB6
:102BA000E86A2322251E1EAEDBEF15F01D6C1E1EEB
:102BB000E86A1E22251E29EC28F01EBEEBEF15F058
:102BC00025AE000C1D6C1E1EE86A1E22196C1A1E12
:102BD000E86A1A22000C25BEE2EF15F02688FF0CE9
:102BE000256AE86A23AEFDEF15F0206C211E221E37
:102BF000231E212222222322251E1EAE08EF16F0BC
:102C00001B6C1C1E1D1E1E1E1C221D221E22251E8C
:102C1000E6EC27F01EBE1FEF16F025AE000C1B6C75
:102C20001C1E1D1E1E1EE86A1C221D221E22176C61
:102C3000181E191E1A1E182219221A22000C25BE4F
:102C40000FEF16F02688FF0C1EC02AF01DC029F0D9
:102C50001D502202F4CF1CF0F3CF1BF01E502302B4
:102C6000F4CF1EF0F3CF1DF02202F3501C26F450D7
:102C70001D22E86A1E2229502302F3501C26F4501C
:102C80001D22E86A1E2223AE4AEF16F029501D5E6F
:102C90002A501E5A2AAE000C22501D5E23501E5A86
:102CA000000C266AD0EC16F026B65BEF16F026A2D2
:102CB0000AD026B403D07F0E1E6E19D0800E1E6E71
:102CC00016D01E6A14D026B0FCD7870E1F60F1D72D
:102CD0007E0E1F64F6D7860E1F5C04E0D8901E326D
:102CE0001F2AF9D726A403D01E6C1EAEEAD7120005
:102CF0007F0E1F6EFF0E1E6E1D6E1C6E12007F0E6D
:102D000026BEFF0E1F6E02D07F0E1F6E800E1E6E3F
:102D10001D6A1C6AF3D726AE04D0800E1F6E1E6A91
:102D2000F7D71F6A1E6AF4D7185017102A102910F7
:102D3000F8E01ABEF0D718BE0CD019501A10EBE00C
:102D4000D89029362A36173618361906D8A01A060A
:102D5000F2D71A50D4E11928D2E029AE11D07F0E53
:102D6000291402E12AA00CD02A2AE86A1722182284
:102D700007E3D880183217322A32192A1928BFE0FF
:102D80001950C9E02AC01CF017C01DF018341E6E7F
:102D900019301F6E1E321F9E26BE1F8E7EEF16F04C
:102DA0001E361F3602E32684267E06E126801F6A31
:102DB0001E6A1D6A1C6A12001F2803E0D8801E329A
:102DC0001200D8901E3202E12682120026861200DE
:102DD0002336243602E3268C267E06E12688246AE2
:102DE000236A226A216A1200242803E0D880233251
:0C2DF0001200D8902332EAE1268A12007B
:042DFC00000EE96E6E
:102E0000EA6E04000BEC17F0EA2A080EEA5CD8A47C
:102E100001EF17F01200EF6AE93E0BEF17F0120016
:102E2000FF0EE3CF09F009380F0B060FD8B2070FDA
:102E30002A0FAD6EAFEC22F009500F0B060FD8B27F
:102E4000070F2A0FAD6EAFEC22F0000C1200EACF94
:102E500004F0E9CF05F0FF0EE3CFEAFFFE0EE3CF6B
:102E6000E9FF40A741D0EECFA0F0EECFA1F0EECF2A
:102E7000A2F0EECFA3F0EECFA4F0EECFA5F0EECF10
:102E8000A6F0EECFA7F0EECFA8F0EECFA9F0EECFF0
:102E9000AAF0EECFABF0EECFACF0EECFADF0EECFD0
:102EA000AEF0EECFAFF0EECFB0F0EECFB1F0EECFB0
:102EB000B2F0EECFB3F0EECFB4F0EECFB5F0EECF90
:102EC000B6F0EECFB7F0EECFB8F0EECFB9F0EECF70
:102ED000BAF0EECFBBF0EECFBCF0EECFBDF0EECF50
:102EE000BEF0EECFBFF040D0EECF80F0EECF81F05D
:102EF000EECF82F0EECF83F0EECF84F0EECF85F010
:102F0000EECF86F0EECF87F0EECF88F0EECF89F0EF
:102F1000EECF8AF0EECF8BF0EECF8CF0EECF8DF0CF
:102F2000EECF8EF0EECF8FF0EECF90F0EECF91F0AF
:102F3000EECF92F0EECF93F0EECF94F0EECF95F08F
:102F4000EECF96F0EECF97F0EECF98F0EECF99F06F
:102F5000EECF9AF0EECF9BF0EECF9CF0EECF9DF04F
:102F6000EECF9EF0EECF9FF004C0EAFF05C0E9FF70
:102F7000120040A11200EACF04F0E9CF05F0FF0EE5
:102F8000E3CFEAFFFE0EE3CFE9FF40A941D0C0C086
:102F9000EEFFC1C0EEFFC2C0EEFFC3C0EEFFC4C073
:102FA000EEFFC5C0EEFFC6C0EEFFC7C0EEFFC8C053
:102FB000EEFFC9C0EEFFCAC0EEFFCBC0EEFFCCC033
:102FC000EEFFCDC0EEFFCEC0EEFFCFC0EEFFD0C013
:102FD000EEFFD1C0EEFFD2C0EEFFD3C0EEFFD4C0F3
:102FE000EEFFD5C0EEFFD6C0EEFFD7C0EEFFD8C0D3
:102FF000EEFFD9C0EEFFDAC0EEFFDBC0EEFFDCC0B3
:10300000EEFFDDC0EEFFDEC0EEFFDFC0EEFF40D022
:10301000E0C0EEFFE1C0EEFFE2C0EEFFE3C0EEFF76
:10302000E4C0EEFFE5C0EEFFE6C0EEFFE7C0EEFF56
:10303000E8C0EEFFE9C0EEFFEAC0EEFFEBC0EEFF36
:10304000ECC0EEFFEDC0EEFFEEC0EEFFEFC0EEFF16
:10305000F0C0EEFFF1C0EEFFF2C0EEFFF3C0EEFFF6
:10306000F4C0EEFFF5C0EEFFF6C0EEFFF7C0EEFFD6
:10307000F8C0EEFFF9C0EEFFFAC0EEFFFBC0EEFFB6
:10308000FCC0EEFFFDC0EEFFFEC0EEFFFFC0EEFF96
:1030900004C0EAFF05C0E9FF1200F2B412001650A6
:1030A0000F0AD8B41200FF0EE3CF0AF0FE0EE3CFF2
:1030B0000BF0FD0EE3CF0CF0FC0EE3CF0DF00A2A6F
:1030C00016A08D8E0B2A16A28F800C2A16A48F862E
:1030D0000D2A16A68F880E6A0F6A106A116AA0EC74
:1030E00018F00A2E76EF18F016A08D9E0B2E7BEFAF
:1030F00018F016A28F900C2E80EF18F016A48F9661
:1031000000000D2E86EF18F016A68F9800000E2EE8
:103110008BEF18F0129000000F2E90EF18F0129223
:103120000000102E95EF18F012940000112E9AEF67
:1031300018F01296C2EC18F0133E71EF18F012005E
:10314000D70E136E0000000000000000B8EC18F06D
:10315000132EA2EF18F0D70E136E0000000000002F
:103160000000B8EC18F0132EADEF18F000001200BC
:103170000000BBEF18F0000000000000000000009D
:1031800000001200030E146E0000142EC4EF18F09D
:0231900012002B
:0E319200D9CFE6FFE1CFD9FFE150F90F5CD9AC
:1031A0000BE1FB0EDB6AFC0EDB6A010EF36EF90E1F
:1031B000F3CFDBFFFA0EDB6AD950F10F4DD90BE1EB
:1031C000F30EDB6AF40EDB6A010EF36EF10EF3CF41
:1031D000DBFFF20EDB6AD950F50F3ED90BE1F70E9B
:1031E000DB6AF80EDB6A010EF36EF50EF3CFDBFF40
:1031F000F60EDB6A17D9FB0EDBCFEEFFFC0E77D99C
:10320000020E26D9F90EDBCFEEFFFA0E70D9040EAE
:103210001FD9F70EDBCFEEFFF80E69D9060E18D9CD
:10322000F50EDBCFEEFFF60E62D9080E11D9F30EC4
:10323000DBCFEEFFF40E5BD90A0E0AD9F10EDBCF1D
:10324000EEFFF20EDBCFEDFF34D9EF0EDBCFEEFF5A
:10325000F00EDBCFEDFF31D9ED0EDBCFEEFFEE0E42
:10326000DBCFEDFF22D9310EEE6E750EED6EDAD8A2
:103270000E0EEB6A0F0EEB6AE552E7CFD9FF120094
:10328000D9CFE6FFE1CFD9FF040EE126DE6ADD6A81
:10329000F90EDBCF2DF0FA0EDBCF2EF0FB0EDB505C
:1032A0002D5C2B6EFC0EDB502E582C6E020E2BC0AC
:1032B000DBFF030E2CC0DBFFF8D8310EEE1806E161
:1032C000750EED1803E1FDD8DFD8FFD8EED8EECFAC
:1032D0002BF0EFCF2CF02C3404E22B503008750E7D
:1032E0002C540AE3E2D8D7D8D8802E5004E7D00E69
:1032F0002D5C8A0E2E5801E2E8D894D8020EEBD845
:1033000091D8EECF2FF0EFCF30F0020EDBCF1DF0D3
:10331000030EDBCF1EF02FC022F030C023F024ECD0
:1033200016F01BC02DF01CC02EF01BC01DF01CC0E1
:103330001EF031C022F032C023F07BD873D8060EC5
:10334000D0D8B3D8EECF2FF0EFCF30F06BD8040E3B
:10335000C2D80001315087D832508ED833C022F005
:1033600034C023F066D85ED80A0E72D8EECF35F09E
:10337000EFCF36F0020EDBCF31F0030EDBCF32F0B1
:10338000A0D8EE50315C2F6EEE503258306E4AD8D5
:10339000080EA7D80001335066D834506DD835C018
:1033A00022F036C023F045D87BD883D874D82E506D
:1033B0002C18E8AE02D02C3404D02B502D5C2C50AD
:1033C0002E5805E276D8EECFDEFFEDCFDDFF68D8D0
:1033D00074D861D82C502E18E8AE02D02E3404D008
:1033E0002D502B5C2E502C5805E267D8EECFDEFF17
:1033F000EDCFDDFF66D848D8020EDBCF2BF0030EF1
:10340000DBCF2CF052D82B50EE262C50ED2248D892
:103410002BC0F3FF2CC0F4FFD9CFE1FFE552E7CF7B
:10342000D9FF1200FD0EDBCFE9FFFE0EDBCFEAFF76
:103430001200CAEC15F01DC02BF01EC02CF0D9CF25
:10344000E9FFDACFEAFF1D50EE262C50ED221200E4
:10345000E926000EEA221200E96EFF0EDA20EA6E7B
:10346000EE50ED1012002F02F3CF2DF0F4CF2EF01E
:103470003002F3502E2612002F02F3502E262DC0BC
:103480001DF02EC01EF01200020EDBCFEEFF030E69
:10349000DBCFEDFF1200EECF2DF0EFCF2EF01200BC
:1034A000DECF2BF0DDCF2CF01200BCDF0C0E28EFAE
:1034B0001AF0B8DF100E28EF1AF0B4DF120E28EF62
:1034C0001AF0B0DF0E0E28EF1AF0ACDF0C0EEB6A2C
:1034D0000D0EEB6A1200BCDFEECF31F0EFCF32F011
:1034E0001200B6DFEECF33F0EFCF34F01200DBCFB7
:0634F000EDFF12EF1AF0DF
:0A34F6007CD9E652C80E0201AA6F4D
:10350000AB6B050EAE6F010EAF6F040EAC6FAD6B03
:10351000DF6AAE51DF5C08E2DF5073D9EE6AEE6A13
:10352000EE6AEE6ADF2AF5D7CE6BCF6BD06B010E59
:10353000C26EC16A860EC06E9F9C9E9C9D8CAAC264
:10354000E6FFABC2E6FF0BD8E552E552E55255D196
:103550004FD9E65246D89D9CC26AE5524ED148D911
:10356000FD0EDBCF1DF0FE0EDBCF1EF01D5002E185
:10357000190E1E1828E0800E1D1802E10C0E1E18F0
:103580001EE0400E1D1802E1060E1E1816E0200E69
:103590001D1802E1030E1E180EE0900E1D1802E128
:1035A000010E1E1806E0C80E1D1811E11E500FE195
:1035B0000ED0520E09D0520E03D0510E05D0510E2E
:1035C000CA6E450E07D0500ECA6E8C0E03D06A0E1E
:1035D000CA6EDD0ECB6ECC6A9F929E929D82CA848B
:1035E0000CD19D92CA94120003D9020EE126FE0E60
:1035F000DBCF2BF00201AE51D8802B540CE39D9C05
:10360000FE0EDB04E96EEA6A10D9EECFDEFFEDCFE5
:10361000DDFF9D8C02D0DE6ADD6ADECF2BF0DDCFD0
:103620002CF02BC0F3FF2CC0F4FFD9CFE1FFE5D085
:10363000DFD8FD0EDBCF2BF0FE0EDBCF2CF02D6A9A
:103640002E6A880E206E130E216E226A236A2BC00A
:103650001BF02CC01CF02DC01DF02EC01EF0E2ECA3
:1036600026F017C02BF018C02CF019C02DF01AC08E
:103670002EF0206A080E216E226A236A17C01BF002
:1036800018C01CF019C01DF01AC01EF0F0EC15F0A7
:103690001BC02BF01CC02CF01DC02DF01EC02EF046
:1036A0001BC0F3FF1CC0F4FFA8D0A2D8E6529D9C1B
:1036B000FFC2DFFF9D8CDF50E5529FD09D9C020131
:1036C000FF6B9D8C1200C282120092D8050EE1267B
:1036D000C450DE6EDD6AD9CFE9FFDACFEAFFEE50E3
:1036E000ED6EEF6AC350DE26000EDD22DECF2BF03A
:1036F000DDCF2CF02D6A2E6A0201D05182D82B50DA
:10370000EE262C50EE222D50EE222E50EE22D02B03
:10371000AE51D05D04E3D06BCE2B000ECF23020E52
:10372000D0C2DBFFDB50040D020EF3CFDBFFDB80EA
:10373000DB50C26EAC51CE5DAD51CF594AE3030EA2
:10374000DB6A040EDB6A67D82CAE02D0D89003D0B7
:103750002B5C000E2C5820E23FD80201AF511F0B0A
:10376000EECF2BF0EECF2CF0EECF2DF0EECF2EF0F3
:1037700007E0D8902E322D322C322B32E806F9E1B8
:103780005CD853D82BC0EEFF2CC0EDFF030EDB2A14
:10379000040ED9E3DB2AD7D7030EDB6A040EDB6AFB
:1037A0003AD82CAE02D0D89003D02B5C000E2C5807
:1037B0000BE212D8EE6AEE6AEE6AEE6A030EDB2ABC
:1037C000040EEEE3DB2AECD70201FF2B0201CE6BE5
:1037D000CF6BD9CFE1FF11D030D8D890E936EA3697
:1037E000D890E936EA36B00EE926020EEA22120037
:1037F000D9CFE6FFE1CFD9FF1200E552E7CFD9FFDD
:103800001200040DF3CFE9FFF4CFEAFFB00EE92672
:10381000020EEA221200030EDBCF2BF0040EDBCFE8
:103820002CF00201AE5100011200D890E936EA36C0
:10383000C40EE926020EEA221200030EDBCFE9FFD6
:08384000040EDBCFEAFF1200C9
:08384800CE0EE66EE668320EBA
:103850005FD9020EE66EE66AFA0EE66EE66A000EC2
:10386000E66EE66A080E54D9800EE66E020E6AD93C
:10387000C40EE66EE6683C0EE66EE66A140E48D9A3
:10388000E66EE66A000EE66EE66A0A0E41D9940E0E
:10389000E66E020EA2EF1DF0D9CFE6FFE1CFD9FF11
:1038A000090EE126D7EC21F01BC0DEFF1CC0DDFFB6
:1038B000020EDB6A5EC32BF02C6A2BBE2C684AD941
:1038C00041C22DF02E6A2DBE2E682DC0E6FF2EC0FF
:1038D000E6FF510E2F6E490E306E316A2FC0E6FFA3
:1038E000E66E31C0E6FF3BD90201415102E003011F
:1038F0005E6B03015E5107E102017F0E066F046FEC
:10390000076F056FD7D08D888C985C1D09E15D1D10
:1039100007E11E0E0201A86FA96B03015C6B5D6BD2
:103920005CC3E6FF5DC3E6FF3D0E2B6E490EE5D896
:10393000050EE15EF550FDD82D0E2B6E490EDDD83B
:10394000070EE15EF55022C3E6FF23C3E6FF20C366
:10395000E6FF21C3E6FF1B0E2B6E490ECED8070EE5
:10396000E15EF550030E03015C1901E15D5101E1D7
:1039700074D0020E5C1901E15D516CE0010E5C191E
:1039800001E15D511CE05C5101E094D05D5101E02A
:1039900091D0000E0301226F236B0301206F216B76
:1039A0000201310E8C6F750E8D6F010E03015C6F7D
:1039B0005D6B0201BE0ED880A857000EA957B9D87A
:1039C000800EE66E020E7CD8A9D8D890E85004E6A6
:1039D0003C0E2B5C000E2C5809E3280E0201055DFD
:1039E000076F056F280E0425066F046F97D8020E27
:1039F0001D6E1E6AA8C222F0A9C223F024EC16F0A4
:103A00001BC02DF01CC02EF02C501C18E8AE02D0AC
:103A10002E3404D02D502B5C2E502C5804E3020E73
:103A200003015C6F5D6B8EC2E6FF8FC2E6FF020E84
:103A3000DBCF2BF02C6A2BBE2C688CD80C0E2D6E95
:103A4000490E2E6E2F6A2DC0E6FFE66E2FC0E6FFF0
:103A500086D830D0030E5C6F5D6BDECF2BF0DDCFF0
:103A60002CF00B0E5A252D6E0B0E5B212E6E2C505A
:103A70002E18E8AE02D02E3404D02D502B5C2E50E0
:103A80002C5807E35C6B5D6B460E5A270C0E5B23CC
:103A900011D0DECF2BF0DDCF2CF0520E2B26030EF3
:103AA0002C2258D8DECFE6FFDDCFE6FF940EE66E7F
:103AB000020E06D8D9CFE1FFE552E7CFD9FF1200B9
:103AC000E66E40EC19F0F56E060EE15EF550020E62
:103AD000F3CFDBFFDBCFE6FFBB0EE552D880E75428
:103AE0000201076F056F020EDBCFE6FF430EE552C2
:103AF000D880E754066F046F12002C6E2D6A2BC01D
:103B0000E6FFE66E2DC0E6FF56EC26F0F56E1200DD
:103B1000E66EE66A010EE66EE66A120003012051C7
:103B2000030122252B6E03012151030123212C6E59
:103B300012005AC3E6FF5BC3E6FFDECFE6FFDDCF30
:103B4000E6FF1200E66EC9EC18F0F56E120EE15EAB
:103B5000F55012002BC0E6FF2CC0E6FF120056EC19
:0C3B600026F0F56E070EE15EF550120035
:043B6C00D8CFE4FFCB
:103B7000E0CFE4FFE46EDACFE4FFE2CFDAFFE9CF93
:103B8000E4FFEACFE4FFF3CFE4FFF4CFE4FF00EE7D
:103B90002BF00C0EE80403E3EECFE4FFFBD7E65274
:103BA000D9CFE6FFE1CFD9FF030EE126F250040B97
:103BB00007E0F250200B04E0F294DDEC25F0B0D0E9
:103BC0009E50010B07E09D50010B04E09E90DEEC3F
:103BD00025F0A6D09E50020B04E09D50020B01E0A0
:103BE00098D0A150020B07E0A050020B04E0A19274
:103BF000DFEC25F095D0A450080B07E0A350080B8C
:103C000004E0A496E0EC25F08BD0F050020B07E026
:103C1000F050100B04E0F092E7EC25F081D0F0506A
:103C2000040B07E0F050200B04E0F094F2EC25F0D8
:103C300077D0F250010B43E0F250080B40E0815086
:103C4000DF6EF290DF5003015519E76E010EE7CFEA
:103C5000DBFFDFCF55F3DBA80AD0100EDF1402E044
:103C6000010E01D0000EE66EFDEC25F0E552010ECE
:103C7000DBAA0AD0200EDF1402E0010E01D0000EF4
:103C8000E66EFEEC25F0E552010EDBAC0AD0400EEC
:103C9000DF1402E0010E01D0000EE66EFFEC25F00D
:103CA000E552010EDBAE3CD0800EDF1402E0010EC7
:103CB00001D0000EE66E00EC26F0E55231D09E50A9
:103CC000400B03E09D50400B28E19E50200B03E089
:103CD0009D50200B15E1A450200B03E0A350200BB6
:103CE00012E19E50100B03E09D50100B0FE1A45009
:103CF000100B16E0A350100B13E03CEC20F010D09A
:103D0000E6EC1FF00DD005EC20F00AD024EC20F0FA
:103D100007D09E9263EC1BF003D09E9C65EC1BF0D9
:103D2000D9CFE1FFE552E7CFD9FFE55200EE36F0FB
:103D30000C0EE80403E3E5CFEDFFFBD7E5CFF4FF7E
:103D4000E5CFF3FFE5CFEAFFE5CFE9FFE5CFDAFF07
:103D5000E550E5CFE0FFE5CFD8FF100002017F0E70
:103D60000F6F0E6F076F066F056F046F8C9C8D9C35
:103D70008C9A8D9A8C988D988C968D9617EC13F062
:103D800071EC20F024EC1CF0020121AD61D061D86F
:103D9000020140A1F9D7200EE66E020EE66E6AEC33
:103DA0000BF0E552E5520301562B000E5723582322
:103DB0005923DCEC12F00201416F000E0301591986
:103DC000E8AE02D0593509D0BE0ED8805655000E47
:103DD0005755000E5855000E59551BE28850080BD8
:103DE00018E18850020B06E08850040B03E14CEC0C
:103DF0001CF017D08850020B03E18850040B06E139
:103E00008850020B0EE08850040B0BE048EC13F0D6
:103E100008D002017F0E0F6F0E6F066F046F076FE1
:103E2000056F13C2E6FF12C2E6FF11C2E6FF10C221
:103E3000E6FF4DEC18F0E552E552E552E552000E72
:103E4000E66E020EE66E83EC0BF0E552E5529CD76F
:103E5000120055EC1BF0000904E033EC22F05EEC9C
:043E60001BF0120041
:0C3E6400150EAF6EAC849D9A9D98AC9832
:103E7000AC9E948EAB9CAB96AB8AAB889F9A9D8A86
:103E8000030170697169949CAC9CAC969F989D8865
:103E9000AC8AAB8E1200400E6F6E6C94A39AA398FE
:103EA0006C986C9E98846B9C6B966B8A6B88A59AB9
:103EB000A38A03017069716998926C9C6C96A598AD
:103EC000A3886C8A6B8E120007D9E6529D9AE5C1D1
:103ED000DFFF9D8ADF50E552FBD0FED8E652A39A61
:103EE000F1C1DFFFA38ADF50E552F2D0F5D8E652E8
:103EF0000101E25102E0000E15D0E351EA6A000F21
:103F0000E96E010EEA22EFCFDFFFE507E32B1F0E7C
:103F1000E3179D9AE451E35D02E1010EE26F9D8A91
:103F2000E16BDF50E552D4D0D7D8E6520101EE5113
:103F300002E0000E15D0EF51EA6A400FE96E010E63
:103F4000EA22EFCFDFFFF107EF2B1F0EEF17A39A47
:103F5000F051EF5D02E1010EEE6FA38AED6BDF50D1
:103F6000E552B6D0B9D80101E851FDE1EB51EA6A5A
:103F7000200FE96E010EEA22FE0EDBCFEFFFEC2BE5
:103F8000EB2B1F0EEB179D98EB51EA5D02E1010E42
:103F9000E86F9D88E96B9CD09FD80101F451FDE149
:103FA000F751EA6A600FE96E010EEA22FE0EDBCFDE
:103FB000EFFFF82BF72B1F0EF717A398F751F65DBD
:103FC00002E1010EF46FA388F56B82D00101E1518B
:103FD00002E09D9A1200E451EA6A000FE96E010EB8
:103FE000EA22AECFEFFFABA203D0AB98AB88E62BB3
:103FF000ABB4E72BE52BE42B1F0EE417E451E35D94
:1040000002E1010EE16FE26B12000101ED5102E0ED
:10401000A39A1200F051EA6A400FE96E010EEA22FB
:104020006ECFEFFF6BA203D06B986B88F22B6BB453
:10403000F32BF12BF02B1F0EF017F051EF5D02E187
:10404000010EED6FEE6B12000101E95102E09D9847
:104050001200EA51EA6A200FE96E010EEA22EF50DF
:10406000AD6EEC07EA2B1F0EEA17EB51EA5D02E199
:10407000010EE96FE86B12000101F55102E0A3980F
:104080001200F651EA6A600FE96E010EEA22EF5063
:104090006D6EF807F62B1F0EF617F751F65D02E16D
:1040A000010EF56FF46B120017D80101E0510FE01B
:1040B000E00505E1FE0EDBCFE6FF54DF07D0020E80
:1040C000E05D05E1FE0EDBCFE6FF66DFE55200D0E6
:1040D000E552E7CFD9FF1200D9CFE6FFE1CFD9FFF4
:0240E0001200CC
:0E40E200830EE66EE6687D0EE66EE66A0A0E56
:1040F000E66EE66A010EE66EE66AD00EE66E070E22
:10410000E66E010EE66EE66AE66EE66A020EE66EA0
:10411000E66A000EE66E030EE66EC9EC18F0F56E68
:10412000120EE15EF5501200D9CFE6FFE1CFD9FFC4
:10413000050EE126E66EF4EC1AF0E552030EF3CF1D
:10414000DBFF040EF4CFDBFF020121BD1BD0730E99
:10415000285D09E328518B0806E32251400B03E157
:104160002251800B03E003016C6B0CD023AD03D014
:104170000301010E04D023AB04D00301020E6C6FC7
:1041800001D00201CCD8C30E2B6E490EB2D8030168
:104190006C5109E127C20EF2020122BD8D9822AFB7
:1041A00065D08D8863D06C51030A11E0010A0BE0E1
:1041B000030A15E1BA0EC1D8040EF36E020EF3CF56
:1041C000DBFF8D980CD0380EB8D8040E03D05E0EED
:1041D000B4D8030EF36E020EF3CFDBFF8D88010E11
:1041E000DBCF2DF0020EDBCF2EF0030EDB502D5C6B
:1041F0002B6E040EDB502E582C6ED890E85004E63F
:10420000040E2B5C000E2C581AE2010EDBCF31F0AD
:10421000020EDBCF32F0030EDB50315C2F6E040E4A
:10422000DB503258306EE83404E32F50FC08FF0EA8
:10423000305405E20301310E0C6F750E0D6F76D808
:104240006ED8000EE66E030EE66E40EC19F0F56EC9
:10425000060EE15EF550F350DF6E7F0EDF240201A3
:104260000E6F64D8B40E2B6E490E43D88D50100BD0
:1042700002E08C9801D08C8802010E51E66EE66A4D
:10428000A90E2B6E490E35D8D9CFE1FFE552E7CF05
:10429000D9FF120003016D51030A20E0010A16E064
:1042A000030A0EE0010A1EE191808D8C020123A118
:1042B00019D09190000E03016E6F6F6B010E04D048
:1042C000919025D80FE3020E6D6F0CD08D9C82A0CB
:1042D00009D0030E6D6F6E6B6F6B04D0918017D891
:1042E00001E36D6B9150010B02E08C9E12008C8EED
:1042F00012002C6E2D6A2BC0E6FFE66E2DC0E6FF85
:1043000056EC26F0F56E050EE15EF55012006E2BB0
:10431000000E6F23130E6E5D000E6F591200030E18
:10432000DBCFE6FF040EDBCFE6FF1200010EDBCF92
:10433000E6FF020EDBCFE6FF1200F36E010EF3CFB5
:04434000DBFF12008D
:0C4344000301286B296B2A6B2B6B326B7A
:10435000120026C31BF027C31CF01D6A1E6A1CAE88
:1043600002D01D681E68F0D8080EE9D81BC02BF0DB
:104370001CC02CF0C30E2C02F3CF2CF0030E2B022A
:10438000F3502C26C30E2B02F3CF2BF0F4502C2627
:10439000E80E226E030E236EF3CF1DF02CC01EF02C
:1043A000CAEC15F01DC0F3FF1EC0F4FF120028C3B5
:1043B0001BF029C31CF02AC31DF02BC31EF0C4D868
:1043C000500EBDD8C30E206E030E216EABD8E80E82
:1043D000206E030E9FEF22F00301325108E12C6B97
:1043E0002D6B2E6B2F6B306B316B010E326F120009
:1043F000030132051EE130C32BF031C32CF02D6ACE
:104400002E6A2CC31BF02DC31CF02EC31DF02FC32E
:104410001EF030C320F031C321F02DC022F02EC099
:1044200023F0E6EC27F01BC024F31CC025F30301A6
:10443000326B120024C3F3FF25C3F4FF1200D9CF5F
:10444000E6FFE1CFD9FFFD0EDBCF24F3FE0EDBCF7D
:1044500025F3E552E7CFD9FF12000301286B296B42
:104460002A6B2B6B1200D9CFE6FFE1CFD9FF020EEA
:10447000E1260301320512E1010EE66EF4EC1AF0BA
:10448000E552F35003012C270001F45003012D23C2
:10449000000E2E232F23302B31233ED0010EE66E4B
:1044A000F4EC1AF0E55203012451F35C2B6E255114
:1044B000F4582BC0DEFFDD6EDECF2BF0DDCF2CF00D
:1044C000D8802C5004E7F80E2B5CFF0E2C580BE321
:1044D000DECF2DF0DDCF2EF02E341CE22D5008085B
:1044E000000E2E5417E2DECF26F3DDCF27F3DECF0A
:1044F0002BF0DDCF2CF02D6A2E6A2CAE02D02D6869
:104500002E682B5028272C5029232D502A232E503B
:104510002B2302D0266B276BD9CFE1FFE552E7CFE3
:10452000D9FF1200226A236AE2EC26F017C01BF0C2
:1045300018C01CF019C01DF01AC01EF01200216E28
:10454000226A236AF0EF15F0740E206E050E216EBC
:0E455000E9DF050E206E216AE5DF206A120009
:02455E009EA815
:10456000FED71200B4D8FE0EDBCFE6FF10EC17F03A
:10457000E552A9D0ACD80301E150FD0F646FFF0EE6
:10458000DA20656F010EEA6A6425E96E6551EA2258
:10459000A3D864C3E9FF65C3EAFF9ED894D097D837
:1045A0000301666B1A0E665D0DE2FD0EDBCFE9FFBF
:1045B000DB2AFE0EDBCFEAFF01E3DB2A8DD8030105
:1045C000662BF0D780D00301200E646F020E656F5A
:1045D000020120510301686F696B6A51681902E199
:1045E0006B51691916E0020140B50ED06AC3E6FFAF
:1045F00010EC17F0E55268C3E6FF10EC17F0E55237
:104600000D0EAD6EACDF0201409568C36AF369C35D
:104610006BF303016A2B000E6B236B3507E26A51C3
:10462000FF08000E6B5502E26A6B6B6B1200150EF1
:10463000E66E3C0EE66EB4EC27F0E552E552320E23
:10464000E66E74EC28F0E552120041D8FE0EDBCF86
:1046500067F348D03CD8020EE1260F0EE66EFE0E40
:10466000DB507F0BFE0BFD0BE66EF10EE66E1AECD7
:1046700027F0E552E552E5520A0EE66E92EC28F07C
:10468000E552A9EC28F007EC04F00009FCE10AEC83
:1046900028F0A6EC28F0C4502D6E2E6E2D6AC35063
:1046A00000012D102B6E2EC02CF0DE6E2EC0DDFF13
:1046B000DECF2BF0DDCF2CF02BC0F3FF2CC0F4FFAE
:1046C000D9CFE1FF0FD00D0EAD6E49DF0BD0D9CFA2
:1046D000E6FFE1CFD9FF1200EF50E66E10EC17F0C5
:0C46E000E5521200E552E7CFD9FF1200AE
:0446EC00000E0301B8
:1046F000426F436B406F416B12000301402B000E71
:1047000041230201009F009D0301D890415104E61E
:10471000000E405D040E415903E20201008D02D0FB
:104720000201008F0301D890415104E6000E405D64
:10473000040E415926E24051010B23E005C2E6FF79
:1047400076D8F6EC24F0E552E552E55204C2E6FFD5
:1047500040C3E6FF41C3E6FFF6EC24F0E552E55224
:10476000E55202010451E66EE66A40C3E6FF41C32A
:10477000E6FF0551E66EE66A5AD8700E2D6E490EB8
:1047800048D812000301422B000E4323D890435116
:1047900004E6000E425D040E435911E2010E421977
:1047A0000EE143510CE1000EE66EE66A57D80301B4
:1047B000456F010EE66EE66A51D80301476F42511C
:1047C000010B1EE145C344F347C346F342C3E6FF72
:1047D00043C3E6FF43D80301456F35D83FD80301F3
:1047E000476FE850E66EE66A2ED84551E66EE66AF7
:1047F00042C3E6FF43C3E6FF5E0E2D6E490E09D8A5
:1048000045C307F245C305F247C306F247C304F2A6
:1048100012002E6E2F6A2DC0E6FFE66E2FC0E6FF57
:1048200056EC26F0F56E0B0EE15EF550120040C31B
:104830002BF041C32CF02B06000E2C5A2BC0E6FFA8
:104840002CC0E6FF1200010E2C6A42252B6E43514C
:104850002C222BC0E6FF2CC0E6FF1200E7EC24F070
:06486000E552E5521200D2
:0A48660061726D706F742025640A02
:1048700000646967696E3131202564206469676965
:104880006E313220256420646967696E31332025DA
:10489000640A006C65667420256420726967687418
:1048A0002025640A004779726F20416E676C653D70
:1048B00025640D0A0D0A00204779726F2052617439
:1048C000653D25640D0A00204779726F20426961B9
:1048D000733D25640D0A00616E6720256420616EBA
:1048E00067302025642069727374617465202564C3
:1048F0002063202564207374617465202564206121
:10490000726D73746174652025640A0063202564E8
:10491000206572726F722025640A006C65667420CF
:1049200025642072696768742025640A00616E67D7
:1049300020256420616E67302025640A0067797243
:104940006F64726976652073746174652025640AEA
:1049500000697220256420676F2025640A00726553
:1049600061642025642025642025642025640A00D4
:1049700077726974696E6720256420256420256438
:104980002025640A00436F756E74207A65726F0D7E
:1049900000496C6C6567616C20736964650D006D1E
:1049A000732030207774660D0061726D6F7574200E
:1049B00025640A0061726D676F746F706F732025D4
:0E49C000640A0061726D706F742025640A0035
:0249CE00A4D86B
:1049D000A69EFD0EDB50A96EFE0EDBCF2CF02CC088
:1049E0002BF02C50AA6EA680A8509BD095D8E652EA
:1049F000030160511EE16351EA6A800FE96E010E06
:104A0000EA22FC0EDBCFEFFF635172D8FD0EDBCF45
:104A1000EEFFFE0EDBCFEDFF5F2B632B1F0E631748
:104A20006351625D02E1010E606F616B010EDF6E2A
:104A300001D0DF6ADF50E55274D06ED8030EE12654
:104A4000030161514DE1F250800B01E0010EE76E70
:104A5000010EE7CFDBFFF250400B01E0010EE76EE5
:104A6000020EE7CFDBFFA69EA698A198625140D820
:104A7000EF50A96E62513CD8EECF2BF0EFCF2CF067
:104A80002CC02BF02C6A2B50AA6E6251EA6A800F60
:104A9000E96E010EEA22EF50A86EA684F29EF29C07
:104AA000550EA76EAA0EA76EA682010E2BD8F3464E
:104AB0007F0EF214F310F26E020E24D8BF0EF21421
:104AC000F310F26E5F07622B1F0E62176351625D77
:104AD00002E1010E616F606BA1A8FED7A198A694B8
:104AE000D9CFE1FF1ED0200E0301D8805F55120000
:104AF000E96EEA6AD890E936EA36A00EE926010E98
:104B0000EA221200DB50010BF36EF346F346F34644
:104B1000F346F346F3461200D9CFE6FFE1CFD9FFC3
:0A4B20001200E552E7CFD9FF1200A2
:064B2A009384F09EF19857
:104B3000F092F0889386F192F196F094F08A93883F
:104B4000938A938C938EF19081CF55F3F290F296E5
:104B50001200D66AD76AD590D592D594D586D598C5
:104B6000D59AD59CF194F294F29AD59E1200CE6A11
:104B7000CF6ACD98CD9ACD96CD92CD8E9F909E90B6
:104B80009D90CD901200B26AB36AB198B19AB19279
:104B9000B184B18EA292A192A092B1901200786AD3
:104BA000F90E776E76867698769A768C76807692FF
:104BB000A596A496A3867684120012001200120015
:104BC0000301142B000E1523162B1723120016C3F6
:104BD0001CF317C31DF30301166B176B222B000E7A
:104BE0002323120014C31AF315C31BF30301146B20
:104BF000156B202B000E2123120003D002D001D010
:0E4C000000D0D9CFE6FFE552E7CFD9FF120072
:024C0E001E0E78
:104C1000F66E080EF76E000EF86E02010900F550F0
:104C2000FA6F0900F550FB6F03E1FA6701D03DD040
:104C30000900F550F56F0900F550F66F0900F550C1
:104C4000F76F09000900F550E96E0900F550EA6EAA
:104C5000090009000900F550F86F0900F550F96FD7
:104C600009000900F6CFFCF2F7CFFDF2F8CFFEF213
:104C7000F5C2F6FFF6C2F7FFF7C2F8FF0201F853DC
:104C800002E1F95307E00900F550EE6EF807F8E28B
:104C9000F907F9D7FCC2F6FFFDC2F7FFFEC2F8FF25
:0C4CA0000201FA07000EFB5BBFD71200F8
:044CAC00D9CFE6FF77
:104CB000DACFE6FFE1CFD9FFE2CFDAFFE652E652E4
:104CC000E652E652D950FB0F2B6EFF0EDA202C6E07
:104CD0002BC0DEFFDD6EDECFE6FFDDCFE6FFFB0E95
:104CE000DBCFE6FFFC0EDBCFE6FFFD0EDBCFE6FF02
:104CF00070C3E6FF71C3E6FF68EC04F0F56E070EC3
:104D0000E15C02E2E16AE552E16EF550020EF3CF9A
:104D1000DBFF030EF4CFDBFF020EDBCF2BF0030E25
:104D2000DBCF2CF02BC0F3FF2CC0F4FFD9CFE1FF79
:104D3000DACFE2FFE552E5CFDAFFE7CFD9FF120085
:104D4000D9CFE6FFDACFE6FFE1CFD9FFE2CFDAFF36
:104D5000FB0EDBCF2BF0FC0EDBCF2CF00001800E26
:104D60002C141AE1FB0EDBCFE9FFFC0EDBCFEAFFD0
:104D7000EECFF3FFEDCFF4FFEE2A000EEF22F3CFDC
:104D8000E9FFF4CFEAFFFD0EDBCFEFFFEF502C6A17
:104D9000F36E2CC0F4FF10D0FB0EDB50FE0806E1D2
:104DA000FD0EDBCFE6FF84EC28F005D0FD0EDBCF57
:104DB000E6FF54EC20F0E552E552E5CFDAFFE7CF0D
:044DC000D9FF120005
:0C4DC4001B502002F3CF17F0F4CF18F0C2
:104DD0002102F3501826000EF420196E1B502202F7
:104DE000F3501926000EF4201A6E1B502302F350C4
:104DF0001A261C502002F3501826F4501922000ED7
:104E00001A221C502102F3501926F4501A221C5069
:104E10002202F3501A261D502002F3501926F45096
:104E20001A221D502102F3501A261E502002F35060
:044E30001A2612002C
:0C4E3400D9CFE6FFDACFE6FFE1CFD9FFCF
:104E4000E2CFDAFFC26AC16AC06AFC0EDB407F0BA8
:104E50003C0BC26EFB0EDB50C16EFC0EDB38F00B60
:104E6000300BC112FD0EDB50800BC06EFD0EDB3827
:104E70000F0B070BC012FD0EDB50040DF350380B67
:104E8000C012FC0EDBAE03D09E9C9D8CF28CC280C7
:0C4E9000E552E5CFDAFFE7CFD9FF1200B2
:044E9C00FE0EE3CF54
:104EA000E9FFFF0EE3CFEAFFF36AF46AEE5203E094
:104EB000F34AF42AFBD71200FF0EE3CFF8FFE552C6
:104EC000FF0EE3CFF7FFE552FF0EE3CFF6FFE5520B
:104ED000E66AE66AE66A0900F55209E0FD0EE32A91
:104EE00005E1FE0EE32A02E1FF0EE32AF4D7FD0EF0
:104EF000E3CF1CF0FE0EE3CF1DF0FF0EE3CF1EF05C
:024F000012009D
:0E4F0200D9CFE6FFDACFE6FFE1CFD9FFE2CF4D
:104F1000DAFF3F0EC716C66AFD0EDB50C612FB0E47
:104F2000DB50C712FC0EDB50030A09E0010A04E063
:104F3000020A06E1C78C04D0C78CC68801D0C68897
:104F4000FD0EDB50050A03E0010A04E1978E94860A
:104F5000C79E01D09496949A9488C68AE552E5CF6C
:084F6000DAFFE7CFD9FF1200D0
:084F6800D9CFE6FFDACFE6FF26
:104F7000E1CFD9FFE2CFDAFFAC6AAB6AFD0EDBB05E
:104F8000AC88DBA202D0AC8CAB8CDBB4AC8EDBA6E5
:104F900002D0AB8801D0AB8ADBA802D0AC8401D0B0
:104FA000AC94DBAC02D09D8A01D09D9ADBAE02D0DE
:104FB0009D8801D09D98FC0EDB50AF6EAC8AAB8E05
:0C4FC000E552E5CFDAFFE7CFD9FF120081
:044FCC001A6A196ADA
:104FD000186A176A200EE76ED8901B361C361D36ED
:104FE0001E361736183619361A362050175C2150DF
:104FF00018582250195823501A5809E32050175EA8
:105000002150185A2250195A23501A5A1B2AE72E97
:04501000E4D71200CF
:0C501400D9CFE6FFDACFE6FFE1CFD9FFED
:10502000E2CFDAFFE652E652C350DF6E010EC4CF84
:10503000DBFFDECF2BF0DDCF2CF02BC0F3FF2CC03D
:10504000F4FFE552E552E552E5CFDAFFE7CFD9FFAD
:0250500012004C
:0E5052001A6A196A100EE76ED8901D361E36C7
:1050600019361A362250195C23501A5805E322507B
:0E507000195E23501A5A1D2AE72EF0D712009F
:02507E00C1EC83
:105080000AF021EC0EF002014091020140A107D08C
:105090005FEC0EF0020121AD02D0AEEC1EF029EC67
:0450A0001FF0F3D733
:0C50A400F36AF46AFF0EE124E96EFF0ECF
:1050B000E220EA6EED6607D02F0EEF6404D03A0EC0
:0850C000EF6001D0F32A120099
:0850C8001EEE00F02EEE00F0D8
:1050D000F86A269CA68EA69CFEEC16F007EC26F03D
:0850E0003FEC28F0F9D71200A3
:0850E800FF0EE350376E480E85
:1050F00001D04C0EE76EE72EFED7E76AE72EFED70B
:08510000372EF7D70000120062
:08510800FF0EE350ACBA04D025
:10511000AF6AAB8EAC8A949CACA2FED7AD6EF36E38
:04512000F46A12001B
:0C512400FF0EE350E84E1200000000D027
:0A51300000D000D0E82EFAD71200DC
:06513A0030313233343540
:0B514000363738396162636465660031
:01514B000063
:04514C00C2909D9CD4
:0251500012004B
:04515200C282120003
:05515600FF0000000055
:05515B0000000000004F
:0251600000004D
:0E51620000000100000000000001000000003D
:0B517000010000000000000100000032
:05517B00000000FF0030
:0251800000002D
:0E51820000000000000000000000000000001F
:0251900000001D
:045192000000000019
:055196000000FFFF0115
:05519B0000000100000E
:0451A0000003000008
:00000001FF
