:020000040000FA
:0608000032EF37F0120098
:02080600FEFFF3
:060808003DEF13F01200A9
:02080E00C250D6
:08081000020B01E0010E1200D1
:0608180040EF29F0120080
:02081E001100C7
:10082000746F0000C703000004000000736F000035
:10083000F307000001000000696F00009B03000047
:100840000A000000616F0000A5030000080000001E
:100850005D6F0000C303000004000000516F000042
:100860007B0300000C000000386F00002403000030
:100870001900000006080000CD030000020000007F
:10088000356F0000FD020000030000002F6F000024
:10089000AD030000060000002B6F0000BF03000046
:1008A00004000000276F0000BB03000004000000EC
:1008B0001D6F0000910300000A000000196F000086
:1008C000B703000004000000156F0000B303000030
:1008D00004000000026F00003D0300001300000050
:0C08E000E76E0000FF01000001000000B6
:0408EC00F8EC0CF028
:1008F0004C0EDE6E610EDD6E938A93889386938430
:1009000099829980938E938C9A849A8299869984FD
:100910009A8A9A8894809A869A8E9A9C919C0101D0
:100920007F0E8B6F8A6F896F886F876F866F856F79
:10093000846F936F926F916F906F8F6F8E6F8D6FCB
:100940008C6F000E0AEC0CF00AEC0CF09FEC14F02B
:10095000F56E080EE15EF5500301010E246FE6EC22
:100960002BF0FFEC2BF03DEC33F098EC27F056EC3D
:100970002FF041EC34F063EC34F07BEC34F0BEEC5F
:100980000CF024EC09F000EC0DF074EC37F0D9EC2D
:100990000BF0DECFE6FFDDCFE6FF240E006E610E2A
:1009A000DEEC0AF0F56E050EE15EF550E4EC13F0B6
:1009B00057EF0BF003012C0ED8803D55010E3E552C
:1009C00003E33D2B000E3E230A0E3D1907E13E5185
:1009D00005E10A0E006E610ED2EC0CF003013C0E34
:1009E0003D1904E13E5102E1ACEC2FF02C0E030165
:1009F0003D190CE1010E3E1909E1B8EC2FF0EDECC8
:100A00002FF0040E006E610ED2EC0CF0A00EE66E1C
:100A1000010EE66E44EC14F0E552E55203012C0E93
:100A20003D5D010E3E592EE30101A2A102D038D84E
:100A300001D042D8020EE66EE66A72EC20F07AEC43
:100A40000BF0E2EC0BF0010EE66EE66A72EC20F0C1
:100A5000E552E55239C004F03AC005F00FEC0CF055
:100A6000E2EC0BF0F40E086E600E096E0A6A08C024
:100A7000E6FFE66E0AC0E6FF5AEC35F0F56E0B0EA7
:100A8000E15EF55093C1E6FF92C1E6FF91C1E6FF3A
:100A900090C1E6FF49EC33F0F6EC0BF0D9EF0BF028
:100AA000ADEC0CF0D1EC0AF012DAF6EC0BF0BEEC87
:100AB0000CF081D9A1EF0BF0ADEC0CF0BEEC0CF01A
:100AC00034D8A1EC0BF00101A1AB1ED0B7C13CF0B2
:100AD000CEEC16F093EC0BF0710E3F6E3D0E406EB7
:100AE0007A0EE7EC0AF0800EF1EC0BF0DAEC0AF08B
:100AF0003F6A406A200E416E410E426EF9EC17F0DB
:100B0000EDEC18F03CC080F1010180938150040BA2
:100B100001E0808380978150080B01E0808701010C
:100B2000A1AB02D0B0C180F11200F8EC0CF0A6EC41
:100B30000AF0EE52A9C1EFFFA6EC0AF0A8C1EFFF40
:100B40000101A251100B18E0A351100B15E0A6EC07
:100B50000AF0EE52EF50DE6EDD6AA6EC0AF0E5EC2C
:100B60000CF0DECF00F0DDCF01F0FF0ED7EC0CF083
:100B7000A6EC0AF000C0EFFFA2AB0ED0A6EC0AF084
:100B8000060EBBEC0AF0EF6AADEC0AF02E0EBBECE1
:100B90000AF0010EEF6E0ED0A3AB0CD0A6EC0AF05B
:100BA000060EBBEC0AF0EF68ADEC0AF02E0EBBECC3
:100BB0000AF0EF6AA3A707D0A6EC0AF0040EBBEC7C
:100BC0000AF0EF6805D0A6EC0AF0040E19EC0DF05F
:100BD000A3A307D0A6EC0AF0050EBBEC0AF0EF6861
:100BE00005D0A6EC0AF0050E19EC0DF0A3A106D075
:100BF000A6EC0AF0020EBBEC0AF0EF68A3A506D043
:100C0000A6EC0AF0030EBBEC0AF0EF68A6EC0AF0C3
:100C1000070EBBEC0AF0AEC1EFFFA2B19BD06FECA8
:100C20000BF004E6F50E005C000E01580EE39CECA0
:100C30000BF004E20250FF08000E035406E343ECFD
:100C40000CF0C80EEE6EED6A82D06FEC0BF004E68D
:100C5000DB0E005C000E01580EE39CEC0BF004E28E
:100C60000250E508000E035406E343EC0CF02C0E92
:100C7000EE6E010E2BD06FEC0BF004E6C10E005CA3
:100C8000000E01580EE39CEC0BF004E20250CB087E
:100C9000000E035406E343EC0CF0BC0EEE6E020EA5
:100CA00015D06FEC0BF004E6A70E005C000E0158A7
:100CB0000FE39CEC0BF004E20250B108000E035469
:100CC00007E343EC0CF07D0EEE6E030EED6E3FD0AD
:100CD0006FEC0BF004E68F0E005C000E015814E37D
:100CE0009CEC0BF004E202509908000E03540CE354
:100CF00003013F512CE180EC0CF0DCEC0CF0140E05
:100D0000005E000E015A1BD06FEC0BF004E6760E6D
:100D1000005C000E01581BE39CEC0BF018E3025042
:100D20008008FF0E035413E303013F5110E180ECF0
:100D30000CF0DCEC0CF0190E0026000E012243EC46
:100D40000CF000C0EEFF01C0EDFF010E3F6F36EC6E
:100D50000BF007D0A6EC0AF0080EBBEC0AF0A6C117
:100D6000EFFF01016FEC0BF004E68F0E005C000E4C
:100D7000015808E39CEC0BF01CE202509908000EAD
:100D8000035417E2AB51046E056AD890055004E68F
:100D9000760E045C000E05580AE3AB51066E076A36
:100DA000073404E306508008FF0E075402E20301F3
:100DB0003F6B57EF0BF0F8EC0CF003014051411181
:100DC0000AE1402B000E41234BEC0BF06F0EE66E58
:100DD000070E85EC0BF04BEC0BF05B0EE66E070E8E
:100DE00085EC0BF0C1DB080E47EC0CF06F0EE66EE5
:100DF000070E5AEC0BF0DEDB88EC0CF0E1EC0CF0AB
:100E0000B3DB0C0E47EC0CF05B0EE66E070E5AECF3
:100E10000BF0F1EC0CF084EC0CF0E1EC0CF084EC59
:100E20000CF095EC0CF008E084EC0CF0EE6AEE6A45
:100E30007E0EEE6E430E07D084EC0CF0A4EC0CF0AA
:100E400003E01DEC0DF0EE6E88EC0CF095EC0CF070
:100E500008E088EC0CF0EE6AEE6A7E0EEE6E430E51
:100E600007D088EC0CF0A4EC0CF003E020EC0DF0C3
:100E7000EE6E7ADB0C0E9FEC0CF003E01DEC0DF037
:100E8000EE6E72DB080E9FEC0CF003E020EC0DF030
:100E9000EE6E84EC0CF0B6EC0CF0E552E750EF6E21
:100EA00088EC0CF0B6EC0CF0EE52E552E750EF6E29
:100EB000EBEC0CF00AE04ADBEE52E5EC0CF046DB22
:100EC00069EC0BF043DB00C0EFFFD0DBF0D375EC37
:100ED0000BF00E0EE1260301466B476B425144199D
:100EE00002E1435145194AE044511BE1455119E1E2
:100EF000010E466F476BDE6ADE6A900EDE6E420EB2
:100F0000DD6EDD52DD52040EDB6A050EDB6AC40EB7
:100F1000F36E060EF3CFDBFF090EF36E070EF3CF71
:100F2000DBFF46C3E9FF47C3EAFF060EEA02F3CF41
:100F3000EAFFE902F3CFE9FFF450EA26D30EE926EF
:100F4000020EEA22EECF00F0EFCF01F0D9CFE6FF9C
:100F5000DACFE6FFFD0EDBCFE6FFFE0EDBCFE6FFCE
:100F600004D001C0FAFF0050F96EFBDFE552E552F4
:100F7000E552E55244C342F345C343F346C3E9FF98
:100F800047C3EAFF060EEA02F3CFEAFFE902F3CF16
:100F9000E9FFF450EA26D30EE926020EEA22020EF9
:100FA000E926000EEA22EECF02F0EFCF03F0FB0EAF
:100FB000DBCFE6FFFC0EDBCFE6FFFD0EDBCFE6FF6F
:100FC000FE0EDBCFE6FF04D003C0FAFF0250F96E3D
:100FD000FBDFE552E552E552E552F3CF00F0F35066
:100FE000F41023E146C3E9FF47C3EAFF060EEA0215
:100FF000F3CFEAFFE902F3CFE9FFF450EA26D30E7C
:10100000E926020EEA22040EE926000EEA22EECFBD
:1010100000F0EFCF01F004D001C0FAFF0050F96EEC
:10102000FBDF0301442B000E452341D35EDB95DA41
:10103000EE52EFCF85F191DA4CDB00C084F1010173
:101040000050E66EE66A8551E66EE66ADF0E006ED7
:10105000600EB4DAF56E070EE15EF550C7EF0CF0E6
:1010600044DB040EE126010ECBEC0CF0040E83DA17
:1010700039C0EEFFF4DA020ECBEC0CF039C0EEFF13
:10108000EEDA6BDA040E77DAD3DB0C0E74DAE1EC0D
:101090000CF063DACDDB080E6EDAE1EC0CF0EBEC71
:1010A0000CF024E0FCEC0CF0EECFDFFF010EEECFF5
:1010B000DBFF020EEECFDBFF030EEECFDBFF4DDAE0
:1010C0000C0E59DA5CDAFCEC0CF000C0EEFFC7DA6B
:1010D00044DA0C0E50DADFCFEEFF010EDBCFEEFF6D
:1010E000020EDBCFEEFF030EDBCFEEFF36DA0C0E87
:1010F000E6DB140E40DA98DA30DA080EE0DB100E88
:101100003ADA92DA0201A35102E1000E01D0010E97
:10111000006E016A00BE016820DA180E2CDA00C0E9
:10112000EEFF01C0EDFF8EC13CF0CEEC16F03AC0F0
:101130001AF03BC01BF03CC01CF03DC01DF03F6AE4
:10114000406A040E416E430E426E0FEC17F03AC037
:1011500016F03BC017F03CC018F03DC019F03F6AD4
:10116000406A040E3EDB3AC012F03BC013F03CC0B4
:1011700014F03DC015F03F6A406A820E55DBF9EC71
:1011800017F03AC00EF03BC00FF03CC010F03DC06D
:1011900011F03F6A406A400E416E426E0FEC17F04C
:1011A0003AC00AF03BC00BF03CC00CF03DC00DF063
:1011B000D00E3F6E0F0E406E490E416E400E426ED5
:1011C000F9EC17F03AC006F03BC007F03CC008F05D
:1011D0003DC009F03F6A406A340E03DB3AC002F0BA
:1011E0003BC003F03CC004F03DC005F0DBDAF9EC95
:1011F00017F014EC19F03BC000F03CC001F0ADD981
:101200001A0EB9D93BC0EEFF01C0EDFF8FEC2FF0F5
:1012100039C000F03AC001F0A0D91C0EACD939C0D9
:10122000EEFF01C0EDFFF4DBF0DB8F0EE66EBAECF3
:1012300031F0E552F3CF00F0F4CF01F061DBF3CFF2
:10124000EEFF01C0EDFF33D250DA87D9040E55DB33
:10125000CED983D90C0E51DB080E4FDB140E4DDBBB
:10126000100E4BDB300EEB6A310EEB6AEDEC2FF01B
:1012700074D91C0EEB6A1D0EEB6ACADB85DB160EF9
:10128000EB6A170EEB6A70D9140EEB6A150EEB6A57
:101290006BD90C0E79DB080E77DB100EEB6A110EA2
:1012A000EB6A62D9A4D960D9040EAFDB4FD9020E24
:1012B00033DB030E31DB040E2FDB050E2DDBEE528C
:1012C0007F0EEF6E43D97F0EEF6EBADBEE6EB5DBAD
:1012D000EE6E3CD9080E20DB060E4DD9EF6A57D3CF
:1012E0000101809F809B80958091809D809980974F
:1012F00080931200FAD9FD0EDBCF02F0FE0EDBCF99
:1013000003F0033407E202500008000E035402E227
:101310007ADA05D078DA006C011E000E012200C0D6
:10132000F3FF01C0F4FF33D3E0D9040EE12603013B
:101330004851491113E1010E486F496B810EE66E69
:10134000E6687F0EECDA000EE66EE66A870EE7DAF4
:10135000030EE5DA830EE66E070ED7D90201A3511C
:101360002AE001018E51006E016A840E005E000EBB
:10137000015A00C0DEFF01C0DDFFE66EE66ADECF87
:10138000E6FFDDCFE6FF830EE66E070EE1DA020E22
:10139000F3CFDBFF030EF4CFDBFF2DDA08DBDDD864
:1013A000EE5200C0EFFF27DA0026000E0122D5D84A
:1013B00000C0EFFF0AD00301486B496BCED8EE5254
:1013C0007F0EEF6ECAD87F0EEF6E71D18ED90301FA
:1013D0004A514B1108E057DAEFDA00504E1902E19A
:1013E00001504F191CE0D40E006E600EDBDA15DBE5
:1013F000000E10DA320E93DA020EE66EE66A030E83
:10140000E66EE66A970EE66E070E7FD93CDAEECFFF
:101410004EF3EDCF4FF3010E03014A6F4B6B70DAC1
:1014200099D904E6F00E005C000E015808E268DA73
:10143000A3D907E302501008FF0E035402E3000E85
:1014400001D0010E000902E0010E01D0000E0009DA
:101450001FE019DA85D904E6320E045C000E055847
:1014600008E211DA94D907E30650CE08FF0E0754BC
:1014700002E3000E01D0010E000902E0010E01D0CE
:10148000000E000905E0060E0701976F986BA0D9C2
:1014900037DA60D904E6820E005C000E015808E2DB
:1014A0002FDA6AD907E302507E08FF0E035402E3E5
:1014B000000E01D0010E000902E0010E01D0000E65
:1014C000000921E0E0D94CD904E6320E045C000E9C
:1014D000055808E2D8D95BD907E30650CE08FF0EBD
:1014E000075402E3000E01D0010E000902E0010ED4
:1014F00001D0000E000907E0090E0701976F986BF5
:101500000E0E66D907D0020E0701996F9A6B010E75
:101510009B6F9C6BB8D9EECFE6FFEFCFE6FFF0D91B
:10152000EECFE6FFEFCFE6FF970EE66E070E10DA7E
:10153000F3CF00F0F4CF01F07F0E0026000E012261
:1015400005D8080E18D800C0EFFF21D2F90EDBCF66
:10155000E9FFFA0EDBCFEAFF1200FD0EDBCFE9FF59
:10156000FE0EDBCFEAFF1200FB0EDBCFE9FFFC0E25
:10157000DBCFEAFF1200E926000EEA221200EECFCE
:1015800000F0EECF01F0EECF02F0EFCF03F012004B
:1015900000C03AF001C03BF002C03CF003C03DF097
:1015A0001200320EE66E070EE66E000EE66E070EB5
:1015B000E66E12003AC000F0F1EF0CF0016E026A24
:1015C00000C0E6FFE66E02C0E6FF5AEF35F0416E5E
:1015D000410E426EF9EC17F03AC004F03BC005F042
:1015E0003CC006F03DC007F03F6A406A1200EE6A58
:1015F000EE6AEE6AEE6A1200EECF0EF0EECF0FF05A
:10160000EECF10F0EFCF11F00EC03AF00FC03BF06C
:1016100010C03CF011C03DF014EC19F03BC00CF0D0
:101620003CC00DF023EF0DF0EECF3AF0EECF3BF0E3
:10163000EECF3CF0EFCF3DF000C03FF001C040F0F6
:1016400002C041F003C042F010EC17F03DC0EDFFC6
:101650003CC0EDFF3BC0EDFF3AC0EFFF120001C000
:10166000EEFF02C0EEFF03C0EEFF1200F90EDBCF6B
:10167000E6FFFA0EDBCFE6FFFB0EDBCFE6FFFC0E4C
:10168000DBCFE6FFFD0EDBCFE6FFFE0EDBCFE6FF96
:101690009DDE00EF0DF0C1D9040E41D9040EE66EB7
:1016A000E66A000EE66EE66A210E8FEF0CF0D9CFE7
:1016B000E1FF6DD14DD9F3CF04F0F4CF05F07F0EEB
:1016C0000426000E052204C03BF005C03CF0E1EF0B
:1016D00016F0EF50006E016AFF0ED7EF0CF0AB5121
:1016E000006E016AD89001501200D9CFE6FFE1CF19
:1016F000D9FF1200E552E55239C000F03AC001F0BE
:101700003BC002F03CC003F01200E66E30EC1AF071
:10171000F56E120EE15EF5501200EE6AEE6AFE0EF4
:10172000EE6E420E12003AC008F03BC009F03CC019
:101730000AF03DC00BF01200AB51026E036A033495
:1017400012005ED94A0EE66E070EE66E6FDCE552B9
:10175000E552120031D9C80E2AD9D8900150120092
:10176000EECF04F0EFCF05F0C80ED8800456000E7F
:101770000556D89005501200EECF02F0EFCF03F0DF
:10178000C80ED8800256000E035603341200EECF66
:1017900006F0EFCF07F0C80ED8800656000E0756A9
:1017A000073412003F6A406A7A0E416E440E426E60
:1017B0001200800EE66E010EE66E5DEC14F0E5524E
:1017C000E552120039C0E6FF3AC0E6FF23EF0DF004
:1017D000996F9A6B9B6B9C6B010E03014C6F4D6B69
:1017E0001200416E430E426EA6EF17F0E552E5522D
:1017F000E552E5521200020EDBCF00F0030EDBCF04
:1018000001F07F0E1200FD0EDBCF00F0FE0EDBCFED
:1018100001F01200E66EE66AE66EE66A12003BC070
:1018200006F03CC007F01200416E420E426E1200FC
:10183000EECF10F0EECF11F0EECF12F0EFCF13F0AD
:1018400010C039F011C03AF012C03BF013C03CF0A8
:10185000F6EC16F03AC00CF03BC00DF03CC00EF0B8
:101860003DC00FF09FDFA6EC17F05DDF7C0E3F6EF2
:10187000D90E406EA00EABDE700ED6DFA6EC17F0D0
:1018800099DEADEF0AF070DE100EBBEF0AF073DEEA
:10189000EECF08F0EECF09F0EECF0AF0EFCF0BF06D
:1018A00008C03AF009C03BF00AC03CF00BC03DF064
:1018B00014EC19F0B4DFC7D89FD8FCEF0AF05BDE58
:1018C000EECF04F0EECF05F0EECF06F0EFCF07F04D
:1018D000620E3F6EA10E406ED60E416E3C0E426E01
:1018E00004C03AF005C03BF006C03CF007C03DF034
:1018F000F9EC17F05FDEADEF0AF087D8ADEF0AF034
:101900002CDE300EBBEF0AF021DE090EBBEF0AF031
:101910001DDE0D0EBBEF0AF08CD8A6EF0AF0E66EC6
:10192000E66A010EE66EE66A120092D87E0E416EFD
:10193000430E426E2DDE4CEC19F0010A12001BDE44
:1019400087D8416A426A70D083D8FE0E6DDF6CD0B2
:10195000E66EADEC1AF000EF0DF087EC1DF0EFEC49
:1019600025F01FDE30EC08F0F6EF0BF008DE10DE9D
:10197000EDEC18F03C50E66EA6EF0AF04A0EE66E6B
:10198000070EE66ED1EF0AF040D8B4EF0AF0E55248
:10199000E7CFD9FF1200E66EE66AD7EC1FF0AADEA9
:1019A000ADEF0AF00BDEE552E552E5521200D880A9
:1019B0000056000E01561200EECF00F0EFCF01F0FE
:1019C00012003AC0EEFF2FEF0BF083DEBFDDEE52C8
:1019D00000C0EFFF1200C8DD140ECDDDEE50ED109B
:1019E00012003BC001F03CC002F03DC003F0120009
:1019F0007CDE020EE1261200B0DD080EBBEF0AF01D
:101A0000F56E060EE15EF5501200B5DDF7EF0AF057
:101A1000A4DD1E0E72DF220E1200810EE66EE66855
:101A20007F0EE66EE66A1200B3DD43EC19F0010AA0
:101A30001200A1DD7F0EEF6E120066DF8DEF0BF05E
:101A400067DF8DEF0BF03BC0E6FF3CC0E6FF120006
:081A500096DD3F6A406A1200B6
:081A580068EC12F0FB0EDBCF7D
:101A6000F3FFDB06F35000090AE0B6EC12F0FA0EC1
:101A700021EC13F0F3E1011CF1E1010E01D0000EA5
:101A800097EF12F068EC12F03B0EE12402E3E168FC
:101A9000E652E16E010EDB6A020EDB6AF90EDBCF65
:101AA000F6FFFA0EDBCFF7FFFB0EDBCFF8FF0800E7
:101AB000F550DF6EDF5002E1BDEF11F0250EDF5C67
:101AC00002E0B0EF11F0030EDB6A040EDB6A050ED4
:101AD000DB6A060EDB6A070EDB6AD0EC11F02D0E16
:101AE000DF5C0CE02B0EDF5C09E0200EDF5C06E023
:101AF000230EDF5C03E0300EDF5C1AE1DF50300ABA
:101B000014E0130A0FE0030A0AE00B0A05E0060AD4
:101B1000E4E1030EDB80E1D7030EDB82DED7030EA8
:101B2000DB84DBD7030EDB86D8D7030EDB88D5D763
:101B30002A0EDF5C1BE1CCEC11F01AEC12F010E085
:101B4000030EDB803B683C68130EDBCF40F0140EC5
:101B5000DBCF41F0C0EC18F0040E39C0DBFF03D03E
:101B6000130E03EC12F0D0EC11F00BD0090EDB6A6F
:101B700071EC12F003E0E5EC12F0FAD7090E03EC79
:101B800012F0030EDBB0DB982E0EDF5C1BE1D0EC15
:101B900011F02A0EDF5C0BE1CCEC11F01AEC12F024
:101BA00003E1130E55EC12F0D0EC11F00BD0090E3E
:101BB000DB6A71EC12F003E0E5EC12F0FAD7090EE3
:101BC00055EC12F0680EDF5C07E1D0EC11F0680E06
:101BD000DF5C1DE1030E18D0740EDF5C17E07A0E97
:101BE000DF5C14E0480EDF5C06E0540EDF5C03E0CF
:101BF0005A0EDF5C02E1020E07D06C0EDF5C03E0E0
:101C00006A0EDF5C04E1010EA8EC12F0C9DBDF50C4
:101C10006E0A01E181D31E0A01E192D1200A01E19D
:101C20008FD13F0A01E149D11A0A01E146D10D0ADB
:101C300001E143D1200A01E140D13A0A01E13DD15D
:101C4000200A01E13AD1260A01E135D10D0A01E16C
:101C500032D11A0A01E1D9D0200A4AE0300A1FE045
:101C6000460A0EE0250A01E085D3D950F90FE96E46
:101C7000FF0EDA20EA6E010EEE5E000EEE5AEE5A0C
:101C8000B6EC12F0250EE66E95DB03E1011C01E1D6
:101C90006BD3B2EC12F001E26DD3DB2A6BD3080EEA
:101CA000DB6A040EDB50010806E2040EDB047AEC6A
:101CB00012F0DB508BDB080EDB5009E0030EDB502B
:101CC000010B05E172DB01E04FD3080EDB6A64DB38
:101CD000EFCFDFFF2AEC13F003E1011C01E144D355
:101CE000B2EC12F001E3DB2A60DB01E143D33CD329
:101CF000070EDB5002080FE1F6EC12F0030EBDEC0C
:101D000012F00E0EEECFDBFF0F0EEECFDBFF100E4C
:101D1000EECFDBFF20D0F70EDBCF03F0F80EDBCFEA
:101D200004F0020E035E000E045AF70E03C0DBFF40
:101D3000F80E04C0DBFF03C0E9FF04C0EAFFADEC0E
:101D400012F0026A0E0E00C0DBFF0F0E01C0DBFFB7
:101D5000100E02C0DBFF0E0EDBCFE6FF0F0EDBCF57
:101D6000E6FF100EDBCFE6FFE6EC34F0E552E5527D
:101D7000E552130E3AC0DBFF140E3BC0DBFF060E2C
:101D8000DB5005E0130EF1EC12F001E26ADB15EC1A
:101D900013F002E2130E37DBD8EC12F006E0040E6B
:101DA000F1EC12F002E2050E2EDB030EDBB005D0E3
:101DB000FCDA01E0D9D2080EDB6A090EDB6A0E0EEE
:101DC000DBCFF6FF0F0EDBCFF7FF100EDBCFF8FFF8
:101DD0000800F550DF6EDF5014E01BEC13F011E249
:101DE0002AEC13F003E1011C01E1BED2BBDB01E3ED
:101DF000DB2A090EDB2AD9500E0FE96E000ECBDB71
:101E0000E7D7D3DA01E1B6D2AFD2C6DA110EEECF00
:101E1000DBFF120EEDCFDBFF110EDBCFE6FF120E64
:101E2000DBCFE6FFD8EC34F0E552E552130EF3CFEA
:101E3000DBFF140EF4CFDBFF060EDB5004E0130EC5
:101E4000D0DB01E20EDB15EC13F002E2130EDBDA5D
:101E5000AFDB05E0040EC5DB02E2050ED4DA030EAB
:101E6000DBB005D0A2DA01E07FD2080EDB6A090EF2
:101E7000DB6A110EDBCFE9FF120EDBCFEAFFEFCFFB
:101E8000DFFFDF5014E0D7DB12E2E4DB03E1011CEB
:101E900001E16AD267DB01E3DB2A090EDB2A110EBE
:101EA000DB2ADBCFE9FF120EE8E3DB2AE6D77DDA97
:101EB00001E160D259D2030EDB8E070EDB0410E184
:101EC00095DB040E5ADB0A0EEECFDBFF0B0EEECFD6
:101ED000DBFF0C0EEECFDBFF0D0EEECFDBFF6CD089
:101EE000070EDB5003082CE1030EDBAE0DD0B2DA97
:101EF000020E76DAEFCF00F0016A026A036A00AEE2
:101F000039D00168026835D0F70EDBCF01F0F80E4A
:101F1000DBCF02F0020E015E000E025AF70E01C086
:101F2000DBFFF80E02C0DBFF01C0E9FF02C0EAFFE1
:101F3000EFCF00F00A0E00C0DBFF0B0EDB6A38D0DB
:101F4000070EDB50020809E1030EDBAE04D059DBBB
:101F500002AE10D00ED055DB0DD0030EDBAE12D08A
:101F600079DA020E3DDAF9DA026A036A01AE02D0CA
:101F700002680368E2DA0C0E02C0DBFF0D0E03C03C
:101F8000DBFF1AD0F70EDBCF02F0F80EDBCF03F049
:101F9000020E025E000E035AF70E02C0DBFFF80EBF
:101FA00003C0DBFF02C0E9FF03C0EAFFD6DAC5DAEF
:101FB0000C0EDB6A0D0EDB6A060EDB5005E1010E2E
:101FC000F36E050EF3CFDBFF150EDB6A160EDB6A30
:101FD000D950370F006E000EDA20016E390E00C0A6
:101FE000DBFF3A0E01C0DBFF380EDB6A080EDB6A4E
:101FF0000A0EAEDADF50780A12E0200A10E0280A52
:102000000CE0200A0AE03F0A06E00D0A02E0200A7E
:1020100008E1020E05D0080E03D0080EDF26100ED0
:1020200097DA030EDBBE02D0DB92DB94DB50800B31
:1020300026E08ADA030EEB50000AE8AE02D0D89010
:1020400008D0000EEE5C000EEE58000EEE58000EAA
:10205000EE5815E211DA3E683F6840684168E6ECE8
:1020600035F00A0E35C0DBFF0B0E36C0DBFF0C0E61
:1020700037C0DBFF0D0E38C0DBFF2D0E08D0030E7E
:10208000DBA202D02B0E03D0DBA408D0200EF36E0F
:10209000170EF3CFDBFF150EDB2A02D0170EDB6A1B
:1020A000050EDB5003E1B5D901E189D0D60E006EF3
:1020B0006E0E016E000E026E070EDBCF03F0046A97
:1020C000056A066A03C03EF004C03FF005C040F058
:1020D00006C041F0D1D9B4EC36F000503524F36E8F
:1020E00001503620F46E02503720F86EF4CFF7FF1F
:1020F000F3CFF6FF0800090EF5CFDBFF580EDF5CCB
:102100000FE1610EF36E090E79D90AE3200E006E1D
:10211000090EDBCFE7FF0050E75E090EE7CFDBFFDC
:10212000070EDBCF00F0016A026A036A0DDA00C015
:102130003EF001C03FF002C040F003C041F0EECFDE
:1021400039F0EECF3AF0EECF3BF0EFCF3CF0B4EC0D
:1021500036F03CC0EDFF3BC0EDFF3AC0EDFF39C0AB
:10216000EFFF390EDBCFE9FFDB063A0EDBCFEAFFEC
:1021700001E2DB06090EDBCFEFFF150EDB2A49D9A2
:1021800095E1030EDBA61DD06F0EDF5C06E1BFD923
:1021900018E3150EDB2859DA14D0780EDF5C09E05D
:1021A000580EDF5C06E0620EDF5C03E0420EDF5C8F
:1021B00008E1020EF36E160EF3CFDBFF02D0150E10
:1021C000DB6A030EDB50100B0EE0040EDBCF00F0D9
:1021D000050EDB50D880005406E2060EDB5003E10A
:1021E000040EDB5032DA93D90AE2050EDBCFE7FFAB
:1021F000150EDB50E75E050EE7CFDBFF02D0050EC4
:10220000DB6A040EDBCF00F0160E43D9D8800054F1
:1022100014E2160EDBCFE6FF150EDBCFE6FF040E51
:10222000DBCFE6FF050EDB50E552E75CE552D880D8
:10223000E754E552D880E7545DD9030EDB50010B1B
:102240000BE1080EDB5008E0B0D801E08DD0080E9D
:10225000DB50BCD8080EDB6A170EDB5007E086D9CE
:10226000170EEFD903E1011C01E17ED0160EDB5001
:1022700016E07CD9300EE66E9DD802E1011C74E0B8
:1022800075D9DFCFE6FFA4EC35F0E552E552E55213
:10229000F4CF01F00001F31C02E1011C65E0050E22
:1022A000DBCF00F0160EDB50D880005409E2050E9B
:1022B000DBCFE7FF160EDB50E75E050EE7CFDBFF57
:1022C000300EE66E050EC9D94FE1390EDB2ADBCFA1
:1022D000E9FF3A0E01E3DB2ADBCFEAFF090EEFCF7D
:1022E000DBFFDB500EE042D9090EABD902E1011C45
:1022F0003BE0390EDB2ADBCFE9FF3A0EEDE3DB2AC8
:10230000EBD753D831E1160EDBCFE6FF080EC1D86C
:10231000E552E7245BD82ED0070EDB50030A1CE001
:10232000010A14E0030A07E079D9DBCFEEFF020EC1
:10233000DBCFEDFF1FD0F3D8056A03AE02D00468EF
:1023400005682AD8BAD805C0EEFF14D0E8D803BE75
:10235000046822D8B2D80ED061D9DBCFEFFF0AD003
:1023600079D905E1011C03E1F368F46810D0FAD8CB
:1023700001E3DB2A77D957EF0DF0010EDBCF00F038
:10238000020EDBCF01F000C0F3FF01C0F4FFD9CF94
:10239000E1FFDACFE2FFCBD029D9020EBDEF12F078
:1023A00061D90800F550DF6E1200200EE66E080EAF
:1023B0002DEF13F0A4EC35F0E552E552E552F3CFE2
:1023C00000F0F4CF01F00001F31C1200006E016A6E
:1023D000D950010F4DD90050EE260150ED221200C8
:1023E000045E000E055AF70E04C0DBFFF80E05C0B0
:1023F000DBFF04C0E9FF05C0EAFF1200DBCFF4FFFA
:10240000F350F45C1200DB50E76E040EE7CFDBFF05
:1024100012000A0EDBCF00F00B0EDBCF01F00C0E2A
:10242000DBCF02F00D0EDBCF03F0005001100210E5
:1024300003101200130EEECFDBFF140EEDCFDBFF07
:10244000130EDBCF00F0140EDBCF01F00001800E85
:1024500001141200F70EDBCF04F0F80EDBCF05F00D
:102460001200050EDB50E66ED950130F01D9E5526C
:10247000E750EE6EED6A12000A0EDBCF39F00B0E5C
:10248000DBCF3AF00C0EDBCF3BF00D0EDBCF3CF098
:102490001200DBCFE6FF150EDBCFE6FF050EDB50AB
:1024A000E552E724E552E7241200DB50CED8010EB6
:1024B000F36E060EF3CFDBFF1200EE50EFCFEAFF14
:1024C000E96E02C0EEFF03C0EEFF04C0EEFF120093
:1024D000D9CFE6FFDACFE6FFE1CFD9FFE2CFDAFFCF
:1024E0001200DFCFE6FFE66A20EC37F0E552E55256
:1024F000F3501200E76E080EE7CFDBFF1200EECFBD
:1025000000F0EECF01F0EFCF02F0036A1200050EEB
:10251000DBCF00F0150EDB50D88000541200010E06
:10252000DBCF02F0020EDBCF03F0046A1200E552AB
:10253000E5CFDAFFE7CFD9FF12000A0E00C0DBFFBC
:102540000B0E01C0DBFF1200D9500A0F38EF13F059
:10255000F36E070EF3CFDBFF1200EECF00F0EFCFEC
:1025600001F01200010EDB2A020E1200FC0EDBCF7E
:10257000E6FFFD0EDBCFE6FF1200005E000E015A03
:10258000F70E00C0DBFFF80E01C0DBFF00C0E9FF63
:1025900001C0EAFF1200DA20EA6EEF2AEECFF6FF62
:1025A000000EEF22EECFF7FFEF22EECFF8FF120082
:1025B000040EDBCFE6FF130EDB50E552E75C9ADF3B
:1025C000DB5004DF060EDB501200090EDB500A0D53
:1025D000F350DF24D00FE76E090EE7CFDBFFD0EF1B
:1025E00011F0DB50F36E050EFEEF11F0F70EDBCFAE
:1025F00000F0F80EDBCF01F01200DFCFE6FFDAEFDC
:1026000011F028DF030EECDE7FEF12F02CEC0DF062
:10261000E552E552E552E55200091200BDDEEE50EA
:10262000EFCFEAFFE96E010E1200130EDB50F36EDE
:10263000040EFEEF11F0040EDB50F36E090EFEEFF8
:1026400011F0DBCFE6FFDAEF11F0E76E050EE7CF12
:10265000DBFF12008BDFFDEF12F0DBCFE6FF86DF42
:1026600006EF13F0D950F90FE96EFF0ECBEF12F021
:0A267000E96E000EDA20EA6E120097
:06267A00DACFE4FFE2CF1D
:10268000DAFFE9CFE4FFEACFE4FFE652F2A202D09C
:10269000A0D802D09EB6CCD8E552E5CFEAFFE5CF70
:1026A000E9FFE5CFDAFF1100E66A010EE66E050EDE
:1026B000E66E1EEC36F0E552E552E5521200070ECA
:1026C000B46E000E886E876E866E856E846E836E25
:1026D000826E816E806E916E906E8F6E8E6E8D6E3C
:1026E0008C6E8B6E8A6E896E2F0E926E93689C0E26
:1026F000946E956A966A9768040E986E0E0E9A6E9E
:102700009968C16AF19EB0989C8EA26A9F6AA06A7D
:102710009D6AA36AA56AC8DF9F86D08E9E969D8615
:102720009382F06AF288F09EF098F192F09AF16A42
:10273000F28CF28E1200D9CFE6FFE1CFD9FFE6523C
:10274000BEDF0101C097C0990301840E796F010EAD
:102750007A6FDF6A100EDF5C0AE2DF50EA6A7925E1
:10276000E96E7A51EA227F0EEF6EDF2AF3D701017C
:102770009D6B010E9E6FC20E9F6F0101C08501010E
:10278000A26BA36B0101806B826B836B010ED56E14
:10279000320ED76ECF0ED66ED59E800EE66E010E2F
:1027A000E66E8BD8E552E5520101C093800EE66ECD
:1027B000010EE66E82D8E552E5520101C093E55262
:1027C000E552E7CFD9FF12008282808894929298D6
:1027D0001200F2920301200E756F9F860101C0A9BD
:1027E00006D00301E00E726F000E736F05D0030177
:1027F000C00E726F000E736F0101C0A1C079C0A737
:1028000006D00301800E706F000E716F05D00301BA
:10281000A00E706F000E716FC9CF76F370C3E9FF21
:1028200071C3EAFF702B000E7123EF50C96E1200C6
:102830009E96C9CF76F303017551000823E272C357
:10284000E9FF73C3EAFF722B000E732376C3EFFF19
:1028500070C3E9FF71C3EAFF702B7123EFCF76F3EA
:1028600076C3C9FF750775510CE10101020E9E6F19
:102870000101C093C081320ED76ECF0ED66EF29496
:10288000D58E01D0C96A1200D9CFE6FFE1CFD9FFBA
:102890000101C0A10ED0FD0EDBCFE6FFFE0EDBCFA7
:1028A000E6FFDFEC24F0E552E5529D960101C09170
:1028B0009D86E552E7CFD9FF1200D9CFE6FFE1CFE1
:1028C000D9FF0101C0B332D0FD0EDBCFE9FFFE0E10
:1028D000DBCFEAFF1E0EE926000EEA22EF500208C7
:1028E00009E1FD0EDBCFE6FFFE0EDBCFE6FF69D888
:1028F000E552E552FD0EDBCFE9FFFE0EDBCFEAFF2E
:10290000150EE926000EEA22EF9EFD0EDBCFE6FF54
:10291000FE0EDBCFE6FF4DEC24F0E552E5529D962E
:102920000101C077C0839D8601019D2BE552E7CF51
:10293000D9FF12009D960101C0919D861200D9CF4A
:10294000E6FFE1CFD9FF0001346BD950FD0FE96EEE
:10295000FF0EDA20EA6E010EEE1801E1ED5002E101
:10296000348101D0BA6AD950FB0FE96EFF0EDA202C
:10297000EA6E010EEE1801E1ED5002E1348301D060
:10298000B76AD950F90FE96EFF0EDA20EA6E010E30
:10299000EE1801E1ED5002E1348501D0736AD9509F
:1029A000F70FE96EFF0EDA20EA6E010EEE1801E174
:1029B000ED5002E1348701D0706AE552E7CFD9FFCC
:1029C0001200D9CFE6FFE1CFD9FFFD0EDBCFE9FF43
:1029D000FE0EDBCFEAFF1C0EE926000EEA22EF6AAC
:1029E000FD0EDBCFE9FFFE0EDBCFEAFF170EE92677
:1029F000000EEA22EF6AC6AE0ED0C69EFD0EDBCFF9
:102A0000E9FFFE0EDBCFEAFF170EE926000EEA22F1
:102A1000010EEF6E22D0F150800B10E0F250080B47
:102A20000DE0FD0EDBCFE9FFFE0EDBCFEAFF170E58
:102A3000E926000EEA22020EEF6E0FD0F0A60DD0AE
:102A4000909EFD0EDBCFE9FFFE0EDBCFEAFF170EF7
:102A5000E926000EEA22030EEF6E250EC6142508A5
:102A600019E0FD0EDBCFE9FFFE0EDBCFEAFF1C0E07
:102A7000E926000EEA22010EEF6EFD0EDBCFE9FF24
:102A8000FE0EDBCFEAFF170EE926000EEA22C6CFC4
:102A9000EFFF80D1C55019E0FD0EDBCFE9FFFE0E40
:102AA000DBCFEAFF1C0EE926000EEA22020EEF6ED3
:102AB000FD0EDBCFE9FFFE0EDBCFEAFF170EE926A6
:102AC000000EEA22C5CFEFFF65D1D0BE19D0FD0EB2
:102AD000DBCFE9FFFE0EDBCFEAFF1C0EE926000E7E
:102AE000EA22030EEF6EFD0EDBCFE9FFFE0EDBCF19
:102AF000EAFF170EE926000EEA22D0CFEFFF4AD1F7
:102B00009DB619D0FD0EDBCFE9FFFE0EDBCFEAFF4D
:102B10001C0EE926000EEA22040EEF6EFD0EDBCF3E
:102B2000E9FFFE0EDBCFEAFF170EE926000EEA22D0
:102B30009DCFEFFF2FD19C5019E0FD0EDBCFE9FFB9
:102B4000FE0EDBCFEAFF1C0EE926000EEA22050E80
:102B5000EF6EFD0EDBCFE9FFFE0EDBCFEAFF170EB7
:102B6000E926000EEA229CCFEFFF14D1080E9F5CED
:102B700019E0FD0EDBCFE9FFFE0EDBCFEAFF1C0EF6
:102B8000E926000EEA22060EEF6EFD0EDBCFE9FF0E
:102B9000FE0EDBCFEAFF170EE926000EEA229FCFDA
:102BA000EFFFF8D0A25019E0FD0EDBCFE9FFFE0EDB
:102BB000DBCFEAFF1C0EE926000EEA22070EEF6EBD
:102BC000FD0EDBCFE9FFFE0EDBCFEAFF170EE92695
:102BD000000EEA22A2CFEFFFDDD0A55019E0FD0ED6
:102BE000DBCFE9FFFE0EDBCFEAFF1C0EE926000E6D
:102BF000EA22080EEF6EFD0EDBCFE9FFFE0EDBCF03
:102C0000EAFF170EE926000EEA22A5CFEFFFC2D099
:102C1000100EF214100819E0FD0EDBCFE9FFFE0ED6
:102C2000DBCFEAFF1C0EE926000EEA22090EEF6E4A
:102C3000FD0EDBCFE9FFFE0EDBCFEAFF170EE92624
:102C4000000EEA22F2CFEFFFA5D0470EF11419E0F3
:102C5000FD0EDBCFE9FFFE0EDBCFEAFF1C0EE926FF
:102C6000000EEA220A0EEF6EFD0EDBCFE9FFFE0E2C
:102C7000DBCFEAFF170EE926000EEA22F1CFEFFFC5
:102C800089D0C00EF01419E0FD0EDBCFE9FFFE0E77
:102C9000DBCFEAFF1C0EE926000EEA220B0EEF6ED8
:102CA000FD0EDBCFE9FFFE0EDBCFEAFF170EE926B4
:102CB000000EEA22F0CFEFFF6DD092A819D0FD0EE2
:102CC000DBCFE9FFFE0EDBCFEAFF1C0EE926000E8C
:102CD000EA220C0EEF6EFD0EDBCFE9FFFE0EDBCF1E
:102CE000EAFF170EE926000EEA2292CFEFFF52D03C
:102CF00093B019D0FD0EDBCFE9FFFE0EDBCFEAFF6C
:102D00001C0EE926000EEA220D0EEF6EFD0EDBCF43
:102D1000E9FFFE0EDBCFEAFF170EE926000EEA22DE
:102D200093CFEFFF37D03E0E94141C0819E0FD0E30
:102D3000DBCFE9FFFE0EDBCFEAFF1C0EE926000E1B
:102D4000EA220E0EEF6EFD0EDBCFE9FFFE0EDBCFAB
:102D5000EAFF170EE926000EEA2294CFEFFF1AD001
:102D600097BE18D0FD0EDBCFE9FFFE0EDBCFEAFFEA
:102D70001C0EE926000EEA220F0EEF6EFD0EDBCFD1
:102D8000E9FFFE0EDBCFEAFF170EE926000EEA226E
:0C2D900097CFEFFFE552E7CFD9FF12000C
:042D9C00449E05D07C
:102DA000449E3CAE02D03C6C448E3CC036F0356A4A
:102DB000486A476A860E376E386AC6EF19F0449E35
:102DC00008D0449E3CAE05D03B6C3C1EE86A3C22D9
:102DD000448E3CC036F03BC035F0486A476A8E0EE0
:102DE000376E386AC6EF19F0449E0CD0449E3CAE54
:102DF00009D0396C3A1E3B1E3C1EE86A3A223B223F
:102E00003C22448E3CC036F03BC035F03AC048F01E
:102E100039C047F09E0E376E386AC6EF19F0427E11
:102E2000446A02EC1AF01AEC1AF044B6AAEF19F050
:102E300044A20AD044AA03D044BEAAEF19F044A485
:102E4000B6EF19F0B3EF19F044AA05D044ACB6EFD1
:102E500019F0B3EF19F044A00AD044A808D044BE3A
:102E600004D044A402D0BFEF19F0C3EF19F0476AB1
:102E7000386A42503D5C466E10E33AC048F03BC0B1
:102E800035F03CC036F03DC045F03FC03AF040C0A0
:102E90003BF041C03CF0443A09D03FC048F040C04C
:102EA00035F041C036F042C045F0466C449E44BC0B
:102EB000448E45C037F044B0F2EF19F01A0E466068
:102EC000F2EF19F0376A3D6A44A408D03A6C3B1E11
:102ED0003C1E3D1EE86A3B223C223D2244AC08D009
:102EE000486C351E361E371EE86A352236223722D8
:102EF000396A465207E03D343C323B323A3239328D
:102F0000462EF9D73A5048263B5035223C503622BF
:102F10003D50372239C047F0449E37AE0BD0476C46
:102F2000481E351E361E371EE86A482235223622D4
:102F30003722448E37A006D0D88036323532483218
:102F40004732452A45C037F0C6EF19F0446A02EC13
:102F50001AF01AEC1AF044B6AAEF19F044A205D000
:102F600044BAAAEF19F0B1EF19F044BABDEF19F065
:102F700044A005D044B8AAEF19F0BDEF19F044B849
:102F8000B1EF19F0386A7F0E3D24376EE86A3822B7
:102F90004250375EE86A385A1A0E456E3D6A476AF3
:102FA000486A356A366A3F503A5E40503B5A415053
:102FB0003C5A000E3D5A09E73F503A2640503B220A
:102FC00041503C22000E3D2201D0478AD8903A362B
:102FD0003B363C363D36D890473648363536363661
:102FE000452EE1D73C503B103A10D8A4478AC6EF93
:102FF00019F0446A02EC1AF01AEC1AF044B6AAEF7F
:1030000019F044A205D044B8AAEF19F0B1EF19F0B5
:1030100044AA05D044B0AAEF19F0B1EF19F044B0BA
:1030200002D044A802D0BDEF19F0386A42503D24C6
:10303000376EE86A38227E0E375EE86A385A476A89
:10304000486A356A366A41503C02F4CF36F0F3CF15
:1030500035F040503C02F3504826F4503522000E23
:10306000362241503B02F3504826F4503522000EE0
:1030700036223F503C02F3504726F4504822000EBF
:103080003522362240503B02F3504726F450482266
:10309000000E3522362241503A02F3504726F450B2
:1030A0004822000E352236223F503B02F45047267C
:1030B000000E48223522362240503A02F45047266C
:1030C000000E482235223622C6EF19F0436A41AE7F
:1030D0006FEF18F0406C411EE86A4122431E3CAE7F
:1030E00077EF18F03B6C3C1EE86A3C22431EF7EC7D
:1030F00036F03CBE87EF18F043AE000C3B6C3C1E34
:10310000E86A3C22376C381EE86A3822000C43BE5D
:103110007EEF18F04488FF0C436AE86A41AE99EFED
:1031200018F03E6C3F1E401E411E3F2240224122AD
:10313000431E3CAEA4EF18F0396C3A1E3B1E3C1EF9
:103140003A223B223C22431EB4EC36F03CBEBBEF9D
:1031500018F043AE000C396C3A1E3B1E3C1EE86A68
:103160003A223B223C22356C361E371E381E362250
:1031700037223822000C43BEABEF18F04488FF0C16
:103180003CC048F03BC047F03B504002F4CF3AF01F
:10319000F3CF39F03C504102F4CF3CF0F3CF3BF099
:1031A0004002F3503A26F4503B22E86A3C22475052
:1031B0004102F3503A26F4503B22E86A3C2241AEE9
:1031C000E6EF18F047503B5E48503C5A48AE000CC2
:1031D00040503B5E41503C5A000C446A02EC1AF0ED
:1031E00044B6F7EF18F044A20AD044B403D07F0EDF
:1031F0003C6E19D0800E3C6E16D03C6A14D044B0A0
:10320000FCD7870E3D60F1D77E0E3D64F6D7860E63
:103210003D5C04E0D8903C323D2AF9D744A403D069
:103220003C6C3CAEEAD71200446A02EC1AF044B699
:103230001EEF19F044A20ED044B405D07F0E3C6EB0
:10324000FF0E3B6E1FD0800E3C6E3B6A1BD03C6A6B
:103250003B6A18D044B0FBD78F0E3D60EDD77E0E91
:103260003D64F5D78E0E3D5C05E0D8903C323B3294
:103270003D2AF8D744A406D03B6C3C1EE86A3C22A9
:103280003CAEE5D7120055EC19F044B6000C44B042
:10329000000C44B4000C010C55EC19F044B6000CC1
:1032A00044B0000C44A4000C010C446A02EC1AF077
:1032B0001AEC1AF044B6120044AE08D044A004D070
:1032C00044A802D0448012004490120042503D5C59
:1032D0000BE141503C5C08E140503B5C05E13F5054
:1032E0003A5C02E144801200D8A002D0448E10D093
:1032F0003D5042C03DF0426E3C5041C03CF0416EFA
:103300003B5040C03BF0406E3A503FC03AF03F6EF9
:1033100042503D5C10E0FF0F09E0449044B403D0FC
:1033200044AE4484120044AE44941200422AD89021
:10333000413240323F323F503A5E40503B5A41505A
:103340003C5A3CBEEAD7D8903A363B363C363D2E06
:10335000F8D7C8D77F0E3D6EFF0E3C6E3B6E3A6EBF
:1033600012007F0E44BEFF0E3D6E02D07F0E3D6EFA
:10337000800E3C6E3B6A3A6AF3D744AE04D0800EAE
:103380003D6E3C6AF7D73D6A3C6AF4D7365035103B
:1033900048104710F8E038BEF0D736BE0CD0375092
:1033A0003810EBE0D8904736483635363636370693
:1033B000D8A03806F2D73850D4E13728D2E047AE4B
:1033C00011D07F0E471402E148A00CD0482AE86AC9
:1033D0003522362207E3D880363235324832372A52
:1033E0003728BFE03750C9E048C03AF035C03BF05D
:1033F00036343C6E37303D6E3C323D9E44BE3D8E91
:10340000B0EF19F03C363D3602E34484447E06E1D9
:1034100044803D6A3C6A3B6A3A6A12003D2803E0F8
:10342000D8803C321200D8903C3202E14482120033
:10343000448612004136423602E3448C447E06E163
:103440004488426A416A406A3F6A1200422803E0A7
:10345000D88041321200D8904132EAE1448A120009
:1034600005DBE150F90F4BDB0BE1FB0EDB6AFC0ED9
:10347000DB6A010EF36EF90EF3CFDBFFFA0EDB6AA7
:10348000D950F10F3CDB0BE1F30EDB6AF40EDB6A83
:10349000010EF36EF10EF3CFDBFFF20EDB6AD950B3
:1034A000F50F2DDB0BE1F70EDB6AF80EDB6A010E80
:1034B000F36EF50EF3CFDBFFF60EDB6A00DAFB0EE0
:1034C000DBCFEEFFFC0E1FDB020E44DAF90EDBCF82
:1034D000EEFFFA0E18DB040E3DDAF70EDBCFEEFF3F
:1034E000F80E11DB060E36DAF50EDBCFEEFFF60E28
:1034F0000ADB080E2FDAF30EDBCFEEFFF40E03DB50
:103500000A0E28DAF10EDBCFEEFFF20EDBCFEDFF75
:10351000D1DAEF0EDBCFEEFFF00EDBCFEDFFCEDA30
:10352000ED0EDBCFEEFFEE0EDBCFEDFF9BDA310EC3
:10353000EE6E750EED6EC3D90E0EEB6A0F0EEB6AD2
:103540009AD230DA0BDA010EE66EE66A39D22ADA5E
:10355000010EE66EE66A02DA33D288DA040EE1265C
:10356000DE6ADD6A64DAFB0EDB50025C006EFC0E84
:10357000DB500358016E020E00C0DBFF030E01C0DA
:10358000DBFF70DA310EEE1806E1750EED1803E17F
:1035900099DA54DA9BDA66DAEECF00F0EFCF01F079
:1035A000013404E200503008750E01540AE35ADA7F
:1035B0004FDAD880035004E7D00E025C8A0E03581D
:1035C00001E284DA7CD9020E87DA79D9EECF04F0F1
:1035D000EFCF05F0020EDBCF3BF0030EDBCF3CF06C
:1035E00004C040F005C041F0C0EC18F039C002F052
:1035F0003AC003F039C03BF03AC03CF006C040F09E
:1036000007C041F098D95BD9060E6CDA2BDAEECF01
:1036100004F0EFCF05F053D9040E5EDA0001065036
:10362000E7D90750FCD908C040F009C041F083D960
:1036300046D90A0E8FD9EECF0AF0EFCF0BF0020E6B
:10364000DBCF06F0030EDBCF07F03CDAEE50065C72
:10365000046EEE500758056E32D9080E43DA0001A9
:103660000850C6D90950DBD90AC040F00BC041F060
:1036700062D9F3D91FDAECD903500118E8AE02D0B1
:10368000013404D00050025C0150035805E212DA04
:10369000EECFDEFFEDCFDDFFE0D910DAD9D9015052
:1036A0000318E8AE02D0033401D0B4D905E206DA3B
:1036B000EECFDEFFEDCFDDFF05DAC0D9020EDBCFA6
:1036C00000F0030EDBCF01F0CDD90050EE26015003
:1036D000ED22C3D900C0F3FF01C0F4FFB6D1C6D9B3
:1036E000080EE126D950F90F77D9040EEECFDBFF93
:1036F000050EEECFDBFF060EEECFDBFF070EEECFA3
:10370000DBFFF50EDBCF00F0F60EDBCF01F0F70E9E
:10371000DBCF02F0F80EDBCF03F0F10EDBCF04F0CD
:10372000F20EDBCF05F0F30EDBCF06F0F40EDBCFAD
:1037300007F004C03FF005C040F006C041F007C0EC
:1037400042F09DD90FEC17F03AC0DEFF3BC0DEFF20
:103750003CC0DEFF3DC0DDFFDD52DD52D950FD0F24
:103760003BD9010EEE180FE1ED500DE1AFD8DFCFE0
:10377000A9F3010EDBCFAAF3020EDBCFABF3030EEE
:10378000DBCFACF314D0D950FD0F26D9020EEE18C2
:103790000EE1ED500CE19AD8DFCFA5F3010EDBCF9F
:1037A000A6F3020EDBCFA7F3030EDBCFA8F3040EC4
:1037B000DBCF00F0050EDBCF01F0060EDBCF02F011
:1037C000070EDBCF03F01DD940D1D9CFE6FF53D18F
:1037D0004DD907D92CD901500318E8AE02D00334D3
:1037E00001D018D910E2FD0EDBCF3BF0FE0EDBCF8F
:1037F0003CF0CDD83AC008F03BC009F03CC00AF01C
:103800003DC00BF042D0EDD8FB0EDBCF04F0FC0E38
:10381000DBCF05F0F90EDB50045C026EFA0EDB50D4
:103820000558036E01500318E8AE02D0033401D0EE
:10383000F1D807E2006A016A800E026E3F0E036E45
:103840003CD0CFD855D901500318E8AE02D003348C
:1038500001D0E0D82EE2FB0EDBCF0AF0FC0EDBCF6E
:103860000BF0FD0EDB500A5C086EFE0EDB500B58B1
:10387000096E08C03BF03C6E8AD83AC00CF03BC0E1
:103880000DF03CC00EF03DC00FF002D904C03AF07C
:1038900005C03BF006C03CF007C03DF0A6EC17F0B9
:1038A0003AC000F03BC001F03CC002F03DC003F064
:1038B00004D0006A016A026A036AA3D8DCD0FD0E54
:1038C000DBCFE9FFFE0EDBCFEAFF1200F90EDBCF04
:1038D00000F0FA0EDBCF01F00BD9D9CFE9FFDACF38
:1038E000EAFFEECF08F0EECF09F0EECF0AF0EFCF0F
:1038F0000BF03F6A406A040E416E420E426E08C0F1
:103900003AF009C03BF00AC03CF00BC03DF0A6EC19
:1039100017F0C7D8BDD8B3D810EC17F0040E3AC0D2
:10392000DBFF050E3BC0DBFF060E3CC0DBFF070ED6
:103930003DC0DBFF120066EC18F03BC000F03CC05D
:1039400001F0D9CFE9FFDACFEAFF3B50EE26015074
:10395000ED221200E926000EEA221200F70EDBCF5C
:10396000E6FFF80EDBCFE6FF010EE66EE66AF90E23
:10397000DBCFE6FFFA0EDBCFE6FF010EE66EE66A6E
:10398000FB0EDBCFE6FFFC0EDBCFE6FF1200E1EC27
:1039900016F087D8F90EDBCF3BF0FA0EDBCF3CF008
:1039A000E1EF16F063D8F30EDBCFE6FFF40EDBCFCA
:1039B000E6FFF50EDBCFE6FFF60EDBCFE6FF1200EB
:1039C000FD0EDBCFE6FFFE0EDBCFE6FF49DDF56E39
:1039D000120EE15EF5504FD0E96EFF0EDA20EA6E6E
:1039E0001200FD0EDBCF00F0FE0EDBCF01F0120067
:1039F0000402F3CF02F0F4CF03F00502F3500326E4
:103A0000120000C039F001C03AF002C03BF003C020
:103A10003CF012000250005C0350015812000402F6
:103A2000F350032602C03BF003C03CF01200F90E35
:103A3000DBCF02F0FA0EDBCF03F01200020EDBCF79
:103A4000EEFF030EDBCFEDFF1200D9CFE1FF13D065
:103A5000EECF02F0EFCF03F01200DECF00F0DDCFAB
:103A600001F012002CDF0C0EAAEF1CF0D9CFE6FFFC
:103A7000E1CFD9FF1200E552E7CFD9FF120000C015
:103A80003AF001C03BF002C03CF003C03DF0120030
:103A90003AC03FF03BC040F03CC041F03DC042F076
:103AA00012003AC004F03BC005F03CC006F03DC037
:103AB00007F0120004DF100EAAEF1CF000DF120E58
:103AC000AAEF1CF0FCDE0E0EAAEF1CF0F8DE0C0EC6
:103AD000EB6A0D0EEB6A12003DDFEECF06F0EFCF82
:103AE00007F0120037DFEECF08F0EFCF09F0120039
:103AF000FB0EDBCF02F0FC0EDBCF03F012006CDF1D
:0E3B0000EE50ED101200DBCFEDFF5FEF1CF07A
:023B0E003ADAA1
:103B1000040EE12603019B510AE1D1D8DF6EDF04D8
:103B200004E10301010E9B6F02D0DF500108F2D9BE
:103B3000E76E010EE7CFDBFFDB50000817E2030E54
:103B4000DB6A010EDB50F36E030EDBCFF4FFF350A4
:103B5000F45C0CE2E1D9E76E020EE7CFDBFFDBCFCE
:103B6000E6FF07D8E552030EDB2AEBD7D9CFE1FFFA
:103B70000ED208DA0301A251060A01E17FD0030A3E
:103B800060E0060A2EE0010A23E0030A01E096D075
:103B9000FE0EDB50006E016AFF0E001804E10150BA
:103BA00002E1020E8AD0FE0EDB50410806E102015E
:103BB000020ECD6F0301050E80D0FE0EDB504E08C5
:103BC00001E07CD00201020ECD6F0301060E75D01C
:103BD000FE0EDB50540870E10201CC6B0301030EB2
:103BE0006CD00201CC51006E016A080E005C000E20
:103BF00001580AE2CC51EA6AAA0FE96E020EEA22E3
:103C0000FE0EDBCFEFFFCC2BCC51006E016A080E0D
:103C1000001854E1015052E1AAC2A2F2ABC2A3F2D1
:103C2000ACC2A4F2ADC2A5F2AEC2A6F2AFC2A7F278
:103C3000B0C2A8F2B1C2A9F203019C2B000E9D23D1
:103C40003BD0020E0201CD5D04E1FE0EDB504308C5
:103C500024E0030ECD5D04E1FE0EDB504B081DE0B9
:103C6000040ECD5D09E1FE0EDB500D0805E10301F8
:103C70009E2B000E9F2320D003011ED0020E0201B6
:103C8000CD5D04E1FE0EDB50430807E0030ECD5D81
:103C900006E1FE0EDB504B0802E1CD2B0FD0040EE7
:103CA000CD5D09E1FE0EDB500D0805E10301A02BFF
:103CB000000EA12301D00301010EA26F68D162D9C9
:103CC000E6520301A30507E1FCD8050EE66E02D912
:103CD000E5520301A36BA4050DE1A46B0201CF6BB8
:103CE000010ECE6FD06BD16BD26B03019E6B9F6BBD
:103CF000A06BA16B0201CF0528E10301010E9E5DBF
:103D0000000E9F5905E30201CF6BD06BD16BC3D07E
:103D1000010EA05D000EA15903E30201CE05BAD049
:103D200002010A0ED05D000ED1590BE3800ECE25A4
:103D3000006E016A000E01220006015A00C0D2F294
:103D4000AAD0D02B000ED123A6D003019E6B9F6B6F
:103D5000A06BA16B0201CE51120A01E19AD0030AB5
:103D600001E180D0010A01E177D01F0A6FE0010A6A
:103D700067E0030A5FE0010A57E0070A4FE0010A23
:103D800045E0030A3DE0010A35E00F0A2DE0010A93
:103D900025E0030A1DE0010A15E0070A0DE0010A0B
:103DA00007E0030A01E077D08CD80201020E01D0AF
:103DB000030ECE6FCF6B6FD0800EE66E290ED3D878
:103DC000040E63D0200EE66E130ECDD8050E5DD026
:103DD000840EE66E2D0EC7D8060E57D0800EE66E06
:103DE0002A0EC1D8070E51D0200EE66E2B0EBBD87E
:103DF000080E4BD0840EE66E2D0EB5D8090E45D0B8
:103E0000200EE66E120EAFD80A0E3FD0E66AE66AC2
:103E100079D8E552E55202010B0E37D0800EE66EDE
:103E2000010EA1D80C0E31D0800EE66E020E9BD88A
:103E30000D0E2BD0800EE66E030E95D80E0E25D0FB
:103E4000010EE66E060E8FD80F0E1FD0010EE66E25
:103E5000100E89D8100E19D0E66A4AD8E552020130
:103E6000110E13D0910EE66E640EE66E100EE66E25
:103E70000F0EE66E730EE66E550EE66E16D8F56EF4
:103E8000060EE15EF5500201120ECE6F010ECF6FED
:103E900002D0010ED26FD251000803E20301010EDD
:103EA000A46F0201D251E55272D06CD8540E61D881
:103EB000430E5FD8060E6FD8FA0E5FD8F90E5DD8A4
:103EC00066D00D0EB9EF1FF003019B6B12000301CA
:103ED0009B51120057D8520E4CD84D0E4AD8200E86
:103EE00048D8FE0EDB50300F44D80D0E42D84FD0CC
:103EF00049D84E0E3ED8460E3CD8010E3AD8FE0E9A
:103F00003CD845D03FD8430E34D8520E32D8020E9A
:103F100048D83DD021EF2CF048EF2CF033D8FE0EDE
:103F2000DBCFE6FF80EC2CF0E55231D018EF2CF01F
:103F30002AEF2CF027D8FE0EDBCFE6FF66EC2CF044
:103F4000E55225D01FD8560E14D8570E12D8040E9D
:103F500022D81DD0500E0DD84D0E0BD8310E09D8D9
:103F6000310EB9EF1FF0E66ECDDFE552E5520201EA
:103F70001200E66ED3DFE5521200DBCFE6FFCEDFA4
:103F8000E5521200D9CFE6FFE1CFD9FF1200E5528A
:103F9000E7CFD9FF120005D8FC0EEFDFFB0EBDEF17
:0E3FA0001FF0E7DFFE0EE9DFFD0EBDEF1FF0A4
:023FAE00D9CF69
:103FB000E6FFE1CFD9FF040EE126FD0EDBCFE6FFE1
:103FC000FE0EDBCFE6FF8ED8E552E55239C0DEFFAC
:103FD0003AC0DEFF3BC0DEFF3CC0DDFFDD52DD52FC
:103FE000E5D9000E3D18E8AE02D03D3409D0000EF0
:103FF000D8803A54000E3B54000E3C54000E3D5401
:1040000049E3D4D9FD0E3A1808E1E8683B1805E108
:10401000E8683C1802E1E8683D1828E0FE0E3A180E
:1040200008E1E8683B1805E1E8683C1802E1E86847
:104030003D182BE0E8683A1808E1E8683B1805E10C
:10404000E8683C1802E1E8683D180CE03A501DE1D0
:104050003B501BE13C5019E13D5017E1770E006EDB
:10406000610E07D0690E006E610E03D05D0E006E0A
:10407000610E016E026A00C0E6FFE66E02C0E6FF56
:104080005AEC35F0E552E552E552396A3A6A3B6A34
:104090003C6A27D0D9CFE9FFDACFEAFFEECF04F0B0
:1040A000EECF05F0EECF06F0EFCF07F0040ED8907C
:1040B0000436053606360736E806F9E1006A870E4B
:1040C000016E930E026E030E036E86D93C6E04C021
:1040D0003EF005C03FF006C040F007C041F08CEC58
:1040E00018F081D1D9CFE6FFE1CFD9FF140EE12638
:1040F0000C0EDB6A0D0EDB6A0E0EDB6A0F0EDB6A3E
:10410000100EDB6A110EDB6A120EDB6A130EDB6A1D
:1041100070D9010EEE1819E1ED5017E1100EDE6EA8
:10412000030EDD6ED950020F3DD9830EEE6E030EE5
:10413000ED6ED950040F36D97D0EEE6E030EED6E86
:104140006DD9220EEE6E030E1CD053D9020EEE185E
:104150001AE1ED5018E1000EDE6E030EDD6ED9504F
:10416000020F20D9810EEE6E030EED6ED950040FB2
:1041700019D97B0EEE6E030EED6E50D9200EEE6E49
:10418000030EED6E02D03968ECD0020EDBCFE9FFF2
:10419000030EDBCFEAFF15D9EECF00F0EFCF01F031
:1041A000010ED89000360136E806FBE1DE5000240F
:1041B000E96EDD500120EA6E02C0EEFF03C0EDFFA4
:1041C000080EDB6A090EDB6A080EDBCF00F0090E71
:1041D000DBCF01F0D890015004E6080E005C000E21
:1041E000015858E2C2D8EDD8EECF06F0EFCF07F075
:1041F000010ED89006360736E806FBE1DE500624AD
:10420000E96EDD500720EA6EEE50025C006EEE5063
:104210000358016E0A0E00C0DBFF0B0E01C0DBFF6E
:104220000A0EDBCF00F00B0EDBCF01F0D88001507F
:1042300004E7F10E005CFF0E015826E30A0EDBCF07
:1042400002F00B0EDBCF03F0033404E202500F0840
:10425000000E035419E389D8D3D801AE02D0026806
:104260000368D9500C0F9ED80050EE260150EE2264
:104270000250EE220350EE22D950100F93D8EE2AAE
:10428000000EEE22EE22EE22080EDB2A090E9CE33F
:10429000DB2A9AD7C3D8EECFF3FFEDCFF4FF020E9F
:1042A000EE26000EEF22F3CFE9FFF4CFEAFF6DD840
:1042B000005001100210031002E1FE0E51D00F0E4B
:1042C000006E016A026A036AD9500C0F6BD8EE5077
:1042D0000026EE500122EE500222EE50032297D823
:1042E000EECF04F0EFCF05F0066A076A0350071817
:1042F000E8AE02D0073408D00450005C05500158E5
:10430000065002580750035806E281D879D864D87D
:1043100003C03CF029D0100EDBCF00F0110EDBCF34
:1043200001F0120EDBCF02F0130EDBCF03F00050D2
:1043300001100210031013E028D84ED803C03CF03F
:10434000100EDBCF3EF0110EDBCF3FF0120EDBCFB5
:1043500040F0130EDBCF41F08CEC18F005D0FD0ED1
:10436000396E3A683B683C683ED0080EDBCF04F0FB
:10437000090EDBCF05F0D89004360536DE50042454
:10438000E96EDD500520EA6E12000C0EDBCF00F066
:104390000D0EDBCF01F00E0EDBCF02F00F0EDBCFE8
:1043A00003F01200E96EDACFEAFF1200DECF3AF036
:1043B000DECF3BF0DECF3CF0DDCF3DF0DD52DD5215
:1043C0001200EECF02F0EFCF03F0060EDBCFE9FFD5
:1043D000070EDBCFEAFF120000C039F001C03AF04F
:1043E00002C03BF01200D9CFE1FFE552E7CFD9FF81
:1043F0001200D950FD0FE96EFF0EDA20EA6E1200AE
:10440000EECF00F0EFCF01F0026A036A1200040E53
:10441000DBCFE9FF050EDBCFEAFF1200D950060F14
:04442000D2EF21F0C6
:0C4424000201400EDF6F440EE06F220E1C
:10443000E16F460EE26FEE0EE36F460EE46F120080
:10444000D9CFE6FFE1CFD9FF040EE1260301B55134
:10445000B61101E1E0D0320EE66EE66AFD0EDBCF6A
:10446000E6FFFE0EDBCFE6FFAB0EE66E070EC5D90C
:104470000E0EE66EE66A8AD9E9CF00F0EACF01F0C7
:10448000E9CFE6FFEACFE6FFDD0EE66E070EB5D90F
:10449000AFD9C10E426E71D943EC19F0010A18E18F
:1044A000C1D94CEC19F0010A13E1C8D94CEC19F050
:1044B000010A07E10701DD6BDE6B360EDF6FC10E0F
:1044C00006D00701DD6BDE6B360EDF6F410EE06F4D
:1044D000C7C700F0C8C701F08B0E406E180E416EC2
:1044E000C7C73BF0C8C73CF066EC18F037C0DEFF2A
:1044F00038C0DDFF92D90001800E011408E0D9CF49
:10450000E9FFDACFEAFF8B0EEE26180EED22070147
:10451000E151DE5C006EE251DD58016E020E00C01A
:10452000DBFF030E01C0DBFF89D943EC19F0010A60
:104530001FE173D907010150E219E8AE02D0E2355C
:1045400004D0E151005CE25101581FE3680EC72519
:10455000006E010EC821016E020EDB500001005CEE
:104560000701E16F030EDB5000010158070123D062
:1045700054D90701E2510118E8AE02D0013404D049
:104580000050E15D0150E25907E2020EDB50C75DC9
:10459000E16F030EDB500ED0020EDBCF00F0030EF6
:1045A000DBCF01F0680E0026010E01220050C75D2E
:1045B000E16F0150C859E26FE3C7EFF7E4C7F0F7C6
:1045C000E5C7F1F7E6C7F2F7E3C7EBF7E4C7ECF7A7
:1045D000E5C7EDF7E6C7EEF725D910EC17F08CD854
:1045E000E8D83AC0EBF73BC0ECF73CC0EDF73DC074
:1045F000EEF718D90FEC17F07FD8E5D83AC0EFF7EF
:104600003BC0F0F73CC0F1F73DC0F2F70301B36BDC
:10461000B46BB56BB66BD9CFE1FFE552E7CFD9FFED
:104620001200D9CFE6FFE1CFD9FF0301B551B61192
:1046300055E1D3D8EECF00F0EFCF01F00701E951FB
:10464000E15D026EE251EA55036EE8500118E8AEF2
:1046500002D0013404D00050025C0150035816E22D
:10466000BCD8EECF04F0EFCF05F0E151E925066E9E
:10467000E251EA21076E05500718E8AE02D0073470
:1046800004D00650045C0750055828E353D891D84D
:104690003AC000F0CCD87AD8080E7FD84BD893D83F
:1046A000C6D874D80C0E79D81A0E0301B327000EA1
:1046B000B423B4510701E819E8AE02D0E83507D0B9
:1046C000E7510301B35D0701E8510301B45908E361
:1046D0005DD80C0E9AD85AD8080E97D8F36A02D033
:1046E000010EF36EF46AE552E7CFD9FF1200010E16
:1046F0000301B56FB66B12003AC004F03BC005F081
:104700003CC006F03DC007F0DDC73FF0DEC740F01B
:10471000DFC741F0E0C742F0A6EC17F03AC000F066
:1047200086D83AC03FF03BC040F03CC041F03DC0AD
:1047300042F012002C0EE66E010EE66EE7C7E6FFB1
:10474000E8C7E6FFB3C3E6FFB4C3E6FFE8EC1BF03F
:10475000F56E060EE15EF55039C004F03AC005F082
:104760003BC006F03CC007F039C03FF03AC040F013
:104770003BC041F03CC042F01200DDC73AF0DEC75A
:104780003BF0DFC73CF0E0C73DF01200FB0EDBCF93
:10479000E9FFFC0EDBCFEAFF1200E926000EEA2259
:1047A0003AC0EEFF01C0EEFF02C0EEFF03C0EEFF15
:1047B0001200EBC73AF0ECC73BF0EDC73CF0EEC798
:1047C0003DF0F9EF17F0EFC73AF0F0C73BF0F1C753
:1047D0003CF0F2C73DF0F9EF17F0FD0EDBCFE9FF3B
:1047E000FE0EDBCFEAFF1C0EE926000EEA221200C5
:1047F0003F6A406A360E416E1200E66EADEC34F050
:10480000F56E060EE15EF5501200E926000EEA2272
:10481000EE6AEE6AEE6AEE6A1200DECF00F0DDCFDD
:1048200001F01200E5DF410E426EBDEF23F03BC008
:1048300001F03CC002F03DC003F012003F6A406A44
:08484000416A426ABDEF23F05A
:08484800000EE96EEA6E0400A7
:1048500031EC24F0EA2A080EEA5CD8A427EF24F011
:104860001200EF6AE93E31EF24F01200FF0EE3CFB1
:1048700027F027380F0B060FD8B2070F2A0FAD6E9F
:104880003FEC31F027500F0B060FD8B2070F2A0F5D
:10489000AD6E3FEC31F0000C1200EACF22F0E9CF10
:1048A00023F0FF0EE3CFEAFFFE0EE3CFE9FFC0A740
:1048B00041D0EECFA0F0EECFA1F0EECFA2F0EECF40
:1048C000A3F0EECFA4F0EECFA5F0EECFA6F0EECFA2
:1048D000A7F0EECFA8F0EECFA9F0EECFAAF0EECF82
:1048E000ABF0EECFACF0EECFADF0EECFAEF0EECF62
:1048F000AFF0EECFB0F0EECFB1F0EECFB2F0EECF42
:10490000B3F0EECFB4F0EECFB5F0EECFB6F0EECF21
:10491000B7F0EECFB8F0EECFB9F0EECFBAF0EECF01
:10492000BBF0EECFBCF0EECFBDF0EECFBEF0EECFE1
:10493000BFF040D0EECF80F0EECF81F0EECF82F02E
:10494000EECF83F0EECF84F0EECF85F0EECF86F0A1
:10495000EECF87F0EECF88F0EECF89F0EECF8AF081
:10496000EECF8BF0EECF8CF0EECF8DF0EECF8EF061
:10497000EECF8FF0EECF90F0EECF91F0EECF92F041
:10498000EECF93F0EECF94F0EECF95F0EECF96F021
:10499000EECF97F0EECF98F0EECF99F0EECF9AF001
:1049A000EECF9BF0EECF9CF0EECF9DF0EECF9EF0E1
:1049B000EECF9FF022C0EAFF23C0E9FF1200C0A1A2
:1049C0001200EACF22F0E9CF23F0FF0EE3CFEAFF97
:1049D000FE0EE3CFE9FFC0A941D0C0C0EEFFC1C0C9
:1049E000EEFFC2C0EEFFC3C0EEFFC4C0EEFFC5C005
:1049F000EEFFC6C0EEFFC7C0EEFFC8C0EEFFC9C0E5
:104A0000EEFFCAC0EEFFCBC0EEFFCCC0EEFFCDC0C4
:104A1000EEFFCEC0EEFFCFC0EEFFD0C0EEFFD1C0A4
:104A2000EEFFD2C0EEFFD3C0EEFFD4C0EEFFD5C084
:104A3000EEFFD6C0EEFFD7C0EEFFD8C0EEFFD9C064
:104A4000EEFFDAC0EEFFDBC0EEFFDCC0EEFFDDC044
:104A5000EEFFDEC0EEFFDFC0EEFF40D0E0C0EEFFB5
:104A6000E1C0EEFFE2C0EEFFE3C0EEFFE4C0EEFF08
:104A7000E5C0EEFFE6C0EEFFE7C0EEFFE8C0EEFFE8
:104A8000E9C0EEFFEAC0EEFFEBC0EEFFECC0EEFFC8
:104A9000EDC0EEFFEEC0EEFFEFC0EEFFF0C0EEFFA8
:104AA000F1C0EEFFF2C0EEFFF3C0EEFFF4C0EEFF88
:104AB000F5C0EEFFF6C0EEFFF7C0EEFFF8C0EEFF68
:104AC000F9C0EEFFFAC0EEFFFBC0EEFFFCC0EEFF48
:104AD000FDC0EEFFFEC0EEFFFFC0EEFF22C0EAFF0A
:104AE00023C0E9FF1200F2B4120034500F0AD8B408
:104AF0001200FF0EE3CF28F0FE0EE3CF29F0FD0EEB
:104B0000E3CF2AF0FC0EE3CF2BF0282A34A08D8EC1
:104B1000292A34A28F802A2A34A48F862B2A34A6ED
:104B20008F882C6A2D6A2E6A2F6AC6EC25F0282EF3
:104B30009CEF25F034A08D9E292EA1EF25F034A204
:104B40008F902A2EA6EF25F034A48F9600002B2EEE
:104B5000ACEF25F034A68F9800002C2EB1EF25F095
:104B6000309000002D2EB6EF25F0309200002E2E52
:104B7000BBEF25F0309400002F2EC0EF25F03096CB
:104B8000E8EC25F0313E97EF25F01200D70E316E9C
:104B90000000000000000000DEEC25F0312EC8EF20
:104BA00025F0D70E316E0000000000000000DEECA2
:104BB00025F0312ED3EF25F0000012000000E1EFC8
:104BC00025F00000000000000000000000001200BE
:0E4BD000030E326E0000322EEAEF25F01200C6
:024BDE00D9CF2D
:104BE000E6FFE1CFD9FF0A0EE1260301AD51030133
:104BF0009C1904E10301AE5103019D1901E138D173
:104C00009CC3ADF39DC3AEF30201A35101E1B6D045
:104C10000301010EAF6F01018E51DE6EDD6A0201EC
:104C2000A251006E016A4F0E005E000E015A060E80
:104C300000C0DBFF070E01C0DBFF47D901340DE2E6
:104C400000500308000E015408E254D91AE1010E85
:104C5000F36E040EF3CFDBFF12D037D9D8800150AA
:104C600004E7FD0E005CFF0E015807E243D909E19D
:104C7000040EDB68050EDB6804D0040EDB6A050E4B
:104C8000DB6A3B683C68040EDBCF40F0050EDBCFEF
:104C900041F0C0EC18F03AC001F0D9CFE9FFDACF0B
:104CA000EAFF3950EE260150ED220AD90001800EAC
:104CB000011402E0DE6A0AD003D9013408E2005090
:104CC000F808000E015403E2F80EDE6EDD6ADFCF55
:104CD0008EF10101EDD80201A351006E016A770E39
:104CE000005E000E015A080E00C0DBFF090E01C075
:104CF000DBFFF2D801340DE200500808000E015429
:104D000008E201D91AE1010EF36E040EF3CFDBFFC6
:104D100012D0E2D8D880015004E7F80E005CFF0EF4
:104D2000015807E2F0D809E1040EDB68050EDB68E4
:104D300004D0040EDB6A050EDB6A040EDBCF00F044
:104D4000050EDBCF01F0E7D80050EE260150ED2232
:104D5000ABD804E6AA0E005C000E015802E2AA0ECF
:104D60000BD0DFD8013401E380D00050F008000EF2
:104D7000015401E37AD0F00EB6D877D00301B02BFE
:104D8000B051050875E2B06BAF0505E1AF6BDE6AA7
:104D9000DD6A900E41D001018E51DE6EDD6A88D849
:104DA0000301B151B21109E18BD8D890015004E64A
:104DB000F80E005C000E01580EE2B151B2112EE067
:104DC000DECF02F0DDCF03F0033404E2025000082E
:104DD000000E035423E3B151B21102E0000E01D0E2
:104DE000010EB16FB26B800B01E0B2695DD804E6D1
:104DF000F00E005C000E015802E3AA0E0DD08BD815
:104E0000170EEE26000EED224FD804E6F00E005CE1
:104E1000000E015828E3F00E66D825D0B151B2112A
:104E200010E13E0EDE26000EDD224AD8D890015059
:104E300004E6F80E005C000E015815E3F80EDE6E75
:104E400011D0D9CFE9FFDACFEAFF3E0EEE5E000EB9
:104E5000ED5A36D8013404E200500008000E015427
:104E600002E3DE6ADD6ADFCF8EF1020EDBCF8FF167
:104E7000D9CFE1FFE552E7CFD9FF1200DBCF3CF0FD
:104E800000C040F001C041F066EC18F0040E3BC0D9
:104E9000DBFF050E3CC0DBFFD950040FE96EDACF13
:104EA000EAFFEE50ED1012003CD8D89001501200ED
:104EB0008F51E66E30D8E552E750EE6EED6A120083
:104EC000DECF00F0DDCF01F01200060EDBCF00F0E8
:104ED000070EDBCF01F01200080EDBCF00F0090E49
:104EE000DBCF01F01200F36E020EF3CFDBFF030EF7
:104EF000DB6A1200030E006E016A060EDBCF3BF088
:104F0000070E3EEF27F0080E006E016ADBCF3BF084
:104F1000090E3EEF27F0D950020FE96EDACFEAFF13
:104F20001200020EDBCF00F0030EDBCF01F0120007
:104F30007BD9E652C80E03015F6F606B010E636F91
:104F4000646F040E616F626BDF6A6351DF5C08E2BD
:104F5000DF5073D9EE6AEE6AEE6AEE6ADF2AF5D7A1
:104F60006B6B6C6B6D6B010EC26EC16A860EC06E90
:104F70009F9C9E9C9D8C5FC3E6FF60C3E6FF0BD8A1
:104F8000E552E552E55255D14FD9E65246D89D9C9F
:104F9000C26AE5524ED148D9FD0EDBCF3BF0FE0E82
:104FA000DBCF3CF03B5002E1190E3C1828E0800EAC
:104FB0003B1802E10C0E3C181EE0400E3B1802E1CB
:104FC000060E3C1816E0200E3B1802E1030E3C18BA
:104FD0000EE0900E3B1802E1010E3C1806E0C80EF0
:104FE0003B1811E13C500FE10ED0520E09D0520E89
:104FF00003D0510E05D0510ECA6E450E07D0500E8B
:10500000CA6E8C0E03D06A0ECA6EDD0ECB6ECC6AF1
:105010009F929E929D82CA840CD19D92CA94120046
:1050200003D9020EE126FE0EDBCF00F0030163512F
:10503000D88000540CE39D9CFE0EDB04E96EEA6A06
:1050400010D9EECFDEFFEDCFDDFF9D8C02D0DE6A02
:10505000DD6ADECF00F0DDCF01F000C0F3FF01C05C
:10506000F4FFD9CFE1FFE5D0DFD8FD0EDBCF00F0B4
:10507000FE0EDBCF01F0026A036A880E3E6E130E4D
:105080003F6E406A416A00C039F001C03AF002C088
:105090003BF003C03CF0E6EC35F035C000F036C024
:1050A00001F037C002F038C003F03E6A080E3F6ED0
:1050B000406A416A35C039F036C03AF037C03BF03B
:1050C00038C03CF08CEC18F039C000F03AC001F068
:1050D0003BC002F03CC003F039C0F3FF3AC0F4FF1C
:1050E000A8D0A2D8E6529D9CF3C7DFFF9D8CDF506D
:1050F000E5529FD09D9C0701F36B9D8C1200C282EC
:10510000120092D8050EE126C450DE6EDD6AD9CFBA
:10511000E9FFDACFEAFFEE50ED6EEF6AC350DE260C
:10512000000EDD22DECF00F0DDCF01F0026A036A5F
:1051300003016D5182D80050EE260150EE2202503C
:10514000EE220350EE226D2B63516D5D04E36D6B17
:105150006B2B000E6C23020E6DC3DBFFDB50040DC6
:10516000020EF3CFDBFFDB80DB50C26E61516B5D63
:1051700062516C594AE3030EDB6A040EDB6A67D89E
:1051800001AE02D0D89003D0005C000E015820E29E
:105190003FD8030164511F0BEECF00F0EECF01F0BA
:1051A000EECF02F0EECF03F007E0D89003320232E8
:1051B00001320032E806F9E15CD853D800C0EEFFB6
:1051C00001C0EDFF030EDB2A040ED9E3DB2AD7D79B
:1051D000030EDB6A040EDB6A3AD801AE02D0D89027
:1051E00003D0005C000E01580BE212D8EE6AEE6AA2
:1051F000EE6AEE6A030EDB2A040EEEE3DB2AECD73E
:105200000701F32B03016B6B6C6BD9CFE1FF11D05E
:1052100030D8D890E936EA36D890E936EA36650EC5
:10522000E926030EEA221200D9CFE6FFE1CFD9FF2B
:105230001200E552E7CFD9FF1200040DF3CFE9FFCA
:10524000F4CFEAFF650EE926030EEA221200030EF0
:10525000DBCF00F0040EDBCF01F00301635100014E
:105260001200D890E936EA36690EE926030EEA22E2
:105270001200030EDBCFE9FF040EDBCFEAFF1200C2
:10528000D8CFE4FFE0CFE4FFE46EDACFE4FFE2CF73
:10529000DAFFE9CFE4FFEACFE4FFF3CFE4FFF4CF96
:1052A000E4FF00EE35F0140EE80403E3EECFE4FF74
:1052B000FBD700EE00F01E0EE80403E3EECFE4FFA0
:1052C000FBD7E652D9CFE6FFE1CFD9FF020EE126A8
:1052D000F250040B07E0F250200B04E0F29489EC4A
:1052E00034F0AFD09E50010B07E09D50010B04E05D
:1052F0009E908AEC34F0A5D09E50020B07E09D50A2
:10530000020B04E09E927FEC28F09BD0A150020B90
:1053100007E0A050020B04E0A1928BEC34F091D096
:10532000A450080B07E0A350080B04E0A4968CECF3
:1053300034F087D0F050020B07E0F050100B04E07F
:10534000F09293EC34F07DD0F050040B07E0F05075
:10535000200B04E0F0949BEC34F073D0F250010B7E
:1053600043E0F250080B40E08150DF6EF290DF50D6
:105370000101FF19E76E010EE7CFDBFFDFCFFFF181
:10538000DBA80AD0100EDF1402E0010E01D0000EDF
:10539000E66EA3EC34F0E552010EDBAA0AD0200E33
:1053A000DF1402E0010E01D0000EE66EA4EC34F032
:1053B000E552010EDBAC0AD0400EDF1402E0010E14
:1053C00001D0000EE66EA5EC34F0E552010EDBAE26
:1053D00038D0800EDF1402E0010E01D0000EE66E20
:1053E000A6EC34F0E5522DD09E50400B07E09D50C6
:1053F000400B04E09E9C81EC28F023D09E50200BB3
:1054000006E09D50200B03E09AEC2CF01AD0A4503B
:10541000200B06E0A350200B03E0B9EC2CF011D0D8
:105420009E50100B06E09D50100B03E0D8EC2CF0C2
:1054300008D0A450100B05E0A350100B02E0F0ECD4
:105440002CF0D9CFE1FFE552E7CFD9FFE55200EECE
:105450001DF01E0EE80403E3E5CFEDFFFBD700EEE1
:1054600048F0140EE80403E3E5CFEDFFFBD7E5CFEA
:10547000F4FFE5CFF3FFE5CFEAFFE5CFE9FFE5CFA6
:10548000DAFFE550E5CFE0FFE5CFD8FF10000101DE
:105490007F0E8B6F8A6F896F886F876F866F856FBE
:1054A000846F936F926F916F906F8F6F8E6F8D6F10
:1054B0008C6F8C928D928C908D908C968D968C9416
:1054C0008D948C9A8D9A8C988D988C9E91908C9CB2
:1054D0008D9C0101A1AD24D00101C0A1FAD7A00E7D
:1054E000E66E010EE66E44EC14F0E552E55250EC27
:1054F00005F093C1E6FF92C1E6FF91C1E6FF90C1BE
:10550000E6FF49EC33F0E552E552E552E552800EF4
:10551000E66E010EE66E5DEC14F0E552E552D9D769
:10552000120071EC28F0000904E0F3EC2FF07AECA3
:0455300028F012004D
:0C5534000201500EF16F550EF26FAC0E2C
:10554000F36F550EF46FC20EF56F570EF66F120023
:10555000D9CFE6FFE1CFD9FF03019351941122E0A7
:10556000320EE66EE66AFD0EDBCFE6FFFE0EDBCF07
:10557000E6FF3A0EE66E020EE66EADEC34F0F56E26
:10558000060EE15EF550FB0EDBCFE9FFFC0EDBCF34
:10559000EAFFEECF6CF2EDCF6DF20301916B926BEF
:1055A000936B946BE552E7CFD9FF1200D9CFE6FF9A
:1055B000E1CFD9FF0E0EE1260301935194110AE1C8
:1055C0009551971902E19651981946E0975101E1DA
:1055D000985102E0F36AEED0010E996F9A6BDE6A81
:1055E000DE6AB40EDE6E420EDD6EDD52DD52040E5A
:1055F000DB68050EDB68060EDB6E070EDB6A99C3FF
:10560000E9FF9AC3EAFF060EEA02F3CFEAFFE902D6
:10561000F3CFE9FFF450EA26D30EE926020EEA2280
:10562000EECF00F0EFCF01F0D9CFE6FFDACFE6FF03
:10563000FD0EDBCFE6FFFE0EDBCFE6FF04D001C0A0
:10564000FAFF0050F96EFBDFE552E552E552E552F4
:1056500097C395F398C396F399C3E9FF9AC3EAFFFA
:10566000060EEA02F3CFEAFFE902F3CFE9FFF450B6
:10567000EA26D30EE926020EEA22040EE926000EDF
:10568000EA22EECFE6FFEFCFE6FF99C3E9FF9AC328
:10569000EAFF060EEA02F3CFEAFFE902F3CFE9FFE1
:1056A000F450EA26D30EE926020EEA22020EE9267B
:1056B000000EEA22EECFE6FFEFCFE6FF99C3E9FF47
:1056C0009AC3EAFF060EEA02F3CFEAFFE902F3CF3C
:1056D000E9FFF450EA26D30EE926020EEA22EECFC5
:1056E000E6FFEFCFE6FF99C3E6FF9AC3E6FF810E20
:1056F000E66E610EE66E5AEC35F0F56E0A0EE15E6E
:10570000F55099C3E9FF9AC3EAFF060EEA02F3CF08
:10571000EAFFE902F3CFE9FFF450EA26D30EE926C7
:10572000020EEA22020EE926000EEA22EECF02F075
:10573000EFCF03F0FB0EDBCFE6FFFC0EDBCFE6FF87
:10574000FD0EDBCFE6FFFE0EDBCFE6FF04D003C08D
:10575000FAFF0250F96EFBDFE552E552E552E552E1
:10576000F3CF00F0F350F41023E199C3E9FF9AC39B
:10577000EAFF060EEA02F3CFEAFFE902F3CFE9FF00
:10578000F450EA26D30EE926020EEA22040EE92698
:10579000000EEA22EECF00F0EFCF01F004D001C0FE
:1057A000FAFF0050F96EFBDF0301972B000E9823E0
:1057B000010EF36EF46AD9CFE1FFE552E7CFD9FFCE
:0C57C0001200010E0301936F946B1200A5
:0457CC00150EAF6E99
:1057D000AC849D9A9D98AC98AC9E948EAB9CAB96F5
:1057E000AB8AAB889F9A9D8A0301CD69CE69949C50
:1057F000AC9CAC969F989D88AC8AAB8E1200150E1F
:105800006F6E6C84A39AA3986C986C9E98846B9C22
:105810006B966B8A6B88A59AA38A0301CD69CE69C2
:1058200098926C9C6C96A598A3886C8A6B8E1200DB
:1058300007D9E6529D9A29C3DFFF9D8ADF50E552C2
:10584000FBD0FED8E652A39A35C3DFFFA38ADF5010
:10585000E552F2D0F5D8E6520301265102E0000EDF
:1058600015D02751EA6A000FE96E010EEA22EFCF48
:10587000DFFF2907272B1F0E27179D9A2851275D29
:1058800002E1010E266F9D8A256BDF50E552D4D0D0
:10589000D7D8E6520301325102E0000E15D0335141
:1058A000EA6A400FE96E010EEA22EFCFDFFF35070B
:1058B000332B1F0E3317A39A3451335D02E1010ECF
:1058C000326FA38A316BDF50E552B6D0B9D80301ED
:1058D0002C51FDE12F51EA6A200FE96E010EEA22F8
:1058E000FE0EDBCFEFFF302B2F2B1F0E2F179D98B7
:1058F0002F512E5D02E1010E2C6F9D882D6B9CD0E7
:105900009FD803013851FDE13B51EA6A600FE96E0F
:10591000010EEA22FE0EDBCFEFFF3C2B3B2B1F0ECE
:105920003B17A3983B513A5D02E1010E386FA38803
:10593000396B82D00301255102E09D9A1200285153
:10594000EA6A000FE96E010EEA22AECFEFFFABA2CA
:1059500003D0AB98AB882A2BABB42B2B292B282B4D
:105960001F0E28172851275D02E1010E256F266BB7
:1059700012000301315102E0A39A12003451EA6A85
:10598000400FE96E010EEA226ECFEFFF6BA203D04B
:105990006B986B88362B6BB4372B352B342B1F0E43
:1059A00034173451335D02E1010E316F326B120056
:1059B00003012D5102E09D9812002E51EA6A200F3A
:1059C000E96E010EEA22EF50AD6E30072E2B1F0E4E
:1059D0002E172F512E5D02E1010E2D6F2C6B120040
:1059E0000301395102E0A39812003A51EA6A600FAC
:1059F000E96E010EEA22EF506D6E3C073A2B1F0E46
:105A00003A173B513A5D02E1010E396F386B1200D3
:105A100017D8030124510FE0240505E1FE0EDBCF6A
:105A2000E6FF54DF07D0020E245D05E1FE0EDBCF5A
:105A3000E6FF66DFE55200D0E552E7CFD9FF12005E
:0A5A4000D9CFE6FFE1CFD9FF120035
:065A4A000201660ED96F97
:105A50005A0EDA6F5C0EDB6F5B0EDC6F3A0EDD6F99
:105A60005C0EDE6F1200D9CFE6FFE1CFD9FF040E46
:105A7000E1260301B951BA116BE0320EE66EE66A17
:105A8000FD0EDBCFE6FFFE0EDBCFE6FFC10EE66EBE
:105A9000010EDFD8080EE66EE66AD4D8E9CF00F032
:105AA000EACF01F0E9CFE6FFEACFE6FFF30EE66EBC
:105AB000010ECFD80101800EDE1545E1DDC100F0F9
:105AC000DEC101F08B0E406E180E416EDDC13BF061
:105AD000DEC13CF066EC18F037C0DEFF38C0DDFFF9
:105AE000DECF00F0DDCF01F00001800E011408E0F0
:105AF000D9CFE9FFDACFEAFF8B0EEE26180EED22A2
:105B00000101F751DE5C006EF851DD58016E020EA6
:105B100000C0DBFF030E01C0DBFF020EDBCF00F095
:105B2000030EDBCF01F0FD0EDBCFE9FFFE0EDBCF76
:105B3000EAFF1C0EE926000EEA220050EE5CF76F29
:105B40000150EE58F86F0301B76BB86BB96BBA6BC5
:105B5000D9CFE1FFE552E7CFD9FF1200D9CFE6FF59
:105B6000E1CFD9FF0301B951BA115EE1F40EE66E3F
:105B7000010EE66EF9C1E6FFFAC1E6FFB7C3E6FF24
:105B8000B8C3E6FFE8EC1BF0F56E060EE15EF550DB
:105B900039C004F03AC005F03BC006F03CC007F045
:105BA00039C03FF03AC040F03BC041F03CC042F049
:105BB000F3C13AF0F4C13BF0F5C13CF0F6C13DF061
:105BC000F9EC17F03AC000F03BC001F03CC002F025
:105BD0003DC003F037D80C0EE926000EEA223AC089
:105BE000EEFF47D82FD8080EE926000EEA2200C0A3
:105BF000EEFF3FD81A0E0301B727000EB823B851A5
:105C00000101FA19E8AE02D0FA3507D0F9510301C3
:105C1000B75D0101FA510301B85908E313D80C0E1E
:105C200020D810D8080E1DD8F36A02D0010EF36EEA
:105C3000F46AE552E7CFD9FF1200010E0301B96FF4
:105C4000BA6B1200FB0EDBCFE9FFFC0EDBCFEAFFE5
:105C50001200E66EADEC34F0F56E060EE15EF55026
:105C60001200E926000EEA22EE6AEE6AEE6AEE6A99
:105C7000120001C0EEFF02C0EEFF03C0EEFF1200F3
:105C800002019C0EF76F5C0EF86F000EF96F5D0E4F
:105C9000FA6FDE0EFB6F5D0EFC6F1200D9CFE6FFD0
:105CA000E1CFD9FF040EE1260301C151C21122E068
:105CB000320EE66EE66AFD0EDBCFE6FFFE0EDBCFB0
:105CC000E6FF000EE66E020EC7D8080EE66EE66A24
:105CD000D8D8E9CF00F0EACF01F0E9CFE6FFEACF6C
:105CE000E6FF320EE66E020EB7D80301BF6BC06B43
:105CF000C16BC26BD9CFE1FFE552E7CFD9FF1200EC
:105D0000D9CFE6FFE1CFD9FF0301C151C2115EE156
:105D1000F40EE66E010EE66E38C2E6FF39C2E6FF0B
:105D2000BFC3E6FFC0C3E6FFE8EC1BF0F56E060E4E
:105D3000E15EF55039C004F03AC005F03BC006F012
:105D40003CC007F039C03FF03AC040F03BC041F0E2
:105D50003CC042F032C23AF033C23BF034C23CF0B5
:105D600035C23DF0F9EC17F097D80C0E91D83AC037
:105D7000EEFF80D886D8080E8BD800C0EEFF7AD808
:105D800033D80C0E4ED810EC17F05DD82DD8080E75
:105D900048D80FEC17F057D81A0E0301BF27000E92
:105DA000C023C05102013919E8AE02D0393507D0FD
:105DB00038510301BF5D020139510301C05908E3A5
:105DC00060D80C0E51D85DD8080E4ED8F36A02D0B8
:105DD000010EF36EF46AE552E7CFD9FF1200010E0F
:105DE0000301C16FC26B1200FD0EDBCFE9FFFE0E97
:105DF000DBCFEAFF1A0E4CD8EECF04F0EFCF05F060
:105E00000A0E406E416A04C03BF005C03CF066ECEF
:105E100018F03BC004F03CC005F0E1EC16F04CEF8C
:105E20002FF036D8EECF3AF0EECF3BF0EECF3CF08D
:105E3000EFCF3DF000C03FF001C040F002C041F0A4
:105E400003C042F012003DC0EDFF3CC0EDFF3BC07F
:105E5000EDFF3AC0EFFF1200E66EADEC34F0F56EE8
:105E6000060EE15EF550120013D8EE6AEE6AEE6A95
:105E7000EE6A120001C0EEFF02C0EEFF03C0EEFFAB
:105E80001200FB0EDBCFE9FFFC0EDBCFEAFF1200B6
:105E9000E926000EEA2212003AC000F03BC001F0F1
:0C5EA0003CC002F03DC003F041EF2FF0C9
:045EAC000301546B2F
:105EB000556B566B576B5E6B120052C339F053C370
:105EC0003AF03B6A3C6A3AAE02D03B683C68F7D88D
:105ED000080E3F6E406A416A8CEC18F039C000F041
:105EE0003AC001F0E80E0102F3CF01F0030E000208
:105EF000F3500126E80E0002F3CF00F0F450012623
:105F0000E80E406E030E416EF3CF3BF001C03CF053
:105F100066EC18F03BC0F3FF3CC0F4FF120054C322
:105F200039F055C33AF056C33BF057C33CF0C7D8DD
:105F3000900E3F6E010E406E416A8CEC18F0E80E38
:105F40003E6E030E3F6EAED8E80E3E6E030E3F6E01
:105F5000406A416A8CEF18F003015E5108E1586B0A
:105F6000596B5A6B5B6B5C6B5D6B010E5E6F120065
:105F700003015E051EE15CC300F05DC301F0026A2F
:105F8000036A58C339F059C33AF05AC33BF05BC3B4
:105F90003CF05CC33EF05DC33FF002C040F003C084
:105FA00041F0B4EC36F039C050F33AC051F303017C
:105FB0005E6B120050C3F3FF51C3F4FF1200D9CF40
:105FC000E6FFE1CFD9FFFD0EDBCF50F3FE0EDBCFB6
:105FD00051F3E552E7CFD9FF12000301546B556B23
:105FE000566B576B1200D9CFE6FFE1CFD9FF020EF7
:105FF000E12603015E0512E1010EE66E10EC28F0C9
:10600000E552F350030158270001F45003015923CE
:10601000000E5A235B235C2B5D233ED0010EE66EFF
:1060200010EC28F0E55203015051F35C006E515121
:10603000F45800C0DEFFDD6EDECF00F0DDCF01F0F2
:10604000D880015004E7F80E005CFF0E01580BE306
:10605000DECF02F0DDCF03F003341CE2025008086B
:10606000000E035417E2DECF52F3DDCF53F3DECF41
:1060700000F0DDCF01F0026A036A01AE02D00268CF
:1060800003680050542701505523025056230350F3
:10609000572302D0526B536BD9CFE1FFE552E7CFC4
:1060A000D9FF1200406A416AE6EC35F035C039F09C
:1060B00036C03AF037C03BF038C03CF01200740EE6
:1060C0003E6E050E3F6EEEDF050E3E6E3F6AEADF66
:0460D0003E6A120012
:0C60D4005374617274696E670D0A006CF1
:1060E0006566743A202564092072696768743A20ED
:1060F00025640A0076313A202564092076323A2058
:1061000025640A00446F6E650D000D43616C637574
:106110006C6174696E67204779726F2042696173A0
:106120002E2E2E0025733230303720526F626F745E
:10613000202D2D20546F6D202D2D20526561647906
:1061400020746F20726F6C6C21200A004779726F87
:10615000202B20456E636F646572730D00436F756D
:106160006E74207A65726F0D00496C6C6567616CA6
:1061700020736964650D006D732030207774660D9F
:10618000007472616A232025642073746172742024
:1061900025782072756E2025782073746F70202505
:1061A000780D00436F6E666964656E6365202850E4
:1061B0006978656C732920203D2025750D0A002023
:1061C000426C6F622053697A652028506978656C4B
:1061D000732920203D2025750D0A0054696C742018
:1061E0004572726F722028506978656C732920207F
:1061F0003D2025640D0A002050616E204572726FAB
:10620000722028506978656C732920203D20256410
:106210000D0A0054696C7420416E676C6520286417
:1062200065677265657329203D2025640D0A00208D
:1062300050616E20416E676C6520286465677265E9
:10624000657329203D2025640D0A000D0A00536561
:1062500061726368696E672E2E2E0D0A0055736990
:106260006E67207669727475616C2077696E646FF1
:0E627000770D0A00476F742061636B0D0A0002
:02627E009EA8D8
