:020000040000FA
:06080000CDEF36F01200FE
:020806000000F0
:0608080046EF27F012008C
:02080E00C250D6
:08081000020B01E0010E1200D1
:06081800B6EF33F0120000
:02081E000A00CE
:100820005B6E0000EF0200000A000000596E00003D
:100830001A03000002000000546E000000030000D4
:1008400005000000506E00000D03000004000000D1
:10085000376E0000A802000019000000356E00008D
:100860001803000002000000316E000009030000C0
:10087000040000002B6E0000F902000006000000DA
:10088000060800001603000002000000286E0000A9
:08089000110300000300000049
:08089800D9CFE6FFE1CFD9FF43
:1008A000060EE12603011751090A01E14FD3010A9F
:1008B00001E114D30F0A01E1EAD2010A01E147D2B2
:1008C000030A01E130D2010A01E17FD0070A62E0A8
:1008D000010A2EE0030A27E0010A01E04FD3010ECE
:1008E000166F0101FF6BFF512B6E2C6A150E2B5CEE
:1008F000000E2C5814E2FF51EA6AC10FE96E020E95
:10090000EA22010EEFCFDBFFFF51EA6AE00FE96E4A
:10091000010EEA22010EDBCFEFFFFF2BE4D703012C
:10092000010E176F2BD339DB0301020E176F26D38D
:10093000A2EC1FF0DF6E610EDF5C0EE3DF50720889
:100940000BE30301030E176FDFCFFDF1610EDF5CD8
:10095000020F0101FC6F1DD0750EDF5C06E1D2ECC9
:1009600009F00301060E176F14D0760EDF5C04E168
:100970000301070E176F0DD0770EDF5C04E1030152
:10098000080E176F06D0780EDF5C03E10301176BCA
:10099000166BF4D20101FB6BA2EC1FF0000901E021
:1009A000FBD73A0E2B6E370E2C6E2D6A2BC0E6FF4E
:1009B0002CC0E6FF2DC0E6FFBAEC34F0E552E5525C
:1009C000E5520301040E176FD9D2A2EC1FF0DF6EBF
:1009D000300EDF5C03E3DF50390806E22B0EDF5CEC
:1009E00003E02D0EDF5C19E10101FB512B6E2C6A37
:1009F000060E2B5C000E2C5810E2DFCFE6FFA6ECB3
:100A00001FF0E5520101FB51EA6AF50FE96E010E94
:100A1000EA22DFCFEFFFFB2B85D10D0EDF5C01E07B
:100A200081D12D0E0101F55D22E1040EDB68050E7A
:100A3000DB68FB07FF6BFF512B6E2C6A060E2B5CED
:100A4000000E2C5813E2FF29EA6AF50FE96E010E39
:100A5000EA22EF50E66EFF51EA6AF50FE96E010EE9
:100A6000EA22E552E750EF6EFF2BE5D72FD02B0E91
:100A7000F55D25E1010EF36E040EF3CFDBFF050EED
:100A8000DB6AFB07FF6BFF512B6E2C6A060E2B5C9B
:100A9000000E2C5813E2FF29EA6AF50FE96E010EE9
:100AA000EA22EF50E66EFF51EA6AF50FE96E010E99
:100AB000EA22E552E750EF6EFF2BE5D707D0010E93
:100AC000F36E040EF3CFDBFF050EDB6AFB51030868
:100AD00008E2020EDB6A010EF36E030EF3CFDBFFBA
:100AE000CCD0030EFB5D56E1300EF55D2B6E2C6A0B
:100AF000640E1D6E1E6A2BC022F02CC023F0F8EC91
:100B00002BF0020E1BC0DBFF030E1CC0DBFF300E00
:100B10000101F65D2D6E2E6A0A0E1D6E1E6A2DC035
:100B200022F02EC023F0F8EC2BF01BC02BF01CC0E1
:100B30002CF0D950020FE96EDACFEAFF2B50EE26E7
:100B40002C50ED22300E0101F75D2B6E2C6AD9502E
:100B5000020FE96EDACFEAFF2B50EE262C50ED2281
:100B6000040EDBCF2BF0050EDBCF2CF0D950020F9B
:100B7000E96EDACFEAFF2BC022F02CC023F0EECFD3
:100B80001DF0EDCF1EF0F8EC2BF01BC0EEFF1CC0EB
:100B9000EDFF73D0020EFB5D35E1300EF55D0A0D01
:100BA000F350E66ED950020FE96EDACFEAFFE55254
:100BB000E750EE6EED6A300EF65D2B6E2C6AD95062
:100BC000020FE96EDACFEAFF2B50EE262C50ED2211
:100BD000040EDBCF2BF0050EDBCF2CF0D950020F2B
:100BE000E96EDACFEAFF2BC022F02CC023F0EECF63
:100BF0001DF0EDCF1EF0F8EC2BF01BC0EEFF1CC07B
:100C0000EDFF3BD0FB0526E1300EF55DE66ED950D9
:100C1000020FE96EDACFEAFFE552E750EE6EED6AB9
:100C2000040EDBCF2BF0050EDBCF2CF0D950020FDA
:100C3000E96EDACFEAFF2BC022F02CC023F0EECF12
:100C40001DF0EDCF1EF0F8EC2BF01BC0EEFF1CC02A
:100C5000EDFF13D0FB5111E1FC51EA6AE00FE96EA0
:100C6000010EEA22EF50E66ED950020FE96EDACF9C
:100C7000EAFFE552E750EE6EED6A660E0101FD5D9A
:100C800003E06E0EFD5D26E1D950020FE96EDACF6A
:100C9000EAFF010EEE1801E1ED500BE0D950020F12
:100CA000E96EDACFEAFFFF0EEE1802E1FF0EED1853
:100CB0000DE1FC51EA6AE00FE96E010EEA22020E34
:100CC000DBCFEFFF0301010E176F03D00301050E09
:100CD000176F28D0020EDBCF2BF0030EDBCF2CF0EA
:100CE0000001800E2C141BE1020EDBCF2DF0030E51
:100CF000DBCF2EF02E3404E22D50FF08000E2E54D0
:100D00000EE30101FC51EA6AE00FE96E010EEA22EE
:100D1000020EDBCFEFFF0301010E176F03D00301BB
:100D2000050E176F2BD11A0E2B6E370E2C6E2D6AF7
:100D30002BC0E6FF2CC0E6FF2DC0E6FFBAEC34F076
:100D4000E552E552E5520301030E176F17D1A2ECED
:100D50001FF0DF6E610EDF5C02E102014B07620EE5
:100D6000DF5C04E10A0E02014B5F90D0630EDF5C92
:100D700003E102014B2B8AD0640EDF5C04E10A0E12
:100D800002014B2783D0650EDF5C03E14BC2E2F129
:100D90007DD0660EDF5C03E14BC2E3F177D0670ED6
:100DA000DF5C03E14BC2E4F171D0680EDF5C03E16C
:100DB00002014C2B6BD0690EDF5C04E10A0E0201CC
:100DC0004C2764D06A0EDF5C03E102014C075ED061
:100DD0006B0EDF5C04E10A0E02014C5F57D06C0E13
:100DE000DF5C03E14CC2EAF151D06D0EDF5C03E140
:100DF0004CC2EBF14BD06E0EDF5C03E14CC2ECF168
:100E000045D06F0EDF5C3CE1170E2B6E370E2C6E5B
:100E10002D6A2BC0E6FF2CC0E6FF2DC0E6FFBAEC22
:100E200034F0E552E552E55202014B51E66EE66AB6
:100E30000C0E2B6E370E2C6E2D6A2BC0E6FF2CC0CD
:100E4000E6FF2DC0E6FFBAEC34F0F56E050EE15E6C
:100E5000F55002014C51E66EE66A020E2B6E370E1B
:100E60002C6E2D6A2BC0E6FF2CC0E6FF2DC0E6FFDE
:100E7000BAEC34F0F56E050EE15EF55093DA06D06B
:100E8000700EDF5C03E10301010E176F77D00101E3
:100E9000E26B7C0EE36FF80EE46F030EE56F060E57
:100EA000E66FE7693E0EE86F4F0EE96F5E0EEA6F80
:100EB000900EEB6FC20EEC6F080EED6F060EEE6F2C
:100EC000010EEF6F320EF06F770EF16F060EF26FBC
:100ED000140EF36F0301010E176F50D00101FF6B69
:100EE000FF512B6E2C6A150E2B5C000E2C5814E251
:100EF000FF51EA6AE00FE96E010EEA22010EEFCF20
:100F0000DBFFFF51EA6AC10FE96E020EEA22010E11
:100F1000DBCFEFFFFF2BE4D7200EE66EE66A73DB34
:100F2000E552E552EC0E2B6E360E2C6E2D6A2BC060
:100F3000E6FF2CC0E6FF2DC0E6FFBAEC34F0E55228
:100F4000E552E5520301090E176F18D0B0EC33F0EB
:100F5000200813E1E50E2B6E360E2C6E2D6A2BC089
:100F6000E6FF2CC0E6FF2DC0E6FFBAEC34F0E552F8
:100F7000E552E5520301010E176F00D0030116512F
:100F8000F56E060EE15C03E200D0E16AE552E16E27
:100F9000F550E552E7CFD9FF1200170E2B6E370E32
:100FA0002C6E2D6A2BC0E6FF2CC0E6FF2DC0E6FF9D
:100FB000BAEC34F0E552E552E552170E2B6E370EBF
:100FC0002C6E2D6A2BC0E6FF2CC0E6FF2DC0E6FF7D
:100FD000BAEC34F0E552E552E5520101E251E66E19
:100FE000E66AC70E2B6E360E2C6E2D6A2BC0E6FFFE
:100FF0002CC0E6FF2DC0E6FFBAEC34F0F56E050E0E
:10100000E15EF5500101E351E66EE66AA60E2B6E35
:10101000360E2C6E2D6A2BC0E6FF2CC0E6FF2DC0CD
:10102000E6FFBAEC34F0F56E050EE15EF550010115
:10103000E451E66EE66A880E2B6E360E2C6E2D6A33
:101040002BC0E6FF2CC0E6FF2DC0E6FFBAEC34F063
:10105000F56E050EE15EF5500101E551E66EE66ABA
:101060006D0E2B6E360E2C6E2D6A2BC0E6FF2CC03B
:10107000E6FF2DC0E6FFBAEC34F0F56E050EE15E3A
:10108000F5500101E651E66EE66A470E2B6E360E0C
:101090002C6E2D6A2BC0E6FF2CC0E6FF2DC0E6FFAC
:1010A000BAEC34F0F56E050EE15EF550E7C12BF0B9
:1010B0002C6A2BBE2C682BC0E6FF2CC0E6FF220E4C
:1010C0002D6E360E2E6E2F6A2DC0E6FF2EC0E6FF67
:1010D0002FC0E6FFBAEC34F0F56E050EE15EF55078
:1010E0000101E851E66EE66AFB0E2B6E350E2C6EA2
:1010F0002D6A2BC0E6FF2CC0E6FF2DC0E6FFBAEC40
:1011000034F0F56E050EE15EF5500101E951E66E31
:10111000E66AD80E2B6E350E2C6E2D6A2BC0E6FFBC
:101120002CC0E6FF2DC0E6FFBAEC34F0F56E050EDC
:10113000E15EF5500101EA51E66EE66AB90E2B6EEA
:10114000350E2C6E2D6A2BC0E6FF2CC0E6FF2DC09D
:10115000E6FFBAEC34F0F56E050EE15EF5500101E4
:10116000EB51E66EE66A970E2B6E350E2C6E2D6AED
:101170002BC0E6FF2CC0E6FF2DC0E6FFBAEC34F032
:10118000F56E050EE15EF5500101EC51E66EE66A82
:10119000780E2B6E350E2C6E2D6A2BC0E6FF2CC000
:1011A000E6FF2DC0E6FFBAEC34F0F56E050EE15E09
:1011B000F5500101ED51E66EE66A5C0E2B6E350EC0
:1011C0002C6E2D6A2BC0E6FF2CC0E6FF2DC0E6FF7B
:1011D000BAEC34F0F56E050EE15EF5500101EE510A
:1011E000E66EE66A350E2B6E350E2C6E2D6A2BC020
:1011F000E6FF2CC0E6FF2DC0E6FFBAEC34F0F56E3A
:10120000050EE15EF550EFC12BF02C6A2BBE2C6869
:101210002BC0E6FF2CC0E6FF0F0E2D6E350E2E6E96
:101220002F6A2DC0E6FF2EC0E6FF2FC0E6FFBAEC06
:1012300034F0F56E050EE15EF5500101F051E66EF9
:10124000E66AE70E2B6E340E2C6E2D6A2BC0E6FF7D
:101250002CC0E6FF2DC0E6FFBAEC34F0F56E050EAB
:10126000E15EF5500101F151E66EE66AC30E2B6EA8
:10127000340E2C6E2D6A2BC0E6FF2CC0E6FF2DC06D
:10128000E6FFBAEC34F0F56E050EE15EF5500101B3
:10129000F251E66EE66AA40E2B6E340E2C6E2D6AA9
:1012A0002BC0E6FF2CC0E6FF2DC0E6FFBAEC34F001
:1012B000F56E050EE15EF5500101F351E66EE66A4A
:1012C0007D0E2B6E340E2C6E2D6A2BC0E6FF2CC0CB
:1012D000E6FF2DC0E6FFBAEC34F0F56E050EE15ED8
:1012E000F550170E2B6E370E2C6E2D6A2BC0E6FFB5
:1012F0002CC0E6FF2DC0E6FFBAEC34F0E552E55213
:10130000E552570E2B6E340E2C6E2D6A2BC0E6FF65
:101310002CC0E6FF2DC0E6FFBAEC34F0E552E552F2
:10132000E5523D0E2B6E340E2C6E2D6A2BC0E6FF5F
:101330002CC0E6FF2DC0E6FFBAEC34F0E552E552D2
:10134000E5522A0E2B6E340E2C6E2D6A2BC0E6FF52
:101350002CC0E6FF2DC0E6FFBAEC34F0E552E552B2
:10136000E5521F0E2B6E340E2C6E2D6A2BC0E6FF3D
:101370002CC0E6FF2DC0E6FFBAEC34F0E552E55292
:10138000E552170E2B6E370E2C6E2D6A2BC0E6FF22
:101390002CC0E6FF2DC0E6FFBAEC34F0E552E55272
:1013A000E5521200170E2B6E370E2C6E2D6A2BC0D5
:1013B000E6FF2CC0E6FF2DC0E6FFBAEC34F0E552A4
:1013C000E552E552170E2B6E370E2C6E2D6A2BC090
:1013D000E6FF2CC0E6FF2DC0E6FFBAEC34F0E55284
:1013E000E552E552070E2B6E340E2C6E2D6A2BC083
:1013F000E6FF2CC0E6FF2DC0E6FFBAEC34F0E55264
:10140000E552E552EE0E2B6E330E2C6E2D6A2BC07C
:10141000E6FF2CC0E6FF2DC0E6FFBAEC34F0E55243
:10142000E552E552D50E2B6E330E2C6E2D6A2BC075
:10143000E6FF2CC0E6FF2DC0E6FFBAEC34F0E55223
:10144000E552E552BB0E2B6E330E2C6E2D6A2BC06F
:10145000E6FF2CC0E6FF2DC0E6FFBAEC34F0E55203
:10146000E552E5529F0E2B6E330E2C6E2D6A2BC06B
:10147000E6FF2CC0E6FF2DC0E6FFBAEC34F0E552E3
:10148000E552E552800E2B6E330E2C6E2D6A2BC06A
:10149000E6FF2CC0E6FF2DC0E6FFBAEC34F0E552C3
:1014A000E552E552640E2B6E330E2C6E2D6A2BC066
:1014B000E6FF2CC0E6FF2DC0E6FFBAEC34F0E552A3
:1014C000E552E5524D0E2B6E330E2C6E2D6A2BC05D
:1014D000E6FF2CC0E6FF2DC0E6FFBAEC34F0E55283
:1014E000E552E552350E2B6E330E2C6E2D6A2BC055
:1014F000E6FF2CC0E6FF2DC0E6FFBAEC34F0E55263
:10150000E552E5521C0E2B6E330E2C6E2D6A2BC04D
:10151000E6FF2CC0E6FF2DC0E6FFBAEC34F0E55242
:10152000E552E552020E2B6E330E2C6E2D6A2BC047
:10153000E6FF2CC0E6FF2DC0E6FFBAEC34F0E55222
:10154000E552E552E50E2B6E320E2C6E2D6A2BC045
:10155000E6FF2CC0E6FF2DC0E6FFBAEC34F0E55202
:10156000E552E552C50E2B6E320E2C6E2D6A2BC045
:10157000E6FF2CC0E6FF2DC0E6FFBAEC34F0E552E2
:10158000E552E552A80E2B6E320E2C6E2D6A2BC042
:10159000E6FF2CC0E6FF2DC0E6FFBAEC34F0E552C2
:1015A000E552E552870E2B6E320E2C6E2D6A2BC043
:1015B000E6FF2CC0E6FF2DC0E6FFBAEC34F0E552A2
:1015C000E552E552640E2B6E320E2C6E2D6A2BC046
:1015D000E6FF2CC0E6FF2DC0E6FFBAEC34F0E55282
:1015E000E552E552170E2B6E370E2C6E2D6A2BC06E
:1015F000E6FF2CC0E6FF2DC0E6FFBAEC34F0E55262
:10160000E552E5521200D9CFE6FFE1CFD9FF050E32
:10161000E126030EDB6A040EDB6A0201470EC16F8E
:101620004B0EC26FDE6ADD6ADECF2BF0DDCF2CF011
:10163000140E2B5C000E2C5834E2DECFE9FFDDCF18
:10164000EAFFC10EE926020EEA22020EEFCFDBFF0F
:10165000DBCFE6FFFD0EDBCF2DF0FE0EDBCF2EF055
:10166000DE502D242B6EDD502E202C6E2BC0E6FF7D
:101670002CC0E6FF09EC33F0E552E552E552020ECC
:10168000DB502B6E2C6AD950030FE96EDACFEAFFDC
:101690002B50EE262C50ED22DF2A010E01E3DB2A2F
:1016A000C3D7030EDBCFE6FF150EE76EFD0EDBCFD3
:1016B0002BF0FE0EDBCF2CF0E7502B26000E2C2259
:1016C0002B062C5A2BC0E6FF2CC0E6FF09EC33F0AA
:1016D000E552E552E552F56E050EE15C02E2E16A83
:0E16E000E552E16EF550E552E7CFD9FF12005A
:0216EE00B5EC59
:1016F00010F0FB0EDBCFF3FFDB06F35000090AE02E
:1017000003EC11F0FA0E6EEC11F0F3E12C1CF1E198
:10171000010E01D0000EE4EF10F0B5EC10F03B0E1E
:10172000E12402E3E168E652E16E010EDB6A020E9B
:10173000DB6AF90EDBCFF6FFFA0EDBCFF7FFFB0E0D
:10174000DBCFF8FF0800F550DF6EDF5002E106EF57
:1017500010F0250EDF5C02E0F9EF0FF0030EDB6AFC
:10176000040EDB6A050EDB6A060EDB6A070EDB6A17
:101770001DEC10F02D0EDF5C0CE02B0EDF5C09E0A1
:10178000200EDF5C06E0230EDF5C03E0300EDF5C42
:101790001AE1DF50300A14E0130A0FE0030A0AE0EE
:1017A0000B0A05E0060AE4E1030EDB80E1D7030E35
:1017B000DB82DED7030EDB84DBD7030EDB86D8D7D4
:1017C000030EDB88D5D72A0EDF5C1BE119EC10F085
:1017D00067EC10F010E0030EDB801D681E68130E2E
:1017E000DBCF22F0140EDBCF23F0CBEC2BF0040E7A
:1017F0001BC0DBFF03D0130E50EC10F01DEC10F0FB
:101800000BD0090EDB6ABEEC10F003E032EC11F0F5
:10181000FAD7090E50EC10F0030EDBB0DB982E0E59
:10182000DF5C1BE11DEC10F02A0EDF5C0BE119EC14
:1018300010F067EC10F003E1130EA2EC10F01DECB9
:1018400010F00BD0090EDB6ABEEC10F003E032ECB6
:1018500011F0FAD7090EA2EC10F0680EDF5C07E178
:101860001DEC10F0680EDF5C1DE1030E18D0740E45
:10187000DF5C17E07A0EDF5C14E0480EDF5C06E008
:10188000540EDF5C03E05A0EDF5C02E1020E07D06B
:101890006C0EDF5C03E06A0EDF5C04E1010EF5EC28
:1018A00010F0CBDBDF506E0A01E17FD31E0A01E1AD
:1018B00092D1200A01E18FD13F0A01E149D11A0AF0
:1018C00001E146D10D0A01E143D1200A01E140D1F5
:1018D0003A0A01E13DD1200A01E13AD1260A01E1AB
:1018E00035D10D0A01E132D11A0A01E1D9D0200A1D
:1018F0004AE0300A1FE0460A0EE0250A01E083D3E1
:10190000D950F90FE96EFF0EDA20EA6E010EEE5E95
:10191000000EEE5AEE5A03EC11F0250EE66E97DB40
:1019200003E12C1C01E169D3FFEC10F001E26BD361
:10193000DB2A69D3080EDB6A040EDB50010806E2DD
:10194000040EDB04C7EC10F0DB508DDB080EDB501F
:1019500009E0030EDB50010B05E174DB01E04DD320
:10196000080EDB6A66DBEFCFDFFF77EC11F003E1F7
:101970002C1C01E142D3FFEC10F001E3DB2A62DB17
:1019800001E141D33AD3070EDB5002080FE143ECEB
:1019900011F0030E0AEC11F00E0EEECFDBFF0F0E6E
:1019A000EECFDBFF100EEECFDBFF20D0F70EDBCF4C
:1019B0002EF0F80EDBCF2FF0020E2E5E000E2F5A07
:1019C000F70E2EC0DBFFF80E2FC0DBFF2EC0E9FFA5
:1019D0002FC0EAFFFAEC10F02D6A0E0E2BC0DBFFD1
:1019E0000F0E2CC0DBFF100E2DC0DBFF0E0EDBCF69
:1019F000E6FF0F0EDBCFE6FF100EDBCFE6FFC4ECF9
:101A000035F0E552E552E552130E1CC0DBFF140E13
:101A10001DC0DBFF060EDB5005E0130E3EEC11F09F
:101A200001E26CDB62EC11F002E2130E39DB25EC13
:101A300011F006E0040E3EEC11F002E2050E30DB80
:101A4000030EDBB005D0FEDA01E0D7D2080EDB6A68
:101A5000090EDB6A0E0EDBCFF6FF0F0EDBCFF7FFB2
:101A6000100EDBCFF8FF0800F550DF6EDF5014E0FA
:101A700068EC11F011E277EC11F003E12C1C01E1AC
:101A8000BCD2BDDB01E3DB2A090EDB2AD9500E0FE5
:101A9000E96E000ECDDBE7D7D5DA01E1B4D2ADD2E5
:101AA000C8DA110EEECFDBFF120EEDCFDBFF110E09
:101AB000DBCFE6FF120EDBCFE6FFB6EC35F0E552EA
:101AC000E552130EF3CFDBFF140EF4CFDBFF060E4F
:101AD000DB5004E0130ED2DB01E210DB62EC11F00C
:101AE00002E2130EDDDAB1DB05E0040EC7DB02E231
:101AF000050ED6DA030EDBB005D0A4DA01E07DD204
:101B0000080EDB6A090EDB6A110EDBCFE9FF120E4D
:101B1000DBCFEAFFEFCFDFFFDF5014E0D9DB12E2CB
:101B2000E6DB03E12C1C01E168D269DB01E3DB2A7F
:101B3000090EDB2A110EDB2ADBCFE9FF120EE8E3E8
:101B4000DB2AE6D77FDA01E15ED257D2030EDB8EC5
:101B5000070EDB0410E197DB040E5CDB0A0EEECF10
:101B6000DBFF0B0EEECFDBFF0C0EEECFDBFF0D0E1F
:101B7000EECFDBFF6CD0070EDB5003082CE1030E29
:101B8000DBAE0DD0B4DA020E78DAEFCF2BF02C6A90
:101B90002D6A2E6A2BAE39D02C682D6835D0F70E01
:101BA000DBCF2CF0F80EDBCF2DF0020E2C5E000EFA
:101BB0002D5AF70E2CC0DBFFF80E2DC0DBFF2CC01A
:101BC000E9FF2DC0EAFFEFCF2BF00A0E2BC0DBFFA1
:101BD0000B0EDB6A38D0070EDB50020809E1030E5A
:101BE000DBAE04D05BDB2DAE10D00ED057DB0DD0BA
:101BF000030EDBAE12D07BDA020E3FDAFBDA2D6A7F
:101C00002E6A2CAE02D02D682E68E4DA0C0E2DC0A0
:101C1000DBFF0D0E2EC0DBFF1AD0F70EDBCF2DF051
:101C2000F80EDBCF2EF0020E2D5E000E2E5AF70EB0
:101C30002DC0DBFFF80E2EC0DBFF2DC0E9FF2EC04C
:101C4000EAFFD8DAC7DA0C0EDB6A0D0EDB6A060E85
:101C5000DB5005E1010EF36E050EF3CFDBFF150E31
:101C6000DB6A160EDB6AD950370F2B6E000EDA20B6
:101C70002C6E390E2BC0DBFF3A0E2CC0DBFF380E6A
:101C8000DB6A080EDB6A0A0EB0DADF50780A12E06F
:101C9000200A10E0280A0CE0200A0AE03F0A06E0C9
:101CA0000D0A02E0200A08E1020E05D0080E03D05A
:101CB000080EDF26100E99DA030EDBBE02D0DB928F
:101CC000DB94DB50800B24E08CDAD890030EEB50D1
:101CD000000A08E6000EEE5C000EEE58000EEE580C
:101CE000000EEE5815E215DA206821682268236894
:101CF0004AEC35F00A0E17C0DBFF0B0E18C0DBFFF5
:101D00000C0E19C0DBFF0D0E1AC0DBFF2D0E08D024
:101D1000030EDBA202D02B0E03D0DBA408D0200ED2
:101D2000F36E170EF3CFDBFF150EDB2A02D0170E72
:101D3000DB6A050EDB5003E1B9D901E189D00C0E55
:101D40002B6E6E0E2C6E000E2D6E070EDBCF2EF05E
:101D50002F6A306A316A2EC020F02FC021F030C0C7
:101D600022F031C023F0D5D94EEC36F02B50172499
:101D7000F36E2C501820F46E2D501920F86EF4CF0D
:101D8000F7FFF3CFF6FF0800090EF5CFDBFF580E83
:101D9000DF5C0FE1610EF36E090E7DD90AE3200EC0
:101DA0002B6E090EDBCFE7FF2B50E75E090EE7CF66
:101DB000DBFF070EDBCF2BF02C6A2D6A2E6A11DABF
:101DC0002BC020F02CC021F02DC022F02EC023F01B
:101DD000EECF1BF0EECF1CF0EECF1DF0EFCF1EF0DC
:101DE0004EEC36F01EC0EDFF1DC0EDFF1CC0EDFF38
:101DF0001BC0EFFF390EDBCFE9FFDB063A0EDBCF6E
:101E0000EAFF01E2DB06090EDBCFEFFF150EDB2A4E
:101E10004DD995E1030EDBA61DD06F0EDF5C06E108
:101E2000C3D918E3150EDB285DDA14D0780EDF5C19
:101E300009E0580EDF5C06E0620EDF5C03E0420E54
:101E4000DF5C08E1020EF36E160EF3CFDBFF02D06B
:101E5000150EDB6A030EDB50100B0EE0040EDBCF19
:101E60002BF0050EDB50D8802B5406E2060EDB501B
:101E700003E1040EDB5036DA97D90AE2050EDBCF18
:101E8000E7FF150EDB50E75E050EE7CFDBFF02D064
:101E9000050EDB6A040EDBCF2BF0160E47D9D88077
:101EA0002B5414E2160EDBCFE6FF150EDBCFE6FF58
:101EB000040EDBCFE6FF050EDB50E552E75CE55292
:101EC000D880E754E552D880E75461D9030EDB503F
:101ED000010B0BE1080EDB5008E0B4D801E08DD017
:101EE000080EDB50C0D8080EDB6A170EDB5007E087
:101EF0008AD9170EF3D903E12C1C01E17ED0160E0E
:101F0000DB5016E080D9300EE66EA1D802E12C1C21
:101F100074E079D9DFCFE6FF08EC35F0E552E55201
:101F2000E552F4CF2CF00001F31C02E12C1C65E01B
:101F3000050EDBCF2BF0160EDB50D8802B5409E2B8
:101F4000050EDBCFE7FF160EDB50E75E050EE7CF91
:101F5000DBFF300EE66E050ECDD94FE1390EDB2AE0
:101F6000DBCFE9FF3A0E01E3DB2ADBCFEAFF090E04
:101F7000EFCFDBFFDB500EE046D9090EAFD902E10F
:101F80002C1C3BE0390EDB2ADBCFE9FF3A0EEDE3F8
:101F9000DB2AEBD757D831E1160EDBCFE6FF080E70
:101FA000C5D8E552E7245FD82ED0070EDB50030AD0
:101FB0001CE0010A14E0030A07E07DD9DBCFEEFF45
:101FC000020EDBCFEDFF1FD0F7D8306A2EAE02D065
:101FD0002F6830682ED8BED830C0EEFF14D0ECD8B1
:101FE0002EBE2F6826D8B6D80ED065D9DBCFEFFF2E
:101FF0000AD07DD905E12C1C03E1F368F46810D008
:10200000FED801E3DB2A7BD9A2EF0BF0010EDBCF78
:102010002BF0020EDBCF2CF02BC0F3FF2CC0F4FF13
:10202000F56E3B0EE15C02E2E16AE552E16EF550CD
:10203000CBD029D9020E0AEF11F061D90800F55072
:10204000DF6E1200200EE66E080E7AEF11F008EC3B
:1020500035F0E552E552E552F3CF2BF0F4CF2CF0FA
:102060000001F31C12002B6E2C6AD950010F4DD9C0
:102070002B50EE262C50ED2212002F5E000E305A0F
:10208000F70E2FC0DBFFF80E30C0DBFF2FC0E9FFDB
:1020900030C0EAFF1200DBCFF4FFF350F45C120013
:1020A000DB50E76E040EE7CFDBFF12000A0EDBCF3A
:1020B0002BF00B0EDBCF2CF00C0EDBCF2DF00D0E2A
:1020C000DBCF2EF02B502C102D102E101200130EE3
:1020D000EECFDBFF140EEDCFDBFF130EDBCF2BF0CB
:1020E000140EDBCF2CF00001800E2C141200F70E22
:1020F000DBCF2FF0F80EDBCF30F01200050EDB50F7
:10210000E66ED950130F01D9E552E750EE6EED6A35
:1021100012000A0EDBCF1BF00B0EDBCF1CF00C0EF7
:10212000DBCF1DF00D0EDBCF1EF01200DBCFE6FF84
:10213000150EDBCFE6FF050EDB50E552E724E55236
:10214000E7241200DB50CED8010EF36E060EF3CF5B
:10215000DBFF1200EE50EFCFEAFFE96E2DC0EEFF7D
:102160002EC0EEFF2FC0EEFF1200D9CFE6FFDACF70
:10217000E6FFE1CFD9FFE2CFDAFF1200DFCFE6FFC3
:10218000E66ABBEC36F0E552E552F3501200E76E1A
:10219000080EE7CFDBFF1200EECF2BF0EECF2CF0D6
:1021A000EFCF2DF02E6A1200050EDBCF2BF0150EAF
:1021B000DB50D8802B541200010EDBCF2DF0020E25
:1021C000DBCF2EF02F6A1200E552E5CFDAFFE7CF22
:1021D000D9FF12000A0E2BC0DBFF0B0E2CC0DBFF59
:1021E0001200D9500A0F85EF11F0F36E070EF3CFEE
:1021F000DBFF1200EECF2BF0EFCF2CF01200010E20
:10220000DB2A020E1200FC0EDBCFE6FFFD0EDBCF59
:10221000E6FF12002B5E000E2C5AF70E2BC0DBFFE0
:10222000F80E2CC0DBFF2BC0E9FF2CC0EAFF120028
:10223000DA20EA6EEF2AEECFF6FF000EEF22EECFA5
:10224000F7FFEF22EECFF8FF1200040EDBCFE6FF20
:10225000130EDB50E552E75C9ADFDB5004DF060E1D
:10226000DB501200090EDB500A0DF350DF24D00FB3
:10227000E76E090EE7CFDBFF1DEF10F0DB50F36ECA
:10228000050E4BEF10F0F70EDBCF2BF0F80EDBCF87
:102290002CF01200DFCFE6FF27EF10F028DF030E4F
:1022A000ECDECCEF10F077EC0BF0E552E552E552A6
:1022B000E55200091200BDDEEE50EFCFEAFFE96EF5
:1022C000010E1200130EDB50F36E040E4BEF10F0F4
:1022D000040EDB50F36E090E4BEF10F0DBCFE6FF80
:1022E00027EF10F0E76E050EE7CFDBFF12008BDF64
:1022F0004AEF11F0DBCFE6FF86DF53EF11F0D95044
:10230000F90FE96EFF0E18EF11F0E96E000EDA20FA
:04231000EA6E12005F
:0C231400D9CFE6FFE1CFD9FF040EE1268F
:1023200003011B510A0A01E19AD2030A01E181D299
:10233000010A01E166D20F0A01E12BD2010A01E193
:1023400004D2030A01E1EDD1010A01E189D0070AB3
:102350006CE0010A2EE0030A27E0010A01E087D2BF
:10236000010E1A6F0201A76BA7512B6E2C6A160E75
:102370002B5C000E2C5814E2A751EA6A080FE96E94
:10238000020EEA22030EEFCFDBFFA751EA6A880FA5
:10239000E96E020EEA22030EDBCFEFFFA72BE4D794
:1023A0000301010E1B6F63D271DA0301020E1B6F72
:1023B0005ED2A2EC1FF0E76E020EE7CFDBFF610EEC
:1023C000F36E020EDBCFF4FFF350F45C0EE3020E6B
:1023D000DB5073080AE30301030E1B6F020EDB5090
:1023E0009F0F020F0201A56F1FD0020EDB50750870
:1023F00004E10301090E1B6F17D0020EDB507608B3
:1024000004E10301060E1B6F0FD0020EDB507708AC
:1024100004E10301070E1B6F07D0020EDB507808A2
:1024200003E103011B6B1A6B22D20201A46BA2EC25
:102430001FF0000901E0FBD75C0E2B6E310E2C6EF5
:102440002D6A2BC0E6FF2CC0E6FF2DC0E6FFBAECDC
:1024500034F0E552E552E5520301040E1B6F07D23A
:10246000A2EC1FF0E76E020EE7CFDBFF300EF36E3B
:10247000020EDBCFF4FFF350F45C04E3020EDB50FA
:10248000390820E2610EF36E020EDBCFF4FFF35049
:10249000F45C04E3020EDB50660814E2410EF36EB6
:1024A000020EDBCFF4FFF350F45C04E3020EDB50CA
:1024B000460808E2020EDB50780804E0020EDB500A
:1024C000580835E10201A4512B6E2C6A060E2B5CD4
:1024D000000E2C582CE2610EF36E020EDBCFF4FFDF
:1024E000F350F45C04E3020EDB50660804E2020ED3
:1024F000DB5078080AE1200E2B6E020EDBCFE7FFDF
:102500002B50E75E020EE7CFDBFF020EDBCFE6FFCC
:10251000A6EC1FF0E5520201A451EA6A9E0FE96E93
:10252000020EEA22020EDBCFEFFFA42BF9D0020E3F
:10253000DB500D0801E0F4D0300E02019E5D01E099
:1025400079D0580E9F5D76E1A451040804E2DE6A5A
:10255000010EDD6E6ED0040EA45D44E1300EA05D70
:102560000AE3A051390807E3300EA05D100DF350C7
:10257000DE6EDD6A14D0410EA05D0BE3A05146086B
:1025800008E3410EA05D0A0F100DF350DE6EDD6A08
:1025900006D0580EA05D03E1DE6A010EDD6E300E3E
:1025A000A15D09E3A151390806E3300EA15DDE26E5
:1025B000000EDD2216D0410EA15D0AE3A1514608AE
:1025C00007E3410EA15D0A0FDE26000EDD2209D0D1
:1025D000580EA15D06E1D9CFE9FFDACFEAFFEE524E
:1025E000ED2A27D0030EA45D21E1300EA05D08E3A3
:1025F000A051390805E3300EA05DDE6EDD6A15D00E
:10260000410EA05D09E3A051460806E3410EA05D1E
:102610000A0FDE6EDD6A09D0580EA05D06E1D9CF43
:10262000E9FFDACFEAFFEE52ED2A03D0DE6A010EAF
:10263000DD6E5DD0A451030804E2DE6A010EDD6E9A
:1026400056D0030EA45D32E1300E9E5D2B6E2C6AD7
:10265000640E1D6E1E6A2BC022F02CC023F0F8EC15
:102660002BF01BC0DEFF1CC0DDFF300E02019F5DA2
:102670002D6E2E6A0A0E1D6E1E6A2DC022F02EC00F
:1026800023F0F8EC2BF01BC02BF01CC02CF0D9CFA2
:10269000E9FFDACFEAFF2B50EE262C50ED22300E68
:1026A0000201A05DDE26000EDD2221D0020EA45D17
:1026B0000CE1300E9E5D0A0DF350DE6EDD6A300EC9
:1026C0009F5DDE26000EDD2212D0A40505E1300E4E
:1026D0009E5DDE6EDD6A0BD0A45109E1A551EA6A68
:1026E000880FE96E020EEA22EF50DE6EDD6AD9CF66
:1026F000E9FFDACFEAFFFF0ED880EE54000EED546A
:102700000CE3A551EA6A880FE96E020EEA22DFCFD8
:10271000EFFF0301010E1B6F03D00301050E1B6FBA
:10272000A6D03C0E2B6E310E2C6E2D6A2BC0E6FF10
:102730002CC0E6FF2DC0E6FFBAEC34F0E552E552BE
:10274000E5520301030E1B6F92D00201550E8A6FF2
:10275000730E8B6F0F0E8C6F110E8D6F640E8E6F5C
:10276000910E8F6F906B916B800E926F936F946F41
:10277000010E956F966F200E976F986F800E996F70
:102780009A6F200E9B6F840E9C6F0301010E1B6FCE
:102790006ED00201A76BA7512B6E2C6A160E2B5C14
:1027A000000E2C5814E2A751EA6A880FE96E020E57
:1027B000EA22030EEFCFDBFFA751EA6A080FE96EAA
:1027C000020EEA22030EDBCFEFFFA72BE4D7000EA9
:1027D000E66EE66AB4DAE552E552260E2B6E310E4D
:1027E0002C6E2D6A2BC0E6FF2CC0E6FF2DC0E6FF45
:1027F000BAEC34F0E552E552E5520301080E1B6FC6
:1028000036D0B0EC33F0200813E11F0E2B6E310EE2
:102810002C6E2D6A2BC0E6FF2CC0E6FF2DC0E6FF14
:10282000BAEC34F0E552E552E5520301010E1B6F9C
:102830001ED0060E2B6E310E2C6E2D6A2BC0E6FFBD
:102840002CC0E6FF2DC0E6FFBAEC34F0E552E552AD
:10285000E55204EC1FF003010A0E1B6F08D007ECD1
:102860001FF0010803E10301010E1B6F00D00301FB
:102870001A51F56E040EE15C03E200D0E16AE55204
:10288000E16EF550E552E7CFD9FF1200030E2B6E33
:10289000310E2C6E2D6A2BC0E6FF2CC0E6FF2DC03A
:1028A000E6FFBAEC34F0E552E552E552E70E2B6E46
:1028B000300E2C6E2D6A2BC0E6FF2CC0E6FF2DC01B
:1028C000E6FFBAEC34F0E552E552E55202018A51D6
:1028D000E66EE66A8A51E66EE66AC60E2B6E300E2A
:1028E0002C6E2D6A2BC0E6FF2CC0E6FF2DC0E6FF44
:1028F000BAEC34F0F56E070EE15EF55002018B5133
:10290000E66EE66A8B51E66EE66AA50E2B6E300E19
:102910002C6E2D6A2BC0E6FF2CC0E6FF2DC0E6FF13
:10292000BAEC34F0F56E070EE15EF55002018C5101
:10293000E66EE66A8C51E66EE66A840E2B6E300E09
:102940002C6E2D6A2BC0E6FF2CC0E6FF2DC0E6FFE3
:10295000BAEC34F0F56E070EE15EF55002018D51D0
:10296000E66EE66A8D51E66EE66A630E2B6E300EF9
:102970002C6E2D6A2BC0E6FF2CC0E6FF2DC0E6FFB3
:10298000BAEC34F0F56E070EE15EF55002018E519F
:10299000E66EE66A8E51E66EE66A420E2B6E300EE9
:1029A0002C6E2D6A2BC0E6FF2CC0E6FF2DC0E6FF83
:1029B000BAEC34F0F56E070EE15EF55002018F516E
:1029C000E66EE66A8F51E66EE66A210E2B6E300ED9
:1029D0002C6E2D6A2BC0E6FF2CC0E6FF2DC0E6FF53
:1029E000BAEC34F0F56E070EE15EF550020190513D
:1029F000E66EE66A9051E66EE66A030E2B6E300EC6
:102A00002C6E2D6A2BC0E6FF2CC0E6FF2DC0E6FF22
:102A1000BAEC34F0F56E070EE15EF550ED0E2B6E5C
:102A20002F0E2C6E2D6A2BC0E6FF2CC0E6FF2DC0AA
:102A3000E6FFBAEC34F0E552E552E552020191515D
:102A4000E66EE66A9151E66EE66ACE0E2B6E2F0EAA
:102A50002C6E2D6A2BC0E6FF2CC0E6FF2DC0E6FFD2
:102A6000BAEC34F0F56E070EE15EF55002019251BA
:102A7000E66EE66A9251E66EE66AAF0E2B6E2F0E98
:102A80002C6E2D6A2BC0E6FF2CC0E6FF2DC0E6FFA2
:102A9000BAEC34F0F56E070EE15EF5500201935189
:102AA000E66EE66A9351E66EE66A900E2B6E2F0E86
:102AB0002C6E2D6A2BC0E6FF2CC0E6FF2DC0E6FF72
:102AC000BAEC34F0F56E070EE15EF5500201945158
:102AD000E66EE66A9451E66EE66A710E2B6E2F0E74
:102AE0002C6E2D6A2BC0E6FF2CC0E6FF2DC0E6FF42
:102AF000BAEC34F0F56E070EE15EF5500201955127
:102B0000E66EE66A9551E66EE66A520E2B6E2F0E61
:102B10002C6E2D6A2BC0E6FF2CC0E6FF2DC0E6FF11
:102B2000BAEC34F0F56E070EE15EF55002019651F5
:102B3000E66EE66A9651E66EE66A330E2B6E2F0E4F
:102B40002C6E2D6A2BC0E6FF2CC0E6FF2DC0E6FFE1
:102B5000BAEC34F0F56E070EE15EF55002019751C4
:102B6000E66EE66A9751E66EE66A130E2B6E2F0E3E
:102B70002C6E2D6A2BC0E6FF2CC0E6FF2DC0E6FFB1
:102B8000BAEC34F0F56E070EE15EF5500201985193
:102B9000E66EE66A9851E66EE66AF30E2B6E2E0E2E
:102BA0002C6E2D6A2BC0E6FF2CC0E6FF2DC0E6FF81
:102BB000BAEC34F0F56E070EE15EF5500201995162
:102BC000E66EE66A9951E66EE66AD30E2B6E2E0E1D
:102BD0002C6E2D6A2BC0E6FF2CC0E6FF2DC0E6FF51
:102BE000BAEC34F0F56E070EE15EF55002019A5131
:102BF000E66EE66A9A51E66EE66AB30E2B6E2E0E0C
:102C00002C6E2D6A2BC0E6FF2CC0E6FF2DC0E6FF20
:102C1000BAEC34F0F56E070EE15EF55002019B51FF
:102C2000E66EE66A9B51E66EE66A930E2B6E2E0EFA
:102C30002C6E2D6A2BC0E6FF2CC0E6FF2DC0E6FFF0
:102C4000BAEC34F0F56E070EE15EF55002019C51CE
:102C5000E66EE66A9C51E66EE66A730E2B6E2E0EE9
:102C60002C6E2D6A2BC0E6FF2CC0E6FF2DC0E6FFC0
:102C7000BAEC34F0F56E070EE15EF550030E2B6EE4
:102C8000310E2C6E2D6A2BC0E6FF2CC0E6FF2DC046
:102C9000E6FFBAEC34F0E552E552E5525E0E2B6EDB
:102CA0002E0E2C6E2D6A2BC0E6FF2CC0E6FF2DC029
:102CB000E6FFBAEC34F0E552E552E552440E2B6ED5
:102CC0002E0E2C6E2D6A2BC0E6FF2CC0E6FF2DC009
:102CD000E6FFBAEC34F0E552E552E552310E2B6EC8
:102CE0002E0E2C6E2D6A2BC0E6FF2CC0E6FF2DC0E9
:102CF000E6FFBAEC34F0E552E552E552260E2B6EB3
:102D00002E0E2C6E2D6A2BC0E6FF2CC0E6FF2DC0C8
:102D1000E6FFBAEC34F0E552E552E552030E2B6EB5
:102D2000310E2C6E2D6A2BC0E6FF2CC0E6FF2DC0A5
:102D3000E6FFBAEC34F0E552E552E5521200D9CF85
:102D4000E6FFE1CFD9FF050EE126030EDB6A040E94
:102D5000DB6A0201420E086F500E096FDE6ADD6AFF
:102D6000DECF2BF0DDCF2CF0150E2B5C000E2C5897
:102D700034E2DECFE9FFDDCFEAFF080EE926020EDE
:102D8000EA22020EEFCFDBFFDBCFE6FFFD0EDBCF4B
:102D90002DF0FE0EDBCF2EF0DE502D242B6EDD50FD
:102DA0002E202C6E2BC0E6FF2CC0E6FF09EC33F082
:102DB000E552E552E552020EDB502B6E2C6AD950DB
:102DC000030FE96EDACFEAFF2B50EE262C50ED22EE
:102DD000DF2A010E01E3DB2AC3D7030EDBCFE6FFB8
:102DE000160EE76EFD0EDBCF2BF0FE0EDBCF2CF0C8
:102DF000E7502B26000E2C222B062C5A2BC0E6FF68
:102E00002CC0E6FF09EC33F0E552E552E552F56ED1
:102E1000050EE15C02E2E16AE552E16EF550E55231
:062E2000E7CFD9FF12000C
:0A2E26005B785D20457869740D0AA1
:102E3000005B775D2053617665206368616E67652E
:102E4000730D0A005B765D204C6F616420646566DB
:102E500061756C742076616C7565730D0A005B7525
:102E60005D20526573746172742063616D65726177
:102E70000D0A005B735D204368616E676520434FF8
:102E80004D4A203D2025752028307825303258299C
:102E90000D0A005B725D204368616E6765204548DE
:102EA000534C203D20257520283078253032582974
:102EB0000D0A005B715D204368616E6765204548BF
:102EC0005348203D20257520283078253032582958
:102ED0000D0A005B705D204368616E676520434F9B
:102EE0004D49203D2025752028307825303258293D
:102EF0000D0A005B6F5D204368616E676520434F7C
:102F00004D42203D20257520283078253032582923
:102F10000D0A005B6E5D204368616E676520434F5C
:102F20004D41203D20257520283078253032582904
:102F30000D0A005B6D5D204368616E676520414549
:102F400043203D2025752028307825303258290D22
:102F50000A005B6C5D204368616E676520425254D5
:102F6000203D2025752028307825303258290D0A3B
:102F7000005B6B5D204368616E67652053415420A0
:102F80003D2025752028307825303258290D0A003B
:102F90005B6A5D204368616E676520524544203D51
:102FA0002025752028307825303258290D0A005BFD
:102FB000695D204368616E676520424C55203D2065
:102FC00025752028307825303258290D0A005B6895
:102FD0005D204368616E676520414743203D2025A1
:102FE000752028307825303258290D0A000D0A4105
:102FF0006476616E636564206F7074696F6E733A96
:103000000D0A005B675D204368616E6765204E4670
:10301000203D2025752028307825303258290D0A8A
:10302000005B665D204368616E676520425F4D61AD
:1030300078203D2025752028307825303258290DFC
:103040000A005B655D204368616E676520425F4DE5
:10305000696E203D2025752028307825303258298A
:103060000D0A005B645D204368616E676520475F01
:103070004D6178203D202575202830782530325844
:10308000290D0A005B635D204368616E6765204718
:103090005F4D696E203D202575202830782530321F
:1030A00058290D0A005B625D204368616E676520E8
:1030B000525F4D6178203D202575202830782530DD
:1030C0003258290D0A005B615D204368616E6765B7
:1030D00020525F4D696E203D2025752028307825CF
:1030E000303258290D0A000D0A43616C6962726121
:1030F00074696F6E20706172616D65746572733A88
:103100000D0A000D0A000D0A52657374617274692C
:103110006E672043616D6572612E2E2E0D0A00448C
:103120006F6E650D0A000D0A536176696E67207433
:103130006F20454550524F4D2E2E2E000D0A4572E0
:10314000726F723A204E756D626572206F757420D1
:103150006F662072616E67652E0D0A000D0A456E5E
:10316000746572206E65772076616C7565202870B5
:103170007265636565642068657861646563696D1F
:10318000616C206E756D626572732077697468205A
:103190003078293A20004E6F2063616D657261209E
:1031A000646174612E2E2E0D0A00436F6E66696491
:1031B000656E63652028506978656C732920203D11
:1031C0002025750D0A0020426C6F622053697A65D4
:1031D0002028506978656C732920203D2025750DC5
:1031E0000A0054696C74204572726F72202850690D
:1031F00078656C732920203D2025640D0A0020503D
:10320000616E204572726F722028506978656C7308
:103210002920203D2025640D0A0054696C7420414A
:103220006E676C6520286465677265657329203D4B
:103230002025640D0A002050616E20416E676C6588
:1032400020286465677265657329203D2025640D1B
:103250000A000D0A00536561726368696E672E2E5D
:103260002E0D0A005B705D2052657475726E2054DD
:103270006F204D61696E20547261636B696E6720C7
:103280004D656E750D0A005B6F5D20446973706C4F
:1032900061792043757272656E742050574D2056C7
:1032A000616C7565730D0A005B6E5D20536574205B
:1032B00054696C74204D61782050574D2056616CD4
:1032C00075650D0A005B6D5D205365742054696C53
:1032D000742043656E7465722050574D2056616CA2
:1032E00075650D0A005B6C5D205365742054696C34
:1032F00074204D696E2050574D2056616C75650DD8
:103300000A005B6B5D2054696C7420446F776E20FB
:1033100054656E2053746570730D0A005B6A5D20FE
:1033200054696C7420446F776E204F6E652053741F
:1033300065700D0A005B695D2054696C74205570DE
:103340002054656E2053746570730D0A005B685DD0
:103350002054696C74205570204F6E65205374653D
:10336000700D0A005B675D205365742050616E200C
:103370004D61782050574D2056616C75650D0A00DF
:103380005B665D205365742050616E2043656E74EA
:1033900065722050574D2056616C75650D0A005BB3
:1033A000655D205365742050616E204D696E20501C
:1033B000574D2056616C75650D0A005B645D2050A9
:1033C000616E2052696768742054656E205374657D
:1033D00070730D0A005B635D2050616E2052696757
:1033E0006874204F6E6520537465700D0A005B622F
:1033F0005D2050616E204C6566742054656E2053CC
:10340000746570730D0A005B615D2050616E204C25
:10341000656674204F6E6520537465700D0A005BFD
:10342000785D20457869740D0A005B775D205361F3
:103430007665206368616E6765730D0A005B765D73
:10344000204C6F61642064656661756C74207661E0
:103450006C7565730D0A005B755D20496E7465724D
:103460006163746976652050574D2041646A7573B5
:10347000746D656E74204D656E750D0A005B725D2E
:10348000204368616E676520436F6E666964656E90
:103490006365205468726573686F6C64203D2025F5
:1034A000750D0A005B715D204368616E676520538E
:1034B00065617263682044656C6179203D202575E3
:1034C0000D0A005B705D204368616E67652054697A
:1034D0006C742054617267657420506978656C2043
:1034E0003D2025750D0A005B6F5D204368616E67A6
:1034F000652054696C74205365617263682053744D
:1035000065702053697A65203D2025750D0A005BA2
:103510006E5D204368616E67652054696C7420524B
:103520006F746174696F6E205369676E203D20254A
:103530002B640D0A005B6D5D204368616E6765203A
:1035400054696C7420416C6C6F7761626C652045C6
:1035500072726F72203D2025750D0A005B6C5D2034
:103560004368616E67652054696C74204761696EB9
:10357000203D2025750D0A005B6B5D204368616E60
:1035800067652054696C74204D61782050574D2038
:103590003D2025750D0A005B6A5D204368616E67FA
:1035A000652054696C742043656E746572205057B1
:1035B0004D203D2025750D0A005B695D2043686143
:1035C0006E67652054696C74204D696E2050574DAC
:1035D000203D2025750D0A005B685D204368616E03
:1035E00067652050616E2054617267657420506970
:1035F00078656C203D2025750D0A005B675D2043D2
:1036000068616E67652050616E2053656172636802
:1036100020537465702053697A65203D2025750D0F
:103620000A005B665D204368616E67652050616ECD
:1036300020526F746174696F6E205369676E203D0C
:1036400020252B640D0A005B655D204368616E6771
:10365000652050616E20416C6C6F7761626C6520F3
:103660004572726F72203D2025750D0A005B645D06
:10367000204368616E67652050616E204761696E06
:10368000203D2025750D0A005B635D204368616E57
:1036900067652050616E204D61782050574D203D68
:1036A0002025750D0A005B625D204368616E6765C9
:1036B0002050616E2043656E7465722050574D2016
:1036C0003D2025750D0A005B615D204368616E67D2
:1036D000652050616E204D696E2050574D203D2071
:1036E00025750D0A00446F6E650D0A000D0A5361C1
:1036F00076696E6720746F20454550524F4D2E2ECF
:103700002E0054696C74203D2025750050616E2098
:103710003D2025750D0A000D0A000D0A4572726FD5
:10372000723A204E756D626572206F7574206F66F7
:103730002072616E67652E0D0A000D0A456E746574
:0E37400072206E65772076616C75653A200008
:02374E00D9CFD1
:10375000E6FFE1CFD9FF040EE1260201EF510BE1B4
:10376000F6D8DF6EDF0404E10201010EEF6F03D033
:10377000DF50010800E2CCDBE76E010EE7CFDBFF94
:10378000DB50000817E2030EDB6A010EDB50F36E1C
:10379000030EDBCFF4FFF350F45C0CE2BDDBE76E0D
:1037A000020EE7CFDBFFDBCFE6FF10D8E552030EBA
:1037B000DB2AEBD7F56E040EE15C02E2E16AE5522A
:1037C000E16EF550E552E7CFD9FF1200D9CFE6FF01
:1037D000E1CFD9FF0201F651060A01E18FD0030AB9
:1037E00068E0060A34E0010A25E0030A01E0ABD0F4
:1037F000FE0EDB502B6E2C6AFF0E2B1801E12C50B5
:1038000003E1020EF66F15D0FE0EDB50410807E112
:103810000201020E416F0201050EF66F0AD0FE0E84
:10382000DB504E0806E10201020E416F0201060E56
:10383000F66F89D0FE0EDB50540806E10201406BA2
:103840000201030EF66F02D0010EF66F7CD002016A
:1038500040512B6E2C6A080E2B5C000E2C580AE28D
:103860004051EA6A1E0FE96E020EEA22FE0EDBCF1D
:10387000EFFF402B40512B6E2C6A080E2B1801E1F4
:103880002C5016E11EC200F21FC201F220C202F249
:1038900021C203F222C204F223C205F224C206F2BC
:1038A00025C207F20201F02B000EF123010EF66F84
:1038B0004AD0020E0201415D06E1FE0EDB504308D4
:1038C00002E1412B1AD0030E415D06E1FE0EDB50F2
:1038D0004B0802E1412B11D0040E415D0BE1FE0EBD
:1038E000DB500D0807E10201F22B000EF323010E5D
:1038F000F66F03D00201010EF66F25D0020E020111
:10390000415D06E1FE0EDB50430802E1412B1AD077
:10391000030E415D06E1FE0EDB504B0802E1412B38
:1039200011D0040E415D0BE1FE0EDB500D0807E1E6
:103930000201F42B000EF523010EF66F03D00201F5
:10394000010EF66F00D0E552E7CFD9FF1200D9CFB4
:10395000E6FFE1CFD9FFE6520201F70507E14FDAB2
:10396000050EE66E58DAE5520201F76BF8050DE137
:10397000F86B0201436B010E426F446B456B466B63
:103980000201F26BF36BF46BF56B0201430529E165
:103990000201010EF25D000EF35905E30201436BD3
:1039A000446B456B1DD0010EF45D000EF55904E328
:1039B00002014205466F14D002010A0E445D000E5A
:1039C00045590BE3800E42252B6E2C6A000E2C22EB
:1039D0002B062C5A2BC046F203D0442B000E452355
:1039E00022D10201F26BF36BF46BF56B02014251D1
:1039F000120A01E115D1030A01E1FBD0010A01E13C
:103A0000EED01F0A01E1DED0010A01E1CED0030AA7
:103A100001E1BED0010A01E1AED0070A01E19ED06A
:103A2000010A01E18FD0030A01E17FD0010A70E0B1
:103A30000F0A61E0010A52E0030A43E0010A34E0A0
:103A4000070A25E0010A1FE0030A01E0ECD0E66A5C
:103A5000000EE66EE66AF5D8E552E552E552DF6EF5
:103A6000DF5001E10AD0DF0401E107D0020EDF5C84
:103A700001E103D0030EDF5C00E1C1D90201020EB7
:103A8000426F436BD0D0030E426F436BCCD019C250
:103A9000E6FF290EE66E1EDAE552E5520201040E3B
:103AA000426F010E436FBFD018C2E6FF130EE66EE1
:103AB00011DAE552E5520201050E426F010E436F25
:103AC000B2D01CC2E6FF2D0EE66E04DAE552E552D6
:103AD0000201060E426F010E436FA5D01AC2E6FF27
:103AE0002A0EE66EF7D9E552E5520201070E426F43
:103AF000010E436F98D01BC2E6FF2B0EE66EEAD98B
:103B0000E552E5520201080E426F010E436F8BD061
:103B10001CC2E6FF2D0EE66EDDD9E552E55202012C
:103B2000090E426F010E436F7ED017C2E6FF120EE0
:103B3000E66ED0D9E552E55202010A0E426F010E3F
:103B4000436F71D011C2E6FFE66AC4D9E552E5526F
:103B500002010B0E426F010E436F65D012C2E6FFE9
:103B6000010EE66EB7D9E552E55202010C0E426F26
:103B7000010E436F58D013C2E6FF020EE66EAAD9BB
:103B8000E552E55202010D0E426F010E436F4BD01C
:103B900014C2E6FF030EE66E9DD9E552E55202011E
:103BA0000E0E426F010E436F3ED015C2E6FF060EA9
:103BB000E66E90D9E552E55202010F0E426F010EFA
:103BC000436F31D016C2E6FF100EE66E83D9E55280
:103BD000E5520201100E426F010E436F24D010C255
:103BE000E6FF37D9E5520201110E426F010E436F15
:103BF0001AD00FC2E6FF0EC2E6FF0DC2E6FF0CC2EE
:103C0000E6FF0BC2E6FF0AC2E6FFC7D8F56E060E56
:103C1000E15EF5500201120E426F010E436F03D0B8
:103C2000010E466F00D04651000803E20201010E6A
:103C3000F86F0201465100D0E552E552E7CFD9FFB7
:103C40001200D9CFE6FFE1CFD9FF060EE126FC0E28
:103C5000DB5065E1020EDB6A030EDB6ADF6ADF50D0
:103C60002B6E2C6A160E2B5C000E2C5838E2DF509F
:103C7000E76EFD0EDBCF2BF0FE0EDBCF2CF0E75016
:103C80002B26000E2C222BC0E6FF2CC0E6FFEFEC0B
:103C900032F0E552E552E76E010EE7CFDBFFDF5071
:103CA000EA6A080FE96E020EEA22010EDBCFEFFF8F
:103CB000DF502B6E2C6A150E2B5C000E2C580DE27B
:103CC000010EDB502B6E2C6AD950020FE96EDACF51
:103CD000EAFF2B50EE262C50ED22DF2AC0D7420EF1
:103CE0000201085D14E1500E095D11E1020EDB5086
:103CF0001D5D05E1040EDB6A050EDB6A07D0010ECF
:103D0000F36E040EF3CFDBFF050EDB6A07D0020E65
:103D1000F36E040EF3CFDBFF050EDB6A07D0030E54
:103D2000F36E040EF3CFDBFF050EDB6AD950040FF0
:103D3000E96EDACFEAFFEE50ED1020E00201550EF9
:103D40000A6F730E0B6F0F0E0C6F110E0D6F640E5A
:103D50000E6F910E0F6F106B116B800E126F136F41
:103D6000146F010E156F166F200E176F186F800EEF
:103D7000196F1A6F200E1B6F840E1C6F040EDB5020
:103D8000F56E060EE15C03E200D0E16AE552E16EF9
:103D9000F550E552E7CFD9FF1200D9CFE6FFE1CFCA
:103DA000D9FF540EE66EBCD8E552430EE66EB8D885
:103DB000E552060EE66EB4D8E552FE0EDBCFE6FF06
:103DC000AFD8E552FD0EDBCFE6FFAAD8E552FC0ED8
:103DD000DBCFE6FFA5D8E552FB0EDBCFE6FFA0D890
:103DE000E552FA0EDBCFE6FF9BD8E552F90EDBCFAA
:103DF000E6FF96D8E552E552E7CFD9FF12000D0E47
:103E0000E66E8ED8E55212000201EF6B120002013D
:103E1000EF5100D01200D9CFE6FFE1CFD9FF520E0B
:103E2000E66E7ED8E5524D0EE66E7AD8E552200E4B
:103E3000E66E76D8E552FE0EDB50300FE66E70D897
:103E4000E5520D0EE66E6CD8E552E552E7CFD9FF8C
:103E50001200D9CFE6FFE1CFD9FF4E0EE66E60D853
:103E6000E552460EE66E5CD8E552010EE66E58D875
:103E7000E552FE0EDBCFE6FF53D8E552E552E7CF21
:103E8000D9FF1200D9CFE6FFE1CFD9FF560EE66E7B
:103E900047D8E552570EE66E43D8E552040EE66E5B
:103EA0003FD8E552FE0EDBCFE6FF3AD8E552FD0ED5
:103EB000DBCFE6FF35D8E552FC0EDBCFE6FF30D88E
:103EC000E552FB0EDBCFE6FF2BD8E552E552E7CFFC
:103ED000D9FF1200D9CFE6FFE1CFD9FF430EE66E3E
:103EE0001FD8E552520EE66E1BD8E552020EE66E62
:103EF00017D8E552FE0EDBCFE6FF12D8E552FD0ED5
:103F0000DBCFE6FF0DD8E552E552E7CFD9FF12002F
:103F1000D0EC2EF000D0120006EC2FF000D01200F2
:103F2000D9CFE6FFE1CFD9FFFE0EDBCFE6FF4DECA8
:103F30002FF0E552E552E7CFD9FF1200C0EC2EF08A
:103F400000D01200E0EC2EF000D01200D9CFE6FF36
:103F5000E1CFD9FFFE0EDBCFE6FF2CEC2FF0E552D0
:083F6000E552E7CFD9FF120082
:083F6800D9CFE6FFE1CFD9FF3C
:103F70000A0EE1260201F9510FE1010EF96FCBDAC9
:103F8000C4C2D6F2CCC2D7F2D6C2E6FFAFDBE5524E
:103F9000D7C2E6FFB6DBE5520201FB510201F01980
:103FA00004E10201FC510201F11901E1A8D2F0C2C1
:103FB000FBF2F1C2FCF20201FA6B0201D4510201E0
:103FC000075D01E2F3D10201010EFD6FFA6F0201FC
:103FD000D651DE6EDD6A020100512D6E2E6A02019D
:103FE000CA512F6E306A2F502D5C2B6E30502E58D8
:103FF0002C6E060E2BC0DBFF070E2CC0DBFF060E5F
:10400000DBCF2BF0070EDBCF2CF0C7512D6E2E6AC5
:104010002E502C18E8AE02D02C3404D02B502D5C3E
:104020002C502E5825E2C6512B6E2C6A060EDBCF83
:104030001DF0070EDBCF1EF02BC022F02CC023F0AA
:10404000A5EC2BF0040E1DC0DBFF050E1EC0DBFF30
:10405000D950040FE96EDACFEAFFEE50ED1007E118
:10406000010EF36E040EF3CFDBFF050EDB6A4AD0C0
:10407000060EDBCF2BF0070EDBCF2CF0C7512F6ED7
:10408000306A1D681E682FC022F030C023F0CBECD0
:104090002BF01BC02DF01CC02EF02C502E18E8AEBB
:1040A00002D02E3404D02D502B5C2E502C5823E2FD
:1040B0000201C6512B6E2C6A060EDBCF1DF0070ED7
:1040C000DBCF1EF02BC022F02CC023F0A5EC2BF090
:1040D000040E1DC0DBFF050E1EC0DBFFD950040F10
:1040E000E96EDACFEAFFEE50ED1004E1040EDB6872
:1040F000050EDB6807D0040EDB6A050EDB6A020ED4
:104100000201FA27C8C22DF02E6A2DBE2E682DC0DE
:104110001DF02EC01EF0040EDBCF22F0050EDBCF0B
:1041200023F0CBEC2BF01BC02BF01CC02CF0D9CF14
:10413000E9FFDACFEAFF2B50EE262C50ED22DECF3E
:104140002BF0DDCF2CF00201C35100012CAE02D0C8
:10415000D89003D02B5C000E2C5805E20201C3510D
:10416000DE6EDD6A16D0DECF2BF0DDCF2CF0020143
:10417000C5512D6E2E6A2E502C18E8AE02D02C346C
:1041800004D02B502D5C2C502E5803E2C551DE6E0E
:10419000DD6ADFCFD6F2D6C2E6FFA8DAE552020129
:1041A000D751E66ED950020FE96EDACFEAFFE55239
:1041B000E750EE6EED6A020101512D6E2E6A02018A
:1041C000D2512F6E306A2F502D5C2B6E30502E58EE
:1041D0002C6E080E2BC0DBFF090E2CC0DBFF080E77
:1041E000DBCF2BF0090EDBCF2CF0CF512D6E2E6ADA
:1041F0002E502C18E8AE02D02C3404D02B502D5C5D
:104200002C502E5825E2CE512B6E2C6A080EDBCF97
:104210001DF0090EDBCF1EF02BC022F02CC023F0C6
:10422000A5EC2BF0040E1DC0DBFF050E1EC0DBFF4E
:10423000D950040FE96EDACFEAFFEE50ED1007E136
:10424000010EF36E040EF3CFDBFF050EDB6A4AD0DE
:10425000080EDBCF2BF0090EDBCF2CF0CF512F6EE9
:10426000306A1D681E682FC022F030C023F0CBECEE
:104270002BF01BC02DF01CC02EF02C502E18E8AED9
:1042800002D02E3404D02D502B5C2E502C5823E21B
:104290000201CE512B6E2C6A080EDBCF1DF0090EE9
:1042A000DBCF1EF02BC022F02CC023F0A5EC2BF0AE
:1042B000040E1DC0DBFF050E1EC0DBFFD950040F2E
:1042C000E96EDACFEAFFEE50ED1004E1040EDB6890
:1042D000050EDB6807D0040EDB6A050EDB6A040EF0
:1042E0000201FA27D0C22DF02E6A2DBE2E682DC0F5
:1042F0001DF02EC01EF0040EDBCF22F0050EDBCF2A
:1043000023F0CBEC2BF01BC02BF01CC02CF0D950B1
:10431000020FE96EDACFEAFF2B50EE262C50ED2289
:10432000020EDBCF2BF0030EDBCF2CF00201CB51C2
:1043300000012CAE02D0D89003D02B5C000E2C587C
:104340000DE20201CB51E66ED950020FE96EDACFD1
:10435000EAFFE552E750EE6EED6A20D0020EDBCFA9
:104360002BF0030EDBCF2CF00201CD512D6E2E6A07
:104370002E502C18E8AE02D02C3404D02B502D5CDB
:104380002C502E580BE2CD51E66ED950020FE96E3B
:10439000DACFEAFFE552E750EE6EED6A020EDBCFB0
:1043A000D7F2D7C2E6FFADD9E552A9D00201FE2B64
:1043B0000201D3510201D880FE5501E3A0D0FE6B6B
:1043C000FD0511E1FD6B0201C351DE6EDD6ACC51CA
:1043D000E66ED950020FE96EDACFEAFFE552E750F8
:1043E000EE6EED6A7FD00201D651DE6EDD6AD751E6
:1043F000E66ED950020FE96EDACFEAFFE552E750D8
:10440000EE6EED6ADECF2BF0DDCF2CF0C551000152
:104410002CAE02D0D89003D02B5C000E2C584BE36E
:104420000201C351DE6EDD6A020EDBCF2BF0030EFC
:10443000DBCF2CF0CD5100012CAE02D0D89003D0B0
:104440002B5C000E2C580DE30201CB51E66ED950C7
:10445000020FE96EDACFEAFFE552E750EE6EED6A41
:1044600029D00201D1512B6E2C6AD950020FE96E6E
:10447000DACFEAFF2B50EE262C50ED22020EDBCFD6
:104480002BF0030EDBCF2CF0CD5100012CAE02D06F
:10449000D89003D02B5C000E2C580CE30201CD51B8
:1044A000E66ED950020FE96EDACFEAFFE552E75027
:1044B000EE6EED6A17D00201C951DE26000EDD2234
:1044C000DECF2BF0DDCF2CF0C55100012CAE02D099
:1044D000D89003D02B5C000E2C5804E30201C55188
:1044E000DE6EDD6ADFCFD6F2020EDBCFD7F2D6C2A8
:1044F000E6FFFCD8E552D7C2E6FF03D9E552F56ED8
:104500000A0EE15C02E2E16AE552E16EF550E55225
:10451000E7CFD9FF1200D9CFE6FFE1CFD9FFE652AE
:10452000E66A200EE66EE66A16D8E552E552E552D6
:10453000DF6EDF5001E10AD0DF0401E107D0020E97
:10454000DF5C01E103D0030EDF5C00E1E552E552E0
:10455000E7CFD9FF1200D9CFE6FFE1CFD9FF060E92
:10456000E126FC0EDB5065E1020EDB6A030EDB6A1E
:10457000DF6ADF502B6E2C6A150E2B5C000E2C5858
:1045800038E2DF50E76EFD0EDBCF2BF0FE0EDBCF07
:104590002CF0E7502B26000E2C222BC0E6FF2CC05F
:1045A000E6FFEFEC32F0E552E552E76E010EE7CFA1
:1045B000DBFFDF50EA6AC10FE96E020EEA22010E4C
:1045C000DBCFEFFFDF502B6E2C6A140E2B5C000E3E
:1045D0002C580DE2010EDB502B6E2C6AD950020FC5
:1045E000E96EDACFEAFF2B50EE262C50ED22DF2ABF
:1045F000C0D7470E0201C15D14E14B0EC25D11E14F
:10460000020EDB50D55D05E1040EDB6A050EDB6AA8
:1046100007D0010EF36E040EF3CFDBFF050EDB6A4D
:1046200007D0020EF36E040EF3CFDBFF050EDB6A3C
:1046300007D0030EF36E040EF3CFDBFF050EDB6A2B
:10464000D950040FE96EDACFEAFFEE50ED1023E007
:104650000201C36B7C0EC46FF80EC56F030EC66FEC
:10466000060EC76FC8693E0EC96F4F0ECA6F5E0E49
:10467000CB6F900ECC6FC20ECD6F080ECE6F060EB4
:10468000CF6F010ED06F320ED16F770ED26F060E44
:10469000D36F140ED46F040EDB50F56E060EE15C82
:1046A00003E200D0E16AE552E16EF550E552E7CF52
:1046B000D9FF1200D9CFE6FFE1CFD9FFE6520201C0
:1046C000FA5102E1DF6A0BD0070EFA5D03E2010E38
:1046D000DF6E05D0070EFA5D02E1020EDF6EDF50DD
:1046E00000D0E552E552E7CFD9FF1200D9CFE6FF5F
:1046F000E1CFD9FFFE0EDBCF4BF2E552E7CFD9FF7A
:104700001200D9CFE6FFE1CFD9FFFE0EDBCF4CF28E
:08471000E552E7CFD9FF1200CA
:08471800D9CFE6FFE1CFD9FF84
:10472000FE0EDB5011E1FC0EDBCFE9FFFD0EDBCF0F
:10473000EAFFEF507F0808E2FC0EDBCFE9FFFD0E39
:10474000DBCFEAFF7F0EEF6EE552E7CFD9FF120015
:10475000D9CFE6FFE1CFD9FFFE0EDB5013E1FC0E0F
:10476000DBCFE9FFFD0EDBCFEAFFEFCF2BF07F0EB3
:104770002B5C08E2FC0EDBCFE9FFFD0EDBCFEAFF8E
:104780007F0EEF6EE552E7CFD9FF1200D9CFE6FFDB
:10479000E1CFD9FFFD0EDBCF2BF0FE0EDBCF2CF0EF
:1047A000D8902C5004E6D00E2B5C070E2C5806E255
:1047B0000301D00E146F070E156F19D0FD0EDBCF5D
:1047C0002BF0FE0EDBCF2CF02C3404E22B50CE0865
:1047D000080E2C5406E20301CE0E146F080E156F5E
:1047E00006D0FD0EDBCF14F3FE0EDBCF15F314C3A2
:1047F0002BF015C32CF0D00E2B5E070E2C5A2B502D
:1048000000D0E552E7CFD9FF1200F00EE66EBFEC04
:1048100031F0E552938A93889386938499829980A4
:10482000938E938C9A849A82998699849A8A9A888C
:1048300094809A869A8E9A9C919C02017F0E526F68
:1048400052C251F252C250F252C24FF252C24EF212
:1048500052C24DF252C24CF252C24BF25A6F5AC27D
:1048600059F25AC258F25AC257F25AC256F25AC2B2
:1048700055F25AC254F25AC253F2010EE66EE66A7B
:10488000E66EE66AE66EE66AE66EE66AA5EC28F093
:10489000F56E080EE15EF55013EC32F08EEC2EF062
:1048A000A7EC2EF00201010EA86F470EE66E020E75
:1048B000E66E63EC28F0E552E552F0EF27F0D9CF31
:1048C000E6FFE1CFD9FF020EE126670EE66E020E8B
:1048D000E66E4AEC28F0E552E5520301125104E17C
:1048E000135102E1F8EC2FF0A7EC1BF00301135178
:1048F00002E1B4EC1FF05AEC23F0020803E10201DC
:10490000488502D0020148950301120505E18AECB1
:1049100011F00301126F17D0130505E14CEC04F000
:104920000301136F10D0A2EC1FF0DF6E630EDF5C8B
:1049300004E10301010E126F06D0740EDF5C03E187
:104940000301010E136F3FEC33F05AC2E6FF59C268
:10495000E6FF58C2E6FF57C2E6FF1FEC32F0E55211
:10496000E552E552E552470EE66E020EE66E63EC46
:1049700028F0E552E552F56E020EE15C02E2E16AD2
:10498000E552E16EF550E552E7CFD9FF12006DC256
:104990004BF26EC24CF26FC24DF270C24EF271C257
:1049A0004FF272C250F273C251F274C252F275C227
:1049B00053F276C254F277C255F278C256F202012F
:1049C0006D512B6E2C6AFF0ED8802B56000E2C5684
:1049D0002BC071F202014F512B6E2C6AFF0ED88052
:1049E0002B56000E2C562BC06DF202016D512E6A13
:1049F000D00F2D6E070E2E22715100012D242B6E2B
:104A0000000E2E202C6E7F0E2B5E000E2C5A2BC01B
:104A1000E6FF2CC0E6FFBADEE552E5520201586F10
:104A2000576F02016D512E6AD00F2D6E070E2E2288
:104A300071512F6E306A2F502D5C2B6E30502E58D6
:104A40002C6E7F0E2B26000E2C222BC0E6FF2CC0D6
:104A5000E6FF9CDEE552E55202015A6F596F815024
:104A6000040B01E0010E2B6E02016951010B2B14A6
:104A7000E8B08D80E8A08D908150080B01E0010E18
:104A80002B6E6951020B01E0010E2B14E8B08C80F3
:104A9000E8A08C908150100B01E0010E2B6E6A5142
:104AA000010B2B14E8B08D82E8A08D928150200B71
:104AB00001E0010E2B6E6A51020B01E0010E2B1476
:104AC000E8B08C82E8A08C926951100B02E08D84D2
:104AD00001D08D946951200B02E08C8401D08C941C
:104AE0006A51100B02E08D8601D08D966A51200B21
:104AF00002E08C8601D08C966951040B02E08D880F
:104B000001D08D986951080B02E08C8801D08C98F7
:104B10006951400B02E08D8A01D08D9A6951800B5A
:104B200002E08C8A01D08C9A6A51400B02E08D8C95
:104B300001D08D9C6A51800B02E08C8C01D08C9C42
:104B40008850800B02E0919001D091808C9E4D0E98
:104B5000E66E020EE66E8150400B01E0010EE66E3D
:104B6000DBDDE552E552E5524D0EE66E020EE66ED5
:104B70008150800B01E0010EE66EEADDE552E55260
:104B8000E5524E0EE66E020EE66E8750010BE66EA3
:104B9000C3DDE552E552E5524E0EE66E020EE66EBC
:104BA0008750020B01E0010EE66ED2DDE552E552C0
:104BB000E552530EE66E020EE66E8750040B01E0DE
:104BC000010EE66EA9DDE552E552E552530EE66EA2
:104BD000020EE66E8750080B01E0010EE66EB8DDAE
:104BE000E552E552E552540EE66E020EE66E88502E
:104BF000020B01E0010EE66E8FDDE552E552E55253
:104C0000540EE66E020EE66E8850040B01E0010EB3
:104C1000E66E9EDDE552E552E552550EE66E020E59
:104C2000E66E8850080B01E0010EE66E75DDE55278
:104C3000E552E552550EE66E020EE66E8250010B0D
:104C4000E66E86DDE552E552E552560EE66E020E40
:104C5000E66E8850100B01E0010EE66E5DDDE55258
:104C6000E552E552560EE66E020EE66E8850200BB7
:104C700001E0010EE66E6CDDE552E552E5520201FF
:104C800068BBB1D0000E6D5D07E36D51380804E3D9
:104C90000201479147832DD07D0E6D5D0EE36D516E
:104CA0002B6E2C6A2C3404E22B508108000E2C54FD
:104CB00004E30201478147831CD06D512B6E2C6A9F
:104CC000D8902C5004E6D80E2B5C000E2C580EE326
:104CD0006D512D6E2E6A2E3404E22D50FF08000E09
:104CE0002E5404E302014781479303D00201479108
:104CF0004793000E02016E5D07E36E51380804E32E
:104D00000201479547872DD07D0E6E5D0EE36E51F3
:104D10002B6E2C6A2C3404E22B508108000E2C548C
:104D200004E30201478547871CD06E512B6E2C6A25
:104D3000D8902C5004E6D80E2B5C000E2C580EE3B5
:104D40006E512D6E2E6A2E3404E22D50FF08000E97
:104D50002E5404E302014785479703D0020147958B
:104D60004797479B8D50010B01E0478B47998C502B
:104D7000010B01E04789479F8D50020B01E0478FEF
:104D8000479D8C50020B01E0478D8150040B01E0E0
:104D9000010E2B6E2C6A2B502C1002E0000E01D05D
:104DA000010E4891E8B048818150080B01E0010EE6
:104DB0002B6E2C6A2B502C1002E0000E01D0010E3D
:104DC0004893E8B048838150100B01E0010E2B6E30
:104DD0002C6A2B502C1002E0000E01D0010E4895D9
:104DE000E8B0488552D07EC21EF0D4EC2AF01CC038
:104DF00033F01DC034F01EC035F01FC036F0710E08
:104E0000216E3D0E226E7A0E236E410E246E33C04B
:104E10001CF034C01DF035C01EF036C01FF038EC59
:104E20002BF01CC02FF01DC030F01EC031F01FC091
:104E300032F0216A226A800E236E430E246E2FC048
:104E40001CF030C01DF031C01EF032C01FF0E5EC88
:104E50002AF01CC02BF01DC02CF01EC02DF01FC06E
:104E60002EF0216A226A200E236E410E246E2BC082
:104E70001CF02CC01DF02DC01EF02EC01FF038EC11
:0C4E80002BF016EC2CF01EC047F21200C4
:044E8C00D8CFE4FF98
:104E9000E0CFE4FFE46EDACFE4FFE2CFDAFFE9CF60
:104EA000E4FFEACFE4FFE652F2A202D09ED802D09D
:104EB0009EB6CAD8E552E5CFEAFFE5CFE9FFE5CFD8
:104EC000DAFFE550E5CFE0FFE5CFD8FF1000E66A56
:104ED000010EE66E050EE66EE9EC35F0E552E552A0
:104EE000E5521200070EB46E000E886E876E866E55
:104EF000856E846E836E826E816E806E916E906E12
:104F00008F6E8E6E8D6E8C6E8B6E8A6E896E2F0E8E
:104F1000926E93689C0E946E956A966A9768040EDA
:104F2000986E0E0E9A6E9968C16AF19EB0989C8E2A
:104F3000A26A9F6AA06A9D6AA36AA56AC8DF9F8663
:104F4000D08E9E969D869382F06AF288F09EF098AD
:104F5000F192F09AF16AF28CF28E1200D9CFE6FF4C
:104F6000E1CFD9FFE652BEDF0201879787990201A0
:104F70004B0EE36F020EE46FDF6A100EDF5C0AE295
:104F8000DF50EA6AE325E96EE451EA227F0EEF6E14
:104F9000DF2AF3D70201646B010E656FC20E666FE4
:104FA000020187850201696B6A6B0201476B496BDD
:104FB0004A6B470EE66E020EE66E85D8E552E55264
:104FC00002018793470EE66E020EE66E7CD8E5522C
:104FD000E55202018793E552E552E7CFD9FF12006F
:104FE00082828088949292981200F2920201200E9E
:104FF000DF6F9F86020187A906D00201E00EDC6FF9
:10500000000EDD6F05D00201C00EDC6F000EDD6FFB
:10501000020187A1877987A706D00201800EDA6F87
:10502000000EDB6F05D00201A00EDA6F000EDB6F01
:10503000C9CFE0F2DAC2E9FFDBC2EAFFDA2B000EE9
:10504000DB23EF50C96E12009E96C9CFE0F2020139
:10505000DF5100081DE2DCC2E9FFDDC2EAFFDC2B04
:10506000000EDD23E0C2EFFFDAC2E9FFDBC2EAFF98
:10507000DA2BDB23EFCFE0F2E0C2C9FFDF07DF511D
:1050800006E10201020E656F02018793878101D05C
:10509000C96A1200D9CFE6FFE1CFD9FF020187A18B
:1050A0000ED0FD0EDBCFE6FFFE0EDBCFE6FF7EEC83
:1050B0002DF0E552E5529D96020187919D86E552BD
:1050C000E7CFD9FF1200D9CFE6FFE1CFD9FF020128
:1050D00087B332D0FD0EDBCFE9FFFE0EDBCFEAFF58
:1050E0001E0EE926000EEA22EF50020809E1FD0E2D
:1050F000DBCFE6FFFE0EDBCFE6FF69D8E552E552D7
:10510000FD0EDBCFE9FFFE0EDBCFEAFF150EE92631
:10511000000EEA22EF9EFD0EDBCFE6FFFE0EDBCF98
:10512000E6FFECEC2CF0E552E5529D960201877704
:1051300087839D860201642BE552E7CFD9FF1200D9
:105140009D96020187919D861200D9CFE6FFE1CF9F
:10515000D9FF0001166BD950FD0FE96EFF0EDA2062
:10516000EA6E010EEE1801E1ED5002E1168101D068
:10517000BA6AD950FB0FE96EFF0EDA20EA6E010E13
:10518000EE1801E1ED5002E1168301D0B76AD95063
:10519000F90FE96EFF0EDA20EA6E010EEE1801E15A
:1051A000ED5002E1168501D0736AD950F70FE96E10
:1051B000FF0EDA20EA6E010EEE1801E1ED5002E179
:1051C000168701D0706AE552E7CFD9FF1200D9CF18
:1051D000E6FFE1CFD9FFFD0EDBCFE9FFFE0EDBCF0F
:1051E000EAFF1C0EE926000EEA22EF6AFD0EDBCF75
:1051F000E9FFFE0EDBCFEAFF170EE926000EEA22DA
:10520000EF6AC6AE0ED0C69EFD0EDBCFE9FFFE0EE6
:10521000DBCFEAFF170EE926000EEA22010EEF6E41
:1052200022D0F150800B10E0F250080B0DE0FD0E83
:10523000DBCFE9FFFE0EDBCFEAFF170EE926000EFB
:10524000EA22020EEF6E0FD0F0A60DD0909EFD0E5A
:10525000DBCFE9FFFE0EDBCFEAFF170EE926000EDB
:10526000EA22030EEF6E250EC614250819E0FD0E86
:10527000DBCFE9FFFE0EDBCFEAFF1C0EE926000EB6
:10528000EA22010EEF6EFD0EDBCFE9FFFE0EDBCF53
:10529000EAFF170EE926000EEA22C6CFEFFF80D103
:1052A000C55019E0FD0EDBCFE9FFFE0EDBCFEAFFB4
:1052B0001C0EE926000EEA22020EEF6EFD0EDBCF79
:1052C000E9FFFE0EDBCFEAFF170EE926000EEA2209
:1052D000C5CFEFFF65D1D0BE19D0FD0EDBCFE9FF02
:1052E000FE0EDBCFEAFF1C0EE926000EEA22030EBB
:1052F000EF6EFD0EDBCFE9FFFE0EDBCFEAFF170EF0
:10530000E926000EEA22D0CFEFFF4AD19DB619D090
:10531000FD0EDBCFE9FFFE0EDBCFEAFF1C0EE92618
:10532000000EEA22040EEF6EFD0EDBCFE9FFFE0E4B
:10533000DBCFEAFF170EE926000EEA229DCFEFFF32
:105340002FD19C5019E0FD0EDBCFE9FFFE0EDBCF25
:10535000EAFF1C0EE926000EEA22050EEF6EFD0E96
:10536000DBCFE9FFFE0EDBCFEAFF170EE926000ECA
:10537000EA229CCFEFFF14D1080E9F5C19E0FD0ECE
:10538000DBCFE9FFFE0EDBCFEAFF1C0EE926000EA5
:10539000EA22060EEF6EFD0EDBCFE9FFFE0EDBCF3D
:1053A000EAFF170EE926000EEA229FCFEFFFF8D0A2
:1053B000A25019E0FD0EDBCFE9FFFE0EDBCFEAFFC6
:1053C0001C0EE926000EEA22070EEF6EFD0EDBCF63
:1053D000E9FFFE0EDBCFEAFF170EE926000EEA22F8
:1053E000A2CFEFFFDDD0A55019E0FD0EDBCFE9FF26
:1053F000FE0EDBCFEAFF1C0EE926000EEA22080EA5
:10540000EF6EFD0EDBCFE9FFFE0EDBCFEAFF170EDE
:10541000E926000EEA22A5CFEFFFC2D0100EF2144B
:10542000100819E0FD0EDBCFE9FFFE0EDBCFEAFF2F
:105430001C0EE926000EEA22090EEF6EFD0EDBCFF0
:10544000E9FFFE0EDBCFEAFF170EE926000EEA2287
:10545000F2CFEFFFA5D0470EF11419E0FD0EDBCF20
:10546000E9FFFE0EDBCFEAFF1C0EE926000EEA2262
:105470000A0EEF6EFD0EDBCFE9FFFE0EDBCFEAFF7B
:10548000170EE926000EEA22F1CFEFFF89D0C00EF9
:10549000F01419E0FD0EDBCFE9FFFE0EDBCFEAFFD3
:1054A0001C0EE926000EEA220B0EEF6EFD0EDBCF7E
:1054B000E9FFFE0EDBCFEAFF170EE926000EEA2217
:1054C000F0CFEFFF6DD092A819D0FD0EDBCFE9FF32
:1054D000FE0EDBCFEAFF1C0EE926000EEA220C0EC0
:1054E000EF6EFD0EDBCFE9FFFE0EDBCFEAFF170EFE
:1054F000E926000EEA2292CFEFFF52D093B019D0E6
:10550000FD0EDBCFE9FFFE0EDBCFEAFF1C0EE92626
:10551000000EEA220D0EEF6EFD0EDBCFE9FFFE0E50
:10552000DBCFEAFF170EE926000EEA2293CFEFFF4A
:1055300037D03E0E94141C0819E0FD0EDBCFE9FFB6
:10554000FE0EDBCFEAFF1C0EE926000EEA220E0E4D
:10555000EF6EFD0EDBCFE9FFFE0EDBCFEAFF170E8D
:10556000E926000EEA2294CFEFFF1AD097BE18D09A
:10557000FD0EDBCFE9FFFE0EDBCFEAFF1C0EE926B6
:10558000000EEA220F0EEF6EFD0EDBCFE9FFFE0EDE
:10559000DBCFEAFF170EE926000EEA2297CFEFFFD6
:0855A000E552E7CFD9FF12002C
:0855A800269E05D0269E1EAED2
:1055B00002D01E6C268E1EC018F0176A2A6A296A4D
:1055C000860E196E1A6A59EF2CF0266A95EC2CF0AB
:1055D000ADEC2CF026B63DEF2CF026A205D026BA75
:1055E0003DEF2CF044EF2CF026BA50EF2CF026A023
:1055F00005D026B83DEF2CF050EF2CF026B844EF44
:105600002CF01A6A7F0E1F24196EE86A1A222450A1
:10561000195EE86A1A5A1A0E276E1F6A296A2A6AE0
:10562000176A186A21501C5E22501D5A23501E5AB8
:10563000000E1F5A09E721501C2622501D2223501C
:105640001E22000E1F2201D0298AD8901C361D363A
:105650001E361F36D89029362A3617361836272E8A
:10566000E1D71E501D101C10D8A4298A59EF2CF028
:10567000266A95EC2CF0ADEC2CF026B63DEF2CF024
:1056800026A205D026B83DEF2CF044EF2CF026AA38
:1056900005D026B03DEF2CF044EF2CF026B002D020
:1056A00026A802D050EF2CF01A6A24501F24196E3D
:1056B000E86A1A227E0E195EE86A1A5A296A2A6A6C
:1056C000176A186A23501E02F4CF18F0F3CF17F0B0
:1056D00022501E02F3502A26F4501722000E1822E0
:1056E00023501D02F3502A26F4501722000E1822D0
:1056F00021501E02F3502926F4502A22000E1722B0
:10570000182222501D02F3502926F4502A22000E9E
:105710001722182223501C02F3502926F4502A2263
:10572000000E1722182221501D02F4502926000EC7
:105730002A221722182222501C02F4502926000E79
:105740002A221722182259EF2CF0256A23AEAEEF39
:105750002BF0226C231EE86A2322251E1EAEB6EF14
:105760002BF01D6C1E1EE86A1E22251E91EC36F0E1
:105770001EBEC6EF2BF025AE000C1D6C1E1EE86A87
:105780001E22196C1A1EE86A1A22000C25BEBDEFF3
:105790002BF02688FF0C1EC02AF01DC029F01D50DA
:1057A0002202F4CF1CF0F3CF1BF01E502302F4CFE3
:1057B0001EF0F3CF1DF02202F3501C26F4501D22E0
:1057C000E86A1E2229502302F3501C26F4501D22A1
:1057D000E86A1E2223AEF1EF2BF029501D5E2A50FD
:1057E0001E5A2AAE000C22501D5E23501E5A000C79
:1057F0001DC029F01D502202F4CF1CF0F3CF1BF086
:105800001E502302F4CF1EF0F3CF1DF02202F350FE
:105810001C26F4501D22E86A1E2229502302F35050
:105820001C26F4501D22E86A1E22000C266A95EC04
:105830002CF026B620EF2CF026A20AD026B403D0F6
:105840007F0E1E6E19D0800E1E6E16D01E6A14D0EA
:1058500026B0FCD7870E1F60F1D77E0E1F64F6D7E7
:10586000860E1F5C04E0D8901E321F2AF9D726A4AA
:1058700003D01E6C1EAEEAD712007F0E1F6EFF0E05
:105880001E6E1D6E1C6E12007F0E26BEFF0E1F6E5A
:1058900002D07F0E1F6E800E1E6E1D6A1C6AF3D72B
:1058A00026AE04D0800E1F6E1E6AF7D71F6A1E6ACE
:1058B000F4D7185017102A102910F8E01ABEF0D7A4
:1058C00018BE0CD019501A10EBE0D89029362A36A1
:1058D000173618361906D8A01A06F2D71A50D4E18E
:1058E0001928D2E029AE11D07F0E291402E12AA096
:1058F0000CD02A2AE86A1722182207E3D880183227
:1059000017322A32192A1928BFE01950C9E02AC0D3
:105910001CF017C01DF018341E6E19301F6E1E3299
:105920001F9E26BE1F8E43EF2CF01E361F3602E34D
:105930002684267E06E126801F6A1E6A1D6A1C6A6E
:1059400012001F2803E0D8801E321200D8901E32A9
:1059500002E126821200268612002336243602E354
:10596000268C267E06E12688246A236A226A216A1A
:105970001200242803E0D88023321200D89023326A
:06598000EAE1268A120094
:0A598600000EE96EEA6E0400D0EC9A
:105990002CF0EA2A080EEA5CD8A4C6EF2CF012001C
:1059A000EF6AE93ED0EF2CF01200FF0EE3CF09F0D2
:1059B00009380F0B060FD8B2070F2A0FAD6E1EEC79
:1059C00031F009500F0B060FD8B2070F2A0FAD6E3A
:1059D0001EEC31F0000C1200EACF04F0E9CF05F024
:1059E000FF0EE3CFEAFFFE0EE3CFE9FF87A741D02A
:1059F000EECFA0F0EECFA1F0EECFA2F0EECFA3F06D
:105A0000EECFA4F0EECFA5F0EECFA6F0EECFA7F04C
:105A1000EECFA8F0EECFA9F0EECFAAF0EECFABF02C
:105A2000EECFACF0EECFADF0EECFAEF0EECFAFF00C
:105A3000EECFB0F0EECFB1F0EECFB2F0EECFB3F0EC
:105A4000EECFB4F0EECFB5F0EECFB6F0EECFB7F0CC
:105A5000EECFB8F0EECFB9F0EECFBAF0EECFBBF0AC
:105A6000EECFBCF0EECFBDF0EECFBEF0EECFBFF08C
:105A700040D0EECF80F0EECF81F0EECF82F0EECFCF
:105A800083F0EECF84F0EECF85F0EECF86F0EECF50
:105A900087F0EECF88F0EECF89F0EECF8AF0EECF30
:105AA0008BF0EECF8CF0EECF8DF0EECF8EF0EECF10
:105AB0008FF0EECF90F0EECF91F0EECF92F0EECFF0
:105AC00093F0EECF94F0EECF95F0EECF96F0EECFD0
:105AD00097F0EECF98F0EECF99F0EECF9AF0EECFB0
:105AE0009BF0EECF9CF0EECF9DF0EECF9EF0EECF90
:105AF0009FF004C0EAFF05C0E9FF120087A1120071
:105B0000EACF04F0E9CF05F0FF0EE3CFEAFFFE0E87
:105B1000E3CFE9FF87A941D0C0C0EEFFC1C0EEFFCF
:105B2000C2C0EEFFC3C0EEFFC4C0EEFFC5C0EEFFB3
:105B3000C6C0EEFFC7C0EEFFC8C0EEFFC9C0EEFF93
:105B4000CAC0EEFFCBC0EEFFCCC0EEFFCDC0EEFF73
:105B5000CEC0EEFFCFC0EEFFD0C0EEFFD1C0EEFF53
:105B6000D2C0EEFFD3C0EEFFD4C0EEFFD5C0EEFF33
:105B7000D6C0EEFFD7C0EEFFD8C0EEFFD9C0EEFF13
:105B8000DAC0EEFFDBC0EEFFDCC0EEFFDDC0EEFFF3
:105B9000DEC0EEFFDFC0EEFF40D0E0C0EEFFE1C0B0
:105BA000EEFFE2C0EEFFE3C0EEFFE4C0EEFFE5C0B3
:105BB000EEFFE6C0EEFFE7C0EEFFE8C0EEFFE9C093
:105BC000EEFFEAC0EEFFEBC0EEFFECC0EEFFEDC073
:105BD000EEFFEEC0EEFFEFC0EEFFF0C0EEFFF1C053
:105BE000EEFFF2C0EEFFF3C0EEFFF4C0EEFFF5C033
:105BF000EEFFF6C0EEFFF7C0EEFFF8C0EEFFF9C013
:105C0000EEFFFAC0EEFFFBC0EEFFFCC0EEFFFDC0F2
:105C1000EEFFFEC0EEFFFFC0EEFF04C0EAFF05C0CE
:105C2000E9FF1200F2B4120016500F0AD8B41200A5
:105C3000FF0EE3CF0AF0FE0EE3CF0BF0FD0EE3CF35
:105C40000CF0FC0EE3CF0DF00A2A16A08D8E0B2A65
:105C500016A28F800C2A16A48F860D2A16A68F886E
:105C60000E6A0F6A106A116A65EC2EF00A2E3BEF7D
:105C70002EF016A08D9E0B2E40EF2EF016A28F90C8
:105C80000C2E45EF2EF016A48F9600000D2E4BEF34
:105C90002EF016A68F9800000E2E50EF2EF01290C8
:105CA00000000F2E55EF2EF012920000102E5AEF2A
:105CB0002EF012940000112E5FEF2EF0129687EC5A
:105CC0002EF0133E36EF2EF01200D70E136E0000AA
:105CD0000000000000007DEC2EF0132E67EF2EF088
:105CE000D70E136E00000000000000007DEC2EF0C7
:105CF000132E72EF2EF000001200000080EF2EF045
:105D00000000000000000000000000001200030E70
:0C5D1000146E0000142E89EF2EF012001B
:045D1C00150EAF6E43
:105D2000AC849D9A9D98AC98AC9E948EAB9CAB969F
:105D3000AB8AAB889F9A9D8A030118691969949C64
:105D4000AC9CAC969F989D88AC8AAB8E1200150EC9
:105D50006F6E6C84A39AA3986C986C9E98846B9CCD
:105D60006B966B8A6B88A59AA38A030118691969D7
:105D700098926C9C6C96A598A3886C8A6B8E120086
:105D8000D9CFE6FFE1CFD9FFE6529D9AADC2DFFF42
:105D90009D8ADF5000D0E552E552E7CFD9FF1200CF
:105DA000D9CFE6FFE1CFD9FFE652A39AB9C2DFFF10
:105DB000A38ADF5000D0E552E552E7CFD9FF1200A9
:105DC000D9CFE6FFE1CFD9FFE6520201AA5103E0A5
:105DD000000E17D016D0AB51EA6A000FE96E010E23
:105DE000EA22EFCFDFFFAD07AB2B1F0EAB179D9A5B
:105DF000AC51AB5D02E1010EAA6F9D8AA96BDF5029
:105E000000D0E552E552E7CFD9FF1200D9CFE6FF27
:105E1000E1CFD9FFE6520201B65103E0000E17D0E0
:105E200016D0B751EA6A400FE96E010EEA22EFCFB1
:105E3000DFFFB907B72B1F0EB717A39AB851B75D8D
:105E400002E1010EB66FA38AB56BDF5000D0E552B8
:105E5000E552E7CFD9FF1200D9CFE6FFE1CFD9FF56
:105E60000201B05101E0FCD7B351EA6A200FE96E9C
:105E7000010EEA22FE0EDBCFEFFFB42BB32B1F0E79
:105E8000B3179D98B351B25D02E1010EB06F9D88CA
:105E9000B16BE552E7CFD9FF1200D9CFE6FFE1CFD2
:105EA000D9FF0201BC5101E0FCD7BF51EA6A600F83
:105EB000E96E010EEA22FE0EDBCFEFFFC02BBF2BF7
:105EC0001F0EBF17A398BF51BE5D02E1010EBC6F4C
:105ED000A388BD6BE552E7CFD9FF12000201A9519B
:105EE00002E09D9A19D0AC51EA6A000FE96E010EEA
:105EF000EA22AECFEFFFABA203D0AB98AB88AE2BBC
:105F0000ABB4AF2BAD2BAC2B1F0EAC17AC51AB5DB4
:105F100002E1010EA96FAA6B12000201B55102E065
:105F2000A39A19D0B851EA6A400FE96E010EEA222D
:105F30006ECFEFFF6BA203D06B986B88BA2B6BB45C
:105F4000BB2BB92BB82B1F0EB817B851B75D02E1A8
:105F5000010EB56FB66B12000201B15102E09D98BF
:105F600012D0B251EA6A200FE96E010EEA22EF5018
:105F7000AD6EB407B22B1F0EB217B351B25D02E182
:105F8000010EB16FB06B12000201BD5102E0A39887
:105F900012D0BE51EA6A600FE96E010EEA22EF509C
:105FA0006D6EC007BE2B1F0EBE17BF51BE5D02E156
:105FB000010EBD6FBC6B1200D9CFE6FFE1CFD9FF58
:105FC0000201A85101E110D0A80506E1FE0EDBCFC9
:105FD000E6FF42DFE55208D0020EA85D05E1FE0EA5
:105FE000DBCFE6FF5ADFE552E552E7CFD9FF1200DB
:105FF00003010B510201F01904E103010C510201EC
:10600000F11901E104D10301092B0A6B140E095D9A
:1060100001E2FCD0096B5AEC23F0000911E1550EA6
:106020002B6E320E2C6E2D6A2BC0E6FF2CC0E6FFC5
:106030002DC0E6FFBAEC34F0E552E552E552E6D069
:10604000520E2B6E320E2C6E2D6A2BC0E6FF2CC02A
:10605000E6FF2DC0E6FFBAEC34F0E552E552E5521A
:1060600002014B512B6E2C6A7C0E2B5E000E2C5ABB
:10607000410E2C02F3CF2CF02B02F3CF2BF0F45077
:106080002C267C0E226E236A2BC01DF02CC01EF025
:10609000A5EC2BF01DC02BF01EC02CF02BC0E6FF92
:1060A0002CC0E6FF360E2D6E320E2E6E2F6A2DC0DE
:1060B000E6FF2EC0E6FF2FC0E6FFBAEC34F0F56E27
:1060C000050EE15EF55002014C512B6E2C6A900ECC
:1060D0002B5E000E2C5A190E2C02F3CF2CF02B0243
:1060E000F3CF2BF0F4502C26320E226E236A2BC0F5
:1060F0001DF02CC01EF0A5EC2BF01DC02BF01EC017
:106100002CF02BC0E6FF2CC0E6FF1A0E2D6E320ECF
:106110002E6E2F6A2DC0E6FF2EC0E6FF2FC0E6FFD1
:10612000BAEC34F0F56E050EE15EF5500201005157
:106130002D6E2E6A0201CA512F6E306A2F502D5CCF
:106140002B6E30502E582C6E2BC0E6FF2CC0E6FF75
:10615000FE0E316E310E326E336A31C0E6FF32C050
:10616000E6FF33C0E6FFBAEC34F0F56E050EE15EF3
:10617000F550020101512D6E2E6A0201D2512F6E8F
:10618000306A2F502D5C2B6E30502E582C6E2BC049
:10619000E6FF2CC0E6FFE20E316E310E326E336A3E
:1061A00031C0E6FF32C0E6FF33C0E6FFBAEC34F0A0
:1061B000F56E050EE15EF55002010651E66EE66AE7
:1061C000C60E2B6E310E2C6E2D6A2BC0E6FF2CC036
:1061D000E6FF2DC0E6FFBAEC34F0F56E050EE15E89
:1061E000F55002010751E66EE66AAA0E2B6E310EDB
:1061F0002C6E2D6A2BC0E6FF2CC0E6FF2DC0E6FFFB
:10620000BAEC34F0F56E050EE15EF55016D00301E0
:106210000A2B1A0E0A5D11E30A6B960E2B6E310ED5
:106220002C6E2D6A2BC0E6FF2CC0E6FF2DC0E6FFCA
:0C623000BAEC34F0E552E552E5521200E1
:04623C009EB802D036
:10624000FDD7FCD71200D9CFE6FFE1CFD9FFFE0E74
:10625000DBCFE6FFD5EC2CF0E5520D0EAD6EEEDF98
:10626000E552E7CFD9FF1200D9CFE6FFE1CFD9FF42
:106270000301D950FD0F056FFF0EDA20066F010EE6
:10628000EA6A0525E96E0651EA22EF50E66ED5EC82
