:020000040000FA
:06080000C3EF2EF0120010
:020806000000F0
:06080800D5EF22F0120002
:02080E00C250D6
:08081000020B01E0010E1200D1
:06081800F8EF2BF01200C6
:02081E000A00CE
:10082000635E00004F0200000A000000615E0000ED
:1008300071020000020000005C5E00005E02000029
:1008400005000000585E0000630200000400000084
:100850003F5E00001F020000190000003D5E000026
:100860006F020000020000003A5E00006A02000011
:1008700003000000355E0000590200000500000082
:10088000060800006D02000002000000325E000059
:080890006702000003000000F4
:08089800D9CFE6FFE1CFD9FF43
:1008A000060EE12602016E51090A01E14DD3010A4B
:1008B00001E112D30F0A01E1EAD2010A01E147D2B4
:1008C000030A01E130D2010A01E17FD0070A62E0A8
:1008D000010A2EE0030A27E0010A01E04DD3010ED0
:1008E0006D6F02011E6B1E512B6E2C6A140E2B5C59
:1008F000000E2C5814E21E51EA6AE00FE96E070E52
:10090000EA22010EEFCFDBFF1E51EA6A000FE96E0B
:10091000020EEA22010EDBCFEFFF1E2BE4D702010D
:10092000010E6E6F29D337DB0201020E6E6F24D3E6
:1009300046EC1FF0DF6E610EDF5C0EE3DF507108E6
:100940000BE30201030E6E6FDFCF1CF2610EDF5C62
:10095000020F02011B6F1DD0750EDF5C06E1BBECC0
:1009600009F00201060E6E6F14D0760EDF5C04E112
:100970000201070E6E6F0DD0770EDF5C04E10201FD
:10098000080E6E6F06D0780EDF5C03E102016E6B1D
:100990006D6BF2D202011A6B46EC1FF0000901E008
:1009A000FBD7D10E2B6E360E2C6E2D6A2BC0E6FFB8
:1009B0002CC0E6FF2DC0E6FFAEEC2CF0E552E55270
:1009C000E5520201040E6E6FD7D246EC1FF0DF6EC7
:1009D000300EDF5C03E3DF50390806E22B0EDF5CEC
:1009E00003E02D0EDF5C19E102011A512B6E2C6A17
:1009F000060E2B5C000E2C5810E2DFCFE6FF4AEC0F
:100A00001FF0E55202011A51EA6A140FE96E020E54
:100A1000EA22DFCFEFFF1A2B85D10D0EDF5C01E05C
:100A200081D12D0E0201145D22E1040EDB68050E5A
:100A3000DB681A071E6B1E512B6E2C6A060E2B5C90
:100A4000000E2C5813E21E29EA6A140FE96E020EFA
:100A5000EA22EF50E66E1E51EA6A140FE96E020EAA
:100A6000EA22E552E750EF6E1E2BE5D72FD02B0E72
:100A7000145D25E1010EF36E040EF3CFDBFF050ECE
:100A8000DB6A1A071E6B1E512B6E2C6A060E2B5C3E
:100A9000000E2C5813E21E29EA6A140FE96E020EAA
:100AA000EA22EF50E66E1E51EA6A140FE96E020E5A
:100AB000EA22E552E750EF6E1E2BE5D707D0010E74
:100AC000F36E040EF3CFDBFF050EDB6A1A51030849
:100AD00008E2020EDB6A010EF36E030EF3CFDBFFBA
:100AE000CCD0030E1A5D56E1300E145D2B6E2C6ACD
:100AF000640E1D6E1E6A2BC022F02CC023F0DAECAF
:100B00002BF0020E1BC0DBFF030E1CC0DBFF300E00
:100B10000201155D2D6E2E6A0A0E1D6E1E6A2DC015
:100B200022F02EC023F0DAEC2BF01BC02BF01CC0FF
:100B30002CF0D950020FE96EDACFEAFF2B50EE26E7
:100B40002C50ED22300E0201165D2B6E2C6AD9500E
:100B5000020FE96EDACFEAFF2B50EE262C50ED2281
:100B6000040EDBCF2BF0050EDBCF2CF0D950020F9B
:100B7000E96EDACFEAFF2BC022F02CC023F0EECFD3
:100B80001DF0EDCF1EF0DAEC2BF01BC0EEFF1CC009
:100B9000EDFF73D0020E1A5D35E1300E145D0A0DC3
:100BA000F350E66ED950020FE96EDACFEAFFE55254
:100BB000E750EE6EED6A300E155D2B6E2C6AD95043
:100BC000020FE96EDACFEAFF2B50EE262C50ED2211
:100BD000040EDBCF2BF0050EDBCF2CF0D950020F2B
:100BE000E96EDACFEAFF2BC022F02CC023F0EECF63
:100BF0001DF0EDCF1EF0DAEC2BF01BC0EEFF1CC099
:100C0000EDFF3BD01A0526E1300E145DE66ED9509B
:100C1000020FE96EDACFEAFFE552E750EE6EED6AB9
:100C2000040EDBCF2BF0050EDBCF2CF0D950020FDA
:100C3000E96EDACFEAFF2BC022F02CC023F0EECF12
:100C40001DF0EDCF1EF0DAEC2BF01BC0EEFF1CC048
:100C5000EDFF13D01A5111E11B51EA6A000FE96E42
:100C6000020EEA22EF50E66ED950020FE96EDACF9B
:100C7000EAFFE552E750EE6EED6A660E02011C5D7A
:100C800003E06E0E1C5D26E1D950020FE96EDACF4B
:100C9000EAFF010EEE1801E1ED500BE0D950020F12
:100CA000E96EDACFEAFFFF0EEE1802E1FF0EED1853
:100CB0000DE11B51EA6A000FE96E020EEA22020EF4
:100CC000DBCFEFFF0201010E6E6F03D00201050EB4
:100CD0006E6F28D0020EDBCF2BF0030EDBCF2CF093
:100CE0000001800E2C141BE1020EDBCF2DF0030E51
:100CF000DBCF2EF02E3404E22D50FF08000E2E54D0
:100D00000EE302011B51EA6A000FE96E020EEA22AD
:100D1000020EDBCFEFFF0201010E6E6F03D0020166
:100D2000050E6E6F29D1B10E2B6E360E2C6E2D6A0C
:100D30002BC0E6FF2CC0E6FF2DC0E6FFAEEC2CF08A
:100D4000E552E552E5520201030E6E6F15D146ECF5
:100D50001FF0DF6E610EDF5C02E10101A307620E8E
:100D6000DF5C04E10A0E0101A35F90D0630EDF5C3B
:100D700003E10101A32B8AD0640EDF5C04E10A0EBB
:100D80000101A32783D0650EDF5C03E1A3C102F25A
:100D90007DD0660EDF5C03E1A3C103F277D0670E5E
:100DA000DF5C03E1A3C104F271D0680EDF5C03E1F4
:100DB0000101A42B6BD0690EDF5C04E10A0E010176
:100DC000A42764D06A0EDF5C03E10101A4075ED0B2
:100DD0006B0EDF5C04E10A0E0101A45F57D06C0EBC
:100DE000DF5C03E1A4C10AF251D06D0EDF5C03E1C8
:100DF000A4C10BF24BD06E0EDF5C03E1A4C10CF278
:100E000045D06F0EDF5C3CE1AE0E2B6E360E2C6EC5
:100E10002D6A2BC0E6FF2CC0E6FF2DC0E6FFAEEC2E
:100E20002CF0E552E552E5520101A351E66EE66A67
:100E3000A30E2B6E360E2C6E2D6A2BC0E6FF2CC037
:100E4000E6FF2DC0E6FFAEEC2CF0F56E050EE15E80
:100E5000F5500101A451E66EE66A990E2B6E360E2E
:100E60002C6E2D6A2BC0E6FF2CC0E6FF2DC0E6FFDE
:100E7000AEEC2CF0F56E050EE15EF5507CDA06D096
:100E8000700EDF5C03E10201010E6E6F75D002018E
:100E9000026B7C0E036FF80E046F030E056F060ED7
:100EA000066F07693E0E086F4F0E096F5E0E0A6FE0
:100EB000900E0B6FC20E0C6F080E0D6F060E0E6FAC
:100EC000010E0F6F320E106F770E116F050E126F3D
:100ED0000201010E6E6F50D002011E6B1E512B6E6F
:100EE0002C6A140E2B5C000E2C5814E21E51EA6A78
:100EF000000FE96E020EEA22010EEFCFDBFF1E515A
:100F0000EA6AE00FE96E070EEA22010EDBCFEFFF7F
:100F10001E2BE4D7200EE66EE66A5EDBE552E55254
:100F2000830E2B6E360E2C6E2D6A2BC0E6FF2CC066
:100F3000E6FF2DC0E6FFAEEC2CF0E552E552E5529F
:100F40000201090E6E6F18D081EC2BF0200813E11E
:100F50007C0E2B6E360E2C6E2D6A2BC0E6FF2CC03D
:100F6000E6FF2DC0E6FFAEEC2CF0E552E552E5526F
:100F70000201010E6E6F00D002016D51F56E060E7A
:100F8000E15C03E200D0E16AE552E16EF550E55222
:100F9000E7CFD9FF1200AE0E2B6E360E2C6E2D6AE7
:100FA0002BC0E6FF2CC0E6FF2DC0E6FFAEEC2CF018
:100FB000E552E552E552AE0E2B6E360E2C6E2D6AC2
:100FC0002BC0E6FF2CC0E6FF2DC0E6FFAEEC2CF0F8
:100FD000E552E552E55202010251E66EE66A5E0E06
:100FE0002B6E360E2C6E2D6A2BC0E6FF2CC0E6FF52
:100FF0002DC0E6FFAEEC2CF0F56E050EE15EF5506F
:1010000002010351E66EE66A3D0E2B6E360E2C6E23
:101010002D6A2BC0E6FF2CC0E6FF2DC0E6FFAEEC2C
:101020002CF0F56E050EE15EF55002010451E66EFE
:10103000E66A1F0E2B6E360E2C6E2D6A2BC0E6FF55
:101040002CC0E6FF2DC0E6FFAEEC2CF0F56E050ED1
:10105000E15EF55002010551E66EE66A040E2B6E64
:10106000360E2C6E2D6A2BC0E6FF2CC0E6FF2DC07D
:10107000E6FFAEEC2CF0F56E050EE15EF5500201D8
:101080000651E66EE66ADE0E2B6E350E2C6E2D6A6C
:101090002BC0E6FF2CC0E6FF2DC0E6FFAEEC2CF027
:1010A000F56E050EE15EF55007C22BF02C6A2BBEE3
:1010B0002C682BC0E6FF2CC0E6FFB90E2D6E350E56
:1010C0002E6E2F6A2DC0E6FF2EC0E6FF2FC0E6FF72
:1010D000AEEC2CF0F56E050EE15EF5500201085104
:1010E000E66EE66A920E2B6E350E2C6E2D6A2BC0C4
:1010F000E6FF2CC0E6FF2DC0E6FFAEEC2CF0F56E4F
:10110000050EE15EF55002010951E66EE66A6F0ECA
:101110002B6E350E2C6E2D6A2BC0E6FF2CC0E6FF21
:101120002DC0E6FFAEEC2CF0F56E050EE15EF5503D
:1011300002010A51E66EE66A500E2B6E350E2C6ED9
:101140002D6A2BC0E6FF2CC0E6FF2DC0E6FFAEECFB
:101150002CF0F56E050EE15EF55002010B51E66EC6
:10116000E66A2E0E2B6E350E2C6E2D6A2BC0E6FF16
:101170002CC0E6FF2DC0E6FFAEEC2CF0F56E050EA0
:10118000E15EF55002010C51E66EE66A0F0E2B6E21
:10119000350E2C6E2D6A2BC0E6FF2CC0E6FF2DC04D
:1011A000E6FFAEEC2CF0F56E050EE15EF5500201A7
:1011B0000D51E66EE66AF30E2B6E340E2C6E2D6A20
:1011C0002BC0E6FF2CC0E6FF2DC0E6FFAEEC2CF0F6
:1011D000F56E050EE15EF55002010E51E66EE66A0F
:1011E000CC0E2B6E340E2C6E2D6A2BC0E6FF2CC05D
:1011F000E6FF2DC0E6FFAEEC2CF0F56E050EE15ECD
:10120000F5500FC22BF02C6A2BBE2C682BC0E6FFCA
:101210002CC0E6FFA60E2D6E340E2E6E2F6A2DC04A
:10122000E6FF2EC0E6FF2FC0E6FFAEEC2CF0F56E19
:10123000050EE15EF55002011051E66EE66A7E0E83
:101240002B6E340E2C6E2D6A2BC0E6FF2CC0E6FFF1
:101250002DC0E6FFAEEC2CF0F56E050EE15EF5500C
:1012600002011151E66EE66A5A0E2B6E340E2C6E98
:101270002D6A2BC0E6FF2CC0E6FF2DC0E6FFAEECCA
:101280002CF0F56E050EE15EF55002011251E66E8E
:10129000E66A3B0E2B6E340E2C6E2D6A2BC0E6FFD9
:1012A0002CC0E6FF2DC0E6FFAEEC2CF0F56E050E6F
:1012B000E15EF550AE0E2B6E360E2C6E2D6A2BC0F5
:1012C000E6FF2CC0E6FF2DC0E6FFAEEC2CF0E552A9
:1012D000E552E552150E2B6E340E2C6E2D6A2BC086
:1012E000E6FF2CC0E6FF2DC0E6FFAEEC2CF0E55289
:1012F000E552E552FB0E2B6E330E2C6E2D6A2BC081
:10130000E6FF2CC0E6FF2DC0E6FFAEEC2CF0E55268
:10131000E552E552E80E2B6E330E2C6E2D6A2BC073
:10132000E6FF2CC0E6FF2DC0E6FFAEEC2CF0E55248
:10133000E552E552DD0E2B6E330E2C6E2D6A2BC05E
:10134000E6FF2CC0E6FF2DC0E6FFAEEC2CF0E55228
:10135000E552E552AE0E2B6E360E2C6E2D6A2BC06A
:10136000E6FF2CC0E6FF2DC0E6FFAEEC2CF0E55208
:10137000E552E5521200AE0E2B6E360E2C6E2D6A23
:101380002BC0E6FF2CC0E6FF2DC0E6FFAEEC2CF034
:10139000E552E552E552AE0E2B6E360E2C6E2D6ADE
:1013A0002BC0E6FF2CC0E6FF2DC0E6FFAEEC2CF014
:1013B000E552E552E552C50E2B6E330E2C6E2D6AAA
:1013C0002BC0E6FF2CC0E6FF2DC0E6FFAEEC2CF0F4
:1013D000E552E552E552AC0E2B6E330E2C6E2D6AA3
:1013E0002BC0E6FF2CC0E6FF2DC0E6FFAEEC2CF0D4
:1013F000E552E552E552930E2B6E330E2C6E2D6A9C
:101400002BC0E6FF2CC0E6FF2DC0E6FFAEEC2CF0B3
:10141000E552E552E552790E2B6E330E2C6E2D6A95
:101420002BC0E6FF2CC0E6FF2DC0E6FFAEEC2CF093
:10143000E552E552E5525D0E2B6E330E2C6E2D6A91
:101440002BC0E6FF2CC0E6FF2DC0E6FFAEEC2CF073
:10145000E552E552E5523E0E2B6E330E2C6E2D6A90
:101460002BC0E6FF2CC0E6FF2DC0E6FFAEEC2CF053
:10147000E552E552E552220E2B6E330E2C6E2D6A8C
:101480002BC0E6FF2CC0E6FF2DC0E6FFAEEC2CF033
:10149000E552E552E5520B0E2B6E330E2C6E2D6A83
:1014A0002BC0E6FF2CC0E6FF2DC0E6FFAEEC2CF013
:1014B000E552E552E552F30E2B6E320E2C6E2D6A7C
:1014C0002BC0E6FF2CC0E6FF2DC0E6FFAEEC2CF0F3
:1014D000E552E552E552DA0E2B6E320E2C6E2D6A75
:1014E0002BC0E6FF2CC0E6FF2DC0E6FFAEEC2CF0D3
:1014F000E552E552E552C00E2B6E320E2C6E2D6A6F
:101500002BC0E6FF2CC0E6FF2DC0E6FFAEEC2CF0B2
:10151000E552E552E552A30E2B6E320E2C6E2D6A6B
:101520002BC0E6FF2CC0E6FF2DC0E6FFAEEC2CF092
:10153000E552E552E552830E2B6E320E2C6E2D6A6B
:101540002BC0E6FF2CC0E6FF2DC0E6FFAEEC2CF072
:10155000E552E552E552660E2B6E320E2C6E2D6A68
:101560002BC0E6FF2CC0E6FF2DC0E6FFAEEC2CF052
:10157000E552E552E552450E2B6E320E2C6E2D6A69
:101580002BC0E6FF2CC0E6FF2DC0E6FFAEEC2CF032
:10159000E552E552E552220E2B6E320E2C6E2D6A6C
:1015A0002BC0E6FF2CC0E6FF2DC0E6FFAEEC2CF012
:1015B000E552E552E552AE0E2B6E360E2C6E2D6ABC
:1015C0002BC0E6FF2CC0E6FF2DC0E6FFAEEC2CF0F2
:1015D000E552E552E5521200D9CFE6FFE1CFD9FF3F
:1015E000050EE126030EDB6A040EDB6A0701470ED7
:1015F000E06F4B0EE16FDE6ADD6ADECF2BF0DDCFF0
:101600002CF0130E2B5C000E2C5834E2DECFE9FFD9
:10161000DDCFEAFFE00EE926070EEA22020EEFCF49
:10162000DBFFDBCFE6FFFD0EDBCF2DF0FE0EDBCFC9
:101630002EF0DE502D242B6EDD502E202C6E2BC074
:10164000E6FF2CC0E6FFDAEC2AF0E552E552E5525F
:10165000020EDB502B6E2C6AD950030FE96EDACFE5
:10166000EAFF2B50EE262C50ED22DF2A010E01E37B
:10167000DB2AC3D7030EDBCFE6FF140EE76EFD0EA9
:10168000DBCF2BF0FE0EDBCF2CF0E7502B26000E2D
:101690002C222B062C5A2BC0E6FF2CC0E6FFDAECDE
:1016A0002AF0E552E552E552F56E050EE15C02E2E4
:1016B000E16AE552E16EF550E552E7CFD9FF12003D
:1016C0009EEC10F0FB0EDBCFF3FFDB06F3500009BE
:1016D0000AE0ECEC10F0FA0E57EC11F0F3E12C1CE0
:1016E000F1E1010E01D0000ECDEF10F09EEC10F0F4
:1016F0003B0EE12402E3E168E652E16E010EDB6A93
:10170000020EDB6AF90EDBCFF6FFFA0EDBCFF7FF36
:10171000FB0EDBCFF8FF0800F550DF6EDF5002E173
:10172000EFEF0FF0250EDF5C02E0E2EF0FF0030EAB
:10173000DB6A040EDB6A050EDB6A060EDB6A070E47
:10174000DB6A06EC10F02D0EDF5C0CE02B0EDF5C8C
:1017500009E0200EDF5C06E0230EDF5C03E0300EC4
:10176000DF5C1AE1DF50300A14E0130A0FE0030ACD
:101770000AE00B0A05E0060AE4E1030EDB80E1D78C
:10178000030EDB82DED7030EDB84DBD7030EDB86A2
:10179000D8D7030EDB88D5D72A0EDF5C1BE102EC1D
:1017A00010F050EC10F010E0030EDB801D681E6896
:1017B000130EDBCF22F0140EDBCF23F0ADEC2BF0B9
:1017C000040E1BC0DBFF03D0130E39EC10F006EC47
:1017D00010F00BD0090EDB6AA7EC10F003E01BEC55
:1017E00011F0FAD7090E39EC10F0030EDBB0DB98DC
:1017F0002E0EDF5C1BE106EC10F02A0EDF5C0BE125
:1018000002EC10F050EC10F003E1130E8BEC10F032
:1018100006EC10F00BD0090EDB6AA7EC10F003E029
:101820001BEC11F0FAD7090E8BEC10F0680EDF5CA0
:1018300007E106EC10F0680EDF5C1DE1030E18D026
:10184000740EDF5C17E07A0EDF5C14E0480EDF5C9C
:1018500006E0540EDF5C03E05A0EDF5C02E1020E8C
:1018600007D06C0EDF5C03E06A0EDF5C04E1010E62
:10187000DEEC10F0CBDBDF506E0A01E17FD31E0AF5
:1018800001E192D1200A01E18FD13F0A01E149D162
:101890001A0A01E146D10D0A01E143D1200A01E112
:1018A00040D13A0A01E13DD1200A01E13AD1260AAC
:1018B00001E135D10D0A01E132D11A0A01E1D9D095
:1018C000200A4AE0300A1FE0460A0EE0250A01E03D
:1018D00083D3D950F90FE96EFF0EDA20EA6E010EBC
:1018E000EE5E000EEE5AEE5AECEC10F0250EE66EAF
:1018F00097DB03E12C1C01E169D3E8EC10F001E275
:101900006BD3DB2A69D3080EDB6A040EDB500108B7
:1019100006E2040EDB04B0EC10F0DB508DDB080EA9
:10192000DB5009E0030EDB50010B05E174DB01E045
:101930004DD3080EDB6A66DBEFCFDFFF60EC11F002
:1019400003E12C1C01E142D3E8EC10F001E3DB2AB7
:1019500062DB01E141D33AD3070EDB5002080FE10D
:101960002CEC11F0030EF3EC10F00E0EEECFDBFFBB
:101970000F0EEECFDBFF100EEECFDBFF20D0F70E09
:10198000DBCF2EF0F80EDBCF2FF0020E2E5E000E16
:101990002F5AF70E2EC0DBFFF80E2FC0DBFF2EC034
:1019A000E9FF2FC0EAFFE3EC10F02D6A0E0E2BC00A
:1019B000DBFF0F0E2CC0DBFF100E2DC0DBFF0E0E69
:1019C000DBCFE6FF0F0EDBCFE6FF100EDBCFE6FF2F
:1019D00023EC2DF0E552E552E552130E1CC0DBFF5F
:1019E000140E1DC0DBFF060EDB5005E0130E27ECC6
:1019F00011F001E26CDB4BEC11F002E2130E39DB6B
:101A00000EEC11F006E0040E27EC11F002E2050ED8
:101A100030DB030EDBB005D0FEDA01E0D7D2080ED2
:101A2000DB6A090EDB6A0E0EDBCFF6FF0F0EDBCF93
:101A3000F7FF100EDBCFF8FF0800F550DF6EDF5028
:101A400014E051EC11F011E260EC11F003E12C1CF8
:101A500001E1BCD2BDDB01E3DB2A090EDB2AD95050
:101A60000E0FE96E000ECDDBE7D7D5DA01E1B4D277
:101A7000ADD2C8DA110EEECFDBFF120EEDCFDBFFD9
:101A8000110EDBCFE6FF120EDBCFE6FF15EC2DF0DB
:101A9000E552E552130EF3CFDBFF140EF4CFDBFF5C
:101AA000060EDB5004E0130ED2DB01E210DB4BEC40
:101AB00011F002E2130EDDDAB1DB05E0040EC7DB44
:101AC00002E2050ED6DA030EDBB005D0A4DA01E09F
:101AD0007DD2080EDB6A090EDB6A110EDBCFE9FF4F
:101AE000120EDBCFEAFFEFCFDFFFDF5014E0D9DBD0
:101AF00012E2E6DB03E12C1C01E168D269DB01E3C1
:101B0000DB2A090EDB2A110EDB2ADBCFE9FF120EDE
:101B1000E8E3DB2AE6D77FDA01E15ED257D2030E93
:101B2000DB8E070EDB0410E197DB040E5CDB0A0E94
:101B3000EECFDBFF0B0EEECFDBFF0C0EEECFDBFFAD
:101B40000D0EEECFDBFF6CD0070EDB5003082CE14F
:101B5000030EDBAE0DD0B4DA020E78DAEFCF2BF045
:101B60002C6A2D6A2E6A2BAE39D02C682D6835D0A0
:101B7000F70EDBCF2CF0F80EDBCF2DF0020E2C5E33
:101B8000000E2D5AF70E2CC0DBFFF80E2DC0DBFF28
:101B90002CC0E9FF2DC0EAFFEFCF2BF00A0E2BC0BF
:101BA000DBFF0B0EDB6A38D0070EDB50020809E1C1
:101BB000030EDBAE04D05BDB2DAE10D00ED057DBB6
:101BC0000DD0030EDBAE12D07BDA020E3FDAFBDA69
:101BD0002D6A2E6A2CAE02D02D682E68E4DA0C0E27
:101BE0002DC0DBFF0D0E2EC0DBFF1AD0F70EDBCFB2
:101BF0002DF0F80EDBCF2EF0020E2D5E000E2E5AC9
:101C0000F70E2DC0DBFFF80E2EC0DBFF2DC0E9FF65
:101C10002EC0EAFFD8DAC7DA0C0EDB6A0D0EDB6ADB
:101C2000060EDB5005E1010EF36E050EF3CFDBFF70
:101C3000150EDB6A160EDB6AD950370F2B6E000EBD
:101C4000DA202C6E390E2BC0DBFF3A0E2CC0DBFFE6
:101C5000380EDB6A080EDB6A0A0EB0DADF50780A4B
:101C600012E0200A10E0280A0CE0200A0AE03F0AED
:101C700006E00D0A02E0200A08E1020E05D0080E77
:101C800003D0080EDF26100E99DA030EDBBE02D059
:101C9000DB92DB94DB50800B24E08CDAD890030ECF
:101CA000EB50000A08E6000EEE5C000EEE58000E47
:101CB000EE58000EEE5815E215DA20682168226809
:101CC00023688AEC2DF00A0E17C0DBFF0B0E18C03C
:101CD000DBFF0C0E19C0DBFF0D0E1AC0DBFF2D0E53
:101CE00008D0030EDBA202D02B0E03D0DBA408D059
:101CF000200EF36E170EF3CFDBFF150EDB2A02D09A
:101D0000170EDB6A050EDB5003E1B9D901E189D07A
:101D1000160E2B6E5E0E2C6E000E2D6E070EDBCF98
:101D20002EF02F6A306A316A2EC020F02FC021F0C9
:101D300030C022F031C023F0D5D958EC2EF02B5012
:101D40001724F36E2C501820F46E2D501920F86EC5
:101D5000F4CFF7FFF3CFF6FF0800090EF5CFDBFF56
:101D6000580EDF5C0FE1610EF36E090E7DD90AE3B8
:101D7000200E2B6E090EDBCFE7FF2B50E75E090E1E
:101D8000E7CFDBFF070EDBCF2BF02C6A2D6A2E6A24
:101D900011DA2BC020F02CC021F02DC022F02EC073
:101DA00023F0EECF1BF0EECF1CF0EECF1DF0EFCF07
:101DB0001EF058EC2EF01EC0EDFF1DC0EDFF1CC044
:101DC000EDFF1BC0EFFF390EDBCFE9FFDB063A0E5C
:101DD000DBCFEAFF01E2DB06090EDBCFEFFF150EDA
:101DE000DB2A4DD995E1030EDBA61DD06F0EDF5C1B
:101DF00006E1C3D918E3150EDB285DDA14D0780E9E
:101E0000DF5C09E0580EDF5C06E0620EDF5C03E099
:101E1000420EDF5C08E1020EF36E160EF3CFDBFF1D
:101E200002D0150EDB6A030EDB50100B0EE0040E21
:101E3000DBCF2BF0050EDB50D8802B5406E2060ECC
:101E4000DB5003E1040EDB5036DA97D90AE2050EC7
:101E5000DBCFE7FF150EDB50E75E050EE7CFDBFFBC
:101E600002D0050EDB6A040EDBCF2BF0160E47D92D
:101E7000D8802B5414E2160EDBCFE6FF150EDBCF15
:101E8000E6FF040EDBCFE6FF050EDB50E552E75C14
:101E9000E552D880E754E552D880E75461D9030E63
:101EA000DB50010B0BE1080EDB5008E0B4D801E079
:101EB0008DD0080EDB50C0D8080EDB6A170EDB5041
:101EC00007E08AD9170EF3D903E12C1C01E17ED07B
:101ED000160EDB5016E080D9300EE66EA1D802E176
:101EE0002C1C74E079D9DFCFE6FF48EC2DF0E552E9
:101EF000E552E552F4CF2CF00001F31C02E12C1C5A
:101F000065E0050EDBCF2BF0160EDB50D8802B548E
:101F100009E2050EDBCFE7FF160EDB50E75E050E8C
:101F2000E7CFDBFF300EE66E050ECDD94FE1390E5F
:101F3000DB2ADBCFE9FF3A0E01E3DB2ADBCFEAFF46
:101F4000090EEFCFDBFFDB500EE046D9090EAFD90B
:101F500002E12C1C3BE0390EDB2ADBCFE9FF3A0E15
:101F6000EDE3DB2AEBD757D831E1160EDBCFE6FFE6
:101F7000080EC5D8E552E7245FD82ED0070EDB50F7
:101F8000030A1CE0010A14E0030A07E07DD9DBCF55
:101F9000EEFF020EDBCFEDFF1FD0F7D8306A2EAE7A
:101FA00002D02F6830682ED8BED830C0EEFF14D0D3
:101FB000ECD82EBE2F6826D8B6D80ED065D9DBCF88
:101FC000EFFF0AD07DD905E12C1C03E1F368F4682A
:101FD00010D0FED801E3DB2A7BD98BEF0BF0010E8A
:101FE000DBCF2BF0020EDBCF2CF02BC0F3FF2CC08D
:101FF000F4FFF56E3B0EE15C02E2E16AE552E16E50
:10200000F550CBD029D9020EF3EF10F061D90800BA
:10201000F550DF6E1200200EE66E080E63EF11F031
:1020200048EC2DF0E552E552E552F3CF2BF0F4CF1A
:102030002CF00001F31C12002B6E2C6AD950010FFA
:102040004DD92B50EE262C50ED2212002F5E000EA3
:10205000305AF70E2FC0DBFFF80E30C0DBFF2FC069
:10206000E9FF30C0EAFF1200DBCFF4FFF350F45C6D
:102070001200DB50E76E040EE7CFDBFF12000A0E02
:10208000DBCF2BF00B0EDBCF2CF00C0EDBCF2DF0CB
:102090000D0EDBCF2EF02B502C102D102E10120019
:1020A000130EEECFDBFF140EEDCFDBFF130EDBCFF5
:1020B0002BF0140EDBCF2CF00001800E2C1412003C
:1020C000F70EDBCF2FF0F80EDBCF30F01200050E4D
:1020D000DB50E66ED950130F01D9E552E750EE6E92
:1020E000ED6A12000A0EDBCF1BF00B0EDBCF1CF0EB
:1020F0000C0EDBCF1DF00D0EDBCF1EF01200DBCF80
:10210000E6FF150EDBCFE6FF050EDB50E552E724B8
:10211000E552E7241200DB50CED8010EF36E060E16
:10212000F3CFDBFF1200EE50EFCFEAFFE96E2DC0D8
:10213000EEFF2EC0EEFF2FC0EEFF1200D9CFE6FF5C
:10214000DACFE6FFE1CFD9FFE2CFDAFF1200DFCF2F
:10215000E6FFE66AB1EC2EF0E552E552F3501200CC
:10216000E76E080EE7CFDBFF1200EECF2BF0EECFCD
:102170002CF0EFCF2DF02E6A1200050EDBCF2BF0E6
:10218000150EDB50D8802B541200010EDBCF2DF042
:10219000020EDBCF2EF02F6A1200E552E5CFDAFFF8
:1021A000E7CFD9FF12000A0E2BC0DBFF0B0E2CC0AD
:1021B000DBFF1200D9500A0F6EEF11F0F36E070E1D
:1021C000F3CFDBFF1200EECF2BF0EFCF2CF012009D
:1021D000010EDB2A020E1200FC0EDBCFE6FFFD0E25
:1021E000DBCFE6FF12002B5E000E2C5AF70E2BC041
:1021F000DBFFF80E2CC0DBFF2BC0E9FF2CC0EAFF91
:102200001200DA20EA6EEF2AEECFF6FF000EEF2280
:10221000EECFF7FFEF22EECFF8FF1200040EDBCF78
:10222000E6FF130EDB50E552E75C9ADFDB5004DF7C
:10223000060EDB501200090EDB500A0DF350DF24AE
:10224000D00FE76E090EE7CFDBFF06EF10F0DB5093
:10225000F36E050E34EF10F0F70EDBCF2BF0F80E17
:10226000DBCF2CF01200DFCFE6FF10EF10F028DFFD
:10227000030EECDEB5EF10F060EC0BF0E552E5522A
:10228000E552E55200091200BDDEEE50EFCFEAFF45
:10229000E96E010E1200130EDB50F36E040E34EFE4
:1022A00010F0040EDB50F36E090E34EF10F0DBCFAC
:1022B000E6FF10EF10F0E76E050EE7CFDBFF120030
:1022C0008BDF33EF11F0DBCFE6FF86DF3CEF11F061
:1022D000D950F90FE96EFF0E01EF11F0E96E000E13
:0622E000DA20EA6E120094
:0A22E600D9CFE6FFE1CFD9FF040EC7
:1022F000E126020172510A0A01E19AD2030A01E1C0
:1023000081D2010A01E166D20F0A01E12BD2010A52
:1023100001E104D2030A01E1EDD1010A01E189D012
:10232000070A6CE0010A2EE0030A27E0010A01E037
:1023300087D2010E716F0101FF6BFF512B6E2C6A6A
:10234000160E2B5C000E2C5814E2FF51EA6A600F47
:10235000E96E010EEA22030EEFCFDBFFFF51EA6ABE
:10236000E00FE96E010EEA22030EDBCFEFFFFF2B39
:10237000E4D70201010E726F63D271DA0201020E1C
:10238000726F5ED246EC1FF0E76E020EE7CFDBFF06
:10239000610EF36E020EDBCFF4FFF350F45C0EE33C
:1023A000020EDB5073080AE30201030E726F020E85
:1023B000DB509F0F020F0101FD6F1FD0020EDB509B
:1023C000750804E10201090E726F17D0020EDB508E
:1023D000760804E10201060E726F0FD0020EDB5088
:1023E000770804E10201070E726F07D0020EDB507E
:1023F000780803E10201726B716B22D20101FC6B60
:1024000046EC1FF0000901E0FBD72E0E2B6E310EBB
:102410002C6E2D6A2BC0E6FF2CC0E6FF2DC0E6FF18
:10242000AEEC2CF0E552E552E5520201040E726F5B
:1024300007D246EC1FF0E76E020EE7CFDBFF300E4F
:10244000F36E020EDBCFF4FFF350F45C04E3020EF4
:10245000DB50390820E2610EF36E020EDBCFF4FF91
:10246000F350F45C04E3020EDB50660814E2410E04
:10247000F36E020EDBCFF4FFF350F45C04E3020EC4
:10248000DB50460808E2020EDB50780804E0020E3A
:10249000DB50580835E10101FC512B6E2C6A060E09
:1024A0002B5C000E2C582CE2610EF36E020EDBCF7B
:1024B000F4FFF350F45C04E3020EDB50660804E220
:1024C000020EDB5078080AE1200E2B6E020EDBCFE5
:1024D000E7FF2B50E75E020EE7CFDBFF020EDBCFFC
:1024E000E6FF4AEC1FF0E5520101FC51EA6AF60FE3
:1024F000E96E010EEA22020EDBCFEFFFFC2BF9D0D2
:10250000020EDB500D0801E0F4D0300E0101F65D43
:1025100001E079D0580EF75D76E1FC51040804E241
:10252000DE6A010EDD6E6ED0040EFC5D44E1300EFD
:10253000F85D0AE3F851390807E3300EF85D100D35
:10254000F350DE6EDD6A14D0410EF85D0BE3F851F6
:10255000460808E3410EF85D0A0F100DF350DE6ED9
:10256000DD6A06D0580EF85D03E1DE6A010EDD6E0D
:10257000300EF95D09E3F951390806E3300EF95DD3
:10258000DE26000EDD2216D0410EF95D0AE3F95178
:10259000460807E3410EF95D0A0FDE26000EDD2234
:1025A00009D0580EF95D06E1D9CFE9FFDACFEAFF8D
:1025B000EE52ED2A27D0030EFC5D21E1300EF85DCE
:1025C00008E3F851390805E3300EF85DDE6EDD6A88
:1025D00015D0410EF85D09E3F851460806E3410EB7
:1025E000F85D0A0FDE6EDD6A09D0580EF85D06E16F
:1025F000D9CFE9FFDACFEAFFEE52ED2A03D0DE6A47
:10260000010EDD6E5DD0FC51030804E2DE6A010EAE
:10261000DD6E56D0030EFC5D32E1300EF65D2B6EA2
:102620002C6A640E1D6E1E6A2BC022F02CC023F093
:10263000DAEC2BF01BC0DEFF1CC0DDFF300E010109
:10264000F75D2D6E2E6A0A0E1D6E1E6A2DC022F0D9
:102650002EC023F0DAEC2BF01BC02BF01CC02CF0AA
:10266000D9CFE9FFDACFEAFF2B50EE262C50ED222E
:10267000300E0101F85DDE26000EDD2221D0020EB3
:10268000FC5D0CE1300EF65D0A0DF350DE6EDD6A86
:10269000300EF75DDE26000EDD2212D0FC0505E1CE
:1026A000300EF65DDE6EDD6A0BD0FC5109E1FD51A6
:1026B000EA6AE00FE96E010EEA22EF50DE6EDD6A93
:1026C000D9CFE9FFDACFEAFFFF0ED880EE54000E33
:1026D000ED540CE3FD51EA6AE00FE96E010EEA22C7
:1026E000DFCFEFFF0201010E726F03D00201050E72
:1026F000726FA6D00E0E2B6E310E2C6E2D6A2BC073
:10270000E6FF2CC0E6FF2DC0E6FFAEEC2CF0E55254
:10271000E552E5520201030E726F92D00101550E8F
:10272000E26F730EE36F0F0EE46F110EE56F640E30
:10273000E66F910EE76FE86BE96B800EEA6FEB6F67
:10274000EC6F010EED6FEE6F200EEF6FF06F800EED
:10275000F16FF26F200EF36F840EF46F0201010E21
:10276000726F6ED00101FF6BFF512B6E2C6A160E3B
:102770002B5C000E2C5814E2FF51EA6AE00FE96E60
:10278000010EEA22030EEFCFDBFFFF51EA6A600F72
:10279000E96E010EEA22030EDBCFEFFFFF2BE4D739
:1027A000000EE66EE66AB4DAE552E552F80E2B6EDC
:1027B000300E2C6E2D6A2BC0E6FF2CC0E6FF2DC01C
:1027C000E6FFAEEC2CF0E552E552E5520201080EB0
:1027D000726F36D081EC2BF0200813E1F10E2B6ED6
:1027E000300E2C6E2D6A2BC0E6FF2CC0E6FF2DC0EC
:1027F000E6FFAEEC2CF0E552E552E5520201010E87
:10280000726F1ED0D80E2B6E300E2C6E2D6A2BC020
:10281000E6FF2CC0E6FF2DC0E6FFAEEC2CF0E55243
:10282000E552E552D0EC1EF002010A0E726F08D09C
:10283000D3EC1EF0010803E10201010E726F00D01B
:1028400002017151F56E040EE15C03E200D0E16A11
:10285000E552E16EF550E552E7CFD9FF1200D50EF3
:102860002B6E300E2C6E2D6A2BC0E6FF2CC0E6FFBF
:102870002DC0E6FFAEEC2CF0E552E552E552B90E64
:102880002B6E300E2C6E2D6A2BC0E6FF2CC0E6FF9F
:102890002DC0E6FFAEEC2CF0E552E552E552010109
:1028A000E251E66EE66AE251E66EE66A980E2B6E3B
:1028B000300E2C6E2D6A2BC0E6FF2CC0E6FF2DC01B
:1028C000E6FFAEEC2CF0F56E070EE15EF55001016F
:1028D000E351E66EE66AE351E66EE66A770E2B6E2A
:1028E000300E2C6E2D6A2BC0E6FF2CC0E6FF2DC0EB
:1028F000E6FFAEEC2CF0F56E070EE15EF55001013F
:10290000E451E66EE66AE451E66EE66A560E2B6E18
:10291000300E2C6E2D6A2BC0E6FF2CC0E6FF2DC0BA
:10292000E6FFAEEC2CF0F56E070EE15EF55001010E
:10293000E551E66EE66AE551E66EE66A350E2B6E07
:10294000300E2C6E2D6A2BC0E6FF2CC0E6FF2DC08A
:10295000E6FFAEEC2CF0F56E070EE15EF5500101DE
:10296000E651E66EE66AE651E66EE66A140E2B6EF6
:10297000300E2C6E2D6A2BC0E6FF2CC0E6FF2DC05A
:10298000E6FFAEEC2CF0F56E070EE15EF5500101AE
:10299000E751E66EE66AE751E66EE66AF30E2B6EE5
:1029A0002F0E2C6E2D6A2BC0E6FF2CC0E6FF2DC02B
:1029B000E6FFAEEC2CF0F56E070EE15EF55001017E
:1029C000E851E66EE66AE851E66EE66AD50E2B6ED1
:1029D0002F0E2C6E2D6A2BC0E6FF2CC0E6FF2DC0FB
:1029E000E6FFAEEC2CF0F56E070EE15EF550BF0E83
:1029F0002B6E2F0E2C6E2D6A2BC0E6FF2CC0E6FF2F
:102A00002DC0E6FFAEEC2CF0E552E552E552010197
:102A1000E951E66EE66AE951E66EE66AA00E2B6EB3
:102A20002F0E2C6E2D6A2BC0E6FF2CC0E6FF2DC0AA
:102A3000E6FFAEEC2CF0F56E070EE15EF5500101FD
:102A4000EA51E66EE66AEA51E66EE66A810E2B6EA0
:102A50002F0E2C6E2D6A2BC0E6FF2CC0E6FF2DC07A
:102A6000E6FFAEEC2CF0F56E070EE15EF5500101CD
:102A7000EB51E66EE66AEB51E66EE66A620E2B6E8D
:102A80002F0E2C6E2D6A2BC0E6FF2CC0E6FF2DC04A
:102A9000E6FFAEEC2CF0F56E070EE15EF55001019D
:102AA000EC51E66EE66AEC51E66EE66A430E2B6E7A
:102AB0002F0E2C6E2D6A2BC0E6FF2CC0E6FF2DC01A
:102AC000E6FFAEEC2CF0F56E070EE15EF55001016D
:102AD000ED51E66EE66AED51E66EE66A240E2B6E67
:102AE0002F0E2C6E2D6A2BC0E6FF2CC0E6FF2DC0EA
:102AF000E6FFAEEC2CF0F56E070EE15EF55001013D
:102B0000EE51E66EE66AEE51E66EE66A050E2B6E53
:102B10002F0E2C6E2D6A2BC0E6FF2CC0E6FF2DC0B9
:102B2000E6FFAEEC2CF0F56E070EE15EF55001010C
:102B3000EF51E66EE66AEF51E66EE66AE50E2B6E41
:102B40002E0E2C6E2D6A2BC0E6FF2CC0E6FF2DC08A
:102B5000E6FFAEEC2CF0F56E070EE15EF5500101DC
:102B6000F051E66EE66AF051E66EE66AC50E2B6E2F
:102B70002E0E2C6E2D6A2BC0E6FF2CC0E6FF2DC05A
:102B8000E6FFAEEC2CF0F56E070EE15EF5500101AC
:102B9000F151E66EE66AF151E66EE66AA50E2B6E1D
:102BA0002E0E2C6E2D6A2BC0E6FF2CC0E6FF2DC02A
:102BB000E6FFAEEC2CF0F56E070EE15EF55001017C
:102BC000F251E66EE66AF251E66EE66A850E2B6E0B
:102BD0002E0E2C6E2D6A2BC0E6FF2CC0E6FF2DC0FA
:102BE000E6FFAEEC2CF0F56E070EE15EF55001014C
:102BF000F351E66EE66AF351E66EE66A650E2B6EF9
:102C00002E0E2C6E2D6A2BC0E6FF2CC0E6FF2DC0C9
:102C1000E6FFAEEC2CF0F56E070EE15EF55001011B
:102C2000F451E66EE66AF451E66EE66A450E2B6EE6
:102C30002E0E2C6E2D6A2BC0E6FF2CC0E6FF2DC099
:102C4000E6FFAEEC2CF0F56E070EE15EF550D50E0A
:102C50002B6E300E2C6E2D6A2BC0E6FF2CC0E6FFCB
:102C60002DC0E6FFAEEC2CF0E552E552E552300EF9
:102C70002B6E2E0E2C6E2D6A2BC0E6FF2CC0E6FFAD
:102C80002DC0E6FFAEEC2CF0E552E552E552160EF3
:102C90002B6E2E0E2C6E2D6A2BC0E6FF2CC0E6FF8D
:102CA0002DC0E6FFAEEC2CF0E552E552E552030EE6
:102CB0002B6E2E0E2C6E2D6A2BC0E6FF2CC0E6FF6D
:102CC0002DC0E6FFAEEC2CF0E552E552E552F80ED1
:102CD0002B6E2D0E2C6E2D6A2BC0E6FF2CC0E6FF4E
:102CE0002DC0E6FFAEEC2CF0E552E552E552D50ED4
:102CF0002B6E300E2C6E2D6A2BC0E6FF2CC0E6FF2B
:102D00002DC0E6FFAEEC2CF0E552E552E552120084
:102D1000D9CFE6FFE1CFD9FF050EE126030EDB6A2E
:102D2000040EDB6A0101420E606F500E616FDE6AB5
:102D3000DD6ADECF2BF0DDCF2CF0150E2B5C000E04
:102D40002C5834E2DECFE9FFDDCFEAFF600EE92642
:102D5000010EEA22020EEFCFDBFFDBCFE6FFFD0E16
:102D6000DBCF2DF0FE0EDBCF2EF0DE502D242B6EB0
:102D7000DD502E202C6E2BC0E6FF2CC0E6FFDAECD7
:102D80002AF0E552E552E552020EDB502B6E2C6A1A
:102D9000D950030FE96EDACFEAFF2B50EE262C5004
:102DA000ED22DF2A010E01E3DB2AC3D7030EDBCFBE
:102DB000E6FF160EE76EFD0EDBCF2BF0FE0EDBCF2F
:102DC0002CF0E7502B26000E2C222B062C5A2BC061
:102DD000E6FF2CC0E6FFDAEC2AF0E552E552E552B8
:102DE000F56E050EE15C02E2E16AE552E16EF55036
:082DF000E552E7CFD9FF120004
:082DF8005B785D2045786974E9
:102E00000D0A005B775D2053617665206368616E13
:102E10006765730D0A005B765D204C6F616420640A
:102E2000656661756C742076616C7565730D0A005A
:102E30005B755D20526573746172742063616D65AA
:102E400072610D0A005B735D204368616E676520E7
:102E5000434F4D4A203D20257520283078253032BB
:102E600058290D0A005B725D204368616E6765201A
:102E70004548534C203D2025752028307825303298
:102E800058290D0A005B715D204368616E676520FB
:102E900045485348203D202575202830782530327C
:102EA00058290D0A005B705D204368616E676520DC
:102EB000434F4D49203D202575202830782530325C
:102EC00058290D0A005B6F5D204368616E676520BD
:102ED000434F4D42203D2025752028307825303243
:102EE00058290D0A005B6E5D204368616E6765209E
:102EF000434F4D41203D2025752028307825303224
:102F000058290D0A005B6D5D204368616E6765207E
:102F1000414543203D202575202830782530325802
:102F2000290D0A005B6C5D204368616E6765204275
:102F30005254203D202575202830782530325829DC
:102F40000D0A005B6B5D204368616E67652053412D
:102F500054203D2025752028307825303258290D01
:102F60000A005B6A5D204368616E676520524544D4
:102F7000203D2025752028307825303258290D0A2B
:102F8000005B695D204368616E676520424C552097
:102F90003D2025752028307825303258290D0A002B
:102FA0005B685D204368616E676520414743203D53
:102FB0002025752028307825303258290D0A000D3B
:102FC0000A416476616E636564206F7074696F6E28
:102FD000733A0D0A005B675D204368616E67652088
:102FE0004E46203D2025752028307825303258293E
:102FF0000D0A005B665D204368616E676520425F75
:103000004D6178203D2025752028307825303258B4
:10301000290D0A005B655D204368616E676520428B
:103020005F4D696E203D202575202830782530328F
:1030300058290D0A005B645D204368616E67652056
:10304000475F4D6178203D20257520283078253058
:103050003258290D0A005B635D204368616E676525
:1030600020475F4D696E203D20257520283078254A
:10307000303258290D0A005B625D204368616E673B
:103080006520525F4D6178203D20257520283078DD
:1030900025303258290D0A005B615D204368616E5E
:1030A000676520525F4D696E203D202575202830D0
:1030B0007825303258290D0A000D0A43616C696287
:1030C000726174696F6E20706172616D6574657292
:1030D000733A0D0A000D0A000D0A5265737461728D
:1030E00074696E672043616D6572612E2E2E0D0A24
:1030F00000446F6E650D0A000D0A536176696E67B4
:1031000020746F20454550524F4D2E2E2E000D0A33
:103110004572726F723A204E756D626572206F75DE
:1031200074206F662072616E67652E0D0A000D0AAD
:10313000456E746572206E65772076616C756520CA
:10314000287072656365656420686578616465638D
:10315000696D616C206E756D62657273207769743C
:1031600068203078293A2000436F6E666964656E86
:1031700063652028506978656C732920203D2025DF
:10318000750D0A0020426C6F622053697A65202811
:10319000506978656C732920203D2025750D0A0043
:1031A00054696C74204572726F722028506978657A
:1031B0006C732920203D2025640D0A002050616E8B
:1031C000204572726F722028506978656C732920CF
:1031D000203D2025640D0A0054696C7420416E67FF
:1031E0006C6520286465677265657329203D20251C
:1031F000640D0A002050616E20416E676C652028C6
:103200006465677265657329203D2025640D0A0099
:103210000D0A00536561726368696E672E2E2E0D6C
:103220000A005B705D2052657475726E20546F20C9
:103230004D61696E20547261636B696E67204D65E4
:103240006E750D0A005B6F5D20446973706C617967
:103250002043757272656E742050574D2056616C14
:103260007565730D0A005B6E5D20536574205469AB
:103270006C74204D61782050574D2056616C7565F7
:103280000D0A005B6D5D205365742054696C7420D9
:1032900043656E7465722050574D2056616C75659C
:1032A0000D0A005B6C5D205365742054696C7420BA
:1032B0004D696E2050574D2056616C75650D0A00A2
:1032C0005B6B5D2054696C7420446F776E2054658D
:1032D0006E2053746570730D0A005B6A5D2054693B
:1032E0006C7420446F776E204F6E65205374657048
:1032F0000D0A005B695D2054696C74205570205480
:10330000656E2053746570730D0A005B685D205410
:10331000696C74205570204F6E6520537465700D74
:103320000A005B675D205365742050616E204D611B
:10333000782050574D2056616C75650D0A005B660C
:103340005D205365742050616E2043656E74657214
:103350002050574D2056616C75650D0A005B655D08
:10336000205365742050616E204D696E2050574D7A
:103370002056616C75650D0A005B645D2050616EBE
:103380002052696768742054656E205374657073A9
:103390000D0A005B635D2050616E2052696768749E
:1033A000204F6E6520537465700D0A005B625D20CE
:1033B00050616E204C6566742054656E20537465B0
:1033C00070730D0A005B615D2050616E204C656674
:1033D00074204F6E6520537465700D0A005B785D34
:1033E00020457869740D0A005B775D20536176652E
:1033F000206368616E6765730D0A005B765D204C23
:103400006F61642064656661756C742076616C75AB
:1034100065730D0A005B755D20496E7465726163AA
:10342000746976652050574D2041646A7573746DD8
:10343000656E74204D656E750D0A005B715D2043ED
:1034400068616E6765205365617263682044656CCE
:103450006179203D2025750D0A005B705D20436871
:10346000616E67652054696C74205461726765747D
:1034700020506978656C203D2025750D0A005B6F32
:103480005D204368616E67652054696C74205365E4
:103490006172636820537465702053697A65203DBA
:1034A0002025750D0A005B6E5D204368616E6765BF
:1034B0002054696C7420526F746174696F6E20536C
:1034C00069676E203D20252B640D0A005B6D5D2031
:1034D0004368616E67652054696C7420416C6C6F41
:1034E0007761626C65204572726F72203D20257590
:1034F0000D0A005B6C5D204368616E67652054694E
:103500006C74204761696E203D2025750D0A005BB3
:103510006B5D204368616E67652054696C74204D53
:1035200061782050574D203D2025750D0A005B6ABB
:103530005D204368616E67652054696C7420436543
:103540006E7465722050574D203D2025750D0A0080
:103550005B695D204368616E67652054696C742007
:103560004D696E2050574D203D2025750D0A005B9A
:10357000685D204368616E67652050616E2054610C
:103580007267657420506978656C203D2025750D43
:103590000A005B675D204368616E67652050616E5D
:1035A0002053656172636820537465702053697A93
:1035B00065203D2025750D0A005B665D204368612E
:1035C0006E67652050616E20526F746174696F6E12
:1035D000205369676E203D20252B640D0A005B6532
:1035E0005D204368616E67652050616E20416C6CA0
:1035F0006F7761626C65204572726F72203D202585
:10360000750D0A005B645D204368616E676520503C
:10361000616E204761696E203D2025750D0A005BB3
:10362000635D204368616E67652050616E204D6167
:10363000782050574D203D2025750D0A005B625DB6
:10364000204368616E67652050616E2043656E742B
:1036500065722050574D203D2025750D0A005B6195
:103660005D204368616E67652050616E204D696E14
:103670002050574D203D2025750D0A00446F6E6582
:103680000D0A000D0A536176696E6720746F20453C
:103690004550524F4D2E2E2E0054696C74203D2003
:1036A00025750050616E203D2025750D0A000D0A1C
:1036B000000D0A4572726F723A204E756D62657226
:1036C000206F7574206F662072616E67652E0D0A1B
:1036D000000D0A456E746572206E65772076616C08
:0536E00075653A2000B1
:0A36E600D9CFE6FFE1CFD9FF040EB3
:1036F000E12602014F510BE1F6D8DF6EDF0404E151
:103700000201010E4F6F03D0DF50010800E2A4DB7D
:10371000E76E010EE7CFDBFFDB50000817E2030E78
:10372000DB6A010EDB50F36E030EDBCFF4FFF350C8
:10373000F45C0CE295DBE76E020EE7CFDBFFDBCF3C
:10374000E6FF10D8E552030EDB2AEBD7F56E040E28
:10375000E15C02E2E16AE552E16EF550E552E7CF45
:10376000D9FF1200D9CFE6FFE1CFD9FF02015651B0
:10377000060A01E18FD0030A68E0060A34E0010A74
:1037800025E0030A01E0ABD0FE0EDB502B6E2C6A65
:10379000FF0E2B1801E12C5003E1020E566F15D0DD
:1037A000FE0EDB50410807E10101020E996F020194
:1037B000050E566F0AD0FE0EDB504E0806E10101E1
:1037C000020E996F0201060E566F89D0FE0EDB5075
:1037D000540806E10101986B0201030E566F02D0F6
:1037E000010E566F7CD0010198512B6E2C6A080E89
:1037F0002B5C000E2C580AE29851EA6A760FE96EAB
:10380000010EEA22FE0EDBCFEFFF982B98512B6EB4
:103810002C6A080E2B1801E12C5016E176C158F1E4
:1038200077C159F178C15AF179C15BF17AC15CF184
:103830007BC15DF17CC15EF17DC15FF10201502B66
:10384000000E5123010E566F4AD0020E0101995D00
:1038500006E1FE0EDB50430802E1992B1AD0030E5D
:10386000995D06E1FE0EDB504B0802E1992B11D069
:10387000040E995D0BE1FE0EDB500D0807E102011D
:10388000522B000E5323010E566F03D00201010E7E
:10389000566F25D0020E0101995D06E1FE0EDB5048
:1038A000430802E1992B1AD0030E995D06E1FE0E42
:1038B000DB504B0802E1992B11D0040E995D0BE10E
:1038C000FE0EDB500D0807E10201542B000E5523BC
:1038D000010E566F03D00201010E566F00D0E55263
:1038E000E7CFD9FF1200D9CFE6FFE1CFD9FFE652EB
:1038F0000201570507E14FDA050EE66E58DAE55288
:103900000201576B58050DE1586B01019B6B010ECD
:103910009A6F9C6B9D6B9E6B0201526B536B546B49
:10392000556B01019B0529E10201010E525D000E5C
:10393000535905E301019B6B9C6B9D6B1DD0010EE0
:10394000545D000E555904E301019A059E6F14D091
:1039500001010A0E9C5D000E9D590BE3800E9A2515
:103960002B6E2C6A000E2C222B062C5A2BC09EF19B
:1039700003D09C2B000E9D2322D10201526B536B6E
:10398000546B556B01019A51120A01E115D1030ADA
:1039900001E1FBD0010A01E1EED01F0A01E1DED016
:1039A000010A01E1CED0030A01E1BED0010A01E122
:1039B000AED0070A01E19ED0010A01E18FD0030ACF
:1039C00001E17FD0010A70E00F0A61E0010A52E0D4
:1039D000030A43E0010A34E0070A25E0010A1FE078
:1039E000030A01E0ECD0E66A000EE66EE66AF5D85E
:1039F000E552E552E552DF6EDF5001E10AD0DF0407
:103A000001E107D0020EDF5C01E103D0030EDF5CB1
:103A100000E1C1D90101020E9A6F9B6BD0D0030E59
:103A20009A6F9B6BCCD071C1E6FF290EE66EF6D97A
:103A3000E552E5520101040E9A6F010E9B6FBFD053
:103A400070C1E6FF130EE66EE9D9E552E5520101B9
:103A5000050E9A6F010E9B6FB2D074C1E6FF2D0E5A
:103A6000E66EDCD9E552E5520101060E9A6F010EB1
:103A70009B6FA5D072C1E6FF2A0EE66ECFD9E55244
:103A8000E5520101070E9A6F010E9B6F98D073C12A
:103A9000E6FF2B0EE66EC2D9E552E5520101080E93
:103AA0009A6F010E9B6F8BD074C1E6FF2D0EE66EF0
:103AB000B5D9E552E5520101090E9A6F010E9B6FCF
:103AC0007ED06FC1E6FF120EE66EA8D9E552E55230
:103AD00001010A0E9A6F010E9B6F71D069C1E6FF5A
:103AE000E66A9CD9E552E55201010B0E9A6F010E70
:103AF0009B6F65D06AC1E6FF010EE66E8FD9E55275
:103B0000E55201010C0E9A6F010E9B6F58D06BC1EC
:103B1000E6FF020EE66E82D9E552E55201010D0E76
:103B20009A6F010E9B6F4BD06CC1E6FF030EE66EE1
:103B300075D9E552E55201010E0E9A6F010E9B6F89
:103B40003ED06DC1E6FF060EE66E68D9E552E5523D
:103B500001010F0E9A6F010E9B6F31D06EC1E6FF0F
:103B6000100EE66E5BD9E552E5520101100E9A6F18
:103B7000010E9B6F24D068C1E6FF37D9E5520101E1
:103B8000110E9A6F010E9B6F1AD067C1E6FF66C1D6
:103B9000E6FF65C1E6FF64C1E6FF63C1E6FF62C1FF
:103BA000E6FFC7D8F56E060EE15EF5500101120E74
:103BB0009A6F010E9B6F03D0010E9E6F00D09E5135
:103BC000000803E20201010E586F01019E5100D06E
:103BD000E552E552E7CFD9FF1200D9CFE6FFE1CF9A
:103BE000D9FF060EE126FC0EDB5065E1020EDB6A12
:103BF000030EDB6ADF6ADF502B6E2C6A160E2B5C1D
:103C0000000E2C5838E2DF50E76EFD0EDBCF2BF0B4
:103C1000FE0EDBCF2CF0E7502B26000E2C222BC003
:103C2000E6FF2CC0E6FFC0EC2AF0E552E552E76E55
:103C3000010EE7CFDBFFDF50EA6A600FE96E010E8D
:103C4000EA22010EDBCFEFFFDF502B6E2C6A150E40
:103C50002B5C000E2C580DE2010EDB502B6E2C6AF3
:103C6000D950020FE96EDACFEAFF2B50EE262C5026
:103C7000ED22DF2AC0D7420E0101605D14E1500E33
:103C8000615D11E1020EDB50755D05E1040EDB6A3A
:103C9000050EDB6A07D0010EF36E040EF3CFDBFFD7
:103CA000050EDB6A07D0020EF36E040EF3CFDBFFC6
:103CB000050EDB6A07D0030EF36E040EF3CFDBFFB5
:103CC000050EDB6AD950040FE96EDACFEAFFEE5039
:103CD000ED1020E00101550E626F730E636F0F0E41
:103CE000646F110E656F640E666F910E676F686B7F
:103CF000696B800E6A6F6B6F6C6F010E6D6F6E6F0C
:103D0000200E6F6F706F800E716F726F200E736F69
:103D1000840E746F040EDB50F56E060EE15C03E258
:103D200000D0E16AE552E16EF550E552E7CFD9FFE8
:103D30001200D9CFE6FFE1CFD9FF540EE66E94D83A
:103D4000E552430EE66E90D8E552060EE66E8CD82C
:103D5000E552FE0EDBCFE6FF87D8E552FD0EDBCF46
:103D6000E6FF82D8E552FC0EDBCFE6FF7DD8E552B8
:103D7000FB0EDBCFE6FF78D8E552FA0EDBCFE6FF8D
:103D800073D8E552F90EDBCFE6FF6ED8E552E55267
:103D9000E7CFD9FF12000D0EE66E66D8E55212008D
:103DA00002014F6B120002014F5100D01200D9CF17
:103DB000E6FFE1CFD9FF520EE66E56D8E5524D0E22
:103DC000E66E52D8E552200EE66E4ED8E552FE0E53
:103DD000DB50300FE66E48D8E5520D0EE66E44D843
:103DE000E552E552E7CFD9FF1200D9CFE6FFE1CF88
:103DF000D9FF4E0EE66E38D8E552460EE66E34D840
:103E0000E552010EE66E30D8E552FE0EDBCFE6FF3E
:103E10002BD8E552E552E7CFD9FF1200D9CFE6FF04
:103E2000E1CFD9FF430EE66E1FD8E552520EE66E83
:103E30001BD8E552020EE66E17D8E552FE0EDBCF18
:103E4000E6FF12D8E552FD0EDBCFE6FF0DD8E552B6
:103E5000E552E7CFD9FF12006DEC25F000D012003B
:103E6000A3EC25F000D01200D9CFE6FFE1CFD9FFB7
:103E7000FE0EDBCFE6FFEAEC25F0E552E552E7CF98
:103E8000D9FF12005DEC25F000D012007DEC25F08A
:103E900000D01200D9CFE6FFE1CFD9FFFE0EDBCF75
:103EA000E6FFC9EC25F0E552E552E7CFD9FF120055
:103EB000D9CFE6FFE1CFD9FF0A0EE1260201595121
:103EC00003E1010E596FA4DA02015A51020150199F
:103ED00004E102015B510201511901E18DD250C28E
:103EE0005AF251C25BF20101595101E1E4D10201E0
:103EF000010E5C6F0101A351DE6EDD6A01015851B4
:103F00002D6E2E6A0701E9512F6E306A2F502D5CFD
:103F10002B6E30502E582C6E060E2BC0DBFF070E7A
:103F20002CC0DBFF060EDBCF2BF0070EDBCF2CF017
:103F3000E6512D6E2E6A2E502C18E8AE02D02C348D
:103F400004D02B502D5C2C502E5825E2E5512B6EC1
:103F50002C6A060EDBCF1DF0070EDBCF1EF02BC048
:103F600022F02CC023F087EC2BF0040E1DC0DBFFE9
:103F7000050E1EC0DBFFD950040FE96EDACFEAFF51
:103F8000EE50ED1007E1010EF36E040EF3CFDBFFF0
:103F9000050EDB6A47D0060EDBCF2BF0070EDBCF1A
:103FA0002CF0E6512F6E306A1D681E682FC022F07B
:103FB00030C023F0ADEC2BF01BC02DF01CC02EF058
:103FC0002C502E18E8AE02D02E3404D02D502B5C8D
:103FD0002E502C5823E20701E5512B6E2C6A060E59
:103FE000DBCF1DF0070EDBCF1EF02BC022F02CC064
:103FF00023F087EC2BF0040E1DC0DBFF050E1EC066
:10400000DBFFD950040FE96EDACFEAFFEE50ED1076
:1040100004E1040EDB68050EDB6804D0040EDB6AE5
:10402000050EDB6AE7C72DF02E6A2DBE2E682DC067
:104030001DF02EC01EF0040EDBCF22F0050EDBCFEC
:1040400023F0ADEC2BF01BC02BF01CC02CF0D9CF13
:10405000E9FFDACFEAFF2B50EE262C50ED22DECF1F
:104060002BF0DDCF2CF00701E25100012CAE02D085
:10407000D89003D02B5C000E2C5805E20701E251CA
:10408000DE6EDD6A16D0DECF2BF0DDCF2CF007011F
:10409000E4512D6E2E6A2E502C18E8AE02D02C342E
:1040A00004D02B502D5C2C502E5803E2E451DE6ED0
:1040B000DD6ADFCFA3F10101A451E66ED950020FF2
:1040C000E96EDACFEAFFE552E750EE6EED6A0101E4
:1040D00059512D6E2E6A0701F1512F6E306A2F5003
:1040E0002D5C2B6E30502E582C6E080E2BC0DBFF33
:1040F000090E2CC0DBFF080EDBCF2BF0090EDBCF47
:104100002CF0EE512D6E2E6A2E502C18E8AE02D0F7
:104110002C3404D02B502D5C2C502E5825E2ED5120
:104120002B6E2C6A080EDBCF1DF0090EDBCF1EF0C4
:104130002BC022F02CC023F087EC2BF0040E1DC006
:10414000DBFF050E1EC0DBFFD950040FE96EDACF8E
:10415000EAFFEE50ED1007E1010EF36E040EF3CF0F
:10416000DBFF050EDB6A47D0080EDBCF2BF0090E14
:10417000DBCF2CF0EE512F6E306A1D681E682FC009
:1041800022F030C023F0ADEC2BF01BC02DF01CC092
:104190002EF02C502E18E8AE02D02E3404D02D5024
:1041A0002B5C2E502C5823E20701ED512B6E2C6A0C
:1041B000080EDBCF1DF0090EDBCF1EF02BC022F066
:1041C0002CC023F087EC2BF0040E1DC0DBFF050E86
:1041D0001EC0DBFFD950040FE96EDACFEAFFEE50C4
:1041E000ED1004E1040EDB68050EDB6804D0040E5C
:1041F000DB6A050EDB6AEFC72DF02E6A2DBE2E6836
:104200002DC01DF02EC01EF0040EDBCF22F0050ED7
:10421000DBCF23F0ADEC2BF01BC02BF01CC02CF03F
:10422000D950020FE96EDACFEAFF2B50EE262C5060
:10423000ED22020EDBCF2BF0030EDBCF2CF00701BB
:10424000EA5100012CAE02D0D89003D02B5C000EB6
:104250002C580DE20701EA51E66ED950020FE96EC3
:10426000DACFEAFFE552E750EE6EED6A20D0020E9B
:10427000DBCF2BF0030EDBCF2CF00701EC512D6EC2
:104280002E6A2E502C18E8AE02D02C3404D02B50BD
:104290002D5C2C502E580BE2EC51E66ED950020FDB
:1042A000E96EDACFEAFFE552E750EE6EED6A020EF4
:1042B000DBCFA4F1A1D002015D2B0701F251020175
:1042C000D8805D5501E398D05D6B5C0510E15C6BB7
:1042D000DE6ADD6A0701EB51E66ED950020FE96E26
:1042E000DACFEAFFE552E750EE6EED6A80D00101C9
:1042F000A351DE6EDD6AA451E66ED950020FE96E5D
:10430000DACFEAFFE552E750EE6EED6ADECF2BF032
:10431000DDCF2CF00701E45100012CAE02D0D89083
:1043200003D02B5C000E2C584BE30701E251DE6EEC
:10433000DD6A020EDBCF2BF0030EDBCF2CF0EC514D
:1043400000012CAE02D0D89003D02B5C000E2C586C
:104350000DE30701EA51E66ED950020FE96EDACF9C
:10436000EAFFE552E750EE6EED6A29D00701F05101
:104370002B6E2C6AD950020FE96EDACFEAFF2B5070
:10438000EE262C50ED22020EDBCF2BF0030EDBCFFE
:104390002CF0EC5100012CAE02D0D89003D02B5C55
:1043A000000E2C580CE30701EC51E66ED950020FB9
:1043B000E96EDACFEAFFE552E750EE6EED6A17D00C
:1043C0000701E851DE26000EDD22DECF2BF0DDCF27
:1043D0002CF0E45100012CAE02D0D89003D02B5C1D
:1043E000000E2C5804E30701E451DE6EDD6ADFCFD6
:1043F000A3F1020EDBCFA4F1F56E0A0EE15C02E23E
:10440000E16AE552E16EF550E552E7CFD9FF1200BF
:10441000D9CFE6FFE1CFD9FFE652E66A200EE66E7D
:10442000E66A16D8E552E552E552DF6EDF5001E14B
:104430000AD0DF0401E107D0020EDF5C01E103D006
:10444000030EDF5C00E1E552E552E7CFD9FF120031
:10445000D9CFE6FFE1CFD9FF060EE126FC0EDB50F7
:1044600065E1020EDB6A030EDB6ADF6ADF502B6E4A
:104470002C6A140E2B5C000E2C5838E2DF50E76ECD
:10448000FD0EDBCF2BF0FE0EDBCF2CF0E7502B2602
:10449000000E2C222BC0E6FF2CC0E6FFC0EC2AF059
:1044A000E552E552E76E010EE7CFDBFFDF50EA6A27
:1044B000E00FE96E070EEA22010EDBCFEFFFDF50BF
:1044C0002B6E2C6A130E2B5C000E2C580DE2010E85
:1044D000DB502B6E2C6AD950020FE96EDACFEAFF5F
:1044E0002B50EE262C50ED22DF2AC0D7470E0701B5
:1044F000E05D14E14B0EE15D11E1020EDB50F35D76
:1045000005E1040EDB6A050EDB6A07D0010EF36ECF
:10451000040EF3CFDBFF050EDB6A07D0020EF36E4D
:10452000040EF3CFDBFF050EDB6A07D0030EF36E3C
:10453000040EF3CFDBFF050EDB6AD950040FE96EE2
:10454000DACFEAFFEE50ED1021E00701E26B7C0EBE
:10455000E36FF80EE46F030EE56F060EE66FE76992
:104560003E0EE86F4F0EE96F5E0EEA6F900EEB6F36
:10457000C20EEC6F080EED6F060EEE6F010EEF6FC0
:10458000320EF06F770EF16F050EF26F040EDB50F6
:10459000F56E060EE15C03E200D0E16AE552E16EE1
:0A45A000F550E552E7CFD9FF1200F5
:0645AA00DACFE4FFE2CFCE
:1045B000DAFFE9CFE4FFEACFE4FFE652F2A202D04D
:1045C00098D802D09EB6C4D8E552E5CFEAFFE5CF31
:1045D000E9FFE5CFDAFF1100E66A010EE66E050E8F
:1045E000E66EC2EC2DF0E552E552E5521200070EE0
:1045F000B46E000E886E876E866E856E846E836ED6
:10460000826E816E806E916E906E8F6E8E6E8D6EEC
:104610008C6E8B6E8A6E896E92689368BF0E946EF4
:10462000956A700E966E9F0E976EE40E986E0F0E42
:10463000996E9A68C16E070EC06EF19EB0989C8EFE
:10464000A26A9F6AA06A9D6AA36AA56AC5DF9F865F
:10465000D08E9E969D869382F06AF288F09EF098A6
:10466000F192F09AF16AF28CF28E1200D9CFE6FF45
:10467000E1CFD9FFE652BBDF0101DF97DF990201ED
:10468000A30E436F010E446FDF6A100EDF5C0AE277
:10469000DF50EA6A4325E96E4451EA227F0EEF6E4D
:1046A000DF2AF3D70101BC6B010EBD6FC90EBE6FCF
:1046B0000101DF850101C16BC26B01019F6BA16B21
:1046C000A26B010ED56E800ED76EF90ED66ED59EFA
:1046D0009F0EE66E010EE66EABD8E552E552E5524E
:1046E000E552E7CFD9FF1200828280889492929897
:1046F0001200F2920201200E3F6F9F860101DFA996
:1047000006D00201E00E3C6F000E3D6F05D00201A5
:10471000C00E3C6F000E3D6F0101DFA1DF79DFA706
:1047200006D00201800E3A6F000E3B6F05D00201E9
:10473000A00E3A6F000E3B6FC9CF40F23AC2E9FFBC
:104740003BC2EAFF3A2B000E3B23EF50C96E12002A
:104750009E96C9CF40F202013F51000824E23CC2BC
:10476000E9FF3DC2EAFF3C2B000E3D2340C2EFFFB4
:104770003AC2E9FF3BC2EAFF3A2B3B23EFCF40F2BC
:1047800040C2C9FF3F073F510DE10101DF81010137
:10479000020EBD6F0101DF93800ED76EF90ED66E4B
:1047A000F294D58E01D0C96A1200D9CFE6FFE1CFCD
:1047B000D9FF0101DFA138D0DFA906D00201C00E68
:1047C000386F000E396F05D00201E00E386F000E11
:1047D000396FFD0EDBCF41F2FE0EDBCF42F23E6BB6
:1047E000200E3E5D14E23E51EA6A3825E96E3951E9
:1047F000EA22EF50E66E41C2E9FF42C2EAFF412BD6
:10480000000E4223E552E750EF6E3E2BE9D79D960E
:104810000101DF919D860F0E0001165D05E0B5C117
:10482000E6FF10EC2AF0E552E552E7CFD9FF12007F
:10483000D9CFE6FFE1CFD9FF0101DFB338D0020EB7
:104840000101BD5D01E17ED80101DFA706D00201B3
:10485000A00E386F000E396F05D00201800E386F40
:10486000000E396FFD0EDBCF43F2FE0EDBCF44F2BC
:104870003E6B200E3E5D14E243C2E9FF44C2EAFFF4
:10488000432B000E4423EF50E66E3E51EA6A382572
:10489000E96E3951EA22E552E750EF6E3E2BE9D737
:1048A0009D960101DF77DF839D860101BC2BE552D8
:1048B000E7CFD9FF12009D960101DF919D8612007E
:1048C000D9CFE6FFE1CFD9FF0001166BD950FD0F1C
:1048D000E96EFF0EDA20EA6E010EEE1801E1ED50EE
:1048E00002E1168101D0BA6AD950FB0FE96EFF0EC2
:1048F000DA20EA6E010EEE1801E1ED5002E11683B6
:1049000001D0B76AD950F90FE96EFF0EDA20EA6ECE
:10491000010EEE1801E1ED5002E1168501D0736A37
:10492000D950F70FE96EFF0EDA20EA6E010EEE188D
:1049300001E1ED5002E1168701D0706AE552E7CF40
:10494000D9FF12000101BB6BB66BC6AE04D0C69E88
:10495000010EB66F0ED0F150800B06E0F250080B3E
:1049600003E0020EB66F05D0F0A603D0909E030EB2
:10497000B66F250EC614250805E0010EBB6FC6CF25
:10498000B6F168D0C55005E0020EBB6FC5CFB6F1D9
:1049900061D0D0BE05D0030EBB6FD0CFB6F15AD0D8
:1049A0009DB605D0040EBB6F9DCFB6F153D09C5081
:1049B00005E0050EBB6F9CCFB6F14CD0080E9F5C96
:1049C00005E0060EBB6F9FCFB6F144D0A25005E0C4
:1049D000070EBB6FA2CFB6F13DD0A55005E0080E83
:1049E000BB6FA5CFB6F136D0500EF214500805E0DB
:1049F000090EBB6FF2CFB6F12DD0470EF11405E0D2
:104A00000A0EBB6FF1CFB6F125D0C00EF01405E051
:104A10000B0EBB6FF0CFB6F11DD092A805D00C0ED7
:104A2000BB6F92CFB6F116D093B005D00D0EBB6F11
:104A300093CFB6F10FD03E0E94141C0805E00E0E75
:104A4000BB6F94CFB6F106D097BE04D00F0EBB6FEC
:064A500097CFB6F1120041
:0A4A5600150EAF6EAC849D9A9D987A
:104A6000AC98AC9E948EAB9CAB96AB8AAB889F9A6D
:104A70009D8A02016F697069949CAC9CAC969F986A
:104A80009D88AC8AAB8E1200150E6F6E6C84A39A53
:104A9000A3986C986C9E98846B9C6B966B8A6B88C1
:104AA000A59AA38A02016F69706998926C9C6C96B2
:104AB000A598A3886C8A6B8E1200D9CFE6FFE1CF50
:104AC000D9FFE6529D9A24C2DFFF9D8ADF5000D0B5
:104AD000E552E552E7CFD9FF1200D9CFE6FFE1CF8B
:104AE000D9FFE652A39A30C2DFFFA38ADF5000D07D
:104AF000E552E552E7CFD9FF1200D9CFE6FFE1CF6B
:104B0000D9FFE6520201215103E0000E17D016D062
:104B10002251EA6A000FE96E070EEA22EFCFDFFFAB
:104B20002407222B1F0E22179D9A2351225D02E19A
:104B3000010E216F9D8A206BDF5000D0E552E552B7
:104B4000E7CFD9FF1200D9CFE6FFE1CFD9FFE65278
:104B500002012D5103E0000E17D016D02E51EA6A43
:104B6000400FE96E070EEA22EFCFDFFF30072E2B52
:104B70001F0E2E17A39A2F512E5D02E1010E2D6FED
:104B8000A38A2C6BDF5000D0E552E552E7CFD9FF66
:104B90001200D9CFE6FFE1CFD9FF0201275101E092
:104BA000FCD72A51EA6A200FE96E070EEA22FE0EB0
:104BB000DBCFEFFF2B2B2A2B1F0E2A179D982A5194
:104BC000295D02E1010E276F9D88286BE552E7CF32
:104BD000D9FF1200D9CFE6FFE1CFD9FF020133514F
:104BE00001E0FCD73651EA6A600FE96E070EEA224F
:104BF000FE0EDBCFEFFF372B362B1F0E3617A39899
:104C00003651355D02E1010E336FA388346BE552F6
:104C1000E7CFD9FF12000201205102E09D9A19D07E
:104C20002351EA6A000FE96E070EEA22AECFEFFFCA
:104C3000ABA203D0AB98AB88252BABB4262B242B8F
:104C4000232B1F0E23172351225D02E1010E206F3B
:104C5000216B120002012C5102E0A39A19D02F51AE
:104C6000EA6A400FE96E070EEA226ECFEFFF6BA2F1
:104C700003D06B986B88312B6BB4322B302B2F2BDE
:104C80001F0E2F172F512E5D02E1010E2C6F2D6B81
:104C900012000201285102E09D9812D02951EA6ABF
:104CA000200FE96E070EEA22EF50AD6E2B07292B7D
:104CB0001F0E29172A51295D02E1010E286F276B6B
:104CC00012000201345102E0A39812D03551EA6A71
:104CD000600FE96E070EEA22EF506D6E3707352B35
:104CE0001F0E35173651355D02E1010E346F336BFF
:104CF0001200D9CFE6FFE1CFD9FF02011F5101E138
:104D000010D01F0506E1FE0EDBCFE6FF42DFE552C5
:104D100008D0020E1F5D05E1FE0EDBCFE6FF5ADF75
:0A4D2000E552E552E7CFD9FF12007B
:064D2A009EB802D0FDD787
:104D3000FCD71200D9CFE6FFE1CFD9FFFE0EDBCFC3
:104D4000E6FFFAEC29F0E5520D0EAD6EEEDFE5520E
:104D5000E7CFD9FF1200D9CFE6FFE1CFD9FF01019C
:104D6000D950FD0F506FFF0EDA20516F010EEA6A25
:104D70005025E96E5151EA22EF50E66EFAEC29F027
:104D8000E55250C1E9FF51C1EAFFEF50E66EFAEC7F
:104D900029F0E5520D0EAD6EC8DFE552E7CFD9FF21
:104DA0001200D9CFE6FFE1CFD9FFFD0EDBCF2BF00C
:104DB000FE0EDBCF2CF02D6A2BC0E6FF2CC0E6FFE9
:104DC0002DC0E6FF000EE66E010EE66EFCEC2CF048
:104DD000F56E050EE15EF550000EE66E010EE66E14
:104DE00015EC2DF0E552E552F3CF54F1F4CF55F127
:104DF0000101553504E254515008000E555503E2A7
:104E0000500E546F556B566B576B57515519E8AE92
:104E100002D0553504D05451565D555157590EE2C4
:104E2000000E5625E96E010E5721EA6EEF50AD6E69
:104E30007CDF0101562B000E5723E7D7E552E7CF61
:104E4000D9FF1200D9CFE6FFE1CFD9FF0101526BA4
:104E50001A0E525D11E2FD0EDBCFE9FFDB2AFE0EDA
:104E6000DBCFEAFF01E3DB2AEF50E66EFAEC29F034
:104E7000E5520101522BECD70D0EAD6E56DFE55217
:104E8000E7CFD9FF12000101BF0E506F010E516F25
:104E90000101BF510201636F646B6551631902E147
:104EA0006651641918E00101DFA502D0DF950FD02B
:104EB00065C2E6FFFAEC29F0E55263C2E6FFFAECC0
:104EC00029F0E5520D0EAD6E30DF0101DF9563C2B2
:104ED00065F264C266F20201652B000E6623663538
:104EE00004E26551FF08000E665502E2656B666BD1
:104EF0001200150EE66E3C0EE66EF5EC2DF0E55256
:104F0000E552320EE66ED3EC2EF0E5521200D9CF08
:104F1000E6FFE1CFD9FFFE0EDBCF53F1E552E7CF3D
:104F2000D9FF1200D9CFE6FFE1CFD9FF020EE1266B
:104F3000FE0EDB507F0BFE0BFD0BE66E53C1E6FF52
:104F400027EC2EF0E552E5520A0EE66E00EC2FF04B
:104F5000E55217EC2FF007EC04F0000901E0FBD755
:104F60007CEC2EF014EC2FF0C4502D6E2DC02EF0E2
:104F70002D6AC35000012D102B6E2EC02CF02BC0BB
:104F8000DEFF2CC0DDFFDECF2BF0DDCF2CF02BC001
:104F9000F3FF2CC0F4FFF56E020EE15C03E200D0DB
:104FA000E16AE552E16EF550E552E7CFD9FF120014
:104FB000D9CFE6FFE1CFD9FF0101B569D950FD0F87
:104FC000E96EFF0EDA20EA6EEE50ED1001E1B591C8
:104FD000D950FB0FE96EFF0EDA20EA6EEE50ED10AD
:104FE00001E1B593D950F90FE96EFF0EDA20EA6EB0
:104FF000EE50ED1001E1B595D950F70FE96EFF0EB7
:10500000DA20EA6EEE50ED1001E1B597D950F50FB8
:10501000E96EFF0EDA20EA6EEE50ED1001E1B5996F
:10502000D950F30FE96EFF0EDA20EA6EEE50ED1064
:1050300001E1B59BD950F10FE96EFF0EDA20EA6E5F
:10504000EE50ED1001E1B59DD950EF0FE96EFF0E66
:10505000DA20EA6EEE50ED1001E1B59FE552E7CFA0
:10506000D9FF120092829280FD0EE66E87EC27F047
:10507000E552978897849780998E998A978C929613
:10508000929497969792929A999C9998979A8996C2
:1050900089948E968E92899A909C90988E9A01010E
:1050A000720EA36F460EA46F7F0EAA6FAAC1A9F15C
:1050B000AAC1A8F1AAC1A7F1AAC1A6F1AAC1A5F1E6
:1050C000010EE66EE66AE66EE66AE66EE66AE66E91
:1050D000E66AE66EE66AE66EE66AE66EE66AE66E40
:1050E000E66A66DFF56E100EE15EF550000EE66EC4
:1050F000E66AE66EE66AE66EE66AE66EE66A60EC28
:1051000024F0F56E080EE15EF5502BEC25F044EC32
:1051100025F00201010E1F6F9F0EE66E010EE66E76
:1051200018EC24F0E552E55274EF23F0D9CFE6FFF6
:10513000E1CFD9FF020EE126BF0EE66E010EE66E4C
:10514000D5EC23F0E552E5520201685104E16951C2
:1051500002E1E7EC28F073EC1BF00201695102E177
:1051600058EC1FF00201680505E173EC11F0020133
:10517000686F17D0690505E14CEC04F00201696F16
:1051800010D046EC1FF0DF6E630EDF5C04E102011D
:10519000010E686F06D0740EDF5C03E10201010EA0
:1051A000696F10EC2BF09F0EE66E010EE66E18ECA8
:1051B00024F0E552E552F56E020EE15C02E2E16A8E
:0E51C000E552E16EF550E552E7CFD9FF12003F
:0251CE000201DC
:1051D0006B510201501904E102016C510201511995
:1051E00001E1F5D002016A2B0A0E6A5D01E2EFD0FF
:1051F0006A6B0101595111E1130E2B6E320E2C6EA8
:105200002D6A2BC0E6FF2CC0E6FF2DC0E6FFAEECFA
:105210002CF0E552E552E552DAD0100E2B6E320E2C
:105220002C6E2D6A2BC0E6FF2CC0E6FF2DC0E6FFDA
:10523000AEEC2CF0E552E552E5520101A3512B6E84
:105240002C6A7C0E2B5E000E2C5A410E2C02F3CFE2
:105250002CF02B02F3CF2BF0F4502C267C0E226E78
:10526000236A2BC01DF02CC01EF087EC2BF01DC054
:105270002BF01EC02CF02BC0E6FF2CC0E6FFF40E76
:105280002D6E310E2E6E2F6A2DC0E6FF2EC0E6FF6A
:105290002FC0E6FFAEEC2CF0F56E050EE15EF5508A
:1052A0000101A4512B6E2C6A900E2B5E000E2C5A1D
:1052B000190E2C02F3CF2CF02B02F3CF2BF0F4506D
:1052C0002C26320E226E236A2BC01DF02CC01EF03D
:1052D00087EC2BF01DC02BF01EC02CF02BC0E6FF7E
:1052E0002CC0E6FFD80E2D6E310E2E6E2F6A2DC00B
:1052F000E6FF2EC0E6FF2FC0E6FFAEEC2CF0F56E09
:10530000050EE15EF550010158512B6E2C6A4F0ECF
:105310002B5E000E2C5A2BC0E6FF2CC0E6FFBC0E05
:105320002D6E310E2E6E2F6A2DC0E6FF2EC0E6FFC9
:105330002FC0E6FFAEEC2CF0F56E050EE15EF550E9
:10534000010159512B6E2C6A770E2B5E000E2C5AE0
:105350002BC0E6FF2CC0E6FFA00E2D6E310E2E6E88
:105360002F6A2DC0E6FF2EC0E6FF2FC0E6FFAEEC91
:105370002CF0F56E050EE15EF55001015E51E66E12
:10538000E66A840E2B6E310E2C6E2D6A2BC0E6FF62
:105390002CC0E6FF2DC0E6FFAEEC2CF0F56E050E3E
:1053A000E15EF55001015F51E66EE66A680E2B6E14
:1053B000310E2C6E2D6A2BC0E6FF2CC0E6FF2DC0EF
:1053C000E6FFAEEC2CF0F56E050EE15EF550120036
:1053D000000EE96EEA6E0400F5EC29F0EA2A080EE8
:1053E000EA5CD8A4EBEF29F01200EF6AE93EF5EF92
:1053F00029F01200FF0EE3CF09F009380F0B060F5A
:10540000D8B2070F2A0FAD6E95EC26F009500F0B9E
:10541000060FD8B2070F2A0FAD6E95EC26F0000CE0
:10542000FF0EE3CF15F015B0968E15A0969E15B21F
:10543000988015A2989015B4988615A4989615B6DC
:10544000988815A6989815B8968015A8969015BABC
:10545000968215AA969215BC968415AC969415BEA4
:10546000968615AE96961200F2B4120016500F0AE8
:10547000D8B41200FF0EE3CF0AF0FE0EE3CF0BF01C
:10548000FD0EE3CF0CF0FC0EE3CF0DF00A2A16A0C0
:105490008D8E0B2A16A28F800C2A16A48F860D2AB9
:1054A00016A68F88FB0EE3CF0EF0FA0EE3CF0FF0B7
:1054B000F90EE3CF10F0F80EE3CF11F00E2A8D8035
:1054C0000F2A8D82102A8D84112A8D8697EC2AF05E
:1054D0000A2E6DEF2AF016A08D9E0B2E72EF2AF089
:1054E00016A28F900C2E77EF2AF016A48F9600004C
:1054F0000D2E7DEF2AF016A68F9800000E2E82EF5B
:105500002AF08D9000000F2E87EF2AF08D92000078
:10551000102E8CEF2AF08D940000112E91EF2AF0BE
:105520008D96B9EC2AF0133E68EF2AF01200D70EE0
:10553000136E0000000000000000AFEC2AF0132EF4
:1055400099EF2AF0D70E136E000000000000000053
:10555000AFEC2AF0132EA4EF2AF000001200000096
:10556000B2EF2AF000000000000000000000000080
:105570001200030E146E0000142EBBEF2AF012006E
:10558000D9CFE6FFE1CFD9FFA69EFD0EDB50A96E75
:10559000FD0EDBCF2BF0FE0EDBCF2CF02CC02BF062
:1055A0002C6A2B50AA6EA680A85000D0E552E7CFF7
:1055B000D9FF1200D9CFE6FFE1CFD9FFE6520201B1
:1055C0005F5126E16251EA6A800FE96E070EEA2216
:1055D000FC0EDBCFEFFF6251E96EEA6AD890E93644
:1055E000EA36A00EE926070EEA22FD0EDBCFEEFF1B
:1055F000FE0EDBCFEDFF5E2B622B1F0E621762519A
:10560000615D02E1010E5F6F606B010EDF6E01D024
:10561000DF6ADF5000D0E552E552E7CFD9FF120034
:10562000D9CFE6FFE1CFD9FF030EE1260201605199
:105630005CE1F250800B01E0010EE76E010EE7CF56
:10564000DBFFF250400B01E0010EE76E020EE7CFE8
:10565000DBFFA69EA698A1986151E96EEA6AD890F0
:10566000E936EA36A00EE926070EEA22EF50A96EC7
:105670006151E96EEA6AD890E936EA36A00EE92669
:10568000070EEA22EECF2BF0EFCF2CF02CC02BF040
:105690002C6A2B50AA6E6151EA6A800FE96E070EE0
:1056A000EA22EF50A86EA684F29EF29C550EA76ED9
:1056B000AA0EA76EA682010EDB50E8B0F28EE8A01B
:1056C000F29E020EDB50E8B0F28CE8A0F29C5E077E
:1056D000612B1F0E61176251615D02E1010E606F67
:1056E0005F6BA1A8FED7A198A694F56E030EE15CAE
:1056F00002E2E16AE552E16EF550E552E7CFD9FFEB
:0E5700001200200E0201D8805E5500D012006B
:02570E00256A0A
:1057100023AE90EF2BF0226C231EE86A2322251E75
:105720001EAE98EF2BF01D6C1E1EE86A1E22251E71
:105730009BEC2EF01EBEA8EF2BF025AE000C1D6CCE
:105740001E1EE86A1E22196C1A1EE86A1A22000C34
:1057500025BE9FEF2BF02688FF0C1EC02AF01DC02F
:1057600029F01D502202F4CF1CF0F3CF1BF01E5085
:105770002302F4CF1EF0F3CF1DF02202F3501C26BB
:10578000F4501D22E86A1E2229502302F3501C26E1
:10579000F4501D22E86A1E2223AED3EF2BF02950CD
:1057A0001D5E2A501E5A2AAE000C22501D5E235048
:1057B0001E5A000C1DC029F01D502202F4CF1CF00F
:1057C000F3CF1BF01E502302F4CF1EF0F3CF1DF0D9
:1057D0002202F3501C26F4501D22E86A1E22295092
:1057E0002302F3501C26F4501D22E86A1E22000CEE
:1057F000D8CFE4FFE0CFE4FFE46EDACFE4FFE2CFFE
:10580000DAFFE9CFE4FFEACFE4FFF3CFE4FFF4CF20
:10581000E4FF00EE17F0140EE80403E3EECFE4FF1C
:10582000FBD700EE2BF0070EE80403E3EECFE4FF16
:10583000FBD7E6529E50200B06E09D50200B03E064
:105840000BEC26F01AD0A450200B06E0A350200B3E
:1058500003E02AEC26F011D09E50100B06E09D507C
:10586000100B03E049EC26F008D0A450100B05E023
:10587000A350100B02E061EC26F0E55200EE31F08F
:10588000070EE80403E3E5CFEDFFFBD700EE2AF0B7
:10589000140EE80403E3E5CFEDFFFBD7E5CFF4FFFB
:1058A000E5CFF3FFE5CFEAFFE5CFE9FFE5CFDAFF8C
:0E58B000E550E5CFE0FFE5CFD8FF1000120075
:0258BE001E0EBC
:1058C000F66E080EF76E000EF86E02010900F55034
:1058D0004A6F0900F5504B6F03E14A6701D03DD094
:1058E0000900F550456F0900F550466F0900F55065
:1058F000476F09000900F550E96E0900F550EA6E9E
:10590000090009000900F550486F0900F550496F7A
:1059100009000900F6CF4CF2F7CF4DF2F8CF4EF266
:1059200045C2F6FF46C2F7FF47C2F8FF02014853DF
:1059300002E1495307E00900F550EE6E4807F8E22E
:105940004907F9D74CC2F6FF4DC2F7FF4EC2F8FF28
:0C59500002014A07000E4B5BBFD712009B
:04595C00D9CFE6FFBA
:10596000DACFE6FFE1CFD9FFE2CFDAFFE652E65227
:10597000E652E652D950FB0F2B6EFF0EDA202C6E4A
:105980002BC0DEFFDD6EDECFE6FFDDCFE6FFFB0ED8
:10599000DBCFE6FFFC0EDBCFE6FFFD0EDBCFE6FF45
:1059A0006FC2E6FF70C2E6FF76EC0BF0F56E070EF5
:1059B000E15C02E2E16AE552E16EF550020EF3CFDE
:1059C000DBFF030EF4CFDBFF020EDBCF2BF0030E69
:1059D000DBCF2CF02BC0F3FF2CC0F4FFF56E040ED0
:1059E000E15C02E2E16AE552E16EF550E552E5CF95
:0859F000DAFFE7CFD9FF120036
:0859F800FB0EE3CFF6FFFC0EED
:105A0000E3CFF7FFFD0EE3CFF8FFFE0EE3CFE9FF94
:105A1000FF0EE3CFEAFFE9CFF3FFEACFF4FF09007F
:105A2000F5CFEFFFEE66FBD71200FE0EE3CFE9FFE6
:105A3000FF0EE3CFEAFFF36AF46AEE5203E0F34AA3
:105A4000F42AFBD71200FF0EE3CFF8FFE552FF0E5A
:105A5000E3CFF7FFE552FF0EE3CFF6FFE552E66A2C
:105A6000E66AE66A0900F55209E0FD0EE32A05E15F
:105A7000FE0EE32A02E1FF0EE32AF4D7FD0EE3CF88
:105A80001CF0FE0EE3CF1DF0FF0EE3CF1EF0120060
:105A9000D9CFE6FFDACFE6FFE1CFD9FFE2CFDAFFD9
:105AA000FB0EDBCF2BF0FC0EDBCF2CF00001800EC9
:105AB0002C141AE1FB0EDBCFE9FFFC0EDBCFEAFF73
:105AC000EECFF3FFEDCFF4FFEE2A000EEF22F3CF7F
:105AD000E9FFF4CFEAFFFD0EDBCFEFFFEF502C6ABA
:105AE000F36E2CC0F4FF10D0FB0EDB50FE0806E175
:105AF000FD0EDBCFE6FFF2EC2EF005D0FD0EDBCF86
:105B0000E6FF79EC26F0E552E552E5CFDAFFE7CF84
:045B1000D9FF1200A7
:0C5B14001B502002F3CF17F0F4CF18F064
:105B20002102F3501826000EF420196E1B50220299
:105B3000F3501926000EF4201A6E1B502302F35066
:105B40001A261C502002F3501826F4501922000E79
:105B50001A221C502102F3501926F4501A221C500C
:105B60002202F3501A261D502002F3501926F45039
:105B70001A221D502102F3501A261E502002F35003
:045B80001A261200CF
:0C5B8400D9CFE6FFDACFE6FFE1CFD9FF72
:105B9000E2CFDAFF3F0EC716C66AFD0EDB50C61213
:105BA000FB0EDB50C712FC0EDB50030A09E0010AB2
:105BB00004E0020A06E1C78C04D0C78CC68801D075
:105BC000C688FD0EDB50050A03E0010A04E1928A53
:105BD0009486C79E01D09496949A9488C68AE5527A
:0A5BE000E5CFDAFFE7CFD9FF12008E
:065BEA00D9CFE6FFDACF7F
:105BF000E6FFE1CFD9FFE2CFDAFFAC6AAB6AFD0E78
:105C0000DBB0AC88DBA202D0AC8CAB8CDBB4AC8E4E
:105C1000DBA602D0AB8801D0AB8ADBA802D0AC8473
:105C200001D0AC94DBAC02D09D8A01D09D9ADBAE52
:105C300002D09D8801D09D98FC0EDB50AF6EAC8ADF
:0E5C4000AB8EE552E5CFDAFFE7CFD9FF1200B9
:025C4E00D9CFAC
:105C5000E6FFDACFE6FFE1CFD9FFE2CFDAFFC26A93
:105C6000C16AC06AFC0EDB407F0B3C0BC26EFD0EAE
:105C7000DB500F0B2B6EFC0EDB38F00B300B2B10B8
:105C8000C16EFD0EDB380F0B070B2B6EFD0EDB50CC
:105C9000800B2B10C06EFC0EDBAE03D09E9C9D8C47
:105CA000F28CC280E552E5CFDAFFE7CFD9FF1200D0
:105CB0001A6A196A186A176A200EE76ED8901B369E
:105CC0001C361D361E361736183619361A36205031
:105CD000175C215018582250195823501A5809E3BC
:105CE0002050175E2150185A2250195A23501A5A20
:085CF0001B2AE72EE4D7120085
:085CF800D9CFE6FFDACFE6FF89
:105D0000E1CFD9FFE2CFDAFFE652E652C350DF6EB1
:105D1000010EC4CFDBFFDECF2BF0DDCF2CF02BC08C
:105D2000F3FF2CC0F4FFE552E552E552E5CFDAFF70
:065D3000E7CFD9FF1200CD
:0A5D36001A6A196A100EE76ED89081
:105D40001D361E3619361A362250195C23501A5841
:105D500005E32250195E23501A5A1D2AE72EF0D768
:025D600012002F
:0E5D6200F36AF46AFF0EE124E96EFF0EE22000
:105D7000EA6EED6607D02F0EEF6404D03A0EEF60A6
:065D800001D0F32A12001D
:0A5D860016EE00F026EE00F0F86AB9
:105D9000269CA68EA69CE8EC29F05FEC2CF0E3ECA8
:065DA0002EF0F9D71200FD
:0A5DA600FF0EE350326E480E01D0EC
:105DB0004C0EE76EE72EFED7E76AE72EFED7322EAF
:065DC000F7D700001200FD
:0A5DC60036EC23F032EC28F0010166
:105DD000DF910101DFA102D096EC28F05EEC2CF0FF
:045DE000F8D71200DE
:0C5DE400FF0EE350ACBA04D0AF6AAB8EE7
:105DF000AC8A949CACA2FED7AD6EF36EF46A12002E
:105E0000FF0EE350E84E1200000000D000D000D09A
:065E1000E82EFAD7120093
:0A5E16003031323334353637383975
:075E20006162636465660026
:065E2800C2909D9C1200D7
:025E2E00C2822E
:025E300012005E
:035E32000000006D
:055E3500000000010067
:035E3A0000000065
:025E3D00FEFF66
:015E3F000062
:105E4000000100000000000001000000000100004F
:085E5000000000000100000049
:045E58000000000046
:045E5C000000010041
:015E60000041
:025E610000003F
:0A5E63000000000000000001010132
:020000040030CA
:0E000000FFFEFEFCFFFEFBFFFFFFFFFFFFFF0A
:00000001FF
