:020000040000FA
:0608000069EF26F0120072
:020806000000F0
:0608080091EF1BF012004D
:02080E00C250D6
:08081000020B01E0010E1200D1
:06081800A2EF23F0120024
:02081E000A00CE
:10082000AD4D00004F0200000A000000AB4D00007B
:100830007102000002000000A64D00005E020000F0
:1008400005000000A24D000063020000040000004B
:10085000894D00001F02000019000000874D0000B4
:100860006F02000002000000844D00006A020000D8
:10087000030000007F4D0000590200000500000049
:10088000060800006D020000020000007C4D000020
:080890006702000003000000F4
:0808980088EC09F0FB0EDBCF38
:1008A000F3FFDB06F35000090AE0D6EC09F0FA0E7C
:1008B00041EC0AF0F3E12C1CF1E1010E01D0000E35
:1008C000B7EF09F088EC09F03B0EE12402E3E168A0
:1008D000E652E16E010EDB6A020EDB6AF90EDBCF37
:1008E000F6FFFA0EDBCFF7FFFB0EDBCFF8FF0800B9
:1008F000F550DF6EDF5002E1DDEF08F0250EDF5C22
:1009000002E0D0EF08F0030EDB6A040EDB6A050E8E
:10091000DB6A060EDB6A070EDB6AF0EC08F02D0ED0
:10092000DF5C0CE02B0EDF5C09E0200EDF5C06E0F4
:10093000230EDF5C03E0300EDF5C1AE1DF50300A8B
:1009400014E0130A0FE0030A0AE00B0A05E0060AA6
:10095000E4E1030EDB80E1D7030EDB82DED7030E7A
:10096000DB84DBD7030EDB86D8D7030EDB88D5D735
:100970002A0EDF5C1BE1ECEC08F03AEC09F010E029
:10098000030EDB801D681E68130EDBCF22F0140EF1
:10099000DBCF23F057EC23F0040E1BC0DBFF03D0AA
:1009A000130E23EC09F0F0EC08F00BD0090EDB6A13
:1009B00091EC09F003E005EC0AF0FAD7090E23ECFC
:1009C00009F0030EDBB0DB982E0EDF5C1BE1F0ECD0
:1009D00008F02A0EDF5C0BE1ECEC08F03AEC09F0D1
:1009E00003E1130E75EC09F0F0EC08F00BD0090EE2
:1009F000DB6A91EC09F003E005EC0AF0FAD7090E86
:100A000075EC09F0680EDF5C07E1F0EC08F0680EA9
:100A1000DF5C1DE1030E18D0740EDF5C17E07A0E68
:100A2000DF5C14E0480EDF5C06E0540EDF5C03E0A0
:100A30005A0EDF5C02E1020E07D06C0EDF5C03E0B1
:100A40006A0EDF5C04E1010EC8EC09F0C9DBDF507F
:100A50006E0A01E181D31E0A01E192D1200A01E16F
:100A60008FD13F0A01E149D11A0A01E146D10D0AAD
:100A700001E143D1200A01E140D13A0A01E13DD12F
:100A8000200A01E13AD1260A01E135D10D0A01E13E
:100A900032D11A0A01E1D9D0200A4AE0300A1FE017
:100AA000460A0EE0250A01E085D3D950F90FE96E18
:100AB000FF0EDA20EA6E010EEE5E000EEE5AEE5ADE
:100AC000D6EC09F0250EE66E95DB03E12C1C01E166
:100AD0006BD3D2EC09F001E26DD3DB2A6BD3080EA5
:100AE000DB6A040EDB50010806E2040EDB049AEC1C
:100AF00009F0DB508BDB080EDB5009E0030EDB5006
:100B0000010B05E172DB01E04FD3080EDB6A64DB09
:100B1000EFCFDFFF4AEC0AF003E12C1C01E144D3E4
:100B2000D2EC09F001E3DB2A60DB01E143D33CD3E3
:100B3000070EDB5002080FE116EC0AF0030EDDECA5
:100B400009F00E0EEECFDBFF0F0EEECFDBFF100E27
:100B5000EECFDBFF20D0F70EDBCF2EF0F80EDBCF91
:100B60002FF0020E2E5E000E2F5AF70E2EC0DBFF66
:100B7000F80E2FC0DBFF2EC0E9FF2FC0EAFFCDEC3F
:100B800009F02D6A0E0E2BC0DBFF0F0E2CC0DBFF11
:100B9000100E2DC0DBFF0E0EDBCFE6FF0F0EDBCFFE
:100BA000E6FF100EDBCFE6FF7FEC24F0E552E552C6
:100BB000E552130E1CC0DBFF140E1DC0DBFF060E3A
:100BC000DB5005E0130E11EC0AF001E26ADB35ECB4
:100BD0000AF002E2130E37DBF8EC09F006E0040E2F
:100BE00011EC0AF002E2050E2EDB030EDBB005D09D
:100BF000FCDA01E0D9D2080EDB6A090EDB6A0E0EC0
:100C0000DBCFF6FF0F0EDBCFF7FF100EDBCFF8FFC9
:100C10000800F550DF6EDF5014E03BEC0AF011E203
:100C20004AEC0AF003E12C1C01E1BED2BBDB01E37C
:100C3000DB2A090EDB2AD9500E0FE96E000ECBDB42
:100C4000E7D7D3DA01E1B6D2AFD2C6DA110EEECFD2
:100C5000DBFF120EEDCFDBFF110EDBCFE6FF120E36
:100C6000DBCFE6FF71EC24F0E552E552130EF3CF33
:100C7000DBFF140EF4CFDBFF060EDB5004E0130E97
:100C8000D0DB01E20EDB35EC0AF002E2130EDBDA18
:100C9000AFDB05E0040EC5DB02E2050ED4DA030E7D
:100CA000DBB005D0A2DA01E07FD2080EDB6A090EC4
:100CB000DB6A110EDBCFE9FF120EDBCFEAFFEFCFCD
:100CC000DFFFDF5014E0D7DB12E2E4DB03E12C1C92
:100CD00001E16AD267DB01E3DB2A090EDB2A110E90
:100CE000DB2ADBCFE9FF120EE8E3DB2AE6D77DDA69
:100CF00001E160D259D2030EDB8E070EDB0410E156
:100D000095DB040E5ADB0A0EEECFDBFF0B0EEECFA7
:100D1000DBFF0C0EEECFDBFF0D0EEECFDBFF6CD05A
:100D2000070EDB5003082CE1030EDBAE0DD0B2DA68
:100D3000020E76DAEFCF2BF02C6A2D6A2E6A2BAEDC
:100D400039D02C682D6835D0F70EDBCF2CF0F80E9B
:100D5000DBCF2DF0020E2C5E000E2D5AF70E2CC0AC
:100D6000DBFFF80E2DC0DBFF2CC0E9FF2DC0EAFF32
:100D7000EFCF2BF00A0E2BC0DBFF0B0EDB6A38D057
:100D8000070EDB50020809E1030EDBAE04D059DB8D
:100D90002DAE10D00ED055DB0DD0030EDBAE12D031
:100DA00079DA020E3DDAF9DA2D6A2E6A2CAE02D01B
:100DB0002D682E68E2DA0C0E2DC0DBFF0D0E2EC062
:100DC000DBFF1AD0F70EDBCF2DF0F80EDBCF2EF0C5
:100DD000020E2D5E000E2E5AF70E2DC0DBFFF80E10
:100DE0002EC0DBFF2DC0E9FF2EC0EAFFD6DAC5DA40
:100DF0000C0EDB6A0D0EDB6A060EDB5005E1010E00
:100E0000F36E050EF3CFDBFF150EDB6A160EDB6A01
:100E1000D950370F2B6E000EDA202C6E390E2BC0F6
:100E2000DBFF3A0E2CC0DBFF380EDB6A080EDB6AF4
:100E30000A0EAEDADF50780A12E0200A10E0280A23
:100E40000CE0200A0AE03F0A06E00D0A02E0200A50
:100E500008E1020E05D0080E03D0080EDF26100EA2
:100E600097DA030EDBBE02D0DB92DB94DB50800B03
:100E700026E08ADA030EEB50000AE8AE02D0D890E2
:100E800008D0000EEE5C000EEE58000EEE58000E7C
:100E9000EE5815E211DA206821682268236830ECE8
:100EA00025F00A0E17C0DBFF0B0E18C0DBFF0C0E7F
:100EB00019C0DBFF0D0E1AC0DBFF2D0E08D0030E8C
:100EC000DBA202D02B0E03D0DBA408D0200EF36EE1
:100ED000170EF3CFDBFF150EDB2A02D0170EDB6AED
:100EE000050EDB5003E1B5D901E189D0600E2B6E10
:100EF0004D0E2C6E000E2D6E070EDBCF2EF02F6ADE
:100F0000306A316A2EC020F02FC021F030C022F0AC
:100F100031C023F0D1D9FEEC25F02B501724F36E0D
:100F20002C501820F46E2D501920F86EF4CFF7FFD6
:100F3000F3CFF6FF0800090EF5CFDBFF580EDF5C9C
:100F40000FE1610EF36E090E79D90AE3200E2B6EC4
:100F5000090EDBCFE7FF2B50E75E090EE7CFDBFF83
:100F6000070EDBCF2BF02C6A2D6A2E6A0DDA2BC010
:100F700020F02CC021F02DC022F02EC023F0EECFA7
:100F80001BF0EECF1CF0EECF1DF0EFCF1EF0FEEC0D
:100F900025F01EC0EDFF1DC0EDFF1CC0EDFF1BC006
:100FA000EFFF390EDBCFE9FFDB063A0EDBCFEAFFBE
:100FB00001E2DB06090EDBCFEFFF150EDB2A49D974
:100FC00095E1030EDBA61DD06F0EDF5C06E1BFD9F5
:100FD00018E3150EDB2859DA14D0780EDF5C09E02F
:100FE000580EDF5C06E0620EDF5C03E0420EDF5C61
:100FF00008E1020EF36E160EF3CFDBFF02D0150EE2
:10100000DB6A030EDB50100B0EE0040EDBCF2BF07F
:10101000050EDB50D8802B5406E2060EDB5003E1B0
:10102000040EDB5032DA93D90AE2050EDBCFE7FF7C
:10103000150EDB50E75E050EE7CFDBFF02D0050E95
:10104000DB6A040EDBCF2BF0160E43D9D8802B546D
:1010500014E2160EDBCFE6FF150EDBCFE6FF040E23
:10106000DBCFE6FF050EDB50E552E75CE552D880AA
:10107000E754E552D880E7545DD9030EDB50010BED
:101080000BE1080EDB5008E0B0D801E08DD0080E6F
:10109000DB50BCD8080EDB6A170EDB5007E086D9A0
:1010A000170EEFD903E12C1C01E17ED0160EDB50A8
:1010B00016E07CD9300EE66E9DD802E12C1C74E05F
:1010C00075D9DFCFE6FFEEEC24F0E552E552E552AC
:1010D000F4CF2CF00001F31C02E12C1C65E0050E9E
:1010E000DBCF2BF0160EDB50D8802B5409E2050E17
:1010F000DBCFE7FF160EDB50E75E050EE7CFDBFF29
:10110000300EE66E050EC9D94FE1390EDB2ADBCF72
:10111000E9FF3A0E01E3DB2ADBCFEAFF090EEFCF4E
:10112000DBFFDB500EE042D9090EABD902E12C1CEB
:101130003BE0390EDB2ADBCFE9FF3A0EEDE3DB2A99
:10114000EBD753D831E1160EDBCFE6FF080EC1D83E
:10115000E552E7245BD82ED0070EDB50030A1CE0D3
:10116000010A14E0030A07E079D9DBCFEEFF020E93
:10117000DBCFEDFF1FD0F3D8306A2EAE02D02F6840
:1011800030682AD8BAD830C0EEFF14D0E8D82EBEC6
:101190002F6822D8B2D80ED061D9DBCFEFFF0AD0AA
:1011A00079D905E12C1C03E1F368F46810D0FAD872
:1011B00001E3DB2A77D977EF04F0010EDBCF2BF0C8
:1011C000020EDBCF2CF02BC0F3FF2CC0F4FFD9CFE5
:1011D000E1FFDACFE2FFCBD029D9020EDDEF09F033
:1011E00061D90800F550DF6E1200200EE66E080E81
:1011F0004DEF0AF0EEEC24F0E552E552E552F3CF64
:101200002BF0F4CF2CF00001F31C12002B6E2C6A93
:10121000D950010F4DD92B50EE262C50ED22120043
:101220002F5E000E305AF70E2FC0DBFFF80E30C0D5
:10123000DBFF2FC0E9FF30C0EAFF1200DBCFF4FF75
:10124000F350F45C1200DB50E76E040EE7CFDBFFD7
:1012500012000A0EDBCF2BF00B0EDBCF2CF00C0EA6
:10126000DBCF2DF00D0EDBCF2EF02B502C102D10E0
:101270002E101200130EEECFDBFF140EEDCFDBFFAE
:10128000130EDBCF2BF0140EDBCF2CF00001800E01
:101290002C141200F70EDBCF2FF0F80EDBCF30F05E
:1012A0001200050EDB50E66ED950130F01D9E5523E
:1012B000E750EE6EED6A12000A0EDBCF1BF00B0E4C
:1012C000DBCF1CF00C0EDBCF1DF00D0EDBCF1EF0C4
:1012D0001200DBCFE6FF150EDBCFE6FF050EDB507D
:1012E000E552E724E552E7241200DB50CED8010E88
:1012F000F36E060EF3CFDBFF1200EE50EFCFEAFFE6
:10130000E96E2DC0EEFF2EC0EEFF2FC0EEFF1200E3
:10131000D9CFE6FFDACFE6FFE1CFD9FFE2CFDAFFA0
:101320001200DFCFE6FFE66A57EC26F0E552E55201
:10133000F3501200E76E080EE7CFDBFF1200EECF8E
:101340002BF0EECF2CF0EFCF2DF02E6A1200050E11
:10135000DBCF2BF0150EDB50D8802B541200010E82
:10136000DBCF2DF0020EDBCF2EF02F6A1200E552FC
:10137000E5CFDAFFE7CFD9FF12000A0E2BC0DBFF63
:101380000B0E2CC0DBFF1200D9500A0F58EF0AF0E9
:10139000F36E070EF3CFDBFF1200EECF2BF0EFCF93
:1013A0002CF01200010EDB2A020E1200FC0EDBCF25
:1013B000E6FFFD0EDBCFE6FF12002B5E000E2C5A7F
:1013C000F70E2BC0DBFFF80E2CC0DBFF2BC0E9FFB4
:1013D0002CC0EAFF1200DA20EA6EEF2AEECFF6FF09
:1013E000000EEF22EECFF7FFEF22EECFF8FF120054
:1013F000040EDBCFE6FF130EDB50E552E75C9ADF0D
:10140000DB5004DF060EDB501200090EDB500A0D24
:10141000F350DF24D00FE76E090EE7CFDBFFF0EFCC
:1014200008F0DB50F36E050E1EEF09F0F70EDBCF70
:101430002BF0F80EDBCF2CF01200DFCFE6FFFAEF37
:1014400008F028DF030EECDE9FEF09F04CEC04F00F
:10145000E552E552E552E55200091200BDDEEE50BC
:10146000EFCFEAFFE96E010E1200130EDB50F36EB0
:10147000040E1EEF09F0040EDB50F36E090E1EEF92
:1014800009F0DBCFE6FFFAEF08F0E76E050EE7CFD5
:10149000DBFF12008BDF1DEF0AF0DBCFE6FF86DFFC
:1014A00026EF0AF0D950F90FE96EFF0EEBEF09F0C5
:0A14B000E96E000EDA20EA6E120069
:0614BA005B785D2045781F
:1014C00069740D0A005B775D20536176652063685F
:1014D000616E6765730D0A005B765D204C6F616419
:1014E0002064656661756C742076616C7565730D3A
:1014F0000A005B755D2052657374617274206361CC
:101500006D6572610D0A005B735D204368616E67F3
:101510006520434F4D4A203D2025752028307825F1
:10152000303258290D0A005B725D204368616E6796
:1015300065204548534C203D2025752028307825CE
:10154000303258290D0A005B715D204368616E6777
:10155000652045485348203D2025752028307825B2
:10156000303258290D0A005B705D204368616E6758
:101570006520434F4D49203D202575202830782592
:10158000303258290D0A005B6F5D204368616E6739
:101590006520434F4D42203D202575202830782579
:1015A000303258290D0A005B6E5D204368616E671A
:1015B0006520434F4D41203D20257520283078255A
:1015C000303258290D0A005B6D5D204368616E67FB
:1015D0006520414543203D20257520283078253061
:1015E0003258290D0A005B6C5D204368616E6765A7
:1015F00020425254203D2025752028307825303255
:1016000058290D0A005B6B5D204368616E67652099
:10161000534154203D2025752028307825303258FC
:10162000290D0A005B6A5D204368616E6765205280
:101630004544203D20257520283078253032582912
:101640000D0A005B695D204368616E676520424C4E
:1016500055203D2025752028307825303258290D19
:101660000A005B685D204368616E676520414743FF
:10167000203D2025752028307825303258290D0A44
:10168000000D0A416476616E636564206F70746951
:101690006F6E733A0D0A005B675D204368616E6789
:1016A00065204E46203D2025752028307825303293
:1016B00058290D0A005B665D204368616E676520EE
:1016C000425F4D6178203D202575202830782530F7
:1016D0003258290D0A005B655D204368616E6765BD
:1016E00020425F4D696E203D2025752028307825E9
:1016F000303258290D0A005B645D204368616E67D3
:101700006520475F4D6178203D2025752028307881
:1017100025303258290D0A005B635D204368616EF5
:10172000676520475F4D696E203D20257520283074
:101730007825303258290D0A005B625D20436861CC
:101740006E676520525F4D6178203D202575202809
:10175000307825303258290D0A005B615D204368DE
:10176000616E676520525F4D696E203D20257520B2
:1017700028307825303258290D0A000D0A43616C53
:101780006962726174696F6E20706172616D6574F7
:101790006572733A0D0A000D0A000D0A52657374E2
:1017A000617274696E672043616D6572612E2E2EC1
:1017B0000D0A00446F6E650D0A000D0A53617669CB
:1017C0006E6720746F20454550524F4D2E2E2E00CF
:1017D0000D0A4572726F723A204E756D6265722005
:1017E0006F7574206F662072616E67652E0D0A003A
:1017F0000D0A456E746572206E65772076616C7592
:101800006520287072656365656420686578616429
:101810006563696D616C206E756D626572732077AA
:10182000697468203078293A2000436F6E666964D5
:10183000656E63652028506978656C732920203DAA
:101840002025750D0A0020426C6F622053697A656D
:101850002028506978656C732920203D2025750D5E
:101860000A0054696C74204572726F7220285069A6
:1018700078656C732920203D2025640D0A002050D6
:10188000616E204572726F722028506978656C73A2
:101890002920203D2025640D0A0054696C742041E4
:1018A0006E676C6520286465677265657329203DE5
:1018B0002025640D0A002050616E20416E676C6522
:1018C00020286465677265657329203D2025640DB5
:1018D0000A000D0A00536561726368696E672E2EF7
:1018E0002E0D0A005B705D2052657475726E205477
:1018F0006F204D61696E20547261636B696E672061
:101900004D656E750D0A005B6F5D20446973706CE8
:1019100061792043757272656E742050574D205660
:10192000616C7565730D0A005B6E5D2053657420F4
:1019300054696C74204D61782050574D2056616C6D
:1019400075650D0A005B6D5D205365742054696CEC
:10195000742043656E7465722050574D2056616C3B
:1019600075650D0A005B6C5D205365742054696CCD
:1019700074204D696E2050574D2056616C75650D71
:101980000A005B6B5D2054696C7420446F776E2095
:1019900054656E2053746570730D0A005B6A5D2098
:1019A00054696C7420446F776E204F6E65205374B9
:1019B00065700D0A005B695D2054696C7420557078
:1019C0002054656E2053746570730D0A005B685D6A
:1019D0002054696C74205570204F6E6520537465D7
:1019E000700D0A005B675D205365742050616E20A6
:1019F0004D61782050574D2056616C75650D0A0079
:101A00005B665D205365742050616E2043656E7483
:101A100065722050574D2056616C75650D0A005B4C
:101A2000655D205365742050616E204D696E2050B5
:101A3000574D2056616C75650D0A005B645D205042
:101A4000616E2052696768742054656E2053746516
:101A500070730D0A005B635D2050616E20526967F0
:101A60006874204F6E6520537465700D0A005B62C8
:101A70005D2050616E204C6566742054656E205365
:101A8000746570730D0A005B615D2050616E204CBF
:101A9000656674204F6E6520537465700D0A005B97
:101AA000785D20457869740D0A005B775D2053618D
:101AB0007665206368616E6765730D0A005B765D0D
:101AC000204C6F61642064656661756C742076617A
:101AD0006C7565730D0A005B755D20496E746572E7
:101AE0006163746976652050574D2041646A75734F
:101AF000746D656E74204D656E750D0A005B715DC9
:101B0000204368616E676520536561726368204495
:101B1000656C6179203D2025750D0A005B705D20A4
:101B20004368616E67652054696C74205461726704
:101B3000657420506978656C203D2025750D0A007C
:101B40005B6F5D204368616E67652054696C74202B
:101B500053656172636820537465702053697A65B8
:101B6000203D2025750D0A005B6E5D204368616E87
:101B700067652054696C7420526F746174696F6E6C
:101B8000205369676E203D20252B640D0A005B6D94
:101B90005D204368616E67652054696C7420416CF8
:101BA0006C6F7761626C65204572726F72203D20A8
:101BB00025750D0A005B6C5D204368616E676520CA
:101BC00054696C74204761696E203D2025750D0AAB
:101BD000005B6B5D204368616E67652054696C74BF
:101BE000204D61782050574D203D2025750D0A006D
:101BF0005B6A5D204368616E67652054696C742080
:101C000043656E7465722050574D203D2025750D3B
:101C10000A005B695D204368616E67652054696CEA
:101C200074204D696E2050574D203D2025750D0ABA
:101C3000005B685D204368616E67652050616E20BF
:101C400054617267657420506978656C203D202569
:101C5000750D0A005B675D204368616E6765205003
:101C6000616E205365617263682053746570205300
:101C7000697A65203D2025750D0A005B665D20436D
:101C800068616E67652050616E20526F746174697F
:101C90006F6E205369676E203D20252B640D0A006E
:101CA0005B655D204368616E67652050616E204111
:101CB0006C6C6F7761626C65204572726F72203D4B
:101CC0002025750D0A005B645D204368616E6765C1
:101CD0002050616E204761696E203D2025750D0AF8
:101CE000005B635D204368616E67652050616E2014
:101CF0004D61782050574D203D2025750D0A005B21
:101D0000625D204368616E67652050616E204365A7
:101D10006E7465722050574D203D2025750D0A00C8
:101D20005B615D204368616E67652050616E204D88
:101D3000696E2050574D203D2025750D0A00446FD7
:101D40006E650D0A000D0A536176696E6720746F27
:101D500020454550524F4D2E2E2E0054696C742054
:101D60003D2025750050616E203D2025750D0A002F
:101D70000D0A000D0A4572726F723A204E756D623F
:101D80006572206F7574206F662072616E67652EB4
:101D90000D0A000D0A456E746572206E6577207617
:071DA000616C75653A20003B
:081DA800D9CFE6FFE1CFD9FF1E
:101DB000060EE12602016E51090A01E100D2010A74
:101DC00001E1E2D10F0A01E1BDD1010A01E146D1F1
:101DD000030A01E13CD1010A5AE0070A4BE0010A7B
:101DE0001AE0030A14E0010A01E0F7D1010E6D6F59
:101DF00002011E6B6BDB01E3EDD170DBEFCFDBFF8C
:101E00001E5157DB010EDBCFEFFF1E2BF3D7E8D9B6
:101E10000201020EE1D1ECEC18F0DF6E610EDF5C26
:101E20000EE3DF5071080BE30201030E6E6FDFCF8C
:101E30001CF2610EDF5C020F02011B6FCED1750E2A
:101E4000DF5C04E16EDA0201060EC6D1760EDF5CBD
:101E500003E10201070EC0D1770EDF5C03E102014E
:101E6000080EBAD1780EDF5C01E0B7D102016E6BCB
:101E70006D6BB3D102011A6BECEC18F00009FCE1B8
:101E8000930E2B6E1D0E4ADB0201040EA5D1ECEC65
:101E900018F0DF6E300EDF5C03E3DF50390806E236
:101EA0002B0EDF5C03E02D0EDF5C10E102011A5106
:101EB00006DB0CE2DFCFE6FFEEEC18F0E5520201A4
:101EC0001A513DDBDFCFEFFF1A2B87D10D0EDF5C00
:101ED00001E083D12D0E0201145D0BE1040EDB68DD
:101EE000050EDB681A071E6B1E51E9DA0EE2D6DA20
:101EF000FBD72B0E145D08E1F9DA1A071E6B1E5191
:101F0000DEDA03E2CBDAFBD7F1DA02011A51030879
:101F100008E2020EDB6A010EF36E030EF3CFDBFF65
:101F200062D0030E1A5D2CE1300E145D2B6E2C6A0C
:101F3000640E1D6E1E6A2BC022F02CC023F084ECB0
:101F400023F0020E1BC0DBFF030E1CC0DBFF300EB4
:101F50000201155D2D6E2E6A0A0E1D6E1E6A2DC0C1
:101F600022F02EC023F084EC23F01CC02CF090DA79
:101F70001B50EE262C50ED22300E0201165D0AD0C9
:101F8000020E1A5D0FE1300E145D0A0DF350DDDA1A
:101F9000300E155D2B6E2C6A7BDA2B50EE262C5002
:101FA000ED2205D01A0519E1300E145DCEDA040ECB
:101FB000DBCF2BF0050EDBCF2CF06ADA2BC022F042
:101FC0002CC023F0EECF1DF0EDCF1EF084EC23F0FB
:101FD0001BC0EEFF1CC0EDFF06D01A5104E11B51DF
:101FE00068DAEF50B2DA660E02011C5D03E06E0E95
:101FF0001C5D0EE14DDA010EEE1801E1ED501EE020
:1020000047DAFF0EEE1820E1FF0EED181DE116D0A5
:10201000020E030EDBCF2CF00001800E2C1414E115
:10202000020EDBCF2DF0030EDBCF2EF02E3404E2B8
:102030002D50FF08000E2E5407E302011B5139DA20
:10204000020EDBCFEFFFC6D00201050EC5D0730E26
:102050002B6E1D0E63DA0201030EBED0ECEC18F0FD
:10206000DF6E610EDF5C02E10101A307620EDF5C3F
:1020700004E10A0E0101A35FB0D0630EDF5C03E14F
:102080000101A32BAAD0640EDF5C04E10A0E01015A
:10209000A327A3D0650EDF5C03E1A3C102F29DD0AC
:1020A000660EDF5C03E1A3C103F297D0670EDF5C2D
:1020B00003E1A3C104F291D0680EDF5C03E10101EA
:1020C000A42B8BD0690EDF5C04E10A0E0101A4276A
:1020D00084D06A0EDF5C03E10101A4077ED06B0EA1
:1020E000DF5C04E10A0E0101A45F77D06C0EDF5CB7
:1020F00003E1A4C10AF271D06D0EDF5C03E1A4C15B
:102100000BF26BD06E0EDF5C03E1A4C10CF265D064
:102110006F0EDF5C13E11DDA0101A351E66EE66A82
:10212000650E2B6E1D0EFDD90101A451E66EE66A07
:102130005B0E2B6E1D0EF5D9F4D84FD0700EDF5C00
:102140004CE148D00201026B7C0E036FF80E046F65
:10215000030E056F060E066F07693E0E086F4F0EE1
:10216000096F5E0E0A6F900E0B6FC20E0C6F080E99
:102170000D6F060E0E6F010E0F6F320E106F770E81
:10218000116F050E126F26D002011E6B9FD90AE255
:102190001E518FD9010EEFCFDBFFA0D9DBCFEFFFB0
:1021A0001E2BF4D7200EE66EE66AFFD8E552E55204
:1021B000450E2B6E1D0EB2D90201090E0DD069EC31
:1021C00022F020080AE13E0E2B6E1D0E4FD9E5527B
:1021D000E552E5520201010E6E6F02016D518ED182
:1021E000B8D9B7D902010251E66EE66A200E2B6E0D
:1021F0001D0E97D902010351E66EE66AFF0E2B6EA3
:102200001C0E8FD902010451E66EE66AE10E2B6EB8
:102210001C0E87D902010551E66EE66AC60E2B6ECA
:102220001C0E7FD902010651E66EE66AA00E2B6EE7
:102230001C0E77D907C22BF02C6A2BBE2C6869D9EB
:102240007B0E2D6E1C0E70D902010851E66EE66AF7
:10225000540E2B6E1C0E65D902010951E66EE66A1A
:10226000310E2B6E1C0E5DD902010A51E66EE66A34
:10227000120E2B6E1C0E55D902010B51E66EE66A4A
:10228000F00E2B6E1B0E4DD902010C51E66EE66A64
:10229000D10E2B6E1B0E45D902010D51E66EE66A7A
:1022A000B50E2B6E1B0E3DD902010E51E66EE66A8D
:1022B0008E0E2B6E1B0E35D90FC22BF02C6A2BBE47
:1022C0002C6827D9680E2D6E1B0E2ED902011051D5
:1022D000E66EE66A400E2B6E1B0E23D902011151E9
:1022E000E66EE66A1C0E2B6E1B0E1BD90201125104
:1022F000E66EE66AFD0E2B6E1A0E13D92AD9D70E9A
:102300002B6E1A0E0BD9BD0E2B6E1A0E07D9AA0E04
:102310002B6E1A0E03D99F0E2B6E1A0EFFD8A9EF43
:1023200012F017D916D9870E2B6E1A0EF7D86E0E2B
:102330002B6E1A0EF3D8550E2B6E1A0EEFD83B0EDD
:102340002B6E1A0EEBD81F0E2B6E1A0EE7D8000E4E
:102350002B6E1A0EE3D8E40E2B6E190EDFD8CD0EBD
:102360002B6E190EDBD8B50E2B6E190ED7D89C0E1E
:102370002B6E190ED3D8820E2B6E190ECFD8650E88
:102380002B6E190ECBD8450E2B6E190EC7D8280E02
:102390002B6E190EC3D8070E2B6E190EBFD8E40E84
:1023A0002B6E180EBBD8A9EF12F0D9CFE6FFE1CF04
:1023B000D9FF050EE126030EDB6A040EDB6A070176
:1023C000470EE06F4B0EE16FDE6ADD6ADECF2BF069
:1023D000DDCF2CF0130E2B5C000E2C5831E2DECF3B
:1023E000E9FFDDCFEAFFE00EE926070EEA22020E42
:1023F000EFCFDBFFDBCFE6FFFD0EDBCF2DF0FE0ED8
:10240000DBCF2EF0DE502D242B6EDD502E202C6ED7
:102410002BC0E6FFE66EECEC21F036D8020EDB5066
:102420002B6E2C6AD950030FE96EDACFEAFF2B50DE
:10243000EE262C50ED22DF2A010EC8E3DB2AC6D798
:10244000030EDBCFE6FF140EE76EFD0EDBCF2BF0A5
:10245000FE0EDBCF2CF0E7502B26000E2C222B0695
:102460002C5A57D8ECEC21F00FD848D02C6E2D6A9E
:102470002BC0E6FFE66E2DC0E6FFA4EF24F0F56E5C
:10248000050EE15EF5501200E552E552E5521200EC
:10249000D950020FE96EDACFEAFF12001E294FD899
:1024A000EF50E66E1E514BD8E552E750EF6E1E2BF3
:1024B0001200EA6A000FE96E020EEA2212002B6E89
:1024C0002C6A060E2B5C000E2C5812001E512B6E2F
:1024D0002C6A140E2B5C000E2C5812001E51EA6A56
:1024E000E00FE96E070EEA22010E1200010EF36EF4
:1024F000040EF3CFDBFF050EDB6A1200D9CFE1FF3C
:10250000E552E7CFD9FF1200E552E750EE6EED6AD3
:1025100012002BC0E6FF2CC0E6FF1200A7DF44EF3D
:1025200012F0A4DF3FEF12F02E6E2F6A2DC0E6FFEF
:10253000E66E2FC0E6FFA4EC24F03FEF12F0EA6A4B
:10254000140FE96E020EEA221200E66EA1DF84EF9C
:0C25500012F0700E2B6E1D0E8EEF12F0BC
:04255C00D9CFE6FFEE
:10256000E1CFD9FF040EE126020172510A0A01E10E
:10257000D0D1030A01E1C4D1010A01E1B8D10F0AA7
:1025800001E19AD1010A01E176D1030A01E16CD19E
:10259000010A5BE0070A4CE0010A1AE0030A14E0B2
:1025A000010A01E0BDD1010E716F0101FF6B2BDB50
:1025B00001E3B3D130DBEFCFDBFFFF511EDB030EB6
:1025C000DBCFEFFFFF2BF3D7AED90201020EA7D16D
:1025D0002ADB610E07DB0EE3020EDB5073080AE311
:1025E0000201030E726F020EDB509F0F020F0101FA
:1025F000FD6F96D1020EDB50750803E10201090E52
:102600008ED1020EDB50760803E10201060E87D15F
:10261000020EDB50770803E10201070E80D1020EA3
:10262000DB50780801E07CD10201726B716B78D1CC
:102630000101FC6BECEC18F00009FCE1F00E2B6ED4
:10264000170E06DB0201040E6AD1EDDA300ECADA8B
:1026500004E3020EDB50390816E2610EC3DA04E32C
:10266000020EDB5066080FE2410EBCDA04E3020EF4
:10267000DB50460808E2020EDB50780804E0020E48
:10268000DB50580830E10101FC512B6E2C6A060E1C
:102690002B5C000E2C5827E2610EA4DA04E3020E34
:1026A000DB50660804E2020EDB5078080AE1200ED7
:1026B0002B6E020EDBCFE7FF2B50E75E020EE7CF5B
:1026C000DBFF020EDBCFE6FFEEEC18F0E552010176
:1026D000FC51EA6AF60FE96E010EEA22020EDBCF28
:1026E000EFFFFC2B1DD1020EDB500D0801E018D1CD
:1026F000300E0101F65D5AE1580EF75D57E1FC51CD
:10270000040857E3040EFC5D34E1300EF85D06E387
:10271000F851390803E3300EF85D09D0410EF85D39
:102720000BE3F851460808E3410EF85D0A0F100D5F
:10273000F350DE6EDD6A06D0580EF85D03E1DE6A06
:10274000010EDD6E300EF95D06E3F951390803E341
:10275000300EF95D6AD0410EF95D07E3F951460884
:1027600004E3410EF95D0A0F60D0580EF95D6DE18A
:1027700019D0030EFC5D1DE1300EF85D06E3F85143
:10278000390803E3300EF85D5ED0410EF85D07E3D3
:10279000F851460804E3410EF85D0A0F54D0580E74
:1027A000F85D53E14DDAEE52ED2A4FD0FC510308AB
:1027B00004E2DE6A010EDD6E48D0030EFC5D2AE104
:1027C000300EF65D2B6E2C6A640E1D6E1E6A2BC0D9
:1027D00022F02CC023F084EC23F01BC0DEFF1CC0D1
:1027E000DDFF300E0101F75D2D6E2E6A0A0E1D6EA3
:1027F0001E6A2DC022F02EC023F084EC23F01CC0F2
:102800002CF01EDA1B50EE262C50ED22300E01016A
:10281000F85D0BD0020EFC5D0CE1300EF65D0A0D8A
:10282000F350DE6EDD6A300EF75DDE26000EDD222F
:102830000CD0FC0503E1300EF65D05D0FC5105E13E
:10284000FD51DBD9EF50DE6EDD6AFAD9FF0ED8807C
:10285000EE54000EED5405E3FD51CFD9DFCFEFFF6D
:102860005CD00201050E5BD0D00E2B6E170EF0D996
:102870000201030E54D00101550EE26F730EE36F97
:102880000F0EE46F110EE56F640EE66F910EE76FA9
:10289000E86BE96B800EEA6FEB6FEC6F010EED6F8A
:1028A000EE6F200EEF6FF06F800EF16FF26F200E63
:1028B000F36F840EF46F31D00101FF6BA4D90AE2EB
:1028C000FF519BD9030EEFCFDBFFA5D9DBCFEFFF85
:1028D000FF2BF4D7000EE66EE66A12D9E552E552F8
:1028E000BA0E2B6E170EB4D90201080E18D069EC7F
:1028F00022F0200815E1B30E2B6E170EA9D90DD0CA
:102900009A0E2B6E170EA4D9B8EC18F002010A0E1D
:1029100006D0BBEC18F0010803E10201010E726F52
:102920000201715187D197D97B0E2B6E170E90D96A
:102930000101E251E66EE66AE251E66EE66A5A0E7F
:102940002B6E170E82D90101E351E66EE66AE35160
:10295000E66EE66A390E2B6E170E77D90101E45147
:10296000E66EE66AE451E66EE66A180E2B6E170E06
:102970006CD90101E551E66EE66AE551E66EE66A5C
:10298000F70E2B6E160E61D90101E651E66EE66A6E
:10299000E651E66EE66AD60E2B6E160E56D901018A
:1029A000E751E66EE66AE751E66EE66AB50E2B6E13
:1029B000160E4BD90101E851E66EE66AE851E66E63
:1029C000E66A970E2B6E160E40D9810E2B6E160EF0
:1029D0003FD90101E951E66EE66AE951E66EE66A21
:1029E000620E2B6E160E31D90101EA51E66EE66ACF
:1029F000EA51E66EE66A430E2B6E160E26D90101E9
:102A0000EB51E66EE66AEB51E66EE66A240E2B6E3B
:102A1000160E1BD90101EC51E66EE66AEC51E66E2A
:102A2000E66A050E2B6E160E10D90101ED51E66E09
:102A3000E66AED51E66EE66AE60E2B6E150E05D9D6
:102A40000101EE51E66EE66AEE51E66EE66AC70EE9
:102A50002B6E150EFAD80101EF51E66EE66AEF51C2
:102A6000E66EE66AA70E2B6E150EEFD80101F05147
:102A7000E66EE66AF051E66EE66A870E2B6E150E7C
:102A8000E4D80101F151E66EE66AF151E66EE66ABC
:102A9000670E2B6E150ED9D80101F251E66EE66A6B
:102AA000F251E66EE66A470E2B6E150ECED8010186
:102AB000F351E66EE66AF351E66EE66A270E2B6E78
:102AC000150EC3D80101F451E66EE66AF451E66EC4
:102AD000E66A070E2B6E150EB8D8BDD8F20E2B6E17
:102AE000140EB6D8D80E2B6E140EB2D8C50E2B6E9F
:102AF000140EAED8BA0E2B6E140EAAD82BEF16F009
:102B0000D9CFE6FFE1CFD9FF050EE126030EDB6A40
:102B1000040EDB6A0101420E606F500E616FDE6AC7
:102B2000DD6ADECF2BF0DDCF2CF0150E2B5C000E16
:102B30002C5831E2DECFE9FFDDCFEAFF600EE92657
:102B4000010EEA22020EEFCFDBFFDBCFE6FFFD0E28
:102B5000DBCF2DF0FE0EDBCF2EF0DE502D242B6EC2
:102B6000DD502E202C6E2BC0E6FFE66EECEC21F043
:102B700040D8020EDB502B6E2C6AD950030FE96E41
:102B8000DACFEAFF2B50EE262C50ED22DF2A010E81
:102B9000C8E3DB2AC6D7030EDBCFE6FF160EE76ECF
:102BA000FD0EDBCF2BF0FE0EDBCF2CF0E7502B26FB
:102BB000000E2C222B062C5A2BC0E6FF2CC0E6FF61
:102BC000ECEC21F016D836D02C6E2D6A2BC0E6FF27
:102BD000E66E2DC0E6FFA4EF24F0F56E070EE15E71
:102BE000F5501200F36E020EDBCFF4FFF350F45CED
:102BF0001200E552E552E5521200EA6AE00FE96E72
:102C0000010EEA221200FF512B6E2C6A160E2B5C6D
:102C1000000E2C581200FF51EA6A600FE96E010E97
:102C2000EA22030E1200ECEC18F0E76E020EE7CF7A
:102C3000DBFF1200D9CFE1FFE552E7CFD9FF120049
:102C4000D9CFE9FFDACFEAFF1200BEDFEDEF15F0D2
:102C5000BBDFF9EF15F0970E2B6E170E28EF16F06D
:102C6000D4DA040EE12602014F510AE1D1D8DF6E19
:102C7000DF0404E10201010E4F6F02D0DF500108B2
:102C80009DDAE76E010EE7CFDBFFDB50000817E2AD
:102C9000030EDB6A010EDB50F36E030EDBCFF4FF95
:102CA000F350F45C0CE28CDAE76E020EE7CFDBFF48
:102CB000DBCFE6FF07D8E552030EDB2AEBD7D9CFEF
:102CC000E1FFA8D2A2DA02015651060A01E17FD043
:102CD000030A60E0060A2EE0010A23E0030A01E08D
:102CE00096D0FE0EDB502B6E2C6AFF0E2B1804E1E3
:102CF0002C5002E1020E8AD0FE0EDB50410806E1A4
:102D00000101020E996F0201050E80D0FE0EDB500C
:102D10004E0801E07CD00101020E996F0201060EFF
:102D200075D0FE0EDB50540870E10101986B020172
:102D3000030E6CD0010198512B6E2C6A080E2B5C8F
:102D4000000E2C580AE29851EA6A760FE96E010EDD
:102D5000EA22FE0EDBCFEFFF982B98512B6E2C6AE8
:102D6000080E2B1854E12C5052E176C158F177C16E
:102D700059F178C15AF179C15BF17AC15CF17BC13B
:102D80005DF17CC15EF17DC15FF10201502B000E4F
:102D900051233BD0020E0101995D04E1FE0EDB5090
:102DA000430824E0030E995D04E1FE0EDB504B085E
:102DB0001DE0040E995D09E1FE0EDB500D0805E1F2
:102DC0000201522B000E532320D002011ED0020E0E
:102DD0000101995D04E1FE0EDB50430807E0030E9C
:102DE000995D06E1FE0EDB504B0802E1992B0FD0F6
:102DF000040E995D09E1FE0EDB500D0805E10201AC
:102E0000542B000E552301D00201010E566F02D241
:102E1000FCD9E6520201570507E1A7D9050EE66E77
:102E2000ADD9E5520201576B58050DE1586B010110
:102E30009B6B010E9A6F9C6B9D6B9E6B0201526B9C
:102E4000536B546B556B01019B0528E10201010E88
:102E5000525D000E535905E301019B6B9C6B9D6B0A
:102E6000D9D0010E545D000E555903E301019A05B6
:102E7000D0D001010A0E9C5D000E9D590BE3800E1F
:102E80009A252B6E2C6A000E2C222B062C5A2BC056
:102E90009EF1C0D09C2B000E9D23BCD00201526B32
:102EA000536B546B556B01019A51120A01E1B0D07A
:102EB000030A01E196D0010A01E18CD01F0A01E169
:102EC00083D0010A01E17AD0030A72E0010A6AE0C4
:102ED000070A62E0010A57E0030A4FE0010A47E0EF
:102EE0000F0A3FE0010A37E0030A2FE0010A27E05A
:102EF000070A1FE0010A19E0030A01E08BD0E66A25
:102F0000000EE66EE66A90D8E552E552E552DF6EB5
:102F1000DF5007E0DF0405E0020EDF5C02E0030E95
:102F2000DF5C23D90101020E01D0030E9A6F9B6B67
:102F300071D071C1E6FF290E59D9040E65D070C158
:102F4000E6FF130E53D9050E5FD074C1E6FF2D0EB8
:102F50004DD9060E59D072C1E6FF2A0E47D9070E89
:102F600053D073C1E6FF2B0E41D9080E4DD074C16A
:102F7000E6FF2D0E3BD9090E47D06FC1E6FF120EBA
:102F800035D90A0E41D069C1E6FFE66A0FD9E5528C
:102F9000E55201010B0E38D06AC1E6FF010E26D9B9
:102FA0000C0E32D06BC1E6FF020E20D90D0E2CD0D4
:102FB0006CC1E6FF030E1AD90E0E26D06DC1E6FFD6
:102FC000060E14D90F0E20D06EC1E6FF100E0ED9DA
:102FD000100E1AD068C1E6FFDFD8E5520101110ECC
:102FE00013D067C1E6FF66C1E6FF65C1E6FF64C1B5
:102FF000E6FF63C1E6FF62C1E6FFA7D8F56E060EE5
:10300000E15EF5500101120E9A6F010E9B6F02D026
:10301000010E9E6F9E51000803E20201010E586FDF
:1030200001019E51E552F6D0F0D8060EE126FC0EC5
:10303000DB5057E1020EDB6A030EDB6ADF6ADF500A
:103040002B6E2C6A160E2B5C000E2C5838E2DF50CB
:10305000E76EFD0EDBCF2BF0FE0EDBCF2CF0E75042
:103060002B26000E2C222BC0E6FF2CC0E6FFDDEC49
:1030700021F0E552E552E76E010EE7CFDBFFDF50AE
:10308000EA6A600FE96E010EEA22010EDBCFEFFF64
:10309000DF502B6E2C6A150E2B5C000E2C580DE2A7
:1030A000010EDB502B6E2C6AD950020FE96EDACF7D
:1030B000EAFF2B50EE262C50ED22DF2AC0D7420E1D
:1030C0000101605D0CE1500E615D09E1020EDB5013
:1030D000755D03E1040EDB6A09D0010E03D0020E18
:1030E00001D0030EF36E040EF3CFDBFF050EDB6A97
:1030F000D950040FE96EDACFEAFFEE50ED1020E070
:103100000101550E626F730E636F0F0E646F110E27
:10311000656F640E666F910E676F686B696B800EEA
:103120006A6F6B6F6C6F010E6D6F6E6F200E6F6F3D
:10313000706F800E716F726F200E736F840E746FDC
:10314000040EDB50D9CFE1FF65D05FD8540E54D8C0
:10315000430E52D8060E62D8FC0E52D8FB0E50D841
:10316000FA0E4ED8F90E4CD855D00D0EFCEF18F0D3
:1031700002014F6B120002014F51120046D8520E4D
:103180003BD84D0E39D8200E37D8FE0EDB50300F0D
:1031900033D80D0E31D83ED038D84E0E2DD8460E2D
:1031A0002BD8010E29D8FE0E2BD834D02ED8430EA2
:1031B00023D8520E21D8020E31D82CD022EF1EF087
:1031C00049EF1EF022D8FE0EDBCFE6FF81EC1EF0A9
:1031D000E55220D019EF1EF02BEF1EF016D8FE0E90
:1031E000DBCFE6FF67EC1EF0E55214D0E66EDEDFC3
:1031F000E552E55201011200E66EE4DFE5521200ED
:10320000DBCFE6FFDFDFE5521200D9CFE6FFE1CFEB
:10321000D9FF1200E552E7CFD9FF1200EDDFFE0E15
:08322000EFDFFD0E00EF19F0D5
:0832280050DA0A0EE126020152
:10323000595103E1010E596F39D902015A51020166
:10324000501904E102015B510201511901E12DD134
:1032500050C25AF251C25BF20101595101E1C5D08D
:103260000201010E5C6F0101A351DE6EDD6A0101F6
:1032700058512D6E2E6A0701E951F2D9060E2BC066
:10328000DBFF070E2CC0DBFF03DAF3D9E8AE02D078
:103290002C3401D0F3D905E222DA20E1010E1ADA4A
:1032A0001BD0F6D92F6E306A1D681E68E6C722F063
:1032B000CCD9E8AE02D02E3404D02D502B5C2E5049
:1032C0002C5808E207010BDA09E1040EDB68050E51
:1032D000DB6804D0040EDB6A050EDB6AE7C72DF05D
:1032E0002E6A2DBE2E688FD9D9CFE9FFE1D9CBD96F
:1032F0000701E25100012CAE02D0D89003D02B5C24
:10330000000E2C5803E20701E2510BD0BCD9070193
:10331000E451AFD9E8AE02D02C3401D0AFD903E2EA
:10332000E451DE6EDD6ADFCFA3F10101A45160D963
:10333000010159512D6E2E6A0701F15191D9080EE4
:103340002BC0DBFF090E2CC0DBFFAAD992D9E8AE57
:1033500002D02C3401D092D905E2CED920E1010E61
:10336000B9D91BD09DD92F6E306A1D681E68EEC773
:1033700022F06BD9E8AE02D02E3404D02D502B5C55
:103380002E502C5808E20701B7D909E1040EDB687A
:10339000050EDB6804D0040EDB6A050EDB6AEFC79E
:1033A0002DF02E6A2DBE2E682ED9D950020FE96E4F
:1033B0007FD938D90701EA5100012CAE02D0D8904C
:1033C00003D02B5C000E2C5803E20701EA510BD00E
:1033D00029D90701EC514DD9E8AE02D02C3401D0E7
:1033E0004DD960E2EC5104D95DD002015D2B07019B
:1033F000F2510201D8805D5558E25D6B5C0506E133
:103400005C6BDE6ADD6A0701EB5134D00101A35128
:10341000DE6EDD6AA451ECD836D90701E451000113
:103420002CAE02D0D89003D02B5C000E2C5824E395
:103430000701E251DE6EDD6AF5D8EC5100012CAED9
:1034400002D0D89003D02B5C000E2C5803E3070168
:10345000EA5110D00701F051ECD8E4D8EC5100014A
:103460002CAE02D0D89003D02B5C000E2C5818E361
:103470000701EC51BDD814D00701E851DE26000E3B
:10348000DD2201D9E45100012CAE02D0D89003D046
:103490002B5C000E2C5804E30701E451DE6EDD6A5C
:1034A000DFCFA3F1020EDBCFA4F109D10ED9E65292
:1034B000E66A200EE66EE66A12D8E552E552E5525B
:1034C000DF6EDF5007E0DF0405E0020EDF5C02E0A4
:1034D000030EDF5CE552E552E7CFD9FF1200F5D8C5
:1034E000060EE126FC0EDB504DE1020EDB6A030EF8
:1034F000DB6ADF6ADF502B6E2C6A140E2B5C000E29
:103500002C582EE2DF50E76EFD0EDBCF2BF0FE0EC7
:10351000DBCF2CF0E7502B26000E2C222BC0E6FF31
:103520002CC0E6FFDDEC21F0E552E552E76E010E1E
:10353000E7CFDBFFDF50EA6AE00FE96E070EEA2211
:10354000010EDBCFEFFFDF502B6E2C6A130E2B5CCE
:10355000000E2C5803E2010EDB506BD8DF2ACAD7CD
:10356000470E0701E05D0CE14B0EE15D09E1020E43
:10357000DB50F35D03E1040EDB6A06D0010E03D0DD
:10358000020E01D0030EA6D8050EDB6AC2D821E0D8
:103590000701E26B7C0EE36FF80EE46F030EE56F3C
:1035A000060EE66FE7693E0EE86F4F0EE96F5E0E9E
:1035B000EA6F900EEB6FC20EEC6F080EED6F060E09
:1035C000EE6F010EEF6F320EF06F770EF16F050E9A
:1035D000F26F040EDB5073D02CC023F031EC23F0DB
:1035E000040E1DC0DBFF050E1EC0DBFF89EF1BF0C4
:1035F000E66ED950020FE96EDACFEAFFE552E750E6
:10360000EE6EED6A12002DC01DF02EC01EF0040EED
:10361000DBCF22F0050EDBCF23F057EC23F01CC0EC
:103620002CF01200020EDBCF2BF0030EDBCF2CF0C0
:1036300012002B6E2C6AD950020FE96EDACFEAFF26
:103640002B50EE262C50ED22120030C023F057EC08
:1036500023F01BC02DF01CC02EF02C501C181200A3
:103660002F6E306A2F502D5C2B6E30502E582C6EE2
:1036700012002D6E2E6A2E502C1812002B502D5C2D
:103680002C502E581200DECF2BF0DDCF2CF0120084
:10369000060EDBCF2BF0070EDBCF2CF0E65112002D
:1036A000080EDBCF2BF0090EDBCF2CF0EE51120011
:1036B000DACFEAFF1B50EE262C50ED221200D9CFB4
:1036C000E1FFE552E7CFD9FF1200D9CFE6FFE1CF06
:1036D000D9FF1200F36E040EF3CFDBFF1200E551A9
:1036E0002B6E2C6A060EDBCF1DF0070EDBCF1EF013
:1036F000E5C722F0ECEF1AF0ED512B6E2C6A080EA4
:10370000DBCF1DF0090EDBCF1EF0EDC722F0ECEF92
:103710001AF0D950040FE96EDACFEAFFEE50ED103F
:02372000120095
:0E372200DACFE4FFE2CFDAFFE9CFE4FFEACF2F
:10373000E4FFE652F2A202D098D802D09EB6C4D8D6
:10374000E552E5CFEAFFE5CFE9FFE5CFDAFF11006B
:10375000E66A010EE66E050EE66E68EC25F0E552AF
:10376000E552E5521200070EB46E000E886E876EA9
:10377000866E856E846E836E826E816E806E916EB3
:10378000906E8F6E8E6E8D6E8C6E8B6E8A6E896E65
:1037900092689368BF0E946E956A700E966E9F0E37
:1037A000976EE40E986E0F0E996E9A68C16E070EB2
:1037B000C06EF19EB0989C8EA26A9F6AA06A9D6AB4
:1037C000A36AA56AC5DF9F86D08E9E969D8693824A
:1037D000F06AF288F09EF098F192F09AF16AF28C19
:1037E000F28E1200D9CFE6FFE1CFD9FFE652BBDF60
:1037F0000101DF97DF990201A30E436F010E446FB1
:10380000DF6A100EDF5C0AE2DF50EA6A4325E96EE8
:103810004451EA227F0EEF6EDF2AF3D70101BC6B21
:10382000010EBD6FC90EBE6F0101DF850101C16BC5
:10383000C26B01019F6BA16BA26B010ED56E800E56
:10384000D76EF90ED66ED59E9F0EE66E010EE66E11
:10385000ABD8E552E552E552E552E7CFD9FF120069
:1038600082828088949292981200F2920201200E35
:103870003F6F9F860101DFA906D00201E00E3C6F79
:10388000000E3D6F05D00201C00E3C6F000E3D6F73
:103890000101DFA1DF79DFA706D00201800E3A6FB8
:1038A000000E3B6F05D00201A00E3A6F000E3B6F79
:1038B000C9CF40F23AC2E9FF3BC2EAFF3A2B000E01
:1038C0003B23EF50C96E12009E96C9CF40F2020111
:1038D0003F51000824E23CC2E9FF3DC2EAFF3C2B15
:1038E000000E3D2340C2EFFF3AC2E9FF3BC2EAFFB0
:1038F0003A2B3B23EFCF40F240C2C9FF3F073F5175
:103900000DE10101DF810101020EBD6F0101DF93B5
:10391000800ED76EF90ED66EF294D58E01D0C96A9C
:103920001200D9CFE6FFE1CFD9FF0101DFA138D0E6
:10393000DFA906D00201C00E386F000E396F05D026
:103940000201E00E386F000E396FFD0EDBCF41F241
:10395000FE0EDBCF42F23E6B200E3E5D14E23E5186
:10396000EA6A3825E96E3951EA22EF50E66E41C223
:10397000E9FF42C2EAFF412B000E4223E552E75025
:10398000EF6E3E2BE9D79D960101DF919D860F0ECC
:103990000001165D05E0B5C1E6FF5DEC20F0E552E3
:1039A000E552E7CFD9FF1200D9CFE6FFE1CFD9FF2B
:1039B0000101DFB338D0020E0101BD5D01E17ED807
:1039C0000101DFA706D00201A00E386F000E396F8B
:1039D00005D00201800E386F000E396FFD0EDBCF6F
:1039E00043F2FE0EDBCF44F23E6B200E3E5D14E24E
:1039F00043C2E9FF44C2EAFF432B000E4423EF50C9
:103A0000E66E3E51EA6A3825E96E3951EA22E552FE
:103A1000E750EF6E3E2BE9D79D960101DF77DF83FC
:103A20009D860101BC2BE552E7CFD9FF12009D9680
:103A30000101DF919D861200D9CFE6FFE1CFD9FFCA
:103A40000001166BD950FD0FE96EFF0EDA20EA6E09
:103A5000010EEE1801E1ED5002E1168101D0BA6AC3
:103A6000D950FB0FE96EFF0EDA20EA6E010EEE1858
:103A700001E1ED5002E1168301D0B76AD950F90F88
:103A8000E96EFF0EDA20EA6E010EEE1801E1ED504C
:103A900002E1168501D0736AD950F70FE96EFF0E67
:103AA000DA20EA6E010EEE1801E1ED5002E1168710
:103AB00001D0706AE552E7CFD9FF12000101BB6B5C
:103AC000B66BC6AE04D0C69E010EB66F0ED0F150D6
:103AD000800B06E0F250080B03E0020EB66F05D033
:103AE000F0A603D0909E030EB66F250EC6142508CF
:103AF00005E0010EBB6FC6CFB6F168D0C55005E03A
:103B0000020EBB6FC5CFB6F161D0D0BE05D0030E9B
:103B1000BB6FD0CFB6F15AD09DB605D0040EBB6FA7
:103B20009DCFB6F153D09C5005E0050EBB6F9CCFE6
:103B3000B6F14CD0080E9F5C05E0060EBB6F9FCF20
:103B4000B6F144D0A25005E0070EBB6FA2CFB6F18C
:103B50003DD0A55005E0080EBB6FA5CFB6F136D01D
:103B6000500EF214500805E0090EBB6FF2CFB6F10B
:103B70002DD0470EF11405E00A0EBB6FF1CFB6F160
:103B800025D0C00EF01405E00B0EBB6FF0CFB6F1E0
:103B90001DD092A805D00C0EBB6F92CFB6F116D0F7
:103BA00093B005D00D0EBB6F93CFB6F10FD03E0E84
:103BB00094141C0805E00E0EBB6F94CFB6F106D02E
:0E3BC00097BE04D00F0EBB6F97CFB6F1120068
:023BCE00150ED2
:103BD000AF6EAC849D9A9D98AC98AC9E948EAB9C35
:103BE000AB96AB8AAB889F9A9D8A02016F69706918
:103BF000949CAC9CAC969F989D88AC8AAB8E12002E
:103C0000150E6F6E6C84A39AA3986C986C9E988422
:103C10006B9C6B966B8A6B88A59AA38A02016F696D
:103C2000706998926C9C6C96A598A3886C8A6B8E30
:103C3000120007D9E6529D9A24C2DFFF9D8ADF5009
:103C4000E552FBD0FED8E652A39A30C2DFFFA38A2A
:103C5000DF50E552F2D0F5D8E6520201215102E0E0
:103C6000000E15D02251EA6A000FE96E070EEA2213
:103C7000EFCFDFFF2407222B1F0E22179D9A23511F
:103C8000225D02E1010E216F9D8A206BDF50E5521B
:103C9000D4D0D7D8E65202012D5102E0000E15D043
:103CA0002E51EA6A400FE96E070EEA22EFCFDFFFDE
:103CB00030072E2B1F0E2E17A39A2F512E5D02E1D7
:103CC000010E2D6FA38A2C6BDF50E552B6D0B9D808
:103CD00002012751FDE12A51EA6A200FE96E070E21
:103CE000EA22FE0EDBCFEFFF2B2B2A2B1F0E2A170B
:103CF0009D982A51295D02E1010E276F9D88286B4E
:103D00009CD09FD802013351FDE13651EA6A600F21
:103D1000E96E070EEA22FE0EDBCFEFFF372B362BC4
:103D20001F0E3617A3983651355D02E1010E336F31
:103D3000A388346B82D00201205102E09D9A1200C8
:103D40002351EA6A000FE96E070EEA22AECFEFFFB9
:103D5000ABA203D0AB98AB88252BABB4262B242B7E
:103D6000232B1F0E23172351225D02E1010E206F2A
:103D7000216B120002012C5102E0A39A12002F5174
:103D8000EA6A400FE96E070EEA226ECFEFFF6BA2E0
:103D900003D06B986B88312B6BB4322B302B2F2BCD
:103DA0001F0E2F172F512E5D02E1010E2C6F2D6B70
:103DB00012000201285102E09D9812002951EA6A7E
:103DC000200FE96E070EEA22EF50AD6E2B07292B6C
:103DD0001F0E29172A51295D02E1010E286F276B5A
:103DE00012000201345102E0A39812003551EA6A30
:103DF000600FE96E070EEA22EF506D6E3707352B24
:103E00001F0E35173651355D02E1010E346F336BED
:103E1000120017D802011F510FE01F0505E1FE0E29
:103E2000DBCFE6FF54DF07D0020E1F5D05E1FE0E7B
:103E3000DBCFE6FF66DFE55200D0E552E7CFD9FFE2
:0C3E40001200D9CFE6FFE1CFD9FF12003D
:043E4C009EA8FED757
:103E50001200FCD8FE0EDBCFE6FF47EC20F0E55267
:103E6000F1D0F4D80101E150FD0F506FFF0EDA20C0
:103E7000516F010EEA6A5025E96E5151EA22EBD8E2
:103E800050C1E9FF51C1EAFFE6D8DCD0DFD8FD0E12
:103E9000DBCF2BF0FE0EDBCF2CF02D6A2BC0E6FF24
:103EA0002CC0E6FF2DC0E6FF000EE66E010EE66EAA
:103EB00058EC24F0F56E050EE15EF550000EE66E4E
:103EC000010EE66E71EC24F0E552E552F3CF54F1A9
:103ED000F4CF55F10101F43408E254515008000EBA
:103EE000555503E2500E546F556B566B576B575137
:103EF0005519E8AE02D0553504D05451565D555190
:103F000057590EE2000E5625E96E010E5721EA6E52
:103F1000EF50AD6E9BDF0101562B000E5723E7D704
:103F2000A0D094D80101526B1A0E525D0DE2FD0E25
:103F3000DBCFE9FFDB2AFE0EDBCFEAFF01E3DB2A62
:103F40008AD80101522BF0D77DD00101BF0E506FEE
:103F5000010E516F0101BF510201636F646B655126
:103F6000631902E16651641916E00101DFB50ED054
:103F700065C2E6FF47EC20F0E55263C2E6FF47EC7E
:103F800020F0E5520D0EAD6E61DF0101DF9563C2D9
:103F900065F264C266F20201652B000E6623663587
:103FA00007E26551FF08000E665502E2656B666B1D
:103FB0001200150EE66E3C0EE66E9BEC25F0E55207
:103FC000E552320EE66E79EC26F0E55212003ED84C
:103FD000FE0EDBCF53F145D039D8020EE126FE0E9E
:103FE000DB507F0BFE0BFD0BE66E53C1E6FFCDEC05
:103FF00025F0E552E5520A0EE66EA5EC26F0E552F4
:10400000BCEC26F007EC04F00009FCE122EC26F001
:10401000B9EC26F0C4502D6E2E6E2D6AC3500001EF
:104020002D102B6E2EC02CF0DE6E2EC0DDFFDECFED
:104030002BF0DDCF2CF02BC0F3FF2CC0F4FFD9CF39
:10404000E1FF0FD00D0EAD6E01DF0BD0D9CFE6FF33
:10405000E1CFD9FF1200EF50E66E47EC20F0E552B9
:0A4060001200E552E7CFD9FF12006D
:06406A00000EE96EEA6E93
:10407000040042EC20F0EA2A080EEA5CD8A438EFEB
:1040800020F01200EF6AE93E42EF20F01200FF0E2E
:10409000E3CF09F009380F0B060FD8B2070F2A0F2C
:1040A000AD6E26EC1FF009500F0B060FD8B2070FAC
:1040B0002A0FAD6E26EC1FF0000CFF0EE3CF15F0BB
:1040C00015B0968E15A0969E15B2988015A2989060
:1040D00015B4988615A4989615B6988815A698983C
:1040E00015B8968015A8969015BA968215AA96923C
:1040F00015BC968415AC969415BE968615AE96960C
:104100001200F2B4120016500F0AD8B41200FF0EBB
:10411000E3CF0AF0FE0EE3CF0BF0FD0EE3CF0CF081
:10412000FC0EE3CF0DF00A2A16A08D8E0B2A16A2E4
:104130008F800C2A16A48F860D2A16A68F88FB0E58
:10414000E3CF0EF0FA0EE3CF0FF0F90EE3CF10F04D
:10415000F80EE3CF11F00E2A8D800F2A8D82102ADF
:104160008D84112A8D86E4EC20F00A2EBAEF20F01F
:1041700016A08D9E0B2EBFEF20F016A28F900C2E56
:10418000C4EF20F016A48F9600000D2ECAEF20F089
:1041900016A68F9800000E2ECFEF20F08D90000015
:1041A0000F2ED4EF20F08D920000102ED9EF20F0CA
:1041B0008D940000112EDEEF20F08D9606EC21F09C
:1041C000133EB5EF20F01200D70E136E0000000072
:1041D00000000000FCEC20F0132EE6EF20F0D70EDC
:1041E000136E0000000000000000FCEC20F0132E15
:1041F000F1EF20F0000012000000FFEF20F00000BF
:10420000000000000000000000001200030E146E09
:0A4210000000142E08EF21F0120048
:06421A00D9CFE6FFE1CF61
:10422000D9FF0101B569E150FD0FAED801E1B591AB
:10423000D950FB0FA9D801E1B593D950F90FA4D8F3
:1042400001E1B595D950F70F9FD801E1B597D95045
:10425000F50F9AD801E1B599D950F30F95D801E13E
:10426000B59BD950F10F90D801E1B59DD950EF0F12
:104270008BD801E1B59FE552E7CFD9FF12009282BA
:104280009280FD0EE66EE7EC1FF0E552978897846A
:104290009780998E998A978C9296929497969792F6
:1042A000929A999C9998979A899689948E968E92CB
:1042B000899A909C90988E9A0101720EA36F460E77
:1042C000A46F7F0EAA6FA96FA86FA76FA66FA56FC7
:1042D000010E61D860D8A1DFF56E100EE15EF550D9
:1042E000000E59D81CEC1DF0F56E080EE15EF5507D
:1042F000E7EC1DF000EC1EF00201010E1F6F54D818
:1043000030EF1CF0D9CFE6FFE1CFD9FF020EE12656
:10431000BF0EE66E010EE66E91EC1CF0E552E55222
:104320000201685104E1695102E18BEC22F030ECAA
:1043300016F00201695102E114EC19F0020168055E
:1043400004E1AEEC12F002010ED0690504E1D4ECF8
:104350000EF002010FD0ECEC18F0DF6E630EDF5CA4
:1043600004E10201010E686F06D0740EDF5C03E108
:104370000201010E696F13EC22F016D8D9CFE1FFCC
:10438000E552E7CFD9FF1200E96EFF0EDA20EA6EA0
:10439000EE50ED101200E66EE66AE66EE66AE66E34
:1043A000E66AE66EE66A12009F0EE66E010EE66EA3
:0A43B000D4EC1CF0E552E5521200B7
:0643BA00A4D8A69EFD0E32
:1043C000DB50A96EFE0EDBCF2CF02CC02BF02C5056
:1043D000AA6EA680A8509BD095D8E65202015F51E4
:1043E0001EE16251EA6A800FE96E070EEA22FC0EB6
:1043F000DBCFEFFF625172D8FD0EDBCFEEFFFE0E7A
:10440000DBCFEDFF5E2B622B1F0E62176251615DE9
:1044100002E1010E5F6F606B010EDF6E01D0DF6A9B
:10442000DF50E55274D06ED8030EE12602016051D0
:104430004DE1F250800B01E0010EE76E010EE7CF77
:10444000DBFFF250400B01E0010EE76E020EE7CFFA
:10445000DBFFA69EA698A198615140D8EF50A96EA7
:1044600061513CD8EECF2BF0EFCF2CF02CC02BF0CD
:104470002C6A2B50AA6E6151EA6A800FE96E070E12
:10448000EA22EF50A86EA684F29EF29C550EA76E0B
:10449000AA0EA76EA682010E2BD8F3467F0EF21449
:1044A000F310F26E020E24D8BF0EF214F310F26E67
:1044B0005E07612B1F0E61176251615D02E1010E03
:1044C000606F5F6BA1A8FED7A198A694D9CFE1FF3A
:1044D0001ED0200E0201D8805E551200E96EEA6AF5
:1044E000D890E936EA36A00EE926070EEA22120035
:1044F000DB50010BF36EF346F346F346F346F34607
:10450000F3461200D9CFE6FFE1CFD9FF1200E55202
:06451000E7CFD9FF120005
:0A45160002016B510201501904E18B
:1045200002016C51020151195CE002016A2B0A0E72
:104530006A5D57E36A6B0101595108E1D50E2B6E94
:10454000180E5ED8E552E552E5521200D20E2B6EDF
:10455000180E56D8E552E552E5520101A3512B6ED3
:104560002C6A7C0E2B5E000E2C5A410E63D87C0EFA
:1045700050D8B60E2D6E180E35D80101A4512B6EF1
:104580002C6A900E2B5E000E2C5A190E53D8320E48
:1045900040D89A0E2D6E180E25D8010158512B6E59
:1045A0002C6A4F0E50D87E0E2D6E180E1BD80101AE
:1045B00059512B6E2C6A770E46D8620E2D6E180E4E
:1045C00011D801015E51E66EE66A460E2B6E180E9A
:1045D00042D801015F51E66EE66A2A0E2B6E180E74
:1045E0003AD812002E6E2F6A2DC0E6FFE66E2FC05D
:1045F000E6FFA4EC24F0F56E050EE15EF550120026
:104600002C6E2D6A2BC0E6FFE66E2DC0E6FFA4EFF0
:1046100024F0226E236AF3CF1DF02CC01EF031EC83
:1046200023F01DC02BF01EC02CF01DC0E6FF1EC0E5
:10463000E6FF12002C02F3CF2CF02B02F3CF2BF06D
:10464000F4502C2612002B5E000E2C5A2BC0E6FFD5
:104650002CC0E6FF1200D4DFF56E050EE15EF550CA
:02466000120046
:0E466200256A23AE3AEF23F0226C231EE86A8D
:104670002322251E1EAE42EF23F01D6C1E1EE86A8B
:104680001E22251E41EC26F01EBE52EF23F025AE61
:10469000000C1D6C1E1EE86A1E22196C1A1EE86AA8
:1046A0001A22000C25BE49EF23F02688FF0C1EC0FD
:1046B0002AF01DC029F01D502202F4CF1CF0F3CFC8
:1046C0001BF01E502302F4CF1EF0F3CF1DF0220288
:1046D000F3501C26F4501D22E86A1E2229502302A2
:1046E000F3501C26F4501D22E86A1E2223AE7DEFF3
:1046F00023F029501D5E2A501E5A2AAE000C22506B
:104700001D5E23501E5A000C1DC029F01D502202B0
:10471000F4CF1CF0F3CF1BF01E502302F4CF1EF099
:10472000F3CF1DF02202F3501C26F4501D22E86A3C
:104730001E2229502302F3501C26F4501D22E86A41
:044740001E22000C29
:0C474400D8CFE4FFE0CFE4FFE46EDACF52
:10475000E4FFE2CFDAFFE9CFE4FFEACFE4FFF3CFF3
:10476000E4FFF4CFE4FF00EE17F0140EE80403E3D7
:10477000EECFE4FFFBD700EE2BF0070EE80403E3D7
:10478000EECFE4FFFBD7E6529E50200B06E09D5093
:10479000200B03E09BEC1EF01AD0A450200B06E087
:1047A000A350200B03E0BAEC1EF011D09E50100B6A
:1047B00006E09D50100B03E0D9EC1EF008D0A45089
:1047C000100B05E0A350100B02E0F1EC1EF0E552D7
:1047D00000EE31F0070EE80403E3E5CFEDFFFBD771
:1047E00000EE2AF0140EE80403E3E5CFEDFFFBD75B
:1047F000E5CFF4FFE5CFF3FFE5CFEAFFE5CFE9FF33
:10480000E5CFDAFFE550E5CFE0FFE5CFD8FF1000B8
:02481000120094
:0E4812001E0EF66E080EF76E000EF86E020116
:104820000900F5504A6F0900F5504B6F03E14A67E4
:1048300001D03DD00900F550456F0900F550466F95
:104840000900F550476F09000900F550E96E0900AD
:10485000F550EA6E090009000900F550486F09009B
:10486000F550496F09000900F6CF4CF2F7CF4DF231
:10487000F8CF4EF245C2F6FF46C2F7FF47C2F8FF37
:104880000201485302E1495307E00900F550EE6E7A
:104890004807F8E24907F9D74CC2F6FF4DC2F7FFC7
:1048A0004EC2F8FF02014A07000E4B5BBFD7120051
:1048B000FB0EE3CFF6FFFC0EE3CFF7FFFD0EE3CFD9
:1048C000F8FFFE0EE3CFE9FFFF0EE3CFEAFFE9CFEB
:1048D000F3FFEACFF4FF0900F5CFEFFFEE66FBD759
:1048E0001200FE0EE3CFE9FFFF0EE3CFEAFFF36A0B
:1048F000F46AEE5203E0F34AF42AFBD71200FF0EEB
:10490000E3CFF8FFE552FF0EE3CFF7FFE552FF0ECE
:10491000E3CFF6FFE552E66AE66AE66A0900F55279
:1049200009E0FD0EE32A05E1FE0EE32A02E1FF0E97
:10493000E32AF4D7FD0EE3CF1CF0FE0EE3CF1DF00B
:08494000FF0EE3CF1EF0120090
:08494800D9CFE6FFDACFE6FF4C
:10495000E1CFD9FFE2CFDAFFE652E652E652E65265
:10496000D950FB0F2B6EFF0EDA202C6E2BC0DEFF12
:10497000DD6EDECFE6FFDDCFE6FFFB0EDBCFE6FF31
:10498000FC0EDBCFE6FFFD0EDBCFE6FF6FC2E6FFDE
:1049900070C2E6FF62EC04F0F56E070EE15C02E225
:1049A000E16AE552E16EF550020EF3CFDBFF030E34
:1049B000F4CFDBFF020EDBCF2BF0030EDBCF2CF0AE
:1049C0002BC0F3FF2CC0F4FFD9CFE1FFDACFE2FF19
:0C49D000E552E5CFDAFFE7CFD9FF120077
:0449DC00D9CFE6FF4A
:1049E000DACFE6FFE1CFD9FFE2CFDAFFFB0EDBCF74
:1049F0002BF0FC0EDBCF2CF00001800E2C141AE102
:104A0000FB0EDBCFE9FFFC0EDBCFEAFFEECFF3FFBF
:104A1000EDCFF4FFEE2A000EEF22F3CFE9FFF4CF43
:104A2000EAFFFD0EDBCFEFFFEF502C6AF36E2CC0D8
:104A3000F4FF10D0FB0EDB50FE0806E1FD0EDBCFCD
:104A4000E6FF89EC26F005D0FD0EDBCFE6FF09EC92
:104A50001FF0E552E552E5CFDAFFE7CFD9FF1200AC
:104A60001B502002F3CF17F0F4CF18F02102F350BF
:104A70001826000EF420196E1B502202F35019263E
:104A8000000EF4201A6E1B502302F3501A261C50FD
:104A90002002F3501826F4501922000E1A221C503E
:104AA0002102F3501926F4501A221C502202F3500E
:104AB0001A261D502002F3501926F4501A221D50B8
:104AC0002102F3501A261E502002F3501A2612001B
:104AD000D9CFE6FFDACFE6FFE1CFD9FFE2CFDAFFA9
:104AE0003F0EC716C66AFD0EDB50C612FB0EDB502A
:104AF000C712FC0EDB50030A09E0010A04E0020AB7
:104B000006E1C78C04D0C78CC68801D0C688FD0ECC
:104B1000DB50050A03E0010A04E1928A9486C79EED
:104B200001D09496949A9488C68AE552E5CFDAFF2C
:064B3000E7CFD9FF1200DF
:0A4B3600D9CFE6FFDACFE6FFE1CFAA
:104B4000D9FFE2CFDAFFAC6AAB6AFD0EDBB0AC880E
:104B5000DBA202D0AC8CAB8CDBB4AC8EDBA602D07B
:104B6000AB8801D0AB8ADBA802D0AC8401D0AC9476
:104B7000DBAC02D09D8A01D09D9ADBAE02D09D882D
:104B800001D09D98FC0EDB50AF6EAC8AAB8EE55227
:0A4B9000E5CFDAFFE7CFD9FF1200EE
:064B9A00D9CFE6FFDACFDF
:104BA000E6FFE1CFD9FFE2CFDAFFC26AC16AC06A8D
:104BB000FC0EDB407F0B3C0BC26EFD0EDB500F0B7F
:104BC0002B6EFC0EDB38F00B300B2B10C16EFD0E84
:104BD000DB380F0B070B2B6EFD0EDB50800B2B1001
:104BE000C06EFC0EDBAE03D09E9C9D8CF28CC2800E
:0C4BF000E552E5CFDAFFE7CFD9FF120055
:044BFC001A6A196AAE
:104C0000186A176A200EE76ED8901B361C361D36C0
:104C10001E361736183619361A362050175C2150B2
:104C200018582250195823501A5809E32050175E7B
:104C30002150185A2250195A23501A5A1B2AE72E6B
:044C4000E4D71200A3
:0C4C4400D9CFE6FFDACFE6FFE1CFD9FFC1
:104C5000E2CFDAFFE652E652C350DF6E010EC4CF58
:104C6000DBFFDECF2BF0DDCF2CF02BC0F3FF2CC011
:104C7000F4FFE552E552E552E5CFDAFFE7CFD9FF81
:024C8000120020
:0E4C82001A6A196A100EE76ED8901D361E369B
:104C900019361A362250195C23501A5805E322504F
:0E4CA000195E23501A5A1D2AE72EF0D7120073
:024CAE00F36AA7
:104CB000F46AFF0EE124E96EFF0EE220EA6EED6673
:104CC00007D02F0EEF6404D03A0EEF6001D0F32A24
:024CD0001200D0
:0E4CD20016EE00F026EE00F0F86A269CA68E84
:104CE000A69C35EC20F009EC24F097EC26F0F9D7DF
:024CF0001200B0
:0E4CF200FF0EE350326E480E01D04C0EE76EFE
:104D0000E72EFED7E76AE72EFED7322EF7D7000050
:024D100012008F
:0E4D1200FF0EE350ACBA04D0AF6AAB8EAC8A91
:0E4D2000949CACA2FED7AD6EF36EF46A120046
:024D2E00F2ECA5
:104D30001BF03FEC21F00101DF910101DFA102D066
:0A4D400082EC21F008EC24F0F8D713
:064D4A00FF0EE350E84EED
:104D50001200000000D000D000D0E82EFAD71200D8
:104D600030313233343536373839616263646566E1
:014D70000042
:064D7200C2909D9C12009E
:044D7800C2821200E1
:034D7C0000000034
:014D7F000033
:044D8000000001002E
:034D84000000002C
:024D8700FEFF2D
:074D89000000010000000022
:104D90000000010000000001000000000000010010
:024DA000000011
:044DA200000000000D
:054DA600000001000007
:024DAB00000006
:034DAD0000000003
:074DB00000000000010101F9
:020000040030CA
:0E000000FFFEFEFCFFFEFBFFFFFFFFFFFFFF0A
:00000001FF
