:020000040000FA
:0608000064EF17F0120086
:020806001200DE
:0608080033EF0AF01200BC
:02080E00C250D6
:08081000020B01E0010E1200D1
:06081800D9EF13F01200FD
:02081E000300D5
:100820005C2F0000DE070000040000005A2F0000CB
:10083000E507000002000000562F0000DA07000064
:0408400004000000B0
:0C0844005EEC09F0FB0EDBCFF3FFDB06DF
:10085000F35000090AE0ACEC09F0FA0E17EC0AF0CC
:10086000F3E12C1CF1E1010E01D0000E8DEF09F037
:100870005EEC09F03B0EE12402E3E168E652E16E32
:10088000010EDB6A020EDB6AF90EDBCFF6FFFA0E11
:10089000DBCFF7FFFB0EDBCFF8FF0800F550DF6E74
:1008A000DF5002E1B3EF08F0250EDF5C02E0A6EFB7
:1008B00008F0030EDB6A040EDB6A050EDB6A060E27
:1008C000DB6A070EDB6AC6EC08F02D0EDF5C0CE07D
:1008D0002B0EDF5C09E0200EDF5C06E0230EDF5C00
:1008E00003E0300EDF5C1AE1DF50300A14E0130A37
:1008F0000FE0030A0AE00B0A05E0060AE4E1030E32
:10090000DB80E1D7030EDB82DED7030EDB84DBD78F
:10091000030EDB86D8D7030EDB88D5D72A0EDF5C23
:100920001BE1C2EC08F010EC09F010E0030EDB80D4
:100930001D681E68130EDBCF22F0140EDBCF23F0F0
:1009400096EC14F0040E1BC0DBFF03D0130EF9EC81
:1009500008F0C6EC08F00BD0090EDB6A67EC09F072
:1009600003E0DBEC09F0FAD7090EF9EC08F0030E0E
:10097000DBB0DB982E0EDF5C1BE1C6EC08F02A0E24
:10098000DF5C0BE1C2EC08F010EC09F003E1130EA0
:100990004BEC09F0C6EC08F00BD0090EDB6A67ECF3
:1009A00009F003E0DBEC09F0FAD7090E4BEC09F093
:1009B000680EDF5C07E1C6EC08F0680EDF5C1DE145
:1009C000030E18D0740EDF5C17E07A0EDF5C14E0C3
:1009D000480EDF5C06E0540EDF5C03E05A0EDF5C7D
:1009E00002E1020E07D06C0EDF5C03E06A0EDF5CF2
:1009F00004E1010E9EEC09F0C9DBDF506E0A01E153
:100A000081D31E0A01E192D1200A01E18FD13F0A70
:100A100001E149D11A0A01E146D10D0A01E143D1B0
:100A2000200A01E140D13A0A01E13DD1200A01E169
:100A30003AD1260A01E135D10D0A01E132D11A0A73
:100A400001E1D9D0200A4AE0300A1FE0460A0EE050
:100A5000250A01E085D3D950F90FE96EFF0EDA209F
:100A6000EA6E010EEE5E000EEE5AEE5AACEC09F0A4
:100A7000250EE66E95DB03E12C1C01E16BD3A8EC9F
:100A800009F001E26DD3DB2A6BD3080EDB6A040E9A
:100A9000DB50010806E2040EDB0470EC09F0DB50C9
:100AA0008BDB080EDB5009E0030EDB50010B05E188
:100AB00072DB01E04FD3080EDB6A64DBEFCFDFFFB0
:100AC00020EC0AF003E12C1C01E144D3A8EC09F06E
:100AD00001E3DB2A60DB01E143D33CD3070EDB50AB
:100AE00002080FE1ECEC09F0030EB3EC09F00E0E76
:100AF000EECFDBFF0F0EEECFDBFF100EEECFDBFFF6
:100B000020D0F70EDBCF2EF0F80EDBCF2FF0020E49
:100B10002E5E000E2F5AF70E2EC0DBFFF80E2FC0F0
:100B2000DBFF2EC0E9FF2FC0EAFFA3EC09F02D6A1E
:100B30000E0E2BC0DBFF0F0E2CC0DBFF100E2DC0E6
:100B4000DBFF0E0EDBCFE6FF0F0EDBCFE6FF100E56
:100B5000DBCFE6FFE4EC15F0E552E552E552130E6B
:100B60001CC0DBFF140E1DC0DBFF060EDB5005E0D2
:100B7000130EE7EC09F001E26ADB0BEC0AF002E28B
:100B8000130E37DBCEEC09F006E0040EE7EC09F0BB
:100B900002E2050E2EDB030EDBB005D0FCDA01E02D
:100BA000D9D2080EDB6A090EDB6A0E0EDBCFF6FF28
:100BB0000F0EDBCFF7FF100EDBCFF8FF0800F5506C
:100BC000DF6EDF5014E011EC0AF011E220EC0AF0C5
:100BD00003E12C1C01E1BED2BBDB01E3DB2A090EE1
:100BE000DB2AD9500E0FE96E000ECBDBE7D7D3DA44
:100BF00001E1B6D2AFD2C6DA110EEECFDBFF120E94
:100C0000EDCFDBFF110EDBCFE6FF120EDBCFE6FFF1
:100C1000D6EC15F0E552E552130EF3CFDBFF140EC0
:100C2000F4CFDBFF060EDB5004E0130ED0DB01E255
:100C30000EDB0BEC0AF002E2130EDBDAAFDB05E0B1
:100C4000040EC5DB02E2050ED4DA030EDBB005D0DC
:100C5000A2DA01E07FD2080EDB6A090EDB6A110E10
:100C6000DBCFE9FF120EDBCFEAFFEFCFDFFFDF5074
:100C700014E0D7DB12E2E4DB03E12C1C01E16AD2D1
:100C800067DB01E3DB2A090EDB2A110EDB2ADBCF4F
:100C9000E9FF120EE8E3DB2AE6D77DDA01E160D254
:100CA00059D2030EDB8E070EDB0410E195DB040E38
:100CB0005ADB0A0EEECFDBFF0B0EEECFDBFF0C0E86
:100CC000EECFDBFF0D0EEECFDBFF6CD0070EDB505F
:100CD00003082CE1030EDBAE0DD0B2DA020E76DA99
:100CE000EFCF2BF02C6A2D6A2E6A2BAE39D02C68F0
:100CF0002D6835D0F70EDBCF2CF0F80EDBCF2DF0C2
:100D0000020E2C5E000E2D5AF70E2CC0DBFFF80EE3
:100D10002DC0DBFF2CC0E9FF2DC0EAFFEFCF2BF089
:100D20000A0E2BC0DBFF0B0EDB6A38D0070EDB5040
:100D3000020809E1030EDBAE04D059DB2DAE10D062
:100D40000ED055DB0DD0030EDBAE12D079DA020ED9
:100D50003DDAF9DA2D6A2E6A2CAE02D02D682E68A3
:100D6000E2DA0C0E2DC0DBFF0D0E2EC0DBFF1AD019
:100D7000F70EDBCF2DF0F80EDBCF2EF0020E2D5E3E
:100D8000000E2E5AF70E2DC0DBFFF80E2EC0DBFF33
:100D90002DC0E9FF2EC0EAFFD6DAC5DA0C0EDB6AF9
:100DA0000D0EDB6A060EDB5005E1010EF36E050E3B
:100DB000F3CFDBFF150EDB6A160EDB6AD950370F57
:100DC0002B6E000EDA202C6E390E2BC0DBFF3A0E94
:100DD0002CC0DBFF380EDB6A080EDB6A0A0EAEDAC7
:100DE000DF50780A12E0200A10E0280A0CE0200AFE
:100DF0000AE03F0A06E00D0A02E0200A08E1020EBE
:100E000005D0080E03D0080EDF26100E97DA030E69
:100E1000DBBE02D0DB92DB94DB50800B26E08ADA6B
:100E2000030EEB50000AE8AE02D0D89008D0000EB6
:100E3000EE5C000EEE58000EEE58000EEE5815E275
:100E400011DA20682168226823689EEC15F00A0EEA
:100E500017C0DBFF0B0E18C0DBFF0C0E19C0DBFF49
:100E60000D0E1AC0DBFF2D0E08D0030EDBA202D040
:100E70002B0E03D0DBA408D0200EF36E170EF3CF99
:100E8000DBFF150EDB2A02D0170EDB6A050EDB50E6
:100E900003E1B5D901E189D03A0E2B6E2F0E2C6EED
:100EA000000E2D6E070EDBCF2EF02F6A306A316AEE
:100EB0002EC020F02FC021F030C022F031C023F02E
:100EC000D1D9D1EC16F02B501724F36E2C501820EA
:100ED000F46E2D501920F86EF4CFF7FFF3CFF6FF24
:100EE0000800090EF5CFDBFF580EDF5C0FE1610E45
:100EF000F36E090E79D90AE3200E2B6E090EDBCFB3
:100F0000E7FF2B50E75E090EE7CFDBFF070EDBCFD5
:100F10002BF02C6A2D6A2E6A0DDA2BC020F02CC023
:100F200021F02DC022F02EC023F0EECF1BF0EECF2B
:100F30001CF0EECF1DF0EFCF1EF0D1EC16F01EC06E
:100F4000EDFF1DC0EDFF1CC0EDFF1BC0EFFF390E14
:100F5000DBCFE9FFDB063A0EDBCFEAFF01E2DB067F
:100F6000090EDBCFEFFF150EDB2A49D995E1030E01
:100F7000DBA61DD06F0EDF5C06E1BFD918E3150EAE
:100F8000DB2859DA14D0780EDF5C09E0580EDF5CFC
:100F900006E0620EDF5C03E0420EDF5C08E1020E59
:100FA000F36E160EF3CFDBFF02D0150EDB6A030ED5
:100FB000DB50100B0EE0040EDBCF2BF0050EDB50E8
:100FC000D8802B5406E2060EDB5003E1040EDB5002
:100FD00032DA93D90AE2050EDBCFE7FF150EDB50BC
:100FE000E75E050EE7CFDBFF02D0050EDB6A040EDD
:100FF000DBCF2BF0160E43D9D8802B5414E2160EFB
:10100000DBCFE6FF150EDBCFE6FF040EDBCFE6FFFE
:10101000050EDB50E552E75CE552D880E754E55217
:10102000D880E7545DD9030EDB50010B0BE1080EAD
:10103000DB5008E0B0D801E08DD0080EDB50BCD802
:10104000080EDB6A170EDB5007E086D9170EEFD9C2
:1010500003E12C1C01E17ED0160EDB5016E07CD99A
:10106000300EE66E9DD802E12C1C74E075D9DFCFFE
:10107000E6FF5CEC15F0E552E552E552F4CF2CF0BA
:101080000001F31C02E12C1C65E0050EDBCF2BF008
:10109000160EDB50D8802B5409E2050EDBCFE7FF9C
:1010A000160EDB50E75E050EE7CFDBFF300EE66E77
:1010B000050EC9D94FE1390EDB2ADBCFE9FF3A0E25
:1010C00001E3DB2ADBCFEAFF090EEFCFDBFFDB50CA
:1010D0000EE042D9090EABD902E12C1C3BE0390EDF
:1010E000DB2ADBCFE9FF3A0EEDE3DB2AEBD753D85F
:1010F00031E1160EDBCFE6FF080EC1D8E552E7243A
:101100005BD82ED0070EDB50030A1CE0010A14E066
:10111000030A07E079D9DBCFEEFF020EDBCFEDFF4C
:101120001FD0F3D8306A2EAE02D02F6830682AD88C
:10113000BAD830C0EEFF14D0E8D82EBE2F6822D81F
:10114000B2D80ED061D9DBCFEFFF0AD079D905E153
:101150002C1C03E1F368F46810D0FAD801E3DB2A11
:1011600077D94DEF04F0010EDBCF2BF0020EDBCF71
:101170002CF02BC0F3FF2CC0F4FFD9CFE1FFDACF66
:10118000E2FFCBD029D9020EB3EF09F061D90800F4
:10119000F550DF6E1200200EE66E080E23EF0AF007
:1011A0005CEC15F0E552E552E552F3CF2BF0F4CFAD
:1011B0002CF00001F31C12002B6E2C6AD950010F89
:1011C0004DD92B50EE262C50ED2212002F5E000E32
:1011D000305AF70E2FC0DBFFF80E30C0DBFF2FC0F8
:1011E000E9FF30C0EAFF1200DBCFF4FFF350F45CFC
:1011F0001200DB50E76E040EE7CFDBFF12000A0E91
:10120000DBCF2BF00B0EDBCF2CF00C0EDBCF2DF059
:101210000D0EDBCF2EF02B502C102D102E101200A7
:10122000130EEECFDBFF140EEDCFDBFF130EDBCF83
:101230002BF0140EDBCF2CF00001800E2C141200CA
:10124000F70EDBCF2FF0F80EDBCF30F01200050EDB
:10125000DB50E66ED950130F01D9E552E750EE6E20
:10126000ED6A12000A0EDBCF1BF00B0EDBCF1CF079
:101270000C0EDBCF1DF00D0EDBCF1EF01200DBCF0E
:10128000E6FF150EDBCFE6FF050EDB50E552E72447
:10129000E552E7241200DB50CED8010EF36E060EA5
:1012A000F3CFDBFF1200EE50EFCFEAFFE96E2DC067
:1012B000EEFF2EC0EEFF2FC0EEFF1200D9CFE6FFEB
:1012C000DACFE6FFE1CFD9FFE2CFDAFF1200DFCFBE
:1012D000E6FFE66A52EC17F0E552E552F3501200D1
:1012E000E76E080EE7CFDBFF1200EECF2BF0EECF5C
:1012F0002CF0EFCF2DF02E6A1200050EDBCF2BF075
:10130000150EDB50D8802B541200010EDBCF2DF0D0
:10131000020EDBCF2EF02F6A1200E552E5CFDAFF86
:10132000E7CFD9FF12000A0E2BC0DBFF0B0E2CC03B
:10133000DBFF1200D9500A0F2EEF0AF0F36E070EF2
:10134000F3CFDBFF1200EECF2BF0EFCF2CF012002B
:10135000010EDB2A020E1200FC0EDBCFE6FFFD0EB3
:10136000DBCFE6FF12002B5E000E2C5AF70E2BC0CF
:10137000DBFFF80E2CC0DBFF2BC0E9FF2CC0EAFF1F
:101380001200DA20EA6EEF2AEECFF6FF000EEF220F
:10139000EECFF7FFEF22EECFF8FF1200040EDBCF07
:1013A000E6FF130EDB50E552E75C9ADFDB5004DF0B
:1013B000060EDB501200090EDB500A0DF350DF243D
:1013C000D00FE76E090EE7CFDBFFC6EF08F0DB506A
:1013D000F36E050EF4EF08F0F70EDBCF2BF0F80EEE
:1013E000DBCF2CF01200DFCFE6FFD0EF08F028DFD4
:1013F000030EECDE75EF09F022EC04F0E552E55245
:10140000E552E55200091200BDDEEE50EFCFEAFFD3
:10141000E96E010E1200130EDB50F36E040EF4EFB2
:1014200008F0040EDB50F36E090EF4EF08F0DBCF8A
:10143000E6FFD0EF08F0E76E050EE7CFDBFF120006
:101440008BDFF3EF09F0DBCFE6FF86DFFCEF09F07F
:10145000D950F90FE96EFF0EC1EF09F0E96E000EE9
:06146000DA20EA6E120022
:0A146600DACFE4FFE2CFDAFFE9CFAE
:10147000E4FFEACFE4FFE652F2A202D0A0D802D005
:101480009EB6CCD8E552E5CFEAFFE5CFE9FFE5CF40
:10149000DAFF1100E66A010EE66E050EE66E09EC53
:1014A00016F0E552E552E5521200070EB46E000E3A
:1014B000886E876E866E856E846E836E826E816E98
:1014C000806E916E906E8F6E8E6E8D6E8C6E8B6E4A
:1014D0008A6E896E2F0E926E93689C0E946E956A3A
:1014E000966A9768040E986E0E0E9A6E9968C16A95
:1014F000F19EB0989C8EA26A9F6AA06A9D6AA36AB8
:10150000A56AC8DF9F86D08E9E969D869382F06ADC
:10151000F288F09EF098F192F09AF16AF28CF28ED5
:101520001200D9CFE6FFE1CFD9FFE652BEDF0101BD
:10153000409740990701040ECA6F010ECB6FDF6A16
:10154000100EDF5C0AE2DF50EA6ACA25E96ECB5171
:10155000EA227F0EEF6EDF2AF3D701011D6B010E29
:101560001E6FC20E1F6F010140850101226B236BAC
:101570000101006B026B036B010ED56E320ED76E4C
:10158000CF0ED66ED59E000EE66E010EE66E8BD89F
:10159000E552E55201014093000EE66E010EE66E43
:1015A00082D8E552E55201014093E552E552E7CF7A
:1015B000D9FF120082828088949292981200F2924F
:1015C0000701200EC66F9F86010140A906D00701C2
:1015D000E00EC36F000EC46F05D00701C00EC36FCD
:1015E000000EC46F010140A1407940A706D0070159
:1015F000800EC16F000EC26F05D00701A00EC16F33
:10160000000EC26FC9CFC7F7C1C7E9FFC2C7EAFF63
:10161000C12B000EC223EF50C96E12009E96C9CF97
:10162000C7F70701C651000823E2C3C7E9FFC4C7D3
:10163000EAFFC32B000EC423C7C7EFFFC1C7E9FFF2
:10164000C2C7EAFFC12BC223EFCFC7F7C7C7C9FF85
:10165000C607C6510CE10101020E1E6F0101409345
:101660004081320ED76ECF0ED66EF294D58E01D059
:10167000C96A1200D9CFE6FFE1CFD9FF010140A12D
:101680000ED0FD0EDBCFE6FFFE0EDBCFE6FFBBECA0
:1016900010F0E552E5529D96010140919D86E5527C
:1016A000E7CFD9FF1200D9CFE6FFE1CFD9FF010183
:1016B00040B332D0FD0EDBCFE9FFFE0EDBCFEAFFF9
:1016C0001E0EE926000EEA22EF50020809E1FD0E87
:1016D000DBCFE6FFFE0EDBCFE6FF69D8E552E55231
:1016E000FD0EDBCFE9FFFE0EDBCFEAFF150EE9268C
:1016F000000EEA22EF9EFD0EDBCFE6FFFE0EDBCFF3
:10170000E6FF29EC10F0E552E5529D960101407785
:1017100040839D8601011D2BE552E7CFD9FF1200C2
:101720009D96010140919D861200D9CFE6FFE1CF41
:10173000D9FF0001166BD950FD0FE96EFF0EDA20BC
:10174000EA6E010EEE1801E1ED5002E1168101D0C2
:10175000BA6AD950FB0FE96EFF0EDA20EA6E010E6D
:10176000EE1801E1ED5002E1168301D0B76AD950BD
:10177000F90FE96EFF0EDA20EA6E010EEE1801E1B4
:10178000ED5002E1168501D0736AD950F70FE96E6A
:10179000FF0EDA20EA6E010EEE1801E1ED5002E1D3
:1017A000168701D0706AE552E7CFD9FF1200D9CF72
:1017B000E6FFE1CFD9FFFD0EDBCFE9FFFE0EDBCF69
:1017C000EAFF1C0EE926000EEA22EF6AFD0EDBCFCF
:1017D000E9FFFE0EDBCFEAFF170EE926000EEA2234
:1017E000EF6AC6AE0ED0C69EFD0EDBCFE9FFFE0E41
:1017F000DBCFEAFF170EE926000EEA22010EEF6E9C
:1018000022D0F150800B10E0F250080B0DE0FD0EDD
:10181000DBCFE9FFFE0EDBCFEAFF170EE926000E55
:10182000EA22020EEF6E0FD0F0A60DD0909EFD0EB4
:10183000DBCFE9FFFE0EDBCFEAFF170EE926000E35
:10184000EA22030EEF6E250EC614250819E0FD0EE0
:10185000DBCFE9FFFE0EDBCFEAFF1C0EE926000E10
:10186000EA22010EEF6EFD0EDBCFE9FFFE0EDBCFAD
:10187000EAFF170EE926000EEA22C6CFEFFF80D15D
:10188000C55019E0FD0EDBCFE9FFFE0EDBCFEAFF0E
:101890001C0EE926000EEA22020EEF6EFD0EDBCFD3
:1018A000E9FFFE0EDBCFEAFF170EE926000EEA2263
:1018B000C5CFEFFF65D1D0BE19D0FD0EDBCFE9FF5C
:1018C000FE0EDBCFEAFF1C0EE926000EEA22030E15
:1018D000EF6EFD0EDBCFE9FFFE0EDBCFEAFF170E4A
:1018E000E926000EEA22D0CFEFFF4AD19DB619D0EB
:1018F000FD0EDBCFE9FFFE0EDBCFEAFF1C0EE92673
:10190000000EEA22040EEF6EFD0EDBCFE9FFFE0EA5
:10191000DBCFEAFF170EE926000EEA229DCFEFFF8C
:101920002FD19C5019E0FD0EDBCFE9FFFE0EDBCF7F
:10193000EAFF1C0EE926000EEA22050EEF6EFD0EF0
:10194000DBCFE9FFFE0EDBCFEAFF170EE926000E24
:10195000EA229CCFEFFF14D1080E9F5C19E0FD0E28
:10196000DBCFE9FFFE0EDBCFEAFF1C0EE926000EFF
:10197000EA22060EEF6EFD0EDBCFE9FFFE0EDBCF97
:10198000EAFF170EE926000EEA229FCFEFFFF8D0FC
:10199000A25019E0FD0EDBCFE9FFFE0EDBCFEAFF20
:1019A0001C0EE926000EEA22070EEF6EFD0EDBCFBD
:1019B000E9FFFE0EDBCFEAFF170EE926000EEA2252
:1019C000A2CFEFFFDDD0A55019E0FD0EDBCFE9FF80
:1019D000FE0EDBCFEAFF1C0EE926000EEA22080EFF
:1019E000EF6EFD0EDBCFE9FFFE0EDBCFEAFF170E39
:1019F000E926000EEA22A5CFEFFFC2D0100EF214A6
:101A0000100819E0FD0EDBCFE9FFFE0EDBCFEAFF89
:101A10001C0EE926000EEA22090EEF6EFD0EDBCF4A
:101A2000E9FFFE0EDBCFEAFF170EE926000EEA22E1
:101A3000F2CFEFFFA5D0470EF11419E0FD0EDBCF7A
:101A4000E9FFFE0EDBCFEAFF1C0EE926000EEA22BC
:101A50000A0EEF6EFD0EDBCFE9FFFE0EDBCFEAFFD5
:101A6000170EE926000EEA22F1CFEFFF89D0C00E53
:101A7000F01419E0FD0EDBCFE9FFFE0EDBCFEAFF2D
:101A80001C0EE926000EEA220B0EEF6EFD0EDBCFD8
:101A9000E9FFFE0EDBCFEAFF170EE926000EEA2271
:101AA000F0CFEFFF6DD092A819D0FD0EDBCFE9FF8C
:101AB000FE0EDBCFEAFF1C0EE926000EEA220C0E1A
:101AC000EF6EFD0EDBCFE9FFFE0EDBCFEAFF170E58
:101AD000E926000EEA2292CFEFFF52D093B019D040
:101AE000FD0EDBCFE9FFFE0EDBCFEAFF1C0EE92681
:101AF000000EEA220D0EEF6EFD0EDBCFE9FFFE0EAB
:101B0000DBCFEAFF170EE926000EEA2293CFEFFFA4
:101B100037D03E0E94141C0819E0FD0EDBCFE9FF10
:101B2000FE0EDBCFEAFF1C0EE926000EEA220E0EA7
:101B3000EF6EFD0EDBCFE9FFFE0EDBCFEAFF170EE7
:101B4000E926000EEA2294CFEFFF1AD097BE18D0F4
:101B5000FD0EDBCFE9FFFE0EDBCFEAFF1C0EE92610
:101B6000000EEA220F0EEF6EFD0EDBCFE9FFFE0E38
:101B7000DBCFEAFF170EE926000EEA2297CFEFFF30
:081B8000E552E7CFD9FF120086
:081B880009DAF29CFCD9EE52CF
:101B9000EF6AF9D9540EE926000EEA22EF6AF28CB8
:101BA000F9D1FCD9E6520701AE0E5D6F0F0E5E6FE4
:101BB000AD0E5F6F0F0E606F010E086F080EE66EC0
:101BC000070EE66EE1DFE552E55207016E0EB66FD5
:101BD0000F0EB76F6D0EB86F0F0EB96F020E616FFB
:101BE000610EE66E070EE66ECFDFE552E552150E8A
:101BF000E66E7C0EE66E6EEC16F0E552E5529F98AE
:101C00009F9A949C948EAE50DF6EAE50DF6E9E9A7B
:101C1000150EE66E7C0EE66E3CEC16F0E552E552D3
:101C2000A59AA598989298846E50DF6E6E50DF6EDC
:101C3000A49A0701BA6BE552ADD1DFD9EF0402E1F6
:101C40009D8801D0A388A6D1A9D9E150ACD906E1DD
:101C50009EA80DD0080EE66E070E05D0A4A807D0EA
:101C6000610EE66E070EE66EE8DFE552E55292D1B0
:101C7000D9CFE6FFE15097D905E1ABB2AB98AB887D
:101C80009D8A04D06BB26B986B88A38A83D1B5D937
:101C9000EF0403E19E989D9802D0A498A3987AD16E
:101CA000ACD9EE52EF5005E1A1D9F1DFE552E55292
:101CB00019D069D9020EE926000EEA22EECFF3FF11
:101CC000EDCFF4FFEE2AEF22F3CFE9FFF4CFEAFFE6
:101CD000EF50E66E58D981D9E552E750EF6E53D9EF
:101CE000EE52EF0657D15AD9E65207010651060ABD
:101CF00046E0030A3AE0010A31E0070A28E0010A57
:101D00001AE0030A09E0010A48E1066BFE0EDB5007
:101D1000C90844E1010E31D0066B079BFE0EDB5073
:101D2000170802E1079D05D0FE0EDB50180801E1FF
:101D3000078D020E22D0FE0EDBCF02F7DBCF18F1AB
:101D40000251800B01E0010EBA6F030E16D0FE0E99
:101D5000DBCF03F7DBCF19F1040E0FD0FE0EDBCF84
:101D600004F7DBCF1AF1050E08D0FE0EDBCF05F726
:101D7000DBCF1BF107AD0FD0060E066F0FD002515F
:101D8000032504250525DF6EDF1CF36EFE0EDB50F8
:101D9000F35C01E1078B066B01D0066BE552FAD0CC
:101DA0009EAA09D09E9A5DC7E9FF5EC7EAFFEF5081
:101DB000E66E99DF14D09EA807D0080EE66E070ED7
:101DC000E66E6EDFE552E552A4AA0BD0A49AB6C720
:101DD000E9FFB7C7EAFFEF50E66E6AEC14F0E55290
:101DE0001200A4A807D0610EE66E070EE66E58DF5B
:101DF000E552E5521200D1EF0DF0D0D8DCD81BC06F
:101E0000BBF71CC0BCF7080E0701BB27070EBC239D
:101E1000F29CBBC7E9FFBCC7EAFF020EE926000E31
:101E2000EA22FB0EDBCFEEFFFC0EDBCFEDFFBBC7E4
:101E3000E9FFBCC7EAFFEE52F90EDBCFEFFFF28CF1
:101E4000D5D802DFE552E552A5D0A8D8B4D81BC03A
:101E5000BDF71CC0BEF7080E0701BD27070EBE2345
:101E6000BDC7E9FFBEC7EAFFB8D8FB0EDBCFEFFF67
:101E7000D95099D803E19EB803D0FDD7A4A8FED7C6
:101E800089D08CD8070109510008FCE35C515C2B18
:101E9000EA6A0C0FE96E070EEA22FE0EDBCFEFFFB7
:101EA000DB500D0803E0500E5C5D0FE3F29C0C0E5E
:101EB0000A6F070E0B6F5CC709F7F28C5C6B000EA4
:101EC000E66EE66AC1DEE552E55264D0070107BD61
:101ED000010C000C63D8020EE126010EDB6A07013B
:101EE00007AD02D007AB4BD0090E70D80FE2FE0E43
:101EF000DB042B6E010E2B5204E0E846FE0B2B0692
:101F0000FCE1DF6EDF500701051535D0110E5ED8FC
:101F100010E2FE0EDB50F70F2B6E010E2B5204E089
:101F2000E846FE0B2B06FCE1DF6EDF5007010415CF
:101F300022D0190E4BD810E2FE0EDB50EF0F2B6EA5
:101F4000010E2B5204E0E846FE0B2B06FCE1DF6E8F
:101F5000DF50070103150FD0FE0EDB50E70F2B6E8D
:101F6000010E2B5204E0E846FE0B2B06FCE1DF6E6F
:101F7000DF5007010215E76E010EE7CFDBFFDB50F4
:101F8000D9CFE1FF07D0FD0EDBCFE9FFFE0EDBCF9F
:101F9000EAFF1200E552E7CFD9FF1200D9CFE6FFE2
:101FA000E1CFD9FF1200FD0FE96EFF0EDA20EA6ED5
:101FB000EE50ED101200590E1D6E1E6AFD0EDBCFA5
:101FC00022F0FE0EDBCF23F096EF14F0F36EFE0E40
:101FD000DBCFF4FFF350F45C1200570EE926000E3D
:101FE000EA22EE50EFCFEAFFE96E1200FD0EDBCFE2
:101FF000E6FFFE0EDBCFE6FF1200D0DFC3EF0FF0EF
:10200000000EE96EEA6E04000DEC10F0EA2A080EEC
:10201000EA5CD8A403EF10F01200EF6AE93E0DEF7E
:1020200010F01200FF0EE3CF09F009380F0B060F76
:10203000D8B2070F2A0FAD6E15EC13F009500F0B35
:10204000060FD8B2070F2A0FAD6E15EC13F0000C77
:102050001200EACF04F0E9CF05F0FF0EE3CFEAFF6C
:10206000FE0EE3CFE9FF40A741D0EECFA0F0EECFC8
:10207000A1F0EECFA2F0EECFA3F0EECFA4F0EECF22
:10208000A5F0EECFA6F0EECFA7F0EECFA8F0EECF02
:10209000A9F0EECFAAF0EECFABF0EECFACF0EECFE2
:1020A000ADF0EECFAEF0EECFAFF0EECFB0F0EECFC2
:1020B000B1F0EECFB2F0EECFB3F0EECFB4F0EECFA2
:1020C000B5F0EECFB6F0EECFB7F0EECFB8F0EECF82
:1020D000B9F0EECFBAF0EECFBBF0EECFBCF0EECF62
:1020E000BDF0EECFBEF0EECFBFF040D0EECF80F02F
:1020F000EECF81F0EECF82F0EECF83F0EECF84F022
:10210000EECF85F0EECF86F0EECF87F0EECF88F001
:10211000EECF89F0EECF8AF0EECF8BF0EECF8CF0E1
:10212000EECF8DF0EECF8EF0EECF8FF0EECF90F0C1
:10213000EECF91F0EECF92F0EECF93F0EECF94F0A1
:10214000EECF95F0EECF96F0EECF97F0EECF98F081
:10215000EECF99F0EECF9AF0EECF9BF0EECF9CF061
:10216000EECF9DF0EECF9EF0EECF9FF004C0EAFFE1
:1021700005C0E9FF120040A11200EACF04F0E9CF48
:1021800005F0FF0EE3CFEAFFFE0EE3CFE9FF40A923
:1021900041D0C0C0EEFFC1C0EEFFC2C0EEFFC3C061
:1021A000EEFFC4C0EEFFC5C0EEFFC6C0EEFFC7C065
:1021B000EEFFC8C0EEFFC9C0EEFFCAC0EEFFCBC045
:1021C000EEFFCCC0EEFFCDC0EEFFCEC0EEFFCFC025
:1021D000EEFFD0C0EEFFD1C0EEFFD2C0EEFFD3C005
:1021E000EEFFD4C0EEFFD5C0EEFFD6C0EEFFD7C0E5
:1021F000EEFFD8C0EEFFD9C0EEFFDAC0EEFFDBC0C5
:10220000EEFFDCC0EEFFDDC0EEFFDEC0EEFFDFC0A4
:10221000EEFF40D0E0C0EEFFE1C0EEFFE2C0EEFF17
:10222000E3C0EEFFE4C0EEFFE5C0EEFFE6C0EEFF68
:10223000E7C0EEFFE8C0EEFFE9C0EEFFEAC0EEFF48
:10224000EBC0EEFFECC0EEFFEDC0EEFFEEC0EEFF28
:10225000EFC0EEFFF0C0EEFFF1C0EEFFF2C0EEFF08
:10226000F3C0EEFFF4C0EEFFF5C0EEFFF6C0EEFFE8
:10227000F7C0EEFFF8C0EEFFF9C0EEFFFAC0EEFFC8
:10228000FBC0EEFFFCC0EEFFFDC0EEFFFEC0EEFFA8
:10229000FFC0EEFF04C0EAFF05C0E9FF1200F2B480
:1022A000120016500F0AD8B41200FF0EE3CF0AF046
:1022B000FE0EE3CF0BF0FD0EE3CF0CF0FC0EE3CFF0
:1022C0000DF00A2A16A08D8E0B2A16A28F800C2ADA
:1022D00016A48F860D2A16A68F880E6A0F6A106ABA
:1022E000116AA2EC11F00A2E78EF11F016A08D9E63
:1022F0000B2E7DEF11F016A28F900C2E82EF11F0B5
:1023000016A48F9600000D2E88EF11F016A68F9858
:1023100000000E2E8DEF11F0129000000F2E92EFA4
:1023200011F012920000102E97EF11F0129400009D
:10233000112E9CEF11F01296C4EC11F0133E73EFC6
:1023400011F01200D70E136E000000000000000014
:10235000BAEC11F0132EA4EF11F0D70E136E00009B
:10236000000000000000BAEC11F0132EAFEF11F0E6
:10237000000012000000BDEF11F00000000000009E
:102380000000000000001200030E146E0000142E66
:06239000C6EF11F012007F
:0A23960037D907E125D9EF507F0881
:1023A00003E221D97F0EEF6E3CD12DD909E11BD973
:1023B000EFCF2BF07F0E2B5C03E215D97F0EEF6E73
:1023C00030D1D9CFE6FFE1CFD9FF24D9D8902C5016
:1023D00004E6D00E2B5C070E2C5805E20701D00E48
:1023E000E26F070E0CD016D92C340BE22B50CE081E
:1023F000080E2C5406E20701CE0EE26F080EE36FC2
:1024000006D0FD0EDBCFE2F7FE0EDBCFE3F7E2C72F
:102410002BF0E3C72CF0D00E2B5E070E2C5A2B505E
:1024200000D1F00EE66E8BEC13F0E552938A9388A0
:102430009386938499829980938E938C9A849A82BE
:10244000998699849A8A9A8894809A869A8E9A9C78
:10245000919C01017F0E0B6F0A6F096F086F076F68
:10246000066F056F046F136F126F116F106F0F6F90
:102470000E6F0D6F0C6F000EE66EE66AE66EE66A92
:10248000E66EE66AE66EE66A95EC0BF0F56E080E0F
:10249000E15EF550AFD8FBEC0EF0540E2B6E2E0E15
:1024A0002C6E2D6A2BC0E6FFE66E2DC0E6FF12EC07
:1024B00015F0E552E552E552DAEF0AF0200EE66E2D
:1024C000010EE66E3AEC0BF0E552E55225D813C149
:1024D000E6FF12C1E6FF11C1E6FF10C1E6FF4FECB7
:1024E00011F0E552E552E552E5520701BA5112E00A
:1024F0000701010EE46F1D0EE45D0CE2E4C7E6FF88
:102500006AEC0FF0E552000902E0E4C702F10701AE
:10251000E42BF1D7FAEF12F026C104F12EC105F138
:1025200027C108F1010108512B6E2C6AFF0ED880DB
:102530002B56000E2C562BC008F1010122AB04D003
:10254000010E0701DA6FDB6B010122A903D007013D
:10255000DA6BDB6B0701DA51010BF36EFE0E8D14A3
:10256000F3108D6E01012351100B02E08D9401D008
:102570008D842351200B02E08C9401D08C8422ADF9
:1025800002D08D828C9222AF02D08C828D92235108
:10259000400B02E08C8001D08C90DCC72BF0DDC7B3
:1025A0002CF0E80E226E030E236EDCC71DF0DDC793
:1025B0001EF070EC14F019C02BF01AC02CF0D8905B
:1025C0001A5004E6FA0E2B5C000E2C5804E30101AD
:1025D0002251010B02E0918001D091900701DC2B88
:1025E000000EDD231200FC0EDBCFE9FFFD0EDBCF7A
:1025F000EAFF1200000EE66E010EE66E53EC0BF0E1
:10260000E552E5521200D9CFE6FFE1CFD9FFFE0E29
:10261000DB501200FD0EDBCF2BF0FE0EDBCF2CF0DB
:0A2620001200E552E7CFD9FF1200C7
:06262A009EA8FED712007D
:10263000B1D8FE0EDBCFE6FF12EC10F0E552A6D0CB
:10264000A9D80701E150FD0FD66FFF0EDA20D76F32
:10265000010EEA6AD625E96ED751EA22A0D8D6C77C
:10266000E9FFD7C7EAFF9BD891D094D80701D86B70
:102670001A0ED85D0DE2FD0EDBCFE9FFDB2AFE0E60
:10268000DBCFEAFF01E3DB2A8AD80701D82BF0D79A
:102690007DD00701200ED66F010ED76F01012051AA
:1026A0000701DE6FDF6BE051DE1902E1E151DF1956
:1026B00016E0010140B50ED0E0C7E6FF12EC10F0C5
:1026C000E552DEC7E6FF12EC10F0E5520D0EAD6EDE
:1026D000ACDF01014095DEC7E0F7DFC7E1F7070196
:1026E000E02B000EE123E13507E2E051FF08000E88
:1026F000E15502E2E06BE16B1200150EE66E3C0E56
:10270000E66E6EEC16F0E552E552320EE66E74ECB3
:1027100017F0E55212003ED8FE0EDBCFD9F745D0B8
:1027200039D8020EE126FE0EDB507F0BFE0BFD0BAF
:10273000E66ED9C7E6FFA0EC16F0E552E5520A0EA8
:10274000E66E92EC17F0E552A9EC17F007EC04F0F6
:102750000009FCE1F5EC16F0A6EC17F0C4502D6E64
:102760002E6E2D6AC35000012D102B6E2EC02CF042
:10277000DE6E2EC0DDFFDECF2BF0DDCF2CF02BC0C8
:10278000F3FF2CC0F4FFD9CFE1FF0FD00D0EAD6EDB
:102790004CDF0BD0D9CFE6FFE1CFD9FF1200EF50CD
:1027A000E66E12EC10F0E5521200E552E7CFD9FFC9
:0227B000120015
:0E27B200D8CFE4FFE0CFE4FFE46EDACFE4FF1F
:1027C000E2CFDAFFE9CFE4FFEACFE4FFF3CFE4FFA3
:1027D000F4CFE4FFE652D9CFE6FFE1CFD9FFE652CE
:1027E000F050020B05E0F050100B02E0F09214D014
:1027F000F050040B05E0F050200B02E0F0940CD0F8
:10280000F250010B07E0F250080B04E08150DF6E3C
:10281000F29002D0D0EC0EF0E552E552E7CFD9FFAE
:10282000E552E5CFF4FFE5CFF3FFE5CFEAFFE5CFD3
:10283000E9FFE5CFDAFFE550E5CFE0FFE5CFD8FFD0
:10284000100001017F0E0B6F0A6F096F086F076F91
:10285000066F056F046F136F126F116F106F0F6F9C
:102860000E6F0D6F0C6F8C928D928C908D908C965C
:102870008D968C948D948C9A8D9A8C988D988C9E34
:1028800091908C9C8D9C010121AD22D0010140A131
:10289000FAD7200EE66E010EE66E3AEC0BF0E5522A
:1028A000E55213C1E6FF12C1E6FF11C1E6FF10C1F8
:1028B000E6FF4FEC11F0E552E552E552E552000E0D
:1028C000E66E010EE66E53EC0BF0E552E552DBD7F7
:1028D00012001200D9CFE6FFE552E7CFD9FF120070
:1028E000256A23AE79EF14F0226C231EE86A2322B6
:1028F000251E1EAE81EF14F01D6C1E1EE86A1E22FE
:10290000251E14EC17F01EBE91EF14F025AE000C3E
:102910001D6C1E1EE86A1E22196C1A1EE86A1A2215
:10292000000C25BE88EF14F02688FF0C1EC02AF08C
:102930001DC029F01D502202F4CF1CF0F3CF1BF074
:102940001E502302F4CF1EF0F3CF1DF02202F350ED
:102950001C26F4501D22E86A1E2229502302F3503F
:102960001C26F4501D22E86A1E2223AEBCEF14F090
:1029700029501D5E2A501E5A2AAE000C22501D5EA0
:0629800023501E5A000C5A
:0A2986001E0EF66E080EF76E000E2E
:10299000F86E07010900F550D16F0900F550D26FAC
:1029A00003E1D16701D03DD00900F550CC6F09009B
:1029B000F550CD6F0900F550CE6F09000900F550B4
:1029C000E96E0900F550EA6E090009000900F550AA
:1029D000CF6F0900F550D06F09000900F6CFD3F78B
:1029E000F7CFD4F7F8CFD5F7CCC7F6FFCDC7F7FFB1
:1029F000CEC7F8FF0701CF5302E1D05307E009002B
:102A0000F550EE6ECF07F8E2D007F9D7D3C7F6FF3F
:102A1000D4C7F7FFD5C7F8FF0701D107000ED25B77
:042A2000BFD712000A
:0C2A2400D9CFE6FFDACFE6FFE1CFD9FF03
:102A3000E2CFDAFFE652E652E652E652D950FB0FF9
:102A40002B6EFF0EDA202C6E2BC0DEFFDD6EDECF8C
:102A5000E6FFDDCFE6FFFB0EDBCFE6FFFC0EDBCFB4
:102A6000E6FFFD0EDBCFE6FFE5C7E6FFE6C7E6FFC4
:102A700038EC04F0F56E070EE15C02E2E16AE55223
:102A8000E16EF550020EF3CFDBFF030EF4CFDBFF58
:102A9000020EDBCF2BF0030EDBCF2CF02BC0F3FFAD
:102AA0002CC0F4FFD9CFE1FFDACFE2FFE552E5CF4A
:082AB000DAFFE7CFD9FF1200A5
:082AB800D9CFE6FFDACFE6FFFB
:102AC000E1CFD9FFE2CFDAFFFB0EDBCF2BF0FC0E1C
:102AD000DBCF2CF00001800E2C141AE1FB0EDBCFB3
:102AE000E9FFFC0EDBCFEAFFEECFF3FFEDCFF4FF03
:102AF000EE2A000EEF22F3CFE9FFF4CFEAFFFD0E3E
:102B0000DBCFEFFFEF502C6AF36E2CC0F4FF10D038
:102B1000FB0EDB50FE0806E1FD0EDBCFE6FF84EC8A
:102B200017F005D0FD0EDBCFE6FF03EC04F0E55215
:0C2B3000E552E5CFDAFFE7CFD9FF120035
:042B3C001B50200208
:102B4000F3CF17F0F4CF18F02102F3501826000E3F
:102B5000F420196E1B502202F3501926000EF420A7
:102B60001A6E1B502302F3501A261C502002F350F9
:102B70001826F4501922000E1A221C502102F3507C
:102B80001926F4501A221C502202F3501A261D5006
:102B90002002F3501926F4501A221D502102F3503E
:0C2BA0001A261E502002F3501A261200C4
:042BAC00FE0EE3CF67
:102BB000E9FFFF0EE3CFEAFFF36AF46AEE5203E0A7
:102BC000F34AF42AFBD71200FF0EE3CFF8FFE552D9
:102BD000FF0EE3CFF7FFE552FF0EE3CFF6FFE5521E
:102BE000E66AE66AE66A0900F55209E0FD0EE32AA4
:102BF00005E1FE0EE32A02E1FF0EE32AF4D7FD0E03
:102C0000E3CF1CF0FE0EE3CF1DF0FF0EE3CF1EF06E
:022C10001200B0
:0E2C1200D9CFE6FFDACFE6FFE1CFD9FFE2CF60
:102C2000DAFF3F0EC716C66AFD0EDB50C612FB0E5A
:102C3000DB50C712FC0EDB50030A09E0010A04E076
:102C4000020A06E1C78C04D0C78CC68801D0C688AA
:102C5000FD0EDB50050A03E0010A04E1928A948626
:102C6000C79E01D09496949A9488C68AE552E5CF7F
:082C7000DAFFE7CFD9FF1200E3
:082C7800D9CFE6FFDACFE6FF39
:102C8000E1CFD9FFE2CFDAFF6C6A6B6AFD0EDBB0F1
:102C90006C88DBA202D06C8C6B8CDBB46C8EDBA6F8
:102CA00002D06B8801D06B8ADBA802D06C8401D083
:102CB0006C94DBAC02D0A38A01D0A39ADBAE02D025
:102CC000A38801D0A398FC0EDB506F6E6C8A6B8ECC
:0C2CD000E552E5CFDAFFE7CFD9FF120094
:042CDC00D9CFE6FF67
:102CE000DACFE6FFE1CFD9FFE2CFDAFFAC6AAB6A19
:102CF000FD0EDBB0AC88DBA202D0AC8CAB8CDBB4BD
:102D0000AC8EDBA602D0AB8801D0AB8ADBA802D0A8
:102D1000AC8401D0AC94DBAC02D09D8A01D09D9AEA
:102D2000DBAE02D09D8801D09D98FC0EDB50AF6ECB
:102D3000AC8AAB8EE552E5CFDAFFE7CFD9FF1200C0
:102D4000D9CFE6FFDACFE6FFE1CFD9FFE2CFDAFF56
:102D5000C26AC16AC06AFC0EDB407F0B3C0BC26ECC
:102D6000FD0EDB500F0B2B6EFC0EDB38F00B300B27
:102D70002B10C16EFD0EDB380F0B070B2B6EFD0EFB
:102D8000DB50800B2B10C06EFC0EDBAE03D09E9C84
:102D90009D8CF28CC280E552E5CFDAFFE7CFD9FFF8
:022DA00012001F
:0E2DA2001A6A196A186A176A200EE76ED8902E
:102DB0001B361C361D361E361736183619361A368F
:102DC0002050175C215018582250195823501A5877
:102DD00009E32050175E2150185A2250195A2350E7
:0A2DE0001A5A1B2AE72EE4D712004E
:062DEA00D9CFE6FFDACFAD
:102DF000E6FFE1CFD9FFE2CFDAFFE652E652C35059
:102E0000DF6E010EC4CFDBFFDECF2BF0DDCF2CF069
:102E10002BC0F3FF2CC0F4FFE552E552E552E5CF9D
:082E2000DAFFE7CFD9FF120031
:082E28001A6A196A100EE76E28
:102E3000D8901D361E3619361A362250195C23508A
:102E40001A5805E32250195E23501A5A1D2AE72EFC
:042E5000F0D71200A5
:0C2E540049464920323030362055736565
:102E6000722050726F636573736F7220496E69745C
:0D2E700069616C697A6564202E2E2E0D00BC
:022E7E0091ECD5
:102E80000AF011EC12F001014091010140A107D0BC
:102E90005EEC12F0010121AD02D021EC14F069ECDE
:042EA00014F0F3D760
:0C2EA400F36AF46AFF0EE124E96EFF0EF1
:102EB000E220EA6EED6607D02F0EEF6404D03A0EE2
:082EC000EF6001D0F32A1200BB
:082EC80016EE00F026EE00F00A
:102ED000F86A269CA68EA69C00EC10F0C3EC14F0B9
:082EE0003FEC17F0F9D71200D6
:082EE800FF0EE350376E480EA7
:102EF00001D04C0EE76EE72EFED7E76AE72EFED72D
:082F0000372EF7D70000120084
:082F0800FF0EE350ACBA04D047
:102F1000AF6AAB8EAC8A949CACA2FED7AD6EF36E5A
:042F2000F46A12003D
:0C2F2400FF0EE350E84E1200000000D049
:0A2F300000D000D0E82EFAD71200FE
:062F3A0030313233343562
:0B2F4000363738396162636465660053
:042F4C00C2909D9CF6
:022F500012006D
:042F5200C282120025
:042F56000000000077
:022F5A00FEFF78
:042F5C000000000071
:020000040030CA
:0E000000FFFEFEFCFFFEFBFFFFFFFFFFFFFF0A
:00000001FF
