:020000040000FA
:06080000ECEF37F01200DE
:02080600FEFFF3
:06080800E6EF12F0120001
:02080E00C250D6
:08081000020B01E0010E1200D1
:0608180033EF2DF0120089
:02081E001000C8
:10082000E37000004504000004000000CB610000FC
:10083000FF02000001000000D97000002304000046
:100840000A000000D17000002D0400000800000024
:10085000CD7000004104000004000000C1700000E1
:100860000D0400000C000000A8700000A9030000A7
:1008700019000000060800004B0400000200000000
:10088000A5700000FD030000030000009F70000041
:10089000F9020000060000009B7000003D0400000B
:1008A0000400000091700000190400000A0000001C
:1008B0008D70000039040000040000008970000001
:1008C000350400000400000076700000D70300002B
:1008D000130000005B700000FF0100000100000039
:1008E0008FEC0CF0990EDE6E600EDD6E938A9388AD
:1008F0009386938499829980938E938C9A849A821A
:10090000998699849A8A9A8894809A869A8E9A9CD3
:10091000919C02017F0E8B6F8A6F896F886F876F42
:10092000866F856F846F936F926F916F906F8F6FEB
:100930008E6F8D6F8C6F000E89EC0BF089EC0BF0D5
:1009400052EC14F0F56E080EE15EF5500301010E55
:10095000A96F85EC2EF09EEC2EF0F4EC33F0F8EC61
:1009600034F01AEC35F032EC35F08CEC0CF03BEC5A
:1009700009F029EC0CF02EEC38F061EC0BF0DECF36
:10098000E6FFDDCFE6FF710E006E600E52EC0BF05D
:10099000050EE15EF55097EC13F00BEF0BF0030141
:1009A0002C0ED880D755010ED85503E3D72B000E57
:1009B000D8230A0ED71907E1D85105E1570E006E6A
:1009C000600E74EC0AF003013C0ED71904E1D85113
:1009D00002E130EC31F02C0E0301D7190CE1010ECD
:1009E000D81909E13CEC31F071EC31F0510E006E98
:1009F000600E74EC0AF0A00EE66E020EE66EF7ECE6
:100A000013F0E552E55203012C0ED75D010ED859C3
:100A10005DE31BEC31F03CEC0BF0EDEC30F06AECFC
:100A20000BF0310E046E600E056E066A04C0E6FF20
:100A3000E66E06C0E6FF11EC36F0F56E070EE15EDD
:100A4000F5506ED808C1E6FF09C1E6FF0AC1E6FF0E
:100A50000BC1E6FF0CC1E6FF0DC1E6FF0EC1E6FFCC
:100A60000FC1E6FF1A0E006E600E52EC0BF00B0E7B
:100A7000E15EF5509F0E48EC0BF03CEC0BF0970E4E
:100A800048EC0BF06AEC0BF0AF0E48EC0BF0F3CF38
:100A900004F0F4CF05F066EC0CF0A70E48EC0BF078
:100AA000F3CF06F0F4CF07F066EC0CF0D90E086E29
:100AB0005F0E096E0A6A08C0E6FFE66E0AC0E6FF2E
:100AC00011EC36F0F56E0B0EE15EF55093C2E6FFC9
:100AD00092C2E6FF91C2E6FF90C2E6FF00EC34F05E
:100AE00075EC0BF061EF0BF0D20E006E5F0E74EC44
:100AF0000AF07AEC0CF08BEC0AF0FCD975EC0BF0F8
:100B00008CEC0CF06DD929EC0CF034C146F135C1F8
:100B100047F1C20E006E5F0E74EC0AF07FEF0CF02E
:100B200008EC20F07FEC28F07AEC0CF08CEC0CF068
:100B300047D829EC0CF07FEC0CF00201A1AB1FD0E0
:100B4000B7C23CF081EC16F03FEC0BF0710E3F6E3B
:100B50003D0E406E7A0E98EC0AF0800E70EC0BF0B1
:100B600094EC0AF03F6A406A200E416E410E426EDC
:100B7000ACEC17F0A0EC18F03CC080F215D08F0E52
:100B800048EC0BF03CEC0BF0B40E026E5F0E036E03
:100B9000046A02C0E6FFE66E04C0E6FF11EC36F020
:100BA000F56E050EE15EF550020180938150040B55
:100BB00001E0808380978150080B01E0808712005C
:100BC0008FEC0CF0D2EC0CF0A9C2EFFF62EC0AF053
:100BD000A8C2EFFF0201A251100B03E1A351100BB9
:100BE00014E0D2EC0CF0EF50DE6EDD6A62EC0AF03D
:100BF0006FEC0CF0DECF00F0DDCF01F0FF0E93ECD8
:100C00000CF062EC0AF000C0EFFFA2AB09D0A3B574
:100C100003D0AFEC0CF002D0A9EC0CF0EF6E08D0D2
:100C2000A3AB06D00CEC0CF0EF6A08EC0CF0EF6A0A
:100C300008EC0CF0EF50020804E008EC0CF0EF04B4
:100C400008E1A3B503D0AFEC0CF002D0A9EC0CF096
:100C5000EF6EA3A304D056EC0CF0EF6803D056EC73
:100C60000CF0EF6AA3A704D05AEC0CF0EF6803D0A5
:100C70005AEC0CF0EF6AA2A107D062EC0AF0070E62
:100C800069EC0AF0EF6808D0A2A306D062EC0AF083
:100C9000070E69EC0AF0EF6A30EC0BF004E6F50E93
:100CA000005C000E015811E34DEC0BF004E2025021
:100CB000FF08000E035409E3AD0E006E5F0EA6ECB4
:100CC0000CF0720EEE6E010E48D030EC0BF004E624
:100CD000DB0E005C000E01580FE34DEC0BF004E25C
:100CE0000250E508000E035407E3A60E006E5F0EE7
:100CF000A6EC0CF0200E16D030EC0BF004E6C10E82
:100D0000005C000E015811E34DEC0BF004E20250C0
:100D1000CB08000E035409E39F0E006E5F0EA6EC95
:100D20000CF0CA0EEE6E020E18D030EC0BF004E69A
:100D3000A70E005C000E015812E34DEC0BF004E22C
:100D40000250B108000E03540AE3980E006E5F0EC5
:100D5000A6EC0CF0AD0EEE6E030EED6E25D030EC71
:100D60000BF004E68F0E005C000E015820E34DEC02
:100D70000BF004E202509908000E035418E303013B
:100D8000D95119E15EEC0CF0EECF00F0EFCF01F09D
:100D9000140E005E000E015AFCEC0BF000C0EEFFDA
:100DA00001C0EDFF010ED96FEAEC0AF004D062EC4D
:100DB0000CF0A6C2EFFF020130EC0BF004E68F0E40
:100DC000005C000E015808E34DEC0BF007E2025006
:100DD0009908000E035402E20301D96B0BEF0BF0EC
:100DE0008FEC0CF00301DA51DB110AE1DA2B000E73
:100DF000DB23FFEC0AF0770EE66E010E28EC0BF019
:100E0000FFEC0AF0630EE66E010E28EC0BF065DBDA
:100E1000080EBDEC0BF0770EE66E010E0EEC0BF03B
:100E200083DB04EC0CF06BEC0CF057DB0C0EBDEC30
:100E30000BF0630EE66E010EF1DB85EC0CF000ECBE
:100E40000CF06BEC0CF000EC0CF02EEC0CF008E06D
:100E500000EC0CF0EE6AEE6A7E0EEE6E430E07D0EA
:100E600000EC0CF03DEC0CF003E0C5EC0CF0EE6E89
:100E700004EC0CF02EEC0CF008E004EC0CF0EE6A44
:100E8000EE6A7E0EEE6E430E07D004EC0CF03DECE5
:100E90000CF003E0C8EC0CF0EE6E1FDB0C0E38EC2F
:100EA0000CF003E0C5EC0CF0EE6E17DB080E38EC2E
:100EB0000CF003E0C8EC0CF0EE6E00EC0CF041EC32
:100EC0000CF0E552E750EF6E04EC0CF041EC0CF046
:100ED000EE52E552E750EF6E74EC0CF009E0D2EC04
:100EE0000CF06FEC0CF0EEDAA8DBECDA00C0EFFFF0
:100EF00071DB91D3A8DB0E0EE1260301E06BE16B01
:100F0000DC51DE1902E1DD51DF1951E0DE5122E151
:100F1000DF5120E1E06BE16BDE6ADE6A900EDE6E8F
:100F2000420EDD6EDD52DD52080EDB6A090EDB6A11
:100F3000C40EF36E0A0EF3CFDBFF090EF36E0B0E39
:100F4000F3CFDBFF040EDB6A050EDB6A060EDB6AFD
:100F5000070EDB6AE0C3E9FFE1C3EAFF060EEA021F
:100F6000F3CFEAFFE902F3CFE9FFF450EA268B0E54
:100F7000E926030EEA22EECF00F0EFCF01F0D9CF41
:100F8000E6FFDACFE6FFFD0EDBCFE6FFFE0EDBCF9E
:100F9000E6FF04D001C0FAFF0050F96EFBDFE55216
:100FA000E552E552E552DEC3DCF3DFC3DDF3E0C317
:100FB000E9FFE1C3EAFF060EEA02F3CFEAFFE90226
:100FC000F3CFE9FFF450EA268B0EE926030EEA225E
:100FD000020EE926000EEA22EECF02F0EFCF03F078
:100FE000FB0EDBCFE6FFFC0EDBCFE6FFFD0EDBCF1B
:100FF000E6FFFE0EDBCFE6FF04D003C0FAFF02508F
:10100000F96EFBDFE552E552E552E552F3CF00F011
:10101000F350F41023E1E0C3E9FFE1C3EAFF060E59
:10102000EA02F3CFEAFFE902F3CFE9FFF450EA2640
:101030008B0EE926030EEA22040EE926000EEA22B0
:10104000EECF00F0EFCF01F004D001C0FAFF005066
:10105000F96EFBDF0301DE2B000EDF23DCD2F3DAB7
:101060002ADAEE52EFCF87F287C285F224DAE5DA88
:1010700000C086F200C084F29DEC0CF0EFCF89F244
:101080001ADA040E26DAEFCF8AF215DA050E21DA23
:10109000EFCF8BF210DA020E1CDAEFCF8DF20BDA03
:1010A000030E17DAEFCF8CF206DA060E12DAEFCF64
:1010B00088F201DA070E0DDAEFCF8EF2EAD3C3DA47
:1010C000040EE126010EACDB040E03DA39C0EEFF9C
:1010D0007ADA020EA5DB39C0EEFF75DAECD9040E20
:1010E000F8D920DB0C0EF5D9F6DBE5D91BDB080EB1
:1010F000F0D9F1DBF9DB24E09DEC0CF0EECFDFFF63
:10110000010EEECFDBFF020EEECFDBFF030EEECFC4
:10111000DBFFD1D90C0EDDD9ECD99DEC0CF000C071
:10112000EEFF51DAC8D90C0ED4D9DFCFEEFF010E95
:10113000DBCFEEFF020EDBCFEEFF030EDBCFEEFFC9
:10114000BAD90C0E38DB140EC4D922DAB4D9080E81
:1011500032DB100EBED91CDA0301375102E1000E5A
:1011600001D0010E006E016A00BE0168A4D9180EFC
:10117000B0D900C0EEFF01C0EDFF8EC23CF081ECA3
:1011800016F03AC01AF03BC01BF03CC01CF03DC04A
:101190001DF03F6A406A040E416E430E426EC2EC7F
:1011A00016F03AC016F03BC017F03CC018F03DC036
:1011B00019F03F6A406A040E93DA3AC012F03BC05D
:1011C00013F03CC014F03DC015F03F6A406A820E37
:1011D000A5DAACEC17F03AC00EF03BC00FF03CC003
:1011E00010F03DC011F03F6A406A400E416E426E01
:1011F000C2EC16F03AC00AF03BC00BF03CC00CF059
:101200003DC00DF0D00E3F6E0F0E406E490E416E88
:10121000400E426EACEC17F03AC006F03BC007F04F
:101220003CC008F03DC009F03F6A406A340E58DA0D
:101230003AC002F03BC003F03CC004F03DC005F0F2
:1012400034DAACEC17F0C7EC18F03BC000F03CC04F
:1012500001F031D91A0E3DD93BC0EEFF01C0EDFFC0
:1012600083DB99DB8F0E14DA63DB28DBF3CFEEFF31
:1012700001C0EDFFD0D1E7D91ED9040EBADA68D982
:101280001AD90C0EB6DA080EB4DA140EB2DA100E51
:10129000B0DA340EEB6A350EEB6A0DD9300EEB6A1C
:1012A000310EEB6A08D9320EEB6A330EEB6A71EC41
:1012B00031F001D91C0EEB6A1D0EEB6A55DBC0DA6A
:1012C000160EEB6A170EEB6A08D9140EEB6A150EB0
:1012D000EB6A03D90C0EB4DA080EB2DA100EEB6A20
:1012E000110EEB6AFAD834D9F8D8040EA9DA180E20
:1012F000EB6A190EEB6AF1D81A0EEB6A1B0EEB6A59
:10130000E1D8020EE6D87F0EEF6EDCD8030EE1D8EE
:101310007F0EEF6ECBDAEF6ACDDAEF6A43DB7F0E3A
:10132000EF6ED0D87F0EEF6E33DBEE6E2EDBEE6EFF
:10133000C9DA7F0EEF6E70DAEF6AABD20201809FDE
:10134000809B80958091809D8099809780931200EA
:101350007AD9FD0EDBCF02F0FE0EDBCF03F00334B3
:1013600007E202500008000E035402E2CBD905D078
:10137000C9D9006C011E000E012200C0F3FF01C09C
:10138000F4FF87D260D9040EE1260301E251E31194
:1013900013E1010EE26FE36B810EE66EE6687F0EED
:1013A00052DA000EE66EE66A870E4DDA030E4BDA6D
:1013B0008B0EE66E010E4CD9030137512AE0020173
:1013C0008E51006E016A840E005E000E015A00C04C
:1013D000DEFF01C0DDFFE66EE66ADECFE6FFDDCFB1
:1013E000E6FF8B0EE66E010EACDA020EF3CFDBFFEA
:1013F000030EF4CFDBFF7ED996DA5DD8EE5200C043
:10140000EFFF78D90026000E012255D800C0EFFF6B
:101410000AD00301E26BE36B4ED8EE527F0EEF6E03
:101420004AD87F0EEF6EF7D00ED90301E451E511D3
:101430000BE0E2D9EECF00F0EFCF01F00050E81959
:1014400002E10150E91920E0880E006E5F0E4CD8D1
:1014500090DA000E5ED9640EE66EE66A000EE66E65
:10146000E66A040EE66EE66A070EE66EE66A9F0E10
:10147000E66E010EEDD8C0D9EECFE8F3EDCFE9F37B
:10148000010E0301E46FE56BB7D9EECFE6FFEFCFB6
:10149000E6FF14DAEECFE6FFEFCFE6FF9F0EE66E33
:1014A000010E4FDA45DA7F0E0026000E01220ADA1D
:1014B00000C0EFFFEED1FD0EDBCFE9FFFE0EDBCF6C
:1014C000EAFF1200F90EDBCFE9FFFA0EDBCFEAFFED
:1014D0001200E926000EEA221200FB0EDBCFE9FF24
:1014E000FC0EDBCFEAFF1200D8D9E552E552E552F7
:1014F0001200EECF00F0EECF01F0EECF02F0EFCF12
:1015000003F0120000C03AF001C03BF002C03CF012
:1015100003C03DF01200360EE66E010EE66E000EC0
:10152000E66E010EE66E12003AC000F085EF0CF098
:10153000416E410E426EACEC17F03AC004F03BC075
:1015400005F03CC006F03DC007F03F6A406A12005B
:10155000EE6AEE6AEE6AEE6A1200EECF0EF0EECFA1
:101560000FF0EECF10F0EFCF11F00EC03AF00FC039
:101570003BF010C03CF011C03DF0C7EC18F03BC090
:101580000CF03CC00DF03BC0E6FF3CC0E6FF120093
:10159000EECF3AF0EECF3BF0EECF3CF0EFCF3DF0A8
:1015A00000C03FF001C040F002C041F003C042F073
:1015B000C3EC16F03DC0EDFF3CC0EDFF3BC0EDFFBE
:1015C0003AC0EFFF120001C0EEFF02C0EEFF03C001
:1015D000EEFF1200F90EDBCFE6FFFA0EDBCFE6FFDF
:1015E000FB0EDBCFE6FFFC0EDBCFE6FFFD0EDBCF15
:1015F000E6FFFE0EDBCFE6FF17DF29EF0CF0B9D9CF
:10160000040E21D9040EE66EE66A000EE66EE66A66
:10161000210E23EF0CF0D9CFE1FF3BD192D9F3CFCC
:1016200004F0F4CF05F07F0E0426000E052204C05E
:101630003BF005C03CF094EF16F0EF50006E016AED
:10164000FF0E93EF0CF0D9CFE6FFE1CFD9FF1200E8
:10165000E66EEAEC19F0F56E120EE15EF55012003E
:10166000AB51006E016AD89001501200EE6AEE6A2A
:10167000FE0EEE6E420E12005BD966EF0CF03AC021
:1016800008F03BC009F03CC00AF03DC00BF012006E
:10169000E66E6EEC32F0E5521200AB51026E036A58
:1016A00003341200FAD8F56E12003F6A406A7A0ECF
:1016B000416E440E426E1200520EE66E010EE66E50
:1016C0001200800EE66E020EE66E10EC14F0E5528B
:1016D000E5521200F3CF02F0F4CF03F066EF0CF006
:1016E000416E430E426E59EF17F0E552E552E55256
:1016F000E5521200020EDBCF00F0030EDBCF01F04B
:101700007F0E1200FD0EDBCF00F0FE0EDBCF01F0EE
:101710001200E66EE66AE66EE66A1200416E420E5E
:10172000426E1200EECF10F0EECF11F0EECF12F0BD
:10173000EFCF13F010C039F011C03AF012C03BF0F7
:1017400013C03CF0A9EC16F03AC00CF03BC00DF011
:101750003CC00EF03DC00FF0A8DF59EC17F08FDF52
:101760007C0E3F6ED90E406EA00EE2DE700ED6DF0C
:1017700059EC17F0D9DE5BEF0AF0ABDEEECF08F0E4
:10178000EECF09F0EECF0AF0EFCF0BF008C03AF041
:1017900009C03BF00AC03CF00BC03DF0C7EC18F0AC
:1017A0003BC006F03CC007F03BC0E6FF3CC0E6FF94
:1017B000C4D8ADEF0AF08DDEEECF04F0EECF05F029
:1017C000EECF06F0EFCF07F0620E3F6EA10E406E37
:1017D000D60E416E3C0E426E04C03AF005C03BF09E
:1017E00006C03CF007C03DF0ACEC17F09DDE5BEFAF
:1017F0000AF0D1D85BEF0AF070DE100E69EF0AF044
:1018000061DE090E69EF0AF05DDE0D0E69EF0AF088
:1018100052DE2E0E69EF0AF055DE060E69EF0AF071
:10182000E66EE66A58EC22F0E552E55239C000F067
:101830003AC001F03BC002F03CC003F05BEF0AF09D
:10184000AAD86DEF0AF0E66EE66A010EE66EE66A69
:101850001200F56E060EE15EF55012009FD87E0E66
:10186000416E430E426E4EDE06EC19F0010A120084
:1018700030DE94D8416A426A83D090D8FE0E4EDFA3
:101880007FD037DE3FDEA0EC18F03C50E66E62EF12
:101890000AF0E552E7CFD9FF1200016E026A00C0DC
:1018A000E6FFE66E02C0E6FF11EF36F00BDE040E37
:1018B00069EF0AF007DE050E69EF0AF0FCDD340E71
:1018C00069EF0AF0FFDD080E69EF0AF0F3CFE6FFDB
:1018D000F4CFE6FF12003AC0EEFFE3EF0AF0ADDE10
:1018E00061D800C0EFFF1200F8DD140EF2DDEE50FB
:1018F000ED10120010DE5FEC08F075EF0BF0DCDE8F
:101900002FEC08F0E552E55212003BC001F03CC05C
:1019100002F03DC003F01200CFDE8BEF0AF093DE41
:10192000020EE1261200D8800056000E0156120069
:10193000F3CF00F0F4CF01F01200BDDD080E69EF27
:101940000AF0E66E67EC1AF029EF0CF0CDDDFCEF43
:101950000BF062DF7F0EEF6E5BDF020E12005CDFCA
:10196000EF6856DF010E1200A6DD1E0E42DF220ECA
:101970001200810EE66EE6687F0EE66EE66A1200E1
:10198000C1DDFDEC18F0010A12003ADF36EF0BF072
:101990003BDF36EF0BF09DDDA8EF0AF0AADD3F6AD2
:0A19A000406A12008FDDEE521200C3
:0619AA0011EC12F0FB0E2F
:1019B000DBCFF3FFDB06F35000090AE05FEC12F027
:1019C000FA0ECAEC12F0F3E1011CF1E1010E01D0B4
:1019D000000E40EF12F011EC12F03B0EE12402E396
:1019E000E168E652E16E010EDB6A020EDB6AF90E77
:1019F000DBCFF6FFFA0EDBCFF7FFFB0EDBCFF8FFF6
:101A00000800F550DF6EDF5002E166EF11F0250EA1
:101A1000DF5C02E059EF11F0030EDB6A040EDB6AB3
:101A2000050EDB6A060EDB6A070EDB6A79EC11F045
:101A30002D0EDF5C0CE02B0EDF5C09E0200EDF5C7E
:101A400006E0230EDF5C03E0300EDF5C1AE1DF50BE
:101A5000300A14E0130A0FE0030A0AE00B0A05E05B
:101A6000060AE4E1030EDB80E1D7030EDB82DED75A
:101A7000030EDB84DBD7030EDB86D8D7030EDB88AF
:101A8000D5D72A0EDF5C1BE175EC11F0C3EC11F029
:101A900010E0030EDB803B683C68130EDBCF40F0A8
:101AA000140EDBCF41F073EC18F0040E39C0DBFFED
:101AB00003D0130EACEC11F079EC11F00BD0090E41
:101AC000DB6A1AEC12F003E08EEC12F0FAD7090E82
:101AD000ACEC11F0030EDBB0DB982E0EDF5C1BE1EB
:101AE00079EC11F02A0EDF5C0BE175EC11F0C3EC20
:101AF00011F003E1130EFEEC11F079EC11F00BD0B4
:101B0000090EDB6A1AEC12F003E08EEC12F0FAD741
:101B1000090EFEEC11F0680EDF5C07E179EC11F0C4
:101B2000680EDF5C1DE1030E18D0740EDF5C17E059
:101B30007A0EDF5C14E0480EDF5C06E0540EDF5CDA
:101B400003E05A0EDF5C02E1020E07D06C0EDF5C90
:101B500003E06A0EDF5C04E1010E51EC12F0C9DB18
:101B6000DF506E0A01E181D31E0A01E192D1200A01
:101B700001E18FD13F0A01E149D11A0A01E146D1C1
:101B80000D0A01E143D1200A01E140D13A0A01E105
:101B90003DD1200A01E13AD1260A01E135D10D0AF1
:101BA00001E132D11A0A01E1D9D0200A4AE0300A13
:101BB0001FE0460A0EE0250A01E085D3D950F90F4F
:101BC000E96EFF0EDA20EA6E010EEE5E000EEE5AAE
:101BD000EE5A5FEC12F0250EE66E95DB03E1011C78
:101BE00001E16BD35BEC12F001E26DD3DB2A6BD326
:101BF000080EDB6A040EDB50010806E2040EDB046B
:101C000023EC12F0DB508BDB080EDB5009E0030EF7
:101C1000DB50010B05E172DB01E04FD3080EDB6AFC
:101C200064DBEFCFDFFFD3EC12F003E1011C01E135
:101C300044D35BEC12F001E3DB2A60DB01E143D328
:101C40003CD3070EDB5002080FE19FEC12F0030EAD
:101C500066EC12F00E0EEECFDBFF0F0EEECFDBFFC9
:101C6000100EEECFDBFF20D0F70EDBCF03F0F80E27
:101C7000DBCF04F0020E035E000E045AF70E03C021
:101C8000DBFFF80E04C0DBFF03C0E9FF04C0EAFF7E
:101C900056EC12F0026A0E0E00C0DBFF0F0E01C000
:101CA000DBFF100E02C0DBFF0E0EDBCFE6FF0F0ED8
:101CB000DBCFE6FF100EDBCFE6FF9DEC35F0E55203
:101CC000E552E552130E3AC0DBFF140E3BC0DBFFBA
:101CD000060EDB5005E0130E9AEC12F001E26ADB0F
:101CE000BEEC12F002E2130E37DB81EC12F006E0DC
:101CF000040E9AEC12F002E2050E2EDB030EDBB0AE
:101D000005D0FCDA01E0D9D2080EDB6A090EDB6AE5
:101D10000E0EDBCFF6FF0F0EDBCFF7FF100EDBCF83
:101D2000F8FF0800F550DF6EDF5014E0C4EC12F04D
:101D300011E2D3EC12F003E1011C01E1BED2BBDBE6
:101D400001E3DB2A090EDB2AD9500E0FE96E000EE3
:101D5000CBDBE7D7D3DA01E1B6D2AFD2C6DA110EC8
:101D6000EECFDBFF120EEDCFDBFF110EDBCFE6FF78
:101D7000120EDBCFE6FF8FEC35F0E552E552130E85
:101D8000F3CFDBFF140EF4CFDBFF060EDB5004E0D5
:101D9000130ED0DB01E20EDBBEEC12F002E2130EFA
:101DA000DBDAAFDB05E0040EC5DB02E2050ED4DAB8
:101DB000030EDBB005D0A2DA01E07FD2080EDB6AA9
:101DC000090EDB6A110EDBCFE9FF120EDBCFEAFF53
:101DD000EFCFDFFFDF5014E0D7DB12E2E4DB03E1FB
:101DE000011C01E16AD267DB01E3DB2A090EDB2A71
:101DF000110EDB2ADBCFE9FF120EE8E3DB2AE6D780
:101E00007DDA01E160D259D2030EDB8E070EDB04CE
:101E100010E195DB040E5ADB0A0EEECFDBFF0B0E52
:101E2000EECFDBFF0C0EEECFDBFF0D0EEECFDBFFB8
:101E30006CD0070EDB5003082CE1030EDBAE0DD097
:101E4000B2DA020E76DAEFCF00F0016A026A036AB4
:101E500000AE39D00168026835D0F70EDBCF01F053
:101E6000F80EDBCF02F0020E015E000E025AF70EF2
:101E700001C0DBFFF80E02C0DBFF01C0E9FF02C0BA
:101E8000EAFFEFCF00F00A0E00C0DBFF0B0EDB6AAB
:101E900038D0070EDB50020809E1030EDBAE04D098
:101EA00059DB02AE10D00ED055DB0DD0030EDBAEE9
:101EB00012D079DA020E3DDAF9DA026A036A01AE6B
:101EC00002D002680368E2DA0C0E02C0DBFF0D0EDE
:101ED00003C0DBFF1AD0F70EDBCF02F0F80EDBCF2A
:101EE00003F0020E025E000E035AF70E02C0DBFF83
:101EF000F80E03C0DBFF02C0E9FF03C0EAFFD6DA39
:101F0000C5DA0C0EDB6A0D0EDB6A060EDB5005E14E
:101F1000010EF36E050EF3CFDBFF150EDB6A160E16
:101F2000DB6AD950370F006E000EDA20016E390ED1
:101F300000C0DBFF3A0E01C0DBFF380EDB6A080E83
:101F4000DB6A0A0EAEDADF50780A12E0200A10E0EF
:101F5000280A0CE0200A0AE03F0A06E00D0A02E027
:101F6000200A08E1020E05D0080E03D0080EDF2675
:101F7000100E97DA030EDBBE02D0DB92DB94DB504F
:101F8000800B26E08ADA030EEB50000AE8AE02D09E
:101F9000D89008D0000EEE5C000EEE58000EEE5801
:101FA000000EEE5815E211DA3E683F68406841685D
:101FB0009DEC36F00A0E35C0DBFF0B0E36C0DBFFA2
:101FC0000C0E37C0DBFF0D0E38C0DBFF2D0E08D026
:101FD000030EDBA202D02B0E03D0DBA408D0200E10
:101FE000F36E170EF3CFDBFF150EDB2A02D0170EB0
:101FF000DB6A050EDB5003E1B5D901E189D04A0E59
:10200000006E700E016E000E026E070EDBCF03F045
:10201000046A056A066A03C03EF004C03FF005C0CA
:1020200040F006C041F0D1D96EEC37F000503524B5
:10203000F36E01503620F46E02503720F86EF4CF64
:10204000F7FFF3CFF6FF0800090EF5CFDBFF580EC0
:10205000DF5C0FE1610EF36E090E79D90AE3200E01
:10206000006E090EDBCFE7FF0050E75E090EE7CFF9
:10207000DBFF070EDBCF00F0016A026A036A0DDAAC
:1020800000C03EF001C03FF002C040F003C041F08C
:10209000EECF39F0EECF3AF0EECF3BF0EFCF3CF0A1
:1020A0006EEC37F03CC0EDFF3BC0EDFF3AC0EDFFFA
:1020B00039C0EFFF390EDBCFE9FFDB063A0EDBCF8D
:1020C000EAFF01E2DB06090EDBCFEFFF150EDB2A8C
:1020D00049D995E1030EDBA61DD06F0EDF5C06E14A
:1020E000BFD918E3150EDB2859DA14D0780EDF5C5F
:1020F00009E0580EDF5C06E0620EDF5C03E0420E92
:10210000DF5C08E1020EF36E160EF3CFDBFF02D0A8
:10211000150EDB6A030EDB50100B0EE0040EDBCF56
:1021200000F0050EDB50D880005406E2060EDB50AE
:1021300003E1040EDB5032DA93D90AE2050EDBCF5D
:10214000E7FF150EDB50E75E050EE7CFDBFF02D0A1
:10215000050EDB6A040EDBCF00F0160E43D9D880E3
:10216000005414E2160EDBCFE6FF150EDBCFE6FFC0
:10217000040EDBCFE6FF050EDB50E552E75CE552CF
:10218000D880E754E552D880E7545DD9030EDB5080
:10219000010B0BE1080EDB5008E0B0D801E08DD058
:1021A000080EDB50BCD8080EDB6A170EDB5007E0C8
:1021B00086D9170EEFD903E1011C01E17ED0160E7E
:1021C000DB5016E07CD9300EE66E9DD802E1011C92
:1021D00074E075D9DFCFE6FF5BEC36F0E552E552EF
:1021E000E552F4CF01F00001F31C02E1011C65E0AF
:1021F000050EDBCF00F0160EDB50D880005409E24C
:10220000050EDBCFE7FF160EDB50E75E050EE7CFCE
:10221000DBFF300EE66E050EC9D94FE1390EDB2A21
:10222000DBCFE9FF3A0E01E3DB2ADBCFEAFF090E41
:10223000EFCFDBFFDB500EE042D9090EABD902E154
:10224000011C3BE0390EDB2ADBCFE9FF3A0EEDE360
:10225000DB2AEBD753D831E1160EDBCFE6FF080EB1
:10226000C1D8E552E7245BD82ED0070EDB50030A15
:102270001CE0010A14E0030A07E079D9DBCFEEFF86
:10228000020EDBCFEDFF1FD0F3D8056A03AE02D0FC
:10229000046805682AD8BAD805C0EEFF14D0E8D87B
:1022A00003BE046822D8B2D80ED061D9DBCFEFFFCD
:1022B0000AD079D905E1011C03E1F368F46810D074
:1022C000FAD801E3DB2A77D900EF0DF0010EDBCF5E
:1022D00000F0020EDBCF01F000C0F3FF01C0F4FFFD
:1022E000D9CFE1FFDACFE2FFCBD029D9020E66EFDA
:1022F00012F061D90800F550DF6E1200200EE66E74
:10230000080ED6EF12F05BEC36F0E552E552E552DE
:10231000F3CF00F0F4CF01F00001F31C1200006EC7
:10232000016AD950010F4DD90050EE260150ED221F
:102330001200045E000E055AF70E04C0DBFFF80E13
:1023400005C0DBFF04C0E9FF05C0EAFF1200DBCFD8
:10235000F4FFF350F45C1200DB50E76E040EE7CF9D
:10236000DBFF12000A0EDBCF00F00B0EDBCF01F01B
:102370000C0EDBCF02F00D0EDBCF03F0005001108E
:10238000021003101200130EEECFDBFF140EEDCF80
:10239000DBFF130EDBCF00F0140EDBCF01F00001EA
:1023A000800E01141200F70EDBCF04F0F80EDBCF25
:1023B00005F01200050EDB50E66ED950130F01D95F
:1023C000E552E750EE6EED6A12000A0EDBCF39F0EF
:1023D0000B0EDBCF3AF00C0EDBCF3BF00D0EDBCF5C
:1023E0003CF01200DBCFE6FF150EDBCFE6FF050E5B
:1023F000DB50E552E724E552E7241200DB50CED84B
:10240000010EF36E060EF3CFDBFF1200EE50EFCF9E
:10241000EAFFE96E02C0EEFF03C0EEFF04C0EEFF6C
:102420001200D9CFE6FFDACFE6FFE1CFD9FFE2CF46
:10243000DAFF1200DFCFE6FFE66ADAEC37F0E552AA
:10244000E552F3501200E76E080EE7CFDBFF1200F3
:10245000EECF00F0EECF01F0EFCF02F0036A1200F2
:10246000050EDBCF00F0150EDB50D88000541200B3
:10247000010EDBCF02F0020EDBCF03F0046A120084
:10248000E552E5CFDAFFE7CFD9FF12000A0E00C010
:10249000DBFF0B0E01C0DBFF1200D9500A0FE1EF8A
:1024A00012F0F36E070EF3CFDBFF1200EECF00F059
:1024B000EFCF01F01200010EDB2A020E1200FC0E1B
:1024C000DBCFE6FFFD0EDBCFE6FF1200005E000E65
:1024D000015AF70E00C0DBFFF80E01C0DBFF00C0A1
:1024E000E9FF01C0EAFF1200DA20EA6EEF2AEECF20
:1024F000F6FF000EEF22EECFF7FFEF22EECFF8FF50
:102500001200040EDBCFE6FF130EDB50E552E75C52
:102510009ADFDB5004DF060EDB501200090EDB50A1
:102520000A0DF350DF24D00FE76E090EE7CFDBFF73
:1025300079EF11F0DB50F36E050EA7EF11F0F70EF7
:10254000DBCF00F0F80EDBCF01F01200DFCFE6FFAB
:1025500083EF11F028DF030EECDE28EF12F0D5EC4C
:102560000CF0E552E552E552E55200091200BDDEDD
:10257000EE50EFCFEAFFE96E010E1200130EDB50B2
:10258000F36E040EA7EF11F0040EDB50F36E090E8C
:10259000A7EF11F0DBCFE6FF83EF11F0E76E050E3A
:1025A000E7CFDBFF12008BDFA6EF12F0DBCFE6FFF9
:1025B00086DFAFEF12F0D950F90FE96EFF0E74EF1E
:0C25C00012F0E96E000EDA20EA6E120044
:0425CC00D8CFE4FF81
:1025D000E0CFE4FFE46EDACFE4FFE2CFDAFFE9CF49
:1025E000E4FFEACFE4FFE652F2A202D0A5D802D07F
:1025F0009EB6D1D8E552E5CFEAFFE5CFE9FFE5CFBA
:10260000DAFFE550E5CFE0FFE5CFD8FF1000E66A3E
:10261000010EE66E050EE66E09EC37F0E552E55266
:10262000E5521200070EB46E000E886E876E866E3D
:10263000856E846E836E826E816E806E916E906EFA
:102640008F6E8E6E8D6E8C6E8B6E8A6E896E2F0E77
:10265000926E93689C0E946E956A966A9768040EC3
:10266000986E0E0E9A6E9968C16AF19EB0989C8E13
:10267000A26A9F6AA06A9D6AA36AA56AC8DF9F864C
:10268000D08E9E969D869382F06AF288F09EF09896
:10269000F192F09AF16AF28CF28E1200D9CFE6FF35
:1026A000E1CFD9FFE652BEDF0201C097C099040115
:1026B000840E0B6F020E0C6FDF6A100EDF5C0AE2F5
:1026C000DF50EA6A0B25E96E0C51EA227F0EEF6EAD
:1026D000DF2AF3D702019D6B010E9E6FC20E9F6F22
:1026E0000201C0850201A26BA36B0201806B826BA9
:1026F000836B010ED56E320ED76ECF0ED66ED59E81
:10270000800EE66E020EE66E8BD8E552E5520201AF
:10271000C093800EE66E020EE66E82D8E552E55258
:102720000201C093E552E552E7CFD9FF1200828241
:102730008088949292981200F2920401200E076F02
:102740009F860201C0A906D00401E00E046F000EAE
:10275000056F05D00401C00E046F000E056F020165
:10276000C0A1C079C0A706D00401800E026F000E80
:10277000036F05D00401A00E026F000E036FC9CFD6
:1027800008F402C4E9FF03C4EAFF022B000E03238E
:10279000EF50C96E12009E96C9CF08F4040107518C
:1027A000000823E204C4E9FF05C4EAFF042B000E7D
:1027B000052308C4EFFF02C4E9FF03C4EAFF022BAC
:1027C0000323EFCF08F408C4C9FF070707510CE142
:1027D0000201020E9E6F0201C093C081320ED76EBD
:1027E000CF0ED66EF294D58E01D0C96A1200D9CF21
:1027F000E6FFE1CFD9FF0201C0A10ED0FD0EDBCF75
:10280000E6FFFE0EDBCFE6FF6FEC27F0E552E55268
:102810009D960201C0919D86E552E7CFD9FF120037
:10282000D9CFE6FFE1CFD9FF0201C0B332D0FD0E10
:10283000DBCFE9FFFE0EDBCFEAFF1E0EE926000E1E
:10284000EA22EF50020809E1FD0EDBCFE6FFFE0EA3
:10285000DBCFE6FF69D8E552E552FD0EDBCFE9FF9D
:10286000FE0EDBCFEAFF150EE926000EEA22EF9EF0
:10287000FD0EDBCFE6FFFE0EDBCFE6FFDDEC26F044
:10288000E552E5529D960201C077C0839D86020104
:102890009D2BE552E7CFD9FF12009D960201C09112
:1028A0009D861200D9CFE6FFE1CFD9FF0001346B3E
:1028B000D950FD0FE96EFF0EDA20EA6E010EEE1818
:1028C00001E1ED5002E1348101D0BA6AD950FB0F29
:1028D000E96EFF0EDA20EA6E010EEE1801E1ED500E
:1028E00002E1348301D0B76AD950F90FE96EFF0EC7
:1028F000DA20EA6E010EEE1801E1ED5002E13485B6
:1029000001D0736AD950F70FE96EFF0EDA20EA6E34
:10291000010EEE1801E1ED5002E1348701D0706A3A
:10292000E552E7CFD9FF1200D9CFE6FFE1CFD9FFBB
:10293000FD0EDBCFE9FFFE0EDBCFEAFF1C0EE92622
:10294000000EEA22EF6AFD0EDBCFE9FFFE0EDBCFC1
:10295000EAFF170EE926000EEA22EF6AC6AE0ED095
:10296000C69EFD0EDBCFE9FFFE0EDBCFEAFF170EA2
:10297000E926000EEA22010EEF6E22D0F150800B04
:1029800010E0F250080B0DE0FD0EDBCFE9FFFE0E6C
:10299000DBCFEAFF170EE926000EEA22020EEF6EE9
:1029A0000FD0F0A60DD0909EFD0EDBCFE9FFFE0EFE
:1029B000DBCFEAFF170EE926000EEA22030EEF6EC8
:1029C000250EC614250819E0FD0EDBCFE9FFFE0E2B
:1029D000DBCFEAFF1C0EE926000EEA22010EEF6EA5
:1029E000FD0EDBCFE9FFFE0EDBCFEAFF170EE92677
:1029F000000EEA22C6CFEFFF80D1C55019E0FD0ED0
:102A0000DBCFE9FFFE0EDBCFEAFF1C0EE926000E4E
:102A1000EA22020EEF6EFD0EDBCFE9FFFE0EDBCFEA
:102A2000EAFF170EE926000EEA22C5CFEFFF65D1B7
:102A3000D0BE19D0FD0EDBCFE9FFFE0EDBCFEAFFE3
:102A40001C0EE926000EEA22030EEF6EFD0EDBCF10
:102A5000E9FFFE0EDBCFEAFF170EE926000EEA22A1
:102A6000D0CFEFFF4AD19DB619D0FD0EDBCFE9FFE5
:102A7000FE0EDBCFEAFF1C0EE926000EEA22040E52
:102A8000EF6EFD0EDBCFE9FFFE0EDBCFEAFF170E88
:102A9000E926000EEA229DCFEFFF2FD19C5019E0CE
:102AA000FD0EDBCFE9FFFE0EDBCFEAFF1C0EE926B1
:102AB000000EEA22050EEF6EFD0EDBCFE9FFFE0EE3
:102AC000DBCFEAFF170EE926000EEA229CCFEFFFCC
:102AD00014D1080E9F5C19E0FD0EDBCFE9FFFE0E5E
:102AE000DBCFEAFF1C0EE926000EEA22060EEF6E8F
:102AF000FD0EDBCFE9FFFE0EDBCFEAFF170EE92666
:102B0000000EEA229FCFEFFFF8D0A25019E0FD0E91
:102B1000DBCFE9FFFE0EDBCFEAFF1C0EE926000E3D
:102B2000EA22070EEF6EFD0EDBCFE9FFFE0EDBCFD4
:102B3000EAFF170EE926000EEA22A2CFEFFFDDD052
:102B4000A55019E0FD0EDBCFE9FFFE0EDBCFEAFF5B
:102B50001C0EE926000EEA22080EEF6EFD0EDBCFFA
:102B6000E9FFFE0EDBCFEAFF170EE926000EEA2290
:102B7000A5CFEFFFC2D0100EF214100819E0FD0E21
:102B8000DBCFE9FFFE0EDBCFEAFF1C0EE926000ECD
:102B9000EA22090EEF6EFD0EDBCFE9FFFE0EDBCF62
:102BA000EAFF170EE926000EEA22F2CFEFFFA5D0CA
:102BB000470EF11419E0FD0EDBCFE9FFFE0EDBCF6F
:102BC000EAFF1C0EE926000EEA220A0EEF6EFD0E49
:102BD000DBCFE9FFFE0EDBCFEAFF170EE926000E82
:102BE000EA22F1CFEFFF89D0C00EF01419E0FD0EFC
:102BF000DBCFE9FFFE0EDBCFEAFF1C0EE926000E5D
:102C0000EA220B0EEF6EFD0EDBCFE9FFFE0EDBCFEF
:102C1000EAFF170EE926000EEA22F0CFEFFF6DD093
:102C200092A819D0FD0EDBCFE9FFFE0EDBCFEAFF45
:102C30001C0EE926000EEA220C0EEF6EFD0EDBCF15
:102C4000E9FFFE0EDBCFEAFF170EE926000EEA22AF
:102C500092CFEFFF52D093B019D0FD0EDBCFE9FF3A
:102C6000FE0EDBCFEAFF1C0EE926000EEA220D0E57
:102C7000EF6EFD0EDBCFE9FFFE0EDBCFEAFF170E96
:102C8000E926000EEA2293CFEFFF37D03E0E9414D0
:102C90001C0819E0FD0EDBCFE9FFFE0EDBCFEAFFDB
:102CA0001C0EE926000EEA220E0EEF6EFD0EDBCFA3
:102CB000E9FFFE0EDBCFEAFF170EE926000EEA223F
:102CC00094CFEFFF1AD097BE18D0FD0EDBCFE9FFEF
:102CD000FE0EDBCFEAFF1C0EE926000EEA220F0EE5
:102CE000EF6EFD0EDBCFE9FFFE0EDBCFEAFF170E26
:102CF000E926000EEA2297CFEFFFE552E7CFD9FF92
:022D00001200BF
:0E2D0200449E05D0449E3CAE02D03C6C448EF4
:102D10003CC036F0356A486A476A860E376E386AB4
:102D200080EF19F0449E08D0449E3CAE05D03B6C29
:102D30003C1EE86A3C22448E3CC036F03BC035F075
:102D4000486A476A8E0E376E386A80EF19F0449EE3
:102D50000CD0449E3CAE09D0396C3A1E3B1E3C1E42
:102D6000E86A3A223B223C22448E3CC036F03BC00B
:102D700035F03AC048F039C047F09E0E376E386AD9
:102D800080EF19F0427E446ABCEC19F0D4EC19F0E3
:102D900044B664EF19F044A20AD044AA03D044BE5A
:102DA00064EF19F044A470EF19F06DEF19F044AA24
:102DB00005D044AC70EF19F06DEF19F044A00AD0C3
:102DC00044A808D044BE04D044A402D079EF19F03E
:102DD0007DEF19F0476A386A42503D5C466E10E359
:102DE0003AC048F03BC035F03CC036F03DC045F03D
:102DF0003FC03AF040C03BF041C03CF0443A09D0FB
:102E00003FC048F040C035F041C036F042C045F008
:102E1000466C449E44BC448E45C037F044B0ACEF91
:102E200019F01A0E4660ACEF19F0376A3D6A44A4F7
:102E300008D03A6C3B1E3C1E3D1EE86A3B223C22F9
:102E40003D2244AC08D0486C351E361E371EE86A59
:102E5000352236223722396A465207E03D343C3269
:102E60003B323A323932462EF9D73A5048263B5057
:102E700035223C5036223D50372239C047F0449E1F
:102E800037AE0BD0476C481E351E361E371EE86A1B
:102E90004822352236223722448E37A006D0D880E9
:102EA0003632353248324732452A45C037F080EF56
:102EB00019F0446ABCEC19F0D4EC19F044B664EF94
:102EC00019F044A205D044BA64EF19F06BEF19F081
:102ED00044BA77EF19F044A005D044B864EF19F074
:102EE00077EF19F044B86BEF19F0386A7F0E3D2484
:102EF000376EE86A38224250375EE86A385A1A0E4E
:102F0000456E3D6A476A486A356A366A3F503A5E9E
:102F100040503B5A41503C5A000E3D5A09E73F5041
:102F20003A2640503B2241503C22000E3D2201D027
:102F3000478AD8903A363B363C363D36D8904736AD
:102F4000483635363636452EE1D73C503B103A10E0
:102F5000D8A4478A80EF19F0446ABCEC19F0D4EC8D
:102F600019F044B664EF19F044A205D044B864EFF8
:102F700019F06BEF19F044AA05D044B064EF19F0D2
:102F80006BEF19F044B002D044A802D077EF19F0EB
:102F9000386A42503D24376EE86A38227E0E375E2A
:102FA000E86A385A476A486A356A366A41503C02CC
:102FB000F4CF36F0F3CF35F040503C02F3504826C2
:102FC000F4503522000E362241503B02F350482681
:102FD000F4503522000E36223F503C02F350472673
:102FE000F4504822000E3522362240503B02F35066
:102FF0004726F4504822000E3522362241503A022C
:10300000F3504726F4504822000E352236223F5016
:103010003B02F4504726000E48223522362240500B
:103020003A02F4504726000E48223522362280EF1D
:1030300019F0436A41AE22EF18F0406C411EE86A75
:103040004122431E3CAE2AEF18F03B6C3C1EE86A5E
:103050003C22431EB1EC37F03CBE3AEF18F043AED1
:10306000000C3B6C3C1EE86A3C22376C381EE86A58
:103070003822000C43BE31EF18F04488FF0C436A3D
:10308000E86A41AE4CEF18F03E6C3F1E401E411EF8
:103090003F2240224122431E3CAE57EF18F0396CCC
:1030A0003A1E3B1E3C1E3A223B223C22431E6EEC43
:1030B00037F03CBE6EEF18F043AE000C396C3A1E90
:1030C0003B1E3C1EE86A3A223B223C22356C361EEF
:1030D000371E381E362237223822000C43BE5EEFE0
:1030E00018F04488FF0C3CC048F03BC047F03B5010
:1030F0004002F4CF3AF0F3CF39F03C504102F4CF24
:103100003CF0F3CF3BF04002F3503A26F4503B2220
:10311000E86A3C2247504102F3503A26F4503B22E1
:10312000E86A3C2241AE99EF18F047503B5E4850A8
:103130003C5A48AE000C40503B5E41503C5A000C9B
:10314000446ABCEC19F044B6AAEF18F044A20AD0C5
:1031500044B403D07F0E3C6E19D0800E3C6E16D066
:103160003C6A14D044B0FCD7870E3D60F1D77E0E88
:103170003D64F6D7860E3D5C04E0D8903C323D2A93
:10318000F9D744A403D03C6C3CAEEAD71200446AA1
:10319000BCEC19F044B6D1EF18F044A20ED044B400
:1031A00005D07F0E3C6EFF0E3B6E1FD0800E3C6E36
:1031B0003B6A1BD03C6A3B6A18D044B0FBD78F0EE9
:1031C0003D60EDD77E0E3D64F5D78E0E3D5C05E08B
:1031D000D8903C323B323D2AF8D744A406D03B6C11
:1031E0003C1EE86A3C223CAEE5D712000FEC19F019
:1031F00044B6000C44B0010C000C0FEC19F044B6BE
:10320000000C44B0000C44B4000C010C0FEC19F09D
:1032100044B6000C44B0000C44A4000C010C446AF9
:10322000BCEC19F0D4EC19F044B6120044AE08D04E
:1032300044A004D044A802D044801200449012005C
:1032400042503D5C0BE141503C5C08E140503B5C2E
:1032500005E13F503A5C02E144801200D8A002D060
:10326000448E10D03D5042C03DF0426E3C5041C0B3
:103270003CF0416E3B5040C03BF0406E3A503FC086
:103280003AF03F6E42503D5C10E0FF0F09E0449081
:1032900044B403D044AE4484120044AE44941200BB
:1032A000422AD890413240323F323F503A5E40503D
:1032B0003B5A41503C5A3CBEEAD7D8903A363B364E
:1032C0003C363D2EF8D7C8D77F0E3D6EFF0E3C6EC4
:1032D0003B6E3A6E12007F0E44BEFF0E3D6E02D072
:1032E0007F0E3D6E800E3C6E3B6A3A6AF3D744AE69
:1032F00004D0800E3D6E3C6AF7D73D6A3C6AF4D735
:103300003650351048104710F8E038BEF0D736BEBA
:103310000CD037503810EBE0D89047364836353669
:1033200036363706D8A03806F2D73850D4E13728D9
:10333000D2E047AE11D07F0E471402E148A00CD076
:10334000482AE86A3522362207E3D88036323532F9
:103350004832372A3728BFE03750C9E048C03AF032
:1033600035C03BF036343C6E37303D6E3C323D9ECE
:1033700044BE3D8E6AEF19F03C363D3602E344848C
:10338000447E06E144803D6A3C6A3B6A3A6A120028
:103390003D2803E0D8803C321200D8903C3202E154
:1033A00044821200448612004136423602E3448CC5
:1033B000447E06E14488426A416A406A3F6A1200DC
:1033C000422803E0D88041321200D8904132EAE12D
:0433D000448A120019
:0C33D40005DBE150F90F4BDB0BE1FB0EB9
:1033E000DB6AFC0EDB6A010EF36EF90EF3CFDBFF36
:1033F000FA0EDB6AD950F10F3CDB0BE1F30EDB6A0E
:10340000F40EDB6A010EF36EF10EF3CFDBFFF20E6A
:10341000DB6AD950F50F2DDB0BE1F70EDB6AF80EF6
:10342000DB6A010EF36EF50EF3CFDBFFF60EDB6AFF
:1034300000DAFB0EDBCFEEFFFC0E1FDB020E44DAE0
:10344000F90EDBCFEEFFFA0E18DB040E3DDAF70EB5
:10345000DBCFEEFFF80E11DB060E36DAF50EDBCF12
:10346000EEFFF60E0ADB080E2FDAF30EDBCFEEFFCF
:10347000F40E03DB0A0E28DAF10EDBCFEEFFF20EBC
:10348000DBCFEDFFD1DAEF0EDBCFEEFFF00EDBCFBF
:10349000EDFFCEDAED0EDBCFEEFFEE0EDBCFEDFF74
:1034A0009BDA310EEE6E750EED6EC3D90E0EEB6A21
:1034B0000F0EEB6A9AD230DA0BDA010EE66EE66A8C
:1034C00039D22ADA010EE66EE66A02DA33D288DAF7
:1034D000040EE126DE6ADD6A64DAFB0EDB50025C74
:1034E000006EFC0EDB500358016E020E00C0DBFFC5
:1034F000030E01C0DBFF70DA310EEE1806E1750E27
:10350000ED1803E199DA54DA9BDA66DAEECF00F0CF
:10351000EFCF01F0013404E200503008750E015481
:103520000AE35ADA4FDAD880035004E7D00E025C7F
:103530008A0E035801E284DA7CD9020E87DA79D93F
:10354000EECF04F0EFCF05F0020EDBCF3BF0030E21
:10355000DBCF3CF004C040F005C041F073EC18F044
:1035600039C002F03AC003F039C03BF03AC03CF039
:1035700006C040F007C041F098D95BD9060E6CDA5E
:103580002BDAEECF04F0EFCF05F053D9040E5EDA5C
:1035900000010650E7D90750FCD908C040F009C027
:1035A00041F083D946D90A0E8FD9EECF0AF0EFCF7A
:1035B0000BF0020EDBCF06F0030EDBCF07F03CDA98
:1035C000EE50065C046EEE500758056E32D9080EB8
:1035D00043DA00010850C6D90950DBD90AC040F0CF
:1035E0000BC041F062D9F3D91FDAECD903500118AE
:1035F000E8AE02D0013404D00050025C0150035800
:1036000005E212DAEECFDEFFEDCFDDFFE0D910DA12
:10361000D9D901500318E8AE02D0033401D0B4D98F
:1036200005E206DAEECFDEFFEDCFDDFF05DAC0D929
:10363000020EDBCF00F0030EDBCF01F0CDD900503E
:10364000EE260150ED22C3D900C0F3FF01C0F4FF04
:10365000B6D1C6D9080EE126D950F90F77D9040E94
:10366000EECFDBFF050EEECFDBFF060EEECFDBFF6E
:10367000070EEECFDBFFF50EDBCF00F0F60EDBCF53
:1036800001F0F70EDBCF02F0F80EDBCF03F0F10E06
:10369000DBCF04F0F20EDBCF05F0F30EDBCF06F04C
:1036A000F40EDBCF07F004C03FF005C040F006C0C9
:1036B00041F007C042F09DD9C2EC16F03AC0DEFFDF
:1036C0003BC0DEFF3CC0DEFF3DC0DDFFDD52DD5212
:1036D000D950FD0F3BD9010EEE180FE1ED500DE171
:1036E000AFD8DFCF31F4010EDBCF32F4020EDBCFE7
:1036F00033F4030EDBCF34F414D0D950FD0F26D9A8
:10370000020EEE180EE1ED500CE19AD8DFCF2DF449
:10371000010EDBCF2EF4020EDBCF2FF4030EDBCF36
:1037200030F4040EDBCF00F0050EDBCF01F0060E07
:10373000DBCF02F0070EDBCF03F01DD940D1D9CF8C
:10374000E6FF53D14DD907D92CD901500318E8AE63
:1037500002D0033401D018D910E2FD0EDBCF3BF0CC
:10376000FE0EDBCF3CF0CDD83AC008F03BC009F0EC
:103770003CC00AF03DC00BF042D0EDD8FB0EDBCFD1
:1037800004F0FC0EDBCF05F0F90EDB50045C026E9A
:10379000FA0EDB500558036E01500318E8AE02D054
:1037A000033401D0F1D807E2006A016A800E026E8C
:1037B0003F0E036E3CD0CFD855D901500318E8AE68
:1037C00002D0033401D0E0D82EE2FB0EDBCF0AF0AA
:1037D000FC0EDBCF0BF0FD0EDB500A5C086EFE0E1C
:1037E000DB500B58096E08C03BF03C6E8AD83AC0DB
:1037F0000CF03BC00DF03CC00EF03DC00FF002D904
:1038000004C03AF005C03BF006C03CF007C03DF0F4
:1038100059EC17F03AC000F03BC001F03CC002F098
:103820003DC003F004D0006A016A026A036AA3D8AB
:10383000DCD0FD0EDBCFE9FFFE0EDBCFEAFF12008E
:10384000F90EDBCF00F0FA0EDBCF01F00BD9D9CFA8
:10385000E9FFDACFEAFFEECF08F0EECF09F0EECFC6
:103860000AF0EFCF0BF03F6A406A040E416E420E41
:10387000426E08C03AF009C03BF00AC03CF00BC0F1
:103880003DF059EC17F0C7D8BDD8B3D8C3EC16F04B
:10389000040E3AC0DBFF050E3BC0DBFF060E3CC04A
:1038A000DBFF070E3DC0DBFF120019EC18F03BC038
:1038B00000F03CC001F0D9CFE9FFDACFEAFF3B507E
:1038C000EE260150ED221200E926000EEA22120037
:1038D000F70EDBCFE6FFF80EDBCFE6FF010EE66E5C
:1038E000E66AF90EDBCFE6FFFA0EDBCFE6FF010E4C
:1038F000E66EE66AFB0EDBCFE6FFFC0EDBCFE6FFF3
:10390000120094EC16F087D8F90EDBCF3BF0FA0EDC
:10391000DBCF3CF094EF16F063D8F30EDBCFE6FF7D
:10392000F40EDBCFE6FFF50EDBCFE6FFF60EDBCFC6
:10393000E6FF1200FD0EDBCFE6FFFE0EDBCFE6FF5B
:1039400049DDF56E120EE15EF5504FD0E96EFF0EC7
:10395000DA20EA6E1200FD0EDBCF00F0FE0EDBCFA8
:1039600001F012000402F3CF02F0F4CF03F00502DD
:10397000F3500326120000C039F001C03AF002C033
:103980003BF003C03CF012000250005C03500158B1
:1039900012000402F350032602C03BF003C03CF0C7
:1039A0001200F90EDBCF02F0FA0EDBCF03F01200AB
:1039B000020EDBCFEEFF030EDBCFEDFF1200D9CFFF
:1039C000E1FF13D0EECF02F0EFCF03F01200DECF15
:1039D00000F0DDCF01F012002CDF0C0E64EF1CF0C4
:1039E000D9CFE6FFE1CFD9FF1200E552E7CFD9FFEB
:1039F000120000C03AF001C03BF002C03CF003C02E
:103A00003DF012003AC03FF03BC040F03CC041F0F6
:103A10003DC042F012003AC004F03BC005F03CC08B
:103A200006F03DC007F0120004DF100E64EF1CF03A
:103A300000DF120E64EF1CF0FCDE0E0E64EF1CF0D3
:103A4000F8DE0C0EEB6A0D0EEB6A12003DDFEECFD6
:103A500006F0EFCF07F0120037DFEECF08F0EFCF20
:103A600009F01200FB0EDBCF02F0FC0EDBCF03F0FF
:103A700012006CDFEE50ED101200DBCFEDFF19EFFE
:023A80001CF038
:0E3A820003019E0E916F3A0E926FD40E936F59
:103A90003B0E946F820E956F3E0E966F1200D9CF3B
:103AA000E6FFE1CFD9FF040EE12604013B513C11B2
:103AB00001E18FD0360EE66EE66AFD0EDBCFE6FF43
:103AC000FE0EDBCFE6FF000EE66E0F0EE66E64EC38
:103AD00035F049DA0C0EE66EE66AFBD9E9CF00F064
:103AE000EACF01F0E9CFE6FFEACFE6FF360EE66E59
:103AF0000F0EE66E64EC35F036DA000EE66EE66A1E
:103B0000E80EE66E030EE66E39DA38DA3F6A406A8E
:103B1000416A3F0E426EFAD9C7EC18F03BC000F084
:103B20003CC001F03BC0E6FF3CC0E6FFE80EE66E9D
:103B3000030EE66E420EE66E0F0EE66EEAEC19F02C
:103B4000F56E120EE15EF5500F01800E1D153CE181
:103B50001CCF00F01DCF01F08B0E406E180E416E91
:103B60001CCF3BF01DCF3CF019EC18F037C0DEFF46
:103B700038C0DDFFDECF00F0DDCF01F00001800EA8
:103B8000011408E0D9CFE9FFDACFEAFF8B0EEE2669
:103B9000180EED220F013E51DE5C006E3F51DD58E4
:103BA000016E020E00C0DBFF030E01C0DBFF020E40
:103BB000DBCF00F0030EDBCF01F0B2D90050EE5C9A
:103BC0003E6F0150EE583F6F0401396B3A6B3B6B0F
:103BD0003C6BDBD1D9CFE6FFE1CFD9FF080EE12660
:103BE000FBD9100E0BDAEECF10F0EECF11F0EECFC6
:103BF00012F0EFCF13F010CF3FF011CF40F012CF03
:103C000041F013CF42F010C03AF011C03BF012C0A7
:103C10003CF013C03DF0C2EC16F03AC00CF03BC0D3
:103C20000DF03CC00EF03DC00FF0D6D9140EE6D911
:103C3000EECF14F0EECF15F0EECF16F0EFCF17F079
:103C400014C03FF015C040F016C041F017C042F05C
:103C5000C3EC16F03AC008F03BC009F03CC00AF0D3
:103C60003DC00BF014CF3FF015CF40F016CF41F020
:103C700017CF42F0C2EC16F0B6D9416A400E426E40
:103C800059EC17F08FD954D95CD9C2EC16F03AC070
:103C9000DEFF3BC0DEFF3CC0DEFF3DC0DDFFDD528E
:103CA000DD5204013B513C1101E0E5D00F014051D0
:103CB00041112DE0F40EE66E010EE66E40CFE6FFF8
:103CC00041CFE6FF39C4E6FF3AC4E6FFA2EC1BF0A1
:103CD0004AD939C004F03AC005F03BC006F03CC0F8
:103CE00007F039C03FF03AC040F03BC041F03CC063
:103CF00042F00CD957D9EDD80C0E80D93AC0EEFF5E
:103D00004AD9E7D8080E7AD900C0EEFF44D90F018E
:103D1000800E3F152DE104D9EECF04F0EFCF05F072
:103D200004C03BF005C03CF0FFD83ECF3BF03FCF96
:103D30003CF094EC16F03AC00AF03BC00BF03CC0EB
:103D40000CF03DC00DF03F6A406A5CD93AC006F005
:103D50003BC007F03CC008F03DC009F0E9D8FAD8F4
:103D6000C2EC16F028D9C3EC16F0C7D8B9D808D0E1
:103D70009FD8AFD80C0E8AD8C3EC16F0BED898D80E
:103D8000A8D8080E83D8C2EC16F0B7D83F6A406AAC
:103D9000416A426AD6D8F6EC18F0010A4FE0000EEC
:103DA000E66EE66ADECF3AF0DECF3BF0DECF3CF0E7
:103DB000DDCF3DF0DD52DD52C7EC18F03BC006F020
:103DC0003CC007F03BC0E6FF3CC0E6FF420EE66E9B
:103DD0000F0EE66E67EC1AF0C6D8F3CF04F0F4CFFE
:103DE00005F0F3CF3BF0F4CF3CF09ED83F6A406A39
:103DF0007A0E416E440E426E59EC17F0DCD8ACECF2
:103E000017F07BD86DD865D8080E40D8ACEC17F009
:103E100074D8D9CFE9FFDACFEAFFEECF00F0EECFCA
:103E200001F0EECF02F0EFCF03F03F6A406A416A43
:103E3000426A90D8FDEC18F0010A17E11A0E04014D
:103E40003927000E3A2339513A1117E03A510F0140
:103E50004119E8AE02D0413507D040510401395D27
:103E60000F01415104013A5908E333D80C0E80D8B0
:103E700030D8080E7DD8F36A02D0010EF36EF46AD2
:103E800084D0010E04013B6F3C6B1200B7D8EECF1B
:103E90003AF0EECF3BF0EECF3CF0EFCF3DF000C07C
:103EA0003FF001C040F002C041F003C042F01200F8
:103EB00093D81A0EA3D8EECF08F0EFCF09F008C0C0
:103EC0003BF009C03CF094EC16F08DD89BD8D2EFB3
:103ED0001FF0FB0EDBCFE9FFFC0EDBCFEAFF120089
:103EE000040EDBCF00F0050EDBCF01F0060EDBCFBA
:103EF00002F0070EDBCF03F012003DC0EDFF3CC027
:103F0000EDFF3BC0EDFF3AC0EFFF120036CF3AF0B5
:103F100037CF3BF038CF3CF039CF3DF0ACEF17F066
:103F20005BD81C0EFEEF1FF094EC16F0D2EF1FF0E2
:103F30003AC03FF03BC040F03CC041F03DC042F0D1
:103F400012003ACF3AF03BCF3BF03CCF3CF03DCFB4
:103F50003DF0120000C03AF001C03BF002C03CF05E
:103F600003C03DF01200F56E060EE15EF550120042
:103F700045D8EE6AEE6AEE6AEE6A1200010EE66E4F
:103F8000E66A000EE66EE66A1200D9CFE1FFE5525E
:103F9000E7CFD9FF120001C0EEFF02C0EEFF03C061
:103FA000EEFF12003AC000F03BC001F03CC002F04E
:103FB0003DC003F01200040E3AC0DBFF050E3BC00B
:103FC000DBFF060E3CC0DBFF070E3DC0DBFF88DFDA
:103FD00080DF0C0E46EF1FF0FD0EDBCFE9FFFE0E7B
:103FE000DBCFEAFF12003AC004F03BC005F03CC052
:103FF00006F03DC007F03F6A406A1200E926000E55
:10400000EA221200200E416E410E426E59EF17F067
:104010003ADA040EE126040123510AE1D1D8DF6E19
:10402000DF0404E10401010E236F02D0DF50010818
:10403000F2D9E76E010EE7CFDBFFDB50000817E295
:10404000030EDB6A010EDB50F36E030EDBCFF4FFD1
:10405000F350F45C0CE2E1D9E76E020EE7CFDBFF30
:10406000DBCFE6FF07D8E552030EDB2AEBD7D9CF2B
:10407000E1FF0ED208DA04012A51060A01E17FD0DD
:10408000030A60E0060A2EE0010A23E0030A01E0C9
:1040900096D0FE0EDB50006E016AFF0E001804E1A0
:1040A000015002E1020E8AD0FE0EDB50410806E10B
:1040B0000301020E616F0401050E80D0FE0EDB507D
:1040C0004E0801E07CD00301020E616F0401060E70
:1040D00075D0FE0EDB50540870E10301606B0401E3
:1040E000030E6CD003016051006E016A080E005C83
:1040F000000E01580AE26051EA6A3E0FE96E030EB3
:10410000EA22FE0EDBCFEFFF602B6051006E016AEA
:10411000080E001854E1015052E13EC336F33FC38C
:1041200037F340C338F341C339F342C33AF343C3CF
:104130003BF344C33CF345C33DF30401242B000E81
:1041400025233BD0020E0301615D04E1FE0EDB502E
:10415000430824E0030E615D04E1FE0EDB504B08D2
:104160001DE0040E615D09E1FE0EDB500D0805E166
:104170000401262B000E272320D004011ED0020E9E
:104180000301615D04E1FE0EDB50430807E0030E0E
:10419000615D06E1FE0EDB504B0802E1612B0FD0A2
:1041A000040E615D09E1FE0EDB500D0805E104011E
:1041B000282B000E292301D00401010E2A6F68D19B
:1041C00062D9E65204012B0507E1FCD8050EE66E24
:1041D00002D9E55204012B6B2C050DE12C6B030178
:1041E000636B010E626F646B656B666B0401266B1B
:1041F000276B286B296B0301630528E10401010E7D
:10420000265D000E275905E30301636B646B656B44
:10421000C3D0010E285D000E295903E30301620596
:10422000BAD003010A0E645D000E65590BE3800EDF
:104230006225006E016A000E01220006015A00C0CC
:1042400066F3AAD0642B000E6523A6D00401266B6A
:10425000276B286B296B03016251120A01E19AD086
:10426000030A01E180D0010A01E177D01F0A6FE063
:10427000010A67E0030A5FE0010A57E0070A4FE01E
:10428000010A45E0030A3DE0010A35E00F0A2DE08E
:10429000010A25E0030A1DE0010A15E0070A0DE006
:1042A000010A07E0030A01E077D08CD80301020E6F
:1042B00001D0030E626F636B6FD0800EE66E290E25
:1042C000D3D8040E63D0200EE66E130ECDD8050EA3
:1042D0005DD0840EE66E2D0EC7D8060E57D0800E28
:1042E000E66E2A0EC1D8070E51D0200EE66E2B0EB8
:1042F000BBD8080E4BD0840EE66E2D0EB5D8090E35
:1043000045D0200EE66E120EAFD80A0E3FD0E66AF8
:10431000E66A79D8E552E55203010B0E37D0800EDC
:10432000E66E010EA1D80C0E31D0800EE66E020EA4
:104330009BD80D0E2BD0800EE66E030E95D80E0E78
:1043400025D0010EE66E060E8FD80F0E1FD0010E7F
:10435000E66E100E89D8100E19D0E66A4AD8E552DA
:104360000301110E13D0910EE66E640EE66E100E70
:10437000E66E0F0EE66E730EE66E550EE66E16D8FE
:10438000F56E060EE15EF5500301120E626F010E2E
:10439000636F02D0010E666F6651000803E20401EC
:1043A000010E2C6F03016651E55272D06CD8540E89
:1043B00061D8430E5FD8060E6FD8FA0E5FD8F90E9B
:1043C0005DD866D00D0E3AEF22F00401236B120087
:1043D00004012351120057D8520E4CD84D0E4AD822
:1043E000200E48D8FE0EDB50300F44D80D0E42D8B8
:1043F0004FD049D84E0E3ED8460E3CD8010E3AD882
:10440000FE0E3CD845D03FD8430E34D8520E32D899
:10441000020E48D83DD0C0EF2EF0E7EF2EF033D893
:10442000FE0EDBCFE6FF1FEC2FF0E55231D0B7EFE9
:104430002EF0C9EF2EF027D8FE0EDBCFE6FF05ECFD
:104440002FF0E55225D01FD8560E14D8570E12D88B
:10445000040E22D81DD0500E0DD84D0E0BD8310EA3
:1044600009D8310E3AEF22F0E66ECDDFE552E55283
:1044700003011200E66ED3DFE5521200DBCFE6FF48
:10448000CEDFE5521200D9CFE6FFE1CFD9FF12000F
:10449000E552E7CFD9FF120005D8FC0EEFDFFB0E87
:1044A0003EEF22F0E7DFFE0EE9DFFD0E3EEF22F0E9
:1044B000D9CFE6FFE1CFD9FF040EE126FD0EDBCF19
:1044C000E6FFFE0EDBCFE6FF9DD8E552E55239C090
:1044D000DEFF3AC0DEFF3BC0DEFF3CC0DDFFDD5249
:1044E000DD52F4D9000E3D18E8AE02D03D3409D0BB
:1044F000000ED8803A54000E3B54000E3C54000E7F
:104500003D5449E3E3D9FD0E3A1808E1E8683B1849
:1045100005E1E8683C1802E1E8683D1828E0FE0E75
:104520003A1808E1E8683B1805E1E8683C1802E140
:10453000E8683D182BE0E8683A1808E1E8683B189D
:1045400005E1E8683C1802E1E8683D180CE03A50E3
:104550001DE13B501BE13C5019E13D5017E1C40EF9
:10456000006E600E07D0B60E006E600E03D0AA0E6D
:10457000006E600E016E026A00C0E6FFE66E02C0C9
:10458000E6FF11EC36F0E552E552E552396A3A6A37
:104590003B6A3C6A36D0D9CFE9FFDACFEAFFEECFEB
:1045A00004F0EECF05F0EECF06F0EFCF07F0090EE6
:1045B0003E6E3F6A406A416A04C039F005C03AF075
:1045C00006C03BF007C03CF09DEC36F035C004F06F
:1045D00036C005F037C006F038C007F0006A870E15
:1045E000016E930E026E030E036E86D93C6E35C0CB
:1045F0003EF036C03FF037C040F038C041F03FECED
:1046000018F081D1D9CFE6FFE1CFD9FF140EE12612
:104610000C0EDB6A0D0EDB6A0E0EDB6A0F0EDB6A18
:10462000100EDB6A110EDB6A120EDB6A130EDB6AF8
:1046300070D9010EEE1819E1ED5017E1770EDE6E1C
:10464000030EDD6ED950020F3DD9150EEE6E040E2D
:10465000ED6ED950040F36D90F0EEE6E040EED6ECE
:104660006DD9890EEE6E030E1CD053D9020EEE18D2
:104670001AE1ED5018E1670EDE6E030EDD6ED950C3
:10468000020F20D9130EEE6E040EED6ED950040FFA
:1046900019D90D0EEE6E040EED6E50D9870EEE6E2A
:1046A000030EED6E02D03968ECD0020EDBCFE9FFCD
:1046B000030EDBCFEAFF15D9EECF00F0EFCF01F00C
:1046C000010ED89000360136E806FBE1DE500024EA
:1046D000E96EDD500120EA6E02C0EEFF03C0EDFF7F
:1046E000080EDB6A090EDB6A080EDBCF00F0090E4C
:1046F000DBCF01F0D890015004E6080E005C000EFC
:10470000015858E2C2D8EDD8EECF06F0EFCF07F04F
:10471000010ED89006360736E806FBE1DE50062487
:10472000E96EDD500720EA6EEE50025C006EEE503E
:104730000358016E0A0E00C0DBFF0B0E01C0DBFF49
:104740000A0EDBCF00F00B0EDBCF01F0D88001505A
:1047500004E7F10E005CFF0E015826E30A0EDBCFE2
:1047600002F00B0EDBCF03F0033404E202500F081B
:10477000000E035419E389D8D3D801AE02D00268E1
:104780000368D9500C0F9ED80050EE260150EE223F
:104790000250EE220350EE22D950100F93D8EE2A89
:1047A000000EEE22EE22EE22080EDB2A090E9CE31A
:1047B000DB2A9AD7C3D8EECFF3FFEDCFF4FF020E7A
:1047C000EE26000EEF22F3CFE9FFF4CFEAFF6DD81B
:1047D000005001100210031002E1FE0E51D00F0E26
:1047E000006E016A026A036AD9500C0F6BD8EE5052
:1047F0000026EE500122EE500222EE50032297D8FE
:10480000EECF04F0EFCF05F0066A076A03500718F1
:10481000E8AE02D0073408D00450005C05500158BF
:10482000065002580750035806E281D879D864D858
:1048300003C03CF029D0100EDBCF00F0110EDBCF0F
:1048400001F0120EDBCF02F0130EDBCF03F00050AD
:1048500001100210031013E028D84ED803C03CF01A
:10486000100EDBCF3EF0110EDBCF3FF0120EDBCF90
:1048700040F0130EDBCF41F03FEC18F005D0FD0EF9
:10488000396E3A683B683C683ED0080EDBCF04F0D6
:10489000090EDBCF05F0D89004360536DE5004242F
:1048A000E96EDD500520EA6E12000C0EDBCF00F041
:1048B0000D0EDBCF01F00E0EDBCF02F00F0EDBCFC3
:1048C00003F01200E96EDACFEAFF1200DECF3AF011
:1048D000DECF3BF0DECF3CF0DDCF3DF0DD52DD52F0
:1048E0001200EECF02F0EFCF03F0060EDBCFE9FFB0
:1048F000070EDBCFEAFF120000C039F001C03AF02A
:1049000002C03BF01200D9CFE1FFE552E7CFD9FF5B
:104910001200D950FD0FE96EFF0EDA20EA6E120088
:10492000EECF00F0EFCF01F0026A036A1200040E2E
:10493000DBCFE9FF050EDBCFEAFF1200D950060FEF
:0449400062EF24F00E
:0C4944000301600E976F490E986F420E41
:10495000996F4B0E9A6F0E0E9B6F4C0E9C6F120050
:10496000D9CFE6FFE1CFD9FF040EE126040137518C
:10497000381101E1E0D0360EE66EE66AFD0EDBCFBF
:10498000E6FFFE0EDBCFE6FFB30EE66E010EC5D9E5
:104990000E0EE66EE66A8AD9E9CF00F0EACF01F0A2
:1049A000E9CFE6FFEACFE6FFE90EE66E010EB5D9E4
:1049B000AFD9C10E426E71D9FDEC18F0010A18E1B1
:1049C000C1D906EC19F0010A13E1C8D906EC19F0B7
:1049D000010A07E10101E96BEA6B360EEB6FC10ECC
:1049E00006D00101E96BEA6B360EEB6F410EEC6FFE
:1049F000CFC100F0D0C101F08B0E406E180E416E99
:104A0000CFC13BF0D0C13CF019EC18F037C0DEFF4D
:104A100038C0DDFF92D90001800E011408E0D9CF23
:104A2000E9FFDACFEAFF8B0EEE26180EED22010128
:104A3000ED51DE5C006EEE51DD58016E020E00C0DD
:104A4000DBFF030E01C0DBFF89D9FDEC18F0010A82
:104A50001FE173D901010150EE19E8AE02D0EE3525
:104A600004D0ED51005CEE5101581FE3680ECF25D4
:104A7000006E010ED021016E020EDB500001005CC1
:104A80000101ED6F030EDB5000010158010123D03D
:104A900054D90101EE510118E8AE02D0013404D01E
:104AA0000050ED5D0150EE5907E2020EDB50CF5D84
:104AB000ED6F030EDB500ED0020EDBCF00F0030EC5
:104AC000DBCF01F0680E0026010E01220050CF5D01
:104AD000ED6F0150D059EE6FEFC1FBF1F0C1FCF169
:104AE000F1C1FDF1F2C1FEF1EFC1F7F1F0C1F8F152
:104AF000F1C1F9F1F2C1FAF125D9C3EC16F08CD865
:104B0000E8D83AC0F7F13BC0F8F13CC0F9F13DC03C
:104B1000FAF118D9C2EC16F07FD8E5D83AC0FBF10B
:104B20003BC0FCF13CC0FDF13DC0FEF10401356B22
:104B3000366B376B386BD9CFE1FFE552E7CFD9FF42
:104B40001200D9CFE6FFE1CFD9FF04013751381168
:104B500055E1D3D8EECF00F0EFCF01F00101F551D0
:104B6000ED5D026EEE51F655036EE8500118E8AEA9
:104B700002D0013404D00050025C0150035816E208
:104B8000BCD8EECF04F0EFCF05F0ED51F525066E61
:104B9000EE51F621076E05500718E8AE02D0073433
:104BA00004D00650045C0750055828E353D891D828
:104BB0003AC000F0CCD87AD8080E7FD84BD893D81A
:104BC000C6D874D80C0E79D81A0E04013527000EF9
:104BD000362336510101F419E8AE02D0F43507D07E
:104BE000F3510401355D0101F4510401365908E324
:104BF0005DD80C0E9AD85AD8080E97D8F36A02D00E
:104C0000010EF36EF46AE552E7CFD9FF1200010EF0
:104C10000401376F386B12003AC004F03BC005F056
:104C20003CC006F03DC007F0E9C13FF0EAC140F0EA
:104C3000EBC141F0ECC142F059EC17F03AC000F082
:104C400086D83AC03FF03BC040F03CC041F03DC088
:104C500042F012002C0EE66E010EE66EF3C1E6FF86
:104C6000F4C1E6FF35C4E6FF36C4E6FFA2EC1BF054
:104C7000F56E060EE15EF55039C004F03AC005F05D
:104C80003BC006F03CC007F039C03FF03AC040F0EE
:104C90003BC041F03CC042F01200E9C13AF0EAC129
:104CA0003BF0EBC13CF0ECC13DF01200FB0EDBCF62
:104CB000E9FFFC0EDBCFEAFF1200E926000EEA2234
:104CC0003AC0EEFF01C0EEFF02C0EEFF03C0EEFFF0
:104CD0001200F7C13AF0F8C13BF0F9C13CF0FAC15B
:104CE0003DF0ACEF17F0FBC13AF0FCC13BF0FDC169
:104CF0003CF0FEC13DF0ACEF17F0FD0EDBCFE9FF5D
:104D0000FE0EDBCFEAFF1C0EE926000EEA2212009F
:104D10003F6A406A360E416E1200E66E64EC35F072
:104D2000F56E060EE15EF5501200E926000EEA224D
:104D3000EE6AEE6AEE6AEE6A1200DECF00F0DDCFB8
:104D400001F01200E5DF410E426E4DEF26F03BC050
:104D500001F03CC002F03DC003F012003F6A406A1F
:084D6000416A426A4DEF26F0A2
:084D6800000EE96EEA6E040082
:104D7000C1EC26F0EA2A080EEA5CD8A4B7EF26F0C8
:104D80001200EF6AE93EC1EF26F01200FF0EE3CFFA
:104D900027F027380F0B060FD8B2070F2A0FAD6E7A
:104DA000F3EC31F027500F0B060FD8B2070F2A0F84
:104DB000AD6EF3EC31F0000C1200EACF22F0E9CF37
:104DC00023F0FF0EE3CFEAFFFE0EE3CFE9FFC0A71B
:104DD00041D0EECFA0F0EECFA1F0EECFA2F0EECF1B
:104DE000A3F0EECFA4F0EECFA5F0EECFA6F0EECF7D
:104DF000A7F0EECFA8F0EECFA9F0EECFAAF0EECF5D
:104E0000ABF0EECFACF0EECFADF0EECFAEF0EECF3C
:104E1000AFF0EECFB0F0EECFB1F0EECFB2F0EECF1C
:104E2000B3F0EECFB4F0EECFB5F0EECFB6F0EECFFC
:104E3000B7F0EECFB8F0EECFB9F0EECFBAF0EECFDC
:104E4000BBF0EECFBCF0EECFBDF0EECFBEF0EECFBC
:104E5000BFF040D0EECF80F0EECF81F0EECF82F009
:104E6000EECF83F0EECF84F0EECF85F0EECF86F07C
:104E7000EECF87F0EECF88F0EECF89F0EECF8AF05C
:104E8000EECF8BF0EECF8CF0EECF8DF0EECF8EF03C
:104E9000EECF8FF0EECF90F0EECF91F0EECF92F01C
:104EA000EECF93F0EECF94F0EECF95F0EECF96F0FC
:104EB000EECF97F0EECF98F0EECF99F0EECF9AF0DC
:104EC000EECF9BF0EECF9CF0EECF9DF0EECF9EF0BC
:104ED000EECF9FF022C0EAFF23C0E9FF1200C0A17D
:104EE0001200EACF22F0E9CF23F0FF0EE3CFEAFF72
:104EF000FE0EE3CFE9FFC0A941D0C0C0EEFFC1C0A4
:104F0000EEFFC2C0EEFFC3C0EEFFC4C0EEFFC5C0DF
:104F1000EEFFC6C0EEFFC7C0EEFFC8C0EEFFC9C0BF
:104F2000EEFFCAC0EEFFCBC0EEFFCCC0EEFFCDC09F
:104F3000EEFFCEC0EEFFCFC0EEFFD0C0EEFFD1C07F
:104F4000EEFFD2C0EEFFD3C0EEFFD4C0EEFFD5C05F
:104F5000EEFFD6C0EEFFD7C0EEFFD8C0EEFFD9C03F
:104F6000EEFFDAC0EEFFDBC0EEFFDCC0EEFFDDC01F
:104F7000EEFFDEC0EEFFDFC0EEFF40D0E0C0EEFF90
:104F8000E1C0EEFFE2C0EEFFE3C0EEFFE4C0EEFFE3
:104F9000E5C0EEFFE6C0EEFFE7C0EEFFE8C0EEFFC3
:104FA000E9C0EEFFEAC0EEFFEBC0EEFFECC0EEFFA3
:104FB000EDC0EEFFEEC0EEFFEFC0EEFFF0C0EEFF83
:104FC000F1C0EEFFF2C0EEFFF3C0EEFFF4C0EEFF63
:104FD000F5C0EEFFF6C0EEFFF7C0EEFFF8C0EEFF43
:104FE000F9C0EEFFFAC0EEFFFBC0EEFFFCC0EEFF23
:104FF000FDC0EEFFFEC0EEFFFFC0EEFF22C0EAFFE5
:1050000023C0E9FF1200F2B4120034500F0AD8B4E2
:105010001200FF0EE3CF28F0FE0EE3CF29F0FD0EC5
:10502000E3CF2AF0FC0EE3CF2BF0282A34A08D8E9C
:10503000292A34A28F802A2A34A48F862B2A34A6C8
:105040008F882C6A2D6A2E6A2F6A56EC28F0282E3B
:105050002CEF28F034A08D9E292E31EF28F034A2B9
:105060008F902A2E36EF28F034A48F9600002B2E36
:105070003CEF28F034A68F9800002C2E41EF28F04A
:10508000309000002D2E46EF28F0309200002E2E9A
:105090004BEF28F0309400002F2E50EF28F0309680
:1050A00078EC28F0313E27EF28F01200D70E316E51
:1050B00000000000000000006EEC28F0312E58EFD8
:1050C00028F0D70E316E00000000000000006EECEA
:1050D00028F0312E63EF28F000001200000071EF7D
:1050E00028F0000000000000000000000000120096
:0E50F000030E326E0000322E7AEF28F012000E
:0250FE00D9CF08
:10510000E6FFE1CFD9FF0A0EE1260201F9510401C1
:10511000241904E10201FA510401251901E145D1E4
:1051200024C4F9F225C4FAF20301375101E1BCD0DD
:105130000201010EFB6F02018E51DE6EDD6A03017A
:105140003651006E016A4F0E005E000E015A060EC7
:1051500000C0DBFF070E01C0DBFF54D901340DE2B4
:1051600000500308000E015408E25AD91AE1010E5A
:10517000F36E040EF3CFDBFF12D044D9D880015078
:1051800004E7FD0E005CFF0E015807E249D909E172
:10519000040EDB68050EDB6804D0040EDB6A050E26
:1051A000DB6A3B683C68040EDBCF40F0050EDBCFCA
:1051B00041F073EC18F03AC001F0D9CFE9FFDACF33
:1051C000EAFF3950EE260150ED2217D90001800E7A
:1051D000011402E0DE6A0AD010D9013408E200505E
:1051E000F808000E015403E2F80EDE6EDD6ADFCF30
:1051F0008EF20201FAD803013751006E016A770E70
:10520000005E000E015A080E00C0DBFF090E01C04F
:10521000DBFFFFD801340DE200500808000E0154F6
:1052200008E207D91AE1010EF36E040EF3CFDBFF9B
:1052300012D0EFD8D880015004E7F80E005CFF0EC2
:10524000015807E2F6D809E1040EDB68050EDB68B9
:1052500004D0040EDB6A050EDB6A040EDBCF00F01F
:10526000050EDBCF01F0EDD80050EE260150ED2207
:10527000B8D804E6B90E005C000E015806E2B90E7B
:10528000F36E020EF3CFDBFF0CD0E1D8013401E363
:1052900089D00050FF08000E015401E383D0020EB4
:1052A000DB68030EDB6A7ED00201FC2BFC51050893
:1052B00001E37BD0FC6BFB0505E1FB6BDE6ADD6A7D
:1052C000900E33D002018E51DE6EDD6A8ED802015F
:1052D000FD51FE1109E191D8D890015004E6F80E75
:1052E000005C000E01580EE2FD51FE1134E0DECFED
:1052F00002F0DDCF03F0033404E202500008000E98
:10530000035429E3FD51FE1102E0000E01D0010E0D
:10531000FD6FFE6B800B01E0FE6963D804E6FF0EB3
:10532000005C000E015806E3B90EF36E020EF3CFD7
:10533000DBFF0ED086D8170EEE26000EED2251D8D8
:1053400004E6FF0E005C000E01582AE3020EDB6843
:10535000030EDB6A25D0FD51FE1110E13E0EDE2664
:10536000000EDD224AD8D890015004E6F80E005C09
:10537000000E015815E3F80EDE6E11D0D9CFE9FF0B
:10538000DACFEAFF3E0EEE5E000EED5A36D801345B
:1053900004E200500008000E015402E3DE6ADD6AF8
:1053A000DFCF8EF2020EDBCF8FF2D9CFE1FFE552D5
:1053B000E7CFD9FF1200DBCF3CF000C040F001C0C6
:1053C00041F019EC18F0040E3BC0DBFF050E3CC0A9
:1053D000DBFFD950040FE96EDACFEAFFEE50ED1093
:1053E000120035D8D890015012008F51E66E29D89E
:1053F000E552E750EE6EED6A1200DECF00F0DDCF31
:1054000001F01200060EDBCF00F0070EDBCF01F03B
:105410001200080EDBCF00F0090EDBCF01F0120006
:10542000030E006E016A060EDBCF3BF0070EDBEFCA
:1054300029F0080E006E016ADBCF3BF0090EDBEFAE
:1054400029F0D950020FE96EDACFEAFF1200020EFE
:0C545000DBCF00F0030EDBCF01F01200F8
:04545C007CD9E652BF
:10546000C80E0301C26FC36B020EC66F010EC76F79
:10547000040EC46FC56BDF6AC651DF5C08E2DF5003
:1054800073D9EE6AEE6AEE6AEE6ADF2AF5D7D46B5C
:10549000D56BD66B010EC26EC16A860EC06E9F9C24
:1054A0009E9C9D8CC2C3E6FFC3C3E6FF0BD8E552AA
:1054B000E552E55255D14FD9E65246D89D9CC26A75
:1054C000E5524ED148D9FD0EDBCF3BF0FE0EDBCFCF
:1054D0003CF03B5002E1190E3C1828E0800E3B18CE
:1054E00002E10C0E3C181EE0400E3B1802E1060ED5
:1054F0003C1816E0200E3B1802E1030E3C180EE0AB
:10550000900E3B1802E1010E3C1806E0C80E3B1855
:1055100011E13C500FE10ED0520E09D0520E03D0D3
:10552000510E05D0510ECA6E450E07D0500ECA6EF0
:105530008C0E03D06A0ECA6EDD0ECB6ECC6A9F92C3
:105540009E929D82CA840CD19D92CA94120003D966
:10555000020EE126FE0EDBCF00F00301C651D8801B
:1055600000540CE39D9CFE0EDB04E96EEA6A10D940
:10557000EECFDEFFEDCFDDFF9D8C02D0DE6ADD6A6F
:10558000DECF00F0DDCF01F000C0F3FF01C0F4FF7B
:10559000D9CFE1FFE5D0DFD8FD0EDBCF00F0FE0E66
:1055A000DBCF01F0026A036A880E3E6E130E3F6E77
:1055B000406A416A00C039F001C03AF002C03BF0D5
:1055C00003C03CF09DEC36F035C000F036C001F071
:1055D00037C002F038C003F03E6A080E3F6E406AE2
:1055E000416A35C039F036C03AF037C03BF038C0B8
:1055F0003CF03FEC18F039C000F03AC001F03BC07D
:1056000002F03CC003F039C0F3FF3AC0F4FFA8D069
:10561000A2D8E6529D9CFFC2DFFF9D8CDF50E55271
:105620009FD09D9C0201FF6B9D8C1200C2821200D4
:1056300092D8050EE126C450DE6EDD6AD9CFE9FFAF
:10564000DACFEAFFEE50ED6EEF6AC350DE26000EB1
:10565000DD22DECF00F0DDCF01F0026A036A030134
:10566000D65182D80050EE260150EE220250EE2292
:105670000350EE22D62BC651D65D04E3D66BD42B55
:10568000000ED523020ED6C3DBFFDB50040D020E45
:10569000F3CFDBFFDB80DB50C26EC451D45DC5515C
:1056A000D5594AE3030EDB6A040EDB6A67D801AE04
:1056B00002D0D89003D0005C000E015820E23FD801
:1056C0000301C7511F0BEECF00F0EECF01F0EECF7C
:1056D00002F0EECF03F007E0D8900332023201323D
:1056E0000032E806F9E15CD853D800C0EEFF01C0F3
:1056F000EDFF030EDB2A040ED9E3DB2AD7D7030E16
:10570000DB6A040EDB6A3AD801AE02D0D89003D02F
:10571000005C000E01580BE212D8EE6AEE6AEE6AE7
:10572000EE6A030EDB2A040EEEE3DB2AECD702015D
:10573000FF2B0301D46BD56BD9CFE1FF11D030D84B
:10574000D890E936EA36D890E936EA36C80EE92626
:10575000030EEA221200D9CFE6FFE1CFD9FF1200F3
:10576000E552E7CFD9FF1200040DF3CFE9FFF4CFE4
:10577000EAFFC80EE926030EEA221200030EDBCF71
:1057800000F0040EDBCF01F00301C651000112004E
:10579000D890E936EA36D00EE926030EEA22120046
:0E57A000030EDBCFE9FF040EDBCFEAFF1200A1
:0257AE000301F5
:1057B000CA0EA36F570EA46F1E0EA56F580EA66FCC
:1057C0005C0EA76F5A0EA86F1200D9CFE6FFE1CF8B
:1057D000D9FF04011B511C111EE0360EE66EE66A6D
:1057E000FD0EDBCFE6FFFE0EDBCFE6FF000EE66E22
:1057F000030EE66E64EC35F0F56E060EE15EF550D4
:105800000401196B1A6B1B6B1C6B1D691E691F6BE6
:10581000206B216B226BE552E7CFD9FF1200D9CF65
:10582000E6FFE1CFD9FF0E0EE12604011B511C114A
:105830000AE11D511F1902E11E51201954E01F51A8
:1058400001E1205102E0F36A02D1010E216F226BC7
:10585000DE6ADE6AB40EDE6E420EDD6EDD52DD52B1
:10586000080EDB6A090EDB6A0A0EDB6A0B0EDB6AC6
:10587000040EDB6A050EDB6A480EF36E060EF3CFEC
:10588000DBFF420EF36E070EF3CFDBFF21C4E9FF0F
:1058900022C4EAFF060EEA02F3CFEAFFE902F3CFE1
:1058A000E9FFF450EA268B0EE926030EEA22EECF3A
:1058B00000F0EFCF01F0D9CFE6FFDACFE6FFFD0E23
:1058C000DBCFE6FFFE0EDBCFE6FF04D001C0FAFF20
:1058D0000050F96EFBDFE552E552E552E5521FC478
:1058E0001DF420C41EF421C4E9FF22C4EAFF060E01
:1058F000EA02F3CFEAFFE902F3CFE9FFF450EA2628
:105900008B0EE926030EEA22040EE926000EEA2297
:10591000EECFE6FFEFCFE6FF21C4E9FF22C4EAFFA6
:10592000060EEA02F3CFEAFFE902F3CFE9FFF450F3
:10593000EA268B0EE926030EEA22020EE926000E65
:10594000EA22EECFE6FFEFCFE6FF21C4E9FF22C453
:10595000EAFF060EEA02F3CFEAFFE902F3CFE9FF1E
:10596000F450EA268B0EE926030EEA22EECFE6FF7C
:10597000EFCFE6FF21C4E6FF22C4E6FFA90E006ECA
:10598000610E016E026A00C0E6FFE66E02C0E6FF2D
:1059900011EC36F0F56E0B0EE15EF55021C4E9FF17
:1059A00022C4EAFF060EEA02F3CFEAFFE902F3CFD0
:1059B000E9FFF450EA268B0EE926030EEA22020ED6
:1059C000E926000EEA22EECF02F0EFCF03F0FB0E45
:1059D000DBCFE6FFFC0EDBCFE6FFFD0EDBCFE6FF05
:1059E000FE0EDBCFE6FF04D003C0FAFF0250F96ED3
:1059F000FBDFE552E552E552E552F3CF00F0F350FC
:105A0000F41023E121C4E9FF22C4EAFF060EEA02F2
:105A1000F3CFEAFFE902F3CFE9FFF450EA268B0E59
:105A2000E926030EEA22040EE926000EEA22EECF52
:105A300000F0EFCF01F004D001C0FAFF0050F96E82
:105A4000FBDF04011F2B000E2023010EF36EF46A0E
:105A5000D9CFE1FFE552E7CFD9FF1200010E0401D3
:065A60001B6F1C6B12001D
:0A5A6600D8CFE4FFE0CFE4FFE46EC8
:105A7000DACFE4FFE2CFDAFFE9CFE4FFEACFE4FFD9
:105A8000F3CFE4FFF4CFE4FF00EE35F0140EE804AA
:105A900003E3EECFE4FFFBD700EE00F01E0EE804B8
:105AA00003E3EECFE4FFFBD7E652D9CFE6FFE1CF29
:105AB000D9FF020EE126F250040B07E0F250200B52
:105AC00004E0F29440EC35F0AFD09E50010B07E0BB
:105AD0009D50010B04E09E9041EC35F0A5D09E5006
:105AE000020B07E09D50020B04E09E9216EC2BF097
:105AF0009BD0A150020B07E0A050020B04E0A19242
:105B000042EC35F091D0A450080B07E0A350080BED
:105B100004E0A49643EC35F087D0F050020B07E088
:105B2000F050100B04E0F0924AEC35F07DD0F050CC
:105B3000040B07E0F050200B04E0F09452EC35F039
:105B400073D0F250010B43E0F250080B40E081505B
:105B5000DF6EF290DF500101FF19E76E010EE7CF13
:105B6000DBFFDFCFFFF1DBA80AD0100EDF1402E06D
:105B7000010E01D0000EE66E5AEC35F0E552010E32
:105B8000DBAA0AD0200EDF1402E0010E01D0000EC5
:105B9000E66E5BEC35F0E552010EDBAC0AD0400E50
:105BA000DF1402E0010E01D0000EE66E5CEC35F071
:105BB000E552010EDBAE38D0800EDF1402E0010E9C
:105BC00001D0000EE66E5DEC35F0E5522DD09E5012
:105BD000400B07E09D50400B04E09E9C18EC2BF01E
:105BE00023D09E50200B06E09D50200B03E039ECA3
:105BF0002FF01AD0A450200B06E0A350200B03E096
:105C000058EC2FF011D09E50100B06E09D50100B59
:105C100003E077EC2FF008D0A450100B05E0A35060
:105C2000100B02E08FEC2FF0D9CFE1FFE552E7CF68
:105C3000D9FFE55200EE1DF01E0EE80403E3E5CFA8
:105C4000EDFFFBD700EE48F0140EE80403E3E5CFC8
:105C5000EDFFFBD7E5CFF4FFE5CFF3FFE5CFEAFF9C
:105C6000E5CFE9FFE5CFDAFFE550E5CFE0FFE5CF8F
:105C7000D8FF100002017F0E8B6F8A6F896F886FCB
:105C8000876F866F856F846F936F926F916F906F40
:105C90008F6F8E6F8D6F8C6F8C928D928C908D909C
:105CA0008C968D968C948D948C9A8D9A8C988D98D8
:105CB0008C9E91908C9C8D9C0201A1AD24D0020100
:105CC000C0A1FAD7A00EE66E020EE66EF7EC13F056
:105CD000E552E55274EC05F093C2E6FF92C2E6FF8E
:105CE00091C2E6FF90C2E6FF00EC34F0E552E552C7
:105CF000E552E552800EE66E020EE66E10EC14F0F0
:0A5D0000E552E552D9D71200120057
:065D0A00150EAF6EAC8423
:105D10009D9A9D98AC98AC9E948EAB9CAB96AB8AAA
:105D2000AB889F9A9D8A04014B694C69949CAC9CFA
:105D3000AC969F989D88AC8AAB8E1200150E6F6E44
:105D40006C84A39AA3986C986C9E98846B9C6B96B9
:105D50006B8A6B88A59AA38A04014B694C69989257
:105D60006C9C6C96A598A3886C8A6B8E120007D9E0
:105D7000E6529D9AAEC3DFFF9D8ADF50E552FBD00D
:105D8000FED8E652A39ABAC3DFFFA38ADF50E552DA
:105D9000F2D0F5D8E6520301AB5102E0000E15D067
:105DA000AC51EA6A000FE96E020EEA22EFCFDFFF84
:105DB000AE07AC2B1F0EAC179D9AAD51AC5D02E146
:105DC000010EAB6F9D8AAA6BDF50E552D4D0D7D8B5
:105DD000E6520301B75102E0000E15D0B851EA6A4D
:105DE000400FE96E020EEA22EFCFDFFFBA07B82BB1
:105DF0001F0EB817A39AB951B85D02E1010EB76F33
:105E0000A38AB66BDF50E552B6D0B9D80301B151C1
:105E1000FDE1B451EA6A200FE96E020EEA22FE0E9D
:105E2000DBCFEFFFB52BB42B1F0EB4179D98B451E9
:105E3000B35D02E1010EB16F9D88B26B9CD09FD81B
:105E40000301BD51FDE1C051EA6A600FE96E020E27
:105E5000EA22FE0EDBCFEFFFC12BC02B1F0EC017B7
:105E6000A398C051BF5D02E1010EBD6FA388BE6B58
:105E700082D00301AA5102E09D9A1200AD51EA6A54
:105E8000000FE96E020EEA22AECFEFFFABA203D005
:105E9000AB98AB88AF2BABB4B02BAE2BAD2B1F0E9A
:105EA000AD17AD51AC5D02E1010EAA6FAB6B1200F4
:105EB0000301B65102E0A39A1200B951EA6A400FF9
:105EC000E96E020EEA226ECFEFFF6BA203D06B9851
:105ED0006B88BB2B6BB4BC2BBA2BB92B1F0EB9171D
:105EE000B951B85D02E1010EB66FB76B1200030144
:105EF000B25102E09D981200B351EA6A200FE96E98
:105F0000020EEA22EF50AD6EB507B32B1F0EB3178A
:105F1000B451B35D02E1010EB26FB16B1200030127
:105F2000BE5102E0A3981200BF51EA6A600FE96E09
:105F3000020EEA22EF506D6EC107BF2B1F0EBF1776
:105F4000C051BF5D02E1010EBE6FBD6B120017D8DC
:105F50000301A9510FE0A90505E1FE0EDBCFE6FF25
:105F600054DF07D0020EA95D05E1FE0EDBCFE6FF90
:105F700066DFE55200D0E552E7CFD9FF1200D9CF56
:085F8000E6FFE1CFD9FF12009A
:085F88005374617274696E67C5
:105F90002061726D2E0D0A00706F73340D0A00704F
:105FA0006F73330D0A00706F73320D0A00706F73D8
:105FB000310D0A0061726D20706F743A2025640DF6
:105FC0000A0063616C6C696E67206F75747075741C
:105FD0000A006175746F6E0A0063757272656E7483
:105FE0002072313A202564092063757272656E74DF
:105FF0002072323A202564092063757272656E74CE
:10600000206C313A202564092063757272656E74C4
:10601000206C323A2025640D0A0076656C20723AB5
:10602000202564092076656C206C3A2025640D0AD1
:10603000004779726F20526174653A2025642C20E4
:106040004779726F20416E676C653A2025640D0AAE
:1060500000446F6E650D000D43616C63756C617477
:10606000696E67204779726F20426961732E2E2E08
:106070000025733230303720526F626F74202D2D1F
:1060800020546F6D202D2D20526561647920746F2E
:1060900020726F6C6C21200A004779726F202B20D0
:1060A000456E636F646572730D00436F756E742087
:1060B0007A65726F0D00496C6C6567616C2073695D
:1060C00064650D006D732030207774660D00436F9A
:1060D0006E666964656E63652028506978656C73C7
:1060E0002920203D2025750D0A0020426C6F62207A
:1060F00053697A652028506978656C732920203DA2
:106100002025750D0A0054696C74204572726F72F7
:106110002028506978656C732920203D2025640D66
:106120000A002050616E204572726F7220285069FB
:1061300078656C732920203D2025640D0A00546980
:106140006C7420416E676C652028646567726565B4
:106150007329203D2025640D0A002050616E2041E6
:106160006E676C6520286465677265657329203DDC
:106170002025640D0A000D0A005365617263686989
:106180006E672E2E2E0D0A005573696E6720766994
:10619000727475616C2077696E646F770D0A0047C1
:1061A0006F742061636B0D0A007472616A2320258D
:1061B000642073746172742025782072756E2025B6
:0B61C000782073746F702025780D00AC
:0161CB0000D3
:0461CC000301EE6B72
:1061D000EF6BF06BF16BF86B1200ECC339F0EDC3B1
:1061E0003AF03B6A3C6A3AAE02D03B683C68F0D871
:1061F000080EE9D839C000F03AC001F0E80E0102FB
:10620000F3CF01F0030E0002F3500126E80E000266
:10621000F3CF00F0F4500126E80E406E030E416EFD
:10622000F3CF3BF001C03CF019EC18F03BC0F3FF9A
:106230003CC0F4FF1200EEC339F0EFC33AF0F0C3F4
:106240003BF0F1C33CF0C4D8C80EBDD8E80E3E6E9A
:10625000030E3F6EABD8E80E3E6E030EE3EF31F057
:106260000301F85108E1F26BF36BF46BF56BF66B1D
:10627000F76B010EF86F12000301F8051EE1F6C37B
