:020000040000FA
:06080000EFEF0FF0120003
:02080600321F9F
:0608080039EF08F01200B8
:02080E00C250D6
:08081000020B01E0010E1200D1
:06081800B0EF0EF012002B
:02081E000200D6
:100820005A200000C807000004000000060800006D
:08083000CE07000002000000E9
:0808380088DBFD0EDB50AD6E04
:1008400047EC0CF0EED281DB080EE126DE6ADD6AB1
:10085000200E4CDB06DB2C3442E263DB40E2040E6C
:10086000DB6A050E3BDB060E1DC0DBFF070E1EC05C
:10087000DBFF060EDBCFE9FF070EDBCFEAFFEF5011
:100880000BE0040EDB2A050E01E3DB2A060EDB2A51
:10089000070EEFE3DB2AEDD730DBFB0EDBCF2DF0CD
:1008A000FC0EDBCF2EF02C502E18E8AE02D02E34EA
:1008B00004D02D502B5C2E502C5805E3FB0EDB6A28
:1008C000FC0EDB6A06D019DBB8DB2B50EE5E2C5039
:1008D000ED5AF90EDB50020B02E0300E07DBF90E89
:1008E000DB50010B0EE1BDDA2C340BE21ADB09E21E
:1008F00054DB01E3DB2AFB0EDB06FC0EF4E2DB0635
:10090000F2D74ADA0DE0A9DA2C6A2BBE2C6830DB6C
:10091000DF2A010E01E3DB2ADDDAF3E3DB2AF1D77C
:10092000A0DA2C340BE2FDDA09E237DB01E3DB2A43
:10093000FB0EDB06FC0EF4E2DB06F2D7DECF2BF07B
:10094000DDCF2CF044D301DB0A0EE126040EDB6A76
:10095000050EDB6A060EDB6A070EC0DA080E1DC044
:10096000DBFF090E1EC0DBFF0701BE0E996FEF0E05
:10097000AD6FD950FD0FFFDA0AE1300E996F9A6B17
:100980007DDA990EE66E070EE66EBEDACED0D9504D
:10099000F90FF1DA22E051DB0A0EEE181EE1ED50FC
:1009A0001CE12ADB0001800E2C1417E0010EF36E0F
:1009B000040EF3CFDBFF050EDB6A1D681E68FD0E1B
:1009C000DBCF22F0FE0EDBCF23F045EC0FF0080E5C
:1009D0001BC0DBFF090E1CC0DBFFAD0E2B6E070E2C
:1009E0002C6E2B06000E2C5A2BC0DEFF2CC0DDFF18
:1009F000DECFE9FFDDCFEAFFEF6AD950080FE3DA77
:100A0000EE50ED1051E0080EDBCF1DF0090EDBCFEC
:100A10001EF0FB0EDBCF22F0FC0EDBCF23F0D9EC77
:100A20000FF0020E19C0DBFF030E1AC0DBFF72DAF3
:100A3000D8902C5004E60A0E2B5C000E2C5815E3BF
:100A4000F30EDBCF2BF0F40EDBCF2CF0300E2B5E51
:100A5000000E2C5A0A0E2B5E000E2C5AD950020F93
:100A6000B2DA2B50EE262C50ED22300EE76E52DA21
:100A7000E7502B26000E2C2259DAEE0613DA2BC093
:100A8000EFFFEFD9D950080F9EDA2BC022F02CC00F
:100A900023F0EECF1DF0EDCF1EF0D9EC0FF01DC00E
:100AA000EEFF1EC0EDFFA9D7D950040F8CDAEE502F
:100AB000ED101DE0D950F70F5EDA13E0F50EDB50B4
:100AC000020B0FE02D0EE66EE66AAFD9060EDB2AAA
:100AD000070E01E3DB2AF70EDB06F80E08E2DB0661
:100AE00006D024DAEE06000EDDD92D0EEF6E060ECE
:100AF000DBCF2DF0070EDBCF2EF02DC0E6FF2EC092
:100B0000E6FFBCD9DECFE6FFDDCFE6FFFDD9E5523B
:100B1000E7CF2EF0E552E7CF2DF02D50F3242B6ECA
:100B20002E50F4202BC0F3FFF46ED9CFE1FF79D122
:100B30000CDA2E0EE1262C0EDB6A2D0EDB6A2CD988
:100B400001E1B8D029D9250801E09FD0C3D901E33C
:100B5000DB2A2A0EDB6A2B0EDB6AB8D9EE6AED6A55
:100B60001BD901E1A7D018D9250801E18ED014D9ED
:100B70002D080AE1AFD901E3DB2A010EF36E2A0E3C
:100B8000F3CFDBFF2B0EDB6A07D9300809E1A2D9CE
:100B900001E3DB2AD9502A0F16DAEE82ED52F4D7A0
:100BA0005CD9300E2B5C1AE3F7D8390817E38ED9DD
:100BB0000A0EEC02F3CFEDFFEF02F3CFEEFFF4509D
:100BC000ED26EAD8D00F2B6E2C6A80D92B50EE265A
:100BD0002C50ED227FD9E4E3DB2AE2D7DDD873087D
:100BE0001DE1B8D9EECF2BF0EFCF2CF02D6A32DA21
:100BF00052D9DF500AE1CEC72BF0CFC72CF02D6AB7
:100C0000CEC7E6FFCFC7E6FF46D9DBD8D9CFE6FF90
:100C1000DACFE6FF18DEF56E060E33D0BDD86408D5
:100C200004E1610E1CDA010E11D0B6D8780802E199
:100C3000610E04D0B1D8580803E1410EA8D920D0E4
:100C4000ABD8750807E1610E0ADA000EE66EE66AB7
:100C50000A0E16D0A1D86C080AE1F6D9F3CF2BF012
:100C6000E8D8F2D9E6D836D920E3DB2A1ED094D8CA
:100C700062081BE1CFD9C7D9000EE66EE66A020E04
:100C800095D8E15EF550D5D810D086D80A0803E192
:100C90008ED90D0EEF6EE1D82C6A2BBE2C6868D968
:100CA0002C0EDB2A2D0E01E3DB2A14D901E247D7F3
:100CB000DB2A45D72C0EDBCF2BF02D0EDBCF2CF013
:100CC00086D143D9020EE126D950FD0F2B6EFF0EBF
:100CD000DA202BC0DEFFDD6E62D828D9020EEE5E70
:100CE000000EEF5ADECFE6FFDDCFE6FFA1D920DF11
:100CF00022D9D9CFE1FF95D082D8040E92D969D8F4
:100D000001E040D98ED07BD8030E8BD96ED801E09C
:100D100039D987D074D8100EABD8020E5AD801E05A
:100D200031D97FD06CD8080EA3D8020E5ED801E06E
:100D300029D977D00AD9610E9BD8020E99D8100E06
:100D400048D801E01FD96DD05AD892D8100E4DD88E
:100D500001E018D966D087D955D805E274D82BBEE2
:100D60002C6884D9F9D7A8D8E5DFE5D85AD07BD943
:100D700049D805E268D82BBE2C6878D9F9D79CD819
:100D8000C9DFD9D84ED06FD93DD805E25CD82BBE8B
:100D90002C686CD9F9D745D00AD9EF5012002CD95C
:100DA0002D6A58D92DC0E6FF43D918D1E66EE66A00
:100DB000D1D8EECFE6FFEFCFE6FFC5DDF56E0C0E26
:100DC00012002A0EDBCFE6FF2B0EDBCFE6FF03EF90
:100DD00008F0E66EE66AFD0EDBCFE6FFFE0EDBCF27
:100DE000E6FF03D9FB0FBBEF07F0E66EE66AFE0EE7
:100DF000DBCFE6FFE66AF9D8FC0FBBEF07F0A5D81A
:100E00000AEF08F015D98BEC0FF0E552E552F3CF5D
:100E10002BF0F4CF2CF00701F350AF5DF450B05934
:100E20001200E552E7CFD9FF120006DDE552E55288
:100E30001200F4CF2CF0D9502C0FC5D8F350EE2669
:100E40002C50ED221200000EAF25E96E070EB021E6
:100E5000EA6EEFCF2BF02C6A1200A9D8EFCF2BF05F
:100E60001200FB0EDBCF2BF0FC0EDBCF2CF01200C0
:100E7000E66EE66A000EE66EE66A1200F50EDBCF5D
:100E8000E6FFF60EDBCFE6FFF70EDBCFE6FFF80E50
:100E9000DBCFE6FF12002DC0E6FFD9CFE6FFDACFA9
:100EA000E6FF9CD0ED5AEECFF3FFEDCFF4FFF3CF8A
:100EB000E9FFF4CFEAFF1200010EE66EE66AFB0ED0
:100EC000DBCFE6FFFC0EDBCFE6FF1200D950280F88
:100ED000E3EF07F0FD0EDB2AFE0E1200DB6AFD0ECB
:100EE000DBCF1DF0FE0EDBCF1EF01200F36E020E04
:100EF000F3CFDBFF030EDB6A1200040EDBCF2BF017
:100F0000050EDBCF2CF012009EDCF56E060EE15EC6
:100F1000F5501200020EDBCF2BF0030EDBCF2CF0CE
:100F200012002B500008000E2C541200D9CFE9FFFC
:100F3000DACFEAFF1200E552E552E552E55212001F
:100F40000701AF2B000EB0231200D9CFE6FFE1CF8F
:100F5000D9FF120072D8EECFF3FFEDCFF4FF020EEF
:100F6000EE5E000EEF5AF3CFE9FFF4CFEAFF120076
:100F700071D815EF07F0E96EFF0EDA20EA6EEE5039
:100F8000ED1012000D0EE66EE66A15EF07F067D859
:100F9000000EE66EE66A100E1200020EDBCFE6FFD0
:100FA000030EDBCFE6FF41DFDF2A010E1200FD0E4C
:100FB000DBCFE9FFFE0EDBCFEAFF1200F0DE070118
:100FC000AF6BB06B1200E96EDACFEAFF12002BC0F4
:100FD000F3FF2CC0F4FFD9CFE1FF23D772EC0FF061
:100FE000F56E050EE15EF5501200ADDCF56E0C0EEF
:100FF000E15EF550D9501200FD0EDBCF2BF0FE0E56
:10100000DBCF2CF01200280EDBCFE6FF290EDBCF62
:10101000E6FF1200610EE66EE66A020EE66EE66A12
:101020001200E66EE66A010EE66EE66A0A0E12002D
:10103000000EE66E070EE66E1200D950FB0FE96E49
:10104000FF0EDA20EA6E1200610EA1DFAFDEE15E74
:10105000F55012002BC0E6FF2CC0E6FF1200E66E32
:10106000E66AE1EF06F071DFDEEF07F081DFA0EF67
:0210700007F087
:0E107200DACFE4FFE2CFDAFFE9CFE4FFEACF06
:10108000E4FFE652F2A202D098D802D09EB6C4D8AD
:10109000E552E5CFEAFFE5CFE9FFE5CFDAFF110042
:1010A000E66A010EE66E050EE66E7DEC0EF0E55288
:1010B000E552E5521200070EB46E000E886E876E80
:1010C000866E856E846E836E826E816E806E916E8A
:1010D000906E8F6E8E6E8D6E8C6E8B6E8A6E896E3C
:1010E00092689368BF0E946E956A700E966E9F0E0E
:1010F000976EE40E986E0F0E996E9A68C16E070E89
:10110000C06EF19EB0989C8EA26A9F6AA06A9D6A8A
:10111000A36AA56AC5DF9F86D08E9E969D86938220
:10112000F06AF288F09EF098F192F09AF16AF28CEF
:10113000F28E1200D9CFE6FFE1CFD9FFE652BBDF36
:1011400007019897989907015C0EBC6F070EBD6F59
:10115000DF6A100EDF5C0AE2DF50EA6ABC25E96E46
:10116000BD51EA227F0EEF6EDF2AF3D70701756BC0
:10117000010E766FC90E776F0701988507017A6BAC
:101180007B6B0701586B5A6B5B6B010ED56E800E43
:10119000D76EF90ED66ED59E580EE66E070EE66E29
:1011A000ABD8E552E552E552E552E7CFD9FF120040
:1011B00082828088949292981200F2920701200E07
:1011C000B86F9F86070198A906D00701E00EB56F9A
:1011D000000EB66F05D00701C00EB56F000EB66FDA
:1011E000070198A1987998A706D00701800EB36FE0
:1011F000000EB46F05D00701A00EB36F000EB46FE0
:10120000C9CFB9F7B3C7E9FFB4C7EAFFB32B000EE4
:10121000B423EF50C96E12009E96C9CFB9F70701EB
:10122000B851000824E2B5C7E9FFB6C7EAFFB52BFD
:10123000000EB623B9C7EFFFB3C7E9FFB4C7EAFF93
:10124000B32BB423EFCFB9F7B9C7C9FFB807B8516B
:101250000DE1070198810701020E766F070198934F
:10126000800ED76EF90ED66EF294D58E01D0C96A73
:101270001200D9CFE6FFE1CFD9FF070198A138D0FE
:1012800098A906D00701C00EB16F000EB26F05D04D
:101290000701E00EB16F000EB26FFD0EDBCFBAF7A3
:1012A000FE0EDBCFBBF7B76B200EB75D14E2B75174
:1012B000EA6AB125E96EB251EA22EF50E66EBAC78A
:1012C000E9FFBBC7EAFFBA2B000EBB23E552E7508C
:1012D000EF6EB72BE9D79D96070198919D860F0E6B
:1012E0000001165D05E06EC7E6FF7EEC0DF0E552ED
:1012F000E552E7CFD9FF1200D9CFE6FFE1CFD9FF02
:10130000070198B338D0020E0701765D01E17ED85F
:10131000070198A706D00701A00EB16F000EB26FAB
:1013200005D00701800EB16F000EB26FFD0EDBCF4E
:10133000BCF7FE0EDBCFBDF7B76B200EB75D14E236
:10134000BCC7E9FFBDC7EAFFBC2B000EBD23EF50B1
:10135000E66EB751EA6AB125E96EB251EA22E5526A
:10136000E750EF6EB72BE9D79D96070198779883E2
:101370009D860701752BE552E7CFD9FF12009D9698
:10138000070198919D861200D9CFE6FFE1CFD9FFE2
:101390000001166BD950FD0FE96EFF0EDA20EA6EE0
:1013A000010EEE1801E1ED5002E1168101D0BA6A9A
:1013B000D950FB0FE96EFF0EDA20EA6E010EEE182F
:1013C00001E1ED5002E1168301D0B76AD950F90F5F
:1013D000E96EFF0EDA20EA6E010EEE1801E1ED5023
:1013E00002E1168501D0736AD950F70FE96EFF0E3E
:1013F000DA20EA6E010EEE1801E1ED5002E11687E7
:1014000001D0706AE552E7CFD9FF12000701746B73
:101410006F6BC6AE04D0C69E010E6F6F0ED0F1503A
:10142000800B06E0F250080B03E0020E6F6F05D050
:10143000F0A603D0909E030E6F6F250EC6142508EC
:1014400005E0010E746FC6CF6FF768D0C55005E098
:10145000020E746FC5CF6FF761D0D0BE05D0030EFA
:10146000746FD0CF6FF75AD09DB605D0040E746F4D
:101470009DCF6FF753D09C5005E0050E746F9CCF45
:101480006FF74CD0080E9F5C05E0060E746F9FCF7F
:101490006FF744D0A25005E0070E746FA2CF6FF72C
:1014A0003DD0A55005E0080E746FA5CF6FF736D07C
:1014B000500EF214500805E0090E746FF2CF6FF76A
:1014C0002DD0470EF11405E00A0E746FF1CF6FF7BF
:1014D00025D0C00EF01405E00B0E746FF0CF6FF73F
:1014E0001DD092A805D00C0E746F92CF6FF716D056
:1014F00093B005D00D0E746F93CF6FF70FD03E0EE3
:1015000094141C0805E00E0E746F94CF6FF706D08C
:0E15100097BE04D00F0E746F97CF6FF71200C6
:02151E0085D96D
:10152000FE0EDB5007E17AD9EF507F0803E276D94F
:101530007F0EEF6E7FD179D9FE0EDB5009E16ED9B7
:10154000EFCF2BF07F0E2B5C03E268D97F0EEF6E9E
:1015500071D16BD995D9D8902C5004E6D00E2B5C64
:10156000070E2C5805E20701D00ECC6F070E0CD0E9
:1015700087D92C340BE22B50CE08080E2C5406E2EF
:101580000701CE0ECC6F080ECD6F06D0FD0EDBCF5F
:10159000CCF7FE0EDBCFCDF7CCC72BF0CDC72CF0B0
:1015A000D00E2B5E070E2C5A2B5044D13ED907018A
:1015B0006E69E150FD0F22D901E16E91D950FB0F08
:1015C0001DD901E16E93D950F90F18D901E16E953B
:1015D000D950F70F13D901E16E97D950F50F0ED9F5
:1015E00001E16E99D950F30F09D901E16E9BD950F1
:1015F000F10F04D901E16E9DD950EF0FFFD801E141
:101600006E9F18D112D9020EE126500EDE6E1F0E0B
:10161000DD6E92829280FD0EE66E08EC0DF0E552D2
:10162000978897849780998E998A978C92969294AE
:1016300097969792929A999C9998979A8996899455
:101640008E968E92899A909C90988E9A07017F0E22
:10165000636F626F616F606F5F6F5E6F5D6F5C6F16
:10166000010ED3D8D2D8A2DFF56E100EE15EF55090
:10167000000ECBD8C4EC09F0F56E080EE15EF55013
:10168000FAEC0CF0DBD8DECFE6FFDDCFE6FF4C0E48
:10169000E66E1F0EEDD8D8EC08F0D9CFE1FFCAD026
:1016A000780EE66E070EE66E39EC09F0E552E5526B
:1016B0008050010BE66EE66A390EE66E1F0ED8D832
:1016C0001EEF0CF007017E512E6AD00F2D6E070E13
:1016D0002E227F5100012D242B6E000E2E202C6E09
:1016E0007F0E2B5E000E2C5AB2D807015E6F5C6F26
:1016F00007017F512E6AD00F2D6E070E2E227E51CC
:101700002F6E306A2F502D5C2B6E30502E582C6E61
:101710007F0E2B26000E2C229AD807015F6F5D6F7B
:101720005C512B6E2C6AFF0ED8802B56000E2C5667
:101730002BC05EF72BC05CF782C760F783C761F7E9
:1017400084C762F785C763F7600EE66E070EE66E24
:101750008550010BE66EE3DEE552E552E552600E80
:10176000E66E070EE66E8550040B01E0010EE66E94
:10177000E2DE75D8100B01E0010EE66ED0DE6FD808
:10178000400B01E0010EE66ED6DEE552E552E55271
:101790005F0E0701805D02E28C800ED080512B6EBF
:1017A0002C6A2C3408E22B50A008000E2C5403E2C3
:1017B0008C908C8202D08C908C925F0E815D02E2C4
:1017C0008C840ED081512B6E2C6A2C3408E22B5065
:1017D000A008000E2C5403E28C948C8602D08C94CA
:1017E0008C968750200B02E08C9801D08C88875013
:1017F000800B02E08C9A12008C8A1200E96EFF0EB8
:10180000DA20EA6EEE50ED101200E66EE66AE66E41
:10181000E66AE66EE66AE66EE66A1200FC0EDBCF6A
:10182000E9FFFD0EDBCFEAFF1200D9CFE6FFE1CFE3
:10183000D9FF1200E552E7CFD9FF1200580EE66E2D
:10184000070EE66E7CEC09F0E552E55212002BC063
:10185000E6FF2CC0E6FF7DDEE552E5521200E552C0
:10186000E552E552610EE66E070EE66E85501200F7
:10187000E66E61EC06F0E552E552E552E5521200E3
:0E188000FD0EDBCF2BF0FE0EDBCF2CF01200A6
:02188E009EA812
:10189000FED71200FCD8FE0EDBCFE6FF68EC0DF0A1
:1018A000E552F1D0F4D80701E150FD0F506FFF0E63
:1018B000DA20516F010EEA6A5025E96E5151EA2291
:1018C000EBD850C7E9FF51C7EAFFE6D8DCD0DFD834
:1018D000FD0EDBCF2BF0FE0EDBCF2CF02D6A2BC0E4
:1018E000E6FF2CC0E6FF2DC0E6FF000EE66E070EF9
:1018F000E66E72EC0FF0F56E050EE15EF550000E2F
:10190000E66E070EE66E8BEC0FF0E552E552F3CF74
:1019100054F7F4CF55F70701F43408E25451500856
:10192000000E555503E2500E546F556B566B576BB6
:1019300057515519E8AE02D0553504D05451565D73
:10194000555157590EE2000E5625E96E070E5721E4
:10195000EA6EEF50AD6E9BDF0701562B000E57234A
:10196000E7D7A0D094D80701526B1A0E525D0DE252
:10197000FD0EDBCFE9FFDB2AFE0EDBCFEAFF01E342
:10198000DB2A8AD80701522BF0D77DD00701780EC9
:10199000506F070E516F070178510701C86FC96B6F
:1019A000CA51C81902E1CB51C91916E0070198B50F
:1019B0000ED0CAC7E6FF68EC0DF0E552C8C7E6FFD7
:1019C00068EC0DF0E5520D0EAD6E61DF07019895E4
:1019D000C8C7CAF7C9C7CBF70701CA2B000ECB236C
:1019E000CB3507E2CA51FF08000ECB5502E2CA6BA5
:1019F000CB6B1200150EE66E3C0EE66EE2EC0EF0BE
:101A0000E552E552320EE66EFFEC0FF0E5521200A1
:101A10003ED8FE0EDBCF53F745D039D8020EE12673
:101A2000FE0EDB507F0BFE0BFD0BE66E53C7E6FF91
:101A300014EC0FF0E552E5520A0EE66E1DEC10F0C4
:101A4000E5522BEC10F007EC04F00009FCE1BAECD5
:101A50000FF028EC10F0C4502D6E2E6E2D6AC3507E
:101A600000012D102B6E2EC02CF0DE6E2EC0DDFF7F
:101A7000DECF2BF0DDCF2CF02BC0F3FF2CC0F4FF1A
:101A8000D9CFE1FF0FD00D0EAD6E01DF0BD0D9CF56
:101A9000E6FFE1CFD9FF1200EF50E66E68EC0DF0E3
:0C1AA000E5521200E552E7CFD9FF12001A
:041AAC00000EE96ED1
:101AB000EA6E040063EC0DF0EA2A080EEA5CD8A492
:101AC00059EF0DF01200EF6AE93E63EF0DF01200DE
:101AD000FF0EE3CF09F009380F0B060FD8B2070F3E
:101AE0002A0FAD6E47EC0CF009500F0B060FD8B261
:101AF000070F2A0FAD6E47EC0CF0000CFF0EE3CF82
:101B000015F015B0968E15A0969E15B2988015A268
:101B1000989015B4988615A4989615B6988815A629
:101B2000989815B8968015A8969015BA968215AA19
:101B3000969215BC968415AC969415BE968615AEF5
:101B400096961200F2B4120016500F0AD8B4120082
:101B5000FF0EE3CF0AF0FE0EE3CF0BF0FD0EE3CF56
:101B60000CF0FC0EE3CF0DF00A2A16A08D8E0B2A86
:101B700016A28F800C2A16A48F860D2A16A68F888F
:101B8000FB0EE3CF0EF0FA0EE3CF0FF0F90EE3CF2A
:101B900010F0F80EE3CF11F00E2A8D800F2A8D82FF
:101BA000102A8D84112A8D8605EC0EF00A2EDBEFAB
:101BB0000DF016A08D9E0B2EE0EF0DF016A28F906B
:101BC0000C2EE5EF0DF016A48F9600000D2EEBEF16
:101BD0000DF016A68F9800000E2EF0EF0DF08D90F0
:101BE00000000F2EF5EF0DF08D920000102EFAEF91
:101BF0000DF08D940000112EFFEF0DF08D9627EC67
:101C00000EF0133ED6EF0DF01200D70E136E00004B
:101C10000000000000001DEC0EF0132E07EF0EF088
:101C2000D70E136E00000000000000001DEC0EF047
:101C3000132E12EF0EF000001200000020EF0EF045
:101C40000000000000000000000000001200030E71
:0C1C5000146E0000142E29EF0EF012009C
:041C5C001E0EF66EF4
:101C6000080EF76E000EF86E07010900F550C36FFD
:101C70000900F550C46F03E1C36701D03DD00900EE
:101C8000F550BE6F0900F550BF6F0900F550C06FE9
:101C900009000900F550E96E0900F550EA6E0900E7
:101CA00009000900F550C16F0900F550C26F090025
:101CB0000900F6CFC5F7F7CFC6F7F8CFC7F7BEC70D
:101CC000F6FFBFC7F7FFC0C7F8FF0701C15302E126
:101CD000C25307E00900F550EE6EC107F8E2C207F3
:101CE000F9D7C5C7F6FFC6C7F7FFC7C7F8FF070193
:0A1CF000C307000EC45BBFD712004B
:061CFA00D9CFE6FFDACFAE
:101D0000E6FFE1CFD9FFE2CFDAFF3F0EC716C66A82
:101D1000FD0EDB50C612FB0EDB50C712FC0EDB5073
:101D2000030A09E0010A04E0020A06E1C78C04D0B4
:101D3000C78CC68801D0C688FD0EDB50050A03E0BB
:101D4000010A04E1928A9486C79E01D09496949ADF
:101D50009488C68AE552E5CFDAFFE7CFD9FF1200B3
:101D6000D8CFE4FFE0CFE4FFE46EDACFE4FFE2CFC8
:101D7000DAFFF3CFE4FFF4CFE4FFE652D9CFE6FF7A
:101D8000E1CFD9FFE652F0A202D0F09209D0F0A440
:101D900002D0F09405D0F2A003D08150DF6EF29013
:101DA000E552E552E7CFD9FFE552E5CFF4FFE5CFA5
:101DB000F3FFE5CFDAFFE550E5CFE0FFE5CFD8FF51
:041DC00010001200FD
:0C1DC400D9CFE6FFDACFE6FFE1CFD9FF70
:101DD000E2CFDAFFAC6AAB6AFD0EDBB0AC88DBA207
:101DE00002D0AC8CAB8CDBB4AC8EDBA602D0AB8863
:101DF00001D0AB8ADBA802D0AC8401D0AC94DBACC0
:101E000002D09D8A01D09D9ADBAE02D09D8801D080
:101E10009D98FC0EDB50AF6EAC8AAB8EE552E5CFE1
:081E2000DAFFE7CFD9FF120041
:081E2800D9CFE6FFDACFE6FF97
:101E3000E1CFD9FFE2CFDAFFC26AC16AC06AFC0E05
:101E4000DB407F0B3C0BC26EFD0EDB500F0B2B6E8D
:101E5000FC0EDB38F00B300B2B10C16EFD0EDB38A7
:101E60000F0B070B2B6EFD0EDB50800B2B10C06E83
:101E7000FC0EDBAE03D09E9C9D8CF28CC280E552A2
:0A1E8000E5CFDAFFE7CFD9FF12002B
:061E8A001EC02AF01DC07D
:101E900029F01D502202F4CF1CF0F3CF1BF01E508E
:101EA0002302F4CF1EF0F3CF1DF02202F3501C26C4
:101EB000F4501D22E86A1E2229502302F3501C26EA
:101EC000F4501D22E86A1E2223AE6BEF0FF029505A
:101ED0001D5E2A501E5A2AAE000C22501D5E235051
:041EE0001E5A000C7A
:0C1EE400FB0EE3CFF6FFFC0EE3CFF7FF90
:101EF000FD0EE3CFF8FFFE0EE3CFE9FFFF0EE3CFC9
:101F0000EAFFE9CFF3FFEACFF4FF0900F5CFEFFFD7
:101F1000EE66FBD71200FE0EE3CFE9FFFF0EE3CF24
:101F2000EAFFF36AF46AEE5203E0F34AF42AFBD7BD
:021F300012009D
:0E1F3200286E756C6C2900456E636F646572D5
:101F40002076616C75653A2025640D0025730A00C2
:101F500049464920557365722050726F63657373EB
:101F60006F7220496E697469616C697A6564202EAC
:031F70002E2E0012
:0C1F7400D9CFE6FFDACFE6FFE1CFD9FFBE
:101F8000E2CFDAFFE652E652C350DF6E010EC4CF55
:101F9000DBFFDECF2BF0DDCF2CF02BC0F3FF2CC00E
:101FA000F4FFE552E552E552E5CFDAFFE7CFD9FF7E
:021FB00012001D
:0E1FB2001A6A196A100EE76ED8901D361E3698
:101FC00019361A362250195C23501A5805E322504C
:0E1FD000195E23501A5A1D2AE72EF0D7120070
:021FDE0016EEFD
:101FE00000F026EE00F0F86A269CA68EA69C56EC21
:0E1FF0000DF02EEC0EF00FEC10F0F9D71200F1
:021FFE00FF0ED4
:10200000E350316E480E01D04C0EE76EE72EFED73E
:0E201000E76AE72EFED7312EF7D70000120048
:02201E009AEC3A
:1020200008F002EC0BF007019891070198A102D08B
:0A20300050EC0BF0E1EC0EF0F8D7D5
:06203A00FF0EE350E84E2A
:102040001200000000D000D000D0E82EFAD7120015
:06205000C2909D9C1200ED
:04205600C282120030
:04205A000000000082
:020000040030CA
:0E000000FFFEFEFCFFFEFBFFFFFFFFFFFFFF0A
:00000001FF
